:020000040800F2
:1000000050F50020E901000801CF00080D9E00080E
:1000100089CE0008CD2C00083D1701080000000023
:100020000000000000000000000000004501000882
:10003000517E000800000000890100084108010805
:10004000030200080302000803020008030200087C
:10005000030200080302000803020008030200086C
:1000600003020008358100080302000803020008AB
:10007000030200080302000803020008030200084C
:10008000030200080302000803020008030200083C
:100090000302000803020008030200085D81000853
:1000A000030200080302000803020008030200081C
:1000B00003020008990A010803020008030200086D
:1000C00003020008030200080302000803020008FC
:1000D0000302000803020008411201084D12010842
:1000E0000981000803020008030200080302000857
:1000F00003020008030200080302000803020008CC
:100100000302000803020008350B0108030200087F
:100110002912010835120108CD0B0108030200085D
:10012000030200080302000803020008030200089B
:10013000DFF80CD000F090FD004800475D8D01080D
:1001400050F50020204B19680868B0E8F00F80F3E4
:100150000988BFF36F8F4FF0000080F311884EF0D5
:100160000D0E70470000000006480068006880F32C
:10017000088862B661B6BFF34F8FBFF36F8F00DFA1
:1001800000BF00BF08ED00E0EFF30980BFF36F8F01
:100190000D4B1A6820E9F00F106008B54FF0F00021
:1001A00080F311881AF06AFC4FF0000080F3118888
:1001B000BDE8084019680868B0E8F00F80F30988C6
:1001C000BFF36F8F704700BF3C020020EFF3118038
:1001D0004FF0F00181F31188704780F31188704768
:1001E000EFF3058070470000064880470648004747
:1001F000FEE7FEE7FEE7FEE7FEE7FEE7FEE7FEE7D7
:10020000FEE7FEE765080108310100080649074AD4
:100210000868504343F239021044086040087047B0
:100220000149086070470000D80200206D4EC641A9
:1002300040EA01039B0703D009E008C9121F08C068
:10024000042AFAD203E011F8013B00F8013B521EE8
:10025000F9D27047D2B201E000F8012B491EFBD25F
:1002600070470022F6E710B513460A4604461946C1
:10027000FFF7F0FF204610BD30B5044600200346CE
:1002800000E05B1C934203D2E05CCD5C401BF8D0E5
:1002900030BDF0B480EA0102D40F4200B2EB410F4E
:1002A00002D20246084611464A0042D0C30DDDB2D2
:1002B000C1F3C752AD1A202D35DAC1F3160141F44E
:1002C000000204B15242C5F1200602FA06F12A41A9
:1002D0001044B3EBD05F23D0C4B1012DA0EBC350C9
:1002E00009DCF0BC4FF0004202EAC352DBB200F579
:1002F000000000F0BCBB400000F1807000EBC35078
:10030000A0F1807040EAD170490009E0490841EA53
:10031000C071A0EBC35000F50000400800EBC350D3
:10032000F0BC00F09BBB6142012202EB4101001BCB
:10033000F6E7F0BC704781F00041AAE780F000408A
:10034000A7E780EA010210B502F00043400022D086
:100350004A001FD0010E01EB1261C0F35600C2F338
:10036000560240F4000042F40002A0FB0220000408
:100370007F39140400D0401C50EA124001D44000E0
:10038000491EC2B20C0604EBD010401C4008802A63
:1003900002D003E0002010BD20F00100002900DAA7
:1003A0000020184310BD30B480EA010202F000457D
:1003B00030F0004221F0004013D090B1C30DD40DB5
:1003C000C2F31601C0F31600E41A41F4000140F430
:1003D00000027D34914201D3641C00E04900002CEE
:1003E00002DA30BC002070474FF400000023914235
:1003F00001D3891A034340084FEA4101F7D151B1B3
:10040000914202D14FF0004105E002D24FF00101CC
:1004100001E06FF0010103EBC450284430BC00F050
:100420001DBB420005D0C0F3C7525242914201DCCD
:100430000020704700EBC15070472DE9FE4F804609
:1004400081EA0300C00F0C46009021F0004123F028
:100450000045B8EB0200A94105D24046214690462E
:100460001C460B46024623F00040104347D0270DA0
:10047000C7F30A00C3F30A510290401A01904028C2
:100480006BDAC3F3130040F4801B0098924620B14E
:100490000023D2EB030A63EB0B0B01985946C0F122
:1004A0004002504600F0A9FA06460D46504659460D
:1004B000019A00F0C1FA10EB08006141002487EABC
:1004C000115284EAE7731A4340D0009A62B3019A4A
:1004D000012A4FEA075215DC001B61EB02014FF0C5
:1004E000004202EA0752CDE90042001C41F58011AA
:1004F00032462B4600F0F8FA03B0BDE8F08F4046D4
:100500002146F9E7001B61EB0201001C41F5801355
:1005100000185B412018A2F5001747EB030140EAE1
:10052000D570B6196D4111E06D084FEA360645EAFF
:10053000C0754FEA0752001B61EB0201001C41F538
:10054000801149084FEA30000019514132462B46CC
:1005500003B0BDE8F04F00F0B8BA009801224000A7
:100560000023D0EB020263EBE073009821464FEAD0
:10057000E074B8EB000061EB0401E9E783F00043AD
:100580005BE781F0004158E72DE9FE4F81EA030463
:1005900004F0004421F0004100944FF0000B23F0E0
:1005A000004350EA01045ED052EA03045BD0C3F377
:1005B0000A54C1F30A552C44A4F2F3340194A0FB6D
:1005C0000254C1F3130141F48011C3F3130343F444
:1005D000801301FB024400FB034E840A970A44EA9D
:1005E000815447EA8357A4FB076802958D0A05FBEF
:1005F00007854FEA932C04FB0C542705029D4FEA14
:10060000065847EA1637B5EB08056EEB070C870E60
:10061000920E47EA811742EA8312A7FB0201B6EB6A
:100620000B0164EB00042B0D43EA0C335E1844EB22
:100630001C50DA465146E7FB0201C5F313044FEAAA
:100640000B3343EA14534FEA0432019C43EA060396
:10065000A4F10C040294009CCDE900B400F044FA2B
:1006600003B0BDE8F08F00200146F9E72DE9F04D19
:1006700081EA030404F0004B21F0004514464FF0DA
:10068000000A23F0004150EA050220D054EA01029A
:100690001DD0C5F30A570246C5F31303C1F3130077
:1006A000C1F30A5640F4801543F48013A7EB060803
:1006B000101BD64608F2FD3873EB050002D308F193
:1006C000010801E092185B41B8F1000F03DA002045
:1006D0000146BDE8F08D00204FF4801106468446A7
:1006E0000EE0171B73EB050705D3121B63EB050325
:1006F00006434CEA010C49084FEA300092185B416E
:1007000050EA0107EDD152EA030012D082EA040058
:1007100083EA0501084305D0101BAB4106D2012234
:10072000002306E000224FF0004302E06FF00102D8
:1007300053101AEB06004CEB085110EB0A0041EB8A
:100740000B01BDE8F04D00F0C0B970B521F00043D9
:1007500003430CD0C1F30A550024D5EB040564EB28
:100760000403D617AD1AB34102DB0020014670BD69
:10077000201841EB025170BDC10F80EAE0700844BF
:10078000CA079623002100F072B996230022114671
:1007900000F06DB90EB5C10F80EAE0700844CA07D9
:1007A000002140F233438DE80E000A460B4600F06C
:1007B0009BF903B000BD0EB540F233410291002118
:1007C000CDE900110A460B4600F08EF903B000BDDA
:1007D00000F0004220F00040C10DC0F3160040F4CC
:1007E00000007F2901DA00207047962903DCC1F15F
:1007F0009601C84001E096398840002AF4D0404272
:10080000704720F00040C10DC0F3160040F4000016
:100810007F2901DA00207047962903DCC1F1960197
:10082000C840704796398840704770B5C1F30A5286
:1008300001F000450024C1F3130140F2FF3341F4FD
:1008400080119A4201DA002070BD40F233439A428F
:10085000A2F2334203DC524200F0DEF800E09040A6
:100860002C43F1D0404270BDC1F30A5210B5C1F320
:10087000130140F2FF3341F480119A4201DA002063
:1008800010BD40F233439A42A2F2334203DC52429B
:1008900000F0C2F810BD904010BD00F0004230F0F2
:1008A00000400AD0C10D01F56071C0F3160042EAA4
:1008B0000151C208400711437047002001467047AC
:1008C00030B5041E71F1000404DB4FF000444042D7
:1008D00064EB0101141E73F1000405DB1C464FF0AC
:1008E0000043524263EB04038B4208BF824230BD97
:1008F00030B5041E71F1000404DB4FF000444042A7
:1009000064EB0101141E73F1000405DB1C464FF07B
:100910000043524263EB0403994208BF904230BD4A
:1009200001F0004330B421F0004150EA010206D04A
:100930000A0DA2F56072C1F31301002A02DC30BC7B
:1009400000207047440F44EAC104C100E01830BCE5
:1009500000EBC25000F082B8002801DBC0F100407B
:10096000002901DBC1F100418142704730B50B46DF
:10097000014600202022012409E021FA02F59D42CF
:1009800005D303FA02F5491B04FA02F52844151EA3
:10099000A2F10102F1DC30BD2DE9F05F0546002037
:1009A00092469B4688460646814640241BE02846E0
:1009B00041464746224600F02FF853465A46C01A91
:1009C000914110D311461846224600F016F82D1A10
:1009D00067EB01084F4622460120002100F00DF888
:1009E00017EB00094E41201EA4F10104DFDC48464C
:1009F00031462A464346BDE8F09F202A04DB203AD0
:100A000000FA02F1002070479140C2F1200320FA61
:100A100003F3194390407047202A04DB203A21FA5F
:100A200002F00021704721FA02F3D040C2F1200207
:100A30009140084319467047202A06DBCB17203A1D
:100A400041FA02F043EAE07306E041FA02F3D040D3
:100A5000C2F1200291400843194670470029A8BFFF
:100A60007047401C490008BF20F00100704710B4D7
:100A7000B0FA80FC00FA0CF050EA010404BF10BC8C
:100A8000704749B1CCF1200421FA04F411FA0CF1B9
:100A900018BF012121430843A3EB0C01CB1D4FEAF2
:100AA00000614FEA102042BF002010BC704700EBED
:100AB000C35010440029A4BF10BC7047401C49001B
:100AC00008BF20F0010010BC704710B5141E73F170
:100AD000000408DA401C41F1000192185B411A43FE
:100AE00001D120F0010010BD2DE9F04D92469B464A
:100AF00011B1B1FA81F202E0B0FA80F220329046F0
:100B0000FFF77BFF04460F4640EA0A0041EA0B016B
:100B100053465A46084313D0114653EA010019D0F0
:100B2000C8F140025046FFF777FF05460E46504693
:100B300059464246FFF761FF084305D0012004E013
:100B400020463946BDE8F08D0020054346EAE076B0
:100B50002C4337430A986305E40AA0EB08000022FF
:100B6000FD0A44EA47540A3002D500200146E9E76D
:100B7000010510196941DDE9084500196941BDE821
:100B8000F04DA2E72DE9F04D00231A461B1A8A41C9
:100B900003DB00200146BDE8F08DC1F30A52C1F32A
:100BA000130141F480154FF0000BD10702D100185A
:100BB0006D41521E0027044640F2FF11384601EBFA
:100BC000620A3E468046024600204FF48011FFF73D
:100BD00023FFC2197141BB1846EB0100B4EB030CB3
:100BE00075EB000C04D3E41A65EB000517460E46BE
:100BF000241908F101006D4180463428E3DDF9191C
:100C000046EB0600091BA84103D24FF0FF32134602
:100C100001E0002213461BEB070046EB0A51BDE83A
:100C2000F04DFFF752BFC1F30A52C1F3130140F276
:100C3000FF3341F480119A4202DA002001467047E6
:100C400040F233439A42A2F2334202DC5242FFF7AF
:100C5000E3BEFFF7D2BE0000064C074D06E0E06899
:100C600040F0010394E8070098471034AC42F6D3F3
:100C7000FFF762FA78B7010898B7010870B58C18C9
:100C800010F8015B15F0070301D110F8013B2A11A0
:100C900006D110F8012B03E010F8016B01F8016B8D
:100CA0005B1EF9D12B0705D40023521E0DD401F889
:100CB000013BFAE710F8013BCB1A921C03E013F852
:100CC000015B01F8015B521EF9D5A142D8D3002087
:100CD00070BD002904D0816841F001018160704736
:100CE000816821F0010181607047000010B515494D
:100CF00088420AD14415012120460CF0D3F9204640
:100D0000BDE8104000210CF0CDB90F4988420AD14E
:100D10000415012120460CF0C5F92046BDE810401D
:100D200000210CF0BFB9094988420AD10121CC0346
:100D300020460CF0B7F92046BDE8104000210CF029
:100D4000B1B910BD0024014000280140003C014021
:100D5000014600208968490700D501207047C06C12
:100D600080B270470246002012680A4200D001207B
:100D70007047014600208968090700D501207047A7
:100D800010B542680E4B1A400C790B6842EA0422F7
:100D90001343436082680B4B1A40D1E9024323435B
:100DA0004C7942EA440213438360C26A22F470021F
:100DB000097C491EC9B242EA0151C16210BD00005E
:100DC000FFFEF0FFFDF7F1FF70B5072609290AD9EC
:100DD000C568A1F10A0404EB4404A640B543A3404E
:100DE0001D43C56007E0056901EB4104A640B5431A
:100DF000A3401D4305611F23072A09D2446B521EDD
:100E000002EB820293409C4391400C43446370BDCB
:100E10000D2A09D2046BD21F02EB820293409C433D
:100E200091400C43046370BDC46A0D3A02EB820228
:100E300093409C4391400C43C46270BD816841F073
:100E4000080181607047002904D0816841F4A00145
:100E500081607047816821F4A001816070478168DA
:100E600041F00401816070472DE9F84F04468B463C
:100E70000027A068642190FBF1F6DFF828A4002584
:100E80005046BAF92EC00122017900F5807900F1AF
:100E90008008BCF1870F6FD018DCBCF1830F5BD0EA
:100EA0000ADCBCF1000F23D0BCF1810F7DD0FE4DD8
:100EB000BCF1820F1FD11FE0BCF1840F76D0BCF1D2
:100EC000850F5DD0BCF1860FF4D1A7E0F748ACF1F7
:100ED000880C00780090F348407C431CDBB2BCF1E6
:100EE000070F08D2DFE80CF0FCFBD1FAF9F8F700A5
:100EF0008220AAF82E003CE32068FFF74BFC17F095
:100F0000F6FF00222B46FFF7F3FC09D36068FFF7DA
:100F100041FC17F0ECFF00222B46FFF7E9FC0CD256
:100F20000020C9F81000C9F81400C9F81800C9F861
:100F30001C008320AAF82E001BE30020C9F8100033
:100F4000C9F814000021C9F81810C9F81C100227AC
:100F50008120AAF82E000CE3BBF1000F09D0BBF1F1
:100F6000010F0AD002208AF812008520AAF82E006C
:100F7000FFE28AF81250F8E72CE18AF81220F4E731
:100F8000DFF82CB339B92068C8F82C006068C8F8BD
:100F900030008AF80420C7480021C9E90410C9F8C4
:100FA0001810C9F81C10206801E0D4E2C4E2D8F897
:100FB0002C10081AFFF7EEFB17F099FF00225B4692
:100FC000FFF796FC0CD36068D8F83010081AFFF7CA
:100FD000E1FB17F08CFF00225B46FFF789FC8AD209
:100FE0000021C9F81010C9F81410C9F81810C9F870
:100FF0001C108AF80450C8F83C609AF8120028B116
:10100000012807D08820AAF82E00B2E28620AAF88C
:101010002E00AEE28720AAF82E00AAE2D8F83C0003
:10102000801BFFF7B7FB17F062FF0022A24BFFF710
:101030005FFC0CD20021C9F81010C9F81410C9F8CF
:101040001810C9F81C108920AAF82E0091E2BBF1F3
:10105000030F0CD195480078012808D00020C9F86A
:101060001000C9F814009549C9E9060181E2002180
:10107000C9F81010C9F814100020C9F81800C9F8F0
:101080001C008A20AAF82E0073E239B92068C8F83B
:101090002C006068C8F830008AF8042085480021D8
:1010A000C9E90410C9F81810C9F81C102068D8F84C
:1010B0002C10081AFFF76EFB17F019FF804E002264
:1010C0003346FFF715FC13D36068D8F83010081AC0
:1010D000FFF760FB05E099E1D3E1B2E004E116E03F
:1010E0005EE117F004FF00223346FFF701FC8CD2CB
:1010F0000021C9F81010C9F81410C9F81810C9F85F
:101100001C108AF804508620AAF82E0031E239B962
:101110002168C8F82C106168C8F830108AF80420DB
:10112000BBF1030F13D10099012910D00A281FD950
:101130000021C9F81010C9F81410C9F81810C9F81E
:101140001C108AF804508420AAF82E0011E2002016
:10115000C9F81000C9F81400C9F81800C9F81C0033
:101160008AF804508AF811308520AAF82E0000E28F
:101170002068D8F82C10081AFFF70CFB17F0B7FE00
:10118000504E00223346FFF7B3FB0CD36068D8F80B
:101190003010081AFFF7FEFA17F0A9FE00223346B6
:1011A000FFF7A6FB0DD20021C9F81010C9F81410E2
:1011B000C9F81810C9F81C108AF804508120AAF840
:1011C0002E0041480021C9E90410C9F81810C9F8D7
:1011D0001C10CEE1D8F83C00801BFFF7DBFA17F0BB
:1011E00086FE0022344BFFF783FB0DD20021C9F8A5
:1011F0001010C9F814100020C9F81800C9F81C0014
:101200008B20AAF82E00B4E1BBF1030F0CD12748C4
:101210000078012808D00021C9F81010C9F814106E
:101220002A48C9E90610A4E10021C9F81010C9F83C
:101230001410C9F81810C9F81C108C20AAF82E0038
:1012400097E139B92068C8F82C006068C8F8300008
:101250008AF8042017480021C9E90410C9F81810B9
:10126000C9F81C102068D8F82C10081AFFF792FA59
:1012700017F03DFE124E00223346FFF739FB0CD328
:101280006068D8F83010081AFFF784FA17F02FFEBC
:1012900000223346FFF72CFB9BD20021C9F8101027
:1012A00016E0000098000020000069409000002037
:1012B00000002E4000C072C000003E4000004EC042
:1012C000000008400000794000C0724000004E401D
:1012D000C9F81410C9F81810C9F81C108AF804507D
:1012E0008720AAF82E0044E139B92168C8F82C10EB
:1012F0006168C8F830108AF804209F490022C9E9C3
:1013000004210021C9F81810C9F81C10BBF1030F03
:101310000FD1009901290CD00A2817D90021C9F84A
:101320001010C9F814108AF804508420AAF82E006E
:101330001FE10021C9F81010C9F814108AF80450F0
:101340008AF811308520AAF82E0012E12068D8F81A
:101350002C10081AFFF71EFA17F0C9FD874E00225D
:101360003346FFF7C5FA0CD36068D8F83010081A76
:10137000FFF710FA17F0BBFD00223346FFF7B8FA6B
:101380000DD20021C9F81010C9F81410C9F81810AE
:10139000C9F81C108AF804508120AAF82E00E8E051
:1013A000D8F83C00801BFFF7F5F917F0A0FD0022EC
:1013B000734BFFF79DFA0CD20021C9F81010C9F841
:1013C0001410C9F81810C9F81C108D20AAF82E00A6
:1013D000CFE0BBF1030F0CD16A480078012808D098
:1013E0000021C9F81010C9F814106748C9E906109F
:1013F000BFE00021C9F81010C9F81410C9F818107E
:10140000C9F81C108E20AAF82E00B2E039B9206865
:10141000C8F82C006068C8F830008AF804205B48DF
:101420000021C9E90410C9F81810C9F81C10206877
:10143000D8F82C10081AFFF7ADF917F058FD544EE4
:1014400000223346FFF754FA0CD36068D8F8301006
:10145000081AFFF79FF917F04AFD00223346FFF7FD
:1014600047FA0DD20021C9F81010C9F81410C9F8B4
:101470001810C9F81C108AF804508820AAF82E0009
:1014800077E039B92168C8F82C106168C8F83010C5
:101490008AF8042038490022C9E90421C9F8182033
:1014A000C9F81C20BBF1030F0FD1009901290CD002
:1014B000052817D90021C9F81010C9F814108AF8A6
:1014C00004508420AAF82E0053E00021C9F810101F
:1014D000C9F814108AF804508AF811308520AAF847
:1014E0002E0046E02068D8F82C10081AFFF752F9B1
:1014F00017F0FDFC214E00223346FFF7F9F90CD31B
:101500006068D8F83010081AFFF744F917F0EFFCBC
:1015100000223346FFF7ECF92BD20021C9F8101056
:10152000C9F81410C9F81810C9F81C108AF804502A
:101530008120AAF82E001CE00021C9F81010C9F87B
:101540001410C9F81810C9F81C10AAF82E508AF8FF
:10155000115001270DE00021C9F81010C9F814102E
:10156000C9F81810C9F81C10AAF82E508AF81150A2
:1015700001273846BDE8F88F00C07240000079406E
:10158000008046409000002000004E4000C072C025
:10159000000008402DE9FC5F83460F464FF0000A2B
:1015A000DBF80800642190FBF1F9F94CF9480121BE
:1015B000B4F92A2003782046DFF8DC83007904F5AB
:1015C000807504F180065B2A7AD034DC4F2A78D00B
:1015D00022DCF24F492A75D00FDCDFF8C4834FF0CC
:1015E0007807412A73D003DC4AB3402A48D148E047
:1015F000452A69D0482AF9D1DEE04A3ADFF8A483C7
:10160000DFF8A4B3E94F052A3AD2DFE812F0F4027A
:10161000CA03B10480056B06DFF894C3503A0B2A65
:10162000DCF800C0F0D2DFE802F0FBF4F3F2F1F0F6
:10163000EFEEEDECEB005D3A1C2AE5D200E01DE098
:10164000DFE812F025037C03E90341041E000D04CA
:101650006404BB0411051E00DF0433058B05F2058D
:101660001E00B5051D067906D0061E009D06F4066F
:101670004C07A2071E007007C607060840206085B9
:10168000FCE2DBF80000FFF785F817F030FC0022E1
:101690004346FFF72DF90AD3DBF80400FFF77AF889
:1016A00017F025FC00224346FFF722F90DD2412016
:1016B0006085C0480021C5E90410A961E961DFE740
:1016C00018E3FDE397E102E01CE06785D8E7207BA3
:1016D00050B1B8480021C5E90410A961E9610020B2
:1016E000A07345206085CBE7A07B401CC0B2A073EF
:1016F0000A2802D94FF0040A01E04FF0030A002043
:101700006085BDE7DBF80000FFF744F817F0EFFB5A
:1017100000224346FFF7D4F80AD2DBF80400FFF7B3
:1017200039F817F0E4FB00224346FFF7C9F803D36A
:10173000617B207B814201D36785A1E72D2807D9F2
:10174000002060854FF0020A60732073A07397E752
:101750009948405C612817D0622818D0632819D0B6
:1017600064281AD065281BD066281CD067281DD095
:1017700068281ED067858F480022C5E90420AA6129
:10178000EA61491C61737BE748206085F3E74920E3
:101790006085F0E74A206085EDE74B206085EAE749
:1017A0004C206085E7E74D206085E4E74E206085AA
:1017B000E1E74F206085DEE74846FEF7EBFF88460D
:1017C000074617F094FB00227C4BFFF779F803D90A
:1017D000A9F12E00542802D25020608550E73846E7
:1017E000414617F084FB0022754BFFF781F804D3C4
:1017F00009F18C09B9F15F0F0DD2512060853FE7E7
:1018000022E2A4E149E1D4E179E11AE181E02BE0AF
:10181000B1E05BE004E0706F2860522060852FE744
:10182000A9F18509B9F1050F0AD262480021C5E97D
:101830000410A961E961706F2860522060851FE77C
:10184000032F08D1012B06D00020286168615D4973
:10185000C5E9060114E70020286168610021A9613B
:10186000E961532060850BE730B9DBF80000F062D6
:10187000DBF804003063217153480021C5E90410EE
:10188000A961E961DBF80000F16A081AFEF782FF3E
:1018900017F02DFB00224346FFF72AF80CD3DBF8A4
:1018A0000400316B081AFEF775FF17F020FB0022C9
:1018B0004346FFF71DF891D200212961696100209C
:1018C000A861E861207150206085D9E6A9F18509F9
:1018D000B9F1050F0AD237480021C5E90410A96102
:1018E000E961706F286052206085C9E6032F08D136
:1018F000012B06D00020286168613449C5E9060142
:10190000BEE6002028616861A861E8615420608516
:10191000B6E630B9DBF80000F062DBF804003063B3
:10192000217129480021C5E90410A961E961DBF8AA
:101930000000F16A081AFEF72DFF17F0D8FA00220E
:101940004346FEF7D5FF0CD3DBF80400316B081AD1
:10195000FEF720FF17F0CBFA00224346FEF7C8FF40
:10196000B3D2002129616961A961E9610020207178
:101970005120608584E6032F2AD1012B28D0706F77
:10198000A0EB0C00B0F5846F2EDB4520608577E678
:1019900098000020900000200000084000E0654012
:1019A0000000694000E06040000044400000144036
:1019B0009801002000C07240716E002000804640F7
:1019C0000080614000004E4000C072C000004EC068
:1019D000002028616861A861E86160854FF0020A13
:1019E00060732073A0734BE6FE480021C5E9041024
:1019F000A961E96144E64846FEF7CCFE8B46804685
:101A000017F075FA00223B46FEF75AFF05D2B9F1EE
:101A1000000F02DB5520608532E64046594617F03C
:101A200066FA00223B46FEF74BFF05D2B9F1000FE4
:101A300002DA5620608523E6706F286057206085A3
:101A40001EE64846FEF7A6FE17F051FA0022E64BC6
:101A5000FEF74EFF0AD2E3480021C5E90410A96150
:101A6000E961706F28605720608509E6032F0BD16C
:101A7000DE480078012807D0002028616861DC4832
:101A80000021C5E90610FBE50020286168610021FE
:101A9000A961E96158206085F2E530B9DBF8000002
:101AA000F062DBF8040030632171D2480021C5E9FF
:101AB0000410A961E961DBF80000F16A081AFEF779
:101AC00069FE17F014FA00224346FEF711FF0CD30B
:101AD000DBF80400316B081AFEF75CFE17F007FA1A
:101AE00000224346FEF704FF84D200212961696188
:101AF000A961E9610020207155206085C0E5484654
:101B0000FEF748FE17F0F3F90022B74BFEF7F0FEA0
:101B10000AD2B4490020C5E90401A861E861706FE8
:101B2000286057206085ABE5032F08D0002028618E
:101B300068610021A961E96159206085A0E5002064
:101B400028616861AC480021C5E9061098E530B904
:101B5000DBF80000F062DBF8040030632171A54877
:101B60000021C5E90410A961E961DBF80000F16A10
:101B7000081AFEF70FFE17F0BAF900224346FEF7E7
:101B8000B7FE0CD3DBF80400316B081AFEF702FE37
:101B900017F0ADF900224346FEF7AAFEAED20020B0
:101BA000286168610021A961E96120715620608582
:101BB00066E5032F0BD1012B09D0706F40F2F6219F
:101BC000A0EB0C0088420EDD4520608558E5002022
:101BD00028616861A861E86160854FF0020A60735E
:101BE0002073A0734CE57F490020C5E90401002162
:101BF000A961E96144E54846FEF7CCFD8846074601
:101C000017F075F900227D4BFEF772FE03D3A9F1A0
:101C10002E005E2802D85A20608531E538464146BC
:101C200017F065F90022764BFEF74AFE04D909F158
:101C30008109B9F1540F02D25B20608520E5706FF5
:101C40002860522060851BE509F18909B9F1050F6B
:101C50000AD264490020C5E90401A861E861706FF7
:101C60002860522060850BE5032F08D1012B06D098
:101C70000021296169615E48C5E9061002E2002180
:101C800029616961A961E9615D206085FAE130B986
:101C9000DBF80000F062DBF8040030632171554985
:101CA0000020C5E904010021A961E961DBF8000019
:101CB000F16A081AFEF76EFD17F019F90022434683
:101CC000FEF716FE0CD3DBF80400316B081AFEF7A2
:101CD00061FD17F00CF900224346FEF709FE89D298
:101CE000002129616961A961E961002020715A2000
:101CF0006085C7E109F18909B9F1050F0AD23948B0
:101D00000021C5E90410A961E961706F28605220C3
:101D10006085B7E1032F09D1012B07D0002028618E
:101D2000686135480021C5E90610ABE10021296151
:101D30006961A961E9615E206085A3E130B9DBF8E2
:101D40000000F062DBF804003063217129490020B3
:101D5000C5E904010021A961E961DBF80000F16A2D
:101D6000081AFEF717FD17F0C2F800224346FEF7E7
:101D7000BFFD0CD3DBF80400316B081AFEF70AFD37
:101D800017F0B5F800224346FEF7B2FDB1D20021AC
:101D900029616961A961E961002020715B2060858A
:101DA00070E14846FEF7F6FC8846074617F09FF8B4
:101DB0000022144BFEF79CFD02D25F20608561E19A
:101DC0003846414617F093F800220F4BFEF778FD96
:101DD00004D3A9F15509B9F10A0F17D8602060851D
:101DE00050E1000000C072400020664090000020DA
:101DF00000004E4000C072C000004EC00080614034
:101E00000080464000C0574000405540706F286039
:101E10005720608536E109F18909B9F1050F0BD228
:101E2000FC480021C5E904100020A861E861706F3A
:101E300028605720608525E1032F08D1012B06D0AB
:101E4000002129616961F448C5E906101AE1002101
:101E500029616961A961E9616220608512E130B997
:101E6000DBF80000F062DBF8040030632171EB481E
:101E70000021C5E90410A961E961DBF80000F16AFD
:101E8000081AFEF787FC17F032F800224346FEF7E7
:101E90002FFD0CD3DBF80400316B081AFEF77AFC37
:101EA00017F025F800224346FEF722FD87D20021D5
:101EB00029616961A961E961002020715F2000E06A
:101EC000E7E26085D0E309F18909B9F1050F0AD28B
:101ED000D0480021C5E90410A961E961706F28604C
:101EE00057206085C0E3032F08D1012B06D00021C5
:101EF00029616961CA48C5E90610B5E30021296175
:101F00006961A961E96163206085ADE330B9DBF8FF
:101F10000000F062DBF8040030632171BF4800214B
:101F2000C5E90410A961E961DBF80000F16A081A4B
:101F3000FEF730FC16F0DBFF00224346FEF7D8FC2C
:101F40000CD3DBF80400316B081AFEF723FC16F003
:101F5000CEFF00224346FEF7CBFCB3D2002129611D
:101F60006961A961E96100202071602060857BE3DF
:101F70004846FEF70FFC0746019116F0B8FF002215
:101F80004346FEF7B5FC10D93846019916F0AFFF6D
:101F900000225B46FEF794FC04D3A9F12809B9F1AD
:101FA0005F0F05D2652060855EE3642060855BE39A
:101FB000706F28605220608556E309F12F09B9F14E
:101FC000050F0BD293480021C5E904100020A86139
:101FD000E861706F28605220608545E3032F08D1C7
:101FE000012B06D00021296169618B48C5E90610E3
:101FF0003AE3002129616961A961E961672060858F
:1020000032E330B9DBF80000F062DBF80400306343
:10201000217182480021C5E90410A961E961DBF85A
:102020000000F16A081AFEF7B5FB16F060FF002207
:102030004346FEF75DFC0CD3DBF80400316B081A55
:10204000FEF7A8FB16F053FF00224346FEF750FCB4
:102050008DD2002129616961A961E96100202071A7
:102060006420608500E309F12F09B9F1050F0AD258
:1020700068480021C5E90410A961E961706F286012
:1020800052206085F0E2032F07D0002129616961A9
:10209000A961E96168206085E6E200202861686145
:1020A0005F480021C5E90610DEE230B9DBF8000028
:1020B000F062DBF804003063217158480021C5E963
:1020C0000410A961E961DBF80000F16A081AFEF763
:1020D00061FB16F00CFF00224346FEF709FC0CD30F
:1020E000DBF80400316B081AFEF754FB16F0FFFE14
:1020F00000224346FEF7FCFBB4D20021296169614E
:10210000A961E9610020207165206085ACE2484644
:10211000FEF740FB8B46804616F0E9FE00223B4668
:10212000FEF7E6FB05D2B9F1000F02DA69206085FF
:102130009AE24046594616F0DAFE00223B46FEF788
:10214000D7FB05D2B9F1000F02DD6A2060858BE272
:10215000706F28605720608586E24846FEF71AFBBC
:1021600016F0C5FE00224346FEF7AAFB0AD2294814
:102170000021C5E90410A961E961706F286057204A
:10218000608571E2032F0AD126480078012806D025
:102190000021296169612048C5E9061064E2002137
:1021A00029616961A961E9616C2060855CE230B9EF
:1021B000DBF80000F062DBF804003063217117489F
:1021C0000021C5E90410A961E961DBF80000F16AAA
:1021D000081AFEF7DFFA16F08AFE00224346FEF7E1
:1021E00087FB0CD3DBF80400316B081AFEF7D2FA38
:1021F00016F07DFE00224346FEF77AFB86D20021D0
:1022000029616961A961E961002020716920608507
:102210002AE2000000C0724000004E4000C072C0C0
:1022200000004EC0900000204846FEF7B3FA16F0BA
:102230005EFE00224346FEF743FB0BD2FD48002121
:10224000C5E904100020A861E861706F286057207C
:10225000608509E2032F0AD1F7480078012806D0EB
:10226000002129616961F548C5E90610FCE10021FA
:1022700029616961A961E9616D206085F4E130B986
:10228000DBF80000F062DBF8040030632171EC49F8
:102290000020C5E904010021A961E961DBF8000023
:1022A000F16A081AFEF776FA16F021FE002243467C
:1022B000FEF71EFB0CD3DBF80400316B081AFEF7A7
:1022C00069FA16F014FE00224346FEF711FB9FD276
:1022D000002129616961A961E961002020716A20FA
:1022E0006085C1E14846FEF755FA0746009116F0B1
:1022F000FEFD00225B46FEF7E3FA03D909F18600F2
:102300005E2802D26E206085AEE13846009916F054
:10231000EEFD00224346FEF7EBFA04D9A9F133099A
:10232000B9F1540F02D26F2060859DE1706F286073
:102330005220608598E1A9F12B09B9F1050F0AD265
:10234000BC480021C5E90410A961E961706F2860EB
:102350005220608588E1032F08D1012B06D000218F
:1023600029616961B748C5E906107DE1002028614F
:1023700068610021A961E9617120608574E130B96B
:10238000DBF80000F062DBF8040030632171AC4838
:102390000021C5E904100020A861E861DBF8000015
:1023A000F16A081AFEF7F6F916F0A1FD002243467D
:1023B000FEF79EFA0CD3DBF80400316B081AFEF727
:1023C000E9F916F094FD00224346FEF791FA08D28F
:1023D0000020286168610021A961E96120716E20F7
:1023E000608541E1A9F12B09B9F1050F0AD29148A5
:1023F0000021C5E90410A961E961706F28605220CD
:10240000608531E1032F08D1012B06D0002129611D
:1024100069618A48C5E9061026E1002028616861E3
:102420000021A961E961722060851DE130B9DBF806
:102430000000F062DBF80400306321718048002165
:10244000C5E904100020A861E861DBF80000F16A2A
:10245000081AFEF79FF916F04AFD00224346FEF7E0
:1024600047FA0CD3DBF80400316B081AFEF792F937
:1024700016F03DFD00224346FEF73AFA08D200214D
:1024800029616961A961E961002020716F2060857F
:10249000EAE04846FEF77EF98846074616F027FD33
:1024A0000022694BFEF70CFA02D273206085DBE054
:1024B0003846414616F01BFD0022644BFEF718FA21
:1024C00004D309F15F09B9F10A0F02D874206085BD
:1024D000CAE0706F286057206085C5E0A9F15809EF
:1024E000B9F1050F0AD253480021C5E90410A961CA
:1024F000E961706F286057206085B5E0032F08D12F
:10250000012B06D00021296169614E48C5E90610FA
:10251000AAE00020286168610021A961E9617620B4
:102520006085A1E030B9DBF80000F062DBF8040060
:102530003063217142480021C5E90410A961E961B5
:10254000DBF80000F16A081AFEF724F916F0CFFC58
:1025500000224346FEF7CCF90CD3DBF80400316BC4
:10256000081AFEF717F916F0C2FC00224346FEF7E0
:10257000BFF979D2002129616961A961E96100206F
:102580002071732060856FE0A9F15809B9F1050F3A
:102590000BD228480021C5E904100020A861E86199
:1025A000706F2860572060855EE0032F08D1012BF3
:1025B00006D00021296169612048C5E9061053E071
:1025C000002129616961A961E961772060854BE09B
:1025D00030B9DBF80000F062DBF8040030632171F1
:1025E00017480021C5E90410A961E961DBF8000082
:1025F000F16A081AFEF7CEF816F079FC002243467D
:10260000FEF776F90CD3DBF80400316B081AFEF7FD
:10261000C1F816F06CFC00224346FEF769F923D29C
:10262000002129616961A961E9610020207174209C
:10263000608519E000C072409000002000004EC08C
:1026400000C072C000004E400040554000C05740DE
:102650000021296169610020A861E8614FF0010A49
:1026600060732073A07360855046BDE8FC9F000036
:102670002DE9F05F04460E464FF00008A568DFF82C
:10268000E4A100275146BAF92C000A7980310123D0
:10269000DFF8D4B101F1800943283CD003DC38B124
:1026A00042280AD10AE044286DD04728F9D19FE09A
:1026B000886FC8674220AAF82C00CFE0032E1DD1F6
:1026C0006A480078012819D0D1E91E01401AFEF7A6
:1026D00061F816F00CFC0022654BFEF709F911D2E7
:1026E0000020C9F81000C9F81400C9F81800C9F88A
:1026F0001C00AAF82C704FF00108AFE04320AAF8A4
:102700002C00ABE05B480021C9E90410C9F818109F
:10271000C9F81C10A2E02AB92068C8626068086382
:102720008AF8043054480022C9E90420C9F8182066
:10273000C9F81C200E462068C96A081AFEF72AF854
:1027400016F0D5FB00225B46FEF7D2F80BD360688B
:10275000316B081AFEF71EF816F0C9FB00225B4623
:10276000FEF7C6F87AD20021C9F81010C9F8141083
:10277000C9F81810C9F81C108AF80470F5634420D1
:10278000AAF82C006AE0C86B0C46401BFEF702F862
:1027900016F0ADFB0022394BFEF7AAF80FD200204D
:1027A000C9F81000C9F814000021C9F81810C9F8B8
:1027B0001C10A06FE0674220AAF82C004EE0032E08
:1027C0000DD00020C9F81000C9F814000021C9F884
:1027D0001810C9F81C104720AAF82C003EE0002170
:1027E000C9F81010C9F814102548C9E9061035E0D9
:1027F0002AB92068C862606808638AF804301E48F5
:102800000022C9E90420C9F81820C9F81C200E4686
:102810002068C96A081AFDF7BDFF16F068FB0022A0
:102820005B46FEF765F80BD36068316B081AFDF75D
:10283000B1FF16F05CFB00225B46FEF759F80DD2A3
:102840000021C9F81010C9F81410C9F81810C9F8F7
:102850001C108AF804704420AAF82C004046BDE8F9
:10286000F09F00009800002000002E409000002003
:1028700000F08D4000C0724000C072C000003E40B9
:1028800000004E402DE9F04F8DB000210B91012644
:102890000A910991089107910023026841F2883159
:1028A00054184FF4C87294FBF2F40FFA84F940689C
:1028B000084490FBF2F00FFA80FB91FBF2F000B2BB
:1028C000029091FBF2F000B201900024DFF89CE24C
:1028D000002C02DD4FF0010801E04FF0000800215C
:1028E000DFF88CC2002001EBC10202EB01120CEBFD
:1028F00082052A18977DFA2F08D0927D32B1401CAC
:1029000000B26428F5DB23B1002306E00A9101231D
:10291000F9E7491C09B26429E4DB0A98A0EB040A30
:10292000BAF1030F06DD4FEAEA700AEB90708010EF
:10293000401E00E0002000B206906321002001EB61
:10294000C10202EB01120CEB82073A18957DFA2DB9
:1029500008D0927D32B1401C00B26428F5DB23B16F
:10296000002306E009910123F9E7491E09B2002975
:10297000E4DA0998001B602805DAC11700EB9170B2
:102980008010401C00E0182000B2059000210020BB
:1029900000EBC00202EB00120CEB82020A44957DB0
:1029A000FA2D08D0927D32B1401C00B26428EFDBD2
:1029B00023B1002306E008910123F9E7491C09B27D
:1029C0006429E4DB0898032806DD4FEAEA700AEB85
:1029D00090708010401E00E0002000B2049063213F
:1029E000002000EBC00202EB0015614A02EB8502F9
:1029F0000A44957DFA2D08D0927D32B1401C00B278
:102A00006428EEDB23B1002306E007910123F9E7F8
:102A1000491E09B20029E3DA07985F2801DD182072
:102A200005E00798C11700EB91708010401C00B2C0
:102A300003900021C8F119000C9075E005988142BF
:102A400002D0069881421BD1002001EBC102002573
:102A500002EB011201277244494501D1584507D0C4
:102A6000DDF808C0614505D1DDF804C0604501D13D
:102A7000155400E01754401C00B21928ECDB51E05B
:102A80000020049A904202D0039A904207D101EBB1
:102A9000C10505EB0115754401222A543EE00025CD
:102AA0004FF0640A002202EB8507274497FBFAFCEB
:102AB0000AFB1C7707EBC70C0CEB071C2C4F07EB32
:102AC0008C0C02EB800797FBFAF80AFB1877674437
:102AD000BF7D8FB1521C12B2042AE4DB1EB16D1C03
:102AE0002DB2042DDEDB4EB101EBC10505EB011566
:102AF000754400222A5411E00026EFE74C4501D12D
:102B000058452BD0192C01D1192827D001EBC1052C
:102B100005EB0115754401222A540126401C00B220
:102B20001928AEDB491C09B20C98884286DC641C6B
:102B300024B2042CFFF6CCAE01980BF0FF02C0B219
:102B40000090029809F0FF01C3B2084815F090FF09
:102B500016F0F0FE0B980DB0BDE8F08F01EBC1054B
:102B600005EB0115754400222A54D6E7006C0020BD
:102B7000380A002010B5012018F0DAF80149486140
:102B800010BD0000000000207FB500241A48CDE9E8
:102B900001040121CA0200912346039417A11B4896
:102BA00018F09CF9144802210C38CDE901040A02FE
:102BB00000910023039416A1194818F08FF90E48CC
:102BC00003210838CDE901044FF48065009100230A
:102BD0002A46039413A1174818F080F906480421E7
:102BE000001FCDE90104009100232A46039412A19D
:102BF000154818F073F97FBD1000002076546173FA
:102C00006B4D617070696E67000000005DA801087F
:102C1000765461736B4465636973696F6E0000007D
:102C2000E1A70108765461736B436F6E74726F6C29
:102C30000000000071A70108765461736B50657243
:102C400063657074696F6E00D5A8010800B593B014
:102C500014221D4906A8FDF7EBFA14221A49143173
:102C600001A8FDF7E5FA04F0ABFF00282AD12021E6
:102C70000BA807F0B5F806A90BA805F0C9F80028BD
:102C800020D1142106A8FDF7ECFA20210BA807F0AB
:102C9000A7F806AA20210BA804F040FF002811D1B4
:102CA00001AB01AA20210BA80AF004F8142201A903
:102CB00006A8FDF7E1FAC0B2002803D104F0F2FF44
:102CC0000028FFD113B000BD54B2010810A41B4E60
:102CD0004FF46165294630460EF046F929463046E4
:102CE0000EF044F9294630460EF042F929463046A6
:102CF0000EF040F90020124B191F225C1A800A883E
:102D00005206FCD5401CC0B22928F6D3FEE70000CD
:102D10000D0A456E74657220486172644661756C77
:102D2000745F48616E646C65722C205379737465AE
:102D30006D2048616C742E0D0A000000002C0140CB
:102D4000044400402DE9F04105462C220021414871
:102D50000AF042F8404E3F4C21213078943C40F03C
:102D600005002070204615F0CDFC7070002852D16F
:102D7000A178C1F3810201F0030025B10223B3EB76
:102D8000911F47D106E063783B2B43D10B0641D41A
:102D90004B063FD5032A3DD0304B2E4D2F4E9B5C2A
:102DA0006B702E4B383303EB82031B5CAB702B4BE9
:102DB000443303EB820350361B5C06EBC2022B70DC
:102DC00032F81000A880C80601D510332B700822F5
:102DD000611CA81D09F0F6FF1E49607A85F82B00DA
:102DE0008A39072201F1980009F0ECFF19490622FF
:102DF000833901F1980009F0E5FF00222020182610
:102E00000121D307A0EB5203E35C06D0F02747EA89
:102E1000131304E00420BDE8F08143F0F003AF1881
:102E2000FB76A6EBD20302F00707E35C01FA07F793
:102E30003B4201D0FF2700E0EF27AB18521C93F86C
:102E40001BC0D2B207EA0C07DF76102AD9D30020C4
:102E5000E1E7000098DC0020A0020020C2B40108D5
:102E600070B5FF22FF23084D05F5807605E010F8C8
:102E7000014B54402A5D5A40335D491E89B2F6D257
:102E800043EA022070BD00007CB2010870B516460E
:102E90000C4605460DF034F808210D480DF04EF8AB
:102EA00010210C480DF04AF80948072108300DF0B0
:102EB00045F80848182118380DF040F821462846F2
:102EC0000DF03CF83046BDE870400CF0F7BF000054
:102ED0009EDC0020C40200200EB5104904236A467F
:102EE000A1F1080009F080FF0C4904230DF106024E
:102EF0000831684609F078FF08490423091D6A462D
:102F0000A1F1080009F070FF6846022301AA811CA4
:102F100009F06AFF01A809F075FF0EBD0CDC002066
:102F20002DE9F84F04468B460026A068642190FBEB
:102F3000F1F00090DFF800A400255046012100794F
:102F4000FE4BDAF850200AF180091B78FC4F09F19A
:102F50008008B2F5377F7DD023DC40F2D62EA2F276
:102F6000D62C724577D014DC40F2D32EA2F2D32CAB
:102F7000724571D006DC02B31CF102024FD0012A67
:102F80004CD18EE0BCF1010F67D0BCF1020FF7D13C
:102F900007E1BCF1060F41D2DFE80CF040F7F6F58F
:102FA000F4F3A2F2DD220B2AF5D2DFE802F0F9F801
:102FB000F7F6F5F4F3F2F1F0EF0038B92068C9F84C
:102FC0002C006068C9F830008AF80410DD48002140
:102FD000C8E90410C8F81810C8F81C102068D9F8FF
:102FE0002C10081AFDF7D6FB15F081FF00223B4696
:102FF000FDF77EFC0CD36068D9F83010081AFDF795
:10300000C9FB15F074FF00223B46FDF771FCC2D2EC
:1030100040F2D120CAF850008AF80450B5E338B91C
:103020002068C9F82C006068C9F830008AF80410DC
:10303000C4480021C8E90410C8F81810C8F81C10CA
:103040002068D9F82C10081AFDF7A4FB15F04FFFE3
:10305000002203E0D7E1C9E034E056E0BA4BFDF7C7
:1030600047FCDBD20021C8F81010C8F81410C8F8CB
:103070001810C8F81C100098FDF78CFB15F037FFEE
:103080000022B24BFDF71CFC04D240F2D220CAF859
:10309000500003E040F2DD20CAF850008AF80450E6
:1030A00073E30021C8F81010C8F81410C8F81810FD
:1030B000C8F81C106068C9F8240040F2D320CAF890
:1030C000500062E30021C8F81010C8F81410A0489E
:1030D000C8E9061000984B2808DDC8F81810C8F891
:1030E0001C1040F2D520CAF850004EE3BBF1030F8C
:1030F00001D1012B92D10021C8F81810C8F81C107A
:103100004FF43570CAF850003FE338B92068C9F869
:103110002C006068C9F830008AF804108948002142
:10312000C8E90410C8F81810C8F81C102068D9F8AD
:103130002C10081AFDF72EFB15F0D9FE00223B4695
:10314000FDF7D6FB0CD36068D9F83010081AFDF7EC
:1031500021FB15F0CCFE00223B46FDF7C9FB9FD2B8
:103160000021C8F81010C8F814100020C8F8180082
:10317000C8F81C008AF8045040F2D320CAF8500066
:1031800003E304E1C2E0BDE089E04DE0FAE2ADE234
:1031900080E27BE248E20CE2DFE1BAE17DE147E177
:1031A00035E16C480021C8E904100020C8F8180077
:1031B000C8F81C00BBF1030F13D1012B11D06068BC
:1031C000D9F82410081AFDF7E5FA15F090FE002250
:1031D000614BFDF78DFB88D240F2D620CAF8500033
:1031E000D3E240F2D620CAF85000CEE20021C8F85F
:1031F0001010C8F814105648C8E906100098552851
:1032000008DDC8F81810C8F81C104FF43670CAF85A
:103210005000BAE2BBF1030F01D1012BB0D140F253
:10322000D720CAF85000B0E238B92068C9F82C009D
:103230006068C9F830008AF8041042480021C8E9E3
:103240000410C8F81810C8F81C102068D9F82C1001
:10325000081AFDF79FFA15F04AFE00223B46FDF7DB
:1032600047FB0CD36068D9F83010081AFDF792FAC2
:1032700015F03DFE00223B46FDF73AFBB0D200219F
:10328000C8F81010C8F81410C8F81810C8F81C10A6
:103290008AF8045040F2D620CAF8500075E22D4852
:1032A0000021C8E90410C8F81810C8F81C10BBF1B8
:1032B000030F1DD1012B1BD06068D9F82410081A08
:1032C000FDF768FA15F013FE0022234BFDF710FB03
:1032D00086D20021C8F81010C8F814100020C8F8D1
:1032E0001800C8F81C0040F2DA20CAF850004CE27E
:1032F0000021C8F81010C8F8141040F2D920CAF8FC
:10330000500042E2CAF8505002263EE20020C8F8BF
:103310001000C8F814000E49C8E906010098FDF72E
:1033200039FA15F0E4FD00220C4BFDF7E1FA22D248
:103330000021C8F8101013E0980000209000002031
:103340000000084000C072C00000244000805640C9
:1033500000004E4000C072400000644000E0654044
:10336000C8F81410C8F81810C8F81C104FF43770BB
:10337000CAF8500009E2BBF1030F03D1F948007805
:1033800001288BD140F2DB20CAF85000FDE138B9AA
:103390002068C9F82C006068C9F830008AF8041069
:1033A000F1480021C8E90410C8F81810C8F81C102A
:1033B0002068D9F82C10081AFDF7ECF915F097FDE4
:1033C00000223B46FDF794FA0CD36068D9F8301020
:1033D000081AFDF7DFF915F08AFD00223B46FDF7DC
:1033E00087FA84D20020C8F81000C8F81400002121
:1033F000C8F81810C8F81C108AF8045040F2DA20F7
:10340000CAF85000C1E1CAF850500126BDE10021C0
:10341000C8F81010C8F81410C8F81810C8F81C1014
:103420006068C9F8240040F2DE20CAF85000ACE120
:103430000021C8F81010C8F81410CC48C8E90610CC
:103440000098FDF7A7F915F052FD0022C84BFDF7D3
:1034500037FA0DD20021C8F81010C8F81410C8F8B7
:103460001810C8F81C104FF43870CAF850008CE1DE
:10347000BBF1030F03D1BB480078012886D100219E
:10348000C8F81010C8F81410C8F81810C8F81C10A4
:1034900040F2DF20CAF8500077E138B92068C9F857
:1034A0002C006068C9F830008AF80410AE4800218A
:1034B000C8E90410C8F81810C8F81C102068D9F81A
:1034C0002C10081AFDF766F915F011FD00223B4695
:1034D000FDF70EFA0CD36068D9F83010081AFDF722
:1034E00059F915F004FD00223B46FDF701FA89D297
:1034F0000021C8F81010C8F814100020C8F81800EF
:10350000C8F81C008AF8045040F2DE20CAF85000C7
:103510003BE198480021C8E90410C8F81810C8F821
:103520001C10BBF1030F13D1012B11D06068D9F827
:103530002410081AFDF72EF915F0D9FC00228E4B45
:10354000FDF7D6F993D240F2E120CAF850001CE111
:1035500040F2E120CAF8500017E10021C8F810102D
:10356000C8F814108148C8E906100098FDF712F950
:1035700015F0BDFC0022814BFDF7A2F90DD2002110
:10358000C8F81010C8F81410C8F81810C8F81C10A3
:1035900040F2E320CAF85000F7E0BBF1030F03D17B
:1035A00070480078012803D140F2E220CAF85000A8
:1035B000EBE038B92068C9F82C006068C9F8300021
:1035C0008AF8041068480021C8E90410C8F81810E7
:1035D000C8F81C102068D9F82C10081AFDF7DAF882
:1035E00015F085FC00223B46FDF782F90CD360689C
:1035F000D9F83010081AFDF7CDF815F078FC002244
:103600003B46FDF775F90ED20021C8F81010C8F836
:103610001410C8F81810C8F81C108AF8045040F2AA
:10362000E120CAF85000B0E052480021C8E9041077
:10363000C8F81810C8F81C10BBF1030F1CD1012BDF
:103640001AD06068D9F82410081AFDF7A3F815F00D
:103650004EFC0022484BFDF74BF90CD20021C8F874
:103660001010C8F81410C8F81810C8F81C1040F250
:10367000E520CAF8500088E00021C8F81010C8F80A
:1036800014104FF43970CAF850007EE0CAF8505058
:1036900003267AE00021C8F81010C8F81410334847
:1036A000C8E906100098FDF775F815F020FC002217
:1036B000334BFDF705F90DD20021C8F81010C8F8FA
:1036C0001410C8F81810C8F81C1040F2E720CAF807
:1036D00050005AE0BBF1030F03D1224800780128C3
:1036E00053D140F2E620CAF850004EE038B92068C5
:1036F000C9F82C006068C9F830008AF804101A482C
:103700000021C8E90410C8F81810C8F81C10206877
:10371000D9F82C10081AFDF73DF815F0E8FB002247
:103720003B46FDF7E5F80CD36068D9F83010081A6D
:10373000FDF730F815F0DBFB00223B46FDF7D8F82B
:1037400023D20021C8F81010C8F81410C8F81810B7
:10375000C8F81C108AF8045040F2E520CAF850005E
:1037600013E000009000002000C072C000004EC0B6
:1037700000405A4000C072400000644000C0574002
:1037800000001440CAF8505001263046BDE8F88FBA
:103790002DE9F84F04468B460026A068642190FB73
:1037A000F1F00090DFF800A40025504601210079D7
:1037B000FE4BDAF850200AF180081B78FC4F08F124
:1037C0008009B2F5B67F7CD021DCB2F5B37F79D029
:1037D00014DC40F2631EA2F2631C724573D006DC57
:1037E0000AB31CF1020250D0012A4DD18FE0BCF186
:1037F000010F69D0BCF1020FF7D109E1A2F2671203
:10380000052A41D2DFE802F0F8F7F6F5F400A2F25B
:103810006D120B2AF5D2DFE802F0FAF9F8F7F6F5A7
:10382000F4F3F2F1F00038B92068C8F82C006068B1
:10383000C8F830008AF80410DE480021C9E90410F5
:10384000C9F81810C9F81C102068D8F82C10081AEC
:10385000FCF7A0FF15F04BFB00223B46FDF748F8B4
:103860000CD36068D8F83010081AFCF793FF15F0F5
:103870003EFB00223B46FDF73BF8C2D240F261100E
:10388000CAF850008AF80450B7E338B92068C8F87D
:103890002C006068C8F830008AF80410C548002180
:1038A000C9E90410C9F81810C9F81C102068D8F824
:1038B0002C10081AFCF76EFF15F019FB0022BE4B06
:1038C00003E0D9E1C9E033E056E0FDF711F8DBD2BF
:1038D0000021C9F81010C9F81410C9F81810C9F857
:1038E0001C100098FCF756FF15F001FB0022B34BAB
:1038F000FCF7E6FF04D24FF4B170CAF8500003E0C1
:1039000040F26D10CAF850008AF8045075E30021A7
:10391000C9F81010C9F81410C9F81810C9F81C100B
:103920006068C8F8240040F26310CAF8500064E3ED
:103930000021C9F81010C9F81410A148C9E90610EF
:10394000009810F14B0F08DAC9F81810C9F81C10CC
:1039500040F26510CAF850004FE3BBF1030F01D1EC
:10396000012B91D10021C9F81810C9F81C104FF48F
:10397000B270CAF8500040E338B92068C8F82C008B
:103980006068C8F830008AF804108A490020C9E944
:1039900004010021C9F81810C9F81C102068D8F8D3
:1039A0002C10081AFCF7F6FE15F0A1FA00223B468F
:1039B000FCF79EFF0CD36068D8F83010081AFCF7AB
:1039C000E9FE15F094FA00223B46FCF791FF9DD2E8
:1039D0000021C9F81010C9F81410C9F81810C9F856
:1039E0001C108AF8045040F26310CAF8500004E337
:1039F00007E1C3E0BEE08AE04EE0FBE2ADE27EE23A
:103A000079E246E209E2E0E1BBE17FE149E137E149
:103A10006C480021C9E904100020C9F81800C9F851
:103A20001C00BBF1030F13D1012B11D06068D8F833
:103A30002410081AFCF7AEFE15F059FA0022624B6A
:103A4000FCF756FF88D24FF4B370CAF85000D4E2A6
:103A50004FF4B370CAF85000CFE20021C9F810103B
:103A6000C9F814105648C9E90610009810F1520F11
:103A700008DAC9F81810C9F81C104FF4B470CAF865
:103A80005000BAE2BBF1030F01D1012BAFD140F2DC
:103A90006710CAF85000B0E238B92068C8F82C00A6
:103AA0006068C8F830008AF8041042480021C9E96B
:103AB0000410C9F81810C9F81C102068D8F82C1088
:103AC000081AFCF767FE15F012FA00223B46FCF7D5
:103AD0000FFF0CD36068D8F83010081AFCF75AFEB4
:103AE00015F005FA00223B46FCF702FFAFD2002199
:103AF000C9F81010C9F81410C9F81810C9F81C102A
:103B00008AF804504FF4B370CAF8500075E22D489B
:103B10000021C9E90410C9F81810C9F81C10BBF13C
:103B2000030F1DD1012B1BD06068D8F82410081A90
:103B3000FCF730FE15F0DBF90022234BFCF7D8FE32
:103B400085D20020C9F81000C9F814000021C9F876
:103B50001810C9F81C104FF4B570CAF850004CE2A8
:103B60000021C9F81010C9F8141040F26910CAF801
:103B7000500042E2CAF8505002263EE20020C9F846
:103B80001000C9F814000E480021C9E90610009879
:103B9000FCF700FE15F0ABF900220C4BFCF7A8FE79
:103BA00023D2002114E000009800002090000020A3
:103BB0000000084000C072C0000024400080564051
:103BC00000004EC000C072400000644000A065408C
:103BD000C9F81010C9F81410C9F81810C9F81C1049
:103BE0004FF4B670CAF8500007E2BBF1030F03D1DF
:103BF000F8480078012889D140F26B10CAF85000CB
:103C0000FBE138B92068C8F82C006068C8F83000BB
:103C10008AF80410F0480021C9E90410C9F8181006
:103C2000C9F81C102068D8F82C10081AFCF7B2FD4F
:103C300015F05DF900223B46FCF75AFE0CD3606894
:103C4000D8F83010081AFCF7A5FD15F050F900223D
:103C50003B46FCF74DFE8CD20021C9F81010C9F884
:103C60001410C9F81810C9F81C108AF804504FF441
:103C7000B570CAF85000C0E1CAF850500126BCE146
:103C80000021C9F81010C9F81410C9F81810C9F8A3
:103C90001C106068C8F824004FF4B770CAF85000D0
:103CA000ABE10021C9F81010C9F81410CB48C9E9DC
:103CB00006100098FCF76EFD15F019F90022C84BAC
:103CC000FCF7FEFD0DD20021C9F81010C9F8141040
:103CD000C9F81810C9F81C104FF4B870CAF8500091
:103CE0008BE1BBF1030F03D1BA480078012887D1DB
:103CF0000021C9F81010C9F81410C9F81810C9F833
:103D00001C1040F26F10CAF8500076E138B92068F4
:103D1000C8F82C006068C8F830008AF80410AE4873
:103D20000021C9E90410C9F81810C9F81C1020684E
:103D3000D8F82C10081AFCF72DFD15F0D8F8002241
:103D40003B46FCF7D5FD0CD36068D8F83010081A54
:103D5000FCF720FD15F0CBF800223B46FCF7C8FD30
:103D600089D20021C9F81010C9F81410C9F8181028
:103D7000C9F81C108AF804504FF4B770CAF8500004
:103D80003BE198480021C9E90410C9F81810C9F8A6
:103D90001C10BBF1030F13D1012B11D06068D8F8B0
:103DA0002410081AFCF7F6FC15F0A1F800228E4B3F
:103DB000FCF79EFD03D240F27110CAF850001CE1DE
:103DC00040F27110CAF8500017E10021C9F8101034
:103DD000C9F814108148C9E906100098FCF7DAFC0C
:103DE00015F085F80022814BFCF76AFD0DD2002109
:103DF000C9F81010C9F81410C9F81810C9F81C1027
:103E000040F27310CAF85000F7E0BBF1030F03D083
:103E10004FF4B970CAF85000EFE038B92068C8F81C
:103E20002C006068C8F830008AF804106A48002145
:103E3000C9E90410C9F81810C9F81C102068D8F88E
:103E40002C10081AFCF7A6FC15F051F800223B468E
:103E5000FCF74EFD0CD36068D8F83010081AFCF758
:103E600099FC15F044F800223B46FCF741FD0FD2C7
:103E70000020C9F81000C9F814000021C9F8181072
:103E8000C9F81C108AF8045040F27110CAF85000AA
:103E9000B3E054480021C9E90410C9F81810C9F862
:103EA0001C10BBF1030F1CD1012B1AD06068D8F88D
:103EB0002410081AFCF76EFC15F019F800224A4B82
:103EC000FCF716FD0CD20021C9F81010C9F8141027
:103ED000C9F81810C9F81C1040F27510CAF8500043
:103EE0008BE00021C9F81010C9F814104FF4BA7013
:103EF000CAF8500081E0CAF8505003267DE0002047
:103F0000C9F81000C9F8140034480021C9E90610A6
:103F10000098FCF73FFC14F0EAFF0022344BFCF75A
:103F2000CFFC0ED20021C9F81010C9F814100020DF
:103F3000C9F81800C9F81C004FF4B670CAF8500050
:103F40005BE0BBF1030F03D122480078012854D174
:103F50004FF4BB70CAF850004FE038B92068C8F879
:103F60002C006068C8F830008AF804101A48002154
:103F7000C9E904100020C9F81800C9F81C0020681D
:103F8000D8F82C10081AFCF705FC14F0B0FF00223A
:103F90003B46FCF7ADFC0CD36068D8F83010081A2B
:103FA000FCF7F8FB14F0A3FF00223B46FCF7A0FC53
:103FB00023D20021C9F81010C9F81410C9F818103C
:103FC000C9F81C108AF8045040F27510CAF8500065
:103FD00013E000009000002000C072C000004E40BE
:103FE00000405A4000C0724000006440004057400A
:103FF00000002440CAF8505002263046BDE8F88F31
:104000002DE9F84F04460E4600200090A068642178
:1040100090FBF1F9FE4DFF492846EA6C40F2A62CD0
:1040200000790978DFF8F0B3A2F2A6234FF0010A75
:1040300005F1800805F5807762457DD036DC40F2D9
:104040009A2CA2F29A23624577D01FDC40F2952C7D
:10405000A2F29523624571D00FDC40F29223A2F2C6
:1040600092219A426BD003DC1AB34A1C68D16DE0EE
:10407000012966D00229F9D1E2E0012B7ED0022B82
:104080007DD0032B7CD0042BF0D1FDE30C2B57D239
:10409000DFE813F056009C04D904560056001D05B5
:1040A0007705FF022303E6015A034702142BEED2E1
:1040B00000E015E0DFE813F044009202B7026A0561
:1040C0003E0167019B0176058F05D605FE051906A1
:1040D0004D06740679069F06D306D00327043105E2
:1040E00038B92068C8F82C006068C8F8300085F836
:1040F00004A0CA480021C7E90410B961F961206829
:10410000D8F82C10081AFCF745FB14F0F0FE00223A
:104110005B46FCF7EDFB0CD36068D8F83010081A4A
:10412000FCF738FB14F0E3FE00225B46FCF7E0FBF3
:10413000ADD240F2912005E019E2FDE3B4E04CE09D
:1041400008E253E0E8640020287103E238B92068EF
:10415000C8F82C006068C8F8300085F804A0AF48A3
:104160000021C7E90410B961F9612068D8F82C1062
:10417000081AFCF70FFB14F0BAFE02E0A1E0E7E238
:104180002AE3A74E00223346FCF7B2FB0CD360684B
:10419000D8F83010081AFCF7FDFA14F0A8FE002237
:1041A0003346FCF7A5FBD0D2002139617961B961B2
:1041B000F9614846FCF7EEFA14F099FE0022994B9B
:1041C000FCF796FB03D240F29220E86402E040F252
:1041D000A920E86400202871B7E7002139617961DE
:1041E000B961F96140F29320E864AEE700203861DC
:1041F00078618D480021C7E906104846FCF7CAFAE5
:1042000014F075FE0022894BFCF75AFB08D20021FE
:1042100039617961B961F96140F29520E86494E708
:10422000032E03D17B48007801288ED1002139610B
:1042300079610020B861F8614FF42570E86484E783
:1042400038B92068C8F82C006068C8F8300085F8D4
:1042500004A072490020C7E904010021B961F96195
:104260002068D8F82C10081AFCF794FA14F03FFED6
:1042700000225B46FCF73CFB0CD36068D8F830109A
:10428000081AFCF787FA14F032FE00225B46FCF7AE
:104290002FFBA1D2002038617861B861F8612871E4
:1042A00040F29320E86450E70020C8F838006068C6
:1042B000C8F824002068C8F8200040F29620E8647E
:1042C00043E72068C8F81C00D8F83800401CC8F83C
:1042D0003800574A0021C7E90412B961F961554E07
:1042E000012823DD2068D8F82010081AFCF752FABC
:1042F00014F0FDFD00223346FCF7E2FA16D26068A6
:10430000D8F82410081AFCF745FA14F0F0FD002242
:104310003346FCF7D5FA09D20020C8F838006068A7
:10432000C8F8240040F2AA20E8640EE740F2A32077
:10433000E8640AE70021396179613B48C7E9061062
:104340004846FCF727FA14F0D2FD0022354BFCF763
:10435000B7FA09D20021396179610020B861F861AA
:104360004FF42B70E864F0E6032E03D1294800785F
:10437000012898D1002139617961B961F96140F270
:10438000AB20E864E1E638B92068C8F82C00606822
:10439000C8F8300085F804A020480021C7E90410BF
:1043A000B961F9612068D8F82C10081AFCF7F2F905
:1043B00014F09DFD00225B46FCF79AFA0CD360686E
:1043C000D8F83010081AFCF7E5F914F090FD002237
:1043D0005B46FCF78DFAA8D2002139617961B96199
:1043E000F9610020287140F2AA20E864ADE6104887
:1043F0000022C7E90420BA61FA61032E27D10129FE
:1044000025D06068D8F82410081AFCF7C3F913E027
:1044100098000020900000200000084000C072C0FA
:1044200000002E400080564000004EC000C0624098
:1044300000C072400000344014F059FD0022F74BD8
:10444000FCF756FA8FD240F29F20E8647DE6002107
:10445000396179614FF45E7068650020E86474E644
:1044600086B12068D8F81C10081AFCF793F914F0EC
:104470003EFD0022EA4BFCF73BFA07D240F29A20BD
:10448000E86467E040F29720E86463E06068D8F889
:104490002410081AFCF77EF914F029FD0022E14BE4
:1044A000FCF726FA03D240F2A120E86452E0022E83
:1044B00014D0012E12D0DC48007801280ED060689C
:1044C000D8F82410401C88420FDA00213961796144
:1044D000B961F96140F2A520E8643BE06068C8F882
:1044E000240040F2AA20E86434E02068FCF752F986
:1044F00014F0FDFC0022CD4BFCF7FAF903D24FF487
:104500002870E86426E04846FCF744F914F0EFFC14
:104510000022C74BFCF7D4F998D240F2A720E864F8
:1045200018E0032E17D1012915D04846FCF732F9BF
:1045300014F0DDFC0022BF4BFCF7DAF90FD20020AB
:10454000386178610021B961F96185F806A04FF4FE
:104550002870E8640CE240F2A620E86408E200203B
:1045600038617861B4480021C7E9061000E238B923
:104570002068C8F82C006068C8F8300085F804A0EE
:10458000AE480021C7E904100020B861F861206836
:10459000D8F82C10081AFCF7FDF814F0A8FC00223B
:1045A0005B46FCF7A5F90CD36068D8F83010081A00
:1045B000FCF7F0F814F09BFC00225B46FCF798F93E
:1045C0008BD2002038617861B861F86185F806A067
:1045D00040F2A520E86400202871C9E1032E17D11C
:1045E000012915D04846FCF7D5F814F080FC0022CC
:1045F000934BFCF765F90FD20020386178610021F8
:10460000B961F96185F806A04FF42870E864AFE15C
:104610004FF42A70E864ABE1002139617961864882
:10462000C7E90610A4E138B92068C8F82C00606812
:10463000C8F8300085F804A080480021C7E90410BC
:10464000B961F9612068D8F82C10081AFCF7A2F8B3
:1046500014F04DFC00225B46FCF74AF90CD360686D
:10466000D8F83010081AFCF795F814F040FC002236
:104670005B46FCF73DF9B0D2002139617961B9613F
:10468000F96185F806A040F2A720E86400202871AF
:10469000E9E3032E16D1012914D04846FCF77AF835
:1046A00014F025FC0022664BFCF70AF90ED200211B
:1046B00039617961B961F96185F806A04FF4297013
:1046C000E864D0E340F2A220E864CCE30021396141
:1046D00079615948C7E90610C5E338B92068C8F8B8
:1046E0002C006068C8F8300085F804A05348002109
:1046F000C7E90410B961F9612068D8F82C10081ACC
:10470000FCF748F814F0F3FB00225B46FCF7F0F8E6
:104710000CD36068D8F83010081AFCF73BF814F096
:10472000E6FB00225B46FCF7E3F8B1D200203861DB
:1047300078610021B961F96185F806A040F2A120F5
:10474000E864002028718EE34FF42870E8648AE35F
:1047500038B92068C8F82C006068C8F8300085F8BF
:1047600004A036480021C7E90410B961F961206846
:10477000D8F82C10081AFCF70DF814F0B8FB00223A
:104780005B46FCF7B5F80CD36068D8F83010081A0F
:10479000FCF700F814F0ABFB00225B46FCF7A8F82E
:1047A0008FD2002139617961B961F96100202871E6
:1047B000C8F83C904846FBF7EDFF14F098FB002248
:1047C000204BFCF795F803D24FF42670E8644AE3D7
:1047D00040F29920E86446E3032E15D1012913D055
:1047E0004846FBF7D7FF14F082FB0022154BFCF77D
:1047F00067F829D20020386178610021B961F96138
:1048000040F29620E8642EE3002139617961B961B4
:10481000F96140F2B720E86425E30000000054404D
:1048200000804A4000006440900000200088B340AF
:104830000080564000E0654000004EC000C072C0DD
:104840000000144000C06240002038617861FC48DC
:104850000021C7E9061006E338B92068C8F82C0023
:104860006068C8F8300085F804A0F6480021C7E960
:104870000410B961F9612068D8F82C10081AFBF708
:1048800089FF14F034FB00E01CE000225B46FCF7DB
:104890002FF80CD36068D8F83010081AFBF77AFFAD
:1048A00014F025FB00225B46FCF722F88FD2002093
:1048B000386178610021B961F96128714FF426707F
:1048C000E864D0E2032E12D1012910D0D8F83C00C0
:1048D000A9EB0000FBF75EFF14F009FB0022DA4BA6
:1048E000FCF706F807D240F29620E864BBE24FF4EA
:1048F0002E70E864B7E2002038617861D04800216A
:10490000C7E90610AFE238B92068C8F82C00606823
:10491000C8F8300085F804A0CA480021C7E904108F
:10492000B961F9612068D8F82C10081AFBF732FF3A
:1049300014F0DDFA002200E01BE05B46FBF7D8FF35
:104940000CD36068D8F83010081AFBF723FF14F076
:10495000CEFA00225B46FBF7CBFFB2D200203861D3
:1049600078610021B961F961287140F29920E86409
:1049700079E24846FBF70EFF8B46044614F0B7FA7F
:10498000B24E00223346FBF7B3FF02D3B9F1000F5A
:1049900018DD002139617961B961F961B9F1000F60
:1049A0000ADD2046594614F0A2FA00223346FBF7EE
:1049B0009FFF01D285F804A0C8F83C9040F29B20EC
:1049C000E86450E240F29620E8644CE2012815D0F9
:1049D000D8F83C00A9EB0000FBF7DCFE14F087FAE6
:1049E00000229B4BFBF784FF1DD2002139617961C6
:1049F000B961F96140F29620E86434E24846FBF779
:104A0000C9FE14F074FA0022904BFBF759FF0AD24A
:104A100000202871002139617961B961F96140F2A2
:104A20009620E8641FE2032E03D18A48007801280B
:104A300002D14FF42770E86400213961796186481A
:104A4000C7E906100FE238B92068C8F82C00606882
:104A5000C8F8300085F804A07A480021C7E904109E
:104A6000B961F9612068D8F82C10081AFBF792FE9A
:104A700014F03DFA00225B46FBF73AFF0CD3606866
:104A8000D8F83010081AFBF785FE14F030FA00222F
:104A90005B46FBF72DFF94D2002139617961B96142
:104AA000F96100202871C8F83C904846FBF772FE77
:104AB00014F01DFA0022654BFBF71AFF03D24FF4E6
:104AC0002670E864CFE140F29920E864CBE1032E40
:104AD00016D1012914D04846FBF75CFE14F007FA02
:104AE00000225E4BFBF7ECFE10D2002139617961A8
:104AF000B961F96185F806A04FF42970E864B2E164
:104B000040F2B920E86485F806A0ACE100213961E3
:104B100079614B48C7E90610A5E138B92068C8F8A3
:104B20002C006068C8F8300085F804A045480021D2
:104B3000C7E90410B961F9612068D8F82C10081A87
:104B4000FBF728FE14F0D3F900225B46FBF7D0FEFA
:104B50000CD36068D8F83010081AFBF71BFE14F06D
:104B6000C6F900225B46FBF7C3FEABD200213961D8
:104B70007961B961F96140F29F20E86400202871F1
:104B800071E10020E864012000906CE100213961AE
:104B90007961B961F9616068C8F8240040F2AD201C
:104BA000E86460E100223A617A612B4A0020C7E99B
:104BB0000602B9F14B0F06DD0021B961F96140F23F
:104BC000AF20E8644FE1032E01D1012902D140F268
:104BD000AE20E86447E1224E38B92068C8F82C00BE
:104BE0006068C8F8300085F804A016480021C7E9BD
:104BF0000410B961F9612068D8F82C10081AFBF785
:104C0000C9FD14F074F900223346FBF771FE0CD392
:104C10006068D8F83010081AFBF7BCFD14F067F98B
:104C200000223346FBF764FE09D200213961796125
:104C3000B961F9610020287140F2AD20E86412E109
:104C400000004EC000C072C000002E4000C0624094
:104C500000003E409000002000004E400000144044
:104C60000000104081480021C7E90410B961F961D2
:104C7000022E18D0BEB1012E15D06068D8F82410CD
:104C8000081AFBF787FD14F032F90022784BFBF786
:104C90002FFE07D2002139617961B961F9614FF4C2
:104CA0002C70E864DFE00021396179614FF42C70E9
:104CB000E864D8E000223A617A616E48C7E90620CC
:104CC000B9F1550F06DD0021B961F96140F2B2205A
:104CD000E864C8E0032E01D1012905D10021B961A2
:104CE000F96140F2B120E864BDE038B92068C8F845
:104CF0002C006068C8F8300085F804A05E480021E8
:104D0000C7E90410B961F9612068D8F82C10081AB5
:104D1000FBF740FD14F0EBF800225B46FBF7E8FDE3
:104D20000CD36068D8F83010081AFBF733FD14F084
:104D3000DEF800225B46FBF7DBFD09D2002139617A
:104D40007961B961F961002028714FF42C70E86431
:104D500089E046480022C7E90420BA61FA61032EBF
:104D600017D1012915D06068D8F82410081AFBF76C
:104D700011FD14F0BCF80022404BFBF7B9FD72D2D4
:104D8000002139617961B961F9614FF42D70E864EE
:104D900069E000213961796140F2B320E86462E0A2
:104DA0000020E864022000905DE000213961796113
:104DB00030490020C7E906014846FBF7EBFC14F038
:104DC00096F800222E4BFBF793FD08D200213961A3
:104DD0007961B961F96140F2B620E86443E0032EDD
:104DE00041D00021396179610020B861F86140F259
:104DF000B520E86437E038B92068C8F82C0060684E
:104E0000C8F8300085F804A01B480021C7E9041049
:104E1000B961F9612068D8F82C10081AFBF7BAFCC0
:104E200014F065F800225B46FBF762FD0CD3606866
:104E3000D8F83010081AFBF7ADFC14F058F800222F
:104E40005B46FBF755FD0ED2002139617961B961EE
:104E5000F961002028714FF42D70E86403E0002010
:104E6000E864012000900098BDE8F88F00C072400F
:104E700000805A4000004E4000C072C000006440F4
:104E800000E065402DE9F84F04460F4600200090F1
:104E9000A068642190FBF1F8FB4DFC492846EA6CC0
:104EA00000790978DFF8E8B34FF0010905F1800ACD
:104EB00005F58076B2F5A17F76D02BDC40F2391C67
:104EC000A2F23913624570D017DCB2F59A7F6DD02B
:104ED00008DC22B313F108026BD0012A68D0022A41
:104EE00061D1AAE0A2F58072353A7DD0012A7CD04A
:104EF000022A7BD0032AF3D1EBE2092B53D2DFE85D
:104F000013F052009A03D3030F0453047A04BE042F
:104F1000E4044602A2F24312122AEFD200E013E0A8
:104F2000DFE812F0CA018F02D8042F0159018D0168
:104F3000E50409053E0565058005B405DB05F805B2
:104F400022065606FF02540338B92068CAF82C001E
:104F50006068CAF8300085F80490CE490020C6E9A0
:104F600004010021B161F1612068DAF82C10081AFF
:104F7000FBF710FC13F0BBFF00225B46FBF7B8FC0D
:104F80000CD36068DAF83010081AFBF703FC13F052
:104F9000AEFF00225B46FBF7ABFCAFD240F2311014
:104FA000E864002028710AE215E2EFE26EE000E01A
:104FB0003AE038B92068CAF82C006068CAF83000B6
:104FC00085F80490B3490020C6E904010021B161CD
:104FD000F1612068DAF82C10081AFBF7DBFB13F0FC
:104FE00086FF0022AC4B02E085E091E02DE2FBF76A
:104FF0007FFCD8D20020306170610021B161F16185
:105000004046FBF7C7FB13F072FF0022A34BFBF7F0
:1050100057FC03D24FF49970E86402E040F2451067
:10502000E86400202871BEE7002131617161B1613F
:10503000F16140F23310E864B5E70021316171613C
:105040009748C6E906104046FBF7A4FB13F04FFF54
:105050000022944BFBF74CFC08D2002131617161B6
:10506000B161F16140F23510E8649CE7032F03D190
:1050700086480078012896D10021316171610020B5
:10508000B061F0614FF49A70E8648CE738B9206839
:10509000CAF82C006068CAF8300085F804907D4892
:1050A0000021C6E90410B161F1612068DAF82C1022
:1050B000081AFBF76FFB13F01AFF7B4F00223B46E9
:1050C000FBF716FC0CD36068DAF83010081AFBF70F
:1050D00061FB13F00CFF00223B46FBF709FCA2D258
:1050E000002131617161B161F1610020287140F2EC
:1050F0003310E86457E70020CAF838006068CAF83F
:1051000024002068CAF820004FF49B70E8644AE746
:105110002068CAF81C00DAF83800401CCAF83800C9
:1051200062490022C6E90421B261F261604E0128A1
:1051300023DD2068DAF82010081AFBF72BFB13F0A8
:10514000D6FE00223346FBF7BBFB16D26068DAF8C6
:105150002410081AFBF71EFB13F0C9FE0022334689
:10516000FBF7AEFB09D20020CAF838006068CAF825
:1051700024004FF4A370E86415E740F24310E8649C
:1051800011E700213161716145490020C6E906013E
:105190004046FBF7FFFA13F0AAFE00223F4BFBF755
:1051A000A7FB08D2002131617161B161F1614FF457
:1051B000A470E864F7E6032F03D13448007801288F
:1051C00098D10021316171610020B061F06140F23D
:1051D0004710E864E7E638B92068CAF82C00606830
:1051E000CAF8300085F804902A480021C6E9041066
:1051F000B161F1612068DAF82C10081AFBF7CAFADD
:1052000013F075FE00225B46FBF772FB0CD360685F
:10521000DAF83010081AFBF7BDFA13F068FE002226
:105220005B46FBF765FBA7D2002131617161B1617B
:10523000F161002028714FF4A370E864BFE01B48BF
:105240000022C6E90420B261F261032F12D10129C4
:1052500010D06068DAF82410081AFBF79BFA13F0F4
:1052600046FE0022134BFBF743FB85D240F23F1072
:10527000E864A4E000213161716140F23720686484
:105280000020E8649BE000009800002090000020CF
:105290000000084000C072C000002E400080564050
:1052A00000004EC000003E400000104000C07240B0
:1052B000000034400000544087B12068DAF81C1028
:1052C000081AFBF767FA13F012FE0022FE4BFBF7F9
:1052D0000FFB07D24FF49D70E86470E040F2371086
:1052E000E8646CE06068DAF82410081AFBF752FAF8
:1052F00013F0FDFD0022F54BFBF7FAFA03D240F262
:105300004110E8645BE0022F16D0012F14D0F04862
:105310000078012810D06068DAF82410401E884216
:1053200011DD002131617161B161F16185F8079092
:105330004FF4A270E86442E06068CAF824004FF4B9
:10534000A370E8643BE02068FBF724FA13F0CFFD7C
:105350000022E04BFBF7CCFA03D24FF4A070E864D4
:105360002DE04046FBF716FA13F0C1FD0022DA4BA0
:10537000FBF7BEFA03D24FF4A070E8641FE0D749F0
:105380000020C6E904010021B161F16117E0032F9B
:1053900016D1012914D04046FBF7FCF913F0A7FD04
:1053A0000022CF4BFBF7A4FA0ED2002131617161CC
:1053B000B161F16185F806904FF4A270E86409E2EA
:1053C0004FF4A170E86405E2002131617161C548C4
:1053D000C6E90610FEE138B92068CAF82C006068FA
:1053E000CAF8300085F80490BF480021C6E90410CF
:1053F000B161F1612068DAF82C10081AFBF7CAF9DC
:1054000013F075FDB94F00223B46FBF771FA0CD340
:105410006068DAF83010081AFBF7BCF913F067FD82
:1054200000223B46FBF764FA85D2002030617061B0
:105430000021B161F16140F24110E864002028715F
:10544000CAE34FF4A070E864C6E338B92068CAF82C
:105450002C006068CAF8300085F80490A24800214A
:10546000C6E90410B161F1612068DAF82C10081A5D
:10547000FBF790F913F03BFD00225B46FBF738FA8F
:105480000CD36168DAF83000401AFBF783F913F0A7
:105490002EFD00225B46FBF72BFA90D200213161F2
:1054A0007161B161F161002028714046FBF772F92A
:1054B00013F01DFD00228E4BFBF702FA03D24FF4CE
:1054C0009C70E86488E3CAF83C8040F23910E864D4
:1054D00082E3032F14D1012912D04046FBF75AF979
:1054E00013F005FD0022824BFBF702FA12D20021D5
:1054F00031617161B161F1614FF49B70E8646BE3FC
:105500000020306170610021B161F16140F25310FF
:10551000E86461E30021316171617248C6E90610F7
:105520005AE338B92068CAF82C006068CAF830001D
:1055300085F804906C490020C6E904010021B1619E
:10554000F1612068DAF82C10081AFBF723F913F040
:10555000CEFC00225B46FBF7CBF90CD36068DAF88F
:105560003010081AFBF716F913F0C1FC00225B4655
:10557000FBF7BEF9A6D2002131617161B161F16121
:105580004FF49C70E8640020287125E3032F12D1AA
:10559000012910D0DAF83C00A8EB0000FBF7FAF87C
:1055A00013F0A5FC0022524BFBF7A2F907D24FF4EF
:1055B0009B70E86410E34FF4AA70E8640CE30021E8
:1055C000316171614748C6E9061005E338B92068C2
:1055D000CAF82C006068CAF8300085F80490424888
:1055E0000021C6E90410B161F1612068DAF82C10DD
:1055F000081AFBF7CFF813F07AFC00225B46FBF7A2
:1056000077F90CD36068DAF83010081AFBF7C2F8A3
:1056100013F06DFC00225B46FBF76AF9B5D200205F
:10562000306170610021B161F16140F23910E864CC
:1056300000202871D0E24046FBF7ACF889460746C7
:1056400013F055FC2B4C00222346FBF739F90AD204
:10565000002131617161B161F161CAF83C8040F2B1
:105660003B10E864B8E23846494613F040FC00229B
:105670002346FBF73DF90DD2B8F1000F0ADA0021FD
:1056800031617161B161F161CAF83C8040F23D1055
:10569000E864A1E20020306170610021B161F16134
:1056A0004FF49B70E86497E24046FBF773F813F001
:1056B0001EFC00220F4BFBF71BF921D200213161A8
:1056C0007161B161F16117E000804A4000006440FF
:1056D000900000200088B3400080564000C0724017
:1056E00000E0654000004EC000C072C000001040E5
:1056F00000002E4000003E404FF49B70E8646BE2D7
:10570000032F03D1F7480078012802D14FF49E708F
:10571000E864002131617161F348C6E906105BE27B
:1057200038B92068CAF82C006068CAF8300085F8DB
:105730000490EE480021C6E90410B161F1612068CF
:10574000DAF82C10081AFBF725F813F0D0FB00222A
:105750005B46FBF7CDF80CD36068DAF83010081A16
:10576000FBF718F813F0C3FB00225B46FBF7C0F809
:105770008FD2002131617161B161F1610020287126
:105780004046FBF707F813F0B2FB0022D84BFBF7BB
:1057900097F803D24FF49C70E8641DE2CAF83C808D
:1057A00040F23910E86417E2DAF83C00A8EB000098
:1057B000FAF7F0FF13F09BFB0022CE4BFBF798F8B3
:1057C00009D20020306170610021B161F1614FF4B4
:1057D0009B70E86400E2032F03D1C24800780128DF
:1057E00002D14FF49F70E864002131617161BE48BD
:1057F000C6E90610F0E138B92068CAF82C006068E4
:10580000CAF8300085F80490B8480021C6E90410B1
:10581000B161F1612068DAF82C10081AFAF7BAFFC2
:1058200013F065FB00225B46FBF762F80CD360685F
:10583000DAF83010081AFAF7ADFF13F058FB00221F
:105840005B46FBF755F8A8D2002131617161B16167
:10585000F161002028714046FAF79CFF13F047FBE6
:105860000022A34BFBF72CF803D24FF49C70E864A2
:10587000B2E1CAF83C8040F23910E864ACE1032F91
:1058800016D1012914D04046FAF784FF13F02FFBFC
:105890000022994BFBF72CF810D200213161716185
:1058A000B161F16185F806904FF4A270E86493E16C
:1058B0004FF4A170E86485F806908DE10021316114
:1058C00071618E48C6E9061086E10020E864012077
:1058D000009081E10020306170610021B161F161CF
:1058E0006068CAF8240040F24910E86474E10021BD
:1058F000316171617C48C6E906104046FAF74AFFFB
:1059000013F0F5FA00227E4BFAF7DAFF09D20020F5
:10591000306170610021B161F16140F24B10E864C7
:105920005AE1032F03D16F4800780128A0D14FF42A
:10593000A570E86450E138B92068CAF82C006068A6
:10594000CAF8300085F8049068480021C6E90410C0
:10595000B161F1612068DAF82C10081AFAF71AFF21
:1059600013F0C5FA674F00223B46FAF7C1FF0CD38C
:105970006068DAF83010081AFAF70CFF13F0B7FA7B
:1059800000223B46FAF7B4FF09D200213161716170
:105990000020B061F061287140F24910E8641BE119
:1059A00059480022C6E90420B261F261032F17D1E1
:1059B000012915D06068DAF82410081AFAF7EAFE0F
:1059C00013F095FA0022514BFAF792FF07D200210B
:1059D00031617161B161F1614FF4A670E864FBE07F
:1059E0000021316171614FF4A670E864F4E0002297
:1059F000326172613C48C6E9062018F15D0F06DD90
:105A00000021B161F1614FF4A770E864E4E0032F75
:105A100001D1012905D10021B161F16140F24D10A0
:105A2000E864D9E038B92068CAF82C006068CAF880
:105A3000300085F804902D480021C6E90410B161BA
:105A4000F1612068DAF82C10081AFAF7A3FE13F0B7
:105A50004EFA00225B46FAF74BFF0CD36068DAF887
:105A60003010081AFAF796FE13F041FA00225B464E
:105A7000FAF73EFF09D2002131617161B161F16134
:105A8000002028714FF4A670E864A5E01E480022AB
:105A9000C6E90420B261F261032F17D1012915D0A4
:105AA0006068DAF82410081AFAF774FE13F01FFA87
:105AB0000022174BFAF71CFF07D2002131617161F8
:105AC000B161F1614FF4A870E86485E000213161B3
:105AD000716140F24F10E8647EE00020E86402202B
