:020000040800F2
:10000000B0F30020E90100086D0D010885C000086B
:10001000B50B0108DD2D0008357701080000000050
:100020000000000000000000000000004501000882
:10003000E59C00080000000089010008A96A010889
:10004000030200080302000803020008030200087C
:10005000030200080302000803020008030200086C
:1000600003020008A5A1000803020008030200081B
:10007000030200080302000803020008030200084C
:10008000030200080302000803020008030200083C
:10009000030200080302000803020008CDA10008C3
:1000A000030200080302000803020008030200081C
:1000B00003020008016D01080302000803020008A2
:1000C00003020008030200080302000803020008FC
:1000D0000302000803020008DD720108E97201084A
:1000E00079A10008030200080302000803020008C7
:1000F00003020008030200080302000803020008CC
:1001000003020008030200089D6D010803020008B5
:1001100003020008D1720108356E010803020008CD
:10012000030200080302000803020008030200089B
:10013000DFF80CD000F07AFD00480047E90E020815
:10014000B0F30020204B19680868B0E8F00F80F386
:100150000988BFF36F8F4FF0000080F311884EF0D5
:100160000D0E70470000000006480068006880F32C
:10017000088862B661B6BFF34F8FBFF36F8F00DFA1
:1001800000BF00BF08ED00E0EFF30980BFF36F8F01
:100190000D4B1A6820E9F00F106008B54FF0F00021
:1001A00080F3118822F074FD4FF0000080F3118875
:1001B000BDE8084019680868B0E8F00F80F30988C6
:1001C000BFF36F8F704700BF48020020EFF311802C
:1001D0004FF0F00181F31188704780F31188704768
:1001E000EFF3058070470000064880470648004747
:1001F000FEE7FEE7FEE7FEE7FEE7FEE7FEE7FEE7D7
:10020000FEE7FEE7CD6A01083101000840EA01037C
:100210009B0703D009E008C9121F08C0042AFAD2BC
:1002200003E011F8013B00F8013B521EF9D2704780
:10023000D2B201E000F8012B491EFBD27047002228
:10024000F6E710B513460A4604461946FFF7F0FFD5
:10025000204610BD034611F8012B00F8012B002A9F
:10026000F9D118467047F0B480EA0102D40F420079
:10027000B2EB410F02D20246084611464A0042D074
:10028000C30DDDB2C1F3C752AD1A202D35DAC1F36B
:10029000160141F4000204B15242C5F1200602FAEF
:1002A00006F12A411044B3EBD05F23D0C4B1012D35
:1002B000A0EBC35009DCF0BC4FF0004202EAC3528D
:1002C000DBB200F5000000F0BCBB400000F1807024
:1002D00000EBC350A0F1807040EAD170490009E002
:1002E000490841EAC071A0EBC35000F50000400886
:1002F00000EBC350F0BC00F09BBB6142012202EB5B
:100300004101001BF6E7F0BC704781F00041AAE70D
:1003100080F00040A7E780EA010210B502F0004338
:10032000400022D04A001FD0010E01EB1261C0F341
:100330005600C2F3560240F4000042F40002A0FB53
:10034000022000047F39140400D0401C50EA1240FF
:1003500001D44000491EC2B20C0604EBD010401C70
:100360004008802A02D003E0002010BD20F00100E8
:10037000002900DA0020184310BD30B480EA0102E1
:1003800002F0004530F0004221F0004013D090B15F
:10039000C30DD40DC2F31601C0F31600E41A41F4E4
:1003A000000140F400027D34914201D3641C00E05E
:1003B0004900002C02DA30BC002070474FF40000E6
:1003C0000023914201D3891A034340084FEA4101B7
:1003D000F7D151B1914202D14FF0004105E002D274
:1003E0004FF0010101E06FF0010103EBC45028441C
:1003F00030BC00F01DBB420005D0C0F3C7525242D2
:10040000914201DC0020704700EBC15070472DE99C
:10041000FE4F804681EA0300C00F0C46009021F099
:10042000004123F00045B8EB0200A94105D2404647
:10043000214690461C460B46024623F000401043DE
:1004400047D0270DC7F30A00C3F30A510290401AA0
:10045000019040286BDAC3F3130040F4801B00982E
:10046000924620B10023D2EB030A63EB0B0B0198F9
:100470005946C0F14002504600F0A9FA06460D4622
:1004800050465946019A00F0C1FA10EB080061414C
:10049000002487EA115284EAE7731A4340D0009A95
:1004A00062B3019A012A4FEA075215DC001B61EB87
:1004B00002014FF0004202EA0752CDE90042001C5F
:1004C00041F5801132462B4600F0F8FA03B0BDE842
:1004D000F08F40462146F9E7001B61EB0201001C4A
:1004E00041F5801300185B412018A2F5001747EB77
:1004F000030140EAD570B6196D4111E06D084FEA6D
:10050000360645EAC0754FEA0752001B61EB02014F
:10051000001C41F5801149084FEA30000019514193
:1005200032462B4603B0BDE8F04F00F0B8BA009851
:10053000012240000023D0EB020263EBE07300983D
:1005400021464FEAE074B8EB000061EB0401E9E7F3
:1005500083F000435BE781F0004158E72DE9FE4F4F
:1005600081EA030404F0004421F0004100944FF0BC
:10057000000B23F0004350EA01045ED052EA03046A
:100580005BD0C3F30A54C1F30A552C44A4F2F334EC
:100590000194A0FB0254C1F3130141F48011C3F391
:1005A000130343F4801301FB024400FB034E840A4F
:1005B000970A44EA815447EA8357A4FB07680295E7
:1005C0008D0A05FB07854FEA932C04FB0C54270585
:1005D000029D4FEA065847EA1637B5EB08056EEB61
:1005E000070C870E920E47EA811742EA8312A7FB97
:1005F0000201B6EB0B0164EB00042B0D43EA0C3354
:100600005E1844EB1C50DA465146E7FB0201C5F385
:1006100013044FEA0B3343EA14534FEA0432019CAC
:1006200043EA0603A4F10C040294009CCDE900B453
:1006300000F044FA03B0BDE8F08F00200146F9E76E
:100640002DE9F04D81EA030404F0004B21F0004550
:1006500014464FF0000A23F0004150EA050220D072
:1006600054EA01021DD0C5F30A570246C5F313032D
:10067000C1F31300C1F30A5640F4801543F480130C
:10068000A7EB0608101BD64608F2FD3873EB0500F1
:1006900002D308F1010801E092185B41B8F1000FA4
:1006A00003DA00200146BDE8F08D00204FF48011F0
:1006B000064684460EE0171B73EB050705D3121B95
:1006C00063EB050306434CEA010C49084FEA30008E
:1006D00092185B4150EA0107EDD152EA030012D0B3
:1006E00082EA040083EA0501084305D0101BAB41F0
:1006F00006D20122002306E000224FF0004302E070
:100700006FF0010253101AEB06004CEB085110EB8E
:100710000A0041EB0B01BDE8F04D00F0C0B970B527
:1007200021F0004303430CD0C1F30A550024D5EB5C
:10073000040564EB0403D617AD1AB34102DB0020B5
:10074000014670BD201841EB025170BDC10F80EA17
:10075000E0700844CA079623002100F072B996237E
:100760000022114600F06DB90EB5C10F80EAE070AD
:100770000844CA07002140F233438DE80E000A46C0
:100780000B4600F09BF903B000BD0EB540F23341BB
:1007900002910021CDE900110A460B4600F08EF9C6
:1007A00003B000BD00F0004220F00040C10DC0F3D6
:1007B000160040F400007F2901DA002070479629D6
:1007C00003DCC1F19601C84001E096398840002A57
:1007D000F4D04042704720F00040C10DC0F3160035
:1007E00040F400007F2901DA00207047962903DCDD
:1007F000C1F19601C840704796398840704770B57E
:10080000C1F30A5201F000450024C1F3130140F284
:10081000FF3341F480119A4201DA002070BD40F2AA
:1008200033439A42A2F2334203DC524200F0DEF834
:1008300000E090402C43F1D0404270BDC1F30A5219
:1008400010B5C1F3130140F2FF3341F480119A4215
:1008500001DA002010BD40F233439A42A2F2334243
:1008600003DC524200F0C2F810BD904010BD00F011
:10087000004230F000400AD0C10D01F56071C0F3B4
:10088000160042EA0151C208400711437047002098
:100890000146704730B5041E71F1000404DB4FF0CF
:1008A0000044404264EB0101141E73F1000405DBB7
:1008B0001C464FF00043524263EB04038B4208BFD7
:1008C000824230BD30B5041E71F1000404DB4FF0EC
:1008D0000044404264EB0101141E73F1000405DB87
:1008E0001C464FF00043524263EB0403994208BF99
:1008F000904230BD01F0004330B421F0004150EA95
:10090000010206D00A0DA2F56072C1F31301002A9C
:1009100002DC30BC00207047440F44EAC104C1002F
:10092000E01830BC00EBC25000F082B8002801DBB8
:10093000C0F10040002901DBC1F100418142704754
:1009400030B50B46014600202022012409E021FA9F
:1009500002F59D4205D303FA02F5491B04FA02F59C
:100960002844151EA2F10102F1DC30BD2DE9F05F33
:100970000546002092469B4688460646814640240E
:100980001BE0284641464746224600F02FF85346D2
:100990005A46C01A914110D311461846224600F01B
:1009A00016F82D1A67EB01084F4622460120002158
:1009B00000F00DF817EB00094E41201EA4F10104D0
:1009C000DFDC484631462A464346BDE8F09F202AF0
:1009D00004DB203A00FA02F1002070479140C2F196
:1009E000200320FA03F3194390407047202A04DBC8
:1009F000203A21FA02F00021704721FA02F3D04098
:100A0000C2F120029140084319467047202A06DBB4
:100A1000CB17203A41FA02F043EAE07306E041FACC
:100A200002F3D040C2F120029140084319467047BA
:100A30000029A8BF7047401C490008BF20F00100F2
:100A4000704710B4B0FA80FC00FA0CF050EA0104D0
:100A500004BF10BC704749B1CCF1200421FA04F462
:100A600011FA0CF118BF012121430843A3EB0C013B
:100A7000CB1D4FEA00614FEA102042BF002010BC9E
:100A8000704700EBC35010440029A4BF10BC70474E
:100A9000401C490008BF20F0010010BC704710B591
:100AA000141E73F1000408DA401C41F10001921891
:100AB0005B411A4301D120F0010010BD2DE9F04D3A
:100AC00092469B4611B1B1FA81F202E0B0FA80F28F
:100AD00020329046FFF77BFF04460F4640EA0A00AB
:100AE00041EA0B0153465A46084313D0114653EAD4
:100AF000010019D0C8F140025046FFF777FF0546C4
:100B00000E46504659464246FFF761FF084305D05E
:100B1000012004E020463946BDE8F08D0020054361
:100B200046EAE0762C4337430A986305E40AA0EBD3
:100B300008000022FD0A44EA47540A3002D500208A
:100B40000146E9E7010510196941DDE90845001989
:100B50006941BDE8F04DA2E72DE9F04D00231A46AA
:100B60001B1A8A4103DB00200146BDE8F08DC1F36A
:100B70000A52C1F3130141F480154FF0000BD10765
:100B800002D100186D41521E0027044640F2FF11A9
:100B9000384601EB620A3E468046024600204FF48A
:100BA0008011FFF723FFC2197141BB1846EB01000A
:100BB000B4EB030C75EB000C04D3E41A65EB0005F1
:100BC00017460E46241908F101006D41804634286D
:100BD000E3DDF91946EB0600091BA84103D24FF0EB
:100BE000FF32134601E0002213461BEB070046EBE1
:100BF0000A51BDE8F04DFFF752BFC1F30A52C1F3ED
:100C0000130140F2FF3341F480119A4202DA0020CE
:100C10000146704740F233439A42A2F2334202DC6B
:100C20005242FFF7E3BEFFF7D2BE0000064C074D6D
:100C300006E0E06840F0010394E8070098471034AC
:100C4000AC42F6D3FFF778FA80380208A0380208E1
:100C500070B58C1810F8015B15F0070301D110F87E
:100C6000013B2A1106D110F8012B03E010F8016BAB
:100C700001F8016B5B1EF9D12B0705D40023521E2E
:100C80000DD401F8013BFAE710F8013BCB1A921C96
:100C900003E013F8015B01F8015B521EF9D5A14294
:100CA000D8D3002070BD002904D0816841F0010133
:100CB00081607047816821F0010181607047000008
:100CC00010B5154988420AD144150121204610F07B
:100CD000EDF82046BDE81040002110F0E7B80F49BC
:100CE00088420AD104150121204610F0DFF8204681
:100CF000BDE81040002110F0D9B8094988420AD156
:100D00000121CC03204610F0D1F82046BDE8104068
:100D1000002110F0CBB810BD002401400028014094
:100D2000003C0140014600208968490700D50120A8
:100D30007047C06C80B270470246002012680A42B9
:100D400000D001207047014600208968090700D5BE
:100D50000120704710B542680E4B1A400C790B68A1
:100D600042EA04221343436082680B4B1A40D1E9E4
:100D7000024323434C7942EA440213438360C26A2C
:100D800022F47002097C491EC9B242EA0151C162D3
:100D900010BD0000FFFEF0FFFDF7F1FF70B5072664
:100DA00009290AD9C568A1F10A0404EB4404A64044
:100DB000B543A3401D43C56007E0056901EB41044D
:100DC000A640B543A3401D4305611F23072A09D24E
:100DD000446B521E02EB820293409C4391400C43B1
:100DE000446370BD0D2A09D2046BD21F02EB82024C
:100DF00093409C4391400C43046370BDC46A0D3A18
:100E000002EB820293409C4391400C43C46270BD4C
:100E1000816841F0080181607047002904D0816831
:100E200041F4A00181607047816821F4A0018160D4
:100E30007047816841F00401816070472DE9F84FE7
:100E400004468B460027A068642190FBF1F6DFF88A
:100E500048A400255046BAF95AC00122C17900F5CC
:100E6000807900F18008BCF1870F7AD017DCBCF1E3
:100E7000830F7BD009DCBCF1000F25D0BCF1810FC2
:100E800071D0BCF1820F22D122E0BCF1840F6BD073
:100E9000BCF1850F7DD0BCF1860FF4D1C4E0FF48D2
:100EA000ACF1880CBCF1070F0378FB48007D00F122
:100EB000010E0EF0FF0ECDF800E008D2DFE80CF0D6
:100EC000F2F1F3EFEEEDEC008220AAF85A0059E3BC
:100ED0009AF8250028B1D9F80400D8F87810401AFB
:100EE00060609AF8020060B1D9F800002060D9F87B
:100EF0000410D8F87420801A2060D8F87800081AF6
:100F000060602068FFF730FC20F0B7F8E44D002265
:100F10002B46FFF7D7FC09D36068FFF725FC20F0CC
:100F2000ACF800222B46FFF7CDFC0CD20021C9F80B
:100F30001810C9F81C10C9F82010C9F82410832013
:100F4000AAF85A001EE30021C9F81810C9F81C10AD
:100F5000C9F82010C9F8241002278120AAF85A00E5
:100F600010E340E102E0FFE2EFE212E0BBF1000F2C
:100F700009D0BBF1010F09D002208AF815008520A5
:100F8000AAF85A00FEE28AF81550F8E78AF8152008
:100F9000F5E7DFF810B339B92068C8F834006068A5
:100FA000C8F838008AF80720BF480021C9E90610B0
:100FB000C9F82010C9F824102068D8F83410081A8D
:100FC000FFF7D2FB20F059F800225B46FFF77AFCCE
:100FD0000CD36068D8F83810081AFFF7C5FB20F06A
:100FE0004CF800225B46FFF76DFCABD20021C9F83C
:100FF0001810C9F81C10C9F82010C9F824108AF874
:101000000750C8F844609AF8150028B1012807D0A5
:101010008820AAF85A00B5E28620AAF85A00B1E260
:101020008720AAF85A00ADE2D8F84400801BFFF7E9
:101030009BFB20F022F800229C4BFFF743FC0DD2D3
:101040000020C9F81800C9F81C000021C9F82010B8
:10105000C9F824108920AAF85A0093E2BBF1030FC3
:101060000DD18E480078012809D00020C9F8180059
:10107000C9F81C008E480021C9E9081082E200214D
:10108000C9F81810C9F81C10C9F82010C9F82410A4
:101090008A20AAF85A0075E2C1E1FBE1DBE02AE10F
:1010A00001E03CE082E139B92068C8F834006068AA
:1010B000C8F838008AF807207B480021C9E90610E3
:1010C000C9F82010C9F824102068D8F83410081A7C
:1010D000FFF74AFB1FF0D1FF764E00223346FFF7A1
:1010E000F1FB0CD36068D8F83810081AFFF73CFB06
:1010F0001FF0C3FF00223346FFF7E4FB8BD2002131
:10110000C9F81810C9F81C100020C9F82000C9F847
:1011100024008AF807508620AAF85A0032E239B92A
:101120002168C8F834106168C8F838108AF80720B8
:10113000BBF1030F12D1012B10D0042820D90021BC
:10114000C9F81810C9F81C10C9F82010C9F82410E3
:101150008AF807508420AAF85A0013E20021C9F83F
:101160001810C9F81C10C9F82010C9F824108AF802
:10117000075000988AF814008520AAF85A0001E266
:101180002068D8F83410081AFFF7EEFA1FF075FF40
:10119000434E00223346FFF795FB0CD36068D8F826
:1011A0003810081AFFF7E0FA1FF067FF00223346F5
:1011B000FFF788FB0DD20021C9F81810C9F81C10E0
:1011C000C9F82010C9F824108AF807508120AAF81D
:1011D0005A0039490020C9E906010021C9F8201048
:1011E000C9F82410CEE1D8F84400801BFFF7BCFA00
:1011F0001FF043FF00222D4BFFF764FB0DD20020B0
:10120000C9F81800C9F81C000021C9F82010C9F855
:1012100024108B20AAF85A00B4E1BBF1030F0DD1C2
:101220001E480078012809D00020C9F81800C9F824
:101230001C0022480021C9E90810A3E10021C9F8D7
:101240001810C9F81C10C9F82010C9F824108C20F7
:10125000AAF85A0096E139B92068C8F834006068E5
:10126000C8F838008AF807200F490020C9E90601AC
:10127000C9F82000C9F824002068D8F83410081AEA
:10128000FFF772FA1FF0F9FE0A4E00223346FFF70D
:1012900019FB21D3606813E0800000207800002053
:1012A000000079400000344000C072C00080464019
:1012B00000004EC00000244000C0724000004E40BC
:1012C000D8F83810081AFFF74FFA1FF0D6FE0022A0
:1012D0003346FFF7F7FA85D20020C9F81800C9F89D
:1012E0001C00C9F82000C9F824008AF8075087209C
:1012F000AAF85A0046E139B92168C8F83410616883
:10130000C8F838108AF80720A0490022C9E9062148
:10131000C9F82020C9F82420BBF1030F0ED1012BFE
:101320000CD0042818D90021C9F81810C9F81C10CD
:101330008AF807508420AAF85A0023E10021C9F84E
:101340001810C9F81C108AF8075000988AF8140081
:101350008520AAF85A0015E12068D8F83410081A38
:10136000FFF702FA1FF089FE894E00223346FFF78D
:10137000A9FA0CD36068D8F83810081AFFF7F4F906
:101380001FF07BFE00223346FFF79CFA0DD20020AF
:10139000C9F81800C9F81C00C9F82000C9F82400D1
:1013A0008AF807508120AAF85A00EBE0D8F84400E8
:1013B000801BFFF7D9F91FF060FE0022754BFFF785
:1013C00081FA0DD20020C9F81800C9F81C000021CC
:1013D000C9F82010C9F824108D20AAF85A00D1E0CD
:1013E000BBF1030F0DD16C480078012809D0002112
:1013F000C9F81810C9F81C1066490020C9E908018D
:10140000C0E00021C9F81810C9F81C100020C9F864
:101410002000C9F824008E20AAF85A00B2E039B999
:101420002068C8F834006068C8F838008AF80720D7
:101430005A480021C9E90610C9F82010C9F824103B
:101440002068D8F83410081AFFF78EF91FF015FE3F
:10145000534E00223346FFF735FA0CD36068D8F8B4
:101460003810081AFFF780F91FF007FE00223346F4
:10147000FFF728FA0DD20021C9F81810C9F81C107E
:10148000C9F82010C9F824108AF807508820AAF853
:101490005A0077E039B92168C8F834106168C8F893
:1014A00038108AF8072039490022C9E90621C9F80D
:1014B0002020C9F82420BBF1030F0ED1012B0CD042
:1014C000032818D90021C9F81810C9F81C108AF887
:1014D00007508420AAF85A0054E00021C9F81810D7
:1014E000C9F81C108AF8075000988AF81400852063
:1014F000AAF85A0046E02068D8F83410081AFFF716
:1015000033F91FF0BAFD224E00223346FFF7DAF915
:101510000CD36068D8F83810081AFFF725F91FF0C7
:10152000ACFD00223346FFF7CDF92BD20021C9F8DC
:101530001810C9F81C10C9F82010C9F824108AF82E
:1015400007508120AAF85A001CE00021C9F81810A1
:10155000C9F81C10C9F82010C9F82410AAF85A506C
:101560008AF8145001270DE00021C9F81810C9F8B5
:101570001C10C9F82010C9F82410AAF85A508AF88B
:10158000145001273846BDE8F88F000000C07240B3
:101590000000794000004E407800002000C072C07A
:1015A000000024402DE9F05F81460F464FF000080F
:1015B000D9F80800642190FBF1FBFA4CFA4D204663
:1015C000B4F95620B0F97E30012195F800C0C079F9
:1015D000DFF8D8A304F5807504F180065B2A7DD07E
:1015E00035DC4F2A7BD027DCDFF8C4A3F14F492A32
:1015F00076D013DC20464FF0780790F825308178BC
:101600002846412A00686CD003DC22B3402A44D12A
:1016100044E0452A66D0482AF9D11EE14A3AE64D0F
:10162000DFF89893E64F052A37D2DFE812F04A0335
:1016300034041105F505DF06503A0B2AF4D2DFE831
:1016400002F0EFEEEDECEBEAE9E8E7E6E5005D3A03
:101650001C2AE9D200E01DE0DFE812F08403EA036F
:101660004604A1041F006D04C70422057B051F006A
:1016700047059E05070668061F0034069506F40612
:101680004C071F0019077307CE0737081F00F30721
:101690005C088F084020A4F856004DE323B16A6827
:1016A000B36FD21AC9F80420DFF818A351B1C9F8F2
:1016B00000006968726F801AC9F80000B06F081ADC
:1016C000C9F80400D9F80000FFF74EF81FF0D5FC68
:1016D00000225346FFF7F6F810D304E074E3FCE36E
:1016E000E1E118E034E0D9F80400FFF73DF81FF01D
:1016F000C4FC00225346FFF7E5F809D24120A4F8C4
:101700005600B1480021C5E9061029626962C4E7A4
:10171000A4F85670C1E7E07B58B1AB480021C5E999
:10172000061000202862686260744520A4F8560004
:10173000B3E7607C401CC0B26074042802D94FF04B
:10174000040801E04FF003080020A4F85600A4E7C5
:1017500023B16A68B36FD21AC9F80420DFF86CA20B
:1017600051B1C9F800006968726F801AC9F80000A9
:10177000B06F081AC9F80400D9F80000FEF7F4FFAA
:101780001FF07BFC00225346FFF784F80AD2D9F8F9
:101790000400FEF7E9FF1FF070FC00225346FFF73C
:1017A00079F803D3217CE07B814202D3A4F8567000
:1017B00073E72D2808D90020A4F856004FF002083E
:1017C0002074E073607468E78148405C612819D038
:1017D000622826D0632828D064282AD065282CD0F7
:1017E00066282ED0672830D0682832D0A4F85670EA
:1017F000754A0020C5E9060200222A626A62491C75
:1018000021744AE74820A4F85600F1E785E2FEE19A
:101810009FE130E2D0E16FE1EDE071E01EE1A3E095
:1018200047E04920A4F85600E2E74A20A4F8560011
:10183000DEE74B20A4F85600DAE74C20A4F8560067
:10184000D6E74D20A4F85600D2E74E20A4F8560063
:10185000CEE74F20A4F85600CAE75846FEF784FFAB
:101860000F4605461FF009FC00225346FFF712F809
:1018700003D9ABF12E00542803D25020A4F856000F
:101880000BE7284639461FF0F8FB0022514BFFF7C3
:1018900019F804D30BF18C0BBBF15F0F03D251206D
:1018A000A4F85600F9E65634208DB08052202080EE
:1018B000F3E6ABF1850BBBF1050F0BD242480021DB
:1018C000C5E90610002028626862B3805220A4F89F
:1018D0005600E2E6032F0AD1BCF1010F07D0002128
:1018E000A961E9613C490020C5E90801D5E600216C
:1018F000A961E961296269625320A4F85600CCE627
:1019000030B9D9F800007063D9F80400B063E17110
:1019100032480021C5E90610002028626862D9F823
:101920000000716B081AFEF71FFF1FF0A6FB0022D4
:101930005346FEF7C7FF0CD3D9F80400B16B081A61
:10194000FEF712FF1FF099FB00225346FEF7BAFF85
:1019500096D20021A961E961296269620020E071E3
:101960005020A4F8560098E6ABF1850BBBF1050FAB
:101970000AD215480021C5E9061029626962B380C0
:101980005220A4F8560088E6032F2BD1BCF1010F9A
:1019900028D00020A861E86111480021C5E908109D
:1019A0007BE600008000002078000020000024403A
:1019B0000080464000E0654000E060400000444098
:1019C000000014400000794000C0724000C0824016
:1019D000E16C00200080614000004E4000C072C0F9
:1019E00000004EC00020A861E861286268625420AF
:1019F000A4F8560051E630B9D9F800007063D9F860
:101A00000400B063E171F8490020C5E906012862CD
:101A10006862D9F80000716B081AFEF7A5FE1FF086
:101A20002CFB00225346FEF74DFF0CD3D9F80400DF
:101A3000B16B081AFEF798FE1FF01FFB00225346F9
:101A4000FEF740FF8FD20020A861E86100212962E3
:101A50006962E0715120A4F856001EE6032F0CD1F4
:101A6000BCF1010F09D0B6F90400181AB0F5846F63
:101A700011DB4520A4F856000FE60020A861E861BC
:101A8000002129626962A4F856004FF00208207410
:101A9000E073607401E6D5480021C5E90610002016
:101AA00028626862F9E55846FEF75EFE89460546FB
:101AB0001FF0E3FA00223B46FEF7ECFE06D2BBF134
:101AC000000F03DB5520A4F85600E6E528464946FA
:101AD0001FF0D3FA00223B46FEF7DCFE06D2BBF134
:101AE000000F03DA5620A4F85600D6E55634208DB0
:101AF000B08057202080D0E55846FEF735FE1FF015
:101B0000BCFA0022BA4BFEF7DDFE0BD2B74800212B
:101B1000C5E90610296269625634208DB0805720CD
:101B20002080BAE5032F0BD1B2480078012807D0F6
:101B30000020A861E861B0480021C5E90810ACE5C3
:101B40000021A961E961296269625820A4F8560060
:101B5000A3E530B9D9F800007063D9F80400B06388
:101B6000E171A1480021C5E9061029626962D9F82E
:101B70000000716B081AFEF7F7FD1FF07EFA0022D5
:101B80005346FEF79FFE0CD3D9F80400B16B081A38
:101B9000FEF7EAFD1FF071FA00225346FEF792FEAF
:101BA00093D20021A961E961002028626862E07196
:101BB0005520A4F8560070E55846FEF7D5FD1FF0F5
:101BC0005CFA00228A4BFEF77DFE0CD2874900208A
:101BD000C5E906010021296269625634208DB08072
:101BE0005720208059E5032F09D00020A861E86123
:101BF0000021296269625920A4F856004DE50020B1
:101C0000A861E8617D480021C5E9081045E530B9C3
:101C1000D9F800007063D9F80400B063E17172492B
:101C20000020C5E90601002129626962D9F8000097
:101C3000716B081AFEF798FD1FF01FFA0022534639
:101C4000FEF740FE0CD3D9F80400B16B081AFEF77A
:101C50008BFD1FF012FA00225346FEF733FEAAD284
:101C60000021A961E961002028626862E0715620C4
:101C7000A4F8560011E5032F0DD1BCF1010F0AD0D5
:101C8000B6F9040040F2F621181A884211DD452009
:101C9000A4F8560001E50021A961E961002028624D
:101CA0006862A4F856004FF002082074E073607474
:101CB000F3E44E490020C5E906010021296269626A
:101CC000EBE45846FEF750FD0F4605461FF0D5F9E8
:101CD00000224B4BFEF7F6FD03D3ABF12E005E283E
:101CE00003D85A20A4F85600D7E4284639461FF0F6
:101CF000C4F900225346FEF7CDFD04D90BF1810B48
:101D0000BBF1540F03D25B20A4F85600C5E456344F
:101D1000208DB08052202080BFE40BF1890BBBF1F5
:101D2000050F0AD231480021C5E90610296269620F
:101D3000B3805220A4F856000AE2032F09D1BCF167
:101D4000010F06D00021A961E9612B48C5E90810FF
:101D5000FEE10021A961E961296269625D20A4F8C0
:101D60005600F5E130B9D9F800007063D9F80400E5
:101D7000B063E1711C480021C5E90610296269625F
:101D8000D9F80000716B081AFEF7EEFC1FF075F928
:101D900000225346FEF796FD0CD3D9F80400B16B30
:101DA000081AFEF7E1FC1FF068F900225346FEF71F
:101DB00089FD85D20020A861E86128626862E0712F
:101DC0005A20A4F85600C3E10BF1890BBBF1050FB3
:101DD00018D206490020C5E9060128626862B3806E
:101DE0005220A4F85600B3E100C072C000C0724097
:101DF000002066407800002000004E4000004EC0E9
:101E000000806140032F09D1BCF1010F06D00021F1
:101E1000A961E961FA48C5E9081099E10020A861C3
:101E2000E8610021296269625E20A4F856008FE112
:101E300030B9D9F800007063D9F80400B063E171DB
:101E4000F0480021C5E9061029626962D9F800004E
:101E5000716B081AFEF788FC1FF00FF90022534639
:101E6000FEF730FD0CD3D9F80400B16B081AFEF769
:101E70007BFC1FF002F900225346FEF723FDA2D29D
:101E80000021A961E961296269620020E0715B209B
:101E9000A4F856005CE15846FEF766FC0F4605467E
:101EA0001FF0EBF80022D84BFEF70CFD03D25F20A9
:101EB000A4F856004CE1284639461FF0DEF800220F
:101EC000D24BFEF7E7FC04D3ABF1550BBBF10A0F85
:101ED00004D86020A4F856003AE165E35634208D1A
:101EE000B0805720208033E10BF1890BBBF1050F47
:101EF0000BD2C7480021C5E906100020286268629D
:101F0000B3805720A4F8560022E1032F09D1BCF179
:101F1000010F06D00021A961E961BE48C5E908109A
:101F200016E10020A861E86100212962696262204F
:101F3000A4F856000CE130B9D9F800007063D9F864
:101F40000400B063E171AF480021C5E9061000202C
:101F500028626862D9F80000716B081AFEF704FC69
:101F60001FF08BF800225346FEF7ACFC0CD3D9F8D7
:101F70000400B16B081AFEF7F7FB1FF07EF8002291
:101F80005346FEF79FFC85D20021A961E96100203C
:101F900028626862E0715F20A4F85600FAE30BF152
:101FA000890BBBF1050F0AD299480021C5E906103B
:101FB00029626962B3805720A4F85600EAE3032F30
:101FC00009D1BCF1010F06D00021A961E9618C485B
:101FD000C5E90810DEE30020A861E861002129625C
:101FE00069626320A4F85600D4E330B9D9F8000040
:101FF0007063D9F80400B063E17182490020C5E93B
:10200000060128626862D9F80000716B081AFEF7B1
:10201000ABFB1FF032F800225346FEF753FC0CD303
:10202000D9F80400B16B081AFEF79EFB1FF025F8E3
:1020300000225346FEF746FCB0D20021A961E961B7
:10204000296269620020E0716020A4F85600A1E3D3
:102050005846FEF789FB8A4607461FF00EF8002215
:102060002B46FEF72FFC11D9384651461FF005F8D4
:1020700000224B46FEF70EFC04D3ABF1280BBBF15C
:102080005F0F07D26520A4F8560083E36420A4F80C
:1020900056007FE35634208DB0805220208079E3B3
:1020A0000BF12F0BBBF1050F0AD259480021C5E9EE
:1020B000061029626962B3805220A4F8560069E3D1
:1020C000032F09D1BCF1010F06D00021A961E961FC
:1020D0005048C5E908105DE30021A961E961296262
:1020E00069626720A4F8560054E330B9D9F80000BB
:1020F0007063D9F80400B063E17142480021C5E97A
:102100000610002028626862D9F80000716B081A76
:10211000FEF72AFB1EF0B1FF00225346FEF7D2FB6A
:102120000CD3D9F80400B16B081AFEF71DFB1EF0A2
:10213000A4FF00225346FEF7C5FB88D20021A96107
:10214000E961296269620020E0716420A4F8560008
:1021500020E30BF12F0BBBF1050F0AD22C48002115
:10216000C5E9061029626962B3805220A4F85600BE
:1021700010E3032F08D00021A961E9612962696297
:102180006820A4F8560005E30021A961E9611C4913
:102190000020C5E90801FDE230B9D9F800007063FC
:1021A000D9F80400B063E17116480021C5E90610B2
:1021B00029626962D9F80000716B081AFEF7D4FA37
:1021C0001EF05BFF00225346FEF77CFB0CD3D9F8D0
:1021D0000400B16B081AFEF7C7FA1EF04EFF00228A
:1021E0005346FEF76FFBB3D20021A961E961296272
:1021F00069620020E0716520A4F85600CAE2000080
:1022000000004EC000C072C000C0574000405540A2
:1022100000C0724000004E405846FEF7A5FA8946BD
:1022200005461EF02AFF00223B46FEF74BFB06D276
:10223000BBF1000F03DA6920A4F85600AAE2284691
:1022400049461EF01AFF00223B46FEF73BFB06D232
:10225000BBF1000F03DD6A20A4F856009AE2563461
:10226000208DB0805720208094E25846FEF77CFAFB
:102270001EF003FF0022FE4BFEF70CFB0BD2FD48C5
:102280000021C5E90610296269625634208DB080AC
:10229000572020807EE2032F0AD1F74800780128DA
:1022A00006D00021A961E961F448C5E9081071E28E
:1022B0000021A961E9610020286268626C20A4F80D
:1022C000560067E230B9D9F800007063D9F804000D
:1022D000B063E171EA480021C5E9061000202862D8
:1022E0006862D9F80000716B081AFEF73DFA1EF01B
:1022F000C4FE00225346FEF7E5FA0CD3D9F80400D9
:10230000B16B081AFEF730FA1EF0B7FE00225346F2
:10231000FEF7D8FA92D20021A961E96129626962C7
:102320000020E0716920A4F8560033E25846FEF719
:102330001BFA1EF0A2FE0022CD4BFEF7ABFA0BD229
:10234000CC480021C5E90610296269625634208D07
:10235000B080572020801DE2032F0AD1C6480078A4
:10236000012806D00021A961E961C648C5E9081025
:1023700010E20021A961E9610020286268626D20F5
:10238000A4F8560006E230B9D9F800007063D9F815
:102390000400B063E171BA480021C5E90610296262
:1023A0006962D9F80000716B081AFEF7DDF91EF0BA
:1023B00064FE00225346FEF785FA0CD3D9F80400D8
:1023C000B16B081AFEF7D0F91EF057FE00225346F3
:1023D000FEF778FAA9D20021A961E9612962696250
:1023E0000020E0716A20A4F85600D3E15846FEF7B9
:1023F000BBF98A4607461EF040FE00224B46FEF718
:1024000049FA03D90BF186005E2803D26E20A4F8A6
:102410005600BFE1384651461EF02FFE00222B46E3
:10242000FEF750FA04D9ABF1330BBBF1540F03D2D2
:102430006F20A4F85600ADE15634208DB0805220B4
:102440002080A7E1ABF12B0BBBF1050F0AD2894825
:102450000021C5E9061029626962B3805220A4F800
:10246000560097E1032F09D1BCF1010F06D00021DE
:10247000A961E9618148C5E908108BE10021A961E2
:10248000E961296269627120A4F8560082E130B9DD
:10249000D9F800007063D9F80400B063E17178489E
:1024A0000021C5E9061029626962D9F80000716B44
:1024B000081AFEF759F91EF0E0FD00225346FEF718
:1024C00001FA0CD3D9F80400B16B081AFEF74CF9E5
:1024D0001EF0D3FD00225346FEF7F4F909D2002185
:1024E000A961E961296269620020E0716E20A4F8A7
:1024F00056004FE1ABF12B0BBBF1050F0AD25D4843
:102500000021C5E9061029626962B3805220A4F84F
:1025100056003FE1032F0AD1BCF1010F07D0002084
:10252000A861E86157480021C5E9081032E100219F
:10253000A961E9610020286268627220A4F856004F
:1025400028E130B9D9F800007063D9F80400B0630D
:10255000E1714B480021C5E9061029626962D9F88A
:102560000000716B081AFEF7FFF81EF086FD0022CE
:102570005346FEF7A7F90CD3D9F80400B16B081A3B
:10258000FEF7F2F81EF079FD00225346FEF79AF9A5
:1025900009D20021A961E961296269620020E07124
:1025A0006F20A4F85600F5E05846FEF7DDF80F4618
:1025B00005461EF062FD0022334BFEF76BF903D295
:1025C0007320A4F85600E5E0284639461EF055FD74
:1025D00000222E4BFEF776F904D30BF15F0BBBF113
:1025E0000A0F03D87420A4F85600D3E05634208D87
:1025F000B08057202080CDE0ABF1580BBBF1050F28
:102600000AD21C480021C5E9061029626962B3801C
:102610005720A4F85600BDE0032F09D1BCF1010FEB
:1026200006D00021A961E9611448C5E90810B1E0AC
:102630000021A961E961296269627620A4F8560047
:10264000A8E030B9D9F800007063D9F80400B0638D
:10265000E1710B480021C5E9061029626962D9F8C9
:102660000000716B081AFEF77FF81EF006FD0FE000
:102670000000084000C072407800002000004E407A
:1026800000C072C000004EC00040554000C057401E
:1026900000225346FEF716F90CD3D9F80400B16BAB
:1026A000081AFEF761F81EF0E8FC00225346FEF718
:1026B00009F96FD20021A961E961296269620020EC
:1026C000E0717320A4F8560064E0ABF1580BBBF145
:1026D000050F0AD231480021C5E906102962696256
:1026E000B3805720A4F8560054E0032F09D1BCF161
:1026F000010F06D00021A961E9612948C5E9081048
:1027000048E00021A961E961296269627720A4F8A3
:1027100056003FE030B9D9F800007063D9F80400E2
:10272000B063E1711F480021C5E9061029626962A2
:10273000D9F80000716B081AFEF716F81EF09DFC20
:1027400000225346FEF7BEF80CD3D9F80400B16B53
:10275000081AFEF709F81EF090FC00225346FEF717
:10276000B1F817D20021A961E961296269620020EC
:10277000E0717420A4F856000CE00020A861E86124
:102780000021296269624FF001082074E0736074CF
:10279000A4F856004046BDE8F09F000000C072401B
:1027A00000004EC000C072C02DE9F05F04460E4626
:1027B0004FF00008A068642190FBF1F5DFF8E4A178
:1027C00000275146BAF95800CA7980310123DFF851
:1027D000D8B101F1800943283FD006DC0A46B2F99E
:1027E000002038B1422809D109E044286DD047289B
:1027F000F9D19DE04A804220AAF85800CFE0032E8C
:102800001ED16A48007801281AD0B1F90200101AC6
:10281000FDF7AAFF1EF031FC0022654BFEF752F8CF
:1028200012D20020C9F81800C9F81C000021C9F80C
:102830002010C9F82410AAF858704FF00108AEE033
:102840004320AAF85800AAE05A480021C9E9061016
:10285000C9F82010C9F82410A1E02AB920684863FB
:10286000606888638AF8073053480022C9E9062067
:10287000C9F82020C9F824200E462068496B081AA0
:10288000FDF772FF1EF0F9FB00225B46FEF71AF817
:102890000BD36068B16B081AFDF766FF1EF0EDFB05
:1028A00000225B46FEF70EF879D20021C9F8181015
:1028B000C9F81C10C9F82010C9F824108AF807704C
:1028C00075644420AAF8580069E0486C0C46401B27
:1028D000FDF74AFF1EF0D1FB0022384BFDF7F2FF57
:1028E0000ED20021C9F81810C9F81C10C9F8201020
:1028F000C9F82410208860804220AAF858004EE0D1
:10290000032E0CD00021C9F81810C9F81C10C9F802
:102910002010C9F824104720AAF858003FE00021F1
:10292000C9F81810C9F81C102548C9E9081036E084
:102930002AB920684863606888638AF807301E4AAD
:102940000020C9E906020022C9F82020C9F8242085
:102950000E462068496B081AFDF706FF1EF08DFB36
:1029600000225B46FDF7AEFF0BD36068B16B081A1F
:10297000FDF7FAFE1EF081FB00225B46FDF7A2FF89
:102980000DD20021C9F81810C9F81C10C9F8201080
:10299000C9F824108AF807704420AAF85800404665
:1029A000BDE8F09F80000020000034407800002047
:1029B00000F08D4000C0724000C072C000003E4078
:1029C00000004E402DE9F04F8DB000210B91012603
:1029D0000A91099108910791002341F288324FF43E
:1029E000C87492FBF4F149B2029192FBF4F149B23E
:1029F0000191016865421144A94203DD4068104419
:102A0000A84203DC00200DB0BDE8F08F91FBF4F18B
:102A10004FFA81FA90FBF4F04FFA80FBB64991F837
:102A2000250018B10C20029018200190B24891F8AE
:102A30002320807832B128B191F82720012A0FD0C5
:102A40001822029291F8241011B108B100200190CF
:102A50000024DFF8A8E2002C05DD4FF0010804E0B7
:102A600000220292EEE74FF000080021DFF890C24A
:102A7000002001EBC10202EB01120CEB82052A18C7
:102A8000977DFA2F08D0927D32B1401C40B2642865
:102A9000F5DB23B1002306E00A910123F9E7491C85
:102AA00049B26429E4DB0A98A0EB0409B9F1030FE9
:102AB00006DD4FEAE97009EB90708010401E00E0DF
:102AC000002040B206906321002001EBC10202EB1E
:102AD00001120CEB82073A18957DFA2D08D0927DF1
:102AE00032B1401C40B26428F5DB23B1002306E07C
:102AF00009910123F9E7491E49B20029E4DA09984E
:102B0000001B602805DAC11700EB91708010401C93
:102B100000E0182040B205900021002000EBC00228
:102B200002EB00120CEB82020A44957DFA2D08D0CC
:102B3000927D32B1401C40B26428EFDB23B1002308
:102B400006E008910123F9E7491C49B26429E4DB56
:102B50000898032806DD4FEAE97009EB90708010B1
:102B6000401E00E0002040B204906321002000EBF2
:102B7000C00202EB0015624A02EB85020A44957D11
:102B8000FA2D08D0927D32B1401C40B26428EEDBB1
:102B900023B1002306E007910123F9E7491E49B25A
:102BA0000029E3DA07985F2801DD182005E007987F
:102BB000C11700EB91708010401C40B203900021BF
:102BC000C8F119000C9075E00598814202D0069872
:102BD00081421BD1002001EBC102002502EB011252
:102BE00001277244514501D1584507D0DDF808C08E
:102BF000614505D1DDF804C0604501D1155400E000
:102C00001754401C40B21928ECDB51E00020049A14
:102C1000904202D0039A904207D101EBC10505EB27
:102C20000115754401222A543EE000254FF0640945
:102C3000002202EB8507274497FBF9FC09FB1C7770
:102C400007EBC70C0CEB071C2D4F07EB8C0C02EBB2
:102C5000800797FBF9F809FB18776744BF7D8FB1B0
:102C6000521C52B2042AE4DB1EB16D1C6DB2042D5D
:102C7000DEDB4EB101EBC10505EB01157544002209
:102C80002A5411E00026EFE7544501D158452AD0D7
:102C9000192C01D1192826D001EBC10505EB01152E
:102CA000754401222A540126401C40B21928AEDB8B
:102CB000491C49B20C98884286DC641C64B2042C1E
:102CC000FFF6C9AE01980BF0FF02C0B20090029867
:102CD0000AF0FF01C3B209481DF08CFF1EF0F0FEA0
:102CE0000B98C0B28FE601EBC10505EB01157544E9
:102CF00000222A54D7E7000080000020706A0020DC
:102D0000A808002010B5012020F0D6F8014948613C
:102D100010BD0000000000207FB500241A48CDE956
:102D200001040121CA0200912346039417A11B4804
:102D300020F098F9144802210C38CDE901040A0268
:102D400000910023039416A1194820F08BF90E4836
:102D500003210838CDE901044FF480650091002378
:102D60002A46039413A1174820F07CF90648042151
:102D7000001FCDE90104009100232A46039412A10B
:102D8000154820F06FF97FBD100000207654617364
:102D90006B4D617070696E6700000000A92A02081F
:102DA000765461736B4465636973696F6E000000EC
:102DB000112A0208765461736B436F6E74726F6CE4
:102DC00000000000A1290208765461736B506572FF
:102DD00063657074696F6E001D2B020810A41B4E92
:102DE0004FF461652946304614F0F2F92946304621
:102DF00014F0F0F92946304614F0EEF92946304631
:102E000014F0ECF90020124B191F225C1A800A887A
:102E10005206FCD5401CC0B22928F6D3FEE70000BC
:102E20000D0A456E74657220486172644661756C66
:102E3000745F48616E646C65722C2053797374659D
:102E40006D2048616C742E0D0A000000002C0140BA
:102E50000444004070B5FF22FF23084D05F580763D
:102E600005E010F8014B54402A5D5A40335D491E7D
:102E700089B2F6D243EA022070BD0000DC330208BA
:102E80002DE9FF5F04468846002002908346A06833
:102E9000642290FBF2FAFE4EFE4840F2E23EB6F9A2
:102EA00050200378304606F58075C079A2F2E23CE6
:102EB000D946A5F1800772457DD03ADCB2F5767F20
:102EC0007AD024DC40F2D33EA2F2D33C724574D0D7
:102ED0000BDC4FF474708AB3824259D01CF10202A9
:102EE0006CD0012A41F0BC8574E1EB49EB4ADFF874
:102EF000B0E3BCF1010F71D0BCF1020F6FD0BCF197
:102F0000030F6DD0BCF1040FECD101F07BBDA2F238
:102F1000D932DFF890B3092A81F0A285DFE812F0F8
:102F20001D058D0D6105A4058608C7090A0BF60865
:102F3000C308DD4ABCF1140FEED200E015E0DFE873
:102F40001CF0170A3A097709180AE309360A6C0ACD
:102F5000AA0A510B1E0B720BA80BE60B840C4F0C2C
:102F6000A20CE60C210D280CAB00123686F81D9041
:102F700086F8239006F8039C0121317786F80190AA
:102F80000022AA61EA612A626A62F08701F068BDE4
:102F90000020C64B401CC2B2632002EBC20404EB0B
:102FA000021403EB84042518AD7D7D2D0CD0114651
:102FB00086F8362003E0FCE3FCE336E184E186F8A2
:102FC00038004FF0010B03E0401EC0B20028EAD1E8
:102FD000BBF1000F05D04FF0000B06E087E1EAE3FC
:102FE000EAE3521CD0B26428D4D3632096F9362089
:102FF000521D02EBC20404EB021403EB84042518F7
:10300000AD7D7D2D04D006F136042270A07003E062
:10301000401EC0B20028F2D16320401EC2B2002080
:1030200002EBC20404EB021403EB84042518AD7D0B
:103030007D2D0AD086F8372086F83900501A64248E
:103040006043F8644FF0010B03E0401CC0B26428F9
:10305000ECD3BBF1000F03D1521ED0B20028DCD15B
:10306000002096F93710491F01EBC10202EB011253
:1030700003EB820213189B7D7D2B04D086F837105A
:1030800086F8390003E0401CC0B26428F2D340F255
:10309000F530A6F8500079E70020844B401CC2B2FE
:1030A000002000EBC00404EB001403EB8404144480
:1030B000A47D7D2C07D086F83C00114686F83D2083
:1030C0004FF0010B03E0401CC0B26428E9D3BBF110
:1030D000000F02D04FF0000B03E0521CD0B2642866
:1030E000DCD3002096F93D2000EBC00404EB001473
:1030F00003EB84041444E47E7D2C05D006F13C04EB
:103100002070521D627003E0401CC0B26428EBD3F3
:103110006320674D401EC2B2632000EBC00404EB85
:10312000001403EB84041444A47D7D2C1CD086F889
:103130003A0086F83B20501A00EBC00404EB001C58
:10314000FC6CB4EB8C0F07DA6424604300EBD070A6
:1031500005EB6000F86404E004EBD47005EB60005C
:10316000F8644FF0010B03E0401EC0B20028D4D138
:10317000BBF1000F03D1521ED0B20028CAD1632088
:1031800096F93B1000EBC00202EB001203EB820247
:103190000A44527C7D2A05D086F83A00491F86F8F9
:1031A0003B1003E0401EC0B20028EBD1786CFDF765
:1031B000DBFA1DF062FF00223E4BFDF783FB04D2D9
:1031C00040F2D130A6F85000E0E640F2D230A6F846
:1031D0005000DBE60020A861E8613749C5E9080135
:1031E0005046FDF7C1FA1DF048FF0022334BFDF7B2
:1031F00069FB09D20021A961E9612962696240F293
:10320000D130A6F85000C1E6B8F1030F03D1214830
:1032100000780128D8D10021A961E9612962696299
:1032200040F2D330A6F85000B0E628B920687863A1
:103230006068B8630120F07121480021C5E90610DB
:10324000296269622068796B081AFDF78DFA1DF012
:1032500014FFDFF8708000224346FDF733FB0BD3E9
:103260006068B96B081AFDF77FFA1DF006FF0022AF
:103270004346FDF727FBA7D20021A961E961296236
:10328000696286F8079040F2D230A6F850007DE6D9
:103290008000002078000020FFFF37BDFF7FF30192
:1032A000A403002000E065406CEEFFFFA8080020AA
:1032B0000CFEFFFF0080564000004E40004065407D
:1032C00000C072C0000024400021A961E9612962A8
:1032D0006962206878626068F8622168B962386360
:1032E000012030734FF47570A6F850004EE6DEF8FA
:1032F00024000144914207D286F82D90FE49002215
:10330000C5E906212A626A62FC49884209DB86F81F
:103310002D90F9490022C5E90621F94A0021C5E9A5
:103320000812F849884217DA96F82D000A280BD2BD
:10333000401C86F82D00F0480021C5E90610F2492E
:103340000020C5E9080107E0F0490020C5E90601B1
:10335000EF480021C5E90810B8F1030F06D1012B91
:1033600004D0EC48EC4EC07C50B12EE00021A961A5
:10337000E9612962696240F2D530A6F8500005E69D
:10338000F86CFDF7F1F9CDE900012068B96A081A77
:10339000FDF7EAF91DF071FEDDE90023FDF792FA71
:1033A00010D3F86CFDF7E0F9CDE900016068396BE6
:1033B000081AFDF7D9F91DF060FEDDE90023FDF7DD
:1033C00081FA02D2D3490120C8742068FDF7CCF9F4
:1033D0001DF053FE00223346FDF774FA09D36068EE
:1033E000FDF7C2F91DF049FE00223346FDF76AFAE7
:1033F00005D2C84940F2D630A1F85000C6E5206891
:1034000041F288314318642293FBF2F303F0FF0882
:103410006368194491FBF2F1CEB2796A081AFDF79C
:10342000A3F91DF02AFE0022BC4BFDF74BFA0BD38B
:103430006068F96A081AFDF797F91DF01EFE002270
:10344000B64BFDF73FFA48D2A8F103005E283AD206
:10345000022E38D9612E36D2C1B2F31EB04DF61C01
:1034600008F103081AE0D8B201EBC10202EB011225
:1034700005EB82020BE002EB000C9CF816C0BCF1DD
:103480007D0F02D04FF0010B03E0401CC0B2B042F0
:10349000F1D9BBF1000F03D1491CC9B24145E2D9B2
:1034A000BBF1000F09D0206878626068F862994823
:1034B0004FF47571A0F8501068E5964940F2D73086
:1034C000A1F8500062E5206878626068F86291486F
:1034D0004FF47571A0F8501058E58E4C207B0128F0
:1034E00015D0022875D0032871D0042870D08D48DB
:1034F0000021C5E9061029626962E07B0428DBD956
:1035000084F8359040F2DA30A4F850003EE5504699
:10351000FDF72AF91DF0B1FDDFF8E4B100225B46AA
:10352000FDF7B8F909D2BAF1000F48DA774800215F
:10353000C5E906107648C5E9081094F93600A8EBED
:103540000000FDF711F91DF098FD5D4600222B46A5
:10355000FDF7A0F912D294F93600301AFDF704F9FC
:103560001DF08BFD00222B46FDF794F906D2E07B7F
:10357000401CE0730220207384F8359094F93C00DD
:10358000A8EB0000FDF7F0F81DF077FD00222B46B8
:10359000FDF780F9B1D294F93D00301AFDF7E4F857
:1035A0001DF06BFD00222B46FDF774F9A5D2E07BE0
:1035B000401CE0730320207384F835909DE7C7F822
:1035C00044A04FF47670A4F85000DFE401E057E027
:1035D000D6E0AAF15100132809D2BAF15A0F48DAFD
:1035E0004A480021C5E906104948C5E9081094F980
:1035F0003C00A8EB0000FDF7B7F81DF03EFD404D84
:1036000000222B46FDF746F912D294F93D00301AFC
:10361000FDF7AAF81DF031FD00222B46FDF73AF91F
:1036200006D2E07B401CE0730320207384F83590C1
:1036300094F93700A8EB0000FDF796F81DF01DFD8A
:1036400000222B46FDF726F9B8D294F93900301A3A
:10365000FDF78AF81DF011FD00222B46FDF71AF93F
:10366000ACD2E07B401CE0730420207384F83590DA
:1036700043E7C7F844A04FF47670A4F8500085E4FF
:103680005046FDF771F81DF0F8FC0022264BFDF7BF
:1036900019F90AD2BAF1000F6BDD1C490020C5E907
:1036A00006011B480021C5E9081094F93700A8EB72
:1036B0000000FDF759F81DF0E0FC114D00222B46EB
:1036C000FDF7E8F812D294F93900301AFDF74CF8FA
:1036D0001DF0D3FC00222B46FDF7DCF806D2E07B80
:1036E000401CE0730420207384F83590E07C0028AF
:1036F000BED094F93A0019E0000069400080BB4454
:10370000000024400000C842000024C000005940CE
:10371000000034C08000002000C0B2400080614042
:10372000A808002000C0724000406540A8EB0000DF
:10373000FDF71AF81DF0A1FC00222B46FDF7AAF8B0
:1037400096D294F93B00301AFDF70EF81DF095FC67
:1037500000222B46FDF79EF88AD2E07B401CE073E6
:103760000120207384F8359040F2DA30A4F850003C
:103770000CE4C7F844A04FF47670A4F8500005E4B8
:103780000AF1630013280AD21AF15A0F59DAFA49DA
:103790000020C5E90601F9480021C5E90810E07CD0
:1037A0000028A5D094F93A00A8EB0000FCF7DCFF54
:1037B00003E0FCE39EE04BE098E11DF05EFCF04D81
:1037C00000222B46FDF766F810D294F93B00301A20
:1037D000FCF7CAFF1DF051FC00222B46FDF75AF8FA
:1037E00004D2E07B401CE0730120207394F9360082
:1037F000A8EB0000FCF7B8FF1DF03FFC00222B46B1
:10380000FDF748F810D294F93600301AFCF7ACFFF7
:103810001DF033FC00222B46FDF73CF804D2E07B80
:10382000401CE07302202073207B0428B9D084F868
:103830003590E07B401CE07340F2DA30A4F8500091
:1038400029E4C7F844A04FF47670A4F8500022E4AD
:1038500068B9206878636068B8630120F071B8F1D6
:10386000000F38D0B8F1010F38D002207075C5486C
:103870000021C5E906100020286268622068796B83
:10388000081AFCF771FF1DF0F8FBDFF8F482002244
:103890004346FDF717F80BD36068B96B081AFCF7BD
:1038A00063FF1DF0EAFB00224346FDF70BF8C7D289
:1038B0000021A961E96100202862686286F807900A
:1038C000C7F844A0707D58B101280ED040F2DB301B
:1038D000A6F8500078E486F81590C8E77075C6E73A
:1038E0004FF47670A6F850006EE440F2D930A6F896
:1038F000500069E4786CA0EB0A00FCF735FF1DF07E
:10390000BCFB0022A04BFCF7DDFF0DD20021A9611A
:10391000E96129626962206878626068F8624FF440
:103920007570A6F850004FE4B8F1030F0BD197481B
:103930000078012807D00020A861E86194480021A0
:10394000C5E9081040E40020A861E86128626862C7
:103950004FF47770A6F8500036E4786CA0EB0A00BC
:10396000FCF702FF1DF089FB00228A4BFCF7AAFF3F
:103970001ED25046FCF7F8FE1DF07FFB0022864B5E
:10398000FCF7A0FF06D2C7F844A040F2D930A6F851
:10399000500019E40021A961E96129626962206887
:1039A00078626068F8624FF47570A6F850000BE416
:1039B000B8F1030F0AD175480078012806D000211C
:1039C000A961E9617248C5E908101CE40020A861FA
:1039D000E8610021296269624FF47770A6F850000F
:1039E00011E4786CA0EB0A00FCF7BEFE1DF045FB6D
:1039F0000022654BFCF766FF1ED25046FCF7B4FE72
:103A00001DF03BFB00225B46FCF75CFF06D2C7F8CB
:103A100044A040F2DB30A6F8500005E40021A96183
:103A2000E96129626962206878626068F8624FF42F
:103A30007570A6F850002AE4B8F1030F0AD1534874
:103A40000078012806D00021A961E9615048C5E944
:103A500008101CE40021A961E961296269624FF440
:103A60007770A6F8500012E428B92068786360687F
:103A7000B8630120F07143480021C5E906102962AE
:103A800069622068796B081AFCF76EFE1DF0F5FA82
:103A9000DFF8EC8000224346FCF714FF0BD360688C
:103AA000B96B081AFCF760FE1DF0E7FA00224346E6
:103AB000FCF708FF89D20020A861E8610021296293
:103AC000696286F80790707D30B1012809D040F214
:103AD000DB30A6F8500009E44FF47670A6F85000E9
:103AE00004E440F2D930A6F8500048E4DEF82000A3
:103AF0000144914207D286F82D9028490022C5E959
:103B000006212A626A622649884208DB86F82D90DF
:103B100022490022C5E906212249C5E90821224996
:103B2000884215DA96F82D000A280AD2401C86F839
:103B30002D001A480021C5E906101148C5E90810F2
:103B400006E00D480021C5E906101848C5E908102F
:103B5000B8F1030F2ED1012B2CD02068DFF8508054
:103B6000B0F57A6F30DA78626068F8624FF4757099
:103B7000A6F8500042E4000000005940000034C0A4
:103B80000000244000C072C000003E4078000020C9
:103B900000004E4000002E4000406540000069409B
:103BA0000080BB44000024C00000C8420000344034
:103BB0000088B3400021A961E9612962696240F28D
:103BC000D530A6F8500019E4FCF7CEFD1DF055FAEB
:103BD00000224346FCF776FE09D36068FCF7C4FD7B
:103BE0001DF04BFA00224346FCF76CFE35D22068EC
:103BF000FCF7BAFD1DF041FA00224346FCF762FED5
:103C00001DD26068FCF7B0FD1DF037FA0022434674
:103C1000FCF758FE04D240F2DA30A6F850004BE42C
:103C2000216841F28830814204DD40F2DD30A6F89F
:103C3000500012E040F2DE30A6F850000DE061685E
:103C400041F28830814204DD40F2DF30A6F85000B6
:103C500003E04FF47D70A6F85000206841F28833ED
:103C6000C218642192FBF1F2D2B2039262681A4444
:103C700092FBF1F101F0FF08796A081AFCF774FD74
:103C80001DF0FBF90022FA4BFCF71CFE0BD3606819
:103C9000F96A081AFCF768FD1DF0EFF90022F44BF1
:103CA000FCF710FE4BD20398C01E5E283ED2B8F13E
:103CB000020F3BD9B8F1610F38D2C1B2DDF80CC0A8
:103CC000A8F10303EB4D08F103080CF1030C1AE013
:103CD000D8B201EBC10202EB011205EB82020BE04C
:103CE00002EB000999F81690B9F17D0F02D04FF060
:103CF000010B03E0401CC0B24045F1D9BBF1000FFD
:103D000003D1491CC9B26145E2D9BBF1000F08D00B
:103D1000206878626068F86240F2D630A6F85000F9
:103D200053E440F2D730A6F850004EE420687862A1
:103D30006068F86240F2D630A6F8500045E4307B67
:103D4000012816D0022862D003287DD004287CD018
:103D5000C9480021C5E90610002028626862F07B8E
:103D60000428DDD9401CF07340F2DA30A6F8500088
:103D70002BE4BAF1000F06DB0020A861E861BF4820
:103D80000021C5E9081096F936100398401AFCF78F
:103D9000EBFC1DF072F9BA4C00222346FCF77AFDC9
:103DA00013D296F93600A8EB0000FCF7DDFC1DF0FD
:103DB00064F900222346FCF76DFD06D2F07B401C1F
:103DC000F0730220307386F8359096F93C10039812
:103DD000401AFCF7C9FC1DF050F900222346FCF7FD
:103DE00059FDBCD296F93D00A8EB0000FCF7BCFCE5
:103DF0001DF043F900222346FCF74CFDAFD2F07BC7
:103E0000401CF0730320307386F83590A7E75046C6
:103E1000FCF7AAFC1DF031F900229A4BFCF73AFDA1
:103E200006D30020A861E86194480021C5E9081084
:103E300096F93C100398401AFCF796FC1DF01DF90A
:103E40008F4C0022234601E039E08EE0FCF722FD92
:103E500013D296F93D00A8EB0000FCF785FC1DF09D
:103E60000CF900222346FCF715FD06D2F07B401C1E
:103E7000F0730320307386F8359096F93710039865
:103E8000401AFCF771FC1DF0F8F800222346FCF7FD
:103E900001FDBBD296F93900A8EB0000FCF764FCE9
:103EA0001DF0EBF800222346FCF7F4FCAED2F07BC9
:103EB000401CF0730420307386F835904FE7BAF158
:103EC000000F06DC0020A861E8616C480021C5E90C
:103ED000081096F937100398401AFCF745FC1DF0BE
:103EE000CCF8674C00222346FCF7D4FC13D296F999
:103EF0003900A8EB0000FCF737FC1DF0BEF80022EB
:103F00002346FCF7C7FC06D2F07B401CF07304206C
:103F1000307386F83590F07C0028CFD096F93A10AF
:103F20000398401AFCF720FC1DF0A7F8564C00221D
:103F30002346FCF7AFFCC1D296F93B00A8EB00008A
:103F4000FCF712FC1DF099F800222346FCF7A2FCB6
:103F5000B4D2F07B401CF0730120307386F83590AA
:103F600040F2DA30A6F8500002E25046FCF7FCFBC3
:103F70001DF083F80022434BFCF7A4FC05D300217D
:103F8000A961E9613D48C5E90810F07C002895D099
:103F900096F93A100398401AFCF7E6FB1DF06DF80D
:103FA000374C00222346FCF775FC13D200E0CDE02D
:103FB00096F93B00A8EB0000FCF7D6FB1DF05DF87E
:103FC00000222346FCF766FC04D2F07B401CF07311
:103FD0000120307396F936100398401AFCF7C4FBA1
:103FE0001DF04BF800222346FCF754FC11D296F941
:103FF0003600A8EB0000FCF7B7FB1DF03EF80022EE
:104000002346FCF747FC04D2F07B401CF0730220EF
:104010003073307B0428BAD086F83590F07B401C92
:10402000F07340F2DA30A6F85000A1E15046FCF7F8
:104030009BFB1DF022F800225B46FCF743FC09D2F3
:104040000021A961E961296269624FF47870A6F8DC
:1040500050008DE1B8F1030F1AD10C480078012807
:1040600016D00021A961E9610448C5E908107FE183
:1040700000806140A808002000C0724000004E404F
:1040800000001440008056400000244078000020CA
:104090000021A961E96100202862686240F2E130F4
:1040A000A6F8500064E128B9206878636068B863B6
:1040B0000120F071F9480021C5E906102962696202
:1040C0002068796B081AFCF74FFB1CF0D6FFDFF86D
:1040D000D08300224346FCF7F5FB0BD36068B96B35
:1040E000081AFCF741FB1CF0C8FF00224346FCF70E
:1040F000E9FB9AD20021A961E9612962696286F827
:10410000079040F2DD30A6F8500031E1E54800218B
:10411000C5E9061029626962206841F2941188425B
:1041200007DA78626068F8624FF47570A6F850009C
:104130001EE1B8F1030F01D1012B8AD10020A86143
:10414000E86140F2E230A6F8500011E128B9206899
:1041500078636068B8630120F071D0480021C5E938
:104160000610296269622068796B081AFCF7FCFA6C
:104170001CF083FFDFF828B300225B46FCF7A2FBAC
:104180000BD36068B96B081AFCF7EEFA1CF075FFE8
:1041900000225B46FCF796FB0DD20021A961E96184
:1041A0002962696286F80790C7F844A040F2E330BC
:1041B000A6F85000DCE0AAF10100592802D206203E
:1041C00086F8350096F83500032806D20020A8614D
:1041D000E861B549C5E908010DE01AF1590004D3B9
:1041E00040F2DA30A6F85000C2E00021A961E9618E
:1041F000AE48C5E90810786CA0EB0A00FCF7B4FAE9
:104200001CF03BFF0022AA4BFCF75CFB09D200200C
:10421000A861E8610021296269624FF47870A6F80C
:104220005000B8F1030F06D1A2480078012802D04F
:10423000F07950B10FE00021A961E961296269625A
:104240004FF47970A6F8500092E0206878636068B7
:10425000B8630120F07191480021C5E90610296278
:1042600069622068796B081AFCF77EFA1CF005FF7A
:10427000DFF82CB200225B46FCF724FB0BD360680E
:10428000B96B081AFCF770FA1CF0F7FE00225B46C7
:10429000FCF718FB0BD20021A961E9612962696270
:1042A00086F8079040F2E330A6F85000D8E3504675
:1042B000FCF75AFA1CF0E1FE00227F4BFCF7EAFA09
:1042C0000AD20020A861E86100212962696240F2F7
:1042D000E530A6F85000C3E3B8F1030F0AD17548E2
:1042E0000078012806D00021A961E9616F48C5E97D
:1042F0000810B5E30021A961E9612962696240F211
:10430000E630A6F85000ABE328B92068786360680F
:10431000B8630120F07161480021C5E90610002052
:10432000286268622068796B081AFCF71DFA1CF095
:10433000A4FEDFF86C8100224346FCF7C3FA0BD3DE
:104340006068B96B081AFCF70FFA1CF096FE0022A1
:104350004346FCF7B7FAA9D20021A961E961002020
:104360002862686286F8079040F2DE30A6F85000B6
:1043700076E34C490020C5E906012862686220689E
:10438000904207DD78626068F8624FF47570A6F8B5
:10439000500065E3B8F1030F01D1012B86D1002154
:1043A000A961E96140F2E730A6F8500058E328B966
:1043B000206878636068B8630120F0713748002195
:1043C000C5E90610296269622068796B081AFCF752
:1043D000CBF91CF052FEDFF8C8B000225B46FCF7B8
:1043E00071FA0BD36068B96B081AFCF7BDF91CF0C1
:1043F00044FE00225B46FCF765FA0ED20020A8615D
:10440000E86100212962696286F80790C7F844A034
:104410004FF47A70A6F8500022E31AF15A0F02DA2C
:10442000062086F8350096F83500032807D20020CC
:10443000A861E8611C480021C5E908100EE0BAF146
:104440005A0F04DD40F2DA30A6F8500008E30021EC
:10445000A961E96115490020C5E90801786CA0EB64
:104460000A00FCF781F91CF008FE0022104BFCF753
:1044700029FA09D20020A861E86100212962696255
:1044800040F2E530A6F85000B8F1030F16D1094804
:104490000078012812D0F079D0B11FE000C072C0BE
:1044A0000000244000C0724000004EC000004E409A
:1044B00000003E4078000020000014400021A96167
:1044C000E9612962696240F2E930A6F85000C7E26A
:1044D000206878636068B8630120F071FE480021AD
:1044E000C5E90610296269622068796B081AFCF731
:1044F0003BF91CF0C2FDDFF8E48300224346FCF7E1
:10450000E1F90BD36068B96B081AFCF72DF91CF0C0
:10451000B4FD00224346FCF7D5F997D20020A861EC
:10452000E8612862686286F807904FF47A70A6F80E
:10453000500095E20AF15E0ABAF1090F09D2002192
:10454000A961E9612962696240F2EA30A6F8500087
:1045500086E2B8F1030F08D1012B06D00021A96132
:10456000E961DF48C5E908107AE20021A961E96143
:104570002962696240F2EB30A6F8500070E228B977
:10458000206878636068B8630120F071D248002128
:10459000C5E90610296269622068796B081AFCF780
:1045A000E3F81CF06AFDDFF8348300224346FCF791
:1045B00089F90BD36068B96B081AFCF7D5F81CF0C1
:1045C0005CFD00224346FCF77DF9B2D20021A961CF
:1045D000E9612962696286F8079040F2DF30A6F847
:1045E00050003DE2BF480021C5E9061000202862C6
:1045F0006862606841F29411884207DA2168796242
:10460000F8624FF47570A6F8500029E2B8F1030F74
:1046100001D1012B8DD10020A861E8614FF47B709E
:10462000A6F850001CE228B9206878636068B86377
:104630000120F071A8480021C5E9061029626962CD
:104640002068796B081AFCF78FF81CF016FDDFF86C
:104650008CB200225B46FCF735F90BD36068B96B6E
:10466000081AFCF781F81CF008FD00225B46FCF7F5
:1046700029F90ED20020A861E8610021296269624F
:1046800086F80790C7F844A040F2ED30A6F8500035
:10469000E6E1BAF15A0F02DD062086F8350096F8F9
:1046A0003500032807D20020A861E8618E48002168
:1046B000C5E908100FE0AAF10100592804D240F220
:1046C000DA30A6F85000CBE10020A861E861844808
:1046D0000021C5E90810786CA0EB0A00FCF744F84B
:1046E0001CF0CBFC0022814BFCF7ECF808D2002038
:1046F000A861E8612862686240F2EA30A6F85000DA
:10470000B8F1030F06D17A480078012802D0F07979
:1047100058B110E00021A961E961002028626862B7
:1047200040F2EE30A6F850009AE1206878636068A5
:10473000B8630120F07168490020C5E90601002135
:10474000296269622068796B081AFCF70DF81CF081
:1047500094FCDFF888B100225B46FCF7B3F80BD37A
:104760006068B96B081AFBF7FFFF1CF086FC00229B
:104770005B46FCF7A7F80CD20020A861E861002195
:104780002962696286F8079040F2ED30A6F8500081
:1047900066E1AAF1560ABAF1090F09D20021A9610E
:1047A000E9612962696240F2EF30A6F8500057E1F2
:1047B000B8F1030F0AD14E480078012806D0002135
:1047C000A961E9614648C5E9081049E10020A861EE
:1047D000E861286268624FF47C70A6F850003FE1FF
:1047E00028B9206878636068B8630120F0713A489E
:1047F0000021C5E906100020286268622068796BF4
:10480000081AFBF7B1FF1CF038FCDFF8D08000225B
:104810004346FCF757F80BD36068B96B081AFBF7EF
:10482000A3FF1CF02AFC00224346FCF74BF80BD2F6
:104830000020A861E86100212962696286F807907A
:104840004FF47D70A6F850000AE126480021C5E922
:104850000610296269626068904207DD216879620A
:10486000F8624FF47570A6F85000F9E0B8F1030F44
:1048700001D1012B06D10021A961E96140F2F1309B
:10488000A6F85000ECE028B9206878636068B86347
:104890000120F07110480021C5E906102962696203
:1048A0002068796B081AFBF75FFF1CF0E6FBDFF866
:1048B0002CB000225B46FCF705F80BD36068B96B9F
:1048C000081AFBF751FF1CF0D8FB00225B46FBF7F0
:1048D000F9FF1CD200210DE000C072C0000024408E
:1048E00000004E4000C0724000004EC000003E403C
:1048F00078000020A961E9612962696286F8079061
:10490000C7F844A040F2F230A6F85000A8E0BAF18F
:10491000000F02DA062086F8350096F835000328E5
:1049200006D20021A961E9614F48C5E908100DE0F0
:104930001AF15A0F04DA40F2DA30A6F850008FE08C
:104940000021A961E9614948C5E90810786CA0EB2C
:104950000A00FBF709FF1CF090FB0022444BFBF719
:10496000B1FF08D20020A861E8612862686240F2C5
:10497000EF30A6F85000B8F1030F06D13D4800789B
:10498000012802D0F07958B110E00021A961E96155
:1049900000202862686240F2F330A6F850005FE021
:1049A000206878636068B8630120F07132490020A4
:1049B000C5E90601286268622068796B081AFBF76E
:1049C000D3FE1CF05AFBDFF8B48000224346FBF70D
:1049D00079FF0BD36068B96B081AFBF7C5FE1CF0B2
:1049E0004CFB00224346FBF76DFF0BD20021A9616F
:1049F000E9612962696286F8079040F2F230A6F810
:104A000050002DE06068002802DA0220029001E0E8
:104A1000032002900021A961E9612962696286F898
:104A2000359086F80F9086F82E9086F80C90A6F8B0
:104A30005090012086F82F0012E001200290002102
:104A4000A961E9612962696286F8359086F80F905C
:104A500086F82E9086F80C90A6F8509086F8139061
:104A6000029804B0BDE8F09F00004EC000004E4028
:104A700000003E407800002000C072C000002440CA
:104A80002DE9F84F04468A460026A068642190FB71
:104A9000F1F00090DFF8F483FD4B4046B8F9462072
:104AA00000250121C0791B78FA4F08F1800908F52B
:104AB000807BB2F5377F76D023DC40F2D62EA2F28F
:104AC000D62C724570D014DC40F2D32EA2F2D32C37
:104AD00072456AD006DC12B31CF102026BD0012AC7
:104AE00051D1A8E0BCF1010F7ED0BCF1020FF7D18B
:104AF00024E1BCF1060F46D2DFE80CF045FEFDFCD8
:104B0000FBFAA2F2DD224FF4397C0B2AF3D2DFE864
:104B100002F0FEFDFCFBFAF9F8F7F6F5F40050B9E7
:104B2000BAF1030F30D02068C9F834006068C9F8C2
:104B3000380088F80710D8480021CBE90610CBF8D8
:104B40002010CBF824102068D9F83410081AFBF78D
:104B50000BFE1CF092FA00223B46FBF7B3FE0CD38F
:104B60006068D9F83810081AFBF7FEFD1CF085FACA
:104B700000223B46FBF7A6FEBDD240F2D120A8F8AA
:104B8000460088F80750BAE30098FBF7EDFD1CF0EB
:104B900074FA0022C14BFBF77DFE07D240F2D2200F
:104BA000A8F84600ABE3F0E1F1E055E040F2DD208B
:104BB000A8F84600A3E338B92068C9F83400606853
:104BC000C9F8380088F80710B3480021CBE906106F
:104BD000DA46CAF82010CAF824102068D9F8341030
:104BE000081AFBF7C1FD00E059E01CF046FA00226C
:104BF0003B46FBF767FEC6D20021CAF81810CAF878
:104C00001C10CAF82010CAF824100098FBF7ACFD5D
:104C10001CF033FA0022A14BFBF73CFE04D240F219
:104C2000D220A8F8460003E040F2DD20A8F84600B4
:104C300088F8075063E30021CBF81810CBF81C105C
:104C4000CBF82010CBF824106068C9F82C0040F293
:104C5000D320A8F8460052E30021CBF81810CBF877
:104C60001C108F48CBE908100098552808DDCBF8B8
:104C70002010CBF8241040F2D520A8F846003EE3DF
:104C8000BAF1030F01D1012B8CD10021CBF82010F8
:104C9000CBF824104FF43570A8F846002FE338B94C
:104CA0002068C9F834006068C9F8380088F807102F
:104CB00079490020DA46CBE906010021CAF8201024
:104CC000CAF824102068D9F83410081AFBF74CFDF4
:104CD0001CF0D3F900223B46FBF7F4FD1DD36068BE
:104CE000D9F83810081AFBF73FFD1CF0C6F90FE0A1
:104CF0000DE1DFE0DAE09FE063E0FDE2AAE27CE2C2
:104D000077E24EE212E2EEE1C6E188E152E140E1F3
:104D100000223B46FBF7D6FD8CD20020CAF81800D3
:104D2000CAF81C000021CAF82010CAF8241088F81C
:104D3000075040F2D320A8F84600E0E2594800218D
:104D4000CBE90610CBF82010CBF82410BAF1030FF2
:104D500013D1012B11D06068D9F82C10081AFBF779
:104D600003FD1CF08AF900224F4BFBF7ABFD86D206
:104D700040F2D620A8F84600C1E20021CBF8181076
:104D8000CBF81C1040F2D920A8F84600B7E2002169
:104D9000CBF81810CBF81C104148CBE9081000984C
:104DA0005A2804DD4FF43670A8F84600A7E2BAF19D
:104DB000030F01D1012BC0D140F2D720A8F8460043
:104DC0009DE238B92068C9F834006068C9F8380035
:104DD00088F8071030480021CBE90610CBF82010E6
:104DE000CBF824102068D9F83410081AFBF7BCFC63
:104DF0001CF043F900223B46FBF764FD0CD36068CE
:104E0000D9F83810081AFBF7AFFC1CF036F900226D
:104E10003B46FBF757FD90D20021CBF81810CBF89A
:104E20001C10CBF82010CBF8241088F8075040F263
:104E3000D620A8F8460062E21A490020CBE9060114
:104E40000021CBF82010CBF82410BAF1030F13D1B6
:104E5000012B11D06068D9F82C10081AFBF784FCDC
:104E60001CF00BF90022104BFBF72CFD84D240F212
:104E7000DA20A8F8460042E20021CBF81810CBF85F
:104E80001C1040F2D920A8F8460038E2800000202B
:104E9000780000200000244000C072C0008056400E
:104EA00000004E4000C0724000806140A8F84650AB
:104EB000022624E20021CBF81810CBF81C10FE4883
:104EC000CBE908100098FBF74FFC1CF0D6F8002245
:104ED000FA4BFBF7F7FC0ED20020CBF81800CBF80A
:104EE0001C000021CBF82010CBF824104FF43770B1
:104EF000A8F8460003E2BAF1030F03D1F0480078A6
:104F0000012898D140F2DB20A8F84600F7E138B933
:104F10002068C9F834006068C9F8380088F80710BC
:104F2000E8490020DA46CBE906010021CAF8201042
:104F3000CAF824102068D9F83410081AFBF714FCBA
:104F40001CF09BF800223B46FBF7BCFC0CD36068CE
:104F5000D9F83810081AFBF707FC1CF08EF800226D
:104F60003B46FBF7AFFC86D20020CAF81800CAF80F
:104F70001C000021CAF82010CAF8241088F8075035
:104F800040F2DA20A8F84600B9E1A8F84650012618
:104F9000B5E10021CBF81810CBF81C10CBF820108D
:104FA000CBF824106068C9F82C0040F2DE20A8F885
:104FB0004600A4E10021CBF81810CBF81C10C24821
:104FC000CBE908100098FBF7CFFB1CF056F8002245
:104FD000BE4BFBF75FFC0DD20021CBF81810CBF8CD
:104FE0001C10CBF82010CBF824104FF43870A8F820
:104FF000460084E1BAF1030F03D1B14800780128DB
:1050000084D10021CBF81810CBF81C10CBF820105D
:10501000CBF8241040F2DF20A8F846006FE138B941
:105020002068C9F834006068C9F8380088F80710AB
:10503000A4490020CBE906010021CBF82010CBF8D1
:1050400024102068D9F83410081AFBF78DFB1CF0E7
:1050500014F800223B46FBF735FC0CD36068D9F806
:105060003810081AFBF780FB1CF007F800223B46BB
:10507000FBF728FC88D20020CBF81800CBF81C00E6
:105080000021CBF82010CBF8241088F8075040F20C
:10509000DE20A8F8460032E18D480021CBE9061059
:1050A000CBF82010CBF82410BAF1030F13D1012B49
:1050B00011D06068D9F82C10081AFBF755FB1BF0CB
:1050C000DCFF0022834BFBF7FDFB03D240F2E12023
:1050D000A8F8460013E10021CBF81810CBF81C10FB
:1050E000A8F846C00BE10021CBF81810CBF81C1033
:1050F0007548CBE908100098FBF736FB1BF0BDFFA5
:105100000022754BFBF7C6FB04D240F2E320A8F85F
:105110004600F4E0BAF1030F03D169480078012892
:1051200003D140F2E220A8F84600E8E038B9206850
:10513000C9F834006068C9F8380088F80710614879
:105140000021CBE90610CBF82010CBF82410206802
:10515000D9F83410081AFBF707FB1BF08EFF00226A
:105160003B46FBF7AFFB0CD36068D9F83810081A40
:10517000FBF7FAFA1BF081FF00223B46FBF7A2FB8C
:105180000ED20021CBF81810CBF81C10CBF8201051
:10519000CBF8241088F8075040F2E120A8F8460028
:1051A000ADE04B480021CBE906100020CBF82000F1
:1051B000CBF82400BAF1030F13D1012B11D0606892
:1051C000D9F82C10081AFBF7CFFA1BF056FF002273
:1051D000404BFBF777FB03D240F2E520A8F84600EE
:1051E0008DE00021CBF81810CBF81C10A8F846C0B1
:1051F00085E0A8F84650032681E00021CBF818107E
:10520000CBF81C1030490020CBE908010098FBF7CF
:10521000ABFA1BF032FF0022304BFBF73BFB0DD209
:105220000020CBF81800CBF81C00CBF82000CBF8FE
:10523000240040F2E720A8F8460060E0BAF1030F2E
:1052400003D11F480078012859D140F2E620A8F880
:10525000460054E038B92068C9F834006068C9F8DD
:10526000380088F8071017480021CBE90610DA4605
:10527000CAF82010CAF824102068D9F83410081A87
:10528000FBF772FA1BF0F9FE00223B46FBF71AFB14
:105290000CD36068D9F83810081AFBF765FA1BF0D0
:1052A000ECFE00223B46FBF70DFB28D20020CAF89B
:1052B0001800CAF81C0013E000004E400080654052
:1052C0007800002000C072C000004EC00080564030
:1052D00000C0724000806140004055400000204006
:1052E0000021CAF82010CAF8241088F8075040F2AC
:1052F000E520A8F8460002E0A8F84650012630460E
:10530000BDE8F88F2DE9F84F044688460026A068CE
:10531000642190FBF1F00090DFF8F4A3FD4B5046C0
:10532000BAF9462000250121C0791B780AF18009CD
:10533000F94F09F1800BB2F5B67F74D021DCB2F5DC
:10534000B37F71D014DC40F2631EA2F2631C72457D
:105350006BD006DC1AB31CF102026DD0012A52D1C7
:10536000ABE0BCF1010F7CD0BCF1020FF7D126E11C
:10537000A2F26712052A46D2DFE802F0FEFDFCFB2E
:10538000FA00A2F26D124FF4BA7C0B2AF3D2DFE8D6
:1053900002F0FEFDFCFBFAF9F8F7F6F5F40050B95F
:1053A000B8F1030F30D02068C9F834006068C9F83C
:1053B00038008AF80710D9480021CBE90610CBF84D
:1053C0002010CBF824102068D9F83410081AFBF705
:1053D000CBF91BF052FE00223B46FBF773FA0CD3CD
:1053E0006068D9F83810081AFBF7BEF91BF045FEC3
:1053F00000223B46FBF766FABDD240F26110AAF8E4
:1054000046008AF80750BBE30098FBF7ADF91BF0A4
:1054100034FE0022C24BFBF73DFA08D24FF4B170C4
:10542000AAF84600ACE3F0E1F2E057E004E040F215
:105430006D10AAF84600A3E338B92068C9F8340013
:105440006068C9F838008AF80710B4490020D846C7
:10545000CBE906010021C8F82010C8F82410206804
:1054600000E05FE0D9F83410081AFBF77DF91BF073
:1054700004FE00223B46FBF725FAC4D20021C8F8FF
:105480001810C8F81C10C8F82010C8F8241000988C
:10549000FBF76AF91BF0F1FD0022A14BFBF7FAF9CB
:1054A00004D24FF4B170AAF8460003E040F26D1048
:1054B000AAF846008AF8075062E30021CBF81810DA
:1054C000CBF81C10CBF82010CBF824106068C9F87A
:1054D0002C0040F26310AAF8460051E30021CBF8FB
:1054E0001810CBF81C108F48CBE90810009810F169
:1054F000500F08DACBF82010CBF8241040F26510DA
:10550000AAF846003CE3B8F1030F01D1012B89D181
:105510000021CBF82010CBF824104FF4B270AAF879
:1055200046002DE338B92068C9F834006068C9F82E
:1055300038008AF8071079480021CBE90610D846D0
:10554000C8F82010C8F824102068D9F83410081AB8
:10555000FBF70AF91BF091FD00223B46FBF7B2F97D
:105560001DD36068D9F83810081AFBF7FDF80FE072
:105570000EE1E1E0DCE0A2E065E0FEE2ACE27EE22A
:1055800079E251E215E2ECE1C4E188E152E140E167
:105590001BF073FD00223B46FBF794F98CD20021EF
:1055A000C8F81810C8F81C10C8F82010C8F8241043
:1055B0008AF8075040F26310AAF84600E0E25A4821
:1055C0000021CBE90610CBF82010CBF82410B8F15D
:1055D000030F13D1012B11D06068D9F82C10081AD1
:1055E000FBF7C2F81BF049FD0022504BFBF76AF9AC
:1055F00088D24FF4B370AAF84600C1E20021CBF87C
:105600001810CBF81C1040F26910AAF84600B7E257
:105610000021CBF81810CBF81C104248CBE9081039
:10562000009810F1550F04DA4FF4B470AAF8460050
:10563000A6E2B8F1030F01D1012BBFD140F26710F0
:10564000AAF846009CE238B92068C9F834006068BE
:10565000C9F838008AF8071030480021CBE9061055
:10566000D846C8F82010C8F824102068D9F834109B
:10567000081AFBF779F81BF000FD00223B46FBF708
:1056800021F90CD36068D9F83810081AFBF76CF8C8
:105690001BF0F3FC00223B46FBF714F98ED20021ED
:1056A000C8F81810C8F81C10C8F82010C8F8241042
:1056B0008AF807504FF4B370AAF8460060E21A481F
:1056C0000021CBE90610CBF82010CBF82410B8F15C
:1056D000030F13D1012B11D06068D9F82C10081AD0
:1056E000FBF742F81BF0C9FC0022104BFBF7EAF86D
:1056F0008DD24FF4B570AAF8460041E20020CBF8F5
:105700001800CBF81C0040F26910AAF8460037E2F6
:1057100080000020780000200000244000C072C0FB
:105720000080564000004EC000C0724000806140C2
:10573000AAF84650022623E20021CBF81810CBF835
:105740001C10FE48CBE908100098FBF70DF81BF081
:1057500094FC0022FA4BFBF7B5F80DD20021CBF8F0
:105760001810CBF81C10CBF82010CBF824104FF4F5
:10577000B670AAF8460003E2B8F1030F03D1F1486E
:10578000007801289AD140F26B10AAF84600F7E1A0
:1057900038B92068C9F834006068C9F838008AF858
:1057A0000710E9490020D846CBE906010021C8F8D6
:1057B0002010C8F824102068D9F83410081AFAF715
:1057C000D3FF1BF05AFC00223B46FBF77BF80CD3BF
:1057D0006068D9F83810081AFAF7C6FF1BF04DFCBC
:1057E00000223B46FBF76EF887D20021C8F818105C
:1057F000C8F81C10C8F82010C8F824108AF8075000
:105800004FF4B570AAF84600BAE1AAF8465001264E
:10581000B6E10021CBF81810CBF81C10CBF8201003
:10582000CBF824106068C9F82C004FF4B770AAF8C0
:105830004600A5E10021CBF81810CBF81C10C34896
:10584000CBE908100098FAF78FFF1BF016FC002236
:10585000BF4BFBF71FF80DD20021CBF81810CBF887
:105860001C10CBF82010CBF824104FF4B870AAF815
:10587000460085E1B8F1030F03D1B2480078012852
:1058800085D10021CBF81810CBF81C10CBF82010D4
:10589000CBF8241040F26F10AAF8460070E138B936
:1058A0002068C9F834006068C9F838008AF8071021
:1058B000A5480021CBE90610CBF82010CBF8241026
:1058C0002068D9F83410081AFAF74EFF1BF0D5FB00
:1058D00000223B46FAF7F6FF0CD36068D9F838107F
:1058E000081AFAF741FF1BF0C8FB00223B46FAF703
:1058F000E9FF89D20021CBF81810CBF81C10CBF8A7
:105900002010CBF824108AF807504FF4B770AAF88B
:10591000460035E18F480021CBE90610CBF8201076
:10592000CBF82410B8F1030F13D1012B11D060680C
:10593000D9F82C10081AFAF717FF1BF09EFB00226B
:10594000854BFAF7BFFF03D240F27110AAF8460068
:1059500016E10021CBF81810CBF81C10AAF846C0AD
:105960000EE10021CBF81810CBF81C107748CBE9DA
:1059700008100098FAF7F8FE1BF07FFB0022774B27
:10598000FAF788FF0DD20021CBF81810CBF81C10C5
:10599000CBF82010CBF8241040F27310AAF8460080
:1059A000EEE0B8F1030F03D04FF4B970AAF8460047
:1059B000E6E038B92068C9F834006068C9F83800F2
:1059C0008AF8071060480021CBE90610CBF82010B8
:1059D000CBF824102068D9F83410081AFAF7C4FE5E
:1059E0001BF04BFB00223B46FAF76CFF0CD36068C0
:1059F000D9F83810081AFAF7B7FE1BF03EFB002260
:105A00003B46FAF75FFF0ED20021CBF81810CBF817
:105A10001C10CBF82010CBF824108AF8075040F265
:105A20007110AAF84600ABE04A480021CBE9061005
:105A3000CBF82010CBF82410B8F1030F13D1012BB1
:105A400011D06068D9F82C10081AFAF78DFE1BF0F7
:105A500014FB0022404BFAF735FF03D240F27510D9
:105A6000AAF846008CE00021CBF81810CBF81C10E7
:105A7000AAF846C084E0AAF84650032680E0002138
:105A8000CBF81810CBF81C103048CBE90810009860
:105A9000FAF76AFE1BF0F1FA0022314BFAF7FAFE30
:105AA0000ED20020CBF81800CBF81C000021CBF858
:105AB0002010CBF824104FF4B670AAF846005FE02F
:105AC000B8F1030F03D11F480078012858D14FF4D3
:105AD000BB70AAF8460053E038B92068C9F8340012
