:020000040800F2
:10000000985F0020E9010008710C00082D09000824
:100010006D0C0008E9060008D9180008000000006F
:100020000000000000000000000000004501000882
:10003000610700080000000089010008390F00086E
:10004000030200080302000803020008030200087C
:10005000030200080302000803020008030200086C
:10006000030200080302000803020008030200085C
:10007000030200080302000803020008030200084C
:10008000030200080302000803020008030200083C
:10009000030200080302000803020008030200082C
:1000A000030200080302000803020008030200081C
:1000B000030200080302000803020008030200080C
:1000C00003020008030200080302000803020008FC
:1000D000030200080302000831150008411500085A
:1000E00003020008030200080302000803020008DC
:1000F00003020008030200080302000803020008CC
:100100000302000803020008B90F000803020008F8
:1001100003020008030200085910000881100008BB
:10012000030200080302000803020008030200089B
:10013000DFF80CD000F064F900480047C542000821
:10014000985F0020204B19680868B0E8F00F80F332
:100150000988BFF36F8F4FF0000080F311884EF0D5
:100160000D0E70470000000006480068006880F32C
:10017000088862B661B6BFF34F8FBFF36F8F00DFA1
:1001800000BF00BF08ED00E0EFF30980BFF36F8F01
:100190000D4B1A6820E9F00F106008B54FF0100001
:1001A00080F3118804F062FD4FF0000080F31188A5
:1001B000BDE8084019680868B0E8F00F80F30988C6
:1001C000BFF36F8F704700BF88000020EFF31180EE
:1001D0004FF0100181F31188704780F31188704748
:1001E000EFF3058070470000064880470648004747
:1001F000FEE7FEE7FEE7FEE7FEE7FEE7FEE7FEE7D7
:10020000FEE7FEE7590F00083101000840EA01034C
:100210009B0703D009E008C9121F08C0042AFAD2BC
:1002200003E011F8013B00F8013B521EF9D2704780
:10023000D2B201E000F8012B491EFBD27047002228
:10024000F6E710B513460A4604461946FFF7F0FFD5
:10025000204610BD80EA010210B502F000434000C4
:1002600022D04A001FD0010E01EB1261C0F35600EC
:10027000C2F3560240F4000042F40002A0FB022048
:1002800000047F39140400D0401C50EA124001D40D
:100290004000491EC2B20C0604EBD010401C4008BE
:1002A000802A02D003E0002010BD20F001000029C8
:1002B00000DA0020184310BD30B480EA010202F0D9
:1002C000004530F0004221F0004013D090B1C30D42
:1002D000D40DC2F31601C0F31600E41A41F4000174
:1002E00040F400027D34914201D3641C00E04900D7
:1002F000002C02DA30BC002070474FF400000023CD
:10030000914201D3891A034340084FEA4101F7D1D2
:1003100051B1914202D14FF0004105E002D24FF0BD
:10032000010101E06FF0010103EBC450284430BC2F
:1003300000F02EB8C10F80EAE0700844CA07962387
:10034000002100F02EB896230022114600F029B8B3
:10035000002801DBC0F10040002901DBC1F10041B0
:100360008842704730B50B46014600202022012408
:1003700009E021FA02F59D4205D303FA02F5491B73
:1003800004FA02F52844151EA2F10102F1DC30BD89
:100390000029A8BF7047401C490008BF20F0010099
:1003A000704710B4B0FA80FC00FA0CF050EA010477
:1003B00004BF10BC704749B1CCF1200421FA04F409
:1003C00011FA0CF118BF012121430843A3EB0C01E2
:1003D000CB1D4FEA00614FEA102042BF002010BC45
:1003E000704700EBC35010440029A4BF10BC7047F5
:1003F000401C490008BF20F0010010BC70470000FD
:10040000064C074D06E0E06840F0010394E8070061
:1004100098471034AC42F6D3FFF78EFE74540008B0
:100420009454000821B1826842F00102826003E026
:10043000826822F0010282607047000010B5044615
:100440001248844208D10121401500F081FC0021AE
:10045000601500F07DFC17E00D48844208D10121B1
:10046000001500F075FC0021201500F071FC0BE078
:100470000848844208D10121C80300F069FC00212A
:100480004FF4004000F064FC10BD00000024014067
:1004900000280140003C0140014600208A6802F02B
:1004A00004020AB1012000E0002070470146C86C38
:1004B00080B270470246002013680B400BB1012048
:1004C00000E000207047014600208A6802F0080220
:1004D0000AB1012000E000207047000030B502465C
:1004E0000020002350680F4C20400D790C6844EA2E
:1004F00005242043506090680B4C2040D1E9025401
:100500002C434D7944EA450420439060D06A20F49E
:1005100070000C7C641EE4B2234340EA0350D062B6
:1005200030BD0000FFFEF0FFFDF7F1FFF0B504461F
:100530000D4600200021092D11DDE068A5F10A0615
:1005400006EB4607072606FA07F18843A5F10A06D7
:1005500006EB460603FA06F10843E0600CE020696A
:1005600005EB4507072606FA07F1884305EB450624
:1005700003FA06F108432061072A0FDA606B561E62
:1005800006EB86071F2606FA07F18843561E06EB80
:10059000860605FA06F10843606322E00D2A0FDAA9
:1005A000206BD61F06EB86071F2606FA07F1884345
:1005B000D61F06EB860605FA06F10843206310E015
:1005C000E06AA2F10D0606EB86071F2606FA07F180
:1005D0008843A2F10D0606EB860605FA06F10843EC
:1005E000E062F0BD816841F008018160704721B18F
:1005F000826842F4A002826003E0826822F4A002D2
:1006000082607047816841F004018160704700009A
:1006100010B5012004F0EAFB0149086010BD00009C
:10062000100000201FB500201B4A0123CDE9012046
:100630000093039003464FF4007218A11A4804F087
:10064000C9FC0020194A0223CDE901200093039040
:1006500003464FF4007216A1184804F0BBFC0020BA
:10066000174A0323CDE901200093039003464FF47A
:10067000007214A1164804F0ADFC0020154A0423B2
:10068000CDE901200093039003464FF4007212A1BC
:10069000144804F09FFC1FBD0000002076546173D5
:1006A0006B557365724946002D4D0008040000200B
:1006B000765461736B4C454400000000994A000871
:1006C00008000020765461736B4D736750726F00A1
:1006D000314B00080C000020765461736B53746139
:1006E00072740000D94B000800BFFEE7014609B94B
:1006F00000207047012901D10748FAE7022901D1FA
:100700000648F6E7032901D10020F2E7042901D1C8
:100710000020EEE70020ECE7CC010020F4090020E7
:1007200008B526208DF8000001208DF8010000207A
:100730008DF8020001208DF80300684600F09AFA57
:1007400027208DF8000001208DF8010000208DF891
:10075000020001208DF80300684600F08BFA08BD06
:1007600070472DE9F04102460025002600200023B5
:100770000024002791F803C00CF00F0591F803C086
:100780000CF0100CBCF1000F03D091F802C04CEA41
:10079000050591F800C0BCF1000F31D014680020AD
:1007A0002BE04FF0010C0CFA00F3B1F800C00CEA9A
:1007B00003069E4220D183004FF00F0C0CFA03F782
:1007C000BC4305FA03FC4CEA040491F803C0BCF1F5
:1007D000280F06D14FF0010C0CFA00FCC2F814C02F
:1007E0000AE091F803C0BCF1480F05D14FF0010CAD
:1007F0000CFA00FCC2F810C0401C0828D1D31460C9
:10080000B1F800C0BCF1FF0F34DD546800202EE0C9
:1008100000F1080C4FF0010808FA0CF3B1F800C021
:100820000CEA03069E4221D183004FF00F0C0CFA14
:1008300003F7BC4305FA03FC4CEA040491F803C037
:10084000BCF1280F05D100F1080C08FA0CF8C2F829
:10085000148091F803C0BCF1480F07D100F1080CD7
:100860004FF0010808FA0CF8C2F81080401C082864
:10087000CED35460BDE8F081F0B50A4600230024D1
:100880000021002500F00046B6F1004F02D11D4EB8
:10089000F16901E01B4E7168C0F3034583B200F4B7
:1008A0004016B6F5401F08D121F07061154E7668EC
:1008B00026F07066134F7E6012E000F48016B6F5E5
:1008C000801F06D1032606FA05F4A14341F07061AA
:1008D00006E0460D360103FA06F6B14341F07061B9
:1008E00022B1460D360103FA06F6314300F0004608
:1008F000B6F1004F02D1034EF16101E0014E71608B
:10090000F0BD0000000001400246002093680B404B
:100910000BB1012000E00020704741617047016188
:1009200070470AB1016100E04161704709A10020F0
:100930000CE00A5C124B1A8000BF114A121F128889
:1009400002F04002002AF8D0421CD0B22A28F0D38C
:1009500000BFFEE70D0A456E74657220486172643F
:100960004661756C745F48616E646C65722C2053CF
:10097000797374656D2048616C742E0D0A00000057
:10098000043801404CF6CC40014908607047000033
:10099000003000404AF6AA20014908607047000074
:1009A00000300040014948607047000000300040BE
:1009B000014988607047000000300040014908602C
:1009C000704700000030004000B585B001210520CF
:1009D00000F0AEF90121480400F09AF90420ADF8C6
:1009E000100018208DF8130003208DF8120004A9C0
:1009F0004548FFF7B6FE0820ADF8100004208DF83A
:100A0000130004A94048FFF7ACFE04A93E48FFF7D5
:100A1000A8FE4FF4E13000900020ADF80400ADF8DE
:100A20000600ADF80800ADF80C000C20ADF80A0087
:100A30006946364800F0F0FD012240F22551334866
:100A400000F0C5FD0121314800F08BFD40212F4809
:100A500000F07EFD0121082000F06AF910208DF8D9
:100A6000130003208DF812000420ADF8100004A933
:100A70002748FFF776FE0121092000F059F90121EE
:100A8000880400F045F94FF48060ADF8100018209C
:100A90008DF8130003208DF8120004A91C48FFF7FD
:100AA00060FE4FF40060ADF8100004208DF81300D4
:100AB00004A91748FFF755FE04A91548FFF751FE92
:100AC0004FF4E13000900020ADF80400ADF80600CE
:100AD000ADF80800ADF80C000C20ADF80A0069462E
:100AE0000C4800F099FD012240F22551094800F020
:100AF0006EFD0121074800F034FD4021054800F05B
:100B000027FD05B000BD0000000801400044004082
:100B1000000C0140004800400948006800F08000D7
:100B200058B90748006800F4807030B10448006884
:100B300000F4806008B1012070470020FCE700004D
:100B4000081801400948006800F0800058B10748C3
:100B5000006800F4807030B90448006800F48060D8
:100B600008B9012070470020FCE700000818014088
:100B70000948006800F0800058B10748006800F498
:100B8000807030B90448006800F4806008B101202A
:100B900070470020FCE70000081801400948006881
:100BA00000F0800058B10748006800F4807030B150
:100BB0000448006800F4806008B9012070470020F4
:100BC000FCE70000081801400448006800F08000BD
:100BD000012800D170470020FCE700000818014000
:100BE0000448006800F08000012800D17047002010
:100BF000FCE70000081801400448006800F080008D
:100C000008B9012070470020FCE7000008180140E7
:100C10000448006800F0800008B9012070470020F7
:100C2000FCE70000081801400448006800F080005C
:100C300008B9012070470020FCE7000008180140B7
:100C40000948006800F0800058B90748006800F4BF
:100C5000807030B90448006800F4806008B1012059
:100C600070470020FCE700000818014000BFFEE7C5
:100C70007047000070B5002100230F22C47804B330
:100C8000154C246804F4E064C4F5E064210AC1F161
:100C90000403CA40447804FA03F1847814402143E1
:100CA00009010E4C0678A155047804F01F050124B3
:100CB000AC4005786D11AD0005F1E025C5F80041A7
:100CC00009E0047804F01F050124AC40044D0678C7
:100CD000761145F8264070BD0CED00E000E400E020
:100CE00080E100E002490143024A116070470000C0
:100CF0000000FA050CED00E001460020034A5068B0
:100D000020F440400843506070470000001002404B
:100D100029B1064AD2690243044BDA6104E0034A6E
:100D2000D2698243014BDA61704700000010024033
:100D300029B1064A92690243044B9A6104E0034ACE
:100D400092698243014B9A61704700000010024093
:100D500029B1064AD2680243044BDA6004E0034A30
:100D6000D2688243014BDA607047000000100240F5
:100D700030B500210022002400232D4D6D6805F0C0
:100D80000C0121B1042905D0082923D105E0294D02
:100D9000056022E0274D05601FE0254D6D6805F4D4
:100DA0007012234D6D6805F48034022505EB9242E4
:100DB0001CB9214D554305600BE01D4D6D6805F4D0
:100DC00000351DB11C4D5543056002E0194D5543DA
:100DD000056002E0174D056000BF00BF144D6D684F
:100DE00005F0F0010909154D6B5C0568DD404560B3
:100DF0000F4D6D6805F4E061090A104D6B5C4568A4
:100E0000DD4085600A4D6D6805F46051C90A0B4DDF
:100E10006B5C4568DD40C560054D6D6805F440417B
:100E2000890B074D6B5CC568B5FBF3F5056130BDFB
:100E30000010024000127A0000093D00600000200E
:100E40007000002010B50446204601F09DF810BD4A
:100E500010B500F001F810BD0CB500200190009015
:100E60003348006840F480303149086000BF3048A2
:100E7000006800F4003000900198401C0190009838
:100E800018B90198B0F5A06FF1D12948006800F4B5
:100E9000003010B10120009001E000200090009887
:100EA000012843D12348006840F010002149086020
:100EB0000846006820F0030008600846006840F01B
:100EC000020008601A4840681949486008464068AE
:100ED00048600846406840F48060486008464068C2
:100EE00020F47C1048600846406840F4E8104860F0
:100EF0000846006840F08070086000BF0C48006839
:100F000000F000700028F9D00948406820F0030084
:100F1000074948600846406840F00200486000BF4A
:100F20000348406800F00C000828F9D10CBD00000F
:100F3000001002400020024010B5FFF747F904F00E
:100F4000EBF818B14FF08050024908600020FFF71D
:100F500044F910BD04ED00E010B51348006840F0FE
:100F600001001149086008464068104908400E49D0
:100F70004860084600680E4908400B49086008466A
:100F8000006820F4802008600846406820F4FE00D5
:100F900048604FF41F008860FFF75AFF4FF0006071
:100FA0000449086010BD0000001002400000FFF876
:100FB000FFFFF6FE08ED00E010B50221214800F029
:100FC000DCF858B102211F4800F0B6F800220221D7
:100FD0001C4800F0E3F81C480068804704211948C9
:100FE00000F0CBF858B10421164800F0A5F8002213
:100FF0000421144800F0D2F8144800688047082102
:10100000104800F0BAF858B108210E4800F094F8E2
:10101000002208210B4800F0C1F80D480068804705
:101020001021084800F0A9F858B11021054800F037
:1010300083F800221021034800F0B0F8054800684A
:10104000804710BD000C00405000002054000020DC
:10105000580000205C00002010B50121064800F077
:101060008CF840B105480068401C04490860012123
:10107000014800F061F810BD001000401800002089
:1010800010B50121214800F078F800283CD001215A
:101090001E4800F051F81E480068401C1C490860BA
:1010A0004FF400411B48FFF72FFC18B901201A49E3
:1010B000087009E01848007830B10020164908701F
:1010C00008464068401C486008211448FFF71CFC93
:1010D00018B901201049487009E00F48407830B134
:1010E00000200D49487008468068401C8860084808
:1010F0000068B0F57A7F07D300200549086002F048
:101100007FF8012002F07CF810BD000000140040C0
:101110001C000020000801400001002000180140D0
:1011200021B1028842F08002028004E002884FF67A
:101130007F731A4002807047CA430282704721B110
:10114000028842F00102028004E002884FF6FE733A
:101150001A400280704731B1B0F8442042F4004296
:10116000A0F8442005E0B0F84420C2F30E02A0F835
:10117000442070470146888C704730B502460020F5
:1011800000230024158A05EA0103958905EA010474
:1011900013B10CB1012000E0002030BD1AB18389E9
:1011A0000B43838102E083898B4383817047000076
:1011B00070B5002400220023058C4FF6FE763540E2
:1011C0000584028C8388048B4FF68F752C40B51EE6
:1011D0002C400D882C43751E2A400D892A434D88CA
:1011E0002A43144DA8420BD0134DA84208D0134DEA
:1011F000A84205D0124DA84202D0124DA84213D1E8
:101200004FF6F7752A404D892A434FF6FB752A4061
:101210008D882A434FF6FF652B404FF6FF552B4034
:101220008D892B43CD892B4383800483CD8885868C
:10123000028470BD002C0140003401400040014098
:1012400000440140004801400A460021018B4FF64E
:10125000F7731940114301837047000070B50024F3
:1012600000220023058C4FF6EF7635400584028C72
:101270008388048B48F6FF752C404FF6FF452C40C1
:101280000D884FF6FF7606EA05252C434FF6DF75ED
:101290002A400D8906EA05152A434D8806EA0515F8
:1012A0002A43154DA84202D0144DA8421DD14FF635
:1012B0007F752A404D894FF6FF7606EA05152A43C9
:1012C0004FF6BF752A408D8806EA05152A434FF66A
:1012D000FF352B404FF2FF752B408D8906EA8505BF
:1012E0002B43CD8906EA85052B4383800483CD8873
:1012F0000587028470BD0000002C014000340140CD
:101300000A460021018B4FF2FF7319404FF6FF731D
:1013100003EA0223194301837047000070B50024DB
:1013200000220023058C4FF6FF6635400584028CB1
:101330008388848B4FF68F752C404FF6FC752C40BC
:101340000D882C434FF6FF552A400D894FF6FF7646
:1013500006EA05252A434D8806EA05252A43154D48
:10136000A84202D0144DA8421DD14FF2FF752A4069
:101370004D894FF6FF7606EA05252A434FF6FF35DD
:101380002A408D8806EA05252A434EF6FF752B4034
:101390004DF6FF752B408D8906EA05152B43CD8947
:1013A00006EA05152B4383808483CD8885870284D4
:1013B00070BD0000002C0140003401400A460021AD
:1013C000818B4FF6F77319401143818370470000FA
:1013D00070B5002200230024058C4EF6FF763540C0
:1013E0000584038C8488828B48F6FF752A404FF66B
:1013F000FF452A400D884FF6FF7606EA05252A4369
:101400004DF6FF752B400D8906EA05352B434D88B7
:1014100006EA05352B430B4DA84202D00A4DA842DF
:1014200008D14BF6FF752C408D894FF6FF7606EA02
:1014300085152C4384808283CD88A0F84050038496
:1014400070BD0000002C0140003401400A4600211C
:10145000818B4FF2FF7319404FF6FF7303EA0223AB
:101460001943818370470021018041808180C180C0
:10147000018141818181C1817047818670470187E7
:10148000704781877047A0F840107047002202889B
:101490001D4B98420ED01D4B98420BD0B0F1804F9F
:1014A00008D01B4B984205D01A4B984202D01A4BD9
:1014B000984204D14FF68F731A404B881A43174B4A
:1014C000984207D0164B984204D04FF6FF431A407B
:1014D000CB881A4302808B8883850B8803850A4B4F
:1014E00098420BD0094B984208D00E4B984205D039
:1014F0000D4B984202D00D4B984201D10B7A0386D6
:101500000123838270470000002C01400034014019
:101510000004004000080040000C004000100040A3
:1015200000140040004001400044014000480140D8
:1015300010B5024800F0E5F810BD0000CC01002015
:1015400010B5024800F0DDF810BD0000F4090020DD
:1015500001F40072B2F5007F00D100BFCA430280DF
:10156000704721B1828942F40052828104E082896D
:101570004DF6FF731A408281704770B50246002411
:1015800000230025002040F66A16B14200D100BFBA
:10159000C1F3421501F01F03012606FA03F3012DE2
:1015A00002D19689334006E0022D02D1168A3340DB
:1015B00001E0968A33400C12012606FA04F41688DC
:1015C000344013B10CB1012000E0002070BDF0B533
:1015D0000346002400260025002040F66A17B94281
:1015E00000D100BF1846C1F3421401F01F060127C5
:1015F00007FA06F5012C01D10C3004E0022C01D1D0
:10160000103000E014301AB107682F43076002E081
:101610000768AF430760F0BD2DE9F04786B0054687
:101620000E460024A24600BFA1460027B08900B1A3
:1016300000BF2F462C8A4CF6FF700440F08804430C
:101640002C82AC894EF6F3100440B08831890843EF
:10165000718908430443AC81AC8A4FF6FF400440D3
:10166000B0890443AC8201A8FFF782FB1F48874280
:1016700002D1DDF810A001E0DDF80CA0A88900F48B
:10168000004040B10AEBCA0000EB0A103168490083
:10169000B0FBF1F807E00AEBCA0000EB0A10316872
:1016A0008900B0FBF1F86420B8FBF0F004012009D8
:1016B000642101FB1089A88900F4004040B1322068
:1016C00000EBC900B0FBF1F000F00700044308E0B4
:1016D000322000EB09106421B0FBF1F000F00F00A4
:1016E00004432C8106B0BDE8F087000000380140BB
:1016F00001468888C0F308007047C1F30802828061
:10170000704770B5044640F225512068FFF735FF59
:10171000E0B12068FFF7ECFFC5B2E18AA06845544C
:10172000E08A401C80B2E082E189884201DB00202F
:10173000E082608BE189884202DA608B401C608322
:10174000606A10B12846616A884700BF40F227717D
:101750002068FFF712FF08B3A08A60B9002240F2A8
:1017600027712068FFF733FF012240F226612068CD
:10177000FFF72DFF37E0638A6268D15C2068FFF7CE
:10178000BCFF608A401C80B26082A189884201DB74
:1017900000206082A08A401EA08224E040F22661E0
:1017A0002068FFF7EAFEF0B1A08A50B9002240F2AB
:1017B00026612068FFF70BFF206AA0B1206A8047EE
:1017C00011E0638A6268D15C2068FFF796FF608A47
:1017D000401C80B26082A189884201DB00206082C7
:1017E000A08A401EA08270BDF8B504460E4617467A
:1017F000002529E00EE0012000F08FF8A08A00907B
:10180000002000F08AF8A089BDF80010884200DDB1
:1018100001E000BFEFE700BF705D228A6168885475
:10182000012000F07AF8208A401C80B22082A18931
:10183000884201DB00202082A08A401CA082002078
:1018400000F06BF8681C85B2BD42D3DB012240F288
:1018500027712068FFF7BBFEF8BD00001548164948
:10186000086016484860164888604FF48060888198
:10187000C881002008824882C88208834883888201
:10188000C861086248620F480F4908600F48486005
:101890000F4888604FF480608881C88100200882EA
:1018A0004882C882088348838882C86108620948E0
:1018B0004862704700440040CC010020F401002041
:1018C000F405002000480040F40900201C0A002014
:1018D0001C0E0020450E000800BFFEE70FB4054BAC
:1018E00010B503A9044A029800F01AF810BC5DF87C
:1018F00014FB000087410008EC00002002E008C84B
:10190000121F08C1002AFAD170477047002001E079
:1019100001C1121F002AFBD1704780F31088704765
:101920002DE9FF4F8BB088460546002606E02528A6
:101930000BD0DDE90D1290476D1C761C287800282D
:10194000F5D10FB03046BDE8F08F0024A146A24685
:101950000122AE4900E0044315F8013F203B02FAA2
:1019600003F00842F7D128782A2810D06FF02F0210
:101970002878A0F13001092915D809EB890102EB7B
:10198000410144F0020400EB01096D1CF0E758F836
:10199000041B5FEA010903D544F40054C9F10009AE
:1019A00044F002046D1C28782E2817D115F8010F79
:1019B00044F004042A280ED06FF02F022878A0F1FA
:1019C000300109290AD80AEB8A0102EB410100EB38
:1019D000010A6D1CF2E758F804AB6D1C28786C28DE
:1019E0000FD006DC4C2817D068280DD06A2814D1F7
:1019F00004E0742810D07A280FD10DE044F40014CC
:101A00000AE044F4801401E044F44014697881420F
:101A100002D104F580146D1C6D1C2878692865D0EE
:101A200006DC00288DD0632827D0642806D15DE02D
:101A30006E2808D073282AD0752877D0DDE90D12DA
:101A40009047761CE0E0C4F30250022809D0032836
:101A50000DD0D8F8001004280DD00E6008F104084D
:101A6000D2E0D8F80010F217C1E90062F6E7D8F822
:101A700000100E80F2E70E70F0E718F8041B8DF8E6
:101A8000001000208DF80100EB46012003E058F81B
:101A900004BB4FF0FF3061074FF0000701D40AE0AC
:101AA0007F1C57450DDA8742FADB1BF80710002927
:101AB000F6D106E07F1C8742FCDB1BF807100029EB
:101AC000F8D1DDE90D23A9EB07008146214600F09E
:101AD000B1F83044C61904E0DDE90D121BF8010B22
:101AE00090477F1EF8D22146484688E058F8040BFC
:101AF000C4F302514FF00A0B032900D100B20429AC
:101B000000D140B2002802DA40422D2102E0210536
:101B100005D52B218DF82410012104E006E0E10712
:101B200010D02021F6E708AF089113E058F8040B15
:101B3000C4F302514FF00A0B032900D180B20429EB
:101B400000D1C0B20021EEE75946FEF70BFC303160
:101B500007F8011D0028F7D1ADEB070000F1200BBD
:101B6000600702D524F4803401E04FF0010ADA4521
:101B700002DDAAEB0B0000E00020824600EB0B0127
:101B800008980144A9EB01000A90E00306D4DDE9BE
:101B90000D2321460A9800F04DF806444FF0000945
:101BA00008E009A911F80900DDE90D12904709F1D3
:101BB0000109761C08998945F3DBE0030CD5DDE9C2
:101BC0000D2321460A9800F035F8064404E0DDE9CB
:101BD0000D1230209047761CBAF10001AAF1010ADB
:101BE000F5DC05E0DDE90D1217F8010B9047761CD6
:101BF000BBF10001ABF1010BF4DC0A982146DDE9F1
:101C00000D2300F005F806446D1C97E60928010035
:101C10002DE9F041044600251E461746880404D4E9
:101C200005E039462020B0476D1C641EF9D52846D2
:101C3000BDE8F0812DE9F041044600251E4690469E
:101C4000C80301D5302700E02027880404D505E02B
:101C500041463846B0476D1C641EF9D52846BDE89C
:101C6000F0812DE9F04105460E4617460024B046A6
:101C700000BF1FE002F0DEFAB62002F0B1FA02F077
:101C800003FB00B11BE008F0FF0002F0A9FA02F02C
:101C9000FBFA00B113E0285D02F0A2FA02F0F4FAB8
:101CA00000B10CE002F0DEFA08F101001FFA80F842
:101CB000601C84B2BC42DDDB0120BDE8F08102F093
:101CC000D1FA0020F9E700001CB501211748FEF702
:101CD000D3FD42F2107000210123154ACDE9001016
:101CE0005115144801F0A4FF42F2107000210223A4
:101CF0000F4ACDE90010D1140E4801F099FF42F2CD
:101D00001070002103230A4ACDE90010511409483C
:101D100001F08EFF42F2107000210423044ACDE945
:101D200000101903034801F083FF1CBDC00016001A
:101D3000002C01400018014000B587B001214FF48C
:101D40008260FEF7F5FF4FF40040FEF7D5FF10204C
:101D5000ADF8040000208DF8070001A91748FEF730
:101D600000FD1748FEF76AFB002002908DF80C007A
:101D70008DF80D004FF460200490002005900120A4
:101D80008DF8180002A90E48FEF7A8FB01210C48A7
:101D9000FEF748FB0A48FEF725FC00BF0848FEF79F
:101DA00092FB0028FAD10648FEF72CFC00BF04483D
:101DB000FEF772FB0028FAD107B000BD0010014009
:101DC0000028014070B504460D46072C24DC012D87
:101DD0000ED12046E11704EB5171C910A4EBC102EA
:101DE000012191401F4A127811431E4A11700DE0E3
:101DF0002046E11704EB5171C910A4EBC102012187
:101E00009140184A12788A4316490A700122022129
:101E10001448FFF726FF23E0012D0ED12046E117DD
:101E200004EB5171C910A4EBC102012191400E4A8B
:101E3000127811430C4A11700DE02046E11704EBB3
:101E40005171C910A4EBC10201219140064A1278D8
:101E50008A4305490A70012203210348FFF701FF65
:101E600070BD0000280000202900002070B508483F
:101E7000017A407A41EA002004B22046FEF75AFA7D
:101E800005460449FEF718FA0149486170BD000093
:101E9000140100200000C84223480179407941EA3A
:101EA000002000B2214908801F488179C07941EAA9
:101EB000002000B21D4948801B48017A407A41EA5F
:101EC000002000B2194988801748817AC07A41EA17
:101ED000002000B21549C8801348017B407B41EACD
:101EE000002000B2114908810F48807B40B28872FF
:101EF0000D48C17B007C41EA002000B20B4988817B
:101F00000846B0F90000B1F9021008440749B1F9D8
:101F1000041008440549B1F90610884201D0002098
:101F200070470120FCE70000140100202C01002074
:101F300010B50E48007800B910BD00200B4908709C
:101F4000084640880D2805D00846418808A0FFF7BC
:101F5000C5FC06E0FFF7A0FF00B902E0FFF786FF2F
:101F600000BF00200149488000BFE5E714010020C0
:101F7000CDD3C2DDD2C7CAFDBEDDB3A4B6C8B4EDB1
:101F8000CEF33A25640D0A0070B5044600200A49D4
:101F9000087040F22F15094A2946032002F030F854
:101FA000054840880D2806DA03494888411C024A42
:101FB0005180111D0C5470BD14010020F51F000844
:101FC00010B54FF400510A48FEF7A9FC0A2000F0B2
:101FD000A7F84FF400510648FEF79FFC0A2000F0D6
:101FE000A9F84FF400510248FEF799FC10BD00001B
:101FF000000C014010B5012002490870FFF798FF5E
:1020000010BD00001401002010B5B62002F0C4F885
:1020100008B9012010BD02F025F90020FAE7000000
:1020200010B5002420211148FEF76EFC08B144F0E1
:1020300001044FF480710E48FEF766FC08B144F0CD
:1020400002040CB9032010BD012C01D10020FAE7D5
:10205000022C01D10120F6E7032C01D10220F2E786
:1020600004A0FFF73BFC0320EDE70000000801405F
:10207000001C0140B2BBBACFC0EDB5C4C5F6D7B2A3
:10208000BDE1B9FB0D0A0000F8B505460C4628462F
:1020900001F01AF906460121FEF74AFEADF80040AC
:1020A00010208DF8030003208DF8020069462846B1
:1020B000FEF757FBF8BD00002DE9F84306460D4634
:1020C00014469846304601F0FFF807460121FEF716
:1020D0002FFE1148844202D01048844207D1204686
:1020E00001F026F907460121FEF722FE06E0204610
:1020F00001F01EF907460121FEF70AFEADF8005077
:1021000018208DF8030003208DF802006946304640
:10211000FEF727FBBDE8F883002C014000340140A6
:1021200010B504464FF47A7104FB01F000F002F898
:1021300010BD000030B5084C63680021074C2468CE
:10214000074DB4FBF5F404FB00F202E0024C6468B6
:10215000E11A9142FAD330BD001000E07400002073
:1021600040420F0070B5FE48007800B970BDFC48D1
:10217000407815282DD2DFE810F015002D00C90099
:10218000E7008301A1014902670203032103BD03A4
:10219000DB038304A1043D055B0501061F06AE06B3
:1021A000CC065B07EE48007A0A2190FBF1F201FBB6
:1021B0001200EC4901EB4000447800212046FFF773
:1021C00001FE02F0A3FFE649486008464078401C43
:1021D00048708EE302F09AFFE1494968401A0328EB
:1021E0007BD3DF48007A0A2190FBF1F201FB120059
:1021F000DC4911F8104000212046FFF7E3FD78206C
:10220000FFF798FF01F022F8D549097A0A2291FBDD
:10221000F2F302FB1311D44A42F83100D048007A9D
:102220000A2190FBF1F201FB1200CE4911F8104097
:1022300001212046FFF7C6FD1420FFF77BFF01F0C8
:1022400005F8C749097A0A2291FBF2F302FB131140
:10225000C54A02EBC1014860C148007A0A2190FBDF
:10226000F1F201FB1200BF4901EB4000447801216B
:102270002046FFF7A7FDBA494D7805EBD571491007
:10228000B94A02EBC10148684FF07E51FEF760F891
:1022900001D8002007E0B248447804EBD470401025
:1022A000B14951F83000AE49097A0A2291FBF2F3A4
:1022B00002FB1311AD4A42F82100A9494C7804EB06
:1022C000D4714910A84A02EBC10148684FF07E5111
:1022D000FEF73EF802D8012001E016E00020A049F8
:1022E000097A0A2291FBF2F302FB1311A04A50541F
:1022F0009B48007A401C9A49087202F007FF9849EF
:10230000486008464078401C487062E702F0FEFED4
:1023100093494968401A16D09148007A0A2190FBE7
:10232000F1F201FB12008F4901EB400044780021DB
:102330002046FFF747FD02F0E9FE8949486008465C
:102340004078401C487044E702F0E0FE8449496848
:10235000401A03287BD38248007A0A2190FBF1F2CD
:1023600001FB12007F4911F8104000212046FFF7C1
:1023700029FD7820FFF7DEFE00F068FF7849097A32
:102380000A2291FBF2F302FB1311774A42F8310063
:102390007348007A0A2190FBF1F201FB12007149A7
:1023A00011F8104001212046FFF70CFD1420FFF723
:1023B000C1FE00F04BFF6A49097A0A2291FBF2F351
:1023C00002FB1311684A02EBC10148606448007ABD
:1023D0000A2190FBF1F201FB1200624901EB40007F
:1023E000447801212046FFF7EDFC5D494D7805EB6F
:1023F000D57149105C4A02EBC10148684FF07E512B
:10240000FDF7A6FF01D8002007E05548447804EB0B
:10241000D4704010544951F830005149097A0A22C9
:1024200091FBF2F302FB1311504A42F821004C4990
:102430004C7804EBD47149104B4A02EBC101486857
:102440004FF07E51FDF784FF02D8012001E016E035
:1024500000204349097A0A2291FBF2F302FB13118F
:10246000434A50543E48007A401C3D49087202F0ED
:102470004DFE3B49486008464078401C4870A8E63D
:1024800002F044FE36494968401A16D03448007AB2
:102490000A2190FBF1F201FB1200324901EB4000EE
:1024A000447800212046FFF78DFC02F02FFE2C49D6
:1024B000486008464078401C48708AE602F026FED4
:1024C00027494968401A03287DD32548007A0A2104
:1024D00090FBF1F201FB1200224911F8104000219B
:1024E0002046FFF76FFC7820FFF724FE00F0AEFED9
:1024F0001B49097A0A2291FBF2F302FB13111A4AD3
:1025000042F831001648007A0A2190FBF1F201FBF3
:102510001200144911F8104001212046FFF752FC27
:102520001420FFF707FE00F091FE0D49097A0A22F8
:1025300091FBF2F302FB13110B4A02EBC10148605D
:102540000748007A0A2190FBF1F201FB12000549CD
:1025500001EB4000447801212046FFF733FC09E0FD
:102560003C0100202C0000204801002098010020A0
:10257000C0010020FE494D7805EBD5714910FD4A98
:1025800002EBC10148684FF07E51FDF7E1FE01D832
:10259000002007E0F648447804EBD4704010F54979
:1025A00051F83000F249097A0A2291FBF2F302FB5A
:1025B0001311F14A42F82100ED494C7804EBD47133
:1025C0004910EC4A00E020E002EBC10148684FF0FE
:1025D0007E51FDF7BDFE01D8012000E00020E44956
:1025E000097A0A2291FBF2F302FB1311E34A5054D9
:1025F000DF48007A401CDE49087202F087FDDC49A2
:10260000486008464078401C4870E2E502F07EFDD4
:10261000D7494968401A16D0D548007A0A2190FB5C
:10262000F1F201FB1200D64901EB40004478002191
:102630002046FFF7C7FB02F069FDCD494860084618
:102640004078401C4870C4E502F060FDC849496804
:10265000401A03287BD3C648007A0A2190FBF1F286
:1026600001FB1200C64911F8104000212046FFF777
:10267000A9FB7820FFF75EFD00F0E8FDBC49097A70
:102680000A2291FBF2F302FB1311BA4A42F831001D
:10269000B748007A0A2190FBF1F201FB1200B84919
:1026A00011F8104001212046FFF78CFB1420FFF7A2
:1026B00041FD00F0CBFDAE49097A0A2291FBF2F30D
:1026C00002FB1311AB4A02EBC1014860A848007A33
:1026D0000A2190FBF1F201FB1200A94901EB400035
:1026E000447801212046FFF76DFBA1494D7805EBA9
:1026F000D57149109F4A02EBC10148684FF07E51E5
:10270000FDF726FE01D8002007E09948447804EB45
:10271000D4704010974951F830009549097A0A223F
:1027200091FBF2F302FB1311934A42F82100904906
:102730004C7804EBD47149108E4A02EBC101486811
:102740004FF07E51FDF704FE02D8012001E016E0B3
:1027500000208749097A0A2291FBF2F302FB131148
:10276000864A50548248007A401C8149087202F01F
:10277000CDFC7F49486008464078401C487028E5F9
:1027800002F0C4FC7A494968401A16D07848007AA9
:102790000A2190FBF1F201FB1200794901EB4000A4
:1027A000447800212046FFF70DFB02F0AFFC704992
:1027B000486008464078401C48700AE502F0A6FCD4
:1027C0006B494968401A03287BD36948007A0A217B
:1027D00090FBF1F201FB1200694911F81040002151
:1027E0002046FFF7EFFA7820FFF7A4FC00F02EFD5B
:1027F0005F49097A0A2291FBF2F302FB13115D4A49
:1028000042F831005A48007A0A2190FBF1F201FBAC
:1028100012005B4911F8104001212046FFF7D2FA5F
:102820001420FFF787FC00F011FD5149097A0A22B4
:1028300091FBF2F302FB13114E4A02EBC101486017
:102840004B48007A0A2190FBF1F201FB12004C493F
:1028500001EB4000447801212046FFF7B3FA4449D8
:102860004D7805EBD5714910424A02EBC101486829
:102870004FF07E51FDF76CFD01D8002007E03C4889
:10288000447804EBD47040103A4951F8300038498C
:10289000097A0A2291FBF2F302FB1311364A42F83D
:1028A000210033494C7804EBD4714910314A02EBD2
:1028B000C10148684FF07E51FDF74AFD02D8012062
:1028C00001E016E000202A49097A0A2291FBF2F37E
:1028D00002FB1311294A50542548007A401C244910
:1028E000087202F013FC2249486008464078401CF8
:1028F0004870A8E302F00AFC1D494968401A16D046
:102900001B48007A0A2190FBF1F201FB12001C49DE
:1029100001EB4000447800212046FFF753FA02F013
:10292000F5FB1349486008464078401C48708AE32C
:1029300002F0ECFB0E494968401A03287DD30C488D
:10294000007A0A2190FBF1F201FB12000C4911F808
:10295000104000212046FFF735FA7820FFF7EAFB08
:1029600000F074FC0249097A0A2291FBF2F309E0B3
:102970003C0100204801002098010020C0010020F7
:102980002C00002002FB1311F74A42F83100F748EF
:10299000007A0A2190FBF1F201FB1200F44911F8D0
:1029A000104001212046FFF70DFA1420FFF7C2FB6B
:1029B00000F04CFCED49097A0A2291FBF2F302FB8C
:1029C0001311E94A02EBC1014860E848007A0A2184
:1029D00090FBF1F201FB1200E54901EB4000447865
:1029E00001212046FFF7EEF9E0494D7805EBD5715E
:1029F0004910DD4A02EBC10148684FF07E51FDF7F6
:102A0000A7FC01D8002007E0D848447804EBD47034
:102A10004010D54951F83000D449097A0A2291FB77
:102A2000F2F302FB1311D34A42F82100CF494C784C
:102A300004EBD4714910CC4A00E020E002EBC10164
:102A400048684FF07E51FDF783FC01D8012000E07B
:102A50000020C649097A0A2291FBF2F302FB131106
:102A6000C54A5054C148007A401CC049087202F05F
:102A70004DFBBE49486008464078401C4870E2E281
:102A800002F044FBB9494968401A16D0B748007AA9
:102A90000A2190FBF1F201FB1200B54901EB400065
:102AA000447800212046FFF78DF902F02FFBAF4953
:102AB000486008464078401C4870C4E202F026FB9B
:102AC000AA494968401A03287BD3A848007A0A21FA
:102AD00090FBF1F201FB1200A54911F81040002112
:102AE0002046FFF76FF97820FFF724FB00F0AEFBDC
:102AF0009E49097A0A2291FBF2F302FB13119A4ACA
:102B000042F831009948007A0A2190FBF1F201FB6A
:102B10001200974911F8104001212046FFF752F9A1
:102B20001420FFF707FB00F091FB9049097A0A2275
:102B300091FBF2F302FB13118B4A02EBC1014860D7
:102B40008A48007A0A2190FBF1F201FB12008849C1
:102B500001EB4000447801212046FFF733F9834917
:102B60004D7805EBD57149107F4A02EBC1014868E9
:102B70004FF07E51FDF7ECFB01D8002007E07B48C9
:102B8000447804EBD4704010774951F8300077490D
:102B9000097A0A2291FBF2F302FB1311754A42F8FB
:102BA000210072494C7804EBD47149106E4A02EB53
:102BB000C10148684FF07E51FDF7CAFB02D80120E1
:102BC00001E016E000206949097A0A2291FBF2F33C
:102BD00002FB1311684A50546448007A401C634950
:102BE000087202F093FA6149486008464078401C38
:102BF000487028E202F08AFA5C494968401A16D007
:102C00005A48007A0A2190FBF1F201FB1200584960
:102C100001EB4000447800212046FFF7D3F802F092
:102C200075FA5249486008464078401C48700AE2EC
:102C300002F06CFA4D494968401A03287BD34B488F
:102C4000007A0A2190FBF1F201FB1200484911F8C9
:102C5000104000212046FFF7B5F87820FFF76AFA08
:102C600000F0F4FA4149097A0A2291FBF2F302FBDF
:102C700013113D4A42F831003C48007A0A2190FB8A
:102C8000F1F201FB12003A4911F8104001212046EF
:102C9000FFF798F81420FFF74DFA00F0D7FA334900
:102CA000097A0A2291FBF2F302FB13112E4A02EB7E
:102CB000C10148602D48007A0A2190FBF1F201FB26
:102CC00012002B4901EB4000447801212046FFF718
:102CD00079F826494D7805EBD5714910224A02EB67
:102CE000C10148684FF07E51FDF732FB01D800204A
:102CF00007E01E48447804EBD47040101A4951F89C
:102D000030001A49097A0A2291FBF2F302FB1311EF
:102D1000184A42F8210015494C7804EBD471491047
:102D2000114A02EBC10148684FF07E51FDF710FBDC
:102D300002D8012001E016E000200C49097A0A229D
:102D400091FBF2F302FB13110B4A50540748007A2F
:102D5000401C0649087202F0D9F904494860084647
:102D60004078401C48706EE1480100203C01002082
:102D70002C00002098010020C001002002F0C6F9BC
:102D8000B3494968401A16D0B148007A0A2190FB2D
:102D9000F1F201FB1200AF4901EB40004478002141
:102DA0002046FFF70FF802F0B1F9A949486008463C
:102DB0004078401C487046E102F0A8F9A4494968EF
:102DC000401A03287DD37820FFF7B4F900F03EFACB
:102DD0009F49097A0A2291FBF2F302FB13119E4AE2
:102DE00042F831009A48007A0A2190FBF1F201FB87
:102DF0001200984911F8104001212046FEF7E2FF29
:102E00001420FFF797F900F021FA9149097A0A2274
:102E100091FBF2F302FB13118F4A02EBC1014860F0
:102E20008B48007A0A2190FBF1F201FB12008949DC
:102E300001EB4000447801212046FEF7C3FF84499E
:102E40004D7805EBD5714910834A02EBC101486802
:102E50004FF07E51FDF77CFA01D8002007E07C4856
:102E6000447804EBD47040107B4951F83000784925
:102E7000097A0A2291FBF2F302FB1311774A42F816
:102E8000210073494C7804EBD4714910724A02EB6B
:102E9000C10148684FF07E51FDF75AFA01D8012070
:102EA00000E000206A49097A0A2291FBF2F302FB52
:102EB00013116B4A50546648007A401C64490872EA
:102EC00000E007E002F022F96149486008464078D6
:102ED000401C4870B7E002F019F95D494968401A92
:102EE00016D05B48007A0A2190FBF1F201FB120038
:102EF000584901EB4000447800212046FEF762FF6C
:102F000002F004F95249486008464078401C487075
:102F100099E002F0FBF84E494968401A03287DD336
:102F20007820FFF707F900F091F94949097A0A2258
:102F300091FBF2F302FB1311474A42F83100444877
:102F4000007A0A2190FBF1F201FB1200414911F8CD
:102F5000104001212046FEF735FF1420FFF7EAF864
:102F600000F074F93A49097A0A2291FBF2F302FB64
:102F70001311394A02EBC10148603548007A0A2131
:102F800090FBF1F201FB1200324901EB4000447862
:102F900001212046FEF716FF2D494D7805EBD5712E
:102FA00049102D4A02EBC10148684FF07E51FDF7F0
:102FB000CFF901D8002007E02548447804EBD4700D
:102FC0004010254951F830002149097A0A2291FB25
:102FD000F2F302FB1311214A42F821001C494C78FC
:102FE00004EBD47149101C4A02EBC10148684FF050
:102FF0007E51FDF7ADF901D8012000E00020144911
:10300000097A0A2291FBF2F302FB1311144A50547D
:103010000F48007A401C0E49087200E007E002F0F9
:1030200075F80B49486008464078401C48700AE033
:1030300002F06CF806494968401A03D000200449A0
:103040004870087200BF00BF00BFFFF78FB80000D4
:103050003C0100202C0000204801002098010020A5
:10306000C001002010B5002400BF1BE00F4951F83B
:1030700024004FF07E51FDF76BF911D80C48007811
:1030800070B941F270720021084600F055FD41F21E
:1030900070720021012000F04FFD012004490870EA
:1030A000601CC4B2072CE1DD10BD000098010020B7
:1030B00040000020002004494870486048810872A0
:1030C00001200870704700003C01002010B54A48FC
:1030D0004078022848D003DC38B1012830D130E0F4
:1030E000032854D00A28F9D164E0FEF799FF04467A
:1030F0005CB900F0F1FF002000F08AFC012000F034
:1031000087FC02203C4948701AE0012C0BD100F0EA
:10311000E3FF002000F07CFC012000F079FC03209C
:10312000354948700CE0022C0AD100F0D5FF002090
:1031300000F06EFC012000F06BFC01202E4948706D
:1031400058E041F270720121002000F0F5FC41F2DC
:1031500070720121084600F0EFFC01F0D7FF26490C
:1031600048600A20487045E041F27C52012100206D
:1031700000F0E2FC41F664120121084600F0DCFC9C
:1031800001F0C4FF1C4948600A20487032E041F653
:1031900064120121002000F0CFFC41F27C52012199
:1031A000084600F0C9FC01F0B1FF134948600A204D
:1031B00048701FE001F0AAFF0F494968401AB0F5B6
:1031C0007A7F16D3002000F023FC012000F020FCC1
:1031D00041F658320021084600F0AEFC41F6583264
:1031E0000021012000F0A8FC0020044908700249D9
:1031F000487000BF00BF10BD480000204000002004
:103200002DE9F04104460E4951F82400FDF79BF8E2
:1032100007464FF08741FDF74FF806460949FDF78D
:1032200019F805460849FDF747F80549083141F8FE
:1032300024000021024840F82410BDE8F08100007D
:10324000040100204CE95B43CDCCCC3D2DE9F84F87
:1032500000250326002700BF17E0072301220E21C7
:103260001748FDF763F901211548FDF7C0F900BFC4
:1032700002211348FDF71EF90028F9D01048FDF788
:1032800015F904462744681CC5B2B542E5DB304653
:10329000FDF759F883463846FDF755F85946009032
:1032A000FDF70AF882460749FCF7D4FF81464FF044
:1032B0008B41FDF701F880464046BDE8F88F0000DD
:1032C000002801403333534001460020114A914207
:1032D00001D104201CE0104A914201D1082017E0DE
:1032E0000E4A914201D1102012E00D4A914201D1C3
:1032F00020200DE00B4A914201D1402008E00A4A0B
:10330000914201D1802003E0084A914200D1881502
:103310007047000000080140000C0140001001400F
:103320000014014000180140001C01400020014031
:1033300001460020244A914201D1C81442E0234AA8
:10334000914201D148143DE0214A914202D14FF40B
:10335000002037E01F4A914202D14FF4801031E043
:103360001D4A914202D14FF400102BE0B1F1804F81
:1033700001D1012026E0194A914201D1022021E029
:10338000174A914201D104201CE0164A914201D112
:10339000082017E0144A914201D1102012E0134A8C
:1033A000914201D120200DE0114A914201D14020EB
:1033B00008E0104A914201D1802003E00E4A914278
:1033C00000D1881570470000002C014000340140F6
:1033D000004C0140005001400054014000040040F6
:1033E00000080040000C00400010004000140040A5
:1033F00000180040001C00400020004070B5054649
:103400000C4645F25550FDF7D9FA2846FDF7CAFAA1
:103410002046FDF7CDFAFDF7BDFAFDF7B3FA70BD12
:1034200010B5FDF7B7FA10BD10B54FF44070FDF7B9
:1034300059FC00F087F800F049F800F00DFA00F0B0
:103440009DFA00F06DFA00F0D1F900F02AF900F0D1
:10345000CDF800F073F800F097F800F04FF800BFD7
:1034600000F026F804462CB907A0FEF737FA6420CE
:10347000FEF756FE002CF3D000F078F800F00AF9C1
:1034800007A0FEF72BFA10BD4157393532334220E1
:10349000496E6974204572726F720D0A0000000057
:1034A000B3F5CABCBBAFCDEAB1CF0D0A0000000036
:1034B00010B500F0E7F900F0CFF8FEF7A5FD08B968
:1034C000002010BD00F008FA0120FAE708B501213C
:1034D0000820FDF72DFC03208DF8020014208DF844
:1034E00003004FF40050ADF8000069460248FDF7B4
:1034F00038F9FEF765FD08BD000C014008B5012153
:103500008420FDF715FC03208DF8020048208DF87B
:1035100003002020ADF8000069460648FDF721F9B8
:103520004FF48070ADF8000069460348FDF719F9C3
:1035300008BD000000080140001C014010B5FEF766
:10354000C3FB10BD0748006840F080700549086063
:103550000020054948600846006840F00100086006
:1035600070470000FCED00E0001000E010B5FEF731
:10357000E3FB0020034908704870486048810872E6
:1035800010BD00003C01002010B500F003F800F071
:1035900021F810BD08B501214420FDF7C9FB4820E2
:1035A0008DF8030003208DF802004FF40040ADF8C1
:1035B000000069460548FDF7D4F80820ADF8000082
:1035C00069460348FDF7CDF808BD0000000801403A
:1035D0000018014010B50023012242F21071024888
:1035E00000F008FC10BD0000001400407FB5012170
:1035F0000820FDF78DFB1548006846081448B6FB07
:10360000F0F085B24FF6FF74ADF80840ADF8045005
:103610000020ADF80A00ADF8060001A90D48FDF73D
:1036200035FF01210B48FDF78AFD32208DF800009F
:1036300004208DF8010000208DF8020001208DF893
:1036400003006846FDF716FB7FBD000074000020F4
:1036500040420F00000C004008B501210420FDF796
:1036600067FB03208DF8020014208DF80300102062
:10367000ADF8000069460648FDF773F80220ADF882
:10368000000069460248FDF76CF800F0EBFD08BD4C
:103690000008014010B540F271210420FFF7AEFE92
:1036A00010BD10B500F04CF800F002F810BD00009D
:1036B00008B50121C420FDF73BFB03208DF8020073
:1036C00048208DF803008020ADF8000069461B48B3
:1036D000FDF747F84FF48070ADF8000069461748D1
:1036E000FDF73FF84FF48060ADF8000069461348DD
:1036F000FDF737F88020ADF8000069460F48FDF768
:1037000030F88020ADF8000069460C48FDF729F834
:103710008020ADF8000069460848FDF722F88020B7
:10372000ADF8000069460548FDF71BF88020ADF8AC
:10373000000069460148FDF714F808BD0018014073
:1037400000211E4A9172D1721173002018E0642189
:103750001B4A02EB001211810221194A02EB0012EE
:1037600011710021164A02EB00129172144A02EB09
:103770000012D172124A02EB00121173411CC8B23E
:103780000A28E4DB64210E4A11810021D1720D491F
:1037900011600D4911610D4911620D4911630D4907
:1037A00011640D4911650D4911660D4911670D49E7
:1037B000C2F880100C49C2F890107047BC1200206B
:1037C0001C120020190B0008710B00089D0B00084B
:1037D000C90B0008E10B0008F90B0008110C0008E8
:1037E000290C0008410C0008450B000808B5012110
:1037F0002020FDF79DFA012000F0C8F8022000F01B
:10380000C5F8032000F0C2F8042000F0BFF8032040
:103810008DF8020010208DF803000120ADF80000A3
:1038200069460C48FCF79DFF0220ADF80000694690
:103830000848FCF796FF0420ADF8000069460548EB
:10384000FCF78FFF0120ADF8000069460148FCF746
:1038500088FF08BD0014014008B501210802FDF7EA
:1038600067FA03208DF8020010208DF80300022073
:10387000ADF8000069460248FCF773FF08BD000080
:103880000020014008B501218020FDF751FA0320F6
:103890008DF8020010208DF80300C001ADF8000083
:1038A00069460C48FCF75DFF4FF400610948FDF7DD
:1038B00036F80220FEF734FC4FF400610548FDF7AE
:1038C0002CF82820FEF736FC4FF400610148FDF784
:1038D00026F808BD001C014008B5002000900090AB
:1038E000012204216846FEF7BCF900200090012265
:1038F00005216846FEF7B5F910200090012211213C
:103900006846FEF7AEF9FF200090012202216846CA
:10391000FEF7A7F9012203216846FEF7A2F908BDC8
:1039200008B50121C020FDF703FA002000F0DCFB00
:10393000012000F0D9FB03208DF8020010208DF843
:103940000300C002ADF8000069460A48FCF709FF11
:1039500014208DF803000120ADF8000069460648E8
:10396000FCF7FFFE002000F0D7FB012000F0D4FBA5
:1039700008BD000000180140001C014010B5FDF713
:103980006DFFFDF721F8FCF7CBFE10BD411EC8B25C
:1039900018B901210A4A116010E0012803D102215F
:1039A000074A11600AE0022803D10421044A116089
:1039B00004E0032802D10121014A11607047000090
:1039C00010140140012806D11049096881F0010155
:1039D0000E4A116019E0022806D10C49096881F0ED
:1039E00002010A4A116010E0032806D1074909685C
:1039F00081F00401054A116007E0042805D103495C
:103A0000096881F00101014A116070470C140140FE
:103A10001CB5044614B1012C34D119E000201A4918
:103A2000087042F2107000210323184ACDE90010FB
:103A30005114174800F0FCF842F2107000210423E2
:103A4000124ACDE900101903114800F0F1F819E00D
:103A500000200D49087242F21070002101230B4A28
:103A6000CDE9001051150A4800F0E2F842F210705A
:103A700000210223054ACDE90010D114044800F0CA
:103A8000D7F800BF00BF1CBDF0000020002C014093
:103A90000018014010B52748007800B910BD25482E
:103AA000407820B1012817D002283FD131E041F2FF
:103AB00070720021084600F03FF841F27072002158
:103AC000012000F039F801F021FB1A49486008464E
:103AD0004078401C487029E001F018FB15494968FE
:103AE000401AB0F57A7F13D341F6583200210846C8
:103AF00000F022F841F658320021012000F01CF8B5
:103B000001F004FB0B49486008464078401C4870AF
:103B10000CE001F0FBFA07494968401AB0F57A7FDA
:103B200003D3002003490870487000BF00BF00BFE6
:103B3000B4E70000200000207CB506460D46144680
:103B400042F21070844203DD31A0FDF7C7FE7CBD58
:103B500016B1012E59D12BE00120324908709DB9D0
:103B6000002000900323304A511401902F4800F0A8
:103B70005FF847F2305004232B4A1903CDE90004C3
:103B80002A4800F055F812E0002000900423264A4D
:103B900019030190254800F04BF847F230500323F9
:103BA000214A5114CDE90004204800F041F82CE0EE
:103BB00001201C490872012D13D10020009001231F
:103BC000194A51150190194800F032F847F2305067
:103BD0000223154AD114CDE90004144800F028F856
:103BE00012E00020009002230F4AD11401900F48E8
:103BF00000F01EF847F2305001230B4A5115CDE971
:103C000000040A4800F014F800BF00BF00BF9EE7A0
:103C100050574DD6B5B3ACB9FDC1CB4D41585057F7
:103C20004D0D0A00F0000020002C0140001801405A
:103C30002DE9FF4F87B0834614461D46DDE9146A1F
:103C4000BAF1000F0FD100212046FDF778FA58464F
:103C50000899FEF719FA002258460899FCF761FE08
:103C60000BB0BDE8F08F42F2107082450DD10021FB
:103C70002046FDF764FA58460899FEF705FA012236
:103C800058460899FCF74DFEEAE72B46224658466F
:103C90000899FEF711FA514884420BD050488442EB
:103CA00008D05048844205D04F48844202D04F4843
:103CB000844203D14E48D0F8008002E04C48D0F84E
:103CC0000080642E0AD242F20F7942F21070B8FBE3
:103CD000F0F0B0FBF6F0401E87B213E040F6B830CB
:103CE000864209D24FF063096420B8FBF0F0B0FBC4
:103CF000F6F0401E87B205E04FF00009B8FBF6F081
:103D0000401E87B2ADF81470ADF810900020ADF8E9
:103D10001600ADF812008DF8180004A92046FDF732
:103D2000B5FB6846FDF79FFB6020ADF80000012061
:103D3000ADF802000AFB07F042F21071B0FBF1F09F
:103D400080B2ADF806000020ADF80800ADF8040020
:103D5000ADF80A00ADF80C00ADF80E00012D08D149
:103D600069462046FDF724FA08212046FDF76CFA43
:103D70001FE0022D08D169462046FDF76FFA0821A1
:103D80002046FDF7BDFA14E0032D08D16946204610
:103D9000FDF7C4FA08212046FDF710FB09E0042DC9
:103DA00007D169462046FDF713FB08212046FDF7A1
:103DB0004DFB01212046FDF7B3F901212046FDF717
:103DC000BEF90648844202D00548844203D101214D
:103DD0002046FDF7C0F900BF42E70000002C01407B
:103DE00000340140004C01400050014000540140AB
:103DF000740000202DE9FF5F04460D4691469A4667
:103E00007448844202D07448844207D12046FFF7A8
:103E10008FFA83460121FCF78BFF06E02046FFF76F
:103E200087FA83460121FCF773FF002D41D1002161
:103E30002046FDF784F9AB466648844202D14FF034
:103E4000190B28E0B4F1804F02D14FF01C0B22E097
:103E50006248844202D14FF01D0B1CE0604884424E
:103E600002D14FF01E0B16E05E48844202D14FF0A3
:103E7000320B10E05C48844202D14FF0360B0AE06E
:103E80005A48844202D14FF0370B04E05248844232
:103E900001D14FF02C0B8DF800B08DF801908DF80A
:103EA00002A000208DF803006846FCF7E3FEBDE8A1
:103EB000FF9F484884420BD04748844208D04C4872
:103EC000844205D04B48844202D04B48844202D100
:103ED0004A48066801E049480668642D0AD242F261
:103EE0000F7842F21070B6FBF0F0B0FBF5F0401E18
:103EF00087B213E040F6B830854209D24FF063082C
:103F00006420B6FBF0F0B0FBF5F0401E87B205E090
:103F10004FF00008B6FBF5F0401E87B2ADF8087010
:103F2000ADF804800020ADF80A00ADF806008DF869
:103F30000C0001A92046FDF7A9FA01212046FDF752
:103F4000EFF8012211462046FDF728F9012120460D
:103F5000FDF7F5F84FF0000B1E48844202D14FF0F8
:103F6000190B28E0B4F1804F02D14FF01C0B22E076
:103F70001A48844202D14FF01D0B1CE018488442BD
:103F800002D14FF01E0B16E01648844202D14FF0CA
:103F9000320B10E01448844202D14FF0360B0AE095
:103FA0001248844202D14FF0370B04E00A488442A1
:103FB00001D14FF02C0B8DF800B08DF801908DF8E9
:103FC00002A001208DF803006846FCF753FE00BFF5
:103FD0006DE70000002C0140003401400004004067
:103FE00000080040000C0040001000400014004099
:103FF000004C01400050014000540140740000207A
:104000002DE9F04104460F461546052F00D37F1FCA
:104010002848FDF7AFF8804608EB0706012C0FD1C2
:1040200025480560B1B22348FDF727FA022121484F
:10403000FDF782F8012202211E48FDF7AFF837E0B4
:10404000022C0FD11D480560B1B21A48FDF717FACE
:1040500004211848FDF770F8012204211548FDF7E6
:104060009DF825E0032C0FD115480560B1B2114829
:10407000FDF707FA08210F48FDF75EF80122082135
:104080000C48FDF78BF813E0042C0FD10D480560A8
:10409000B1B20848FDF7F7F910210648FDF74CF8D2
:1040A000012210210348FDF779F801E0BDE8F08115
:1040B00000BFFBE7000C004050000020540000202F
:1040C000580000205C0000200020024948700120B8
:1040D00008707047200000200020024908704870D6
:1040E000704700002000002010B5044614B1012CD8
:1040F0000BD105E04FF400410548FCF70EFC05E04C
:1041000001210448FCF70BFC00E000BF00BF10BD1C
:1041100000180140001C014010B5044614B1012CE8
:104120000BD105E04FF400410548FCF7F8FB05E032
:1041300001210448FCF7F1FB00E000BF00BF10BD07
:1041400000180140001C01402DE9F04105460E46D3
:1041500017462846FCF7CAFA04460CB9BDE8F081B8
:10416000E06908B1E06980473A4631462046FDF7EC
:104170003BFB00BFF2E713B50446012201A920462C
:10418000FFF7E2FF1CBD70B504460D46E1B2012009
:10419000FFF7F1FF204670BD70B504460B4800687C
:1041A00000F0020080B10948006800F0100058B12A
:1041B00000F040F8204600F013F800F065F80546DE
:1041C00000F050F8284670BD0120FCE708080140C7
:1041D000002001E0411CC8B20428FBDB704700004E
:1041E00070B50446002520E004F0800018B10220DC
:1041F0000F49086003E002200D49091D0860FFF720
:10420000E7FF10200A490860FFF7E2FF1020084985
:10421000091D0860072D02D10220091F08606006F1
:10422000040EFFF7D5FF681CC5B2082DDCDB70BD9E
:104230001008014010B502200949086010200860EC
:10424000FFF7C6FF02200649091D0860FFF7C0FFFF
:1042500010200349091D0860FFF7BAFF10BD0000D8
:104260001008014010B50220064908601020091FFF
:104270000860FFF7ADFF02200249091F0860FFF741
:10428000A7FF10BD1408014010B502200C490860BA
:10429000FFF79EFF10200A490860FFF799FF0848C2
:1042A0000838006800F0020008B1012400E0002492
:1042B00010200349091D0860FFF78AFF204610BD42
:1042C00010080140012080F3108800BFFFF7ACF810
:1042D00000F09EFBFCF7A6F9FCF79AF900F08AFCC7
:1042E00000BFFEE710B504460E48006844600E4863
:1042F0000068844207D20B480168091D0B4800681A
:1043000000F0D6FA0CE007480168091D084800686B
:1043100000F0CEFA07480068844201D205480460E4
:1043200010BD0000880000209C00002090000020AC
:104330008C000020B80000202DE9F04105460F4612
:104340001FB9A80000F0F6F900E03846064656B15D
:10435000602000F0EFF904460CB1266304E030461B
:1043600000F004FB00E0002424B1A900A522206B8A
:10437000FBF75EFF2046BDE8F081000070B523E04A
:1043800000F06CFC1348006808B9012000E0002030
:10439000054600F0FBFFBDB900F0B0FA0D48C0685B
:1043A000C468201D00F060FA0B480068401E0A49EE
:1043B00008600A480068401E0849086000F0C0FA1A
:1043C000204600F04DF800BF044800680028D7D10F
:1043D00070BD00006C1300209800002094000020A5
:1043E0002DE9F04104460E4615460027206C40B9E1
:1043F000206878BB606800F02DFF074600206060F1
:1044000028E07DB93146226CA068FBF7FFFE216CE5
:10441000A0680844A060D4E9011088421AD320683B
:10442000A06017E03146226CE068FBF7EFFE216CDC
:10443000E068401AE0602168E068884203D2216C9D
:104440006068401AE060022D04D1A06B10B1A06B2F
:10445000401EA063A06B401CA0633846BDE8F081FD
:1044600010B50446206B00F081FA204600F07EFA79
:1044700010BD000030B54FF48843174800F0070422
:104480002CB1C01D20F00700134C041B1B1B02465F
:10449000124C22600024114D6C60D018083820F0B6
:1044A00007000F4C206000240D4D2D686C600C4DF2
:1044B0002D682C601146441A4C60094C24680C602D
:1044C000084D4C682C60084D4C682C604FF000443F
:1044D000064D2C6030BD000094130020D400002055
:1044E000DC000020E4000020E0000020E8000020C4
:1044F00000BFFFF743FF034800680128F9D900F027
:104500007BFAF6E7CC1200202DE9F04704460F466F
:1045100015469946DDF82080002607E0B95D04F1D4
:1045200034008155B85D00B902E0761C102EF5D339
:1045300000BF002143200155052D00D30425E5626D
:10454000E56400202065201D00F0AFF904F118009B
:1045500000F0ABF92461C5F10500A06164620020A0
:104560006065A06584F85C00BDE8F08710B50024A4
:1045700007E004EB84010F4A02EB810000F088F9A8
:10458000641C052CF5D30C4800F082F90B4800F0B0
:104590007FF90B4800F07CF90A4800F079F90A48E5
:1045A00000F076F9044809490860044808490860A1
:1045B00010BD0000CC120020301300204413002056
:1045C000581300206C130020801300208C00002062
:1045D0009000002010B50146164800E0006803680E
:1045E0008B42FBD30246436813448B4204D1436899
:1045F0004C682344436001460A464B6813440468F0
:10460000A34211D10C4C03682468A34208D04B6824
:104610000468646823444B6003681B680B6005E012
:10462000054B1B680B6001E003680B60884200D0FB
:10463000016010BDD4000020DC00002070B50546EC
:1046400000F05CF9A86BE96B884201D1012400E01D
:10465000002400F075F9204670BD00000A49096881
:10466000096809B9012100E0002121B14FF0FF31B3
:10467000064A116006E004490968C968C868034A27
:1046800041681160704700008C000020B8000020D5
:1046900007480068401C08B9012000E0002018B954
:1046A000FBF794FD00BFFEE7FBF790FD00BFFEE7C0
:1046B000C800002010B5044600F020F911E0606A3F
:1046C00008B9012000E0002038B904F1240000F00E
:1046D00017FE18B100F026FA00E005E0A06C401EBD
:1046E000A064A06C0028EADC00BF4FF0FF30A0649B
:1046F00000F026F900F002F911E0206908B9012064
:1047000000E0002050B904F1100000F0F9FD08B1FC
:1047100000F008FA606C401E606400E002E0606C2B
:104720000028EADC00BF4FF0FF30606400F008F9B9
:1047300010BD00002DE9F04104464FF0000800F0E4
:104740008DFA3C48006808B9FFF794FE3A480068C3
:10475000204000285DD19CB1083404F0070078B1F6
:1047600004F00700C0F10800044404F0070008B991
:10477000012000E0002018B9FBF728FD00BFFEE78C
:10478000002C46D02D480068844242D82C4E30463A
:10479000056801E02E462D686868A04202D22868AC
:1047A0000028F7D123480068854232D0306800F1F4
:1047B0000808286830606868001B102812D92F1973
:1047C00007F0070008B9012000E0002018B9FBF746
:1047D000FDFC00BFFEE76868001B78606C6038462F
:1047E000FFF7F8FE154968680968081A1349086058
:1047F0000846006813490968884203D20F480068D8
:10480000104908600C49686809680843686000201E
:10481000286000F0BBFD08F0070008B9012000E0A7
:10482000002018B9FBF7D2FC00BFFEE74046BDE808
:10483000F0810000DC000020E8000020E000002003
:10484000D4000020E4000020001F4FF080730360BC
:10485000001F0160001F034B036014380260203802
:10486000704700009146000801460A69D1E901300D
:104870009860D1E9010358605068884201D1886886
:104880005060002008611068401E1060106870477A
:1048900000F1080141604FF0FF31816000F1080133
:1048A000C160016100210160704700210161704712
:1048B00010B502460B685C1C0CB9106907E002F1E8
:1048C000080000E04068446824689C42FAD94468C3
:1048D0004C604C68A160886041600A611468641C87
:1048E000146010BD42684A6093688B609368596099
:1048F0009160086103685B1C0360704710B5FBF7AB
:1049000065FC0D480068401C0B490860BFF34F8FE1
:10491000BFF36F8F0846006801280BD10748006875
:10492000C0B208B9012000E0002018B9FBF74EFC26
:1049300000BFFEE710BD0000C800002004ED00E04D
:1049400010B50948006818B9FBF740FC00BFFEE746
:1049500005480068401E044908600846006810B910
:104960000020FBF73AFC10BDC800002070B50646D9
:104970003546002E31D0083D2C461849606809683C
:10498000084008B1012000E0002018B9FBF71EFC28
:1049900000BFFEE7206808B9012000E0002018B938
:1049A000FBF714FC00BFFEE70C496068096808408B
:1049B00098B1206888B909496068096888436060CF
:1049C00000F04CF906496068096808440449086029
:1049D0002046FFF7FFFD00F0D9FC70BDE800002085
:1049E000E000002003484FF0E02148610720086103
:1049F000704700003F1901004FF0805003490860E4
:104A0000BFF34F8FBFF36F8F7047000004ED00E0DE
:104A100010B50023012244F620610248FFF7EAF9AD
:104A200010BD00000010004070B50446002634B3ED
:104A30001548006808B9012000E0002018B9FBF70C
:104A4000C5FB00BFFEE700F009F910480068051932
:104A50000F480068001DFFF707FF50B90C480068B9
:104A600090F82C10012088400A49096881430948C0
:104A700001602846FFF736FC00F088FC06460EB9B8
:104A8000FFF7BAFF70BD0000BC0000209C000020B2
:104A900088000020A000002029E0FEF7C1FCFDF7FF
:104AA000BFFA04464CB9124801680068401C104B1C
:104AB000186010A0FCF712FF16E0012C09D10C4879
:104AC00001680068401C0A4B18600EA0FCF706FF46
:104AD0000AE0022C08D1064801680068401C044B1B
:104AE00018600CA0FCF7FAFE1420FFF79DFFD4E736
:104AF0001400002025303664D7F3B1DFC5F6D7B2F5
:104B00000D0A000025303664D3D2B1DFC5F6D7B226
:104B10000D0A000025303664C1BDB1DFC5F6D7B23D
:104B20000D0A00000120014908607047AC00002018
:104B3000FFF7CAFA04E0FEF7ADFF0120FFF774FFAC
:104B4000F9E7000070B505460C461DB9FBF73EFBC2
:104B500000BFFEE71348016818312846FFF7A8FE9A
:104B600010480068001DFFF77FFE50B90D4800682F
:104B700090F82C10012088400B49096881430A48AD
:104B80000160601C30B907480168091D0748FFF73C
:104B9000A9FE05E00648006806193046FFF7A2FBAB
:104BA00070BD000088000020A000002080130020BD
:104BB0009C00002010B504461CB9FBF707FB00BFA2
:104BC000FEE703480068206002480068606010BD8E
:104BD000B00000209C000020FEF76CFA08E0FDF712
:104BE000C1FAFEF73FFAFEF771FA0120FFF71CFF4A
:104BF000F5E700001FB500200090019002900346E9
:104C000080220FA10390104800F0E4F90446012C23
:104C10000FD1FBF7DBFAA01E0C49086001200C49FC
:104C2000086000200B4908600B49086000F08EF80E
:104C300004E01CB9FBF7CAFA00BFFEE71FBD000085
:104C400049444C4500000000F1440008B800002031
:104C5000A40000209C0000201800002002480068EA
:104C6000401C014908607047BC00002010B527486F
:104C7000006818B101202649086045E00020244959
:104C800008602448006824490860084600682349F1
:104C9000096888420BD92249096801F15400496D1D
:104CA0001D4A12681D4B1B68D21A114401601A4834
:104CB00000681A4908601B480068B0FA80F0C0F12B
:104CC0001F0404EB8400184951F8200008B10120AA
:104CD00000E0002018B9FBF779FA00BFFEE704EB0B
:104CE0008401114A02EB810041684968416000F18A
:104CF000080142688A4202D14168496841604168BE
:104D0000C968074A116000BF10BD0000BC00002048
:104D1000AC00002018000020C4000020C0000020CB
:104D200088000020A0000020CC1200200CE0012010
:104D3000FEF748FE0220FEF745FE0320FEF742FE86
:104D40004FF4FA70FFF770FEF1E700001CB522483F
:104D5000014609780191FF21024611700146097848
:104D600000919DF8001001F010011C4A11700721FC
:104D70001B4A116009E01A490968491E184A116066
:104D80009DF800104906090E00919DF8001001F0F1
:104D900080018029EFD0124909680902104A116088
:104DA0001146098801F4E06111600B4A0199117004
:104DB0000C48006840F470000A4908600846006822
:104DC00040F070400860FFF70DFE002006490860C3
:104DD000FBF7CAF900201CBD00E400E0CC00002075
:104DE000D000002020ED00E0C800002070B505468E
:104DF0005420FFF79FFC0446E4B10020606020606F
:104E0000A060E060A0630120E06300202064401EF9
:104E10006064A06484F8505004F11000FFF738FD7E
:104E200004F12400FFF734FD00231A4619462046FA
:104E300000F002F8204670BD2DE9FF4383B006461E
:104E400088461D464FF0000934461CB9FBF7BEF9F1
:104E500000BFFEE7B8F1000F01D1206C08B90120B6
:104E600000E0002018B9FBF7B1F900BFFEE7022D02
:104E700002D1E06B012801D1012000E0002018B927
:104E8000FBF7A4F900BFFEE700BFFFF737FDA06BFB
:104E9000E16B884201D3022D1DD12A4641462046AE
:104EA000FFF79EFA0746606A08B9012000E000207B
:104EB00040B904F1240000F023FA012805D1FFF7DE
:104EC0009BFD02E00FB1FFF797FDFFF739FD0120D1
:104ED00007B0BDE8F083059818B9FFF731FD002051
:104EE000F6E7B9F1000F04D101A8FFF763FE4FF018
:104EF0000109FFF725FDFFF7B1FEFFF7FFFC606C2E
:104F0000401C08B900206064A06C401C08B9002057
:104F1000A064FFF715FD05A901A800F021F8C0B9AC
:104F20002046FFF78BFB70B104F110000599FFF7E5
:104F300009FE2046FFF7BEFB00F028FA0028A4D1A6
:104F4000FFF75AFDA1E72046FFF7B4FB00F01EFA79
:104F50009BE72046FFF7AEFB00F018FA0020B7E70A
:104F60002DE9F04104460D461CB9FBF72FF900BFAF
:104F7000FEE71DB9FBF72AF900BFFEE7FFF7BEFC0D
:104F8000124807682868401C08B9002619E0104933
:104F900020680968884204D06068B84201D80126B8
:104FA0000FE06068381A2968884209D22868616869
:104FB000791A401A28602046FFF7FCFD002600E021
:104FC0000126FFF7BDFC3046BDE8F0819C000020C3
:104FD000B00000202DE9FF4F81B0804616469A466A
:104FE000DDE90E5BB8F1000F03D1FBF7EFF800BF6E
:104FF000FEE7052D01D2012000E0002018B9FBF7E3
:10500000E5F800BFFEE730461099FFF795F9044632
:10501000002C5DD0701E216B01EB800929F007097F
:1050200009F0070008B9012000E0002018B9FBF7DB
:10503000CDF800BFFEE700962A462046119B029954
:10504000FFF762FA524641464846FFF7FDFB2060F3
:10505000BBF1000F01D0CBF80040FFF74FFC254813
:105060000068401C234908602348006840B9224872
:1050700004600846006801280CD1FFF777FA09E0C0
:105080001E48006830B91C480068C06AA84201D8B0
:10509000194804601A480068401C1949086008460D
:1050A0000068606494F82C10012088401549096854
:1050B000084314490860E16A01EB8101124A02EBDE
:1050C0008100211DFFF70EFC0127FFF739FC01E0ED
:1050D0004FF0FF37012F09D10848006830B106486A
:1050E0000068C06AA84201D2FFF786FC384605B0C6
:1050F000BDE8F08F9800002088000020A400002068
:10510000B4000020A0000020CC1200200149086853
:10511000704700009C0000202DE9F0414FF000088E
:1051200041480068002872D140480068401C3F494F
:10513000086008460668DEB93D480068006808B99E
:10514000012000E0002018B9FBF740F800BFFEE79F
:1051500037480768374800683549086035480760B0
:1051600035480068401C34490860FFF777FA00BFF3
:105170003248006886423CD300BF2D480068006872
:1051800008B9012000E0002020B14FF0FF302B498A
:1051900008602DE026480068C068C4686568AE42B3
:1051A00002D22648056023E0201DFFF75DFBA06AC0
:1051B00018B104F11800FFF757FB94F82C100120E8
:1051C00088401F49096808431D490860E16A01EBEE
:1051D00081011C4A02EB8100211DFFF783FB1A4964
:1051E000E06A0968C96A8842C7D34FF00108C4E77A
:1051F00000BF15480068C06A00EB8000114951F8F3
:105200002000012808D94FF0010805E0FFE70F480A
:105210000068401C0D4908600D48006808B14FF057
:1052200001084046BDE8F081BC0000209C00002041
:105230008C00002090000020B0000020B80000206A
:10524000A0000020CC12002088000020A800002030
:10525000AC00002070B505462C460026002D47D036
:1052600024480068844201D1012000E0002018B9E0
:10527000FAF7ACFF00BFFEE7206D18B9FAF7A6FFFA
:1052800000BFFEE7206D401E2065E16CE06A8842A9
:105290002ED0206D60BB201DFFF7E6FA78B9E06ADA
:1052A00000EB8000144951F8200040B994F82C100C
:1052B0000120884011490968814310480160E06C71
:1052C000E062E06AC0F10500A06194F82C100120B2
:1052D00088400A490968084308490860E16A01EB07
:1052E0008101054A02EB8100211DFFF7FBFA01262F
:1052F000304670BD88000020CC120020A0000020A5
:1053000070B50646F068C4681CB9FAF75FFF00BFC5
:10531000FEE704F11800FFF7A7FA16480068A8B9DD
:10532000201DFFF7A1FA94F82C10012088401249A3
:105330000968084310490860E16A01EB81010F4ADE
:1053400002EB8100211DFFF7CDFA04E004F1180102
:105350000B48FFF7C7FA0B49E06A0968C96A884237
:1053600004D9012501200849086000E000252846ED
:1053700070BD0000BC000020A0000020CC12002066
:105380005813002088000020AC00002070B50025D4
:105390003048006818B9FAF719FF00BFFEE7FFF7B9
:1053A000ADFA2C480068401E2A490860084600688B
:1053B00000284BD128480068002847D024E027481F
:1053C000C068C46804F11800FFF74EFA201DFFF70B
:1053D0004BFA94F82C1001208840214909680843B1
:1053E0001F490860E16A01EB81011E4A02EB81005E
:1053F000211DFFF777FA1C49E06A0968C96A8842EB
:1054000002D30120194908601448006808B9012036
:1054100000E000200028D2D01548006878B10AE0EA
:10542000FFF77AFE10B101201049086010480068AB
:10543000401E0F4908600E4800680028F0D10B4854
:105440000068012802D10125FFF7D6FAFFF778FAA4
:10545000284670BDBC000020980000205813002092
:10546000A0000020CC12002088000020AC0000200A
:10547000A80000209454000800000020F000000064
:10548000FC18000884550008F0000020A85E000009
:105490000C190008000000000000000000000000DF
:1054A00000000000000000000000000000000000FC
:1054B000000000000000000000000000FFFF0000EE
:1054C0000D070D050F040F03080209010A000E065F
:1054D0000C0C0B0B0000000000000000000000009E
:1054E00000000000000000000000000000000000BC
:1054F0000000000000000000010203040102030498
:10550000060708090204060800A24A040000000079
:105510000000000001020304060708090000000063
:10552000000000000000000000000000000000007B
:10553000000000000000000000000000000000006B
:10554000000000000000000000000000000000005B
:10555000000000000000000000000000AAAAAAAAA3
:10556000000000000000000000000000000000003B
:10557000000000000000000000000000000000002B
:045580000000000027
:0400000508000131BD
:00000001FF
