:020000040800F2
:1000000040A10020E9010008B11500089D11000879
:10001000AD1500084D0D000859270008000000002C
:100020000000000000000000000000004501000882
:10003000290E000800000000890100087519000859
:10004000030200080302000803020008030200087C
:10005000030200080302000803020008030200086C
:1000600003020008590E00080302000803020008FA
:10007000030200080302000803020008030200084C
:10008000030200080302000803020008030200083C
:10009000030200080302000803020008810E0008A2
:1000A000030200080302000803020008030200081C
:1000B00003020008351C00080302000803020008C0
:1000C00003020008030200080302000803020008FC
:1000D00003020008E5220008F522000805230008B5
:1000E0002D0E0008030200080302000803020008A6
:1000F00003020008030200080302000803020008CC
:100100000302000803020008C91C000803020008DB
:10011000D522000803020008691D00080302000838
:10012000030200080302000803020008030200089B
:10013000DFF80CD000F0A8FC004800479F640008DE
:1001400040A10020204B19680868B0E8F00F80F348
:100150000988BFF36F8F4FF0000080F311884EF0D5
:100160000D0E70470000000006480068006880F32C
:10017000088862B661B6BFF34F8FBFF36F8F00DFA1
:1001800000BF00BF08ED00E0EFF30980BFF36F8F01
:100190000D4B1A6820E9F00F106008B54FF0100001
:1001A00080F3118806F0EEFE4FF0000080F3118816
:1001B000BDE8084019680868B0E8F00F80F30988C6
:1001C000BFF36F8F704700BF70000020EFF3118006
:1001D0004FF0100181F31188704780F31188704748
:1001E000EFF3058070470000064880470648004747
:1001F000FEE7FEE7FEE7FEE7FEE7FEE7FEE7FEE7D7
:10020000FEE7FEE7951900083101000840EA010306
:100210009B0703D009E008C9121F08C0042AFAD2BC
:1002200003E011F8013B00F8013B521EF9D2704780
:10023000D2B201E000F8012B491EFBD27047002228
:10024000F6E710B513460A4604461946FFF7F0FFD5
:10025000204610BDF0B480EA0102D40F4200B2EB98
:10026000410F02D20246084611464A0042D0C30D51
:10027000DDB2C1F3C752AD1A202D35DAC1F3160134
:1002800041F4000204B15242C5F1200602FA06F11F
:100290002A411044B3EBD05F23D0C4B1012DA0EBB1
:1002A000C35009DCF0BC4FF0004202EAC352DBB29B
:1002B00000F5000000F045BB400000F1807000EB4D
:1002C000C350A0F1807040EAD170490009E04908AC
:1002D00041EAC071A0EBC35000F50000400800EBFC
:1002E000C350F0BC00F024BB6142012202EB41018B
:1002F000001BF6E7F0BC704781F00041AAE780F0F0
:100300000040A7E780EA010210B502F00043400078
:1003100022D04A001FD0010E01EB1261C0F356003B
:10032000C2F3560240F4000042F40002A0FB022097
:1003300000047F39140400D0401C50EA124001D45C
:100340004000491EC2B20C0604EBD010401C40080D
:10035000802A02D003E0002010BD20F00100002917
:1003600000DA0020184310BD30B480EA010202F028
:10037000004530F0004221F0004013D090B1C30D91
:10038000D40DC2F31601C0F31600E41A41F40001C3
:1003900040F400027D34914201D3641C00E0490026
:1003A000002C02DA30BC002070474FF4000000231C
:1003B000914201D3891A034340084FEA4101F7D122
:1003C00051B1914202D14FF0004105E002D24FF00D
:1003D000010101E06FF0010103EBC450284430BC7F
:1003E00000F0A6BA2DE9FE4F804681EA0300C00F57
:1003F0000C46009021F0004123F00045B8EB0200CC
:10040000A94105D24046214690461C460B4602466D
:1004100023F00040104347D0270DC7F30A00C3F371
:100420000A510290401A019040286BDAC3F313007E
:1004300040F4801B0098924620B10023D2EB030ABF
:1004400063EB0B0B01985946C0F14002504600F097
:100450003EFA06460D4650465946019A00F056FAB5
:1004600010EB08006141002487EA115284EAE77327
:100470001A4340D0009A62B3019A012A4FEA075208
:1004800015DC001B61EB02014FF0004202EA07524B
:10049000CDE90042001C41F5801132462B4600F0A8
:1004A0008DFA03B0BDE8F08F40462146F9E7001B06
:1004B00061EB0201001C41F5801300185B4120181C
:1004C000A2F5001747EB030140EAD570B6196D415C
:1004D00011E06D084FEA360645EAC0754FEA07524B
:1004E000001B61EB0201001C41F5801149084FEA35
:1004F00030000019514132462B4603B0BDE8F04FA1
:1005000000F04DBA0098012240000023D0EB020217
:1005100063EBE073009821464FEAE074B8EB00000B
:1005200061EB0401E9E783F000435BE781F0004100
:1005300058E72DE9FE4F81EA030404F0004421F05E
:10054000004100944FF0000B23F0004350EA0104F7
:100550005ED052EA03045BD0C3F30A54C1F30A55D8
:100560002C44A4F2F3340194A0FB0254C1F3130110
:1005700041F48011C3F3130343F4801301FB0244DD
:1005800000FB034E840A970A44EA815447EA8357E2
:10059000A4FB076802958D0A05FB07854FEA932C9B
:1005A00004FB0C542705029D4FEA065847EA16370C
:1005B000B5EB08056EEB070C870E920E47EA811724
:1005C00042EA8312A7FB0201B6EB0B0164EB0004C5
:1005D0002B0D43EA0C335E1844EB1C50DA465146AF
:1005E000E7FB0201C5F313044FEA0B3343EA14534C
:1005F0004FEA0432019C43EA0603A4F10C0402947E
:10060000009CCDE900B400F0D9F903B0BDE8F08F4B
:1006100000200146F9E72DE9F04D81EA030404F0DA
:10062000004B21F0004514464FF0000A23F0004132
:1006300050EA050220D054EA01021DD0C5F30A5742
:100640000246C5F31303C1F31300C1F30A5640F485
:10065000801543F48013A7EB0608101BD64608F25A
:10066000FD3873EB050002D308F1010801E0921890
:100670005B41B8F1000F03DA00200146BDE8F08DC0
:1006800000204FF48011064684460EE0171B73EBE2
:10069000050705D3121B63EB050306434CEA010C67
:1006A00049084FEA300092185B4150EA0107EDD14A
:1006B00052EA030012D082EA040083EA05010843EB
:1006C00005D0101BAB4106D20122002306E0002218
:1006D0004FF0004302E06FF0010253101AEB0600E6
:1006E0004CEB085110EB0A0041EB0B01BDE8F04D5B
:1006F00000F055B9C10F80EAE0700844CA0796239C
:10070000002100F01EB996230022114600F019B90D
:100710000EB5C10F80EAE0700844CA07002140F21C
:1007200033438DE80E000A460B4600F047F903B04C
:1007300000BD0EB540F2334102910021CDE9001118
:100740000A460B4600F03AF903B000BD00F0004243
:1007500020F00040C10DC0F3160040F400007F29D6
:1007600001DA00207047962903DCC1F19601C840E8
:1007700001E096398840002AF4D04042704720F0CA
:100780000040C10DC0F3160040F400007F2901DADB
:1007900000207047962903DCC1F19601C8407047DC
:1007A00096398840704770B5C1F30A5201F0004590
:1007B0000024C1F3130140F2FF3341F480119A4247
:1007C00001DA002070BD40F233439A42A2F2334274
:1007D00003DC524200F08AF800E090402C43F1D054
:1007E000404270BD00F0004230F000400AD0C10D20
:1007F00001F56071C0F3160042EA0151C2084007DA
:100800001143704700200146704701F0004330B4A7
:1008100021F0004150EA010206D00A0DA2F56072F3
:10082000C1F31301002A02DC30BC00207047440FE2
:1008300044EAC104C100E01830BC00EBC25000F033
:1008400077B80000002801DBC0F10040002901DB7F
:10085000C1F1004181427047002801DBC0F1004036
:10086000002901DBC1F10041884270472DE9F05FAA
:100870000546002092469B4688460646814640240F
:100880001BE0284641464746224600F02FF85346D3
:100890005A46C01A914110D311461846224600F01C
:1008A00016F82D1A67EB01084F4622460120002159
:1008B00000F00DF817EB00094E41201EA4F10104D1
:1008C000DFDC484631462A464346BDE8F09F202AF1
:1008D00004DB203A00FA02F1002070479140C2F197
:1008E000200320FA03F3194390407047202A04DBC9
:1008F000203A21FA02F00021704721FA02F3D04099
:10090000C2F120029140084319467047202A06DBB5
:10091000CB17203A41FA02F043EAE07306E041FACD
:1009200002F3D040C2F120029140084319467047BB
:100930000029A8BF7047401C490008BF20F00100F3
:10094000704710B4B0FA80FC00FA0CF050EA0104D1
:1009500004BF10BC704749B1CCF1200421FA04F463
:1009600011FA0CF118BF012121430843A3EB0C013C
:10097000CB1D4FEA00614FEA102042BF002010BC9F
:10098000704700EBC35010440029A4BF10BC70474F
:10099000401C490008BF20F0010010BC704710B592
:1009A000141E73F1000408DA401C41F10001921892
:1009B0005B411A4301D120F0010010BD2DE9F04D3B
:1009C00092469B4611B1B1FA81F202E0B0FA80F290
:1009D00020329046FFF77BFF04460F4640EA0A00AC
:1009E00041EA0B0153465A46084313D0114653EAD5
:1009F000010019D0C8F140025046FFF777FF0546C5
:100A00000E46504659464246FFF761FF084305D05F
:100A1000012004E020463946BDE8F08D0020054362
:100A200046EAE0762C4337430A986305E40AA0EBD4
:100A300008000022FD0A44EA47540A3002D500208B
:100A40000146E9E7010510196941DDE9084500198A
:100A50006941BDE8F04DA2E770B521F000430343C2
:100A60000CD0C1F30A550024D5EB040564EB040354
:100A7000D617AD1AB34102DB0020014670BD201825
:100A800041EB025170BD0000064C074D06E0E068E6
:100A900040F0010394E8070098471034AC42F6D3C5
:100AA000FFF74AFBB0780008D078000821B18268CF
:100AB00042F00102826003E0826822F0010282605B
:100AC0007047000010B504461248844208D1012145
:100AD000401500F0FDFD0021601500F0F9FD17E064
:100AE0000D48844208D10121001500F0F1FD0021DC
:100AF000201500F0EDFD0BE00848844208D10121EB
:100B0000C80300F0E5FD00214FF4004000F0E0FDD7
:100B100010BD00000024014000280140003C0140BD
:100B2000014600208A6802F004020AB1012000E0B8
:100B3000002070470146C86C80B270470246002012
:100B400013680B400BB1012000E000207047014604
:100B500000208A6802F008020AB1012000E00020AB
:100B60007047000030B502460020002350680F4C4B
:100B700020400D790C6844EA0524204350609068B9
:100B80000B4C2040D1E902542C434D7944EA4504F2
:100B900020439060D06A20F470000C7C641EE4B2A4
:100BA000234340EA0350D06230BD0000FFFEF0FF57
:100BB000FDF7F1FFF0B504460D4600200021092D98
:100BC00011DDE068A5F10A0606EB4607072606FADE
:100BD00007F18843A5F10A0606EB460603FA06F17B
:100BE0000843E0600CE0206905EB4507072606FA9C
:100BF00007F1884305EB450603FA06F10843206137
:100C0000072A0FDA606B561E06EB86071F2606FAC8
:100C100007F18843561E06EB860605FA06F10843DF
:100C2000606322E00D2A0FDA206BD61F06EB8607E1
:100C30001F2606FA07F18843D61F06EB860605FA3B
:100C400006F10843206310E0E06AA2F10D0606EB0E
:100C500086071F2606FA07F18843A2F10D0606EB68
:100C6000860605FA06F10843E062F0BD816841F0AE
:100C700008018160704721B1826842F4A00282605D
:100C800003E0826822F4A00282607047816841F02C
:100C9000040181607047000010B5012006F022FABF
:100CA0000149086010BD00000C0000201FB50020A5
:100CB000144A0123CDE901200093039003464FF429
:100CC000806211A1144806F001FB0020134A0223A0
:100CD000CDE901200093039003464FF4806210A1F8
:100CE000134806F0F3FA0020124A0323CDE901204D
:100CF0000093039003464FF480620FA1124806F060
:100D0000E5FA1FBD00000020765461736B446563F3
:100D10006973696F6E000000E16C00080400002038
:100D2000765461736B436F6E74726F6C00000000D9
:100D3000C96C000808000020765461736B5065721E
:100D400063657074696F6E00396E000800BFFEE75E
:100D5000014609B909487047012901D10848FAE755
:100D6000022901D10748F6E7032901D10648F2E735
:100D7000042901D10020EEE70020ECE798060020CE
:100D8000C00E0020E8160020101F002008B5252006
:100D90008DF8000001208DF8010000208DF8020080
:100DA00001208DF80300684600F004FC26208DF831
:100DB000000001208DF8010000208DF802000120C4
:100DC0008DF80300684600F0F5FB27208DF8000041
:100DD00001208DF8010000208DF8020001208DF81F
:100DE0000300684600F0E6FB34208DF80000012087
:100DF0008DF8010000208DF8020001208DF803001D
:100E0000684600F0D7FB08BD29B1064A5268024384
:100E1000044B5A6004E0034A52688243014B5A6013
:100E200070470000002004E07047000010B54FF448
:100E3000004000F053F860B14FF4004000F048F873
:100E400004480068401C0349086008464068401C8C
:100E5000486010BD0805002010B5082000F03EF8DD
:100E600058B1082000F034F804488068401C034959
:100E700088600846C068401CC86010BD0805002096
:100E800010B5802000F02AF8012816D103F000FFE9
:100E90000AA001F063FC71B600BFBFF34F8F0A4890
:100EA000006800F4E06009490843001D0649086035
:100EB000BFF34F8F00BF00BFFEE710BD4177616BEE
:100EC000656E0D0A000000000CED00E00000FA0560
:100ED00001490860704700001404014001460020E9
:100EE0000022074B1B6803EA0102054B14331B6801
:100EF0000B4013B10AB1012000E000207047000050
:100F000000040140002123498279002A3AD00A4690
:100F1000126803689A430B461A600A1D1268036838
:100F20009A430B1D1A60027911440A6803681A4338
:100F30000A60184A0832126803689A43154B08334E
:100F40001A601A1D126803689A43124B0C331A6018
:100F50004279102A0ED11A1F126803681A430D4BEA
:100F600008331A601A1D126803681A43094B0C33C0
:100F70001A600DE00749427911440A6803681A4370
:100F80000A6005E0027911440A6803689A430A601E
:100F9000704700000004014030B500228B071C0F91
:100FA0000F2303FA04F20B4B8C1053F824309343B5
:100FB000084C8D1044F8253023468C1053F824300B
:100FC0008C07240F00FA04F42343024C8D1044F8DC
:100FD000253030BD080001402DE9F04102460025D2
:100FE0000026002000230024002791F803C00CF005
:100FF0000F0591F803C00CF0100CBCF1000F03D0EA
:1010000091F802C04CEA050591F800C0BCF1000F50
:1010100031D0146800202BE04FF0010C0CFA00F3E3
:10102000B1F800C00CEA03069E4220D183004FF0C5
:101030000F0C0CFA03F7BC4305FA03FC4CEA04045A
:1010400091F803C0BCF1280F06D14FF0010C0CFA47
:1010500000FCC2F814C00AE091F803C0BCF1480FCC
:1010600005D14FF0010C0CFA00FCC2F810C0401C76
:101070000828D1D31460B1F800C0BCF1FF0F34DDF3
:10108000546800202EE000F1080C4FF0010808FA27
:101090000CF3B1F800C00CEA03069E4221D1830094
:1010A0004FF00F0C0CFA03F7BC4305FA03FC4CEAB3
:1010B000040491F803C0BCF1280F05D100F1080C1D
:1010C00008FA0CF8C2F8148091F803C0BCF1480F7C
:1010D00007D100F1080C4FF0010808FA0CF8C2F82B
:1010E0001080401C0828CED35460BDE8F081000079
:1010F000F0B50A46002300240021002500F0004638
:10110000B6F1004F02D11D4EF16901E01B4E71682E
:10111000C0F3034583B200F44016B6F5401F08D172
:1011200021F07061154E766826F07066134F7E6070
:1011300012E000F48016B6F5801F06D1032606FAE9
:1011400005F4A14341F0706106E0460D360103FA53
:1011500006F6B14341F0706122B1460D360103FA43
:1011600006F6314300F00046B6F1004F02D1034EBF
:10117000F16101E0014E7160F0BD0000000001402E
:101180000246002093680B400BB1012000E00020D4
:1011900070474161704701617047000009A100205C
:1011A0000CE00A5C124B1A8000BF114A121F128811
:1011B00002F04002002AF8D0421CD0B22A28F0D314
:1011C00000BFFEE70D0A456E7465722048617264C7
:1011D0004661756C745F48616E646C65722C205357
:1011E000797374656D2048616C742E0D0A000000DF
:1011F0000438014000B585B00121052000F058FAFF
:101200000121880300F054FA4FF40070ADF810008B
:1012100018208DF8130003208DF8120004A98748C8
:10122000FFF7DAFE4FF48060ADF8100004208DF86F
:10123000130004A98148FFF7CFFE4FF4E13000907E
:101240000020ADF80400ADF80600ADF80800ADF8D8
:101250000C000C20ADF80A006946794801F0BEF890
:10126000012240F22551764801F093F8012174489B
:1012700001F059F84021724801F04CF80121052095
:1012800000F016FA0121480400F002FA0420ADF83B
:10129000100018208DF8130003208DF8120004A907
:1012A0006648FFF799FE0820ADF8100004208DF87D
:1012B000130004A96148FFF78FFE04A95F48FFF7F8
:1012C0008BFE4FF4E13000900020ADF80400ADF843
:1012D0000600ADF80800ADF80C000C20ADF80A00CF
:1012E0006946584801F07AF8012240F225515548E4
:1012F00001F04FF80121534801F015F84021514801
:1013000001F008F80121082000F0D2F910208DF832
:10131000130003208DF812000420ADF8100004A97A
:101320004948FFF759FE0121092000F0C1F90121C8
:10133000880400F0ADF94FF48060ADF8100018207B
:101340008DF8130003208DF8120004A93E48FFF722
:1013500043FE4FF40060ADF8100004208DF8130038
:1013600004A93948FFF738FE04A93748FFF734FECF
:101370004FF4E13000900020ADF80400ADF8060015
:10138000ADF80800ADF80C000C20ADF80A00694675
:101390002E4801F023F8012240F225512B4800F09D
:1013A000F8FF0121294800F0BEFF4021274800F046
:1013B000B1FF0121112000F07BF90121C80400F0E8
:1013C00067F94FF48060ADF8100018208DF8130015
:1013D00003208DF8120004A91D48FFF7FDFD4FF40E
:1013E0000060ADF8100004208DF8130004A918481F
:1013F000FFF7F2FD4FF4E13000900020ADF804005B
:10140000ADF80600ADF80800ADF80C000C20ADF802
:101410000A0069460F4800F0E1FF012240F2255121
:101420000C4800F0B6FF01210A4800F07CFF402183
:10143000084800F06FFF05B000BD00000008014043
:101440000038014000440040000C014000480040CA
:1014500000100140004C00400948006800F0800086
:1014600058B90748006800F4807030B1044800683B
:1014700000F4806008B1012070470020FCE7000004
:10148000081801400948006800F0800058B107487A
:10149000006800F4807030B90448006800F480608F
:1014A00008B9012070470020FCE70000081801403F
:1014B0000948006800F0800058B10748006800F44F
:1014C000807030B90448006800F4806008B10120E1
:1014D00070470020FCE70000081801400948006838
:1014E00000F0800058B10748006800F4807030B107
:1014F0000448006800F4806008B9012070470020AB
:10150000FCE70000081801400448006800F0800073
:10151000012800D170470020FCE7000008180140B6
:101520000448006800F08000012800D170470020C6
:10153000FCE70000081801400448006800F0800043
:1015400008B9012070470020FCE70000081801409E
:101550000448006800F0800008B9012070470020AE
:10156000FCE70000081801400448006800F0800013
:1015700008B9012070470020FCE70000081801406E
:101580000948006800F0800058B90748006800F476
:10159000807030B90448006800F4806008B1012010
:1015A00070470020FCE700000818014000BFFEE77C
:1015B0007047000070B5002100230F22C47804B3E7
:1015C000154C246804F4E064C4F5E064210AC1F118
:1015D0000403CA40447804FA03F184781440214398
:1015E00009010E4C0678A155047804F01F0501246A
:1015F000AC4005786D11AD0005F1E025C5F800415E
:1016000009E0047804F01F050124AC40044D06787D
:10161000761145F8264070BD0CED00E000E400E0D6
:1016200080E100E002490143024A11607047000076
:101630000000FA050CED00E010B5024600200C4B4E
:10164000186820F00300104318600A4B1B6843F031
:101650000403084C2360012901D130BF00E020BF02
:10166000044B1B6823F00403024C236010BD0000F0
:101670000070004010ED00E001460020034A506871
:1016800020F44040084350607047000000100240C2
:1016900029B1064AD2690243044BDA6104E0034AE5
:1016A000D2698243014BDA617047000000100240AA
:1016B00029B1064A92690243044B9A6104E0034A45
:1016C00092698243014B9A6170470000001002400A
:1016D00029B1064AD2680243044BDA6004E0034AA7
:1016E000D2688243014BDA6070470000001002406C
:1016F00030B500210022002400232D4D6D6805F037
:101700000C0121B1042905D0082923D105E0294D78
:10171000056022E0274D05601FE0254D6D6805F44A
:101720007012234D6D6805F48034022505EB92425A
:101730001CB9214D554305600BE01D4D6D6805F446
:1017400000351DB11C4D5543056002E0194D554350
:10175000056002E0174D056000BF00BF144D6D68C5
:1017600005F0F0010909154D6B5C0568DD40456029
:101770000F4D6D6805F4E061090A104D6B5C45681A
:10178000DD4085600A4D6D6805F46051C90A0B4D56
:101790006B5C4568DD40C560054D6D6805F44041F2
:1017A000890B074D6B5CC568B5FBF3F5056130BD72
:1017B0000010024000127A0000093D0045000020A0
:1017C0005500002010B501460022002300204A11D8
:1017D000012A02D1094C236806E0022A02D1074CF3
:1017E000236A01E0054C636A01F01F020124944062
:1017F0001C400CB1012000E0002010BD0010024090
:101800000248406800F00C007047000000100240E1
:101810001149096821F480310F4A116011460968A5
:1018200021F480211160B0F5803F03D0B0F5802F06
:101830000ED106E00849096841F48031064A11607A
:1018400007E00549096841F4A021034A116000E05E
:1018500000BF00BF70470000001002400149086649
:10186000704700000000424201460020034A5068D1
:1018700020F0030008435060704700000010024051
:1018800010B50446204601F0F7FD10BD10B500F07C
:1018900001F810BD0CB5002001900090334800689D
:1018A00040F480303149086000BF3048006800F4DF
:1018B000003000900198401C0190009818B90198E0
:1018C000B0F5A06FF1D12948006800F4003010B1E4
:1018D0000120009001E0002000900098012843D1F1
:1018E0002348006840F0100021490860084600685D
:1018F00020F0030008600846006840F0020008601D
:101900001A484068194948600846406848600846D7
:10191000406840F4806048600846406820F47C10CD
:1019200048600846406840F4E8104860084600688F
:1019300040F08070086000BF0C48006800F0007044
:101940000028F9D00948406820F0030007494860A2
:101950000846406840F00200486000BF0348406805
:1019600000F00C000828F9D10CBD00000010024066
:101970000020024010B5FEF729FC05F049FD18B122
:101980004FF08050024908600020FEF726FC10BD91
:1019900004ED00E010B51348006840F00100114963
:1019A000086008464068104908400E4948600846EB
:1019B00000680E4908400B4908600846006820F49A
:1019C000802008600846406820F4FE0048604FF41C
:1019D0001F008860FFF75AFF4FF00060044908605D
:1019E00010BD0000001002400000FFF8FFFFF6FEEF
:1019F00008ED00E0F0B50C46154600220021068CEB
:101A00004FF6FE773E400684028B018C4FF60C7633
:101A100032407E1C06EA03162E433243104EB0427B
:101A20000ED0104EB0420BD0B0F1804F08D00E4E09
:101A3000B04205D00D4EB04202D00D4EB04206D19C
:101A40004FF6FD76314044F00106314305E04FF694
:101A5000F576314044F00106314302830184F0BD44
:101A6000002C014000340140000400400008004008
:101A7000000C0040F0B50C4615460022002100265F
:101A8000078C4FF6EF7C07EA0C070784028B018C6A
:101A90004FF6FF7707EA041640F6FF473A404FF645
:101AA000FF7707EA03373A434FF6FF7707EA052740
:101AB0003A43114FB8420ED0104FB8420BD0B0F19C
:101AC000804F08D00E4FB84205D00E4FB84202D01A
:101AD0000D4FB84206D14FF6DF77394046F0100778
:101AE000394305E04FF65F77394044F0100739433A
:101AF00002830184F0BD0000002C0140003401404D
:101B00000004004000080040000C0040F0B50C4606
:101B10001546002200210026078C4FF6FF6C07EACD
:101B20000C070784828B018C4FF6FF7707EA0426A7
:101B30004FF60C773A404FF6FF7707EA03172F432B
:101B40003A43114FB8420ED0104FB8420BD0B0F10B
:101B5000804F08D00E4FB84205D00E4FB84202D089
:101B60000D4FB84206D14FF6FF57394046F4807703
:101B7000394305E04FF2FF57394044F48077394349
:101B800082830184F0BD0000002C0140003401403C
:101B90000004004000080040000C0040F0B50C4676
:101BA0001546002200210026078C4EF6FF7C07EA2E
:101BB0000C070784828B018C4FF6FF7707EA043607
:101BC00040F6FF473A404FF6FF7707EA05273A43CA
:101BD0004FF6FF7707EA03373A43114FB8420ED06A
:101BE000104FB8420BD0B0F1804F08D00E4FB84222
:101BF00005D00E4FB84202D00D4FB84206D14DF677
:101C0000FF77394046F48057394305E047F6FF57E0
:101C1000394044F48057394382830184F0BD000089
:101C2000002C014000340140000400400008004046
:101C3000000C004010B50121224800F0F7F878B1FF
:101C40000121204800F0C4F8002002F047FE0120E6
:101C500002F044FE022002F041FE032002F03EFEAC
:101C60000221184800F0E2F830B10221154800F0D6
:101C7000AFF8002002F07CFD0421124800F0D6F8F5
:101C800030B104210F4800F0A3F8012002F070FDEC
:101C900008210C4800F0CAF830B10821094800F0CA
:101CA00097F8022002F064FD1021064800F0BEF80B
:101CB00030B11021034800F08BF8032002F058FDEA
:101CC00010BD00000004004010B50221214800F0C2
:101CD000ADF858B102211F4800F07AF80022022125
:101CE0001C4800F00BF91C48006880470421194883
:101CF00000F09CF858B10421164800F069F8002261
:101D00000421144800F0FAF81448006880470821BC
:101D1000104800F08BF858B108210E4800F058F830
:101D2000002208210B4800F0E9F80D4800688047C0
:101D30001021084800F07AF858B11021054800F049
:101D400047F800221021034800F0D8F80548006841
:101D5000804710BD000C00403400002038000020F7
:101D60003C0000204000002010B501210F4800F089
:101D70005DF8D0B10E480068401C0D490860084667
:101D800000681421B0FBF1F201FB120000EB8000AF
:101D9000400008B904F0D4FA06480068401C054920
:101DA00008600121014800F013F810BD0010004048
:101DB000180000201400002021B1028842F08002A7
:101DC000028004E002884FF67F731A400280704759
:101DD000CA430282704721B1028842F001020280A8
:101DE00004E002884FF6FE731A400280704731B15A
:101DF000B0F8442042F40042A0F8442005E0B0F8D6
:101E00004420C2F30E02A0F8442070470146888E99
:101E100070470146088F70470146888F704701461A
:101E2000B1F8400070470146888C704730B50246D3
:101E3000002000230024158A05EA0103958905EA9C
:101E4000010413B10CB1012000E0002030BD0000FE
:101E500070B505460C46244885420ED0234885427D
:101E60000BD0B5F1804F08D02148854205D02148DC
:101E7000854202D02048854200D100E000BF208882
:101E800050B92389A28861882846FFF7B3FDE1880D
:101E9000284600F0A1F925E0208804280AD12389EA
:101EA000A28861882846FFF7E5FDE188284600F012
:101EB0009CF917E0208808280AD12389A288618824
:101EC0002846FFF723FEE188284600F09BF909E049
:101ED0002389A28861882846FFF760FEE1882846AA
:101EE00000F099F970BD0000002C01400034014061
:101EF0000004004000080040000C00401AB1838933
:101F00000B43838102E083898B4383817047000008
:101F100070B5002400220023058C4FF6FE76354074
:101F20000584028C8388048B4FF68F752C40B51E78
:101F30002C400D882C43751E2A400D892A434D885C
:101F40002A43144DA8420BD0134DA84208D0134D7C
:101F5000A84205D0124DA84202D0124DA84213D17A
:101F60004FF6F7752A404D892A434FF6FB752A40F4
:101F70008D882A434FF6FF652B404FF6FF552B40C7
:101F80008D892B43CD892B4383800483CD8885861F
:101F9000028470BD002C014000340140004001402B
:101FA00000440140004801400A460021018B4FF6E1
:101FB000F7731940114301837047000070B5002486
:101FC00000220023058C4FF6EF7635400584028C05
:101FD0008388048B48F6FF752C404FF6FF452C4054
:101FE0000D884FF6FF7606EA05252C434FF6DF7580
:101FF0002A400D8906EA05152A434D8806EA05158B
:102000002A43154DA84202D0144DA8421DD14FF6C7
:102010007F752A404D894FF6FF7606EA05152A435B
:102020004FF6BF752A408D8806EA05152A434FF6FC
:10203000FF352B404FF2FF752B408D8906EA850551
:102040002B43CD8906EA85052B4383800483CD8805
:102050000587028470BD0000002C0140003401405F
:102060000A460021018B4FF2FF7319404FF6FF73B0
:1020700003EA0223194301837047000070B500246E
:1020800000220023058C4FF6FF6635400584028C44
:102090008388848B4FF68F752C404FF6FC752C404F
:1020A0000D882C434FF6FF552A400D894FF6FF76D9
:1020B00006EA05252A434D8806EA05252A43154DDB
:1020C000A84202D0144DA8421DD14FF2FF752A40FC
:1020D0004D894FF6FF7606EA05252A434FF6FF3570
:1020E0002A408D8806EA05252A434EF6FF752B40C7
:1020F0004DF6FF752B408D8906EA05152B43CD89DA
:1021000006EA05152B4383808483CD888587028466
:1021100070BD0000002C0140003401400A4600213F
:10212000818B4FF6F773194011438183704700008C
:1021300070B5002200230024058C4EF6FF76354052
:102140000584038C8488828B48F6FF752A404FF6FD
:10215000FF452A400D884FF6FF7606EA05252A43FB
:102160004DF6FF752B400D8906EA05352B434D884A
:1021700006EA05352B430B4DA84202D00A4DA84272
:1021800008D14BF6FF752C408D894FF6FF7606EA95
:1021900085152C4384808283CD88A0F84050038429
:1021A00070BD0000002C0140003401400A460021AF
:1021B000818B4FF2FF7319404FF6FF7303EA02233E
:1021C00019438183704781867047018770478187F3
:1021D0007047A0F840107047028B4FF6F3731A4017
:1021E0000283028B0A4302837047028B4FF2FF3354
:1021F0001A400283028B4FF6FF7303EA01231A434E
:1022000002837047828B4FF6F3731A408283828B6E
:102210000A4382837047828B4FF2FF331A408283D6
:10222000828B4FF6FF7303EA01231A4382837047C0
:10223000002202881D4B98420ED01D4B98420BD0B5
:10224000B0F1804F08D01B4B984205D01A4B9842F2
:1022500002D01A4B984204D14FF68F731A404B8824
:102260001A43174B984207D0164B984204D04FF6AA
:10227000FF431A40CB881A4302808B8883850B88E2
:1022800003850A4B98420BD0094B984208D00E4B5D
:10229000984205D00D4B984202D00D4B984201D187
:1022A0000B7A03860123838270470000002C0140D3
:1022B000003401400004004000080040000C0040D1
:1022C0000010004000140040004001400044014064
:1022D0000048014010B5024800F01AF910BD000096
:1022E000101F002010B5024800F012F910BD0000C8
:1022F0009806002010B5024800F00AF910BD000051
:10230000C00E002010B5024800F002F910BD000018
:10231000E816002001F40072B2F5007F00D100BF82
:10232000CA430280704721B1828942F400528281FF
:1023300004E082894DF6FF731A408281704770B5C0
:102340000246002400230025002040F66A16B14210
:1023500000D100BFC1F3421501F01F03012606FAA8
:1023600003F3012D02D19689334006E0022D02D1FC
:10237000168A334001E0968A33400C12012606FA91
:1023800004F41688344013B10CB1012000E00020A1
:1023900070BDF0B50346002400260025002040F65D
:1023A0006A17B94200D100BF1846C1F3421401F0C8
:1023B0001F06012707FA06F5012C01D10C3004E0B5
:1023C000022C01D1103000E014301AB107682F43FD
:1023D000076002E00768AF430760F0BD2DE9F047F2
:1023E00086B005460E460024A24600BFA14600273F
:1023F000B08900B100BF2F462C8A4CF6FF70044014
:10240000F08804432C82AC894EF6F3100440B08867
:1024100031890843718908430443AC81AC8A4FF683
:10242000FF400440B0890443AC8201A8FFF760F983
:102430001F48874202D1DDF810A001E0DDF80CA0B2
:10244000A88900F4004040B10AEBCA0000EB0A1072
:1024500031684900B0FBF1F807E00AEBCA0000EB75
:102460000A1031688900B0FBF1F86420B8FBF0F085
:1024700004012009642101FB1089A88900F40040AF
:1024800040B1322000EBC900B0FBF1F000F00700D2
:10249000044308E0322000EB09106421B0FBF1F0A6
:1024A00000F00F0004432C8106B0BDE8F087000067
:1024B0000038014001468888C0F308007047C1F326
:1024C00008028280704770B504460D46012000F076
:1024D00098FC668B002000F094FC0EB9002070BDC3
:1024E000218BA068405C2870012000F08AFC208BC2
:1024F000401C80B22083E189884201DB00202083D8
:10250000608B401E6083002000F07BFC0120E6E72A
:1025100070B5044640F225512068FFF710FFE0B186
:102520002068FFF7C7FFC5B2E18AA0684554E08A7A
:10253000401C80B2E082E189884201DB0020E08219
:10254000608BE189884202DA608B401C6083606A9C
:1025500010B12846616A884700BF40F227712068A1
:10256000FFF7EDFE08B3A08A60B9002240F22771A0
:102570002068FFF70EFF012240F226612068FFF776
:1025800008FF37E0638A6268D15C2068FFF797FF35
:10259000608A401C80B26082A189884201DB0020F1
:1025A0006082A08A401EA08224E040F2266120685A
:1025B000FFF7C5FEF0B1A08A50B9002240F22661B3
:1025C0002068FFF7E6FE206AA0B1206A804711E08C
:1025D000638A6268D15C2068FFF771FF608A401CE3
:1025E00080B26082A189884201DB00206082A08ADB
:1025F000401EA08270BDF8B504460E461746002561
:1026000029E00EE0012000F0FCFBA08A00900020F1
:1026100000F0F7FBA089BDF80010884200DD01E062
:1026200000BFEFE700BF705D228A61688854012017
:1026300000F0E7FB208A401C80B22082A1898842FA
:1026400001DB00202082A08A401CA082002000F034
:10265000D8FB681C85B2BD42D3DB012240F2277152
:102660002068FFF796FEF8BD2A482B4908602B48E2
:1026700048602B4888604FF480608881C8810020C2
:1026800008824882C882088348838882C8610862B9
:1026900048622448244908602448486024488860E7
:1026A0004FF480608881C881002008824882C882F7
:1026B000088348838882C861086248621D481E49B1
:1026C00008601E4848601E4888604FF4806088811A
:1026D000C881002008824882C88208834883888293
:1026E000C8610862174848621748184908601848C6
:1026F0004860184888604FF480608881C881002055
:1027000008824882C882088348838882C861086238
:10271000486270470038014098060020C00600203B
:10272000C00A002000440040C00E0020E80E002037
:10273000E812002000480040E81600201017002092
:10274000101B002081180008004C0040101F0020C2
:10275000381F00203823002000BFFEE70FB4054BD0
:1027600010B503A9044A029800F054FB10BC5DF8B0
:1027700014FB00008D640008D4000020490050EADA
:10278000C12018BF04204A0D18BF40F0010040F2DC
:10279000FF72B2EB515F08BF40F00200012808BF92
:1027A000052070472DE9F74F144694B00021C4E985
:1027B00002111599079121F00045C9498D4206DCA7
:1027C0001599C4E9000117B00020BDE8F08FC54994
:1027D000DFF814A3A9423CDD0799C44E0029C44F79
:1027E000C44A1599534619DDFDF79DFE554506D09F
:1027F000C14AC24BFDF797FEC4E900010AE04FF061
:10280000D352BE4BFDF78FFE32463B46FDF78BFEA3
:10281000C4E9000117B00120BDE8F08FFDF7E2FD2B
:10282000554506D0B44AB54BFDF7DCFDC4E90001BF
:102830000AE04FF0D352B14BFDF7D4FD32463B4690
:10284000FDF7D0FDC4E9000117B04FF0FF30BDE83F
:10285000F08FAB49A942159978DB21F000418346FE
:102860008846A84AA84BFDF764FE0022A74BFDF757
:10287000B9FDFDF798FF0990FDF74AFF06460F46A0
:102880009C4A5346FDF755FE43465A46FDF74EFE19
:1028900080468A46984A994B30463946FDF749FEAC
:1028A0002A0D01250B9242465346FDF73FFE032DAC
:1028B000C4E9000139D00B98C1F30A51401A05EB65
:1028C00045111139814230DA9148C346784400EB12
:1028D0000510CDF80CA00C90D0E900233046394605
:1028E000FDF727FE02460B460491069058460399D1
:1028F000FDF719FE80468A4602460B465846039964
:10290000FDF711FE049B069AFDF70DFE83460C9819
:1029100003913946D0E902233046FDF70AFE5A46B4
:10292000039BFDF700FE6D1CBDE707980028A2BFC2
:10293000099817B0BDE8F08F616881F000416160CF
:10294000099817B04042BDE8F08FFFE7844615981C
:10295000C1F31301C0F30A50A0F2F5304FEA60183A
:1029600000F01F06C6F1200013900020069007908B
:1029700041F4801E05206D4676B1664A08EB0001E1
:102980007A4452F8213002EB8101B3404A6813992E
:1029900022FA01F1194305E05F4908EB000279448E
:1029A00051F82210A1FB0E27A1FB0C131A449A42E6
:1029B00034BF0123002303EB070A05EB8003D3E9AF
:1029C00001B70F448F4234BF0121002193448B444F
:1029D00011B1934502D903E0934501D2012100E0F2
:1029E0000021C3E901B7514445F82010011EA0F1B0
:1029F0000100C1DC0298059F00F10050800F129089
:102A00000298DDE903568000FDF782FE83462846E2
:102A10000D91FDF78EFE6FF01D02FEF71DF8CDE95A
:102A20000E013046FDF785FE6FF03D02FEF714F80B
:102A300080468A463846FDF77CFE6FF05D02FEF761
:102A40000BF80746424653461191FDF7CBFCDDE9F2
:102A50000E23FDF7C7FC5A460D9BFDF7C3FC00256E
:102A60000E465A4628460D9BFDF75DFDDDE90E2317
:102A7000FDF759FD42465346FDF755FD3A46119B79
:102A8000FDF754FDDFF898A0244A5346FDF751FDA9
:102A900007468846234A244B31462846FDF749FD20
:102AA0003A464346FDF79EFC074688464FF0A8424B
:102AB000534631462846FDF73CFD3A464346FDF76E
:102AC00091FC159A12F0004F04D0129A81F0004147
:102AD00052421292C4E90001129817B0BDE8F08F7B
:102AE000FB21E93F7CD90240FB21F93F7370032EA3
:102AF0008A19A33B000040543163621A61B4D03D8F
:102B0000FB21394183C8C96D305FE43F0000E03FDD
:102B1000F04E00006C4E00004E4E0000182D445444
:102B2000FB21F93D3326A611460B113C2DE9FF4D43
:102B300021F0004807460C46B8F1795F08DAFDF746
:102B400032FE002801BF0020324904B0BDE8F08DFC
:102B50003A46234610461946FDF7EBFC0546024669
:102B60002D480E460B460621784400F05DF82A46B3
:102B70003346FDF7DEFCDDE9022382468B4638460C
:102B80002146FDF7D6FC04460F4652465B462846D2
:102B90003146FDF7CEFC22463B46FDF7C4FC074616
:102BA0008A464FF0FF3228463146FDF755FF1B4A53
:102BB00090450ADA3A465346FDF7B5FC04B00022C8
:102BC000BDE8F04D134BFDF7B1BC154A4245A8BF17
:102BD000A8F500154FF00004B8BF124D22462B4651
:102BE000FDF7A1FC0646884622462B4600200949EF
:102BF000FDF799FC04460D463A4653463046414699
:102C0000FDF791FC04B022462B46BDE8F04DFDF7E0
:102C10008DBC00000000F03F244C00003333D33F54
:102C20000000E93F0000D23F2DE9F0414F1E00EBCC
:102C3000C7010446D1E9000115461E4637F00602D9
:102C40000DD02A463346FDF774FC7F1E04EBC70304
:102C5000D3E90023FDF7C6FB37F00602F1D1022FBE
:102C600025D0042F13D0062F18BFBDE8F0812A46C7
:102C70003346FDF75EFCD4E90A23FDF7B3FB2A4691
:102C80003346FDF756FCD4E90823FDF7ABFB2A4693
:102C90003346FDF74EFCD4E90623FDF7A3FB2A4695
:102CA0003346FDF746FCD4E90423FDF79BFB2A4697
:102CB0003346FDF73EFCD4E90223FDF793FB2A4699
:102CC0003346FDF736FCD4E90023BDE8F041FDF7BB
:102CD00089BB00002DE9FF4D054621F0004084B07E
:102CE0000C46B0F1795F0BDA2846FFF747FD042860
:102CF00008BF00F06FF8284608B02146BDE8F08D07
:102D00002A460B461046FDF714FC06460F462A4697
:102D10002346FDF70EFC804626488A4632463B464F
:102D200005217844FFF780FF83461098029160B335
:102D3000214A224B40465146FDF7FBFBCDE90001FD
:102D40005A4640465146029BFDF7F3FB82468846B1
:102D5000DDE906014FF0FF32FDF77EFE52464346A5
:102D6000FDF7E1FB32463B46FDF7E3FBDDE90623D9
:102D7000FDF7D9FBDDE90023FDF7D5FB08B02A46B6
:102D80002346BDE8F04DFDF7D1BB0B465A46304611
:102D90003946FDF7CEFB084A084BFDF723FB4246B8
:102DA0005346FDF7C6FB08B02A462346BDE8F04D62
:102DB000FDF718BB624B0000495555555555C5BF29
:102DC0000122FDF749BE0022134610461146FDF7C9
:102DD00022BC0000024A00201107FDF73DBE0000A2
:102DE00001FDFFFF02E008C8121F08C1002AFAD146
:102DF00070477047002001E001C1121F002AFBD17B
:102E0000704780F3108870470149086070470000E0
:102E1000D80000202DE9FF4F8DB00F460546002653
:102E200006E025280BD0DDE90F1290476D1C761CBB
:102E300028780028F5D111B03046BDE8F08F002485
:102E4000A246A1460122EC4900E0044315F8013FE7
:102E5000203B02FA03F00842F7D128782A2810D044
:102E60006FF02F022878A0F13001092914D80AEB5D
:102E70008A0102EB410144F0020400EB010A6D1CDF
:102E8000F0E701CF5FEA000A03D544F40054CAF129
:102E9000000A44F002046D1C28782E2817D115F87A
:102EA000010F44F004042A280ED06FF02F02287876
:102EB000A0F1300109290AD809EB890102EB41018F
:102EC00000EB01096D1CF2E757F8049B6D1C287894
:102ED0006C280FD006DC4C2817D068280DD06A2843
:102EE00014D104E0742810D07A280FD10DE044F4F6
:102EF00000140AE044F4801401E044F440146978BA
:102F0000814202D104F580146D1C6D1C2A786E2A52
:102F10001FD00CDC632A31D004DC002A8BD0582A65
:102F200011D1A3E0642A68D0692A0CD165E0732A24
:102F30002ED004DC6F2A73D0702A04D19BE0752A4E
:102F40006FD0782A6ED01046DDE90F129047761CBC
:102F500050E1C4F30250022806D0032809D0042807
:102F600001CF09D0066045E101CFF117C0E900614A
:102F700040E101CF06803DE106703BE117F8040B0C
:102F80008DF8000000208DF80100EB46012003E0E1
:102F900057F804BB4FF0FF3061074FF0000102D437
:102FA0000DE008F10101884649450FDA8045F8DB5C
:102FB0001BF808100029F4D108E008F10101884647
:102FC0008142FADB1BF808100029F6D1DDE90F2356
:102FD000AAEB08008146214600F036F9304400EBA8
:102FE000080604E0DDE90F121BF8010B9047B8F169
:102FF0000108F7D221464846F7E00A21C4F30253FC
:103000004FF0000B0891022B04D001CFC117032B06
:1030100009D00AE0FF1D27F00707F7E8020108E0E2
:1030200032E01FE020E000B2C117042B01D140B212
:10303000C117031E71F1000307DA4FF0000CD0EB4B
:103040000C006CEB01012D2302E0230504D52B239A
:103050008DF82430012303E0E30701D02023F7E7B4
:10306000984658E00A2110E010210EE010204FF0A1
:10307000000B08900CE010214FF0000B44F004040A
:103080004FF00809089103E008214FF0000B089168
:10309000C4F30253022B04D001CF0021032B06D02E
:1030A00006E0FF1D27F00707F7E8020103E080B202
:1030B000042B00D1C0B24FF0000823072BD5702A93
:1030C00007D0DDF820C08CF0100C5CEA0B0C05D0AA
:1030D0000EE040238DF82430012308E050EA01037C
:1030E00006D030238DF824308DF825200223984611
:1030F000DDF820C08CF0080C5CEA0B0C0BD150EA18
:10310000010301D1630706D530238DF824304FF039
:103110000108A9F10109582A04D038A20B9208AA83
:103120000A920BE03AA2F9E75B46089AFDF79EFB8C
:103130000B9B9B5C0A9A521E0A92137050EA010282
:10314000F2D10A98ADEB000000F1200B600702D528
:1031500024F4803401E04FF00109D94502DDA9EBE8
:103160000B0000E0002000EB0B0141440890AAEBAB
:10317000010AE00306D4DDE90F232146504600F0A2
:1031800063F806444FF0000908E009A911F80900A6
:10319000DDE90F12904709F10109761CC145F4DB06
:1031A000E0030CD5DDE90F232146504600F04CF832
:1031B000064404E0DDE90F1230209047761C0899A0
:1031C000481E08900029F5DC08E00A980A99007862
:1031D000491C0A91DDE90F129047761CBBF10001F2
:1031E000ABF1010BF1DC21465046DDE90F2300F085
:1031F00019F806446D1C1BE60928010030313233F2
:103200003435363738396162636465660000000022
:10321000303132333435363738394142434445460C
:10322000000000002DE9F041044600251E46174627
:10323000880404D405E039462020B0476D1C641E84
:10324000F9D52846BDE8F0812DE9F0410446002576
:103250001E469046C80301D5302700E02027880489
:1032600004D505E041463846B0476D1C641EF9D5CB
:103270002846BDE8F081000000B587B001214FF479
:103280008260FEF715FA4FF40040FEF7F5F91020C2
:10329000ADF8040000208DF8070001A91748FDF7DC
:1032A0009BFE1748FDF70EFC002002908DF80C00E5
:1032B0008DF80D004FF4602004900020059001204F
:1032C0008DF8180002A90E48FDF74CFC01210C48AE
:1032D000FDF7ECFB0A48FDF7C9FC00BF0848FDF705
:1032E00036FC0028FAD10648FDF7D0FC00BF0448A0
:1032F000FDF716FC0028FAD107B000BD0010014010
:10330000002801402DE9F04105460E463146284689
:10331000FCF7A0FF044610492046FDF79DFA09D8A6
:103320000D492046FCF7E8FF07460C49FCF792FFE1
:1033300004460DE009492046FDF784FA08D82146E5
:103340000648FCF7D9FF07460349FCF7D8FF0446B7
:103350002046BDE8F081000000003443000034C383
:1033600070B50948017A407A41EA002004B220464B
:10337000FDF7C0F905460549FCF7F6FF024948612B
:103380000846048370BD0000DC0000200000C84235
:1033900023480179407941EA002000B221490880A0
:1033A0001F488179C07941EA002000B21D49488058
:1033B0001B48017A407A41EA002000B2194988800E
:1033C0001748817AC07A41EA002000B21549C880C6
:1033D0001348017B407B41EA002000B2114908817B
:1033E0000F48807B40B288720D48C17B007C41EA67
:1033F000002000B20B4988810846B0F90000B1F9FD
:10340000021008440749B1F9041008440549B1F90C
:103410000610884201D0002070470120FCE7000020
:10342000DC000020F800002010B50C48007800B93E
:1034300010BD002009490870084640880D2800D0BA
:1034400006E0FFF7A5FF00B902E0FFF789FF00BF24
:1034500000200249488000BFEAE70000DC000020AD
:103460000148406970470000DC0000200148B0F9C5
:1034700018007047DC00002070B5044600200A499F
:10348000087040F22F15094A2946032002F04AFE2F
:10349000054840880D2806DA03494888411C024A3D
:1034A0005180111D0C5470BDDC000020E534000873
:1034B00010B54FF400510A48FDF76DFE0A2000F0E8
:1034C00077FA4FF400510648FDF763FE0A2000F03A
:1034D0006FFA4FF400510248FDF75DFE10BD000089
:1034E000000C014010B5012002490870FFF79CFF55
:1034F00010BD0000DC0000200022002100BF07E01A
:10350000074B5B5C012B01D1531CDAB24B1CD9B2C7
:103510001429F5DB022A01DB012000E000207047BE
:103520004406002010B51248007800B910BD0320F1
:1035300000F0C2FE04464FF07E51FDF78DF905D82C
:1035400001210B48026A0C30815404E00021084834
:10355000026A0C3081540648006A401C0449086223
:103560000846006A142801D30020086200BFDDE786
:103570003806002030B504460D46FF21FF22002307
:1035800007E0E05C084480B20146104482B2581C57
:10359000C3B2AB42F5DBC8B200EB2121D0B200EBE5
:1035A000222241EA022080B230BD00002DE9F0471E
:1035B000002400BF00210D460E4600BF0EE0002093
:1035C00000F0BEFD8146FDF70DF907462A46334659
:1035D000FCF708FF05460E46601CC4B2322CEEDB39
:1035E0000022294B28463146FDF715F80746FDF71E
:1035F0000CF92649486000210D460E4600240EE0D5
:10360000012000F09DFD8146FDF7ECF807462A46B3
:103610003346FCF7E7FE05460E46601CC4B2322C6A
:10362000EEDB0022184B28463146FCF7F4FF074634
:10363000FDF7EBF81549086100210D460E46002400
:103640000EE0022000F07CFD8146FDF7CBF8074636
:103650002A463346FCF7C6FE05460E46601CC4B239
:10366000322CEEDB0022084B28463146FCF7D3FF14
:103670000746FDF7CAF80549C86105480860C860F3
:103680008861BDE8F087000000004940F005002097
:10369000CDCCCC3F10B520211948FDF771FD38B1D4
:1036A0004FF480711748FDF76BFD08B1022424E048
:1036B00020211348FDF764FD20B1FFF71DFF08B17D
:1036C00002241AE04FF480710E48FDF759FD20B135
:1036D000FFF712FF08B102240FE020210848FDF790
:1036E0004FFD08B1002408E04FF480710548FDF754
:1036F00047FD08B1012400E00324204610BD00006E
:1037000000080140001C01402DE9F04F8FB000205F
:103710000D90002403200E90EEE09DF8341020461A
:10372000E21704EBD2525212A4EB42227A4B995484
:10373000601C84B2012C05D19DF83400AA28EBD07E
:103740000024D9E0022C05D19DF83400AA28E3D04A
:103750000024D1E0032C05D19DF83400AA28DBD049
:103760000024C9E0042C11D19DF834006B49887005
:103770009DF834002528CFD09DF834003528CBD0D3
:103780009DF834004528C7D00024B5E0052C04D1AD
:103790009DF8340061490880AEE060480088083038
:1037A000A042B9DCA01FC1B25B48C01CFFF7E2FE1B
:1037B0000C90A01E5849095CE01E574A105C41EA73
:1037C00000200B90601E1146085C552803D1DDE9EE
:1037D0000B10884201D000248DE0504880782528C5
:1037E0007ED14D4880794C49497940EA01200FFA51
:1037F00080F94948007A4849C97940EA012000B275
:103800000A900A98FCF776FF45490090FCF77AFD8C
:1038100044490190FCF7A8FD80464349FCF772FD3E
:103820000746FCF7DFFFCDE904014FEA4900FCF74A
:103830006FFF07463D4A3E4BFCF77BFECDE9020198
:10384000DDE90423FCF76FFE00223A4BCDE90601C7
:10385000FCF76FFE05460022374BFCF76AFE8246F6
:10386000FCF7A1FF00B209900A98FCF743FF2C492E
:103870000090FCF747FD2B490190FCF775FD83464E
:103880002949FCF73FFD8246FCF7ACFFCDE9040176
:103890004FEA4900FCF73CFF8246244A244BFCF7E0
:1038A00048FECDE90201DDE90423FCF79BFD054656
:1038B0000022204BFCF73DFE074600221E4BFCF782
:1038C00038FECDE90601FCF76EFF00B208900998BA
:1038D00001F0F2FD05462946002002F0F9FA00E069
:1038E00008E0089801F0E8FD05462946012002F0AD
:1038F000EFFA00BF002400BF0DA90E9802F04AFDA8
:1039000000287FF40AAF0E9001200E9002200E9046
:103910000FB0BDE8F08F0000B40200201C000020B2
:10392000C3F54840000034431F856B3EFCA9F1D22B
:103930004D62503F0000E03F00408F4008B5062038
:103940008DF8000001208DF8010000208DF80200A4
:103950008DF803006846FDF72DFE06208DF8000067
:103960006846FDF727FE07208DF800006846FDF742
:1039700021FE08208DF800006846FDF71BFE092097
:103980008DF800006846FDF715FE0A208DF800004E
:103990006846FDF70FFE17208DF800006846FDF71A
:1039A00009FE28208DF800006846FDF703FE08BDDB
:1039B00010B504464FF47A7104FB01F000F002F8F0
:1039C00010BD000030B5084C63680021074C246826
:1039D000074DB4FBF5F404FB00F202E0024C64680E
:1039E000E11A9142FAD330BD001000E05C000020E3
:1039F00040420F0070B50546304800EB05142068C2
:103A0000804700283ED02079062802DA062020715F
:103A100052E020790C2803DA2079401C20714BE019
:103A2000A07A38B90120A07205EB4501491CC8B243
:103A300002F014F8208900283EDDE08821898842C0
:103A40000DDAE088401C80B2E0802189884233D1C1
:103A500005EB4501C91CC8B202F000F82CE0E07A81
:103A6000002829DD207B401CC0B22073E17A884207
:103A700022DB0020207305EB4501491CC8B201F090
:103A8000EDFF19E02079062802DD0620207110E004
:103A9000207918B12079401E20710AE0A07A01280F
:103AA00007D10020A07205EB4501891CC8B201F0C6
:103AB000D5FF0020E080207370BD00003827002073
:103AC000002004494870486048810872012008704D
:103AD00070470000080100201FB501210420FDF7F8
:103AE000E7FD4FF40040ADF80C0004208DF80F0006
:103AF00003A92E48FDF770FA01210846FDF7D8FD0D
:103B00000F210020FDF748FA4FF4004001900020FB
:103B10008DF8080010208DF8090001208DF80A00AA
:103B200001A8FDF7EFF928208DF800000F208DF88F
:103B3000010000208DF8020001208DF80300684686
:103B4000FDF738FD01214020FDF7B2FD0820ADF85A
:103B50000C0004208DF80F0003A91548FDF73CFA6E
:103B600001210846FDF7A4FD03210420FDF714FA06
:103B70000820019000208DF8080010208DF8090021
:103B800001208DF80A0001A8FDF7BCF909208DF885
:103B900000000F208DF8010000208DF802000120A8
:103BA0008DF803006846FDF705FD1FBD00080140C4
:103BB000001801402DE9F0417548007808B9BDE8CA
:103BC000F0817348406806280FD2DFE800F0030F49
:103BD0006387C0C800F0EAF8FFF75CFD032804D053
:103BE0006B484068401C6A494860CDE000F06CFBBF
:103BF0000446FFF74FFD664908750846007D032817
:103C00000ED000F0E7FB00F015FB6149C86003F03F
:103C1000F9FB5F49886008464068401C486038E00E
:103C20004FF07F512046FCF717FE0BD84FF0804134
:103C30002046FCF707FE05D800F0C2F800205449E2
:103C4000886126E04FF07F512046FCF7FBFD15D23E
:103C500000F0CAF84F492046FCF7F4FD19D24C4851
:103C600081698069401C4A4A9061B1F5FA7F10D39E
:103C7000002011468861042048600AE04FF080412E
:103C80002046FCF7E9FD04D200F0A4F800204049EA
:103C9000886179E003F0B6FB3D498968401AB0F5C8
:103CA000FA6F0CD200F0C6FA3949C968451A28469D
:103CB000FCF729FD04463849FCF7CEFD0DD801F08C
:103CC000EFFEFFF7CDFB3249086103F09BFB304963
:103CD000886008464068401C486055E000F0F4FAEF
:103CE0000646FFF7BDFB0746294908692B49FFF740
:103CF00009FB80463946FCF7FFFA054602F0DFFB78
:103D000004464FF08041FCF79DFD1AD94FF07E51DB
:103D10003046FCF7A1FD19D821493046FCF792FD49
:103D200014D8FFF79DFB0746194801693846FCF790
:103D3000E3FA054602F0C3FB04461A49FCF78CFD82
:103D400004D800F03DF80120114948601CE001F062
:103D500051FD0F484068401C0D49486014E000F0D8
:103D6000B3FA0446FFF796FC032809D10E49204612
:103D7000FCF772FD07D80A492046FCF763FD02D81C
:103D800001200349486000BF00BF00BF17E70000E3
:103D900098010020CDCC4C3EEA593A420000A041A7
:103DA00033335340000020419A99993F10B50621C2
:103DB000002002F08DF80621012002F089F810BDE4
:103DC00010B50621002002F083F80621012002F040
:103DD0007FF810BD10B50521002002F079F806210A
:103DE000012002F075F810BD10B50621002002F088
:103DF0006FF80521012002F06BF810BD014600208C
:103E0000044A02EBC10250680022024B03EBC103DB
:103E10005A607047080500200146024850F83100FA
:103E2000704700000805002010B5FFF787FD01F07E
:103E3000CFFF012002F040FA022002F03DFA0020FC
:103E400002F03AFA00F0DCFF4FF0E020006920F0C9
:103E500001004FF0E021086102210120FDF7ECFB99
:103E600002F09CFE4FF48030FDF7D2FC00BF312001
:103E7000FDF7A8FC0028FAD00120FDF7EFFC00BFF9
:103E80003920FDF79FFC0028FAD00220FDF7ECFC5A
:103E900000BFFDF7B5FC0828FBD14FF0E02000691A
:103EA00040F001004FF0E021086102F099FE10BDE2
:103EB0002DE9F04F99B0002453201890984817909E
:103EC000FFF7D4FA05464D201690002001F09CFA29
:103ED00000B21590012001F097FA00B21490002072
:103EE00000F0EAF98F490990FCF70CFA0A90FCF708
:103EF00046FC80B21390012000F0DEF98949099058
:103F0000FCF700FA0A90FCF73AFC86B2022000F0B7
:103F1000D3F984490990FCF7F5F90A90FCF72FFCD6
:103F200087B2032000F0C8F97E490990FCF7EAF94E
:103F30000A90FCF724FC1FFA80F8042000F0BCF97A
:103F400078490990FCF7DEF90A90FCF718FC1FFA93
:103F500080F9052000F0B0F972490990FCF7D2F918
:103F60000A90FCF70CFC1FFA80FA062000F0A4F976
:103F70006C490990FCF7C6F90A90FCF700FC1FFA9F
:103F800080FB072000F098F966490990FCF7BAF920
:103F90000A90FCF7F4FB80B21290082000F08CF934
:103FA00060490990FCF7AEF90A90FCF7E8FB80B293
:103FB0001190092000F080F95A490990FCF7A2F904
:103FC0000A90FCF7DCFB80B2109003F01BFA0F9014
:103FD000002001F011FA0E90012001F00DFA0D9071
:103FE00000F042F90C9000F053F90B90AA204C49D4
:103FF0000870487088703020C870002008711698CA
:1040000048710E98C1F806000D98C1F80A0015987D
:10401000C881149808820C98C1F812000B98C1F856
:1040200016000846458300200877FFF733FB3C491C
:1040300048770020C88381F820001398A1F8210058
:104040000846A0F82360A0F82570A0F82780A0F803
:104050002990A0F82BA0A0F82DB01298A1F82F005D
:104060001198A1F831001098A1F83300002081F8D0
:104070003500C8860887488781F83C0081F83D00F4
:1040800081F83E0081F83F000F98086400204864E2
:104090008864C86481F8500081F85100552081F887
:1040A00052001898801FC1B21798C01CFFF762FA1F
:1040B000044620121A4981F8500081F8514000BF8F
:1040C000282101A8FCF7BBF82846FCF713FB019058
:1040D0003046FCF718FB02903846FCF714FB0390BF
:1040E0004046FCF710FB04904846FCF70CFB05909B
:1040F0005046FCF708FB06905846FCF704FB079077
:104100001298FCF700FB08901198FCF7FCFA099054
:104110001098FCF7F8FA0A9019B0BDE8F08F00008B
:10412000B40400200000C84210B580210348FDF708
:1041300027F808B1012010BD0020FCE7001C014059
:104140002DE9F0410446002524B1012C24D0022C95
:1041500066D143E00723012219463348FCF72AFDC4
:1041600001213148FCF787FD00BF02212E48FCF7F2
:10417000E5FC0028F9D02C48FCF7DCFC8046FCF775
:10418000C2FA07462949FCF7BDF806464FF08B41B5
:10419000FCF7EAF8054643E00723012206212248FE
:1041A000FCF708FD01212048FCF765FD00BF022156
:1041B0001D48FCF7C3FC0028F9D01B48FCF7BAFCEB
:1041C0008046FCF7A0FA07461849FCF79BF806461C
:1041D0004FF08B41FCF7C8F8054621E00723012288
:1041E00019461348FCF7E6FC01211148FCF743FD92
:1041F00000BF02210E48FCF7A1FC0028F9D00C48B2
:10420000FCF798FC8046FCF77EFA07460749FCF766
:1042100079F806464FF08B41FCF7A6F8054600BF3B
:1042200000BF2846BDE8F0810028014033335340E9
:10423000003C01402DE9F0410020FFF7EDFD024672
:104240000120FFF7E9FD17183846FCF75CFA06462F
:104250004FF08041FCF788F80546FCF790FA0446D9
:104260002046BDE8F08100002DE9F04106480669CE
:1042700041690022054B3046FCF75BF90446FCF728
:1042800092FABDE8F0810000A005002000408F40B8
:104290002DE9F04106488669C1690022054B304688
:1042A000FCF747F90446FCF77EFABDE8F081000010
:1042B000A005002000408F400146024850F8210030
:1042C00070470000640100200148406A7047000008
:1042D000640100200B48807A0A4AD27A904201D1C8
:1042E000002070470748807A064A115C1046807AA1
:1042F000401CC0B290720A2801DB00209072084670
:10430000EFE70000D827002001460020244A914210
:1043100001D1C81442E0234A914201D148143DE042
:10432000214A914202D14FF4002037E01F4A9142C6
:1043300002D14FF4801031E01D4A914202D14FF476
:1043400000102BE0B1F1804F01D1012026E0194A85
:10435000914201D1022021E0174A914201D104206B
:104360001CE0164A914201D1082017E0144A9142FC
:1043700001D1102012E0134A914201D120200DE01A
:10438000114A914201D1402008E0104A914201D1E6
:10439000802003E00E4A914200D18815704700004A
:1043A000002C014000340140004C0140005001400D
:1043B000005401400004004000080040000C004090
:1043C000001000400014004000180040001C004095
:1043D0000020004010B56FF00501002001F078FDCD
:1043E0006FF00501012001F073FD10BD10B56FF0F5
:1043F0000301002001F06CFD6FF00301012001F0CA
:1044000067FD10BD10B500BF7E4A125C32B1012AB3
:1044100058D0022A6CD0032A53D179E0B1F52F7F0E
:104420000CDD40F24C42914208DA0123754A1354E4
:10443000002374321354121D135442E041F28832A7
:10444000914230DD00EB40036E4A3032D35C00EB2A
:1044500040040C3A135500EB40030C321A445378D5
:1044600000EB4004674A24322244537000EB4003BF
:10447000644A30321A44937800EB4004614A243293
:1044800022449370002300EB40045E4A30321355FF
:1044900000EB40042244537000EB4004594A303290
:1044A000224493700DE0584A12781AB90122564BF3
:1044B0001A7006E0544A1278012A02D10222524BA5
:1044C0001A709DE0B1F59D7F06DBB1F5167F03DA2A
:1044D00002234C4A13540AE0962905DDFA2903DA2F
:1044E0000023484A135402E00023464A135487E04D
:1044F0000A2908DD642906DA0323424A13546C3280
:1045000022F8101003E000233E4A13547CE777E0C2
:104510003C4A6C3232F810200A4493B2394A7C3259
:1045200022F81030083A125C5206130E354A7432E3
:104530001354083232F810205C2A05DD314A7C32EF
:1045400032F81020842A18DB2E4A7C3232F81020F0
:10455000CD2A0EDD2B4A7C3232F81020F52A08DAFB
:10456000284A7432125C521CD3B2264A7432135455
:1045700003E00023234A135446E7224A7832125CB0
:10458000521CD3B21F4A78321354125C082A33D11A
:104590001C4A7432135C703A02F8203000237032E7
:1045A0001354703A12F82020272A06D1012300EB79
:1045B0004004144A303213551AE0124A121D12F800
:1045C0002020382A07D1012300EB40040D4A303265
:1045D000224453700CE00B4A121D12F82020162AB8
:1045E00006D1012300EB4004064A30322244937086
:1045F0000023044A135403E00223024A135400BF69
:1046000000BF10BDF02700204400002010B588B086
:1046100001211020FDF74CF801210220FDF738F8A8
:1046200001210846FDF744F801214D48FCF760FDE3
:1046300003208DF81E0004208DF81F004FF47070C9
:10464000ADF81C0007A94748FCF7C6FC1D208DF8F3
:10465000180000208DF819008DF81A0001208DF83F
:104660001B0006A8FCF7A6FF40F2CF244FF6FF7010
:10467000ADF81000ADF80C400020ADF81200ADF818
:104680000E008DF8140003A93748FDF7D1FD022074
:10469000ADF802000120ADF804000020ADF80600DE
:1046A000ADF80800ADF8000069462F48FDF7D0FBD3
:1046B0000420ADF8000069462B48FDF7C9FB08202F
:1046C000ADF8000069462848FDF7C2FB0C20ADF8A4
:1046D000000069462448FDF7BBFB01220221224865
:1046E000FDF70CFC012204211F48FDF707FC012205
:1046F00008211D48FDF702FC012210211A48FDF790
:10470000FDFB012211461848FDF7F8FB0020174970
:1047100008800872012081F82000002048800021D4
:1047200012484172012180F8211000200F49888031
:1047300000210E488172012180F8221000200B49CF
:10474000C88000210948C172012180F8231000F0BF
:10475000B1F801210448FDF73EFB08B010BD000090
:10476000000C1A000010014000040040E82700205F
:1047700070B588B00446474B0FCB04AD0FC5002180
:10478000454820F8141024B94448FDF73FFB05467E
:1047900013E0012C04D14148FDF73BFB05460CE03A
:1047A000022C04D13D48FDF737FB054605E0032CFC
:1047B00003D13A48FDF733FB05463748001F005D3B
:1047C000C8B904A830F8240080B2ADF80400022073
:1047D000ADF806000120ADF808000020ADF80A0091
:1047E000ADF80C0001A92D48FDF732FB01212A4844
:1047F000001F015519E004A830F8240080B2ADF87C
:1048000004000020ADF806000120ADF808000020EB
:10481000ADF80A00ADF80C0001A92048FDF718FB1F
:1048200000211D48001F015500BF1B48243830F8E7
:104830001400A84206DC1848243830F81400281A5E
:1048400086B20EE01448243830F81400A84208DD7F
:104850001148243830F814004FF6FF71081A284424
:1048600086B20D481C38005D50B90B48243830F82A
:10487000140028B90848243820F8145008B070BD36
:104880000548243820F8145031462046FFF7BAFD79
:1048900000BFF3E77C7700080C28002000040040EC
:1048A000024602EB420302481844405C7047000095
:1048B000142800200020084948640021064881642B
:1048C000C164016541658165C165016641668166B6
:1048D000C166016770470000E827002010B588B066
:1048E0000446284B0FCBCDE90623CDE90401264829
:1048F00030F81400022842DA234830F81400401C33
:1049000081B2214820F81410022938D104A830F8C7
:10491000240080B2ADF804000220ADF806000120AA
:10492000ADF808000020ADF80A00ADF80C0001A9B0
:104930001648FDF78DFA01211348001F015500218B
:104940001838015504EB44022430815404EB44022E
:104950001044417004EB44020B480830104481704D
:1049600004EB440208481430815404EB4402104420
:10497000417004EB4402044814301044817008B0C4
:1049800010BD00006C7700080C28002000040040D7
:1049900010B501210220FCF737FA4FF44070FCF704
:1049A00041FE00F04FF900F03BF800F01BFB00F077
:1049B00095FC00F0B1FA00F03FFB002001F09EFCF6
:1049C0004FF47A70FEF7F4FF012001F097FC02200B
:1049D00001F094FC00F0C6F900F08EF900F054F9F3
:1049E00000F0D0FA002000F0DBFA012000F0D8FA45
:1049F00000F008F900F056FB00F00AFB00F036F971
:104A0000FFF704FE00F022F801A0FDF7A7FE10BD9D
:104A1000B3F5CABCBBAFCDEAB1CF0D0A00000000B0
:104A200008B501210820FCF743FE03208DF80200A1
:104A300014208DF803004FF40050ADF800006946D3
:104A40000148FCF7C9FA08BD000C014000B587B069
:104A5000012140F20440FCF72BFE4FF40040FCF72C
:104A60000BFE8020ADF8040000208DF8070001A99E
:104A70006048FCF7B1FA6048FCF724F80020029087
:104A80008DF80C008DF80D004FF46020049000208C
:104A9000059001208DF8180002A95748FCF762F82C
:104AA00001215548FCF702F85348FCF7DFF800BF36
:104AB0005148FCF74CF80028FAD14F48FCF7E6F8CB
:104AC00000BF4D48FCF72CF80028FAD1072301223B
:104AD00019464948FCF76EF8012140F20440FCF702
:104AE000E7FD4FF40040FCF7C7FD4020ADF804009F
:104AF00000208DF8070001A93E48FCF76DFA3E48FA
:104B0000FBF7E0FF002002908DF80C008DF80D00FF
:104B10004FF4602004900020059001208DF81800CB
:104B200002A93548FCF71EF801213348FBF7BEFF08
:104B30003148FCF79BF800BF2F48FCF708F8002825
:104B4000FAD12D48FCF7A2F800BF2B48FBF7E8FF8D
:104B50000028FAD10723012206212748FCF72AF86A
:104B6000012148F28000FCF7A3FD4FF40040FCF760
:104B700083FD4FF40070ADF8040000208DF80700AD
:104B800001A91E48FCF728FA1D48FBF79BFF0020EF
:104B900002908DF80C008DF80D004FF46020049009
:104BA0000020059001208DF8180002A91448FBF799
:104BB000D9FF01211248FBF779FF1148FCF756F89D
:104BC00000BF0F48FBF7C3FF0028FAD10C48FCF7E1
:104BD0005DF800BF0A48FBF7A3FF0028FAD10723BE
:104BE000012219460648FBF7E5FFFEF7DFFC07B098
:104BF00000BD00000008014000280140001C0140E9
:104C0000003C014008B501218420FCF751FD032040
:104C10008DF8020048208DF803002020ADF8000038
:104C200069460648FCF7D8F94FF48070ADF80000EB
:104C300069460348FCF7D0F908BD000000080140B0
:104C4000001C01400748006840F08070054908607A
:104C50000020054948600846006840F001000860EF
:104C600070470000FCED00E0001000E010B5FEF71A
:104C700003FB0020034908704870486048810872AF
:104C800010BD00000801002010B500F030F810BD84
:104C900010B5FFF7C5FE00F0A5F900F01FFB00F00E
:104CA0003BF900F0C9F9002001F028FB012001F0D8
:104CB00025FB022001F022FB00F054F800F01CF864
:104CC000FFF7E2FF00F05EF9002000F069F9012033
:104CD00000F066F9FFF796FF00F0E4F900F098F9AC
:104CE000FFF7C4FFFFF792FCFFF7B0FE10BD10B551
:104CF000FEF7F2FE10BD00007FB501210820FCF791
:104D0000C7FC1548006846081448B6FBF0F085B2A9
:104D10004FF6FF74ADF80840ADF804500020ADF830
:104D20000A00ADF8060001A90D48FDF781FA01213E
:104D30000B48FDF750F832208DF8000004208DF864
:104D4000010000208DF8020001208DF80300684664
:104D5000FCF730FC7FBD00005C00002040420F00EB
:104D6000000C004010B500F081F800F001F810BD13
:104D700008B50121C420FCF79BFC03208DF802003C
:104D800048208DF803008020ADF8000069461B48DC
:104D9000FCF722F94FF48070ADF80000694617481F
:104DA000FCF71AF94FF48060ADF80000694613482B
:104DB000FCF712F98020ADF8000069460F48FCF7B7
:104DC0000BF98020ADF8000069460C48FCF704F9A7
:104DD0008020ADF8000069460848FCF7FDF8802007
:104DE000ADF8000069460548FCF7F6F88020ADF8FC
:104DF000000069460148FCF7EFF808BD00180140C3
:104E00001FB501210807FCF743FC01214120FCF7F5
:104E10004FFC8020ADF80C0048208DF80F0003A94E
:104E20001148FCF7D9F807210420FCF7B5F88020D9
:104E3000019000208DF808000C208DF80900012059
:104E40008DF80A0001A8FCF75DF817208DF8000026
:104E500000208DF801008DF8020001208DF803007C
:104E60006846FCF7A7FB1FBD0018014000211E4A41
:104E70009172D1721173002018E050211B4A02EB8D
:104E8000001211810321194A02EB00121171002155
:104E9000164A02EB00129172144A02EB0012D17210
:104EA000124A02EB00121173411CC8B20A28E4DB5B
:104EB00050210E4A11810021D1720D4911600D4916
:104EC00011610D4911620D4911630D4911640D49BC
:104ED00011650D4911660D4911670D49C2F8801021
:104EE0000C49C2F890107047D827002038270020BE
:104EF00059140008B1140008DD1400080915000851
:104F00002115000839150008511500086915000819
:104F1000811500088514000808B501218020FCF7E0
:104F2000C7FB012000F008FA022000F005FA032078
:104F300000F002FA042000F0FFF903208DF80200CF
:104F400010208DF803000820ADF8000069460C48D9
:104F5000FCF742F80420ADF8000069460848FCF769
:104F60003BF80220ADF8000069460548FCF734F82C
:104F70000820ADF8000069460148FCF72DF808BD8F
:104F8000001C014010B5002140F60F6000F0B0F8A1
:104F9000002140F60F6000F02BF900F0A7F910BDDA
:104FA00058B90D490D4A11600D49516000219160B9
:104FB000D1601161516191610DE001280BD1064969
:104FC000064AD161064A05490A6200224A628A629B
:104FD000CA620A634A63704700001643180500203E
:104FE0000000704208B501210802FCF761FB0320B4
:104FF0008DF8020010208DF803000220ADF80000AB
:1050000069460248FBF7E8FF08BD000000200140A8
:1050100000200849087048608860052008734873BC
:10502000032088730B20C8730020087448748874A8
:10503000C87470471406002008B50121C020FCF791
:1050400037FB002001F038F9012001F035F902208A
:1050500001F032F903208DF8020010208DF80300D2
:10506000C002ADF8000069460B48FBF7B5FF1420FD
:105070008DF803000120ADF8000069460748FBF7F2
:10508000ABFF10208DF803004001ADF80000694629
:105090000348FBF7A1FF08BD00180140001C0140B8
:1050A0000008014008B501212020FCF701FB032086
:1050B0008DF8020010208DF803000220ADF80000EA
:1050C00069460A48FBF788FF0420ADF800006946EE
:1050D0000648FBF781FF28208DF803000120ADF87A
:1050E000000069460148FBF777FF08BD0014014046
:1050F00030B589B005460C460121C802FCF7D8FA44
:1051000001214120FCF7D4FA01213648FBF7F0FFDA
:105110004FF4D440ADF8200018208DF82300032070
:105120008DF8220008A93048FBF756FFADF808506B
:10513000ADF804400020ADF80A00ADF8060001A962
:105140002A48FDF775F86020ADF810000120ADF891
:1051500012000020ADF81800ADF81400ADF81A00E8
:10516000ADF81C00ADF81E0004A92048FCF7D0FEE5
:1051700008211E48FCF718FF04A91C48FCF71EFF75
:1051800008211A48FCF76CFF04A91848FCF776FFC1
:1051900008211648FCF7C2FF04A91448FCF7C8FF11
:1051A00008211248FDF702F801211048FCF713FE10
:1051B00001210E48FCF71BFE4FF461610B48FDF71F
:1051C00002F84FF461610948FCF7FFFF4FF4616199
:1051D0000648FCF7FCFF4FF461610448FCF7F9FF57
:1051E00009B030BDC000160000180140002C01407D
:1051F00030B589B005460C4601210420FCF748FA79
:1052000001212120FCF754FA01210803FBF770FF6C
:105210004FF47040ADF8200018208DF823000320D3
:105220008DF8220008A92B48FBF7D6FEADF80850F0
:10523000ADF804400020ADF80A00ADF8060001A961
:105240002548FCF7F5FF6020ADF810000120ADF80F
:1052500012000020ADF8180004A91F48FCF758FE02
:1052600008211D48FCF7A0FE04A91B48FCF7A6FE78
:1052700008211948FCF7F4FE04A91748FCF7FEFEC4
:1052800008211548FCF74AFF04A91348FCF750FF12
:1052900008211148FCF78AFF01210F48FCF79BFD0C
:1052A00001210D48FCF7A3FD4FF461610A48FCF7AA
:1052B0008AFF4FF461610848FCF787FF4FF4616192
:1052C0000548FCF784FF4FF461610348FCF781FF58
:1052D00009B030BD001401400008004010B5FDF7D2
:1052E000C3F9FBF787FFFBF751FD10BD08B501219E
:1052F0000420FCF7DDF903208DF8020010208DF862
:1053000003000120ADF8000069460448FBF764FE85
:1053100001210248FBF73DFF08BD000000080140E5
:1053200010B5002404E02046FEF764FB601CC4B204
:105330000A2CF8DB10BD0000411EC8B218B90821C4
:105340000A4A116010E0012803D10421074A1160C4
:105350000AE0022803D10221044A116004E0032874
:1053600002D10821014A116070470000101C014061
:10537000012806D11049096881F008010E4A116020
:1053800019E0022806D10C49096881F004010A4A93
:10539000116010E0032806D10749096881F0020175
:1053A000054A116007E0042805D10349096881F026
:1053B0000801014A116070470C1C014010B50446F9
:1053C00054B94FF461610B48FCF701FF4FF4616180
:1053D0000848FCF7FEFE0BE0012C09D14FF4616197
:1053E0000448FCF7F0FE4FF461610248FCF7EDFE63
:1053F00010BD0000002C01400146024850F8210079
:1054000070470000280000202DE9F04705460024E1
:105410000026002700BF09E005EB85000B4901EBE2
:10542000C00050F824000644601CC4B20A2CF3DB10
:105430003046FBF75FF981460549FAF795FF80464C
:10544000FBF784F907463846BDE8F0875005002091
:105450000000204170B506460C46154616B1012ED7
:1054600026D112E044B900211248FCF7B0FE2946CB
:105470001048FCF7AEFE07E029460E48FCF7A7FEF1
:1054800000210C48FCF7A5FE12E044B100210948B8
:10549000FCF799FE29460748FCF797FE07E02946E6
:1054A0000448FCF790FE00210248FCF78EFE00BF86
:1054B00000BF70BD002C01402DE9F04104460025DD
:1054C000002614B90020BDE8F0812046FBF712F950
:1054D00080461449FAF716FF07461349FAF744FFC6
:1054E000064600213046FBF7B7F907D24FF07E5150
:1054F0003046FBF7A7F901D8012510E00B493046EB
:10550000FBF7AAF907D800213046FBF79BF902D236
:105510004FF0FF3503E03046FBF718F90546284603
:10552000D1E700000000404100007A43000080BF46
:1055300030B90021074A9160D1601161916107E0A3
:10554000012805D1002203494A628A62CA624A637D
:1055500070470000180500202DE9F04705460E466B
:1055600014462CB92846FFF729FF2846FFF7E0FF2D
:10557000002C00DA7642884850F8250030448649ED
:1055800041F825003046FBF7B5F881468349FAF724
:10559000EBFE80468249FAF7B5FE0746FBF7D6F8E0
:1055A00080494A5D495D491C7E4B595505EB850193
:1055B0007D4B03EBC10141F822007A48405D0A2887
:1055C00002DB002077494855002D71D1002C6FD0A7
:1055D0007648806910B97548846118E02046FBF769
:1055E00089F8804671498869FBF784F8814641460D
:1055F000FAF7BAFE07460021FBF724F907D228463E
:10560000FFF7DCFE2846FFF793FFBDE8F087301B6D
:10561000FBF770F8654988600A4691685068FAF7A8
:1056200071FE8146614AD1689068FAF765FE82464C
:105630005E4801685046FAF765FE80464946FAF72B
:1056400009FE0746594801693846FAF703FE5749EB
:10565000086108468068C8600869FBF777F88046EB
:1056600000F00CFA0746FBF745F850490861304650
:1056700000F030FF0746204600F02CFF381A0428BF
:1056800002DB2846FFF754FF48490869FBF75EF83C
:10569000804600F01FFF87B2002C01DC012000E0F3
:1056A000002001463A460020FFF7D4FE72E0FFE7F3
:1056B000012D6FD1002C6DD03C48406B10B93B4898
:1056C000446317E02046FBF715F880463749486BDE
:1056D000FBF710F881464146FAF746FE07460021DF
:1056E000FBF7B0F806D22846FFF768FE2846FFF71A
:1056F0001FFF8AE7301BFAF7FDFF2C4948620A4674
:10570000516A106AFAF7FEFD8146284A916A506A8A
:10571000FAF7F2FD82462548C1695046FAF7F2FDD4
:1057200080464946FAF796FD07462048C16A384642
:10573000FAF790FD1D49C8620846416A8162014638
:10574000C86AFBF703F8804600F098F90746FAF7B5
:10575000D1FF1649C862304600F0BCFE074620461D
:1057600000F0B8FE381A042802DB2846FFF7E0FEF6
:105770000E49C86AFAF7EAFF804600F0ABFE87B22E
:10578000002C01DC012000E0002001463A46012007
:10579000FFF760FE00BF38E728000020000040410E
:1057A00000007A433000002050050020180500203A
:1057B00010B50020FEF722FB044608484269214646
:1057C0000020FFF7C9FE0120FEF718FB044603483E
:1057D000026B21460120FFF7BFFE10BD1805002017
:1057E00010B50021084600F073FB0421012000F0F1
:1057F0006FFB10BD10B50621002000F069FB0021F1
:10580000012000F065FB10BD10B50421002000F060
:105810005FFB0021012000F05BFB10BD2DE9F04F84
:1058200089B0884890F8490010B909B0BDE8F08FF8
:10583000844890F8480020B101280DD002287DD17D
:10584000EEE001F0DFFD7F494863084690F848002C
:10585000401C81F8480000BF7A48406B79490863D2
:10586000886AC96A774A106251621046016C406CBE
:105870009163D06310460169406911605060114620
:105880008869C9699060D16001F0BCFD6D494863C9
:105890000020FFF7B9FD80460120FFF7B5FD08EBBA
:1058A00000073846FAF726FF06464FF07C51FAF714
:1058B00029FD05466449FAF725FD0446FAF792FFEB
:1058C000604A9062D162FDF7D1FD8046FAF712FF7F
:1058D00007465E49FAF716FD06465D49FAF712FDDE
:1058E00005465C49FAF740FD0446FAF77BFF554A46
:1058F000106451641146496B126B881AFAF719FF4C
:10590000804689464F48826BC16B104600F070FD9F
:1059100004464C48066A436A32462046FAF709FEB6
:10592000CDE902014748026C416C104600F060FD71
:1059300004460D4643498E6ACB6A00E07EE032465B
:105940002946FAF7F6FDCDE90001DDE90223FAF771
:1059500049FD42464B46CDE90401FAF7EAFD82468D
:105960004FF060423C4BFAF7E4FDCDE906013549C2
:105970000C684B6822460799FAF734FD314A1061EA
:1059800051611146496B126B881AFAF7D2FE8046B4
:1059900089462C498A6BC96B104601F065F80446AC
:1059A0002848066A436A32462046FAF7C2FDCDE926
:1059B00002012448026C416C104601F055F804467F
:1059C0002048866AC36A32462046FAF7B2FDCDE91E
:1059D0000001DDE90223FAF705FD824642464B4607
:1059E000FAF7A7FD4FF060421B4BCDE90401FAF72F
:1059F000A0FDCDE9060113498C68CB6822460799C2
:105A0000FAF7F0FC0F4A9061D16101F0FBFC0D49FF
:105A1000C864084690F84800401C81F848000DE032
:105A200001F0F0FC0749C96C401A142805D300F0B6
:105A3000B7F90120034981F8480000BF00BF00BF4B
:105A4000F3E60000A00500206F12833AC3F548403A
:105A50000AD7233C000034434D62403F0649C97ACF
:105A6000054A50541146C97A491CC9B2D1720A2953
:105A700001DB0021D1727047D827002001460020A9
:105A8000B1F5616F02DB4FF4616005E011F5616F04
:105A900001DC024800E0084670470000F0F1FFFF1B
:105AA00010B56FF00401002000F012FA052101206A
:105AB00000F00EFA10BD000010B5A448007800B93F
:105AC00010BDFEF731FB68B1A1A0FCF747FE002135
:105AD000084600F0FDF90021012000F0F9F900F07E
