:020000040800F2
:1000000028E00020E9010008891D010881C80008D6
:10001000D11B0108D52E0008C98D01080000000081
:100020000000000000000000000000004501000882
:1000300011A400080000000089010008CD7E01081D
:10004000030200080302000803020008030200087C
:10005000030200080302000803020008030200086C
:1000600003020008B9A80008030200080302000800
:10007000030200080302000803020008030200084C
:10008000030200080302000803020008030200083C
:10009000030200080302000803020008E1A80008A8
:1000A000030200080302000803020008030200081C
:1000B000030200082581010803020008030200086A
:1000C00003020008030200080302000803020008FC
:1000D0000302000803020008CD880108D98801083E
:1000E0008DA80008030200080302000803020008AC
:1000F00003020008030200080302000803020008CC
:100100000302000803020008C1810108030200087D
:10011000B5880108C1880108598201080302000856
:10012000030200080302000803020008030200089B
:10013000DFF80CD000F09AFD00480047352C02088B
:1001400028E00020204B19680868B0E8F00F80F321
:100150000988BFF36F8F4FF0000080F311884EF0D5
:100160000D0E70470000000006480068006880F32C
:10017000088862B661B6BFF34F8FBFF36F8F00DFA1
:1001800000BF00BF08ED00E0EFF30980BFF36F8F01
:100190000D4B1A6820E9F00F106008B54FF0F00021
:1001A00080F3118824F04AFE4FF0000080F311889C
:1001B000BDE8084019680868B0E8F00F80F30988C6
:1001C000BFF36F8F704700BF84020020EFF31180F0
:1001D0004FF0F00181F31188704780F31188704768
:1001E000EFF3058070470000064880470648004747
:1001F000FEE7FEE7FEE7FEE7FEE7FEE7FEE7FEE7D7
:10020000FEE7FEE7F17E0108310100080649074AD2
:100210000868504343F239021044086040087047B0
:100220000149086070470000240300206D4EC6415C
:1002300040EA01039B0703D009E008C9121F08C068
:10024000042AFAD203E011F8013B00F8013B521EE8
:10025000F9D27047D2B201E000F8012B491EFBD25F
:1002600070470022F6E710B513460A4604461946C1
:10027000FFF7F0FF204610BD30B5044600200346CE
:1002800000E05B1C934203D2E05CCD5C401BF8D0E5
:1002900030BDF0B480EA0102D40F4200B2EB410F4E
:1002A00002D20246084611464A0042D0C30DDDB2D2
:1002B000C1F3C752AD1A202D35DAC1F3160141F44E
:1002C000000204B15242C5F1200602FA06F12A41A9
:1002D0001044B3EBD05F23D0C4B1012DA0EBC350C9
:1002E00009DCF0BC4FF0004202EAC352DBB200F579
:1002F000000000F0C6BB400000F1807000EBC3506E
:10030000A0F1807040EAD170490009E0490841EA53
:10031000C071A0EBC35000F50000400800EBC350D3
:10032000F0BC00F0A5BB6142012202EB4101001BC1
:10033000F6E7F0BC704781F00041AAE780F000408A
:10034000A7E780EA010210B502F00043400022D086
:100350004A001FD0010E01EB1261C0F35600C2F338
:10036000560240F4000042F40002A0FB0220000408
:100370007F39140400D0401C50EA124001D44000E0
:10038000491EC2B20C0604EBD010401C4008802A63
:1003900002D003E0002010BD20F00100002900DAA7
:1003A0000020184310BD30B480EA010202F000457D
:1003B00030F0004221F0004013D090B1C30DD40DB5
:1003C000C2F31601C0F31600E41A41F4000140F430
:1003D00000027D34914201D3641C00E04900002CEE
:1003E00002DA30BC002070474FF400000023914235
:1003F00001D3891A034340084FEA4101F7D151B1B3
:10040000914202D14FF0004105E002D24FF00101CC
:1004100001E06FF0010103EBC450284430BC00F050
:1004200027BB420005D0C0F3C7525242914201DCC3
:100430000020704700EBC15070472DE9FE4F804609
:1004400081EA0300C00F0C46009021F0004123F028
:100450000045B8EB0200A94105D24046214690462E
:100460001C460B46024623F00040104347D0270DA0
:10047000C7F30A00C3F30A510290401A01904028C2
:100480006BDAC3F3130040F4801B0098924620B14E
:100490000023D2EB030A63EB0B0B01985946C0F122
:1004A0004002504600F0B3FA06460D465046594603
:1004B000019A00F0CBFA10EB08006141002487EAB2
:1004C000115284EAE7731A4340D0009A62B3019A4A
:1004D000012A4FEA075215DC001B61EB02014FF0C5
:1004E000004202EA0752CDE90042001C41F58011AA
:1004F00032462B4600F002FB03B0BDE8F08F4046C9
:100500002146F9E7001B61EB0201001C41F5801355
:1005100000185B412018A2F5001747EB030140EAE1
:10052000D570B6196D4111E06D084FEA360645EAFF
:10053000C0754FEA0752001B61EB0201001C41F538
:10054000801149084FEA30000019514132462B46CC
:1005500003B0BDE8F04F00F0C2BA0098012240009D
:100560000023D0EB020263EBE073009821464FEAD0
:10057000E074B8EB000061EB0401E9E783F00043AD
:100580005BE781F0004158E72DE9FE4F81EA030463
:1005900004F0004421F0004100944FF0000B23F0E0
:1005A000004350EA01045ED052EA03045BD0C3F377
:1005B0000A54C1F30A552C44A4F2F3340194A0FB6D
:1005C0000254C1F3130141F48011C3F3130343F444
:1005D000801301FB024400FB034E840A970A44EA9D
:1005E000815447EA8357A4FB076802958D0A05FBEF
:1005F00007854FEA932C04FB0C542705029D4FEA14
:10060000065847EA1637B5EB08056EEB070C870E60
:10061000920E47EA811742EA8312A7FB0201B6EB6A
:100620000B0164EB00042B0D43EA0C335E1844EB22
:100630001C50DA465146E7FB0201C5F313044FEAAA
:100640000B3343EA14534FEA0432019C43EA060396
:10065000A4F10C040294009CCDE900B400F04EFA21
:1006600003B0BDE8F08F00200146F9E72DE9F04D19
:1006700081EA030404F0004B21F0004514464FF0DA
:10068000000A23F0004150EA050220D054EA01029A
:100690001DD0C5F30A570246C5F31303C1F3130077
:1006A000C1F30A5640F4801543F48013A7EB060803
:1006B000101BD64608F2FD3873EB050002D308F193
:1006C000010801E092185B41B8F1000F03DA002045
:1006D0000146BDE8F08D00204FF4801106468446A7
:1006E0000EE0171B73EB050705D3121B63EB050325
:1006F00006434CEA010C49084FEA300092185B416E
:1007000050EA0107EDD152EA030012D082EA040058
:1007100083EA0501084305D0101BAB4106D2012234
:10072000002306E000224FF0004302E06FF00102D8
:1007300053101AEB06004CEB085110EB0A0041EB8A
:100740000B01BDE8F04D00F0CAB970B521F00043CF
:1007500003430CD0C1F30A550024D5EB040564EB28
:100760000403D617AD1AB34102DB0020014670BD69
:10077000201841EB025170BDC10F80EAE0700844BF
:10078000CA079623002100F07CB996230022114667
:1007900000F077B90EB5C10F80EAE0700844CA07CF
:1007A000002140F233438DE80E000A460B4600F06C
:1007B000A5F903B000BD0EB540F23341029100210E
:1007C000CDE900110A460B4600F098F903B000BDD0
:1007D00000F0004220F00040C10DC0F3160040F4CC
:1007E00000007F2901DA00207047962903DCC1F15F
:1007F0009601C84001E096398840002AF4D0404272
:10080000704720F00040C10DC0F3160040F4000016
:100810007F2901DA00207047962903DCC1F1960197
:10082000C840704796398840704770B5C1F30A5286
:1008300001F000450024C1F3130140F2FF3341F4FD
:1008400080119A4201DA002070BD40F233439A428F
:10085000A2F2334203DC524200F0E8F800E090409C
:100860002C43F1D0404270BDC1F30A5210B5C1F320
:10087000130140F2FF3341F480119A4201DA002063
:1008800010BD40F233439A42A2F2334203DC52429B
:1008900000F0CCF810BD904010BD00F0004230F0E8
:1008A00000400AD0C10D01F56071C0F3160042EAA4
:1008B0000151C208400711437047002001467047AC
:1008C00030B5041E71F1000404DB4FF000444042D7
:1008D00064EB0101141E73F1000405DB1C464FF0AC
:1008E0000043524263EB04038B4208BF824230BD97
:1008F00030B5041E71F1000404DB4FF000444042A7
:1009000064EB0101141E73F1000405DB1C464FF07B
:100910000043524263EB0403994208BF904230BD4A
:1009200001F0004330B421F0004150EA010206D04A
:100930000A0DA2F56072C1F31301002A02DC30BC7B
:1009400000207047440F44EAC104C100E01830BCE5
:1009500000EBC25000F08CB8002801DBC0F1004071
:10096000002901DBC1F1004181427047002801DB11
:10097000C0F10040002901DBC1F10041884270470D
:1009800030B50B46014600202022012409E021FA5F
:1009900002F59D4205D303FA02F5491B04FA02F55C
:1009A0002844151EA2F10102F1DC30BD2DE9F05FF3
:1009B0000546002092469B468846064681464024CE
:1009C0001BE0284641464746224600F02FF8534692
:1009D0005A46C01A914110D311461846224600F0DB
:1009E00016F82D1A67EB01084F4622460120002118
:1009F00000F00DF817EB00094E41201EA4F1010490
:100A0000DFDC484631462A464346BDE8F09F202AAF
:100A100004DB203A00FA02F1002070479140C2F155
:100A2000200320FA03F3194390407047202A04DB87
:100A3000203A21FA02F00021704721FA02F3D04057
:100A4000C2F120029140084319467047202A06DB74
:100A5000CB17203A41FA02F043EAE07306E041FA8C
:100A600002F3D040C2F1200291400843194670477A
:100A70000029A8BF7047401C490008BF20F00100B2
:100A8000704710B4B0FA80FC00FA0CF050EA010490
:100A900004BF10BC704749B1CCF1200421FA04F422
:100AA00011FA0CF118BF012121430843A3EB0C01FB
:100AB000CB1D4FEA00614FEA102042BF002010BC5E
:100AC000704700EBC35010440029A4BF10BC70470E
:100AD000401C490008BF20F0010010BC704710B551
:100AE000141E73F1000408DA401C41F10001921851
:100AF0005B411A4301D120F0010010BD2DE9F04DFA
:100B000092469B4611B1B1FA81F202E0B0FA80F24E
:100B100020329046FFF77BFF04460F4640EA0A006A
:100B200041EA0B0153465A46084313D0114653EA93
:100B3000010019D0C8F140025046FFF777FF054683
:100B40000E46504659464246FFF761FF084305D01E
:100B5000012004E020463946BDE8F08D0020054321
:100B600046EAE0762C4337430A986305E40AA0EB93
:100B700008000022FD0A44EA47540A3002D500204A
:100B80000146E9E7010510196941DDE90845001949
:100B90006941BDE8F04DA2E72DE9F04D00231A466A
:100BA0001B1A8A4103DB00200146BDE8F08DC1F32A
:100BB0000A52C1F3130141F480154FF0000BD10725
:100BC00002D100186D41521E0027044640F2FF1169
:100BD000384601EB620A3E468046024600204FF44A
:100BE0008011FFF723FFC2197141BB1846EB0100CA
:100BF000B4EB030C75EB000C04D3E41A65EB0005B1
:100C000017460E46241908F101006D41804634282C
:100C1000E3DDF91946EB0600091BA84103D24FF0AA
:100C2000FF32134601E0002213461BEB070046EBA0
:100C30000A51BDE8F04DFFF752BFC1F30A52C1F3AC
:100C4000130140F2FF3341F480119A4202DA00208E
:100C50000146704740F233439A42A2F2334202DC2B
:100C60005242FFF7E3BEFFF7D2BE0000064C074D2D
:100C700006E0E06840F0010394E80700984710346C
:100C8000AC42F6D3FFF758FAB05A0208D05A02081D
:100C900070B58C1810F8015B15F0070301D110F83E
:100CA000013B2A1106D110F8012B03E010F8016B6B
:100CB00001F8016B5B1EF9D12B0705D40023521EEE
:100CC0000DD401F8013BFAE710F8013BCB1A921C56
:100CD00003E013F8015B01F8015B521EF9D5A14254
:100CE000D8D3002070BD002904D0816841F00101F3
:100CF00081607047816821F00101816070470000C8
:100D000010B5154988420AD144150121204611F039
:100D10000DF92046BDE81040002111F007B90F4938
:100D200088420AD104150121204611F0FFF820461F
:100D3000BDE81040002111F0F9B8094988420AD1F4
:100D40000121CC03204611F0F1F82046BDE8104007
:100D5000002111F0EBB810BD002401400028014033
:100D6000003C0140014600208968490700D5012068
:100D70007047C06C80B270470246002012680A4279
:100D800000D001207047014600208968090700D57E
:100D90000120704710B542680E4B1A400C790B6861
:100DA00042EA04221343436082680B4B1A40D1E9A4
:100DB000024323434C7942EA440213438360C26AEC
:100DC00022F47002097C491EC9B242EA0151C16293
:100DD00010BD0000FFFEF0FFFDF7F1FF70B5072624
:100DE00009290AD9C568A1F10A0404EB4404A64004
:100DF000B543A3401D43C56007E0056901EB41040D
:100E0000A640B543A3401D4305611F23072A09D20D
:100E1000446B521E02EB820293409C4391400C4370
:100E2000446370BD0D2A09D2046BD21F02EB82020B
:100E300093409C4391400C43046370BDC46A0D3AD7
:100E400002EB820293409C4391400C43C46270BD0C
:100E5000816841F0080181607047002904D08168F1
:100E600041F4A00181607047816821F4A001816094
:100E70007047816841F00401816070472DE9F84FA7
:100E800004468B460027A068642190FBF1F6DFF84A
:100E900048A400255046BAF95CC00122C17900F58A
:100EA000807900F18008BCF1870F7AD017DCBCF1A3
:100EB000830F7BD009DCBCF1000F25D0BCF1810F82
:100EC00071D0BCF1820F22D122E0BCF1840F6BD033
:100ED000BCF1850F7DD0BCF1860FF4D1C4E0FF4892
:100EE000ACF1880CBCF1070F0378FB48007D00F1E2
:100EF000010E0EF0FF0ECDF800E008D2DFE80CF096
:100F0000F2F1F3EFEEEDEC008220AAF85C0059E379
:100F10009AF8250028B1D9F80400D8F87810401ABA
:100F200060609AF8020060B1D9F800002060D9F83A
:100F30000410D8F87420801A2060D8F87800081AB5
:100F400060602068FFF726FC21F03DFFE44D0022A1
:100F50002B46FFF7CDFC09D36068FFF71BFC21F09F
:100F600032FF00222B46FFF7C3FC0CD20021C9F848
:100F70001810C9F81C10C9F82010C9F824108320D3
:100F8000AAF85C001EE30021C9F81810C9F81C106B
:100F9000C9F82010C9F8241002278120AAF85C00A3
:100FA00010E340E102E0FFE2EFE212E0BBF1000FEC
:100FB00009D0BBF1010F09D002208AF81500852065
:100FC000AAF85C00FEE28AF81550F8E78AF81520C6
:100FD000F5E7DFF810B339B92068C8F83400606865
:100FE000C8F838008AF80720BF480021C9E9061070
:100FF000C9F82010C9F824102068D8F83410081A4D
:10100000FFF7C8FB21F0DFFE00225B46FFF770FC14
:101010000CD36068D8F83810081AFFF7BBFB21F032
:10102000D2FE00225B46FFF763FCABD20021C9F879
:101030001810C9F81C10C9F82010C9F824108AF833
:101040000750C8F844609AF8150028B1012807D065
:101050008820AAF85C00B5E28620AAF85C00B1E21C
:101060008720AAF85C00ADE2D8F84400801BFFF7A7
:1010700091FB21F0A8FE00229C4BFFF739FC0DD21A
:101080000020C9F81800C9F81C000021C9F8201078
:10109000C9F824108920AAF85C0093E2BBF1030F81
:1010A0000DD18E480078012809D00020C9F8180019
:1010B000C9F81C008E480021C9E9081082E200210D
:1010C000C9F81810C9F81C10C9F82010C9F8241064
:1010D0008A20AAF85C0075E2C1E1FBE1DBE02AE1CD
:1010E00001E03CE082E139B92068C8F8340060686A
:1010F000C8F838008AF807207B480021C9E90610A3
:10110000C9F82010C9F824102068D8F83410081A3B
:10111000FFF740FB21F057FE764E00223346FFF7E3
:10112000E7FB0CD36068D8F83810081AFFF732FBD9
:1011300021F049FE00223346FFF7DAFB8BD2002173
:10114000C9F81810C9F81C100020C9F82000C9F807
:1011500024008AF807508620AAF85C0032E239B9E8
:101160002168C8F834106168C8F838108AF8072078
:10117000BBF1030F12D1012B10D0042820D900217C
:10118000C9F81810C9F81C10C9F82010C9F82410A3
:101190008AF807508420AAF85C0013E20021C9F8FD
:1011A0001810C9F81C10C9F82010C9F824108AF8C2
:1011B000075000988AF814008520AAF85C0001E224
:1011C0002068D8F83410081AFFF7E4FA21F0FBFD84
:1011D000434E00223346FFF78BFB0CD36068D8F8F0
:1011E0003810081AFFF7D6FA21F0EDFD0022334639
:1011F000FFF77EFB0DD20021C9F81810C9F81C10AA
:10120000C9F82010C9F824108AF807508120AAF8DC
:101210005C0039490020C9E906010021C9F8201005
:10122000C9F82410CEE1D8F84400801BFFF7B2FAC9
:1012300021F0C9FD00222D4BFFF75AFB0DD20020F3
:10124000C9F81800C9F81C000021C9F82010C9F815
:1012500024108B20AAF85C00B4E1BBF1030F0DD180
:101260001E480078012809D00020C9F81800C9F8E4
:101270001C0022480021C9E90810A3E10021C9F897
:101280001810C9F81C10C9F82010C9F824108C20B7
:10129000AAF85C0096E139B92068C8F834006068A3
:1012A000C8F838008AF807200F490020C9E906016C
:1012B000C9F82000C9F824002068D8F83410081AAA
:1012C000FFF768FA21F07FFD0A4E00223346FFF750
:1012D0000FFB21D3606813E0B0000020A8000020BD
:1012E000000079400000344000406FC0008046405C
:1012F000000049C00000244000406F400000494009
:10130000D8F83810081AFFF745FA21F05CFD0022E2
:101310003346FFF7EDFA85D20020C9F81800C9F866
:101320001C00C9F82000C9F824008AF8075087205B
:10133000AAF85C0046E139B92168C8F83410616840
:10134000C8F838108AF80720A0490022C9E9062108
:10135000C9F82020C9F82420BBF1030F0ED1012BBE
:101360000CD0042818D90021C9F81810C9F81C108D
:101370008AF807508420AAF85C0023E10021C9F80C
:101380001810C9F81C108AF8075000988AF8140041
:101390008520AAF85C0015E12068D8F83410081AF6
:1013A000FFF7F8F921F00FFD894E00223346FFF7D1
:1013B0009FFA0CD36068D8F83810081AFFF7EAF9DA
:1013C00021F001FD00223346FFF792FA0DD20020F2
:1013D000C9F81800C9F81C00C9F82000C9F8240091
:1013E0008AF807508120AAF85C00EBE0D8F84400A6
:1013F000801BFFF7CFF921F0E6FC0022754BFFF7C9
:1014000077FA0DD20020C9F81800C9F81C00002195
:10141000C9F82010C9F824108D20AAF85C00D1E08A
:10142000BBF1030F0DD16C480078012809D00021D1
:10143000C9F81810C9F81C1068490020C9E908014A
:10144000C0E00021C9F81810C9F81C100020C9F824
:101450002000C9F824008E20AAF85C00B2E039B957
:101460002068C8F834006068C8F838008AF8072097
:101470005B480021C9E90610C9F82010C9F82410FA
:101480002068D8F83410081AFFF784F921F09BFC83
:10149000544E00223346FFF72BFA0CD36068D8F87D
:1014A0003810081AFFF776F921F08DFC0022334638
:1014B000FFF71EFA0DD20021C9F81810C9F81C1048
:1014C000C9F82010C9F824108AF807508820AAF813
:1014D0005C0077E039B92168C8F834106168C8F851
:1014E00038108AF8072039490022C9E90621C9F8CD
:1014F0002020C9F82420BBF1030F0ED1012B0CD002
:10150000032818D90021C9F81810C9F81C108AF846
:1015100007508420AAF85C0054E00021C9F8181094
:10152000C9F81C108AF8075000988AF81400852022
:10153000AAF85C0046E02068D8F83410081AFFF7D3
:1015400029F921F040FC224E00223346FFF7D0F962
:101550000CD36068D8F83810081AFFF71BF921F08F
:1015600032FC00223346FFF7C3F92BD20021C9F821
:101570001810C9F81C10C9F82010C9F824108AF8EE
:1015800007508120AAF85C001CE00021C9F818105F
:10159000C9F81C10C9F82010C9F82410AAF85C502A
:1015A0008AF8145001270DE00021C9F81810C9F875
:1015B0001C10C9F82010C9F82410AAF85C508AF849
:1015C000145001273846BDE8F88F000000406F40F6
:1015D0000000794000004E40A80000200000494073
:1015E00000406FC0000024402DE9F05F81460F46A7
:1015F0004FF00008D9F80800642190FBF1FBFB4C88
:10160000FB480121B4F9582090F800C02046DFF8CB
:10161000E4A3C07904F5807504F180065B2A7DD0CF
:1016200038DC4FF045034F2A79D028DCDFF8C8A317
:10163000F24F492A74D014DCEC484FF07807412A65
:1016400090F825C0817800F58070006869D003DCCF
:1016500022B3402A44D144E0452A7DD0482AF9D11A
:1016600020E14A3AE64DDFF89C93E74F052A37D24E
:10167000DFE812F04A0338041505F805E006503A91
:101680000B2AF4D2DFE802F0F1F0EFEEEDECEBEA3A
:10169000E9E8E7005D3A1C2AE9D200E01DE0DFE856
:1016A00012F08603EE034A04A4041F007104CB0465
:1016B00026057F051F004D05A2050A0669061F00C5
:1016C00036069606F5064E071F001B077407D0075F
:1016D0003A081F00F607610894084020A4F8580053
:1016E0004FE3BCF1000F04D06A68B36FD21AC9F897
:1016F0000420DFF818A351B1C9F800006968726FBF
:10170000801AC9F80000B06F081AC9F80400D9F8A7
:101710000000FFF73FF821F056FB03E07BE3F1E325
:10172000E7E11DE000225346FFF7E2F80AD3D9F8BB
:101730000400FFF72FF821F046FB00225346FFF785
:10174000D7F80AD24120A4F85800B1480021C5E9D1
:10175000061029626962C3E71EE0A4F85870BFE76B
:10176000E07B50B1AA480021C5E9061029626962F0
:1017700000206074A4F85830B2E7607C401CC0B20E
:101780006074042802D94FF0040801E04FF0030808
:101790000020A4F85800A3E7BCF1000F04D06A6849
:1017A000B36FD21AC9F80420DFF868A251B1C9F8A2
:1017B00000006968726F801AC9F80000B06F081ADB
:1017C000C9F80400D9F80000FEF7E4FF21F0FBFAA5
:1017D00000225346FFF774F80AD2D9F80400FEF746
:1017E000D9FF21F0F0FA00225346FFF769F803D33E
:1017F000217CE07B814202D3A4F8587070E72D2849
:1018000008D90020A4F858004FF002082074E073B3
:10181000607465E78048405C612818D0622825D054
:10182000632827D0642829D065282BD066282DD09E
:1018300067282FD0682831D0A4F858707448002247
:10184000C5E906202A626A62491C217448E74820DB
:10185000A4F85800F2E783E2FCE19FE12DE2D0E139
:1018600070E1EDE071E01EE1A2E047E04920A4F85C
:101870005800E3E74A20A4F85800DFE74B20A4F81B
:101880005800DBE74C20A4F85800D7E74D20A4F817
:101890005800D3E74E20A4F85800CFE74F20A4F813
:1018A0005800CBE75846FEF775FF0F46054621F076
:1018B0008AFA00225346FFF703F803D9ABF12E0052
:1018C000542803D25020A4F8580009E72846394686
:1018D00021F079FA0022514BFFF70AF804D30BF1FB
:1018E0008C0BBBF15F0F03D25120A4F85800F7E630
:1018F000B08870815220A4F85800F1E6ABF1850B56
:10190000BBF1050F0CD242490020C5E906010021B8
:1019100029626962B08870815220A4F85800DFE61D
:10192000032F09D1BCF1010F06D00021A961E961A3
:101930003B48C5E90810D3E60021A961E9612962A5
:1019400069625320A4F85800CAE630B9D9F80000FB
:101950007063D9F80400B063E17132480021C5E931
:10196000061029626962D9F80000716B081AFEF747
:1019700011FF21F028FA00225346FEF7B9FF0CD3DD
:10198000D9F80400B16B081AFEF704FF21F01BFA26
:1019900000225346FEF7ACFF97D20021A961E9610E
:1019A000296269620020E0715020A4F8580097E68F
:1019B000ABF1850BBBF1050F0CD215480021C5E931
:1019C0000610002028626862B08870815220A4F856
:1019D000580085E6032F29D1BCF1010F26D0002144
:1019E000A961E9611048C5E9081079E6B000002056
:1019F000A8000020000024400080464000E0654030
:101A000000E06040000044400000144000007940C5
:101A100000406F4000C08240717200200080614031
:101A20000000494000406FC0000049C00020A8618C
:101A3000E8610021296269625420A4F858004FE649
:101A400030B9D9F800007063D9F80400B063E171CF
:101A5000F9480021C5E9061029626962D9F8000039
:101A6000716B081AFEF796FE21F0ADF9002253467D
:101A7000FEF73EFF0CD3D9F80400B16B081AFEF74D
:101A800089FE21F0A0F900225346FEF731FF8ED2E5
:101A90000021A961E961296269620020E071512099
:101AA000A4F858001CE6032F0DD1BCF1010F0AD099
:101AB000B6F90400B6F90A10401AB0F5846F10DBCD
:101AC000A4F858300CE60020A861E86100212962E2
:101AD0006962A4F858004FF002082074E073607443
:101AE000FEE5D6480021C5E906100020286268629C
:101AF000F6E55846FEF74EFE8946054621F063F9A5
:101B000000223B46FEF7DCFE06D2BBF1000F03DBF2
:101B10005520A4F85800E3E52846494621F053F93A
:101B200000223B46FEF7CCFE06D2BBF1000F03DAE3
:101B30005620A4F85800D3E5B08870815720A4F847
:101B40005800CDE55846FEF725FE21F03CF900226D
:101B5000BB4BFEF7CDFE0BD2B8480021C5E90610FD
:101B600029626962B08870815720A4F85800B7E5EF
:101B7000032F0AD1B3480078012806D00020A861BD
:101B8000E861B149C5E90801AAE50021A961E96157
:101B9000296269625820A4F85800A1E530B9D9F843
:101BA00000007063D9F80400B063E171A24800211D
:101BB000C5E90610002028626862D9F80000716B40
:101BC000081AFEF7E7FD21F0FEF800225346FEF763
:101BD0008FFE0CD3D9F80400B16B081AFEF7DAFDBA
:101BE00021F0F1F800225346FEF782FE93D2002046
:101BF000A861E86128626862E0715520A4F8580085
:101C00006EE55846FEF7C6FD21F0DDF800228C4B4C
:101C1000FEF76EFE0BD289480021C5E90610296245
:101C20006962B08870815720A4F8580058E5032FE6
:101C300008D00021A961E961296269625920A4F8EC
:101C400058004DE50020A861E86180480021C5E901
:101C5000081045E530B9D9F800007063D9F80400E0
:101C6000B063E17174480021C5E906102962696218
:101C7000D9F80000716B081AFEF78CFD21F0A3F86B
:101C800000225346FEF734FE0CD3D9F80400B16BA2
:101C9000081AFEF77FFD21F096F800225346FEF762
:101CA00027FEADD20021A961E961296269620020A5
:101CB000E0715620A4F8580012E5032F0ED1BCF1B4
:101CC000010F0BD0B6F90400B6F90A10401A40F221
:101CD000F621884210DDA4F8583001E50020A86103
:101CE000E861002129626962A4F858004FF00208F7
:101CF0002074E0736074F3E450490020C5E90601E4
:101D0000002129626962EBE45846FEF743FD0F4665
:101D1000054621F058F800224D4BFEF7E9FD03D3AC
:101D2000ABF12E005E2803D85A20A4F85800D7E45F
:101D30002846394621F047F800225346FEF7C0FDF9
:101D400004D90BF1810BBBF1540F03D25B20A4F833
:101D50005800C5E4B08870815220A4F85800BFE450
:101D60000BF1890BBBF1050F0CD234480021C5E9FA
:101D70000610002028626862B08870815220A4F8A2
:101D800058000CE2032F09D1BCF1010F06D000214D
:101D9000A961E9612C48C5E9081000E20021A961A8
:101DA000E961296269625D20A4F85800F7E130B961
:101DB000D9F800007063D9F80400B063E1711E48DF
:101DC0000021C5E90610002028626862D9F80000E9
:101DD000716B081AFEF7DEFC20F0F5FF0022534677
:101DE000FEF786FD0CD3D9F80400B16B081AFEF794
:101DF000D1FC20F0E8FF00225346FEF779FD96D291
:101E00000021A961E961296269620020E0715A201C
:101E1000A4F85800C3E10BF1890BBBF1050F19D2EF
:101E200006480021C5E9061029626962B088708100
:101E30005220A4F85800B2E100406FC000406F404B
:101E400000206640A800002000004940000049C072
:101E500000806140032F09D1BCF1010F06D00021A1
:101E6000A961E961F948C5E9081098E10021A96173
:101E7000E961296269625E20A4F858008FE130B9F7
:101E8000D9F800007063D9F80400B063E171F0483C
:101E90000021C5E9061029626962D9F80000716B5A
:101EA000081AFEF777FC20F08EFF00225346FEF75B
:101EB0001FFD0CD3D9F80400B16B081AFEF76AFCB9
:101EC00020F081FF00225346FEF712FDA2D200212E
:101ED000A961E961296269620020E0715B20A4F8D0
:101EE00058005CE15846FEF755FC0F46054620F0C9
:101EF0006AFF0022D74BFEF7FBFC04D25F20A4F858
:101F000058004CE175E32846394620F05CFF00227A
:101F1000D14BFEF7D5FC04D3ABF1550BBBF10A0F47
:101F200003D86020A4F8580039E1B08870815720A8
:101F3000A4F8580033E10BF1890BBBF1050F0BD26C
:101F4000C6480021C5E9061029626962B08870811F
:101F50005720A4F8580022E1032F09D1BCF1010F4A
:101F600006D00021A961E961BD48C5E9081016E164
:101F70000021A961E9610020286268626220A4F85A
:101F800058000CE130B9D9F800007063D9F80400AA
:101F9000B063E171AE480021C5E9061029626962AB
:101FA000D9F80000716B081AFEF7F4FB20F00BFF64
:101FB00000225346FEF79CFC0CD3D9F80400B16B09
:101FC000081AFEF7E7FB20F0FEFE00225346FEF75C
:101FD0008FFC86D20020A861E86100212962696235
:101FE000E0715F20A4F85800FBE30BF1890BBBF113
:101FF000050F0BD299480021C5E9061029626962D4
:10200000B08870815720A4F85800EAE3032F0AD162
:10201000BCF1010F07D00021A961E9618B490020C3
:10202000C5E90801DDE30021A961E961296269626E
:102030006320A4F85800D4E330B9D9F800007063E5
:10204000D9F80400B063E17181480021C5E90610A8
:1020500029626962D9F80000716B081AFEF79AFBD1
:1020600020F0B1FE00225346FEF742FC0CD3D9F813
:102070000400B16B081AFEF78DFB20F0A4FE0022CD
:102080005346FEF735FCAFD20021A961E961296210
:1020900069620020E0716020A4F85800A1E358466E
:1020A000FEF778FB8A46074620F08DFE00222B467D
:1020B000FEF71EFC11D93846514620F084FE00225E
:1020C0004B46FEF7FDFB04D3ABF1280BBBF15F0FD2
:1020D00007D26520A4F8580083E36420A4F85800D0
:1020E0007FE3B08870815220A4F8580079E30BF1A7
:1020F0002F0BBBF1050F0CD258490020C5E9060192
:10210000002129626962B08870815220A4F85800C9
:1021100067E3032F09D1BCF1010F06D00021A961AB
:10212000E9614F48C5E908105BE30021A961E96155
:10213000296269626720A4F8580052E330B9D9F8DF
:1021400000007063D9F80400B063E17140480021D9
:10215000C5E9061029626962D9F80000716B081A96
:10216000FEF718FB20F02FFE00225346FEF7C0FBBF
:102170000CD3D9F80400B16B081AFEF70BFB20F062
:1021800022FE00225346FEF7B3FB87D20020A8614F
:10219000E86128626862E0716420A4F8580020E3D6
:1021A0000BF12F0BBBF1050F0BD22C480021C5E919
:1021B000061029626962B08870815220A4F8580024
:1021C0000FE3032F08D00021A961E9612962696248
:1021D0006820A4F8580004E30021A961E9611B48C4
:1021E000C5E90810FDE230B9D9F800007063D9F8EC
:1021F0000400B063E17116480021C5E906102962A8
:102200006962D9F80000716B081AFEF7C3FA20F072
:10221000DAFD00225346FEF76BFB0CD3D9F804001D
:10222000B16B081AFEF7B6FA20F0CDFD0022534636
:10223000FEF75EFBB3D20021A961E9612962696200
:102240000020E0716520A4F85800CAE2000049C0EF
:1022500000406FC000C057400040554000406F40F4
:10226000000049405846FEF795FA8946054620F099
:10227000AAFD00223B46FEF73BFB06D2BBF1000F56
:1022800003DA6920A4F85800ABE22846494620F05A
:102290009AFD00223B46FEF72BFB06D2BBF1000F56
:1022A00003DD6A20A4F858009BE2B08870815720B3
:1022B000A4F8580095E25846FEF76CFA20F083FD2A
:1022C0000022FE4BFEF7FCFA0BD2FD480021C5E9C7
:1022D000061029626962B08870815720A4F85800FE
:1022E0007FE2032F0AD1F7480078012806D00021A9
:1022F000A961E961F448C5E9081072E20021A96109
:10230000E961296269626C20A4F8580069E230B979
:10231000D9F800007063D9F80400B063E171EB48AC
:102320000021C5E9061029626962D9F80000716BC5
:10233000081AFEF72FFA20F046FD00225346FEF75A
:10234000D7FA0CD3D9F80400B16B081AFEF722FAB9
:1023500020F039FD00225346FEF7CAFA94D200203D
:10236000A861E861002129626962E0716920A4F82E
:10237000580036E25846FEF70DFA20F024FD002200
:10238000CE4BFEF79DFA0CD2CD480021C5E90610D0
:10239000002028626862B08870815720A4F8580035
:1023A0001FE2032F0AD1C7480078012806D0002178
:1023B000A961E961C648C5E9081012E20021A961D6
:1023C000E961296269626D20A4F8580009E230B918
:1023D000D9F800007063D9F80400B063E171BB481C
:1023E0000021C5E9061029626962D9F80000716B05
:1023F000081AFEF7CFF920F0E6FC00225346FEF75C
:1024000077FA0CD3D9F80400B16B081AFEF7C2F9B9
:1024100020F0D9FC00225346FEF76AFAA9D2002127
:10242000A961E961002028626862E0716A20A4F86D
:102430005800D6E15846FEF7ADF98A46074620F027
:10244000C2FC00224B46FEF73BFA03D90BF1860093
:102450005E2803D26E20A4F85800C2E138465146E7
:1024600020F0B1FC00222B46FEF742FA04D9ABF172
:10247000330BBBF1540F03D26F20A4F85800B0E126
:10248000B08870815220A4F85800AAE1ABF12B0B60
:10249000BBF1050F0BD28A480021C5E9061029625D
:1024A0006962B08870815220A4F8580099E1032F26
:1024B00009D1BCF1010F06D00021A961E961824870
:1024C000C5E908108DE10021A961E961296269620D
:1024D0007120A4F8580084E130B9D9F80000706385
:1024E000D9F80400B063E17178480021C5E906100D
:1024F00029626962D9F80000716B081AFEF74AF97F
:1025000020F061FC00225346FEF7F2F90CD3D9F813
:102510000400B16B081AFEF73DF920F054FC0022CC
:102520005346FEF7E5F909D20021A961E961296264
:1025300069620020E0716E20A4F8580051E1ABF10F
:102540002B0BBBF1050F0BD25D480021C5E906102E
:1025500029626962B08870815220A4F8580040E175
:10256000032F09D1BCF1010F06D00021A961E96157
:102570005748C5E9081034E10021A961E9612962E1
:1025800069627220A4F858002BE130B9D9F8000034
:102590007063D9F80400B063E1714C480021C5E9CB
:1025A0000610002028626862D9F80000716B081AD2
:1025B000FEF7F0F820F007FC00225346FEF798F9EA
:1025C0000CD3D9F80400B16B081AFEF7E3F820F039
:1025D000FAFB00225346FEF78BF909D20020A861CE
:1025E000E861002129626962E0716F20A4F8580057
:1025F000F7E05846FEF7CEF80F46054620F0E3FB1D
:102600000022344BFEF75CF903D27320A4F8580083
:10261000E7E02846394620F0D6FB00222E4BFEF795
:1026200067F904D30BF15F0BBBF10A0F03D87420D9
:10263000A4F85800D5E0B08870815720A4F858005D
:10264000CFE0ABF1580BBBF1050F0BD21C480021BA
:10265000C5E9061029626962B08870815720A4F824
:102660005800BEE0032F09D1BCF1010F06D00021B4
:10267000A961E9611448C5E90810B2E00021A96127
:10268000E961296269627620A4F85800A9E030B9AE
:10269000D9F800007063D9F80400B063E1710B4809
:1026A0000021C5E9061029626962D9F80000716B42
:1026B000081AFEF76FF820F086FB0FE000000840D4
:1026C00000406F40A80000200000494000406FC05B
:1026D000000049C00040554000C05740002253460A
:1026E000FEF706F90CD3D9F80400B16B081AFEF70F
:1026F00051F820F068FB00225346FEF7F9F870D23B
:102700000020A861E861002129626962E0717320FC
:10271000A4F8580065E0ABF1580BBBF1050F0CD2E3
:1027200031490020C5E90601002129626962B088AB
:1027300070815720A4F8580053E0032F09D1BCF151
:10274000010F06D00021A961E9612848C5E90810F8
:1027500047E00021A961E961296269627720A4F854
:1027600058003EE030B9D9F800007063D9F8040091
:10277000B063E1711E480021C5E906102962696253
:10278000D9F80000716B081AFEF704F820F01BFB63
:1027900000225346FEF7ACF80CD3D9F80400B16B15
:1027A000081AFDF7F7FF20F00EFB00225346FEF754
:1027B0009FF816D20020A861E861002129626962B1
:1027C000E0717420A4F858000BE00020A861E861D3
:1027D000286268624FF001082074E0736074A4F806
:1027E00058004046BDE8F09F00406F40000049C0DF
:1027F00000406FC02DE9F05F04460E464FF0000820
:10280000A068642190FBF1F5DFF8E8A100275146AC
:10281000BAF95A00CA7980310123DFF8DCB101F13D
:10282000800943283FD003DC38B142280AD10AE0AE
:10283000442871D04728F9D1A2E0C88808814220F5
:10284000AAF85A00D2E0032E20D16C480078012863
:102850001CD0B1F90600B1F90810401AFDF79AFF33
:1028600020F0B1FA0022664BFEF742F812D20020A7
:10287000C9F81800C9F81C000021C9F82010C9F8CF
:102880002410AAF85A704FF00108AFE04320AAF8CC
:102890005A00ABE05B480021C9E90610C9F82010D6
:1028A000C9F82410A2E02AB92068486360688863E8
:1028B0008AF8073054480022C9E90620C9F82020C8
:1028C000C9F824200E462068496B081AFDF762FFFC
:1028D00020F079FA00225B46FEF70AF80BD3606815
:1028E000B16B081AFDF756FF20F06DFA00225B4627
:1028F000FDF7FEFF7AD20021C9F81810C9F81C10A4
:10290000C9F82010C9F824108AF8077075644420AB
:10291000AAF85A006AE0FFE7486C0C46401BFDF736
:1029200039FF20F050FA0022384BFDF7E1FF0FD2BB
:102930000020C9F81800C9F81C000021C9F82010AF
:10294000C9F82410E08820814220AAF85A004DE0FE
:10295000032E0CD00021C9F81810C9F81C10C9F8B2
:102960002010C9F824104720AAF85A003EE00021A0
:10297000C9F81810C9F81C102548C9E9081035E035
:102980002AB920684863606888638AF807301E485F
:102990000022C9E90620C9F82020C9F824200E46E3
:1029A0002068496B081AFDF7F5FE20F00CFA0022AA
:1029B0005B46FDF79DFF0BD36068B16B081AFDF70E
:1029C000E9FE20F000FA00225B46FDF791FF0DD2F0
:1029D0000021C9F81810C9F81C10C9F82010C9F84E
:1029E00024108AF807704420AAF85A004046BDE82F
:1029F000F09F0000B000002000003440A80000203C
:102A000000F08D4000406F4000406FC000003E402D
:102A1000000049402DE9F04F8DB000210B910126B7
:102A20000A91099108910791002341F288324FF4ED
:102A3000C87492FBF4F149B2029192FBF4F149B2ED
:102A40000191016865421144A94203DD40681044C8
:102A5000A84203DC00200DB0BDE8F08F91FBF4F13B
:102A60004FFA81FA90FBF4F04FFA80FBB64991F8E7
:102A7000250018B10C20029018200190B24891F85E
:102A80002320807832B128B191F82720012A0FD075
:102A90001822029291F8241011B108B1002001907F
:102AA0000024DFF8A8E2002C05DD4FF0010804E067
:102AB00000220292EEE74FF000080021DFF890C2FA
:102AC000002001EBC10202EB01120CEB82052A1877
:102AD000977DFA2F08D0927D32B1401C40B2642815
:102AE000F5DB23B1002306E00A910123F9E7491C35
:102AF00049B26429E4DB0A98A0EB0409B9F1030F99
:102B000006DD4FEAE97009EB90708010401E00E08E
:102B1000002040B206906321002001EBC10202EBCD
:102B200001120CEB82073A18957DFA2D08D0927DA0
:102B300032B1401C40B26428F5DB23B1002306E02B
:102B400009910123F9E7491E49B20029E4DA0998FD
:102B5000001B602805DAC11700EB91708010401C43
:102B600000E0182040B205900021002000EBC002D8
:102B700002EB00120CEB82020A44957DFA2D08D07C
:102B8000927D32B1401C40B26428EFDB23B10023B8
:102B900006E008910123F9E7491C49B26429E4DB06
:102BA0000898032806DD4FEAE97009EB9070801061
:102BB000401E00E0002040B204906321002000EBA2
:102BC000C00202EB0015624A02EB85020A44957DC1
:102BD000FA2D08D0927D32B1401C40B26428EEDB61
:102BE00023B1002306E007910123F9E7491E49B20A
:102BF0000029E3DA07985F2801DD182005E007982F
:102C0000C11700EB91708010401C40B2039000216E
:102C1000C8F119000C9075E00598814202D0069821
:102C200081421BD1002001EBC102002502EB011201
:102C300001277244514501D1584507D0DDF808C03D
:102C4000614505D1DDF804C0604501D1155400E0AF
:102C50001754401C40B21928ECDB51E00020049AC4
:102C6000904202D0039A904207D101EBC10505EBD7
:102C70000115754401222A543EE000254FF06409F5
:102C8000002202EB8507274497FBF9FC09FB1C7720
:102C900007EBC70C0CEB071C2D4F07EB8C0C02EB62
:102CA000800797FBF9F809FB18776744BF7D8FB160
:102CB000521C52B2042AE4DB1EB16D1C6DB2042D0D
:102CC000DEDB4EB101EBC10505EB011575440022B9
:102CD0002A5411E00026EFE7544501D158452AD087
:102CE000192C01D1192826D001EBC10505EB0115DE
:102CF000754401222A540126401C40B21928AEDB3B
:102D0000491C49B20C98884286DC641C64B2042CCD
:102D1000FFF6C9AE01980BF0FF02C0B20090029816
:102D20000AF0FF01C3B209481FF0B8FD20F07EFD94
:102D30000B98C0B28FE601EBC10505EB0115754498
:102D400000222A54D7E70000B000002000700020C5
:102D5000380E002010B5012022F088F90149886161
:102D600010BD0000000000207FB500242048CDE900
:102D7000010401214E0200912346324603941DA115
:102D8000204822F049FA1A4802210C38CDE9010402
:102D900000910023324603941BA11F4822F03CFA05
:102DA000134803210838CDE901040091002332467D
:102DB00003941AA11D4822F02FFA0D480425001F84
:102DC000CDE901040023324619A11D480095039462
:102DD00022F022FA06480023001DCDE90104324604
:102DE00018A11B480095039422F016FA7FBD00003D
:102DF00010000020765461736B4D617070696E67CE
:102E000000000000D54B0208765461736B44656383
:102E10006973696F6E000000F14A020876546173AD
:102E20006B436F6E74726F6C00000000814A020881
:102E3000765461736B50657263657074696F6E0070
:102E4000CD4C0208765461736B4B6579000000002D
:102E5000594B020800B593B014221D4906A8FDF78E
:102E6000E7F914221A49143101A8FDF7E1F907F036
:102E700083F900282AD120210BA809F0EBFC06A930
:102E80000BA807F0A1FA002820D1142106A8FDF70D
:102E9000E8F920210BA809F0DDFC06AA20210BA8E7
:102EA00007F018F9002811D101AB01AA20210BA8C5
:102EB0000EF0A4FD142201A906A8FDF7DDF9C0B2A9
:102EC000002803D107F0CAF90028FFD113B000BDD4
:102ED0009055020810A41B4E4FF4616529463046F8
:102EE00015F088FB2946304615F086FB294630460A
:102EF00015F084FB2946304615F082FB0020124B6A
:102F0000191F225C1A800A885206FCD5401CC0B2E8
:102F10002928F6D3FEE700000D0A456E746572207D
:102F2000486172644661756C745F48616E646C657B
:102F3000722C2053797374656D2048616C742E0D6A
:102F40000A000000002C0140044400402DE9F0413B
:102F500005462C22002141480EF0E2FD404E3F4C38
:102F600021213078943C40F00500207020461FF06D
:102F7000DDFA7070002852D1A178C1F3810201F00E
:102F8000030025B10223B3EB911F47D106E063781C
:102F90003B2B43D10B0641D44B063FD5032A3DD0F2
:102FA000304B2E4D2F4E9B5C6B702E4B383303EB0A
:102FB00082031B5CAB702B4B443303EB8203503614
:102FC0001B5C06EBC2022B7032F81000A880C8060A
:102FD00001D510332B700822611CA81D0EF096FD40
:102FE0001E49607A85F82B008A39072201F1980082
:102FF0000EF08CFD19490622833901F198000EF07C
:1030000085FD0022202018260121D307A0EB5203C2
:10301000E35C06D0F02747EA131304E00420BDE880
:10302000F08143F0F003AF18FB76A6EBD20302F079
:103030000707E35C01FA07F73B4201D0FF2700E0F6
:10304000EF27AB18521C93F81BC0D2B207EA0C074B
:10305000DF76102AD9D30020E1E700006CC70020FA
:10306000E8020020FE57020870B5FF22FF23084D3A
:1030700005F5807605E010F8014B54402A5D5A4072
:10308000335D491E89B2F6D243EA022070BD0000CA
:10309000B855020870B516460C46054613F046FFB3
:1030A00008210D4813F060FF10210C4813F05CFF5D
:1030B00009480721083013F057FF0848182118382D
:1030C00013F052FF2146284613F04EFF3046BDE86C
:1030D000704013F009BF000072C700200C030020ED
:1030E0000EB5104904236A46A1F108000EF020FD38
:1030F0000C4904230DF10602083168460EF018FD54
:1031000008490423091D6A46A1F108000EF010FDCC
:103110006846022301AA811C0EF00AFD01A80EF0E8
:1031200015FD0EBDE0C600202DE9FF5F0446884670
:10313000002002908346A068642190FBF1FAFE4EC5
:10314000FE4840F2E23EB6F952100378304606F5EA
:103150008075C079A1F2E23CD946A5F1800771459E
:1031600078D033DCB1F5767F75D01DDC40F2D33CEE
:10317000A1F2D33361456FD00CDC4FF4747051B3BE
:10318000814252D0A1F54071D13970D0012941F06E
:103190003A8563E1012B6BD0022B6AD0032B69D0F7
:1031A000042BF4D101F0FEBCA1F2D931DFF890B3C9
:1031B000092981F02885DFE811F0D204120D1505E8
:1031C000570500084B098E0A73084008DD49BCF119
:1031D000140FEED200E015E0DFE81CF09A09BA08FF
:1031E000F9089B096709B909EF092C0AD60AA20A4E
:1031F000F70A2D0B6B0B050CD10B240C6A0CA50CDC
:10320000AA0BA600143686F81B9086F8229006F8C2
:10321000059C0121B17606F8019C0022AA61EA61B1
:103220002A626A62F08701F0EEBC0021C64C63207E
:1032300001EBC10303EB011304EB83031D18AD7D08
:103240007D2D0AD00A4686F8371086F839004FF0EF
:10325000010B06E0F3E3F3E32BE1401EC0B20028CC
:10326000ECD1BBF1000F06D04FF0000B07E053E1AB
:103270007DE1EDE3FEE3891CC9B26429D7D3632065
:1032800096F93710491D01EBC10303EB011304EB61
:1032900083031D18AD7D7D2D04D006F13703197011
:1032A000987003E0401EC0B20028F2D163210020D4
:1032B00001EBC10303EB011304EB83031D18AD7D88
:1032C0007D2D0AD086F8381086F83A00881A6423D3
:1032D0005843F8644FF0010B03E0401CC0B264286F
:1032E000ECD3BBF1000F03D1891EC9B20029DED196
:1032F000002096F93810491F01EBC10202EB0112C0
:1033000004EB820213189B7D7D2B04D086F83810C5
:1033100086F83A0003E0401CC0B26428F2D340F2C1
:10332000F530A6F852007EE70021874B002000EB25
:10333000C00404EB001403EB84040C44A47D7D2C36
:1033400007D00A4686F83D0086F83E104FF0010B84
:1033500003E0401CC0B26428E9D3BBF1000F02D0E7
:103360004FF0000B03E0891CC9B26429DED30020B2
:1033700096F93E1000EBC00404EB001403EB840448
:103380000C44E47E7D2C05D006F13D042070491DDF
:10339000617003E0401CC0B26428EBD363216B4D25
:1033A000632000EBC00404EB001403EB84040C4422
:1033B000A47D7D2C1CD086F83B0086F83C10881A32
:1033C00000EBC00404EB001CFC6CB4EB8C0F07DAC0
:1033D0006424604300EBD07005EB6000F86404E007
:1033E00004EBD47005EB6000F8644FF0010B03E0D0
:1033F000401EC0B20028D4D1BBF1000F03D1891EFA
:10340000C9B20029CCD1632096F93C1000EBC00270
:1034100002EB001203EB82020A44527C7D2A05D0A3
:1034200086F83B00491F86F83C1003E0401EC0B2FE
:103430000028EBD1786CFDF7ADF91FF0C4FC002239
:10344000434BFDF755FA04D240F2D130A6F85200B2
:10345000E9E640F2D230A6F85200E4E60021A96184
:10346000E9613C48C5E908105046FDF793F91FF0A3
:10347000AAFC0022384BFDF73BFA09D20021A961D2
:10348000E9612962696240F2D130A6F85200CAE6C9
:10349000B8F1030F03D1294800780128D8D10021C1
:1034A000A961E9612962696240F2D330A6F852004D
:1034B000B9E628B9206878636068B8630120F071C4
:1034C00026480021C5E90610296269622068796BE7
:1034D000081AFDF75FF91FF076FCDFF88480002200
:1034E0004346FDF705FA0BD36068B96B081AFDF780
:1034F00051F91FF068FC00224346FDF7F9F9A7D205
:103500000021A961E9612962696286F8079040F2A9
:10351000D230A6F8520086E60020A861E8610021BA
:1035200029626962206878626068F8622168B9621D
:1035300038630120307315E0B0000020A80000209F
:1035400000E065406CEEFFFF380E00200CFEFFFF30
:1035500000805640000049400040654000406FC078
:10356000000024404FF47570A6F852005BE620F08E
:103570001DFDB8F1030F08D1F8480078012804D0E8
:10358000F748F84EC07C50B12EE00021A961E961F6
:103590002962696240F2D530A6F8520043E6F86C21
:1035A000FDF7F8F8CDE900012068B96A081AFDF7BF
:1035B000F1F81FF008FCDDE90023FDF799F910D3BD
:1035C000F86CFDF7E7F8CDE900016068396B081A7F
:1035D000FDF7E0F81FF0F7FBDDE90023FDF788F9C0
:1035E00002D2DF490120C8742068FDF7D3F81FF02C
:1035F000EAFB00223346FDF77BF909D36068FDF74B
:10360000C9F81FF0E0FB00223346FDF771F905D23F
:10361000D34940F2D630A1F8520004E6206841F2C6
:1036200088314318642293FBF2F303F0FF086368C8
:10363000194491FBF2F1CEB2796A081AFDF7AAF8A3
:103640001FF0C1FB0022C84BFDF752F90BD3606895
:10365000F96A081AFDF79EF81FF0B5FB0022C24B6D
:10366000FDF746F948D2A8F104005C283AD2032EAF
:1036700038D9602E36D2C1B2F31EF61CBB4D08F10C
:1036800004081AE0D8B201EBC10202EB011205EB0B
:1036900082020BE002EB000C9CF816C0BCF17D0F1F
:1036A00002D04FF0010B03E0401CC0B2B042F1D990
:1036B000BBF1000F03D1891CC9B24145E2D9BBF16E
:1036C000000F09D0206878626068F862A4484FF45F
:1036D0007571A0F85210A6E5A14840F2D731A0F8C4
:1036E0005210A0E5206878626068F8629C484FF448
:1036F0007571A0F8521096E5994C207B012815D0E1
:1037000002286BD003287CD004287BD09848002165
:10371000C5E9061029626962E07B0428DBD984F8D8
:10372000369040F2DA30A4F852007CE50AF1040049
:103730000E280AD2BAF1000F49DA8E490020C5E9F5
:1037400006018D480021C5E9081094F93700A8EB5F
:103750000000FDF71FF81FF036FB884D00222B46B6
:10376000FDF7AEF812D294F93700301AFDF712F8CF
:103770001FF029FB00222B46FDF7A2F806D2E07BC2
:10378000401CE0730220207384F8369094F93D00C9
:10379000A8EB0000FCF7FEFF1FF015FB00222B46F4
:1037A000FDF78EF8B8D294F93E00301AFCF7F2FF1C
:1037B0001FF009FB00222B46FDF782F8ACD2E07B1C
:1037C000401CE0730320207384F83690A4E76C4813
:1037D0000021C5E906102962696224E5AAF15600B4
:1037E0000E2809D2BAF15A0F4BDA62480021C5E916
:1037F00006106148C5E9081094F93D00A8EB0000E7
:1038000001E046E0C0E0FCF7C5FF1FF0DCFA5B4DCD
:1038100000222B46FDF754F812D294F93E00301ADC
:10382000FCF7B8FF1FF0CFFA00222B46FDF748F84F
:1038300006D2E07B401CE0730320207384F83690AE
:1038400094F93800A8EB0000FCF7A4FF1FF0BBFAC6
:1038500000222B46FDF734F8B8D294F93A00301A1A
:10386000FCF798FF1FF0AFFA00222B46FDF728F86F
:10387000ACD2E07B401CE0730420207384F83690C7
:103880004AE73F480021C5E9061000202862686227
:10389000C9E45046FCF77EFF1FF095FA0022394B31
:1038A000FDF726F80AD2BAF1000F50DD31490020A9
:1038B000C5E9060130480021C5E9081094F938002F
:1038C000A8EB0000FCF766FF1FF07DFA2B4D0022ED
:1038D0002B46FCF7F5FF12D294F93A00301AFCF7A8
:1038E00059FF1FF070FA00222B46FCF7E9FF06D2C1
:1038F000E07B401CE0730420207384F83690E07C69
:103900000028BDD094F93B00A8EB0000FCF742FF73
:103910001FF059FA00222B46FCF7D2FFB0D294F9DF
:103920003C00301AFCF736FF1FF04DFA00222B4600
:10393000FCF7C6FFA4D2E07B401CE073012020739B
:1039400084F8369040F2DA30A4F852006BE40C4868
:103950000021C5E906102962696264E4A80000201C
:10396000B000002000C0B24000006440380E0020CB
:1039700000406F4000005940000034C00000244067
:1039800000006940008065400AF15E000E2809D2FF
:103990001AF15A0F55DAFD480021C5E90610FC4816
:1039A000C5E90810E07C0028ABD094F93B00A8EBF7
:1039B0000000FCF7EFFE1FF006FAF64D00222B4642
:1039C000FCF77EFF10D294F93C00301AFCF7E2FEBF
:1039D0001FF0F9F900222B46FCF772FF04D2E07BBE
:1039E000401CE0730120207394F93700A8EB00001D
:1039F000FCF7D0FE1FF0E7F900222B46FCF760FF32
:103A000010D294F93700301AFCF7C4FE1FF0DBF92E
:103A100000222B46FCF754FF04D2E07B401CE073ED
:103A200002202073207B0428BED084F83690E07BEF
:103A3000401CE07340F2DA30A4F8520073E4E0E393
:103A40005AE0D5480021C5E90610296269626AE496
:103A500068B9206878636068B8630120F071B8F1D4
:103A6000000F3AD0B8F1010F3AD002207075002152
:103A7000CA4800E03BE1C5E9061000202862686200
:103A80002068796B081AFCF785FE1FF09CF9DFF8B7
:103A9000048300224346FCF72BFF0BD36068B96B0D
:103AA000081AFCF777FE1FF08EF900224346FCF758
:103AB0001FFFC3D20020A861E8610021296269626A
:103AC00086F80790C7F844A0707D58B101280ED041
:103AD00040F2DB30A6F8520025E486F81590C6E7E0
:103AE0007075C4E74FF47670A6F852001BE440F2FC
:103AF000D930A6F8520016E4786CA0EB0A00FCF767
:103B000049FE1FF060F90022A54BFCF7F1FE0DD233
:103B10000021A961E96129626962206878626068B0
:103B2000F8624FF47570A6F8520091E4B8F1030FF3
:103B30000AD19C480078012806D00021A961E961DA
:103B40009948C5E9081083E40020A861E8610021D4
:103B5000296269624FF47770A6F8520078E4786CB5
:103B6000A0EB0A00FCF716FE1FF02DF900228F4B88
:103B7000FCF7BEFE1ED25046FCF70CFE1FF023F9E8
:103B800000228B4BFCF7B4FE06D2C7F844A040F2EB
:103B9000D930A6F852005BE40021A961E9612962ED
:103BA0006962206878626068F8624FF47570A6F800
:103BB00052004DE4B8F1030F0AD17A480078012889
:103BC00006D00021A961E9617748C5E908103FE402
:103BD0000021A961E961296269624FF47770A6F852
:103BE000520035E4786CA0EB0A00FCF7D3FD1FF01F
:103BF000EAF800226A4BFCF77BFE1CD25046FCF729
:103C0000C9FD1FF0E0F800225B46FCF771FE04D20C
:103C100040F2DB30A6F852001AE40021A961E96104
:103C200029626962206878626068F8624FF4757092
:103C3000A6F852000CE4B8F1030F0AD159480078F5
:103C4000012806D00021A961E9615748C5E908109B
:103C50001DE40020A861E8610021296269624FF437
:103C60007770A6F8520012E428B92068786360687B
:103C7000B8630120F07149490020C5E9060100211F
:103C8000296269622068796B081AFCF783FD1FF0CE
:103C90009AF8DFF8008100224346FCF729FE0BD397
:103CA0006068B96B081AFCF775FD1FF08CF80022EC
:103CB0004346FCF71DFE8AD20021A961E96100207C
:103CC0002862686286F80790707D30B1012809D0BB
:103CD00040F2DB30A6F852001DE44FF47670A6F8EF
:103CE000520018E440F2D930A6F8520013E41EF056
:103CF0004FFFB8F1030F11D12A48007801280DD0E9
:103D00002068DFF8B080B0F57A6F12DA7862606808
:103D1000F8624FF47570A6F8520027E40021A961FB
:103D2000E96100202862686240F2D530A6F85200AE
:103D30001CE4FCF72FFD1FF046F800224346FCF779
:103D4000D7FD09D36068FCF725FD1FF03CF8002281
:103D50004346FCF7CDFD4CD22068FCF71BFD1FF05D
:103D600032F800224346FCF7C3FD34D26068FCF70A
:103D700011FD1FF028F800224346FCF7B9FD1BD2C5
:103D800040F2DA30A6F8520008E400000000594082
:103D9000000034C0000024400000694000406FC0B3
:103DA00000003E40A80000200000494000002E40D6
:103DB000004065400088B340216841F2883081426C
:103DC00004DD40F2DD30A6F8520012E040F2DE30B1
:103DD000A6F852000DE0616841F28830814204DDAE
:103DE00040F2DF30A6F8520003E04FF47D70A6F8F1
:103DF0005200206841F2883C00EB0C02642192FBE7
:103E0000F1F2D3B203936268624492FBF1F101F0E4
:103E1000FF08796A081AFCF7BDFC1EF0D4FF0022E7
:103E2000F84BFCF765FD0BD36068F96A081AFCF7DC
:103E3000B1FC1EF0C8FF0022F24BFCF759FD4BD23B
:103E40000398001F5C283ED2B8F1030F3BD9B8F1AC
:103E5000600F38D2C1B2DDF80CC0A8F10403EA4DFE
:103E600008F104080CF1040C1AE0D8B201EBC1020D
:103E700002EB011205EB82020BE002EB000999F85C
:103E80001690B9F17D0F02D04FF0010B03E0401CFA
:103E9000C0B24045F1D9BBF1000F03D1891CC9B2B2
:103EA0006145E2D9BBF1000F08D0206878626068F4
:103EB000F86240F2D630A6F852000CE440F2D73057
:103EC000A6F8520007E4206878626068F86240F261
:103ED000D630A6F8520004E4307B012815D0022821
:103EE00060D003287DD004287CD0C8480021C5E9D3
:103EF000061029626962F07B0428DED9401CF07349
:103F000040F2DA30A6F852000FE4BAF1000F05DBF8
:103F10000021A961E961BE48C5E9081096F937108A
:103F20000398401AFCF736FC1EF04DFFB94C0022F6
:103F30002346FCF7C5FC13D296F93700A8EB000026
:103F4000FCF728FC1EF03FFF00222346FCF7B8FCDC
:103F500006D2F07B401CF0730220307386F8369056
:103F600096F93D100398401AFCF714FC1EF02BFF45
:103F700000222346FCF7A4FCBDD296F93E00A8EB34
:103F80000000FCF707FC1EF01EFF00222346FCF792
:103F900097FCB0D2F07B401CF0730320307386F89E
:103FA0003690A8E75046FCF7F5FB1EF00CFF002208
:103FB000994BFCF785FC05D30021A961E961944880
:103FC000C5E9081096F93D100398401AFCF7E2FB8A
:103FD0001EF0F9FE8F4C00222346FCF771FC16D22E
:103FE00001E036E08AE096F93E00A8EB0000FCF71D
:103FF000D1FB1EF0E8FE00222346FCF761FC06D24E
:10400000F07B401CF0730320307386F8369096F9ED
:1040100038100398401AFCF7BDFB1EF0D4FE0022B6
:104020002346FCF74DFCBCD296F93A00A8EB000001
:10403000FCF7B0FB1EF0C7FE00222346FCF740FC55
:10404000AFD2F07B401CF0730420307386F83690BA
:1040500051E7BAF1000F05DC0021A961E9616C4864
:10406000C5E9081096F938100398401AFCF792FB3E
:104070001EF0A9FE674C00222346FCF721FC13D258
:1040800096F93A00A8EB0000FCF784FB1EF09BFEBB
:1040900000222346FCF714FC06D2F07B401CF07390
:1040A0000420307386F83690F07C0028D0D096F942
:1040B0003B100398401AFCF76DFB1EF084FE574C32
:1040C00000222346FCF7FCFBC2D296F93C00A8EB89
:1040D0000000FCF75FFB1EF076FE00222346FCF793
:1040E000EFFBB5D2F07B401CF0730120307386F8F3
:1040F000369040F2DA30A6F8520009E25046FCF75A
:1041000049FB1EF060FE0022434BFCF7F1FB05D398
:104110000021A961E9613E48C5E90810F07C00284A
:1041200096D096F93B100398401AFCF733FB1EF02B
:104130004AFE384C00222346FCF7C2FB11D296F906
:104140003C00A8EB0000FCF725FB1EF03CFE002223
:104150002346FCF7B5FB04D2F07B401CF073012032
:10416000307396F937100398401AFCF713FB1EF0D2
:104170002AFE00222346FCF7A3FB11D296F9370052
:10418000A8EB0000FCF706FB1EF01DFE00222346F4
:10419000FCF796FB04D2F07B401CF07302203073D6
:1041A000307B0428BCD086F83690F07B401CF0733E
:1041B00040F2DA30A6F85200AAE15046FCF7EAFADB
:1041C0001EF001FE00225B46FCF792FB0AD20020A3
:1041D000A861E8610021296269624FF47870A6F84D
:1041E000520095E1B8F1030F1CD10D480078012869
:1041F00018D00020A861E86105480021C5E9081031
:1042000086E16EE000006440380E002000406F4000
:104210000000494000001440008056400000244047
:10422000A80000200020A861E861002129626962DD
:1042300040F2E130A6F852006AE128B920687863BC
:104240006068B8630120F071FC480021C5E90610E0
:10425000296269622068796B081AFCF79BFA1EF0E4
:10426000B2FDDFF8DC8300224346FCF741FB0BD3B1
:104270006068B96B081AFCF78DFA1EF0A4FD0022E5
:104280004346FCF735FB97D20021A961E961296219
:10429000696286F8079040F2DD30A6F8520037E1F7
:1042A000E8490020C5E90601002129626962206809
:1042B00041F29411884207DA78626068F8624FF43C
:1042C0007570A6F8520023E1B8F1030F01D1012B5C
:1042D00087D10020A861E86140F2E230A6F85200E0
:1042E00016E128B9206878636068B8630120F0712E
:1042F000D2490020C5E906010021296269622068CF
:10430000796B081AFCF746FA1EF05DFDDFF830B352
:1043100000225B46FCF7ECFA0BD36068B96B081A15
:10432000FCF738FA1EF04FFD00225B46FCF7E0FA7E
:104330000ED20021A961E96100202862686286F836
:104340000790C7F844A040F2E330A6F85200DFE03F
:10435000AAF10100592802D2062086F8360096F804
:104360003600032807D20021A961E961B64900207F
:10437000C5E908010EE01AF1590004D340F2DA3021
:10438000A6F85200C4E00020A861E861AF4800210F
:10439000C5E90810786CA0EB0A00FCF7FBF91EF0E9
:1043A00012FD0022AA4BFCF7A3FA09D20021A96151
:1043B000E9610020286268624FF47870A6F8520024
:1043C000B8F1030F06D1A3480078012802D0F07994
:1043D00050B10FE00021A961E961296269624FF4DF
:1043E0007970A6F8520093E0206878636068B8633B
:1043F0000120F07191490020C5E9060100212962E0
:1044000069622068796B081AFCF7C4F91EF0DBFCBE
:10441000DFF82CB200225B46FCF76AFA0BD3606827
:10442000B96B081AFCF7B6F91EF0CDFC00225B460A
:10443000FCF75EFA0CD20020A861E8610021296235
:10444000696286F8079040F2E330A6F85200DAE39A
:104450005046FCF79FF91EF0B6FC00227E4BFCF79D
:104460002FFA09D20021A961E9612962696240F24B
:10447000E530A6F85200C6E3B8F1030F0BD175483A
:104480000078012807D00020A861E8616F4800216A
:10449000C5E90810B7E30021A961E96129626962F1
:1044A00040F2E630A6F85200ADE328B92068786300
:1044B0006068B8630120F07160480021C5E906100A
:1044C000296269622068796B081AFCF763F91EF0AB
:1044D0007AFCDFF86C8100224346FCF709FA0BD323
:1044E0006068B96B081AFCF755F91EF06CFC0022E5
:1044F0004346FCF7FDF9AAD20021A961E961002039
:104500002862686286F8079040F2DE30A6F8520012
:1045100079E34C480022C5E906202A626A622068D5
:10452000884207DD78626068F8624FF47570A6F81B
:10453000520068E3B8F1030F01D1012B87D10021AC
:10454000A961E96140F2E730A6F852005BE328B9BF
:10455000206878636068B8630120F07137490020F3
:10456000C5E906010021296269622068796B081A91
:10457000FCF710F91EF027FCDFF8C4B000225B4600
:10458000FCF7B6F90BD36068B96B081AFCF702F9AF
:104590001EF019FC00225B46FCF7AAF90DD200219F
:1045A000A961E9612962696286F80790C7F844A0A9
:1045B0004FF47A70A6F8520025E31AF15A0F02DA86
:1045C000062086F8360096F83600032807D2002128
:1045D000A961E9611C490020C5E908010DE0BAF1B3
:1045E0005A0F04DD40F2DA30A6F852000BE3002047
:1045F000A861E8611549C5E90801786CA0EB0A00DB
:10460000FCF7C8F81EF0DFFB0022114BFCF770F935
:1046100009D20020A861E86100212962696240F2A4
:10462000E530A6F85200B8F1030F17D10948007819
:10463000012813D0F079D8B120E0000000406FC00D
:104640000000244000406F40000049C00000494085
:1046500000003E40A8000020000014400020A86197
:10466000E8612862686240F2E930A6F85200CAE2C6
:10467000206878636068B8630120F071FE4900200B
:10468000C5E906010021296269622068796B081A70
:10469000FCF780F81EF097FBDFF8E083002243462A
:1046A000FCF726F90BD36068B96B081AFCF772F8AF
:1046B0001EF089FB00224346FCF71AF996D200202F
:1046C000A861E8612862686286F807904FF47A7002
:1046D000A6F8520097E20AF15E0ABAF1090F09D270
:1046E0000021A961E9612962696240F2EA30A6F815
:1046F000520088E2B8F1030F08D1012B06D0002147
:10470000A961E961DE48C5E908107CE20021A961E0
:10471000E9612962696240F2EB30A6F8520072E268
:1047200028B9206878636068B8630120F071D249C5
:104730000020C5E90601286268622068796B081AC2
:10474000FCF728F81EF03FFBDFF8308300224346D9
:10475000FCF7CEF80BD36068B96B081AFCF71AF8AF
:104760001EF031FB00224346FCF7C2F8B2D2002013
:10477000A861E86100212962696286F8079040F229
:10478000DF30A6F852003EE2BE490020C5E906012E
:10479000002129626962606841F29411884207DA57
:1047A00021687962F8624FF47570A6F852002AE227
:1047B000B8F1030F01D1012B8CD10021A961E9616E
:1047C0004FF47B70A6F852001DE228B92068786388
:1047D0006068B8630120F071A7480021C5E90610A0
:1047E0000020286268622068796B081AFBF7D2FF04
:1047F0001EF0E9FADFF884B200225B46FCF778F895
:104800000BD36068B96B081AFBF7C4FF1EF0DBFA24
:1048100000225B46FCF76CF80DD20021A961E9612A
:104820002962696286F80790C7F844A040F2ED302B
:10483000A6F85200E7E1BAF15A0F02DD062086F829
:10484000360096F83600032807D20020A861E861F8
:104850008D480021C5E908100EE0AAF10100592891
:1048600004D240F2DA30A6F85200CCE10021A9616E
:10487000E9618348C5E90810786CA0EB0A00FBF7F2
:1048800089FF1EF0A0FA0022804BFCF731F809D214
:104890000021A961E96100202862686240F2EA30E3
:1048A000A6F85200B8F1030F06D179480078012824
:1048B00002D0F07950B10FE00021A961E9612962CD
:1048C000696240F2EE30A6F852009CE120687863FD
:1048D0006068B8630120F07167490020C5E90601EE
:1048E000286268622068796B081AFBF753FF1EF094
:1048F0006AFADFF888B100225B46FBF7F9FF0BD3B9
:104900006068B96B081AFBF745FF1EF05CFA0022DD
:104910005B46FBF7EDFF0BD20021A961E96129623B
:10492000696286F8079040F2ED30A6F852006AE11D
:10493000AAF1560ABAF1090F09D20021A961E96169
:104940002962696240F2EF30A6F852005BE1B8F1EB
:10495000030F0AD14E480078012806D00021A96132
:10496000E9614748C5E908104DE10021A961E96105
:10497000296269624FF47C70A6F8520043E128B9BD
:10498000206878636068B8630120F0713A480021BC
:10499000C5E90610296269622068796B081AFBF77D
:1049A000F9FE1EF010FADFF8D48000224346FBF730
:1049B0009FFF0BD36068B96B081AFBF7EBFE1EF084
:1049C00002FA00224346FBF793FF0BD20021A961B4
:1049D000E96100202862686286F807904FF47D70D4
:1049E000A6F852000FE127480022C5E90620002062
:1049F000286268626068884207DD21687962F8622F
:104A00004FF47570A6F85200FDE0B8F1030F01D124
:104A1000012B06D10020A861E86140F2F130A6F830
:104A20005200F0E028B9206878636068B86301201C
:104A3000F07111480021C5E9061000202862686263
:104A40002068796B081AFBF7A5FE1EF0BCF9DFF8A9
:104A50002CB000225B46FBF74BFF0BD36068B96BB1
:104A6000081AFBF797FE1EF0AEF900225B46FBF733
:104A70003FFF1DD200200DE000406FC00000244029
:104A80000000494000406F40000049C000003E4027
:104A9000A8000020A861E86100212962696286F807
:104AA0000790C7F844A040F2F230A6F85200AAE0FE
:104AB000BAF1000F02DA062086F8360096F83600C2
:104AC000032806D20021A961E9615148C5E908100F
:104AD0000DE01AF15A0F04DA40F2DA30A6F852006B
:104AE00091E00021A961E9614A48C5E90810786CA4
:104AF000A0EB0A00FBF74EFE1EF065F90022464BC4
:104B0000FBF7F6FE08D20021A961E961296269621A
:104B100040F2EF30A6F85200B8F1030F06D13F483B
:104B20000078012802D0F07950B10FE00021A9618E
:104B3000E9612962696240F2F330A6F8520062E04E
:104B4000206878636068B8630120F0713449002000
:104B5000C5E90601286268622068796B081AFBF7CC
:104B600019FE1EF030F9DFF8BC8000224346FBF747
:104B7000BFFE0BD36068B96B081AFBF70BFE1EF083
:104B800022F900224346FBF7B3FE0BD20021A961B4
:104B9000E9612962696286F8079040F2F230A6F86E
:104BA000520030E06068002804DA022002900DF024
:104BB00027FA01E0032002900021A961E96129623E
:104BC000696286F8369086F80F9086F82E9086F8FF
:104BD0000C90A6F85290012086F82F0013E00120D7
:104BE00002900020A861E86100212962696286F8CC
:104BF000369086F80F9086F82E9086F80C90A6F8DE
:104C0000529086F81390029804B0BDE8F09F00001F
:104C1000000049C00000494000003E40A8000020BC
:104C200000406FC0000024402DE9F84F04468B4639
:104C30000026A068642190FBF1F00090DFF8F0936B
:104C4000FC4B4846B9F9482000250121C0791B7862
:104C5000F94F09F1800A09F58078B2F5377F77D0EE
:104C600024DC40F2D62EA2F2D62C724571D015DC8F
:104C700040F2D32EA2F2D32C72456BD007DC1AB3CC
:104C8000A2F50072D13A6BD0012A51D1A7E0BCF154
:104C9000010F7DD0BCF1020FF7D120E1BCF1060F6E
:104CA00046D2DFE80CF045FDFCFBFAF9A2F2DD226A
:104CB0004FF4397C0B2AF3D2DFE802F0FDFCFBFA5B
:104CC000F9F8F7F6F5F4F30050B9BBF1030F30D063
:104CD0002068CAF834006068CAF8380089F80710FC
:104CE000D6480021C8E90610C8F82010C8F82410DA
:104CF0002068DAF83410081AFBF74CFD1EF063F850
:104D000000223B46FBF7F4FD0CD36068DAF838105C
:104D1000081AFBF73FFD1EF056F800223B46FBF752
:104D2000E7FDBDD240F2D120A9F8480089F807502C
:104D3000A5E30098FBF72EFD1EF045F80022C04BBE
:104D4000FBF7BEFD07D240F2D220A9F8480096E357
:104D5000E2E1EEE054E040F2DD20A9F848008EE305
:104D600038B92068CAF834006068CAF8380089F891
:104D70000710B2480021C8E90610C8F82010C8F88A
:104D800024102068DAF83410081AFBF703FD00E05D
:104D900059E01EF018F800223B46FBF7A9FDC7D2E8
:104DA0000021C8F81810C8F81C10C8F82010C8F85E
:104DB00024100098FBF7EEFC1EF005F80022A04B33
:104DC000FBF77EFD04D240F2D220A9F8480003E0B0
:104DD00040F2DD20A9F8480089F807504FE3002190
:104DE000C8F81810C8F81C10C8F82010C8F824100B
:104DF0006068CAF82C0040F2D320A9F848003EE3CE
:104E00000021C8F81810C8F81C108E48C8E908100E
:104E10000098552808DDC8F82010C8F8241040F282
:104E2000D520A9F848002AE3BBF1030F01D1012BDB
:104E30008DD10021C8F82010C8F824104FF4357027
:104E4000A9F848001BE338B92068CAF83400606844
:104E5000CAF8380089F8071078480021C8E9061018
:104E6000C8F82010C8F824102068DAF83410081A9E
:104E7000FBF790FC1DF0A7FF00223B46FBF738FD37
:104E80001DD36068DAF83810081AFBF783FC1DF0B0
:104E90009AFF00223B460FE002E1DDE0D8E09DE012
:104EA00061E0E9E297E273E26EE241E205E2E1E10C
:104EB000B9E17CE145E133E1FBF71AFD8ED2002137
:104EC000C8F81810C8F81C10C8F82010C8F824102A
:104ED00089F8075040F2D320A9F84800CFE25A4998
:104EE0000020C8E906010021C8F82010C8F82410E5
:104EF000BBF1030F13D1012B11D06068DAF82C102D
:104F0000081AFBF747FC1DF05EFF00224F4BFBF732
:104F1000EFFC88D240F2D620A9F84800AFE2002189
:104F2000C8F81810C8F81C1040F2D920A9F8480099
:104F3000A5E20021C8F81810C8F81C104148C8E9BB
:104F4000081000985A2804DD4FF43670A9F848007C
:104F500095E2BBF1030F01D1012BBFD140F2D72065
:104F6000A9F848008BE238B92068CAF834006068B4
:104F7000CAF8380089F8071030480021C8E906103F
:104F8000C8F82010C8F824102068DAF83410081A7D
:104F9000FBF700FC1DF017FF00223B46FBF7A8FCC7
:104FA0000CD36068DAF83810081AFBF7F3FB1DF031
:104FB0000AFF00223B46FBF79BFC8FD20021C8F87A
:104FC0001810C8F81C10C8F82010C8F8241089F868
:104FD000075040F2D620A9F8480050E21A490020B4
:104FE000C8E906010021C8F82010C8F82410BBF158
:104FF000030F13D1012B11D06068DAF82C10081AB6
:10500000FBF7C8FB1DF0DFFE0022104BFBF770FC26
:1050100084D240F2DA20A9F8480030E20021C8F832
:105020001810C8F81C1040F2D920A9F8480026E250
:10503000B0000020A80000200000244000406FC005
:10504000008056400000494000406F40000064402E
:10505000A9F84850022612E20020C8F81800C8F843
:105060001C00FB480021C8E908100098FBF792FBE0
:105070001DF0A9FE0022F74BFBF73AFC04D24FF4D7
:105080003770A9F84800FAE1BBF1030F03D1F248E9
:1050900000780128A1D140F2DB20A9F84800EEE118
:1050A00038B92068CAF834006068CAF8380089F84E
:1050B0000710EA490020C8E906010021C8F82010BD
:1050C000C8F824102068DAF83410081AFBF762FBDD
:1050D0001DF079FE00223B46FBF70AFC0CD360680A
:1050E000DAF83810081AFBF755FB1DF06CFE0022A9
:1050F0003B46FBF7FDFB90D20021C8F81810C8F81A
:105100001C10C8F82010C8F8241089F8075040F285
:10511000DA20A9F84800B2E1A9F848500126AEE12A
:105120000021C8F81810C8F81C10C8F82010C8F8DA
:1051300024106068CAF82C0040F2DE20A9F848006C
:105140009DE10021C8F81810C8F81C10C4490020BF
:10515000C8E908010098FBF71DFB1DF034FE002292
:10516000C04BFBF7ADFB0DD20021C8F81810C8F8F2
:105170001C10C8F82010C8F824104FF43870A9F893
:1051800048007CE1BBF1030F03D1B348007801284C
:1051900085D10021C8F81810C8F81C10C8F82010D4
:1051A000C8F8241040F2DF20A9F8480067E138B9B8
:1051B0002068CAF834006068CAF8380089F8071017
:1051C000A6480021C8E906100020C8F82000C8F849
:1051D00024002068DAF83410081AFBF7DBFA1DF017
:1051E000F2FD00223B46FBF783FB0CD36068DAF844
:1051F0003810081AFBF7CEFA1DF0E5FD00223B46F9
:10520000FBF776FB87D20021C8F81810C8F81C10ED
:10521000C8F82010C8F8241089F8075040F2DE20A2
:10522000A9F848002BE190480021C8E90610C8F809
:105230002010C8F82410BBF1030F13D1012B11D09B
:105240006068DAF82C10081AFBF7A4FA1DF0BBFD11
:105250000022864BFBF74CFB03D240F2E120A9F879
:1052600048000CE10021C8F81810C8F81C10A9F873
:1052700048C004E10020C8F81800C8F81C007849AC
:10528000C8E908010098FBF785FA1DF09CFD002293
:10529000774BFBF715FB04D240F2E320A9F8480056
:1052A000EDE0BBF1030F03D16B480078012803D177
:1052B00040F2E220A9F84800E1E038B92068CAF8D5
:1052C00034006068CAF8380089F807106348002184
:1052D000C8E90610C8F82010C8F824102068DAF8C9
:1052E0003410081AFBF756FA1DF06DFD00223B46FC
:1052F000FBF7FEFA0CD36068DAF83810081AFBF7EF
:1053000049FA1DF060FD00223B46FBF7F1FA0ED290
:105310000021C8F81810C8F81C10C8F82010C8F8E8
:10532000241089F8075040F2E120A9F84800A6E0CF
:10533000BBF1030F13D1012B11D06068DAF82C10E8
:10534000081AFBF727FA1DF03EFD0022474BFBF73A
:10535000CFFA10D240F2E520A9F848008FE00021F2
:10536000C8F81810C8F81C10C8F82010C8F8241085
:10537000A9F848C083E03C480021C8E90610C8F8F5
:105380002010C8F824107AE0A9F84850032676E0E7
:105390000021C8F81810C8F81C103148C8E90810D6
:1053A0000098FBF7F7F91DF00EFD0022314BFBF7DB
:1053B00087FA04D240F2E720A9F848005FE0BBF189
:1053C000030F03D124480078012858D140F2E62089
:1053D000A9F8480053E038B92068CAF8340060687A
:1053E000CAF8380089F807101C480021C8E90610DF
:1053F000C8F82010C8F824102068DAF83410081A09
:10540000FBF7C8F91DF0DFFC00223B46FBF770FA02
:105410000CD36068DAF83810081AFBF7BBF91DF0F6
:10542000D2FC00223B46FBF763FA28D20020C8F8E2
:105430001800C8F81C000021C8F82010C8F8241073
:1054400089F8075040F2E520A9F8480017E000006D
:105450000000494000806540A800002000406FC067
:10546000000049C00080564000406F40000064408A
:105470000040554000002040A9F848500126304621
:10548000BDE8F88F2DE9F84F04468B460026A0684A
:10549000642190FBF1F00090DFF8E893FA4B484666
:1054A000B9F9482000250121C0791B78F74F09F18F
:1054B000800A09F58078B2F5B67F75D022DCB2F5A6
:1054C000B37F72D015DC40F2631EA2F2631C7245FA
:1054D0006CD007DC22B3A2F58072613A6DD0012A4C
:1054E00052D1A9E0BCF1010F7DD0BCF1020FF7D180
:1054F00023E1A2F26712052A46D2DFE802F0FDFCA2
:10550000FBFAF900A2F26D124FF4BA7C0B2AF3D227
:10551000DFE802F0FDFCFBFAF9F8F7F6F5F4F3002A
:1055200050B9BBF1030F30D02068CAF8340060686E
:10553000CAF8380089F80710D5480021C8E90610D4
:10554000C8F82010C8F824102068DAF83410081AB7
:10555000FBF720F91DF037FC00223B46FBF7C8F9AA
:105560000CD36068DAF83810081AFBF713F91DF04D
:105570002AFC00223B46FBF7BBF9BDD240F261108A
:10558000A9F8480089F80750B9E30098FBF702F939
:105590001DF019FC0022BF4BFBF792F908D24FF423
:1055A000B170A9F84800AAE3F2E1EFE055E004E0A9
:1055B00040F26D10A9F84800A1E338B92068CAF894
:1055C00034006068CAF8380089F80710B048002134
:1055D000C8E90610C8F82010C8F824102068DAF8C6
:1055E0003410081A00E05CE0FBF7D4F81DF0EBFB88
:1055F00000223B46FBF77CF9C6D20021C8F8181000
:10560000C8F81C10C8F82010C8F824100098FBF740
:10561000C1F81DF0D8FB00229E4BFBF751F904D2D4
:105620004FF4B170A9F8480003E040F26D10A9F8FA
:10563000480089F8075062E30021C8F81810C8F83C
:105640001C10C8F82010C8F824106068CAF82C0094
:1056500040F26310A9F8480051E30021C8F818107F
:10566000C8F81C108C48C8E90810009810F1550FB4
:1056700008DAC8F82010C8F8241040F26510A9F81C
:1056800048003CE3BBF1030F01D1012B8BD100217A
:10569000C8F82010C8F824104FF4B270A9F84800D8
:1056A0002DE338B92068CAF834006068CAF83800B9
:1056B00089F8071076480021C8E90610C8F82010BC
:1056C000C8F824102068DAF83410081AFBF762F8DA
:1056D0001DF079FB00223B46FBF70AF91DD36068F9
:1056E000DAF83810081AFBF755F81DF06CFB0FE0DC
:1056F00012E1E4E0DFE09FE063E0FDE2AAE27DE2A8
:1057000078E24BE20FE2EFE1C7E18BE155E143E1E3
:1057100000223B46FBF7ECF88DD20021C8F81810A8
:10572000C8F81C10C8F82010C8F8241089F80750D1
:1057300040F26310A9F84800E1E258480021C8E9A6
:105740000610C8F82010C8F82410BBF1030F13D1BD
:10575000012B11D06068DAF82C10081AFBF71AF840
:105760001DF031FB00224E4BFBF7C2F889D24FF4FB
:10577000B370A9F84800C2E20021C8F81810C8F8B0
:105780001C1040F26910A9F84800B8E20021C8F8DE
:105790001810C8F81C104048C8E90810009810F10B
:1057A0005A0F04DA4FF4B470A9F84800A7E2BBF12D
:1057B000030F01D1012BBFD140F26710A9F84800B7
:1057C0009DE238B92068CAF834006068CAF8380029
:1057D00089F807102E480021C8E90610C8F82010E3
:1057E000C8F824102068DAF83410081AFAF7D2FF43
:1057F0001DF0E9FA00223B46FBF77AF80CD360680B
:10580000DAF83810081AFAF7C5FF1DF0DCFA0022A2
:105810003B46FBF76DF88FD20021C8F81810C8F886
:105820001C10C8F82010C8F8241089F807504FF44D
:10583000B370A9F8480062E2BBF1030F13D1012B4A
:1058400011D06068DAF82C10081AFAF7A3FF1DF0DF
:10585000BAFA0022124BFBF74BF823D24FF4B57083
:10586000A9F848004BE20021C8F81810C8F81C102D
:10587000C8F82010C8F8241040F26910A9F84800B0
:105880003DE20000B0000020A800002000002440FD
:1058900000406FC000805640000049C000406F408B
:1058A00000006440FE480021C8E90610C8F8201036
:1058B000C8F8241023E2A9F8485002261FE200216C
:1058C000C8F81810C8F81C10F648C8E90810009865
:1058D000FAF760FF1DF077FA0022F34BFBF708F8A8
:1058E0000ED20020C8F81800C8F81C000021C8F823
:1058F0002010C8F824104FF4B670A9F84800FEE153
:10590000BBF1030F03D1E9480078012893D140F29D
:105910006B10A9F84800F2E138B92068CAF83400E1
:105920006068CAF8380089F80710E1480021C8E922
:1059300006100020C8F82000C8F824002068DAF813
:105940003410081AFAF726FF1DF03DFA00223B46F4
:10595000FAF7CEFF0CD36068DAF83810081AFAF7B5
:1059600019FF1DF030FA00223B46FAF7C1FF87D23B
:105970000021C8F81810C8F81C10C8F82010C8F882
:10598000241089F807504FF4B570A9F84800B6E123
:10599000A9F848500126B2E10021C8F81810C8F84B
:1059A0001C10C8F82010C8F824106068CAF82C0031
:1059B0004FF4B770A9F84800A1E10021C8F8181009
:1059C000C8F81C10BB48C8E908100098FAF7E2FEB6
:1059D0001DF0F9F90022B84BFAF772FF0DD2002141
:1059E000C8F81810C8F81C10C8F82010C8F82410FF
:1059F0004FF4B870A9F8480081E1BBF1030F03D15F
:105A0000AA480078012886D10021C8F81810C8F8E3
:105A10001C10C8F82010C8F8241040F26F10A9F824
:105A200048006CE138B92068CAF834006068CAF8E8
:105A3000380089F807109E480021C8E90610C8F808
:105A40002010C8F824102068DAF83410081AFAF781
:105A5000A1FE1DF0B8F900223B46FAF749FF0CD32E
:105A60006068DAF83810081AFAF794FE1DF0ABF9FE
:105A700000223B46FAF73CFF89D20021C8F81810F3
:105A8000C8F81C10C8F82010C8F8241089F807506E
:105A90004FF4B770A9F8480031E181480021C8E906
:105AA0000610C8F82010C8F82410BBF1030F13D15A
:105AB000012B11D06068DAF82C10081AFAF76AFE88
:105AC0001DF081F900227D4BFAF712FF03D240F25C
:105AD0007110A9F8480012E10021C8F81810C8F8A0
