:020000040800F2
:1000000048CD0020E901000851AE00083181000808
:100010004DAE00085D0E000879E800080000000001
:100020000000000000000000000000004501000882
:10003000397600080000000089010008E1DA0008B4
:10004000030200080302000803020008030200087C
:10005000030200080302000803020008030200086C
:100060000302000869760008030200080302000882
:10007000030200080302000803020008030200084C
:10008000030200080302000803020008030200083C
:10009000030200080302000803020008917600082A
:1000A000030200080302000803020008030200081C
:1000B00003020008A1DD0008030200080302000893
:1000C00003020008030200080302000803020008FC
:1000D00003020008030200084DE400085DE4000884
:1000E0003D7600080302000803020008030200082E
:1000F00003020008030200080302000803020008CC
:10010000030200080302000835DE000803020008AD
:100110003DE4000803020008D5DE000803020008E1
:10012000030200080302000803020008030200089B
:10013000DFF80CD000F006FD00480047514C0108E4
:1001400048CD0020204B19680868B0E8F00F80F314
:100150000988BFF36F8F4FF0000080F311884EF0D5
:100160000D0E70470000000006480068006880F32C
:10017000088862B661B6BFF34F8FBFF36F8F00DFA1
:1001800000BF00BF08ED00E0EFF30980BFF36F8F01
:100190000D4B1A6820E9F00F106008B54FF0100001
:1001A00080F3118815F06AFB4FF0000080F311888E
:1001B000BDE8084019680868B0E8F00F80F30988C6
:1001C000BFF36F8F704700BF40010020EFF3118035
:1001D0004FF0100181F31188704780F31188704748
:1001E000EFF3058070470000064880470648004747
:1001F000FEE7FEE7FEE7FEE7FEE7FEE7FEE7FEE7D7
:10020000FEE7FEE701DB00083101000840EA0103D8
:100210009B0703D009E008C9121F08C0042AFAD2BC
:1002200003E011F8013B00F8013B521EF9D2704780
:10023000D2B201E000F8012B491EFBD27047002228
:10024000F6E710B513460A4604461946FFF7F0FFD5
:10025000204610BDF0B480EA0102D40F4200B2EB98
:10026000410F02D20246084611464A0042D0C30D51
:10027000DDB2C1F3C752AD1A202D35DAC1F3160134
:1002800041F4000204B15242C5F1200602FA06F11F
:100290002A411044B3EBD05F23D0C4B1012DA0EBB1
:1002A000C35009DCF0BC4FF0004202EAC352DBB29B
:1002B00000F5000000F08BBB400000F1807000EB07
:1002C000C350A0F1807040EAD170490009E04908AC
:1002D00041EAC071A0EBC35000F50000400800EBFC
:1002E000C350F0BC00F06ABB6142012202EB410145
:1002F000001BF6E7F0BC704781F00041AAE780F0F0
:100300000040A7E780EA010210B502F00043400078
:1003100022D04A001FD0010E01EB1261C0F356003B
:10032000C2F3560240F4000042F40002A0FB022097
:1003300000047F39140400D0401C50EA124001D45C
:100340004000491EC2B20C0604EBD010401C40080D
:10035000802A02D003E0002010BD20F00100002917
:1003600000DA0020184310BD30B480EA010202F028
:10037000004530F0004221F0004013D090B1C30D91
:10038000D40DC2F31601C0F31600E41A41F40001C3
:1003900040F400027D34914201D3641C00E0490026
:1003A000002C02DA30BC002070474FF4000000231C
:1003B000914201D3891A034340084FEA4101F7D122
:1003C00051B1914202D14FF0004105E002D24FF00D
:1003D000010101E06FF0010103EBC450284430BC7F
:1003E00000F0ECBA2DE9FE4F804681EA0300C00F11
:1003F0000C46009021F0004123F00045B8EB0200CC
:10040000A94105D24046214690461C460B4602466D
:1004100023F00040104347D0270DC7F30A00C3F371
:100420000A510290401A019040286BDAC3F313007E
:1004300040F4801B0098924620B10023D2EB030ABF
:1004400063EB0B0B01985946C0F14002504600F097
:1004500084FA06460D4650465946019A00F09CFA29
:1004600010EB08006141002487EA115284EAE77327
:100470001A4340D0009A62B3019A012A4FEA075208
:1004800015DC001B61EB02014FF0004202EA07524B
:10049000CDE90042001C41F5801132462B4600F0A8
:1004A000D3FA03B0BDE8F08F40462146F9E7001BC0
:1004B00061EB0201001C41F5801300185B4120181C
:1004C000A2F5001747EB030140EAD570B6196D415C
:1004D00011E06D084FEA360645EAC0754FEA07524B
:1004E000001B61EB0201001C41F5801149084FEA35
:1004F00030000019514132462B4603B0BDE8F04FA1
:1005000000F093BA0098012240000023D0EB0202D1
:1005100063EBE073009821464FEAE074B8EB00000B
:1005200061EB0401E9E783F000435BE781F0004100
:1005300058E72DE9FE4F81EA030404F0004421F05E
:10054000004100944FF0000B23F0004350EA0104F7
:100550005ED052EA03045BD0C3F30A54C1F30A55D8
:100560002C44A4F2F3340194A0FB0254C1F3130110
:1005700041F48011C3F3130343F4801301FB0244DD
:1005800000FB034E840A970A44EA815447EA8357E2
:10059000A4FB076802958D0A05FB07854FEA932C9B
:1005A00004FB0C542705029D4FEA065847EA16370C
:1005B000B5EB08056EEB070C870E920E47EA811724
:1005C00042EA8312A7FB0201B6EB0B0164EB0004C5
:1005D0002B0D43EA0C335E1844EB1C50DA465146AF
:1005E000E7FB0201C5F313044FEA0B3343EA14534C
:1005F0004FEA0432019C43EA0603A4F10C0402947E
:10060000009CCDE900B400F01FFA03B0BDE8F08F04
:1006100000200146F9E72DE9F04D81EA030404F0DA
:10062000004B21F0004514464FF0000A23F0004132
:1006300050EA050220D054EA01021DD0C5F30A5742
:100640000246C5F31303C1F31300C1F30A5640F485
:10065000801543F48013A7EB0608101BD64608F25A
:10066000FD3873EB050002D308F1010801E0921890
:100670005B41B8F1000F03DA00200146BDE8F08DC0
:1006800000204FF48011064684460EE0171B73EBE2
:10069000050705D3121B63EB050306434CEA010C67
:1006A00049084FEA300092185B4150EA0107EDD14A
:1006B00052EA030012D082EA040083EA05010843EB
:1006C00005D0101BAB4106D20122002306E0002218
:1006D0004FF0004302E06FF0010253101AEB0600E6
:1006E0004CEB085110EB0A0041EB0B01BDE8F04D5B
:1006F00000F09BB9C10F80EAE0700844CA07962356
:10070000002100F064B996230022114600F05FB981
:100710000EB5C10F80EAE0700844CA07002140F21C
:1007200033438DE80E000A460B4600F08DF903B006
:1007300000BD0EB540F2334102910021CDE9001118
:100740000A460B4600F080F903B000BD00F00042FD
:1007500020F00040C10DC0F3160040F400007F29D6
:1007600001DA00207047962903DCC1F19601C840E8
:1007700001E096398840002AF4D04042704720F0CA
:100780000040C10DC0F3160040F400007F2901DADB
:1007900000207047962903DCC1F19601C8407047DC
:1007A00096398840704770B5C1F30A5201F0004590
:1007B0000024C1F3130140F2FF3341F480119A4247
:1007C00001DA002070BD40F233439A42A2F2334274
:1007D00003DC524200F0D0F800E090402C43F1D00E
:1007E000404270BD00F0004230F000400AD0C10D20
:1007F00001F56071C0F3160042EA0151C2084007DA
:1008000011437047002001467047000030B5041EB8
:1008100071F1000404DB4FF00044404264EB01013D
:10082000141E73F1000405DB1C464FF000435242D6
:1008300063EB04038B4208BF824230BD30B5041E17
:1008400071F1000404DB4FF00044404264EB01010D
:10085000141E73F1000405DB1C464FF000435242A6
:1008600063EB0403994208BF904230BD01F000439E
:1008700030B421F0004150EA010206D00A0DA2F581
:100880006072C1F31301002A02DC30BC0020704703
:10089000440F44EAC104C100E01830BC00EBC25070
:1008A00000F08CB8002801DBC0F10040002901DB1A
:1008B000C1F1004181427047002801DBC0F10040D6
:1008C000002901DBC1F100418842704730B50B4679
:1008D000014600202022012409E021FA02F59D4270
:1008E00005D303FA02F5491B04FA02F52844151E44
:1008F000A2F10102F1DC30BD2DE9F05F05460020D8
:1009000092469B4688460646814640241BE0284680
:1009100041464746224600F02FF853465A46C01A31
:10092000914110D311461846224600F016F82D1AB0
:1009300067EB01084F4622460120002100F00DF828
:1009400017EB00094E41201EA4F10104DFDC4846EC
:1009500031462A464346BDE8F09F202A04DB203A70
:1009600000FA02F1002070479140C2F1200320FA02
:1009700003F3194390407047202A04DB203A21FA00
:1009800002F00021704721FA02F3D040C2F12002A8
:100990009140084319467047202A06DBCB17203ABE
:1009A00041FA02F043EAE07306E041FA02F3D04074
:1009B000C2F1200291400843194670470029A8BFA0
:1009C0007047401C490008BF20F00100704710B478
:1009D000B0FA80FC00FA0CF050EA010404BF10BC2D
:1009E000704749B1CCF1200421FA04F411FA0CF15A
:1009F00018BF012121430843A3EB0C01CB1D4FEA93
:100A000000614FEA102042BF002010BC704700EB8D
:100A1000C35010440029A4BF10BC7047401C4900BB
:100A200008BF20F0010010BC704710B5141E73F110
:100A3000000408DA401C41F1000192185B411A439E
:100A400001D120F0010010BD2DE9F04D92469B46EA
:100A500011B1B1FA81F202E0B0FA80F22032904690
:100A6000FFF77BFF04460F4640EA0A0041EA0B010C
:100A700053465A46084313D0114653EA010019D091
:100A8000C8F140025046FFF777FF05460E46504634
:100A900059464246FFF761FF084305D0012004E0B4
:100AA00020463946BDE8F08D0020054346EAE07651
:100AB0002C4337430A986305E40AA0EB08000022A0
:100AC000FD0A44EA47540A3002D500200146E9E70E
:100AD000010510196941DDE9084500196941BDE8C2
:100AE000F04DA2E770B521F0004303430CD0C1F3F1
:100AF0000A550024D5EB040564EB0403D617AD1AA0
:100B0000B34102DB0020014670BD201841EB0251C9
:100B100070BDC1F30A52C1F3130140F2FF3341F437
:100B200080119A4202DA00200146704740F23343B6
:100B30009A42A2F2334202DC5242FFF71DBFFFF796
:100B40000CBF0000064C074D06E0E06840F00103D2
:100B500094E8070098471034AC42F6D3FFF7ECFA5C
:100B6000A8610108C861010870B58C1810F8015B14
:100B700015F0070301D110F8013B2A1106D110F836
:100B8000012B03E010F8016B01F8016B5B1EF9D13A
:100B90002B0705D40023521E0DD401F8013BFAE7C0
:100BA00010F8013BCB1A921C03E013F8015B01F82B
:100BB000015B521EF9D5A142D8D3002070BD21B1EE
:100BC000826842F00102826003E0826822F0010242
:100BD0008260704710B504461248844208D1012152
:100BE00040150AF0A5F9002160150AF0A1F917E0F7
:100BF0000D48844208D1012100150AF099F900211D
:100C000020150AF095F90BE00848844208D101212B
:100C1000C8030AF08DF900214FF400400AF088F96A
:100C200010BD00000024014000280140003C0140AC
:100C3000014600208A6802F004020AB1012000E0A7
:100C4000002070470146C86C80B270470246002001
:100C500013680B400BB1012000E0002070470146F3
:100C600000208A6802F008020AB1012000E000209A
:100C70007047000030B502460020002350680F4C3A
:100C800020400D790C6844EA0524204350609068A8
:100C90000B4C2040D1E902542C434D7944EA4504E1
:100CA00020439060D06A20F470000C7C641EE4B293
:100CB000234340EA0350D06230BD0000FFFEF0FF46
:100CC000FDF7F1FFF0B504460D4600200021092D87
:100CD00011DDE068A5F10A0606EB4607072606FACD
:100CE00007F18843A5F10A0606EB460603FA06F16A
:100CF0000843E0600CE0206905EB4507072606FA8B
:100D000007F1884305EB450603FA06F10843206125
:100D1000072A0FDA606B561E06EB86071F2606FAB7
:100D200007F18843561E06EB860605FA06F10843CE
:100D3000606322E00D2A0FDA206BD61F06EB8607D0
:100D40001F2606FA07F18843D61F06EB860605FA2A
:100D500006F10843206310E0E06AA2F10D0606EBFD
:100D600086071F2606FA07F18843A2F10D0606EB57
:100D7000860605FA06F10843E062F0BD816841F09D
:100D800008018160704721B1826842F4A00282604C
:100D900003E0826822F4A00282607047816841F01B
:100DA000040181607047000010B5012014F016FEA8
:100DB0000149086010BD00000C0000201FB5002094
:100DC000144A0123CDE901200093039003464FF418
:100DD000806211A1144814F0F5FE0020134A02238A
:100DE000CDE901200093039003464FF4806210A1E7
:100DF000134814F0E7FE0020124A0323CDE9012036
:100E00000093039003464FF480620FA1124814F040
:100E1000D9FE1FBD00000020765461736B446563EA
:100E20006973696F6E0000003356010804000020EA
:100E3000765461736B436F6E74726F6C00000000C8
:100E40001556010808000020765461736B506572D6
:100E500063657074696F6E00CD56010800BFFEE7D0
:100E60002DE9F05F044689464FF0000AFE49A0686C
:100E70000860FE48006840F22942811A904270D012
:100E800020DC40F22342A0EB020190426AD00FDC4A
:100E9000432868D005DC58B3412866D042285FD18A
:100EA000D5E2A0F2214000287ED00128F7D11AE334
:100EB000062955D2DFE811F054008403B9031E045B
:100EC0005A0465041229F4D2DFE811F04A00D10473
:100ED0004A004A004A004A004A004A00D40006017B
:100EE000490174019F0100023A0245027902BB02E6
:100EF000DF48007840B9DF4920680860DE49606853
:100F000008600120DA4908700021DC48DC4AC2E9A7
:100F10000010DC4A11605160D64A21681268501AEC
:100F2000FFF7F6FB074613F0A3FE05460022D64B5B
:100F3000FFF784FC0ED3D04A61681268501AFFF79D
:100F4000E7FB074613F094FE05460022CE4BFFF761
:100F500075FC09D24120C54908600020C4490870C9
:100F60001DE2FCE301E375E0FAE7C148007840B90F
:100F7000C04920680860C049606808600120BC4919
:100F800008700021BD48BE4AC2E90010BD4A116088
:100F90005160B9F1020F05D0B9F1000F02D0B9F1DB
:100FA000010F24D1002100E060E2B54A11605160D8
:100FB000B44A11605160AC480068642190FBF1FBB9
:100FC0005846FFF7A5FB074613F052FE05460022E0
:100FD000AE4BFFF71BFC03D24320A449086002E09C
:100FE0004220A24908600020A1490870B8E7A14A40
:100FF00021681268501AFFF78BFB074613F038FE82
:1010000005460022A24BFFF719FC22D200219C4A80
:10101000116051609B4A11605160934800686421DF
:1010200090FBF1FB5846FFF773FB074613F020FED9
:1010300005460022954BFFF7E9FB03D243208B497D
:10104000086002E042208949086000208849087051
:1010500086E785E700218A4A116051600020894AAD
:10106000106050608B496068086040F231407F49F1
:10107000086075E70021824A116051608648814A04
:10108000C2E9001078480068642190FBF1F03C2828
:101090000BDD00217A4A116051607A4A116051607B
:1010A00040F2334071490860E7E3B9F1020F05D01F
:1010B000B9F1000F02D0B9F1010F0CD10020704A34
:1010C0001060506000216F4A1160516040F2324060
:1010D00066490860D1E3D0E36548007840B96549C6
:1010E00020680860644960680860012060490870F1
:1010F00000216248624AC2E900100020614A106083
:1011000050605C4A21681268501AFFF701FB0746DD
:1011100013F0AEFD054600225B4BFFF78FFB0ED3AD
:10112000554A61681268501AFFF7F2FA074613F041
:101130009FFD05460022544BFFF780FB0ED2002096
:101140004F4A1060506000214E4A1160516048497A
:10115000087040F23140454908608EE38DE300207D
:101160004E49474A03C20021464A11605160B9F115
:10117000020F05D0B9F1000F02D0B9F1010F04D16F
:1011800040F234403949086077E3424A61681268A6
:10119000501AFFF7BDFA074613F06AFD0546002214
:1011A0003F4BFFF74BFB04D240F234402F4908601D
:1011B00063E362E30021324A116051600020364946
:1011C000304A03C228480068642190FBF1F052289D
:1011D0000CDD00202A4A106050600021294A11606D
:1011E000516040F236402149086046E3B9F1020FF0
:1011F00005D0B9F1000F02D0B9F1010F04D140F2CE
:1012000035401A49086038E337E31948007840B997
:10121000184920680860184960680860012014496E
:10122000087000211548164AC2E90010154A1160DD
:101230005160104A21681268501AFFF769FA074690
:1012400013F016FD054600220F4BFFF7F7FA2DD3DA
:10125000094A61681268501AFFF75AFA074613F0F4
:1012600007FD054600221DE0FC000020E4000020F0
:1012700081000020980000209C00002000406FC0EA
:1012800070000020780000200000084000805640D8
:10129000000024408C0000200000494000406F40C6
:1012A00000006440FE4BFFF7C9FA0ED20021FD4A50
:1012B000116051600020FC4A10605060FB490870CA
:1012C00040F23440FA490860D7E2D6E20021F948FA
:1012D000F44AC2E90010F44A11605160B9F1020FFA
:1012E00005D0B9F1000F02D0B9F1010F0BD10021E7
:1012F000EC4A11605160EC4A1160516040F2374095
:10130000EB490860B9E2EC4A61681268501AFFF7CD
:10131000FFF9074613F0ACFC05460022E74BFFF748
:101320008DFA0CD20020DF4A106050600021DE4AA6
:10133000116051604FF48760DD4908609DE29CE2D6
:101340004946204609F0A8F820B140F23A40D84971
:10135000086092E291E20021D24A116051600020BF
:10136000D749D14A03C2D7480068642190FBF1FBFA
:101370005846FFF7CDF9074613F07AFC05460022E0
:10138000D14BFFF75BFA0BD20021C64A11605160C6
:10139000C54A1160516040F23A40C54908606CE2AC
:1013A000B9F1020F05D0B9F1000F02D0B9F1010F68
:1013B00004D140F23940BE4908605EE25DE2BB48BC
:1013C000007840B9C14920680860C1496068086078
:1013D0000120B64908700021BE48B24AC2E9001097
:1013E000B14A11605160B94A21681268501AFFF77A
:1013F0008FF9074613F03CFC05460022A84BFFF787
:101400001DFA0ED3B24A61681268501AFFF780F9CC
:10141000074613F02DFC05460022A14BFFF70EFAFC
:101420000ED200219F4A1160516000209E4A106038
:1014300050609E4908704FF487609D4908601CE227
:101440001BE200209A4908604FF0010A15E20021D2
:10145000944A11605160944A1160516096496068E5
:10146000086040F221409249086006E200218D4A5E
:101470001160516098488C4AC2E900109148006898
:10148000642190FBF1FB5846FFF742F9074613F041
:10149000EFFB05460022914BFFF7B8F90CD2002074
:1014A000804A1060506000217F4A1160516040F214
:1014B00023407F490860E0E1B9F1020F05D0B9F19E
:1014C000000F02D0B9F1010F0CD10020754A106055
:1014D00050600021744A1160516040F2224074490A
:1014E0000860CAE1C9E17148007840B977492068CD
:1014F000086077496068086001206C490870002125
:101500007448684AC2E90010674A116051606F4A26
:1015100021681268501AFFF7FBF8074613F0A8FB82
:10152000054600225E4BFFF789F90ED3684A6168D1
:101530001268501AFFF7ECF8074613F099FB0546BE
:101540000022574BFFF77AF90ED20021554A11605D
:101550005160554A1160516000205449087040F2B2
:1015600021405349086088E187E1002151484D4AF4
:10157000C2E900104C4A11605160B9F1020F05D068
:10158000B9F1000F02D0B9F1010F04D140F22440AB
:101590004749086071E1484A61681268501AFFF7CC
:1015A000B7F8074613F064FB05460022434BFFF7EC
:1015B00045F904D240F224403D4908605DE15CE118
:1015C0000021384A1160516000204349364A03C265
:1015D0003C480068642190FBF1FB5846FFF798F8FF
:1015E000074613F045FB054600223D4BFFF70EF979
:1015F0000CD200202B4A1060506000212A4A116052
:10160000516040F226402A49086036E1B9F1020FE4
:1016100005D0B9F1000F02D0B9F1010F04D140F2A9
:1016200025402349086028E127E12048007840B997
:1016300026492068086026496068086001201B4927
:10164000087000212348174AC2E90010164A1160A9
:1016500051601E4A21681268501AFFF759F8074670
:1016600013F006FB054600220D4BFFF7E7F80ED3FB
:10167000174A61681268501AFFF74AF8074613F0D4
:10168000F7FA05460022064BFFF7D8F831D20021C1
:10169000044A11605160044A11605160002021E049
:1016A0000000084070000020780000208100002029
:1016B000E400002000406F408C00002000006440E7
:1016C00000004940FC00002000A065409800002078
:1016D0009C00002000406FC0000049C000005E4038
:1016E000008058406749087040F22440664908600D
:1016F000C3E0C2E000216548654AC2E90010654ABE
:1017000011605160B9F1020F05D0B9F1000F02D09C
:10171000B9F1010F0BD100215D4A116051605D4AA2
:101720001160516040F2274057490860A5E05A4ACD
:1017300061681268501AFEF7EBFF074613F098FA3B
:1017400005460022554BFFF779F80ED20021504A8A
:101750001160516000204F4A1060506000E045E089
:101760004FF485604849086087E086E04946204696
:1017700007F0ACFE20B140F22A40434908607CE00B
:101780007BE00021424A1160516000204449414AF7
:1017900003C244480068642190FBF1FB5846FEF701
:1017A000B7FF074613F064FA054600223E4BFFF7E9
:1017B0002DF80CD20021364A116051600020354AC4
:1017C0001060506040F22A402F49086055E0B9F19E
:1017D000020F05D0B9F1000F02D0B9F1010F04D109
:1017E00040F229402849086047E046E02548007853
:1017F00040B92E49206808602D49606808600120C2
:101800002049087000202B49214A03C20021214AA7
:1018100011605160254A21681268501AFEF778FF5E
:10182000054613F025FA07460022234BFFF706F87A
:101830000ED31F4A61681268501AFEF769FF054609
:1018400013F016FA074600221B4BFEF7F7FF0DD2E6
:1018500000200F4A106050600E4A10605060094925
:1018600008704FF485600849086006E005E0002034
:10187000054908604FF0010A00BF00BF5046BDE8AF
:10188000F09F000081000020E400002000406F4035
:1018900070000020780000208C00002000006440D0
:1018A000000049C0FC0000200000204098000020FB
:1018B0009C00002000406FC0000008402DE9F05F50
:1018C000044689464FF0000AFC49A0680860FC48BD
:1018D000006840F22942811A904275D020DC40F223
:1018E0002342A0EB020190426FD00FDC43286DD061
:1018F00005DC58B341282DD042282AD1A3E0A0F21C
:10190000214000287ED00128F7D1DEE0062920D230
:10191000DFE811F01F0048017501B7010F021A023C
:101920001229F4D2DFE811F0150086021500150027
:1019300015001500150015009B02D5021703420380
:101940007603B80315042004540497044120DC49AD
:1019500008601EE2DB48007840B9DB492068086077
:10196000DA49606808600120D64908700021D8482B
:10197000D84AC2E900100020D74A10605060B9F17F
:10198000020F05D0B9F1000F02D0B9F1010F25D136
:101990000020D04A10605060CF4A10605060C748A5
:1019A0000068642190FBF1FB5846FEF7B1FE074644
:1019B00013F05EF905460022C84BFEF727FF06D25A
:1019C0004220BF49086005E0F3E1C0E038E243206F
:1019D000BB4908600020BB490870BAE7BA4A2168D1
:1019E0001268501AFEF794FE074613F041F90546B7
:1019F0000022BB4BFEF722FF24D20021B54A116022
:101A0000516000E02EE0B44A11605160AB480068BC
:101A1000642190FBF1FB5846FEF77AFE074613F06F
:101A200027F905460022AD4BFEF7F0FE03D2422017
:101A3000A349086002E04320A14908600020A149B1
:101A4000087086E785E70021A24A11605160A24A2A
:101A500011605160A3496068086040F221409849D4
:101A60000860FEE300219B4A1160516000209E49FE
:101A7000994A03C291480068642190FBF1F010F18B
:101A80003C0F0BDA0021934A11605160924A1160B9
:101A9000516040F223408A490860E2E3B9F1020F45
:101AA00005D0B9F1000F02D0B9F1010F0CD100201F
:101AB000884A106050600021874A1160516040F2EE
:101AC00022407F490860CCE3CBE37E48007840B9F0
:101AD0007D49206808607D49606808600120794977
:101AE000087000217A487B4AC2E900107A4A1160E6
:101AF0005160754A21681268501AFEF709FE0746C0
:101B000013F0B6F805460022784BFEF797FE0ED389
:101B10006E4A61681268501AFEF7FAFD074613F024
:101B2000A7F805460022714BFEF788FE0ED2002072
:101B3000684A106050600021674A11605160614935
:101B4000087040F221405E4908608AE389E3002181
:101B50006748604AC2E900105F4A11605160B9F1FC
:101B6000020F05D0B9F1000F02D0B9F1010F04D175
:101B700040F224405249086073E35A4A616812688F
:101B8000501AFEF7C5FD074613F072F8054600220D
:101B9000584BFEF753FE04D240F2244048490860F7
:101BA0005FE35EE300204B4A1060506000214E4826
:101BB000494AC2E9001041480068642190FBF1F0F5
:101BC00010F1520F0CDA0021424A116051600020DE
:101BD000414A1060506040F226403949086040E3B5
:101BE000B9F1020F05D0B9F1000F02D0B9F1010F20
:101BF00004D140F225403249086032E331E33148F4
:101C0000007840B930492068086030496068086051
:101C100001202C49087000212D482E4AC2E90010ED
:101C20002D4A11605160284A21681268501AFEF747
:101C30006FFD074613F01CF8054600222B4BFEF7FC
:101C4000FDFD0ED3214A61681268501AFEF760FD4F
:101C5000054613F00DF807460022244BFEF7EEFD73
:101C60000ED200201B4A1060506000211A4A1160F9
:101C700051601449087040F2244011490860F0E2B4
:101C8000EFE200201A49134A03C2134A1060506061
:101C9000B9F1020F05D0B9F1000F02D0B9F1010F6F
:101CA0002AD100200B4A1060506000210A4A1160BE
:101CB000516040F2274002490860D2E2FC00002057
:101CC0006C00002081000020980000209C00002073
:101CD00000406FC070000020780000200080564057
:101CE000000024408C000020000049C00000084093
:101CF00000406F4000006440FE4A61681268501A5C
:101D0000FEF706FD074612F0B3FF05460022FA4B28
:101D1000FEF794FD0CD20020F84A106050600021BC
:101D2000F74A116051604FF48560F649086098E207
:101D300097E2494620460BF05DF920B140F22D2094
:101D4000F04908608DE28CE20021EC4A116051609C
:101D5000ED48EB4AC2E90010EC480068642190FBB2
:101D6000F1FB5846FEF7D4FC074612F081FF05460A
:101D70000022E74BFEF762FD0CD20020DF4A106024
:101D800050600021DE4A1160516040F22A40DD4976
:101D9000086066E2B9F1020F05D0B9F1000F02D078
:101DA000B9F1010F04D140F22940D649086058E248
:101DB00057E2D848007840B9D74920680860D74929
:101DC000606808600120D34908700020D449CB4ADC
:101DD00003C2CB4A10605060CF4A21681268501A83
:101DE000FEF796FC074612F043FF05460022CD4B56
:101DF000FEF724FD0ED3C94A61681268501AFEF737
:101E000087FC074612F034FF05460022C54BFEF75B
:101E100015FD0ED20020B94A106050600021B84A6A
:101E200011605160BB4908704FF48560B549086086
:101E300017E216E20020B34908604FF0010A10E2F1
:101E40000021AE4A11605160AD4A11605160A9494C
:101E50006068086040F23140AA49086001E2002051
:101E6000A64A10605060B049A54A03C2A74800685E
:101E7000642190FBF1FB5846FEF74AFC054612F040
:101E8000F7FE07460022A94BFEF7C0FC0BD200204C
:101E90009A4A106050609A4A1060506040F2334095
:101EA00098490860DDE1B9F1020F05D0B9F1000FE2
:101EB00002D0B9F1010F0BD10021904A116051609D
:101EC0008F4A1160516040F232408E490860C8E18B
:101ED000C7E19048007840B98F49206808608F4971
:101EE0006068086001208B49087000218C48834A93
:101EF000C2E90010824A11605160874A2168126865
:101F0000501AFEF705FC074612F0B2FE0546002205
:101F1000844BFEF793FC0ED3804A61681268501A16
:101F2000FEF7F6FB074612F0A3FE054600227D4BA6
:101F3000FEF784FC0ED20020704A10605060002131
:101F40006F4A116051607349087040F231406D4929
:101F5000086086E185E100217548684AC2E9001001
:101F6000674A11605160B9F1020F05D0B9F1000F55
:101F700002D0B9F1010F04D140F234406149086048
:101F80006FE15C4A61681268501AFEF7C1FB0746B0
:101F900012F06EFE05460022574BFEF74FFC04D2AE
:101FA00040F23440574908605BE15AE10021534A4E
:101FB000116051605C48524AC2E900105348006801
:101FC000642190FBF1FB5846FEF7A2FB074612F096
:101FD0004FFE05460022574BFEF718FC0BD200219E
:101FE000464A11605160464A1160516040F23640E5
:101FF0004449086035E1B9F1020F05D0B9F1000F8D
:1020000002D0B9F1010F04D140F235403D490860DA
:1020100027E126E13F48007840B93F492068086041
:102020003E496068086001203A49087000203C4938
:10203000324A03C20021324A11605160364A216897
:102040001268501AFEF764FB074612F011FE0546AF
:102050000022344BFEF7F2FB0ED3304A616812685F
:10206000501AFEF755FB074612F002FE0546002205
:102070002C4BFEF7E3FB0ED20020204A106050608C
:1020800000211F4A116051602249087040F234401B
:102090001C490860E5E0E4E000212548174AC2E950
:1020A0000010174A11605160B9F1020F05D0B9F163
:1020B000000F02D0B9F1010F0BD100200F4A1060C0
:1020C00050600F4A1060506040F237400D49086080
:1020D000C7E0084A61681268501AFEF719FB074604
:1020E00012F0C6FD05460022034BFEF7A7FB2FD2D8
:1020F000002121E08C0000200000644070000020DE
:10210000780000206C000020000049C0FC00002086
:1021100000A0654081000020980000209C00002065
:1021200000406FC0000008400000494000005E40D1
:1021300000406F40004057404C4A11605160002001
:102140004B4A106050604FF487604A49086088E04D
:1021500087E04946204609F04FFF20B140F22D208C
:10216000444908607DE07CE00021404A11605160F4
:1021700041483F4AC2E9001040480068642190FB92
:10218000F1FB5846FEF7C4FA054612F071FD07460A
:1021900000223B4BFEF73AFB0BD20020334A106083
:1021A0005060334A1060506040F22A403149086064
:1021B00057E0B9F1020F05D0B9F1000F02D0B9F123
:1021C000010F04D140F239402A49086049E048E053
:1021D0002C48007840B92C49206808602B49606879
:1021E0000860012027490870002129481F4AC2E9D8
:1021F000001000201E4A10605060234A21681268B7
:10220000501AFEF785FA054612F032FD0746002205
:10221000204BFEF713FB0ED31C4A61681268501A5C
:10222000FEF776FA054612F023FD07460022194B09
:10223000FEF704FB0ED200210C4A11605160002011
:102240000B4A106050600F4908704FF487600949CD
:10225000086006E005E00020064908604FF0010A2A
:1022600000BF00BF5046BDE8F09F00007000002096
:10227000780000206C00002000004940FC00002095
:102280000000244081000020980000209C000020D5
:1022900000406FC00000084003B587B000200690E2
:1022A00007988068FE490860FE48006840F22732BF
:1022B000811A90427DD03BDC40F24522A0EB020126
:1022C000904277D01FDCB0F5107F00F07A870FDCEA
:1022D000322870D004DC78B3312841F09E82A0E02F
:1022E000332800F07487A0F23F200028F5D1F5E3F1
:1022F000A0F2412000287CD001287BD002287AD08F
:102300000328EAD1EBE3DD2976D008DC012974D07B
:10231000022973D0032972D0DC29DED10DE1DE2938
:102320006ED0DF296DD0E0296CD0E129D5D1D7E37B
:102330001C2981F0728200E01DE0DFE811F0CE0878
:10234000E205CE08CE0833066A06CE08CE08CE08CF
:10235000CE0858079507E3073C086508B308F1085D
:1023600021096F09AD09B809F509640ACE08CE083C
:1023700014059405F206CC48007850B90798006817
:10238000CA49086007984068C94908600120C649E1
:1023900008700020C749C84A03C20021C74A11601B
:1023A000516007980068C1490968091A08460191F7
:1023B00002E0FDE34FE2B3E0FEF7AAF9CDE9020146
:1023C00012F056FC0022BE4BCDE90401FEF736FAAE
:1023D0001ED307984068B6490968091A0846019152
:1023E000FEF796F9CDE9020112F042FC0022B44B4F
:1023F00009E044E3AFE3AAE1DBE064E2B4E2EDE24A
:1024000026E135E1FAE3CDE90401FEF717FA07D238
:102410003120A44908600020A349087001F0FDB9EB
:10242000FCE7A148007850B9079800689F49086008
:10243000079840689E49086001209B490870002168
:102440009C489D4AC2E9001000209C4A10605060E0
:102450000898022804D0089810B10898012825D1BE
:102460000021954A116051600020944A106050602C
:102470008B480068642190FBF1F00190FEF748F969
:10248000CDE9020112F0F4FB00228E4BCDE90401EC
:10249000FEF7D4F903D232208249086002E03320EB
:1024A00080490860002080490870B7E707980068F5
:1024B0007E490968091A08460191FEF729F9CDE914
:1024C000020112F0D5FB00227F4BCDE90401FEF79B
:1024D000B5F924D20021784A11605160774A116021
:1024E00051606F480068642190FBF1F00190FEF7A5
:1024F0000FF9CDE9020112F0BBFB0022714BCDE9CF
:102500000401FEF79BF903D232206649086002E01D
:102510003320644908600020634908707EE77DE746
:102520000021654A116051600020644A10605060CB
:1025300040F221305B49086070E700205E4A10607D
:10254000506062495D4A03C255480068642190FBAF
:10255000F1F00190FEF7DCF8CDE9020112F088FB02
:1025600000225B4BCDE90401FEF750F90BD20021AC
:10257000514A11605160514A1160516040F223305C
:10258000484908604AE70898022804D0089810B122
:10259000089801280CD10021474A116051600020A1
:1025A000464A1060506040F222303E49086035E7EC
:1025B00034E73D48007850B9079800683B49086007
:1025C000079840683A49086001203749087000219F
:1025D0003848394AC2E900100020384A106050607B
:1025E0000798006831490968091A08460191FEF701
:1025F0008FF8CDE9020112F03BFB0022304BCDE910
:102600000401FEF71BF913D30798406828490968AD
:10261000091A08460191FEF77BF8CDE9020112F094
:1026200027FB0022264BCDE90401FEF707F90ED265
:102630000021214A11605160204A11605160002040
:102640001949087040F2213016490860E6E6E5E6CF
:10265000002020490860079840681F4908600798D3
:1026600000681E4908604FF449700E490860D5E6BD
:10267000079800681A49086016480068401C154908
:102680000860002117480C4AC2E900100B4A11608B
:10269000516010480068042854DD0798006823E062
:1026A000FC000020E00000208100002098000020B5
:1026B0009C00002000406FC07000002078000020C7
:1026C000000008400080564000003940000049C02A
:1026D00000C06240A40000208C0000208800002080
:1026E0008400002000406F40FE490968091A08462E
:1026F0000191FEF70DF8CDE9020112F0B9FA0022BE
:10270000F94BCDE90401FEF781F81BD20798406828
:10271000F6490968091A08460191FDF7F9FFCDE964
:10272000020112F0A5FA0022EF4BCDE90401FEF7F9
:102730006DF807D20020EE49086040F23F20ED49D5
:1027400008606BE640F24320EA49086066E60898B4
:1027500020B940F22530E74908605FE60798006835
:10276000E5490968091A08460191FDF7D1FFCDE94D
:10277000020112F07DFA0022E04BCDE90401FEF7E0
:102780005DF804D24FF44A70DA49086046E60798CB
:102790004068D6490968091A08460191FDF7B8FF53
:1027A000CDE9020112F064FA0022D54BCDE9040113
:1027B000FEF744F805D30898022802D008980128AB
:1027C00004D140F24120CB49086027E607984068D1
:1027D000401CC649096888420EDA0021C94A1160C6
:1027E0005160C94A116051600120C849087040F227
:1027F0004520C049086011E6079801680846019124
:10280000FDF786FFCDE9020112F032FA0022C04B3B
:10281000CDE90401FEF712F804D24FF41070B54967
:102820000860FBE5BB480068642190FBF1F0019073
:10283000FDF76EFFCDE9020112F01AFA0022B64B45
:10284000CDE90401FDF7E2FF04D240F24720A94997
:102850000860E3E5E2E50898022804D0089801281A
:1028600001D0089820B940F24620A2490860D5E579
:10287000A8480068642190FBF1F00190FDF748FF43
:10288000CDE9020112F0F4F90022A44BCDE90401D4
:10289000FDF7BCFF0FD200209A4A10605060002163
:1028A000994A1160516001209D4908704FF41070E1
:1028B00090490860B2E50020924A10605060994942
:1028C000914A03C2AAE59848007850B90798006871
:1028D0009649086007984068954908600120924928
:1028E000087000219348874AC2E90010864A1160A7
:1028F0005160079800688D490968091A08460191D6
:10290000FDF706FFCDE9020112F0B2F900228A4B71
:10291000CDE90401FDF792FF13D30798406884497D
:102920000968091A08460191FDF7F2FECDE9020196
:1029300012F09EF90022804BCDE90401FDF77EFFE5
:1029400011D200206F4A106050606F4A10605060D2
:1029500001207349087040F2452066490860002054
:10296000714908705AE559E50898022804D008987A
:10297000012801D0089820B94FF412705D49086011
:102980004CE564480068642190FBF1F00190FDF78C
:10299000BFFECDE9020112F06BF90022664BCDE9D2
:1029A0000401FDF733FF0FD20020564A106050603B
:1029B0000021554A116051600120594908704FF4B7
:1029C00010704C49086029E500204E4A10605060A4
:1029D000002154484C4AC2E900101FE552480078D3
:1029E00050B90798006851490860079840685049F5
:1029F000086001204C49087000214E48414AC2E954
:102A00000010414A11605160079800684749096801
:102A1000091A08460191FDF77BFECDE9020112F08B
:102A200027F90022444BCDE90401FDF707FF13D33A
:102A3000079840683E490968091A08460191FDF760
:102A400067FECDE9020112F013F900223A4BCDE9FD
:102A50000401FDF7F3FE11D200212A4A11605160F2
:102A6000294A1160516001202D49087040F2472029
:102A70002049086000202C490870CFE4CEE4089873
:102A8000022804D00898012801D0089820B940F203
:102A9000422018490860C1E41E480068642190FB88
:102AA000F1F00190FDF734FECDE9020112F0E0F8FB
:102AB0000022224BCDE90401FDF7A8FE42D20021FD
:102AC000104A1160516000200F4A106050600120D0
:102AD000134908704FF41170064931E0E7E28FE0C6
:102AE00004E1000088000020000034408C00002039
:102AF000A4000020E00000208400002000804A4064
:102B0000000064407000002078000020A900002030
:102B10000088B340FC000020008056400040664022
:102B2000A8000020000049C081000020980000207B
:102B30009C00002000406FC00000084000002040C2
:102B400008606BE40021FE4A11605160FD48FE4AB6
:102B5000C2E9001062E4FD48007850B907980068A7
:102B6000FB49086007984068FA4908600120F74966
:102B700008700021F848F24AC2E90010F24A1160D8
:102B8000516007980068F2490968091A08460191DE
:102B9000FDF7BEFDCDE9020112F06AF80022EF4B0D
:102BA000CDE90401FDF74AFE15D30798406800E01F
:102BB00028E1E8490968091A08460191FDF7A8FDCE
:102BC000CDE9020112F054F80022E44BCDE90401F2
:102BD000FDF734FE13D20020D94A10605060002166
:102BE000D94A116051600120DD49087040F241204E
:102BF000DC4908600020D54908700FE409E00DE4C5
:102C000007984068D84908604FF41070D5490860AB
:102C100004E4CE48007850B907980068CC490860B1
:102C200007984068CB4908600120C8490870002017
:102C3000C949C34A03C20021C34A116051600798C1
:102C40000068C3490968091A08460191FDF760FD4B
:102C5000CDE9020112F00CF80022C04BCDE90401CD
:102C6000FDF7ECFD13D307984068BA490968091AC3
:102C700008460191FDF74CFDCDE9020111F0F8FF86
:102C80000022B64BCDE90401FDF7D8FD2DD200217D
:102C9000AB4A11605160AC4A116051600020AB49F1
:102CA0000870B2480068642190FBF1F0B0490860F8
:102CB000AE480068642190FBF1F00190FDF728FD1B
:102CC000CDE9020111F0D4FF0022AA4BCDE90401A5
:102CD000FDF7B4FD04D240F22630A249086003E0BB
:102CE00040F227309F49086018E417E4089802284A
:102CF00004D00898012801D0089858B90021904ABA
:102D000011605160904A116051604FF450709549C4
:102D1000086004E495480068642190FBF1F001909C
:102D2000FDF7F6FCCDE9020111F0A2FF0022914B64
:102D3000CDE90401FDF76AFD0BD20021804A116044
:102D40005160814A116051604FF4497085490860B3
:102D500018E400207A4A10605060002179487A4ACD
:102D6000C2E900100EE47948007850B9079800686D
:102D700077490860079840687649086001207349E0
:102D80000870002174486E4AC2E9001000206E4AA3
:102D900010605060079800686D490968091A084674
:102DA0000191FDF7B5FCCDE9020111F061FF0022B0
:102DB0006A4BCDE90401FDF741FD13D30798406844
:102DC00064490968091A08460191FDF7A1FCCDE99B
:102DD000020111F04DFF0022604BCDE90401FDF727
:102DE0002DFD0ED20021564A11605160564A1160E5
:102DF000516000205549087040F22630594908605A
:102E000024E423E40898022804D00898012801D07B
:102E1000089820B940F241305249086016E45348FE
:102E20000068642190FBF1F051490968401A019053
:102E3000FDF76EFCCDE9020111F01AFF00224E4BA6
:102E4000CDE90401FDF7FAFC04D24FF4497045497D
:102E500008600CE400213A4A1160516039483A4A4E
:102E6000C2E900106DE43948007850B9079800684D
:102E7000374908600798406836490860012033499F
:102E80000870002134482E4AC2E900102E4A116011
:102E90005160079800682E490968091A084601918F
:102EA000FDF736FCCDE9020111F0E2FE00222B4BCA
:102EB000CDE90401FDF7C2FC13D30798406825490A
:102EC0000968091A08460191FDF722FCCDE90201C3
:102ED00011F0CEFE0022214BCDE90401FDF7AEFC3E
:102EE0000ED20021164A11605160174A11605160DC
:102EF00000201649087040F227301A49086020E483
:102F00001FE41A480068642190FBF1F00190FDF77E
:102F1000FFFBCDE9020111F0ABFE0022154BCDE91C
:102F20000401FDF78BFC06D310480068642190FB78
:102F3000F1F0002831DD0021014A116051601DE0EF
:102F400070000020000049C07800002081000020AF
:102F5000980000209C00002000406FC00000084046
:102F6000A8000020E0000020A0000020FC000020BD
:102F7000AC00002000C0624000002E400020F94A52
:102F800010605060F8480068642190FBF1F0F74948
:102F9000086040F22B30F64908604FF44970F4495C
:102FA000086012E4F0480068642190FBF1F0EF49FA
:102FB0000968401A0190FDF7ABFBCDE9020111F061
:102FC00057FE0022EB4BCDE90401FDF737FC0BD295
:102FD0000021E94A11605160E24A116051604FF4EA
:102FE0004970E349086006E40898022804D008986C
:102FF00010B10898012803D14FF44B70DC490860E8
:103000000021DD4A11605160DC48D64AC2E9001057
:1030100007E4DB48007850B907980068D949086090
:1030200007984068D84908600120D54908700021F8
:10303000D648D14AC2E90010CA4A116051600798C7
:103040000068D0490968091A08460191FDF760FB3C
:10305000CDE9020111F00CFE0022CD4BCDE90401B7
:10306000FDF7ECFB13D307984068C7490968091AB4
:1030700008460191FDF74CFBCDE9020111F0F8FD86
:103080000022C34BCDE90401FDF7D8FB0ED200218D
:10309000B94A11605160B34A1160516040F22B305F
:1030A000B34908600020B6490870B6E3B5E3089854
:1030B000022804D00898012801D0089838B940F2B5
:1030C0004230AB4908600120B2490870A5E3A64828
:1030D0000068642190FBF1F00190FDF719FBCDE948
:1030E000020111F0C5FD0022AB4BCDE90401FDF753
:1030F0008DFB0ED20021A04A11605160994A1160E7
:1031000051600120A34908704FF41170984908607C
:1031100083E30020984A10605060A049914A03C29E
:103120007BE39748007850B9079800689549086094
:10313000079840689449086001209149087000216F
:1031400092488D4AC2E900100020864A1060506003
:10315000079800688B490968091A08460191FDF72C
:10316000D7FACDE9020111F083FD0022884BCDE9A9
:103170000401FDF763FB13D307984068824909688F
:10318000091A08460191FDF7C3FACDE9020111F0D1
:103190006FFD00227E4BCDE90401FDF74FFB0FD2FE
:1031A0000020754A1060506000216E4A1160516025
:1031B00040F23F206E4908600020714908702CE3FE
:1031C0002BE300206A4908600120069025E30021D6
:1031D000694A11605160634A116051600798006844
:1031E0006F49086040F231306149086015E3002101
:1031F000614A1160516061485A4AC2E900105A4858
:103200000068642190FBF1F00190FDF781FACDE9AF
:10321000020111F02DFD0022624BCDE90401FDF702
:103220000DFB0CD20020544A1060506000214D4A22
:103230001160516040F233304D490860EDE208986A
:10324000022804D0089810B1089801280BD1002159
:10325000494A11605160434A1160516040F2323076
:1032600043490860D9E2D8E24548007850B9079848
:103270000068444908600798406843490860012095
:103280003F490870002041493B4A03C20021354AAA
:1032900011605160079800683A490968091A0846A0
:1032A0000191FDF735FACDE9020111F0E1FC0022B0
:1032B000374BCDE90401FDF7C1FA13D307984068F5
:1032C00031490968091A08460191FDF721FACDE94B
:1032D000020111F0CDFC00222D4BCDE90401FDF7D8
:1032E000ADFA0ED20021244A1160516000201D4A1F
:1032F000106050602249087040F231301C4908606B
:103300008BE28AE2002128481B4AC2E90010002013
:10331000144A106050600898022804D0089810B130
:103320000898012804D14FF44D701149086074E2E7
:10333000079840681D490968091A08460191FDF778
:10334000E7F9CDE9020111F093FC0022184BCDE919
:103350000401FDF773FA2DD24FF44D700449086053
:103360005BE2000078000020FC000020AC000020A0
:10337000E000002000003E407000002000004940B6
:1033800081000020980000209C00002000406FC0B9
:1033900000000840A800002000002040000049C0B4
:1033A0009000002000003B4000406F408C00002057
:1033B00000804A4031E20021FE4A11605160FE481F
:1033C000FE4AC2E90010FE480068642190FBF1F05B
:1033D00039280BDD0020F74A10605060F74A106072
:1033E000506040F23630F749086016E2089802282B
:1033F00004D0089810B10898012804D140F2353063
:10340000F049086009E208E2EF48007850B90798EF
:103410000068EE49086007984068ED49086001209F
:10342000E94908700020EB49E24A03C20021E34A5F
:103430001160516007980068E4490968091A084654
:103440000191FDF765F9CDE9020111F011FC0022AF
:10345000E14BCDE90401FDF7F1F913D3079840687A
:10346000DB490968091A08460191FDF751F9CDE9D0
:10347000020111F0FDFB0022D74BCDE90401FDF75D
:10348000DDF90ED20021CB4A11605160CB4A1160A8
:1034900051600020CC4908704FF44D70C949086054
:1034A000BBE1BAE10021CD48C24AC2E90010C34ADB
:1034B000116051600898022804D0089810B108984B
:1034C00001280BD10020BB4A10605060BB4A10603D
:1034D000506040F23730BB4908609EE10798406871
:1034E000BF490968091A08460191FDF711F9CDE9AC
:1034F000020111F0BDFB0022BA4BCDE90401FDF73A
:103500009DF90CD20020AB4A106050600021AB4AFC
:103510001160516040F23730AA4908607DE17CE1DA
:103520000020A44A10605060A349A44A03C2A448E2
:103530000068642190FBF1F057280CDD00209D4AC3
:103540001060506000219D4A1160516040F2393096
:103550009C49086061E10898022804D0089810B1DD
:10356000089801280BD10021924A11605160934ABA
:10357000116051604FF44E70924908604DE14CE18A
:103580009148007850B907980068904908600798FA
:1035900040688F49086001208B49087000218D48E0
:1035A000844AC2E90010854A11605160079800689A
:1035B00086490968091A08460191FDF7A9F8CDE97D
:1035C000020111F055FB0022874BCDE90401FDF704
:1035D00035F913D3079840687D490968091A0846E8
:1035E0000191FDF795F8CDE9020111F041FB0022B0
:1035F0007D4BCDE90401FDF721F90ED200206D4A83
:103600001060506000216D4A116051606E49087071
:1036100040F237306B490860FFE0FEE000206F4960
:10362000644A03C2654A106050600898022804D0BA
:10363000089810B1089801280CD100205D4A10604C
:10364000506000215D4A1160516040F23A305D499E
:103650000860E2E00798406861490968091A08466D
:103660000191FDF755F8CDE9020111F001FB0022AF
:103670005E4BCDE90401FDF7E1F80CD200214D4A83
:103680001160516000204D4A1060506040F23B30A4
:103690004C490860C1E0C0E0DDE9070106F0FCFE2E
:1036A00020B140F23D3047490860B6E0B5E0002166
:1036B000404A1160516000203F49404A03C24048DF
:1036C0000068642190FBF1F00190FDF721F8CDE94D
:1036D000020111F0CDFA0022454BCDE90401FDF7BE
:1036E000ADF80CD20021334A116051600020334AFA
:1036F0001060506040F23D30324908608DE008981B
:10370000022804D0089810B1089801280BD1002095
:10371000284A10605060294A106050604FF44F7082
:103720002849086079E078E02748007850B9079880
:10373000006826490860079840682549086001200C
:1037400021490870002123481A4AC2E900101B4A87
:1037500011605160079800681C490968091A0846F9
:103760000191FCF7D5FFCDE9020111F081FA0022A9
:103770001D4BCDE90401FDF761F813D307984068AC
:1037800013490968091A08460191FCF7C1FFCDE900
:10379000020111F06DFA0022134BCDE90401FDF78F
:1037A0004DF82FD20021034A116051600020034AD6
:1037B00010601FE0700000200000494078000020E9
:1037C000FC000020E0000020810000209800002084
:1037D0009C00002000406FC00000104000406F407F
:1037E0008C00002000805A40000008400000644027
:1037F00000A0654050600B49087040F23B300A4918
:1038000008600AE009E0079840680849086000205D
:10381000054908600121069100BF00BF069809B064
:1038200000BD000081000020E0000020A00000207A
:1038300003B587B00020069007988068F7490860B4
:10384000F748006840F22932811A90427ED02BDC82
:10385000B0F5117F7BD018DC40F23F22A0EB0201D3
:10386000904275D008DC10B331283FD0322870D098
:10387000332841F06881E8E301296BD002296AD03E
:10388000032969D00429F4D1A7E1A0F22130082846
:1038900081F05981DFE810F0BB00FA0048015801BF
:1038A000E1024E03050488041729F1D200E018E074
:1038B000DFE811F0E2070F055D059405E207E20776
:1038C000E207E20751069206E0060F073A0789076A
:1038D000C707F8076D08AB08B608F2083F097D0373
:1038E00028043120CE49086001F02DB9CD48007878
:1038F00050B907980068CC49086007984068CB49E0
:1039000008600120C74908700020C949C94A03C29C
:103910000021C94A116051600898022804D0089813
:1039200010B1089801282CD10020C24A10605060C4
:10393000C14A10605060B9480068642190FBF1F002
:103940000190FCF7E5FECDE9020106E0FEE37FE22F
:10395000FDE350E0FCE3F5E12CE211F089F90022EF
:10396000B64BCDE90401FCF751FF03D23220AC493C
:10397000086002E03320AA4908600020A9490870C5
:10398000B2E707980068A8490968091A0846019132
:10399000FCF7BEFECDE9020111F06AF90022A84B46
:1039A000CDE90401FCF74AFF24D20021A14A1160AD
:1039B0005160A14A1160516098480068642190FBF1
:1039C000F1F00190FCF7A4FECDE9020111F050F9ED
:1039D00000229A4BCDE90401FCF718FF03D23220F4
:1039E0008F49086002E033208D49086000208D492E
:1039F000087079E778E700208E4A106050608E4AA0
:103A00001060506040F22130854908606CE700206A
:103A1000884A1060506000218A48874AC2E9001035
:103A20007E480068642190FBF1F00190FCF770FE85
:103A3000CDE9020111F01CF90022834BCDE904010C
:103A4000FCF7FCFE0CD200217A4A11605160002084
:103A5000794A1060506040F223307149086043E7B2
:103A60000898022804D0089810B1089801280CD1B1
:103A70000021704A1160516000206F4A1060506050
:103A800040F22230664908602EE72DE7654800784D
:103A900050B907980068644908600798406863490E
:103AA000086001205F49087000216148614AC2E94D
:103AB0000010614A11605160079800685A4909680E
:103AC000091A08460191FCF723FECDE9020111F025
:103AD000CFF800225D4BCDE90401FCF7AFFE13D314
:103AE0000798406851490968091A08460191FCF78E
:103AF0000FFECDE9020111F0BBF80022534BCDE9D6
:103B00000401FCF79BFE0ED200214A4A116051606D
:103B1000494A1160516000204249087040F221304A
:103B20003F490860E0E6DFE6002049490860079861
:103B300040684849086007980068474908604FF4A2
:103B4000497037490860CFE6079800684349086024
:103B50003F480068401C3E49086000204049354A03
:103B600003C2354A106050603948006804282FDDD0
:103B70000798006838490968091A08460191FCF756
:103B8000C7FDCDE9020111F073F80022354BCDE9F4
:103B90000401FCF73BFE1BD2079840682D490968D9
:103BA000091A08460191FCF7B3FDCDE9020111F0B5
:103BB0005FF800222B4BCDE90401FCF727FE07D26A
:103BC00000202349086040F23F20154908608BE639
:103BD00040F243201249086086E6089820B940F276
:103BE00025300F4908607FE6079800681B4909687F
:103BF000091A08460191FCF78BFDCDE9020111F08D
:103C000037F80022184BCDE90401FCF717FE2DD23E
:103C10004FF44A700249086066E60000FC0000208C
:103C20006800002081000020980000209C000020F7
:103C300000406FC0700000207800002000805640D7
:103C400000003940000049C000003E400000104024
:103C5000A40000208C0000208800002084000020A8
:103C600000406F400000344000804A4007984068A0
:103C7000F6490968091A08460191FCF749FDCDE9A2
:103C8000020110F0F5FF0022F14BCDE90401FCF731
:103C9000D5FD05D30898022802D00898012804D140
:103CA00040F24120EB4908601EE607984068401E3C
:103CB000E649096888420EDD0020E74A106050603E
:103CC000E64A106050600120E54908704FF4117019
:103CD000E049086008E60798016808460191FCF78A
:103CE00017FDCDE9020110F0C3FF0022DD4BCDE945
:103CF0000401FCF7A3FD04D24FF41070D54908600D
:103D0000F2E5D9480068642190FBF1F00190FCF7DE
:103D1000FFFCCDE9020110F0ABFF0022D34BCDE94F
:103D20000401FCF78BFD04D24FF41070C949086000
:103D3000DAE50021CE48C84AC2E90010C74A11603E
:103D40005160D1E50898022804D00898012801D0D4
:103D5000089820B940F24220BE490860C4E5C24834
:103D60000068642190FBF1F00190FCF7D1FCCDE9F3
:103D7000020110F07DFF0022BE4BCDE90401FCF7EB
:103D80005DFD0ED20021B44A11605160B34A11604A
:103D900051600120B84908704FF41170AD490860B6
:103DA000A2E50021AC4A11605160B448AB4AC2E9B7
:103DB000001099E5B248007850B907980068B149F9
:103DC000086007984068B04908600120AC49087055
:103DD0000020AE49A04A03C20021A04A11605160F0
:103DE00007980068A7490968091A08460191FCF775
:103DF0008FFCCDE9020110F03BFF0022A44BCDE97E
:103E00000401FCF71BFD13D3079840689E4909681D
:103E1000091A08460191FCF77BFCCDE9020110F07C
:103E200027FF00229A4BCDE90401FCF707FD0ED2D3
:103E30000020894A10605060884A1060506040F24B
:103E400041208449086000208D4908704CE54BE50D
:103E50004FF410707F49086046E58948007850B9F2
:103E60000798006887490860079840688649086095
:103E700001208349087000208449774A03C2002149
:103E8000764A11605160079800687E490968091AEE
:103E900008460191FCF73CFCCDE9020110F0E8FE78
:103EA00000227C4BCDE90401FCF7C8FC13D3079832
:103EB000406875490968091A08460191FCF728FC11
:103EC000CDE9020110F0D4FE0022724BCDE90401CD
:103ED000FCF7B4FC2DD200215F4A116051605F4AAB
:103EE000116051600020664908705F4800686421D5
:103EF00090FBF1F00190FCF70BFCCDE9020110F012
:103F0000B7FE0022644BCDE90401FCF77FFC04D22C
:103F100040F226304F4908600AE0534800686421A7
:103F200090FBF1F05D49086040F227304949086094
:103F3000DAE4D9E40898022804D00898012801D0CE
:103F4000089858B90021444A11605160434A1160F1
:103F5000516040F23E303F490860C5E44248006885
:103F6000642190FBF1F00190FCF7D2FBCDE9020156
:103F700010F07EFE0022484BCDE90401FCF75EFC08
:103F80000BD20020344A10605060344A10605060F8
:103F90004FF449702F490860A6E400202E4A1060B3
:103FA0005060002135482D4AC2E900109CE4344895
:103FB000007850B90798006832490860079840684F
:103FC0003149086001202E49087000212F48224AFB
:103FD000C2E90010214A1160516007980068294920
:103FE0000968091A08460191FCF792FBCDE9020124
:103FF00010F03EFE0022274BCDE90401FCF71EFC29
:1040000013D30798406820490968091A08460191A6
:10401000FCF77EFBCDE9020110F02AFE00221D4BC9
:10402000CDE90401FCF70AFC3AD200210A4A1160EA
:1040300051600020094A1060506040F22630054966
:10404000086000200E4908704EE478E28C000020E1
:10405000000064406800002070000020780000200C
:10406000A90000200088B340FC00002000805640DA
:1040700000406F4000E06540A8000020000049C0FB
:1040800081000020980000209C00002000406FC0AC
:10409000000010400000084000002E40AC0000204E
:1040A00022E40898022804D00898012801D0089832
:1040B00020B940F23F30F949086015E4F84800683B
:1040C000642190FBF1F0F7490968401A0190FCF770
:1040D0001FFBCDE9020110F0CBFD0022F24BCDE930
:1040E0000401FCF7ABFB04D24FF44970EB490860C4
:1040F00046E40021ED4A11605160ED48ED4AC2E905
:1041000000103DE4EC48007850B907980068EB498E
:10411000086007984068EA4908600120E64908708D
:104120000021E848E14AC2E90010E24A116051600A
:1041300007980068E1490968091A08460191FCF7E7
:10414000E7FACDE9020110F093FD02E08DE094E181
:10415000EFE10022DC4BCDE90401FCF76FFB13D348
:1041600007984068D6490968091A08460191FCF782
:10417000CFFACDE9020110F07BFD0022D24BCDE950
:104180000401FCF75BFB0ED20021C84A11605160AC
:10419000C84A1160516040F22730C04908600020D1
:1041A000C549087025E424E4BD480068642190FBFB
:1041B000F1F00190FCF7ACFACDE9020110F058FDE6
:1041C0000022C24BCDE90401FCF720FB12D20021F2
:1041D000B64A11605160B74A11605160B04800683A
:1041E000642190FBF1F0AF49086040F22930AB49FF
:1041F000086039E0AA480068642190FBF1F0019062
:10420000FCF786FACDE9020110F032FD0022AF4B37
:10421000CDE90401FCF712FB19D2A1480068642122
:1042200090FBF1F0002812DA0021A04A11605160E1
:10423000A04A116051609A480068642190FBF1F037
:104240009849086040F22B30944908600CE0002146
:10425000964A116051600020964A106050604FF4F9
:1042600049708E4908600FE40EE48D4800686421AF
:1042700090FBF1F00190FCF74BFACDE9020110F050
:10428000F7FC0022914BCDE90401FCF7D7FA0BD2E1
:104290000021864A11605160864A116051604FF4D6
:1042A00049707E4908603DE40898022804D00898C7
:1042B00010B10898012803D140F22A3077490860EC
:1042C00000217A4A1160516081487A4AC2E900109F
:1042D00028E47948007850B9079800687749086061
:1042E00007984068764908600120734908700020EB
:1042F00074496E4A03C200216E4A116051600798EA
:1043000000686E490968091A08460191FCF700FA2D
:10431000CDE9020110F0ACFC00226B4BCDE90401A9
:10432000FCF78CFA13D30798406865490968091AA5
:1043300008460191FCF7ECF9CDE9020110F098FC78
:104340000022614BCDE90401FCF778FA0ED200217E
:10435000564A11605160574A1160516040F229304D
:104360004E490860002054490870ECE3EBE34C48E8
:104370000068642190FBF1F04A490968401A0190F5
:10438000FCF7C6F9CDE9020110F072FC00224F4B98
:10439000CDE90401FCF752FA0BD20021434A116027
:1043A0005160444A116051604FF449703B490860C4
:1043B000C9E30898022804D0089810B10898012889
:1043C00003D14FF44B70354908600021374A116022
:1043D00051603F48374AC2E90010B4E336480078DC
:1043E00050B9079800683549086007984068344913
:1043F0000860012030490870002132482B4AC2E988
:1044000000102C4A11605160079800682B49096818
:10441000091A08460191FCF77BF9CDE9020110F079
:1044200027FC0022284BCDE90401FCF707FA13D33F
:104430000798406822490968091A08460191FCF763
:1044400067F9CDE9020110F013FC00221E4BCDE903
:104450000401FCF7F3F90FD20020144A10605060F9
:104460000021144A1160516040F22B300B49086062
:1044700000201149087066E365E30898022804D01B
:104480000898012801D0089838B940F24220034921
:10449000086001200F49087055E31DE06800002006
:1044A000FC000020AC00002000002E407000002026
:1044B000000049C078000020810000209800002002
:1044C0009C00002000406FC00000084000003E40FB
:1044D00000004940A8000020FE480068642190FBCD
:1044E000F1F00190FCF714F9CDE9020110F0C0FBE6
:1044F0000022F94BCDE90401FCF7A0F90FD200210D
:10450000F64A116051600020F54A106050600120A9
:10451000F44908704FF41170F349086013E3002068
:10452000EE4A106050600021F048ED4AC2E90010E8
:1045300009E30020EC4908600120069003E3002015
:10454000E64A10605060E64A1060506040F2313038
:10455000E5490860F7E20021E04A11605160E44853
:10456000DF4AC2E90010DB480068642190FBF1F0EB
:104570000190FCF7CDF8CDE9020110F079FB0022A3
:10458000DC4BCDE90401FCF741F90FD20021D34AFD
:1045900011605160D24A1160516007984068D64955
:1045A000086040F23330D0490860CCE20898022815
:1045B00004D0089810B1089801280CD10021C74AEE
:1045C000116051600020C64A1060506040F23230E5
:1045D000C5490860B7E2B6E2C848007850B9079804
:1045E0000068C749086007984068C649086001200C
:1045F000C24908700021C448B84AC2E90010B84A4C
:104600001160516007980068BD490968091A084699
:104610000191FCF77DF8CDE9020110F029FB0022A1
:10462000BA4BCDE90401FCF709F913D307984068A8
:10463000B4490968091A08460191FCF769F8CDE9FF
:10464000020110F015FB0022B04BCDE90401FCF78C
:10465000F5F80ED20021A14A11605160A04A116004
:1046600051600020A549087040F231309E49086031
:1046700069E268E20021A648984AC2E90010984A17
:10468000116051600898022804D0089810B1089869
:10469000012804D14FF44D709349086053E2079804
:1046A000406895490968091A08460191FCF730F8F5
:1046B000CDE9020110F0DCFA0022964BCDE90401AD
:1046C000FCF7BCF804D24FF44D70874908603AE219
:1046D00039E20021814A116051608548804AC2E96F
:1046E00000107C480068642190FBF1F010F17B0F12
:1046F0000CDD0020794A106050600021784A11607A
:10470000516040F23630784908601CE2089802286F
:1047100004D0089810B10898012804D140F235302F
:10472000714908600FE20EE27448007850B90798AA
:104730000068734908600798406872490860012062
:104740006E49087000217048644AC2E900100020D8
:10475000634A106050600798006869490968091A3F
:1047600008460191FBF7D4FFCDE9020110F080FA71
:104770000022694BCDE90401FCF760F813D30798D8
:10478000406860490968091A08460191FBF7C0FFB3
:10479000CDE9020110F06CFA00225F4BCDE9040173
:1047A000FCF74CF80ED200214C4A116051604C4A83
:1047B000116051600020514908704FF44D704A4912
:1047C0000860C0E1BFE100215148444AC2E900103D
:1047D000434A116051600898022804D0089810B12B
:1047E000089801280BD100213C4A116051603C4AD5
:1047F0001160516040F237303B490860A3E10798EF
:1048000040683D490968091A08460191FBF780FF95
:10481000CDE9020110F02CFA0022404BCDE9040151
:10482000FCF70CF80CD200202C4A106050600021DC
:104830002B4A1160516040F237302B49086082E109
:1048400081E10021254A1160516000202849244A55
:1048500003C220480068642190FBF1F010F1620F60
:104860000BDD00211D4A116051601D4A116051602D
:1048700040F239301C49086065E10898022804D0EC
:10488000089810B1089801280BD10021134A116033
:104890005160134A116051604FF44E701249086024
:1048A00051E150E11548007850B907980068144963
:1048B0000860079840681349086001200F49087094
:1048C00000201149054A03C20021054A11605160C8
:1048D000079825E0FC00002000A065407000002043
:1048E00078000020A800002068000020000049C0D7
:1048F00000004940002063408C000020810000201F
:10490000980000209C00002000406FC0000008407C
:1049100000406F4000804A400000104000805A4034
:1049200000688B490968091A08460191FBF7F0FEF7
:10493000CDE9020110F09CF90022864BCDE904017B
:10494000FBF77CFF13D30798406883490968091A6D
:1049500008460191FBF7DCFECDE9020110F088F971
:1049600000227C4BCDE90401FBF768FF0ED2002149
:104970007A4A116051607A4A116051600020794989
:10498000087040F2373078490860DCE0DBE0002155
:104990007648724AC2E900100020714A10605060E7
:1049A0000898022804D0089810B1089801280BD163
:1049B00000216A4A11605160694A1160516040F2F9
:1049C0003A3069490860BEE007984068684909685C
:1049D000091A08460191FBF79BFECDE9020110F090
:1049E00047F90022634BCDE90401FBF727FF0BD207
:1049F00000205A4A10605060594A1060506040F2DE
:104A00003B30594908609EE09DE0DDE9070107F071
:104A1000F3FA20B140F23D305349086093E092E050
:104A200000204E4A1060506053494D4A03C253481B
:104A30000068642190FBF1F00190FBF769FECDE97D
:104A4000020110F015F900224D4BCDE90401FBF7EE
:104A5000DDFE0BD20020414A10605060404A1060D9
:104A6000506040F23D30404908606CE008980228F0
:104A700004D0089810B1089801280CD10021374AB9
:104A8000116051600020364A106050604FF44F7042
:104A90003549086057E056E03248007850B9079829
:104AA00000682B490860079840682B49086001207E
:104AB0002C49087000213348284AC2E90010284ACE
:104AC000116051600798006821490968091A084671
:104AD0000191FBF71DFECDE9020110F0C9F800229B
:104AE0001C4BCDE90401FBF7A9FE13D307984068DE
:104AF00019490968091A08460191FBF709FECDE931
:104B0000020110F0B5F80022124BCDE90401FBF7C9
:104B100095FE0DD20020114A10605060104A1060BE
:104B200050601049087040F23B300F4908600AE0BD
:104B300009E0079840681449086000200A490860A5
:104B40000121069100BF00BF069809B000BD00001A
:104B500098000020000008409C0000207000002009
:104B600078000020810000206800002000406F4095
:104B70008C0000200000644000004940FC00002040
:104B80000000204000406FC0A000002003B587B0A7
:104B90000020069007988068FE490860FE4800687B
:104BA00040F23522811A904200F0FB8638DC40F258
:104BB0002722A0EB020190427ED01EDC40F222228E
:104BC000A0EB0201904278D00EDC222876D004DCE3
:104BD00048B3212841F00C8395E023286FD0A0F240
:104BE00021200028F6D11DE1012969D0022968D0D1
:104BF000032967D00429EDD167E20E2981F0F882FC
:104C0000DFE811F03D09D1021F035C036703A30332
:104C100010043D093D093D0926046204B004C004A6
:104C20001E29EBD200E01FE0DFE811F02909290777
:104C3000B30729095308A708DC082B096309510A9F
:104C4000DC0A27066006F604B2066D05AA05B1095E
:104C5000E509290929092909290929092909290908
:104C600029096507E4078E0ACC48007850B90798EF
:104C70000068CB49086007984068CA49086001206D
:104C8000C64908700021C848C84AC2E90010C84A8D
:104C90001160516007980068C1490968091A0846FF
:104CA0000191FBF735FDCDE902010FF0E1FF002294
:104CB000C04BCDE9040106E045E2F1E0A1E0BBE331
:104CC0003CE18BE1B3E1FBF7B9FD13D307984068F2
:104CD000B4490968091A08460191FBF719FDCDE9A5
:104CE00002010FF0C5FF0022B24BCDE90401FBF732
:104CF000A5FD07D22120A84908600020A749087017
:104D000001F076BAFCE7A548007850B9079800682A
:104D1000A349086007984068A249086001209F499C
:104D200008700021A048A14AC2E90010A04A116001
:104D300051600898022804D0089810B108980128FA
:104D400024D10020994A10605060994A1060506048
:104D500090480068642190FBF1F00190FBF7D8FCCB
:104D6000CDE902010FF084FF0022934BCDE904014D
:104D7000FBF764FD03D222208749086002E023206C
:104D800085490860002085490870B9E707980068E0
:104D900083490968091A08460191FBF7B9FCCDE976
:104DA00002010FF065FF0022844BCDE90401FBF7FF
:104DB00045FD25D200217D4A1160516000207C4ACA
:104DC0001060506073480068642190FBF1F001901E
:104DD000FBF79EFCCDE902010FF04AFF0022764B63
:104DE000CDE90401FBF72AFD03D222206A490860BD
:104DF00002E02320684908600020684908707FE7C6
:104E00007EE70020694A106050600021684A116006
:104E10005160079840686A49086040F221205E4965
:104E200008606DE70020614A10605060002165480D
:104E30005F4AC2E9001057480068642190FBF1F016
:104E40000190FBF765FCCDE902010FF011FF002294
:104E50005D4BCDE90401FBF7D9FC0BD20021534A8D
:104E600011605160524A1160516040F223204A495A
:104E7000086045E70898022804D0089810B10898FF
:104E800001280CD10020494A106050600021484A96
:104E90001160516040F222203F49086030E72FE75F
:104EA0003E48007850B9079800683D490860079867
:104EB00040683C49086001203849087000213A48A0
:104EC0003A4AC2E900103A4A1160516007980068F6
:104ED00033490968091A08460191FBF719FCCDE925
:104EE00002010FF0C5FE0022324BCDE90401FBF7B1
:104EF000A5FC13D3079840682A490968091A08468F
:104F00000191FBF705FCCDE902010FF0B1FE002293
:104F1000284BCDE90401FBF791FC0ED20021234A76
:104F200011605160224A1160516000201B490870D5
:104F300040F2212018490860E2E6E1E6002123481A
:104F40001A4AC2E900101A4A1160516008980228F2
:104F500004D0089810B10898012804D14FF40970C2
:104F60000D490860CCE60798406815490968091A98
:104F700008460191FBF7CCFBCDE902010FF078FE6A
:104F80000022134BCDE90401FBF758FC25D24FF466
:104F900009701FE0FC000020DC00002081000020E0
:104FA000980000209C00002000406FC0700000208E
:104FB0007800002000000840008056400000394082
:104FC0008C000020000049C00020634000406F407A
:104FD00000804A40FE49086092E691E60021FD4AC1
:104FE00011605160FC48FD4AC2E90010FC480068AD
:104FF000642190FBF1F07B280BDA0021F54A116067
:105000005160F64A1160516040F22620F049086074
:1050100076E60898022804D0089810B1089801286C
:1050200004D140F22520EA49086069E668E6ED48C7
:10503000007850B907980068EB4908600798406805
:10504000EA4908600120E74908700021E848E14A80
:10505000C2E90010E14A1160516007980068E24916
:105060000968091A08460191FBF752FBCDE90201D4
:105070000FF0FEFD0022DF4BCDE90401FBF7DEFB64
:1050800013D307984068D9490968091A084601915D
:10509000FBF73EFBCDE902010FF0EAFD0022D54B04
:1050A000CDE90401FBF7CAFB0ED20020C94A10600B
:1050B00050600021C94A11605160CA4908704FF41C
:1050C0000970C34908601BE61AE60021CA48C14AB4
:1050D000C2E900100020C14A106050600898022800
:1050E00004D0089810B1089801280BD10021B94AC2
:1050F00011605160B94A1160516040F22720B449F3
:105100000860FDE507984068BC490968091A084627
:105110000191FBF7FDFACDE902010FF0A9FD002294
:10512000B74BCDE90401FBF789FB0BD20021A94A5B
:1051300011605160A94A1160516040F22720A449D2
:105140000860DDE5DCE50021A24A11605160002025
:10515000A149A24A03C2A2480068642190FBF1F071
:1051600062280BDA00219B4A116051609B4A116052
:10517000516040F2292096490860C1E5089802284C
:1051800004D0089810B1089801280BD10020914A4A
:1051900010605060914A106050604FF40A708C4962
:1051A0000860ADE5ACE58F48007850B90798006815
:1051B0008D490860079840688C490860012089493A
:1051C000087000208A49834A03C20021834A116083
:1051D00051600798006884490968091A08460191D6
:1051E000FBF796FACDE902010FF042FD0022854B54
:1051F000CDE90401FBF722FB13D3079840687B49F4
:105200000968091A08460191FBF782FACDE9020103
:105210000FF02EFD00227B4BCDE90401FBF70EFBC6
:105220000ED200216B4A116051606C4A11605160CE
:1052300000206C49087040F22720654908605FE54E
:105240005EE500206C49634A03C2644A1060506006
:105250000898022804D0089810B1089801280BD1AA
:1052600000205C4A106050605C4A1060506040F260
:105270002A205749086043E5079840685F49096854
:10528000091A08460191FBF743FACDE902010FF034
:10529000EFFC00225C4BCDE90401FBF7CFFA0CD206
:1052A00000204C4A1060506000214C4A116051604F
:1052B00040F22B204649086022E521E5DDE907019F
:1052C00004F004F920B140F22D204149086017E5AF
:1052D00016E500213F4A1160516000203E493F4AD7
:1052E00003C23F480068642190FBF1F00190FBF796
:1052F0000FFACDE902010FF0BBFC0022414BCDE9D2
:105300000401FBF783FA0BD20020324A1060506090
:10531000324A1060506040F22D202D490860EFE4C1
:105320000898022804D0089810B1089801280BD1D9
:105330000020284A10605060284A106050604FF4E6
:105340000B7023490860DBE4DAE42648007850B9A2
:105350000798006824490860079840682349086056
:10536000012020490870002021491A4A03C2002167
:105370001A4A11605160079800681B490968091AA8
:1053800008460191FBF7C4F9CDE902010FF070FC6A
:1053900000221C4BCDE90401FBF750FA13D3079808
:1053A000406812490968091A08460191FBF7B0F9EB
:1053B000CDE902010FF05CFC0022124BCDE90401A3
:1053C000FBF73CFA2DD20021024A116051601DE02A
:1053D000DC00002070000020000049C078000020A0
:1053E000FC00002081000020980000209C0000208C
:1053F00000406FC00000104000406F408C00002053
:1054000000805A4000000840000064400020FE4A2E
:1054100010605060FD49087040F22B20FC49086084
:105420006EE46DE407984068FA4908600020F84986
:1054300008600121069163E40021F74A1160516080
:10544000F14A1160516040F23120F149086057E49F
:105450000021F14A116051600020F049EA4A03C27C
:10546000EF480068642190FBF1F00190FBF750F9E0
:10547000CDE902010FF0FCFB0022EA4BCDE904016B
:10548000FBF7DCF90BD20021E34A11605160DE4AE0
:105490001160516040F23320DD49086030E4089823
:1054A000022804D0089810B1089801280BD10021D7
:1054B000D94A11605160D44A1160516040F23220E3
:1054C000D34908601CE41BE4D048007850B9079821
:1054D0000068D549086007984068D44908600120F1
:1054E000CA4908700021D248CB4AC2E90010C64A16
:1054F0001160516007980068CB490968091A08468D
:105500000191FBF705F9CDE902010FF0B1FB002293
:10551000C84BCDE90401FBF791F913D30798406814
:10552000C2490968091A08460191FBF7F1F8CDE96B
:1055300002010FF09DFB0022BE4BCDE90401FBF7F9
:105540007DF90ED20021B44A11605160AE4A11605B
:1055500051600020AD49087040F23120AC4908602C
:1055600013E412E40020B449086007984068B34986
:10557000086007980068B24908604FF40D70A449AC
:1055800008603CE407980068AE490860AA480068D3
:10559000401CA94908600021AB489F4AC2E900109D
:1055A000994A11605160A448006804282FDD0798CB
:1055B0000068A3490968091A08460191FBF7A8F891
:1055C000CDE902010FF054FB0022A04BCDE904010C
:1055D000FBF71CF91BD20798406898490968091A1B
:1055E00008460191FBF794F8CDE902010FF040FB6A
:1055F0000022964BCDE90401FBF708F907D2002001
:105600008D49086040F23E208149086009E440F27B
:1056100042207F49086004E40898012804D140F240
:1056200035207B49086024E40798006885490968AB
:10563000091A08460191FBF76BF8CDE902010FF05A
:1056400017FB0022824BCDE90401FBF7F7F804D2E7
:1056500040F239206E4908600BE4079840687749AA
:105660000968401AA02804DC0898022801D008988C
:1056700020B94FF41070664908600FE4079840683D
:10568000401C6E49096888420EDA0021624A1160A6
:1056900051605D4A1160516001206E4908704FF4FD
:1056A00011705B49086047E407980168084601915A
:1056B000FBF72EF8CDE902010FF0DAFA0022664B73
:1056C000CDE90401FBF7BAF804D240F23F2050497B
:1056D000086031E452480068642190FBF1F00190C9
:1056E000FBF716F8CDE902010FF0C2FA00225B4B7E
:1056F000CDE90401FBF7A2F804D240F24620444968
:10570000086019E418E40021434A116051604348DD
:105710003D4AC2E900100898022804D008980128E0
:1057200001D0089860B900213B4A11605160002007
:10573000354A1060506040F245203549086011E458
:1057400037480068642190FBF1F00190FAF7E0FF20
:10575000CDE902010FF08CFA0022414BCDE90401A2
:10576000FBF754F80BD200212B4A11605160264AF6
:105770001160516040F24320254908602CE42BE47D
:105780002248007850B907980068274908600798B0
:1057900040682649086001201C49087000212448FF
:1057A0001D4AC2E90010184A11605160079800684C
:1057B0001D490968091A08460191FAF7A9FFCDE9C0
:1057C00002010FF055FA0022254BCDE90401FBF749
:1057D00035F813D30798406814490968091A084630
:1057E0000191FAF795FFCDE902010FF041FA00228D
:1057F0001B4BCDE90401FBF721F83DD20021064AFD
:1058000011605160004A2DE07800002081000020E6
:10581000DC000020A00000207000002000004940B3
:10582000FC00002000003B40980000209C0000206D
:1058300000406FC000001040A40000208C00002039
:10584000880000208400002000406F4000003440A9
:1058500000804A40A90000200088B34000805640E4
:1058600000000840116051600020FE4908704FF4AC
:105870001170FD49086026E425E40898022804D048
:105880000898012801D0089820B940F24120F64933
:10589000086018E4F5480068642190FBF1F001907D
:1058A000FAF736FFCDE902010FF0E2F90022F04BE2
:1058B000CDE90401FAF7C2FF0FD20021ED4A1160D1
:1058C00051600020EC4A106050600120EB490870E4
:1058D00040F24320E449086013E40021E54A1160E6
:1058E0005160E748E44AC2E900100AE4DD48007864
:1058F00050B907980068E349086007984068E24992
:1059000008600120D74908700021E048D94AC2E95F
:105910000010D94A1160516007980068D949096898
:10592000091A08460191FAF7F3FECDE902010FF0DA
:105930009FF90022D64BCDE90401FAF77FFF13D37C
:1059400007984068D0490968091A08460191FAF792
:10595000DFFECDE902010FF08BF90022CC4BCDE93F
:105960000401FAF76BFF12D20020C24A10605060A7
:105970000021C14A116051600120C04908704FF4F4
:105980001070B94908600020B649087009E408E4BD
:1059900007984068BF49086040F23F20B24908605C
:1059A0004DE4B048007850B907980068B5490860E0
:1059B00007984068B44908600120AA49087000218E
:1059C000B248AC4AC2E900100020AB4A10605060F7
:1059D00007980068AB490968091A08460191FAF767
:1059E00097FECDE902010FF043F90022A84BCDE963
:1059F0000401FAF723FF13D307984068A249096806
:105A0000091A08460191FAF783FECDE902010FF069
:105A10002FF900229E4BCDE90401FAF70FFF2DD29A
:105A20000021944A116051600020934A1060506038
:105A30008C4908708D480068642190FBF1F096490C
:105A400008608A480068642190FBF1F00190FAF741
:105A50005FFECDE902010FF00BF900228F4BCDE97B
:105A60000401FAF7D3FE04D240F236207E490860E2
:105A700003E040F237207C490860B9E3B8E30898B6
:105A8000022804D00898012801D0089858B90021AC
:105A9000784A11605160784A116051604FF4147077
:105AA00071490860A4E371480068642190FBF1F03B
:105AB0000190FAF72DFECDE902010FF0D9F800228E
:105AC000764BCDE90401FAF7B9FE0BD20021694A01
:105AD00011605160684A116051604FF40D70624965
