:020000040800F2
:10000000F8F10020E901000849200008E91900087A
:10001000D11F0008ED0E0008713400080000000038
:100020000000000000000000000000004501000882
:10003000E916000800000000890100081D260008DC
:10004000030200080302000803020008030200087C
:10005000030200080302000803020008030200086C
:10006000030200088D1700080302000803020008BD
:10007000030200080302000803020008030200084C
:10008000030200080302000803020008030200083C
:10009000030200080302000803020008B517000865
:1000A000030200080302000803020008030200081C
:1000B0000302000875280008030200080302000874
:1000C00003020008030200080302000803020008FC
:1000D00003020008030200081D3000082930000850
:1000E0006117000803020008030200080302000869
:1000F00003020008030200080302000803020008CC
:100100000302000803020008112900080302000886
:100110000530000811300008A92900080302000872
:10012000030200080302000803020008030200089B
:10013000DFF80CD000F026FD00480047C997000802
:10014000F8F10020204B19680868B0E8F00F80F340
:100150000988BFF36F8F4FF0000080F311884EF0D5
:100160000D0E70470000000006480068006880F32C
:10017000088862B661B6BFF34F8FBFF36F8F00DFA1
:1001800000BF00BF08ED00E0EFF30980BFF36F8F01
:100190000D4B1A6820E9F00F106008B54FF0F00021
:1001A00080F3118809F0CAFF4FF0000080F3118836
:1001B000BDE8084019680868B0E8F00F80F30988C6
:1001C000BFF36F8F704700BF40020020EFF3118034
:1001D0004FF0F00181F31188704780F31188704768
:1001E000EFF3058070470000064880470648004747
:1001F000FEE7FEE7FEE7FEE7FEE7FEE7FEE7FEE7D7
:10020000FEE7FEE741260008310100080649074ADB
:100210000868504343F239021044086040087047B0
:100220000149086070470000DC0200206D4EC641A5
:1002300040EA01039B0703D009E008C9121F08C068
:10024000042AFAD203E011F8013B00F8013B521EE8
:10025000F9D27047D2B201E000F8012B491EFBD25F
:1002600070470022F6E710B513460A4604461946C1
:10027000FFF7F0FF204610BD30B5044600200346CE
:1002800000E05B1C934203D2E05CCD5C401BF8D0E5
:1002900030BDF0B480EA0102D40F4200B2EB410F4E
:1002A00002D20246084611464A0042D0C30DDDB2D2
:1002B000C1F3C752AD1A202D35DAC1F3160141F44E
:1002C000000204B15242C5F1200602FA06F12A41A9
:1002D0001044B3EBD05F23D0C4B1012DA0EBC350C9
:1002E00009DCF0BC4FF0004202EAC352DBB200F579
:1002F000000000F0A4BB400000F1807000EBC35090
:10030000A0F1807040EAD170490009E0490841EA53
:10031000C071A0EBC35000F50000400800EBC350D3
:10032000F0BC00F083BB6142012202EB4101001BE3
:10033000F6E7F0BC704781F00041AAE780F000408A
:10034000A7E780EA010210B502F00043400022D086
:100350004A001FD0010E01EB1261C0F35600C2F338
:10036000560240F4000042F40002A0FB0220000408
:100370007F39140400D0401C50EA124001D44000E0
:10038000491EC2B20C0604EBD010401C4008802A63
:1003900002D003E0002010BD20F00100002900DAA7
:1003A0000020184310BD30B480EA010202F000457D
:1003B00030F0004221F0004013D090B1C30DD40DB5
:1003C000C2F31601C0F31600E41A41F4000140F430
:1003D00000027D34914201D3641C00E04900002CEE
:1003E00002DA30BC002070474FF400000023914235
:1003F00001D3891A034340084FEA4101F7D151B1B3
:10040000914202D14FF0004105E002D24FF00101CC
:1004100001E06FF0010103EBC450284430BC00F050
:1004200005BB420005D0C0F3C7525242914201DCE5
:100430000020704700EBC15070472DE9FE4F804609
:1004400081EA0300C00F0C46009021F0004123F028
:100450000045B8EB0200A94105D24046214690462E
:100460001C460B46024623F00040104347D0270DA0
:10047000C7F30A00C3F30A510290401A01904028C2
:100480006BDAC3F3130040F4801B0098924620B14E
:100490000023D2EB030A63EB0B0B01985946C0F122
:1004A0004002504600F091FA06460D465046594625
:1004B000019A00F0A9FA10EB08006141002487EAD4
:1004C000115284EAE7731A4340D0009A62B3019A4A
:1004D000012A4FEA075215DC001B61EB02014FF0C5
:1004E000004202EA0752CDE90042001C41F58011AA
:1004F00032462B4600F0E0FA03B0BDE8F08F4046EC
:100500002146F9E7001B61EB0201001C41F5801355
:1005100000185B412018A2F5001747EB030140EAE1
:10052000D570B6196D4111E06D084FEA360645EAFF
:10053000C0754FEA0752001B61EB0201001C41F538
:10054000801149084FEA30000019514132462B46CC
:1005500003B0BDE8F04F00F0A0BA009801224000BF
:100560000023D0EB020263EBE073009821464FEAD0
:10057000E074B8EB000061EB0401E9E783F00043AD
:100580005BE781F0004158E72DE9FE4F81EA030463
:1005900004F0004421F0004100944FF0000B23F0E0
:1005A000004350EA01045ED052EA03045BD0C3F377
:1005B0000A54C1F30A552C44A4F2F3340194A0FB6D
:1005C0000254C1F3130141F48011C3F3130343F444
:1005D000801301FB024400FB034E840A970A44EA9D
:1005E000815447EA8357A4FB076802958D0A05FBEF
:1005F00007854FEA932C04FB0C542705029D4FEA14
:10060000065847EA1637B5EB08056EEB070C870E60
:10061000920E47EA811742EA8312A7FB0201B6EB6A
:100620000B0164EB00042B0D43EA0C335E1844EB22
:100630001C50DA465146E7FB0201C5F313044FEAAA
:100640000B3343EA14534FEA0432019C43EA060396
:10065000A4F10C040294009CCDE900B400F02CFA43
:1006600003B0BDE8F08F00200146F9E72DE9F04D19
:1006700081EA030404F0004B21F0004514464FF0DA
:10068000000A23F0004150EA050220D054EA01029A
:100690001DD0C5F30A570246C5F31303C1F3130077
:1006A000C1F30A5640F4801543F48013A7EB060803
:1006B000101BD64608F2FD3873EB050002D308F193
:1006C000010801E092185B41B8F1000F03DA002045
:1006D0000146BDE8F08D00204FF4801106468446A7
:1006E0000EE0171B73EB050705D3121B63EB050325
:1006F00006434CEA010C49084FEA300092185B416E
:1007000050EA0107EDD152EA030012D082EA040058
:1007100083EA0501084305D0101BAB4106D2012234
:10072000002306E000224FF0004302E06FF00102D8
:1007300053101AEB06004CEB085110EB0A0041EB8A
:100740000B01BDE8F04D00F0A8B970B521F00043F1
:1007500003430CD0C1F30A550024D5EB040564EB28
:100760000403D617AD1AB34102DB0020014670BD69
:10077000201841EB025170BDC10F80EAE0700844BF
:10078000CA079623002100F05AB996230022114689
:1007900000F055B90EB5C10F80EAE0700844CA07F1
:1007A000002140F233438DE80E000A460B4600F06C
:1007B00083F903B000BD0EB540F233410291002130
:1007C000CDE900110A460B4600F076F903B000BDF2
:1007D00000F0004220F00040C10DC0F3160040F4CC
:1007E00000007F2901DA00207047962903DCC1F15F
:1007F0009601C84001E096398840002AF4D0404272
:10080000704720F00040C10DC0F3160040F4000016
:100810007F2901DA00207047962903DCC1F1960197
:10082000C840704796398840704770B5C1F30A5286
:1008300001F000450024C1F3130140F2FF3341F4FD
:1008400080119A4201DA002070BD40F233439A428F
:10085000A2F2334203DC524200F0C6F800E09040BE
:100860002C43F1D0404270BD00F0004230F0004017
:100870000AD0C10D01F56071C0F3160042EA0151C2
:10088000C20840071143704700200146704700002E
:1008900030B5041E71F1000404DB4FF00044404207
:1008A00064EB0101141E73F1000405DB1C464FF0DC
:1008B0000043524263EB04038B4208BF824230BDC7
:1008C00030B5041E71F1000404DB4FF000444042D7
:1008D00064EB0101141E73F1000405DB1C464FF0AC
:1008E0000043524263EB0403994208BF904230BD7B
:1008F00001F0004330B421F0004150EA010206D07B
:100900000A0DA2F56072C1F31301002A02DC30BCAB
:1009100000207047440F44EAC104C100E01830BC15
:1009200000EBC25000F082B8002801DBC0F10040AB
:10093000002901DBC1F100418842704730B50B4608
:10094000014600202022012409E021FA02F59D42FF
:1009500005D303FA02F5491B04FA02F52844151ED3
:10096000A2F10102F1DC30BD2DE9F05F0546002067
:1009700092469B4688460646814640241BE0284610
:1009800041464746224600F02FF853465A46C01AC1
:10099000914110D311461846224600F016F82D1A40
:1009A00067EB01084F4622460120002100F00DF8B8
:1009B00017EB00094E41201EA4F10104DFDC48467C
:1009C00031462A464346BDE8F09F202A04DB203A00
:1009D00000FA02F1002070479140C2F1200320FA92
:1009E00003F3194390407047202A04DB203A21FA90
:1009F00002F00021704721FA02F3D040C2F1200238
:100A00009140084319467047202A06DBCB17203A4D
:100A100041FA02F043EAE07306E041FA02F3D04003
:100A2000C2F1200291400843194670470029A8BF2F
:100A30007047401C490008BF20F00100704710B407
:100A4000B0FA80FC00FA0CF050EA010404BF10BCBC
:100A5000704749B1CCF1200421FA04F411FA0CF1E9
:100A600018BF012121430843A3EB0C01CB1D4FEA22
:100A700000614FEA102042BF002010BC704700EB1D
:100A8000C35010440029A4BF10BC7047401C49004B
:100A900008BF20F0010010BC704710B5141E73F1A0
:100AA000000408DA401C41F1000192185B411A432E
:100AB00001D120F0010010BD2DE9F04D92469B467A
:100AC00011B1B1FA81F202E0B0FA80F22032904620
:100AD000FFF77BFF04460F4640EA0A0041EA0B019C
:100AE00053465A46084313D0114653EA010019D021
:100AF000C8F140025046FFF777FF05460E465046C4
:100B000059464246FFF761FF084305D0012004E043
:100B100020463946BDE8F08D0020054346EAE076E0
:100B20002C4337430A986305E40AA0EB080000222F
:100B3000FD0A44EA47540A3002D500200146E9E79D
:100B4000010510196941DDE9084500196941BDE851
:100B5000F04DA2E7C1F30A52C1F3130140F2FF3393
:100B600041F480119A4202DA00200146704740F2B7
:100B700033439A42A2F2334202DC5242FFF734BFBF
:100B8000FFF723BF064C074D06E0E06840F0010385
:100B900094E8070098471034AC42F6D3FFF7CCFA3C
:100BA00088A90008A8A9000870B58C1810F8015B86
:100BB00015F0070301D110F8013B2A1106D110F8F6
:100BC000012B03E010F8016B01F8016B5B1EF9D1FA
:100BD0002B0705D40023521E0DD401F8013BFAE780
:100BE00010F8013BCB1A921C03E013F8015B01F8EB
:100BF000015B521EF9D5A142D8D3002070BD002957
:100C000004D0816841F0010181607047816821F062
:100C1000010181607047000010B5154988420AD172
:100C200044150121204601F0CDFA2046BDE81040D0
:100C3000002101F0C7BA0F4988420AD104150121E9
:100C4000204601F0BFFA2046BDE81040002101F027
:100C5000B9BA094988420AD10121CC03204601F0E2
:100C6000B1FA2046BDE81040002101F0ABBA10BD3A
:100C70000024014000280140003C014001460020C2
:100C80008968490700D501207047C06C80B2704761
:100C90000246002012680A4200D001207047014637
:100CA00000208968090700D50120704710B5426807
:100CB0000E4B1A400C790B6842EA0422134343603E
:100CC00082680B4B1A40D1E9024323434C7942EA34
:100CD000440213438360C26A22F47002097C491EF5
:100CE000C9B242EA0151C16210BD0000FFFEF0FF2F
:100CF000FDF7F1FF70B5072609290AD9C568A1F1EA
:100D00000A0404EB4404A640B543A3401D43C56058
:100D100007E0056901EB4104A640B543A3401D432C
:100D200005611F23072A09D2446B521E02EB82027F
:100D300093409C4391400C43446370BD0D2A09D2FB
:100D4000046BD21F02EB820293409C4391400C4300
:100D5000046370BDC46A0D3A02EB820293409C4367
:100D600091400C43C46270BD816841F0080181600C
:100D70007047002904D0816841F4A0018160704768
:100D8000816821F4A00181607047816841F004010D
:100D90008160704710B5012009F084FA014948616B
:100DA00010BD0000000000207FB500241A48CDE9E6
:100DB00001040121CA0200912346039417A11B4894
:100DC00009F046FB144802210C38CDE901040A025F
:100DD00000910023039416A1194809F039FB0E482D
:100DE00003210838CDE901044FF480650091002308
:100DF0002A46039413A1174809F02AFB0648042148
:100E0000001FCDE90104009100232A46039412A19A
:100E1000154809F01DFB7FBD10000020765461735A
:100E20006B4D617070696E6700000000E19F000803
:100E3000765461736B4465636973696F6E0000007B
:100E4000819F0008765461736B436F6E74726F6C90
:100E500000000000759F0008765461736B50657246
:100E600063657074696F6E0019A0000800B593B0D7
:100E700014221D4906A8FFF7DBF914221A49143180
:100E800001A8FFF7D5F900F0E3FA00282AD12021C4
:100E90000BA800F093FD06A90BA800F001FC0028A8
:100EA00020D1142106A8FFF7DCF920210BA800F0BF
:100EB00085FD06AA20210BA800F078FA002811D1A0
:100EC00001AB01AA20210BA800F098FF142201A970
:100ED00006A8FFF7D1F9C0B2002803D100F02AFB21
:100EE0000028FFD113B000BDB8A7000810A41B4E06
:100EF0004FF461652946304601F024FF294630460B
:100F000001F022FF2946304601F020FF29463046F5
:100F100001F01EFF0020124B191F225C1A800A8864
:100F20005206FCD5401CC0B22928F6D3FEE70000CB
:100F30000D0A456E74657220486172644661756C75
:100F4000745F48616E646C65722C205379737465AC
:100F50006D2048616C742E0D0A000000002C0140C9
:100F6000044400402DE9F04105462C22002141486F
:100F700000F0D6FF404E3F4C21213078943C40F0A9
:100F800005002070204608F02FFB7070002852D119
:100F9000A178C1F3810201F0030025B10223B3EB74
:100FA000911F47D106E063783B2B43D10B0641D418
:100FB0004B063FD5032A3DD0304B2E4D2F4E9B5C28
:100FC0006B702E4B383303EB82031B5CAB702B4BE7
:100FD000443303EB820350361B5C06EBC2022B70DA
:100FE00032F81000A880C80601D510332B700822F3
:100FF000611CA81D00F08AFF1E49607A85F82B004D
:101000008A39072201F1980000F080FF1949062271
:10101000833901F1980000F079FF00222020182682
:101020000121D307A0EB5203E35C06D0F02747EA87
:10103000131304E00420BDE8F08143F0F003AF187F
:10104000FB76A6EBD20302F00707E35C01FA07F791
:101050003B4201D0FF2700E0EF27AB18521C93F86A
:101060001BC0D2B207EA0C07DF76102AD9D30020C2
:10107000E1E700003CD90020A402002000A80008FD
:1010800070B516460C46054601F076FA08210D4863
:1010900001F090FA10210C4801F08CFA0948072160
:1010A000083001F087FA08481821183801F082FA50
:1010B0002146284601F07EFA3046BDE8704001F036
:1010C00039BA000042D90020C80200200EB51049EC
:1010D00004236A46A1F1080000F02AFF0C4904230A
:1010E0000DF106020831684600F022FF084904238A
:1010F000091D6A46A1F1080000F01AFF68460223A4
:1011000001AA811C00F014FF01A800F01FFF0EBD12
:10111000B0D8002038B526208DF8000001248DF8C5
:10112000014000258DF802508DF80340684600F01C
:101130008DFF27208DF800008DF801408DF80250BA
:101140008DF80340684600F081FF34208DF80000E0
:101150008DF801408DF802508DF80340684600F08C
:1011600075FF35208DF800008DF801408DF8025094
:101170008DF80340684600F069FF38BD2DE9F35F44
:1011800008244FF0000B69E0374F0198E04000F071
:10119000010A97F8203097F8222097F8241097F842
:1011A000260008F088FD80463B7EBA7E397FB87FF6
:1011B00008F06CFD06463B7CBA7C397DB87D08F0B2
:1011C00065FD05463B7ABA7A397BB87B08F073FD3A
:1011D00081463B78BA783979B87908F057FD4146AD
:1011E0004B46CA436FEA0008D2B208F0FF0802EA91
:1011F0000809F74307F0FF0CEF4307F0FF0E01EA81
:10120000030808EA0008DF430840FFB209EA0C09B6
:1012100028403140394048EA000848EA010809EA14
:10122000030902EA0E021A4007EA050C48EA090817
:101230000CEA060C48EA020848EA0C08012121EAF7
:10124000080090EA0A0004D0A14041EA0B0101F035
:10125000FF0B009901B9504602F0D0F8641EE4B2C9
:1012600092D25846BDE8FC9FC4D90020054A002907
:1012700003D0516801435160704751688143516008
:1012800070470000002004E038B50E4C03212078A0
:1012900040F007008DF80000FF208DF801008DF868
:1012A0000200684608F0A0F96070002808D1022208
:1012B000A01C0DF1010100F019FE002800D006204D
:1012C00038BD0000A402002070B50546124C13483A
:1012D0000E46217801700321417000218170C67093
:1012E000042108F081F96070002814D100F004FF97
:1012F000607000280FD100223146284600F010F817
:101300006070002807D12978A268687802EB012173
:101310000844A060002070BDA4020020A8D80020CE
:101320002DE9F04780461F480D4691464178090750
:1013300006D51C4E8078E9B21B4F361F88422CD050
:101340000520BDE8F087802D01D9802400E02C46DF
:10135000307840F003003870601C81B2124808F009
:1013600043F97070A0B9B9F1000F224604D041468C
:10137000781C01F041F903E0791C404600F0C6FDFD
:101380002146404600F094FDFFF77EFF707008B1E3
:10139000C0B2D6E7281B85B2A044002DD3D10020CF
:1013A000CFE70000A8020020A8D800202DE9F041D6
:1013B000254C07460D462078164640F00601234886
:1013C0002A4600F8011B192100F8011B602100F8D2
:1013D000021B394600F8015C00F098FD291D1B48EE
:1013E00008F002F9607000282BD12946384600F039
:1013F0005FFD00F081FE6070002822D1FFF744FFFE
:10140000607000281DD1002220211048FFF788FFBE
:101410006070002815D10D490C22A1F10C0000F0DC
:1014200075FD0A4914220C31304600F06FFD074863
:10143000A2680C384178007802EB00200844A060D4
:101440000020BDE8F0810000A4020020A8D8002000
:101450002DE9F041354C8027FF264FF00008251F6D
:101460000321287840F0010020706670A6702F4894
:1014700008F0BAF890B92878032140F00F002070E6
:1014800084F8018084F80280284808F0ADF828B973
:101490006078FF2802D1A078FF2804D07F1E17F0C3
:1014A000FF07DDD110E07FB102272878032140F04B
:1014B000010020706670A6701C4808F095F86870EE
:1014C00020B1C0B2BDE8F0810120FBE77F1EFFB272
:1014D000EBD26078A27800F0EF01114301D0032035
:1014E000F0E7102804D100F007FE68700028E9D169
:1014F0000020FFF737FD68700028E3D108210C4871
:10150000FFF7E2FE68700028DCD10948AA68A03025
:10151000417B007B02EB00200144054842780078C3
:1015200001EB00201044A8600020CBE7A8020020B7
:101530009CD8002010B50E4C0E4821780170012176
:101540004170962181700021C170042108F04CF88F
:101550006070002809D100F0CFFD6070002804D130
:10156000201D4078800601D40B2010BD002010BD46
:10157000A4020020A8D800202DE9F05F0E461746EF
:1015800099468046194600F0F9FC434820218246DE
:10159000FFF79AFE414C002860706BD13E48202135
:1015A0002138FFF791FE6070002863D13A4820216E
:1015B000213800F0FFFF38481438834600F0BAFFA6
:1015C0004946404600F0DAFC334D0020213D291801
:1015D0003B5C11F8212F401C5A40C0B20A702028F1
:1015E000F5D32021504600F0E5FF1421584600F0C5
:1015F000E1FF20786872B8F1000F04D00520A872CE
:1016000006F00F0002E00420A8720020E8723420E7
:1016100028730146584600F04BFC1F483821183803
:1016200007F0E2FF6070002824D100F065FD6070D3
:1016300000281FD1FFF728FE607000281AD1174834
:10164000001D4078000614D51348002214212138CB
:10165000FFF766FE607000280CD10F48401E04465C
:1016600000F068FF0C4814222146213800F03EFCAF
:1016700010B10D20BDE8F09F4946404600F07EFCC9
:101680001421204600F096FF0348213800F052FF55
:10169000FFF71CFD0020EDE7C9D80020A4020020C0
:1016A00030B50E4A0D46044685B0182302F11801E4
:1016B000A12000F0F9FA08226946284600F09CFFB4
:1016C0006A4608211046FFF7DBFC00216B462246E4
:1016D0000846FFF751FF05B030BD0000B002002002
:1016E0000048704703A8000810A41B4E4FF4616522
:1016F0002946304601F026FB2946304601F024FBFE
:101700002946304601F022FB2946304601F020FBF5
:101710000020124B191F225C1A800A885206FCD541
:10172000401CC0B22928F6D3FEE700000D0A456E22
:1017300074657220486172644661756C745F4861BB
:101740006E646C65722C2053797374656D204861EA
:101750006C742E0D0A000000002C0140044400406F
:1017600010B54FF40044204600F036F8002809D0A8
:10177000204600F02BF804480168491C01604168CC
:10178000491C416010BD00001C04002010B5082059
:1017900000F022F8002809D0082000F017F80448CB
:1017A0008168491C8160C168491CC16010BD00008E
:1017B0001C04002010B5802000F00EF8012804D190
:1017C000BDE81040802000F001B810BD014908605C
:1017D000704700001404014001460020054A1268C9
:1017E0000A40044B14331B680B4202D0002A00D07D
:1017F000012070470004014030B51B4A837901681D
:10180000002B2AD013688B431360111D0B680468EA
:10181000A3430B60017911440B68046823430B60F8
:10182000114C08342168036899432160231D19680D
:101830000568A94319604179102905D011440A6847
:10184000006802430A6030BD2168026811432160CC
:10185000196800680143196030BD007910440268BE
:101860008A43026030BD00000004014010B58A07C1
:10187000120F0F23934021F00304054921448C6883
:101880009C438C608B68904003438B6010BD0000CC
:10189000000001402DE9F0410022CC7804F00F0354
:1018A000E40601D58C7823430C784FF00F0714F031
:1018B000FF0F4FF0010C1CD005680CFA02F40E88E3
:1018C0002640A64211D1960007FA06F825EA080537
:1018D00003FA06F848EA0505CE78282E02D0482EED
:1018E00002D002E0446100E00461521C082AE4D303
:1018F00005600A88FF2A1ED94568002202F1080601
:101900000CFA06F40E882640A64210D1960007FA7B
:1019100006F825EA080503FA06F848EA0505CE7830
:10192000282E00D14461CE78482E00D10461521C8B
:10193000082AE3D34560BDE8F0810000F0B5154CFE
:10194000002801DAE36900E06368C0F30346420D52
:10195000120185B2C0F301579540032F07D0C20290
:101960000CD50322B240934343F0706209E023F0A8
:101970007062636823F07063636002E0AB4343F01E
:10198000706201B12A43002801DAE261F0BD6260B1
:10199000F0BD0000000001400246002092680A42AB
:1019A00000D0012070474161704701617047002AF3
:1019B00001D00161704741617047000070B5054674
:1019C0000E4608490868421C0A60FEF729FC0024FC
:1019D00004E0FEF71BFC2855641CA4B2B442F8D303
:1019E00070BD0000AC02002010A41B4E4FF46165D6
:1019F0002946304601F0A6F92946304601F0A4F9FF
:101A00002946304601F0A2F92946304601F0A0F9F6
:101A10000020124B191F225C1A800A885206FCD53E
:101A2000401CC0B22A28F6D3FEE700000D0A456E1E
:101A300074657220486172644661756C745F4861B8
:101A40006E646C65722C2053797374656D204861E7
:101A50006C742E0D0A000000002C0140044400406C
:101A60002DE9F04F85B00121052000F09DFB0121FB
:101A7000480400F07DFB0425ADF8105018278DF8C0
:101A8000137003268DF812607F4C04A92046FFF7DF
:101A900001FF0821ADF810108DF8135004A920465D
:101AA000FFF7F8FE04A92046FFF7F4FE4FF4E138F3
:101AB000CDF800800024ADF80440ADF80640ADF844
:101AC0000840ADF80C404FF00C09ADF80A90DFF873
:101AD000BCA16946504601F051FB012240F225515C
:101AE000504601F030FB0121504601F0A7FA402199
:101AF000504601F09FFA0121082000F055FB10200C
:101B00008DF813008DF81260ADF8105004A96048EC
:101B1000FFF7C0FE0121092000F046FB01218804E7
:101B200000F026FB4FF4806BADF810B08DF8137009
:101B30008DF8126004A95648FFF7ACFE4FF4006A16
:101B4000ADF810A08DF8135004A95148FFF7A2FE7C
:101B500004A94F48FFF79EFECDF80080ADF8044081
:101B6000ADF80640ADF80840ADF80C40ADF80A906D
:101B70006946484801F002FB012240F225514548E0
:101B800001F0E1FA0121434801F058FA40214148AF
:101B900001F050FA0121112000F006FB0121C804D8
:101BA00000F0E6FAADF810B08DF813708DF8126001
:101BB000DFF8E4B004A95846FFF76CFEADF810A0BA
:101BC0008DF8135004A95846FFF764FECDF8008045
:101BD000ADF80440ADF80640ADF80840ADF80C4053
:101BE000ADF80A90DFF8B4A06946504601F0C6FA95
:101BF000012240F22551504601F0A5FA012150463C
:101C000001F01CFA4021504601F014FA0121312064
:101C100000F0CAFA0121080500F0AAFAA802ADF8FE
:101C200010008DF813708DF8126004A95846FFF764
:101C300031FEADF810508DF8135004A91848FFF785
:101C400029FECDF80080ADF80440ADF80640ADF8AF
:101C50000840ADF80C40ADF80A90124C6946204699
:101C600001F08CFA012240F22551204601F06BFA76
:101C70000121204601F0E2F94021204601F0DAF985
:101C800005B0BDE8F08F00000008014000440040AE
:101C9000000C01400048004000100140004C004092
:101CA00000140140005000402DE9F0411E46174647
:101CB0000C46054600F060FC0821204600F07AFC46
:101CC000202269210C4800F02BF9324639460A4897
:101CD00000F01CF90848212180F8205000F06AFC2F
:101CE000082104F1080000F065FC034800F022FC24
:101CF000BDE8F041FFF7EAB9A8D800200148007814
:101D0000704700006400002006480168490507D4B8
:101D10000168C90504D50068000601D50120704797
:101D2000002070470818014006480168490507D49B
:101D30000168C90504D50068000601D40120704778
:101D4000002070470818014006480168490507D57A
:101D50000168C90504D40068000601D50120704758
:101D6000002070470818014006480168490507D55A
:101D70000168C90504D50068000601D40120704738
:101D80000020704708180140014800680020704793
:101D900008180140014800680020704708180140F9
:101DA00003480068000601D40120704700207047F6
:101DB0000818014003480068000601D4012070475C
:101DC000002070470818014003480068000601D44D
:101DD000012070470020704708180140064801683C
:101DE000490507D40168C90504D40068000601D577
:101DF000012070470020704708180140F0B51746D1
:101E0000294A1D460C46064685B0182302F11801E2
:101E1000A220FFF749FF10226946384600F0ECFB8C
:101E20006A4610211046FFF72BF900F0A5FB1F4969
:101E30000020087001211D4800F0BCFB1B48072151
:101E4000A23000F0B7FB194808219A3000F0B2FB2D
:101E50001021684600F0AEFB202C0AD2C4F1200706
:101E6000BAB20021114800F05BF839460F4800F083
:101E7000A1FB2146304600F09DFB132200210B48B8
:101E800000F04EF81321094800F094FB07480C219C
:101E90000C3800F08FFB1821034800F08BFB28461C
:101EA00000F048FB05B0F0BDB0020020A8D800202B
:101EB00030B54FF6FF724AF201040CE010F8013B16
:101EC0005A400023D5074FEA520200D062405B1C03
:101ED000DBB2082BF6D3491E89B2EFD20248110AB1
:101EE0000170427030BD0000A602002010B507E06E
:101EF00010F8013B11F8014BA34201D0012010BDA5
:101F0000521ED2B2F4D2002010BD000004E000BF87
:101F100011F8013B00F8013B521E92B2F8D2704713
:101F200002E000BF00F8011B521E92B2FAD27047C5
:101F300030B506E010F8014B11F8015B6C4002F877
:101F4000014B5B1EDBB2F5D230BD000070B50A4C10
:101F500000220021C2F1050301EBC206C55CCD40A1
:101F6000491C05F00105C9B2A5550829F4D3521C36
:101F7000D2B2062AEDD370BDC4D9002070B50D468B
:101F8000044600F0F9FA11490020087001210F48B9
:101F900000F010FB0D480721A23000F00BFB0B48AE
:101FA00008219A3000F006FB0CB1102109E008224C
:101FB00000210648FFF7B4FF0821044800F0FAFAB0
:101FC00008212846BDE8704000F0F4BAA8D80020E7
:101FD00010A41B4E4FF461652946304600F0B2FE56
:101FE0002946304600F0B0FE2946304600F0AEFEED
:101FF0002946304600F0ACFE0020124B191F225C2F
:102000001A800A885206FCD5401CC0B22A28F6D392
:10201000FEE700000D0A456E746572204861726427
:102020004661756C745F48616E646C65722C2053F8
:10203000797374656D2048616C742E0D0A00000080
:10204000002C0140044400407047000070B50F238D
:10205000C27801260178002A1ED0144A126802F4C0
:10206000E062C2F5E062120AC2F10404D34045788E
:10207000A54082781A402A43120101F1E02181F83B
:102080000024007800F01F018E404009800000F11C
:10209000E020C0F8006170BD01F01F0086404809D3
:1020A000800000F1E020C0F8806170BD0CED00E020
:1020B0000249084302490860704700000000FA0521
:1020C0000CED00E00A4B1A6822F0030202431A608A
:1020D0000848026842F004020260012905D020BFCE
:1020E000016821F004010160704730BFF8E700008B
:1020F0000070004010ED00E02DE9F041164D002782
:10210000FF264FF47A782C1D2878032140F0010037
:10211000207011486670A670001D07F065FA68709F
:1021200010B1C0B2BDE8F0816078C10601D54107A9
:1021300003D0410707D50920F4E77F1CBFB247450C
:10214000E2D30A20EEE7810701D50820EAE7C007BD
:10215000E8D00720E6E70000A4020020034A516807
:1021600021F44041014351607047000000100240DB
:10217000054A002903D0D1690143D1617047D16973
:102180008143D1617047000000100240054A0029D8
:1021900003D01169014311617047116981431161D5
:1021A0007047000000100240054A002903D09169E1
:1021B00001439161704791698143916170470000CB
:1021C00000100240054A002903D0D1680143D160C4
:1021D0007047D1688143D160704700000010024011
:1021E00010B5264A516801F00C01254B002927D073
:1021F000042927D0082927D00360516801F0F00195
:102200000909204B5C5C0168E1404160546804F4BA
:10221000E064240A1C5D21FA04F48460546804F428
:102220006054E40A1B5DD940C160526802F4404228
:10223000920B144B1B1F9A5CB1FBF2F1016110BDB4
:102240000360DAE70360D8E7516801F4701153685E
:1022500003F48033022404EB914133B153689B03B0
:1022600007D5094B59430160C7E7074B5943016044
:10227000C3E7034B59430160BFE700000010024071
:1022800000127A000502002000093D0070B5204CC4
:10229000204D8023217800266A18481CC0B23729B7
:1022A000137703D814E02918401C0E772070C0B2B1
:1022B0004028F8D300F030F803E02918401C0E77CE
:1022C000207020783828F8D306E02918401C0E77B3
:1022D0002070C0B23828F8D36869010E85F8541010
:1022E000010C85F85510010A85F8561085F857003D
:1022F000A869010E85F85810010C85F85910010ADB
:1023000085F85A1085F85B00BDE8704000F004B80D
:10231000D802002068D900202DE9F04F4F4C08CC9E
:1023200094E82700AB4600254C4F05F00F0907EB5A
:102330008904A246267F94F81DC0360646EA0C465C
:1023400094F81EC0E47F46EA0C26344304EBF3669F
:102350005E44142D09D200EA010C22EA00084CEA7E
:10236000080C6644DFF8F8C01EE0282D07D280EA8A
:10237000010C8CEA020C6644DFF8E8C014E03C2D46
:102380000BD241EA020C0CEA000C01EA02084CEA0A
:10239000080C6644DFF8D0C006E080EA010C8CEA45
:1023A000020C6644DFF8C4C093460A464FEAB00107
:1023B000664418463346002609F1020E47E0EEB3A4
:1023C000012E47D009F10D07FFB2DFF890C03F079B
:1023D0000CEB9767761C97F81CC097F81D804FEAA6
:1023E0000C6C4CEA084C97F81E80FF7F4CEA082CD6
:1023F00047EA0C077C40F6B2032EE0D34FEAF474B0
:10240000270E8AF81C70270C8AF81D70270A6D1C8D
:102410008AF81E70EDB28AF81F40502D84D30F4CFD
:1024200025682B442360636818446060A0680844F2
:10243000A060E0681044E060216900E007E001EB83
:102440000B0020610A4800210170BDE8F08F0EF0FA
:10245000FF07BAE709F10807B6E7000068D90020CE
:102460009979825AA1EBD96EDCBC1B8FD6C162CAA6
:10247000D802002001490870704700006400002065
:10248000AFF300800CB5002201920092274801684A
:1024900041F4803101604FF4A063016801F4003120
:1024A00000910199491C0191009911B90199994232
:1024B000F3D10168890302D50121009100E0009267
:1024C0000099012930D11A490A6842F010020A60C5
:1024D0000A6822F003020A600A6842F002020A60F7
:1024E0004168416041684160416841F480614160F8
:1024F000416821F47C114160416841F4E811416078
:10250000016841F08071016001688901FCD5416872
:1025100021F003014160416841F0020141604168DE
:10252000C1F381010229FAD10CBD00000010024064
:102530000020024010B50446FFF7A8FE00210D4A16
:1025400008465318491CC9B218774029F9D390613D
:102550000021506121F0030001F003031058C3F182
:102560000303DB00D8406054491CC9B21429F1D3DD
:1025700010BD000068D9002009480021094A816186
:102580004161117008490160084941600649C94329
:1025900081600649C943C160054901617047000077
:1025A00068D90020D80200200123456789ABCDEF10
:1025B000F0E1D2C32DE9F0410E4607460C4C0D4D1B
:1025C00012E0287839782218401C1177C1B229709E
:1025D000A0690830A06102D16069401C6061402997
:1025E00001D1FFF799FE7F1C761EEAD2BDE8F0818B
:1025F00068D90020D802002070B516460C46054662
:1026000007E000BF15F8011B0120FEF7B7FD04F835
:10261000010B761EB6B2F5D270BD000010B5FDF705
:10262000D5FD07F095FF18B104494FF080500860C0
:10263000BDE810400020FDF7D0BD000004ED00E033
:1026400010B50F48016841F00101016041680D4A71
:102650001140416001680C4A11400160016821F499
:1026600080210160416821F4FE0141604FF41F01A7
:102670008160FFF705FF05494FF00060086010BD5D
:10268000001002400000FFF8FFFFF6FE08ED00E03A
:1026900070B5048C24F001040484058B048C25F0AF
:1026A000F3054FF6FF7606EA031313432B43104A54
:1026B00090420ED00F4A90420BD0B0F1804F08D01C
:1026C0000D4A904205D00D4A904202D00C4A9042E9
:1026D00005D124F002020A4342F0010104E024F093
:1026E0000A020A4342F001010383018470BD000025
:1026F000002C01400034014000040040000800406C
:10270000000C0040F0B5048C24F010040484068B07
:10271000048C4FF6FF7505EA011726F4734605EAA7
:102720000333334305EA02221A43104B98420ED07A
:102730000F4B98420BD0B0F1804F08D00D4B984210
:1027400005D00D4B984202D00C4B984205D124F095
:102750002001394341F0100104E024F0A0030B43B1
:1027600043F0100102830184F0BD0000002C014001
:10277000003401400004004000080040000C00400C
:10278000F0B5048C24F480740484858B048C4FF69B
:10279000FF7707EA012625F0F30507EA0313134341
:1027A0002B43104A90420ED00F4A90420BD0B0F10A
:1027B000804F08D00D4A904205D00D4A904202D079
:1027C0000C4A904205D124F40071314341F48071E8
:1027D00004E024F420620A4342F48071838301847C
:1027E000F0BD0000002C0140003401400004004016
:1027F00000080040000C0040F0B5048C24F4805424
:102800000484868B048C4FF6FF7505EA013726F4A5
:10281000734605EA0222324305EA03331343104AA2
:1028200090420ED00F4A90420BD0B0F1804F08D0AA
:102830000D4A904205D00D4A904202D00C4A904277
:1028400005D124F40051394341F4805104E024F4CB
:1028500002420A4342F4805183830184F0BD0000A8
:10286000002C0140003401400004004000080040FA
:10287000000C004010B5254C0121204600F0E8F87E
:1028800078B10121204600F0BBF8002003F084FE5F
:10289000012003F081FE022003F07EFE032003F0FE
:1028A0007BFE0221204600F0D3F830B10221204601
:1028B00000F0A6F8002003F0C5FD0421204600F03A
:1028C000C7F830B10421204600F09AF8012003F047
:1028D000B9FD0821204600F0BBF830B108212046A0
:1028E00000F08EF8022003F0ADFD1021204600F02C
:1028F000AFF8002808D01021204600F081F8BDE88C
:102900001040032003F09EBD10BD000000040040F5
:1029100070B5234D0221284600F09AF8214C50B1A1
:102920000221284600F06CF800220221284600F01F
:10293000E1F8206880470421284600F089F850B16A
:102940000421284600F05CF800220421284600F00B
:10295000D1F8606880470821284600F079F850B126
:102960000821284600F04CF800220821284600F0F3
:10297000C1F8A06880471021284600F069F80028B7
:102980000CD01021284600F03BF8002210212846E8
:1029900000F0B0F8E068BDE87040004770BD00008E
:1029A000000C0040F001002010B50D4C0121204624
:1029B00000F04EF8002812D006F086FD03F028FB48
:1029C00008B104F0BDFF05F043FB06480168491C4F
:1029D00001602046BDE81040012100F011B810BD93
:1029E0000010004018000020002904D0018841F0A8
:1029F000800101807047018821F0800101807047CB
:102A0000C94301827047002904D0018841F00101C7
:102A100001807047018821F0010101807047002981
:102A200005D030F8441F41F400410180704730F870
:102A3000441FC1F30E0101807047808E7047008FE4
:102A40007047808F7047B0F840007047808C7047A7
:102A500002460020138A0B4092890A40002B02D0C4
:102A6000002A00D00120704770B505460C461D486D
:102A7000854209D01C48854206D0B5F1804F03D06D
:102A80001A48854200D01A4820886188A288238984
:102A900060B1042813D008281AD02846FFF7ACFEEE
:102AA000E1882846BDE8704000F071B92846FFF77C
:102AB000EFFDE1882846BDE8704000F04CB928469B
:102AC000FFF720FEE1882846BDE8704000F04BB9D2
:102AD0002846FFF755FEE1882846BDE8704000F023
:102AE0004EB90000002C01400034014000040040B9
:102AF00000080040002A03D082890A43828170477F
:102B000082898A438281704730B5028C22F00102AB
:102B10000284028C8388048B24F0700424F0030563
:102B20000C882C4322F002020D8915434A882A435F
:102B3000124DA8420BD0124DA84208D0114DA84208
:102B400005D0114DA84202D0104DA8420FD122F05D
:102B500008054A892A4322F004058A882A4323F477
:102B6000807323F400738D891D43CB892B438380AD
:102B70000483C9888186028430BD0000002C014096
:102B80000034014000400140004401400048014041
:102B9000028B22F008020A430283704770B5028C50
:102BA00022F010020284028C8388048B24F4E04417
:102BB00024F440760D884FF6FF7404EA052535436A
:102BC00022F020020E8904EA061616434A8804EA17
:102BD00002123243114EB04202D0114EB04217D110
:102BE00022F080024E8904EA0616164326F04006BB
:102BF0008A8804EA0212324323F4806323F40063D8
:102C00008E8904EA86061E43CB8904EA8303334394
:102C100083800583C9880187028470BD002C014030
:102C200000340140028B22F400624FF6FF7303EA86
:102C3000012111430183704770B5028C22F4807228
:102C40000284028C8388848B24F0700424F00304B3
:102C50000D88254322F400720E894FF6FF7404EAB2
:102C6000062616434A8804EA02223243114EB04235
:102C700002D0114EB04217D122F400664A8904EA0C
:102C80000222324322F480668A8804EA0222324316
:102C900023F4805323F400538E8904EA06161E435E
:102CA000CB8904EA0313334383808583C9888187F2
:102CB000028470BD002C014000340140828B22F060
:102CC00008020A438283704770B5028C22F4805256
:102CD0000284058C8288838B23F4E04323F44076BE
:102CE0000C884FF6FF7303EA0424344325F400559F
:102CF0000E8903EA06362E434D8803EA053535432F
:102D0000094EB04202D0094EB04205D122F48046AD
:102D10008A8903EA8212324382808483C988A0F8B8
:102D20004010058470BD0000002C014000340140BB
:102D3000828B22F400624FF6FF7303EA01211143F4
:102D4000818370478186704701877047818770470C
:102D5000A0F840107047028B22F00C020283028B15
:102D60000A4302837047028B22F440620283028B83
:102D70004FF6FF7303EA01210A4302837047828BF7
:102D800022F00C028283828B0A4382837047828BFB
:102D900022F440628283828B4FF6FF7303EA0121A3
:102DA0000A4382837047000030B502881B4C1C4DDB
:102DB000A0420DD0A8420BD0B0F1804F08D0194BE3
:102DC000984205D0184B984202D0184B984203D134
:102DD00022F070034A881A43154B984206D0154BCF
:102DE000984203D022F44073CA881A4302808A882A
:102DF00082850A880285A0420AD0A84208D00E4ADD
:102E0000904205D00D4A904202D00D4A904201D125
:102E1000097A01860121818230BD0000002C014029
:102E2000003401400004004000080040000C004055
:102E300000100040001400400040014000440140E8
:102E4000004801400EB500220092022002900BE0E3
:102E5000019206E002990098084400900198401CF5
:102E6000019001980228F5D30298411E0291EFD2F9
:102E7000029800900EBD70B500F032F800F018F81E
:102E80000024002500F01CF8FFF7DCFF6006040EAC
:102E900000F02EF808B144F0010400F009F8FFF743
:102EA000D1FF6D1CEDB2082DECD3204670BD0000A3
:102EB000002240210148FEF77ABD0000000C0140CD
:102EC000012240210148FEF772BD0000000C0140C4
:102ED000002280210148FEF76ABD0000000C01407D
:102EE000012280210148FEF762BD0000000C014074
:102EF00080210148FEF750BD000C014010B5FFF7DE
:102F0000EFFFFFF79FFFFFF7DBFFFFF79BFFFFF7E9
:102F1000EFFF60B1FFF7DCFFFFF794FFFFF7C8FF9B
:102F2000FFF790FFFFF7E4FF18B1032010BD022068
:102F300010BD002010BD10B5FFF7CAFFFFF782FFDC
:102F4000FFF7BEFFFFF77EFFFFF7CAFFBDE81040A7
:102F5000FFF778BF10B5FFF7BBFFFFF773FFFFF771
:102F6000AFFFFFF76FFFFFF7A3FFFFF76BFFBDE8B2
:102F70001040FFF7B5BF70B50546FFF799FF002475
:102F8000280602D5FFF7ACFF01E0FFF7A1FF6806B6
:102F9000050EFFF757FFFFF793FFFFF753FFFFF70C
:102FA00087FFFFF74FFF641CE4B2082CE8D3FFF75C
:102FB00097FFFFF747FFFFF783FFFFF743FFFFF799
:102FC00097FF38B1FFF774FFFFF78AFFFFF73AFF6B
:102FD000012070BDFFF76CFFFFF782FFFFF732FFA4
:102FE000002070BD10B5FFF77BFFFFF72BFFFFF749
:102FF00067FFFFF727FFFFF75BFFBDE81040FFF714
:1030000021BF0000014800F01FB900000874002033
:10301000014800F019B90000307C0020014800F0A0
:1030200013B90000986B0020014800F00DB90000B2
:10303000D06F00208A05C94301807047002904D061
:10304000818941F4005181817047818921F40051C7
:103050008181704710B5234988420AD101218C0330
:103060002046FFF7AFF82046BDE810400021FFF7EB
:10307000A9B81D4988420AD101214C042046FFF716
:1030800085F82046BDE810400021FFF77FB81749BA
:1030900088420AD101218C042046FFF777F82046A8
:1030A000BDE810400021FFF771B8114988420AD1EC
:1030B0000121CC042046FFF769F82046BDE8104006
:1030C0000021FFF763B80B4988420AD101210C05A2
:1030D0002046FFF75BF82046BDE810400021FFF7CF
:1030E00055B810BD00380140004400400048004081
:1030F000004C0040005000400246002012880A4266
:1031000000D00120704770B5002440F66A12C1F368
:10311000421301F01F05012606FA05F2012B0CD01F
:10312000022B0DD0838A1340090A8E40008830405C
:103130000BB100B10124204670BD83891340F3E731
:10314000038A1340F0E710B540F66A13C1F3421347
:1031500001F01F040121A140012B07D0022B07D051
:1031600014303AB102680A43026010BD0C30F8E72F
:103170001030F6E702688A43026010BD30B585B0B2
:1031800004460D46208A4CF6FF710840E988014349
:103190002182A0894EF6F3110840A9882A8911439B
:1031A0006A8902431143A181A08A4FF6FF4108407A
:1031B000A9890143A1826846FFF712F81D4884429D
:1031C00001D1039800E00298A189090408D500EB19
:1031D000C00101EB001029684900B0FBF1F007E0E5
:1031E00000EBC00101EB001029688900B0FBF1F091
:1031F0006422B0FBF2F109010B096FF018056B4373
:1032000000EB8300A3891D044FF0320307D503EBC5
:10321000C000B0FBF2F000F00700084306E003EB4B
:103220000010B0FBF2F000F00F000843208105B061
:1032300030BD0000003801408088C0F308007047AE
:10324000C1F30801818070472DE9F041044640F246
:1032500025512068FFF757FF0025B8B12068FFF718
:10326000EBFFC0B2E28AA1688854E18A491C8AB2A5
:10327000E282E1898A4200D3E582628B8A4202D2ED
:10328000618B491C6183616A01B1884740F22777ED
:1032900039462068FFF737FF40F2266600B3A08A60
:1032A00090B1618A6068415C2068FFF7C9FF608A5D
:1032B000401C80B26082A189884200D36582A08AC6
:1032C000401EA082BDE8F081002239462068FFF749
:1032D0003AFF31462068BDE8F0410122FFF733BFD5
:1032E00031462068FFF70FFF0028EBD0A08A88B195
:1032F000618A6068415C2068FFF7A2FF608A401C19
:1033000080B26082A189884200D36582A08A401E73
:10331000A082D7E7002231462068FFF714FF206A19
:103320000028CFD0BDE8F0410047000010B52D497E
:103330002B48086001F12800486000F58060886033
:103340004FF480628A811023CB810020088248825A
:10335000C882088348838882C8610862486201F590
:103360008761214C0C6001F128044C6010348C60A2
:103370008B81CA8108824882C882088348838882F8
:10338000C8610862194B4B6201F58761184B0B60ED
:1033900001F128034B6001F585638B608A81CA8146
:1033A00008824882C882088348838882C86108628C
:1033B000486201F628010F4B0B6001F128034B60B6
:1033C00001F585638B608A81CA8108824882C88240
:1033D000088348838882C86108620748486210BD34
:1033E00000440040986B002000480040D14700088E
:1033F000004C004000500040A99D00081B4991F876
:103400002F204B79424091F82A00504091F8262015
:10341000424091F82500504091F82320424091F815
:103420002100504091F820204240887F50400A7F80
:103430004240C87D50408A7D4240087D50408A7C91
:103440004240087B50400A7A4240887950400A79CD
:1034500043405A402F200B1813F8013C0B54401ED8
:1034600010F0FF00F7D10A7070470000C4D90020A7
:1034700010A41B4E4FF4616529463046FFF762FCED
:1034800029463046FFF760FC29463046FFF75EFCD0
:1034900029463046FFF75CFC0020124B191F225CC6
:1034A0001A800A885206FCD5401CC0B22B28F6D3DD
:1034B000FEE700000D0A456E746572204861726473
:1034C0004661756C745F48616E646C65722C205344
:1034D000797374656D2048616C742E0D0A000000CC
:1034E000002C0140044400400FB4054B10B503A963
:1034F000044A029800F014FC10BC5DF814FB0000B4
:103500005D960008E0020020490050EAC12018BF83
:1035100004204A0D18BF40F0010040F2FF72B2EBE8
:10352000515F08BF40F00200012808BF0520704726
:103530002DE9F74F144694B00021C4E90211159902
:10354000079121F00045C9498D4206DC1599C4E96F
:10355000000117B00020BDE8F08FC549DFF814A3C3
:10356000A9423CDD0799C44E0029C44FC44A1599AD
:10357000534619DDFDF702F8554506D0C14AC24B46
:10358000FCF7FCFFC4E900010AE04FF0D352BE4B48
:10359000FCF7F4FF32463B46FCF7F0FFC4E90001BC
:1035A00017B00120BDE8F08FFCF747FF554506D066
:1035B000B44AB54BFCF741FFC4E900010AE04FF003
:1035C000D352B14BFCF739FF32463B46FCF735FF8F
:1035D000C4E9000117B04FF0FF30BDE8F08FAB49F0
:1035E000A942159978DB21F0004183468846A84A14
:1035F000A84BFCF7C9FF0022A74BFCF71EFFFDF705
:1036000014F90990FDF7C6F806460F469C4A534642
:10361000FCF7BAFF43465A46FCF7B3FF80468A469A
:10362000984A994B30463946FCF7AEFF2A0D0125E2
:103630000B9242465346FCF7A4FF032DC4E9000158
:1036400039D00B98C1F30A51401A05EB45111139D5
:10365000814230DA9148C346784400EB0510CDF83A
:103660000CA00C90D0E9002330463946FCF78CFFC3
:1036700002460B460491069058460399FCF77EFFDC
:1036800080468A4602460B4658460399FCF776FF69
:10369000049B069AFCF772FF83460C980391394607
:1036A000D0E902233046FCF76FFF5A46039BFCF734
:1036B00065FF6D1CBDE707980028A2BF099817B0E9
:1036C000BDE8F08F616881F000416160099817B032
:1036D0004042BDE8F08FFFE784461598C1F313011F
:1036E000C0F30A50A0F2F5304FEA601800F01F0650
:1036F000C6F12000139000200690079041F4801E30
:1037000005206D4676B1664A08EB00017A4452F80E
:10371000213002EB8101B3404A68139922FA01F18A
:10372000194305E05F4908EB0002794451F8221083
:10373000A1FB0E27A1FB0C131A449A4234BF0123AC
:10374000002303EB070A05EB8003D3E901B70F441D
:103750008F4234BF0121002193448B4411B1934522
:1037600002D903E0934501D2012100E00021C3E921
:1037700001B7514445F82010011EA0F10100C1DC41
:103780000298059F00F10050800F12900298DDE929
:1037900003568000FCF7FEFF834628460D91FDF797
:1037A0000AF86FF01D02FCF7D0FFCDE90E0130469C
:1037B000FDF701F86FF03D02FCF7C7FF80468A462F
:1037C0003846FCF7F8FF6FF05D02FCF7BEFF0746D6
:1037D000424653461191FCF730FEDDE90E23FCF71B
:1037E0002CFE5A460D9BFCF728FE00250E465A4635
:1037F00028460D9BFCF7C2FEDDE90E23FCF7BEFE5A
:1038000042465346FCF7BAFE3A46119BFCF7B9FE16
:10381000DFF898A0244A5346FCF7B6FE07468846D0
:10382000234A244B31462846FCF7AEFE3A4643462F
:10383000FCF703FE074688464FF0A8425346314640
:103840002846FCF7A1FE3A464346FCF7F6FD159ADA
:1038500012F0004F04D0129A81F0004152421292AD
:10386000C4E90001129817B0BDE8F08FFB21E93FD1
:103870007CD90240FB21F93F7370032E8A19A33BC8
:10388000000040543163621A61B4D03DFB213941DC
:1038900083C8C96D305FE43F0000E03F3C72000028
:1038A000B87100009A710000182D4454FB21F93DB5
:1038B0003326A611460B113C2DE9FF4D21F000489F
:1038C00007460C46B8F1795F08DAFCF7AEFF00282E
:1038D00001BF0020324904B0BDE8F08D3A462346CE
:1038E00010461946FCF750FE054602462D480E4686
:1038F0000B460621784400F05DF82A463346FCF773
:1039000043FEDDE9022382468B4638462146FCF71A
:103910003BFE04460F4652465B4628463146FCF7BE
:1039200033FE22463B46FCF729FE07468A464FF007
:10393000FF3228463146FCF708FF1B4A90450ADA59
:103940003A465346FCF71AFE04B00022BDE8F04D9B
:10395000134BFCF716BE154A4245A8BFA8F5001543
:103960004FF00004B8BF124D22462B46FCF706FE6E
:103970000646884622462B4600200949FCF7FEFDF4
:1039800004460D463A46534630464146FCF7F6FD9E
:1039900004B022462B46BDE8F04DFCF7F2BD000016
:1039A0000000F03F706F00003333D33F0000E93F69
:1039B0000000D23F2DE9F0414F1E00EBC701044645
:1039C000D1E9000115461E4637F006020DD02A4601
:1039D0003346FCF7D9FD7F1E04EBC703D3E9002370
:1039E000FCF72BFD37F00602F1D1022F25D0042F72
:1039F00013D0062F18BFBDE8F0812A463346FCF7E6
:103A0000C3FDD4E90A23FCF718FD2A463346FCF728
:103A1000BBFDD4E90823FCF710FD2A463346FCF72A
:103A2000B3FDD4E90623FCF708FD2A463346FCF72C
:103A3000ABFDD4E90423FCF700FD2A463346FCF72E
:103A4000A3FDD4E90223FCF7F8FC2A463346FCF731
:103A50009BFDD4E90023BDE8F041FCF7EEBC00007B
:103A60002DE9FF4D054621F0004084B00C46B0F131
:103A7000795F0BDA2846FFF747FD042808BF00F0FE
:103A80006FF8284608B02146BDE8F08D2A460B465F
:103A90001046FCF779FD06460F462A462346FCF7FA
:103AA00073FD804626488A4632463B4605217844C7
:103AB000FFF780FF83461098029160B3214A224BA2
:103AC00040465146FCF760FDCDE900015A464046AC
:103AD0005146029BFCF758FD82468846DDE9060107
:103AE0004FF0FF32FCF731FE52464346FCF746FDED
:103AF00032463B46FCF748FDDDE90623FCF73EFD78
:103B0000DDE90023FCF73AFD08B02A462346BDE86C
:103B1000F04DFCF736BD0B465A4630463946FCF7A9
:103B200033FD084A084BFCF788FC42465346FCF735
:103B30002BFD08B02A462346BDE8F04DFCF77DBCBE
:103B4000AE6E0000495555555555C5BF0122FCF7CD
:103B5000FCBD0022134610461146FCF787BD00004D
:103B6000024A00201107FCF7F0BD000001FDFFFF35
:103B700002E008C8121F08C1002AFAD17047704736
:103B8000002001E001C1121F002AFBD17047000094
:103B90000149086070470000E40200202DE9FF5F42
:103BA00082B00021DDE90430020DDDF840B00343AE
:103BB00018D044F61050A2F2FF3242431514119867
:103BC00001281FD0A5EB0B00401C5FEA000A4FF054
:103BD00000064E4FDFF83891B046504615D5CAF171
:103BE000000413E0119801244AA3012801D16FEACF
:103BF0000B010298119AC0E90031C0E9024206B0F7
:103C0000BDE8F09FCBF10000DFE704460021404A09
:103C1000491842EB0450CDE9001012E0E00707D04C
:103C200032463B4640464946FCF7AEFC8046894654
:103C300032463B4610461946FCF7A6FC06460F46A0
:103C40006410002CEAD1DDE90401DDE90023BAF1BA
:103C5000000F06DAFCF798FC42464B46FCF794FC52
:103C600005E0FCF703FD42464B46FCF7FFFC04462B
:103C70000E460022284BFCF723FE03D84FF0FF30FE
:103C8000014607E00022254B20463146FCF7D5FBD4
:103C9000FCF760FF102409E0002C0ADB0A22002355
:103CA000FCF762FE039B30321A55641E50EA010293
:103CB000F2D1641C039AC4F111031444119A012A2D
:103CC00003D0012208430DD10AE0084304D00020AC
:103CD0004FF0110B119072E7A3EB0B056D1E0DE079
:103CE0005B4504DD4FF0000205F1010504E003DA55
:103CF0004FF00002A5F10105002AECD002981199BD
:103D0000C0E90231C0E9004579E700000000144035
:103D10000000F03F300000000000F0430000E03FF2
:103D20002DE9FF4F95B09B468946064600250FE2D8
:103D3000252877D100242746F84A0121059400E080
:103D4000044316F8013F203B01FA03F01042F7D17B
:103D500030782A2811D06FF02F033078A0F130028C
:103D6000092A16D8059A44F0020402EB820203EBFA
:103D700042021044761C0590EFE759F8042B059297
:103D8000002A03DA504244F40054059044F002043F
:103D9000761C30782E2816D116F8010F44F0040452
:103DA0002A280DD06FF02F023078A0F13003092BB4
:103DB00009D807EB870302EB4303C718761CF3E728
:103DC00059F8047B761C30786C280FD006DC4C2820
:103DD00017D068280DD06A2814D104E0742810D0B8
:103DE0007A280FD10DE044F400140AE044F4801462
:103DF00001E044F440147278824202D104F5801448
:103E0000761C761C307866280BD013DC582877D0C7
:103E100009DC002875D04528F6D04628F4D047287C
:103E20001AD19DE118E0632835D0642879D065283F
:103E300012D195E1702873D008DC6728F1D0692889
:103E40006FD06E280DD06F2806D1B5E073282CD026
:103E5000752875D0782874D05A46179990476D1CEC
:103E600075E1C4F30250022809D003280DD0D9F817
:103E7000001004280DD00D6009F1040967E1D9F89C
:103E80000010EA17C1E90052F6E7D9F800100D80DA
:103E9000F2E70D70F0E719F8041B8DF80010002010
:103EA0008DF80100EA46012003E059F804AB4FF019
:103EB000FF3061074FF0000102D40DE008F101016D
:103EC0008846B9420FDA8045F8DB1AF80810002955
:103ED000F4D108E008F1010188468142FADB1AF8C2
:103EE00008100029F6D105985B46A0EB080721468B
:103EF0003846179A00F094FA284400EB080507E0CA
:103F00004DE029E10DE01AF8010B5A461799904748
:103F1000B8F10108F7D25B4621463846179A13E1FB
:103F200042E00A220092C4F302524FF0000A022A31
:103F300008D059F804CB032A4FEAEC710AD00DE0FF
:103F400029E02AE009F1070121F00702F2E802C1A5
:103F5000914609E00FFA8CFC4FEAEC71042A03D178
:103F60004FFA8CFC4FEAEC71002907DA0A4600216F
:103F7000DCF1000C61EB02012D2202E0220504D5E8
:103F80002B228DF80420012203E0E20701D0202239
:103F9000F7E7904659E00A2102E010220DE01021D7
:103FA0004FF0000A00910BE010224FF0000A44F09D
:103FB00004040827009203E008224FF0000A009250
:103FC000C4F30252022A05D059F804CB0021032A77
:103FD00008D009E009F1070121F00702F2E802C167
:103FE000914605E01FFA8CFC042A01D10CF0FF0C6D
:103FF0004FF00008220728D5702806D0009B83F0D8
:10400000100353EA0A0305D00EE040228DF8042085
:10401000012208E05CEA010206D030228DF804207B
:104020008DF8050002229046009B83F0080353EAB6
:104030000A030AD15CEA010201D1620705D53022E8
:104040008DF804204FF001087F1E582804D034A0BA
:1040500003900EA802900DE036A0F9E753466046A3
:10406000009AFCF781FC84460398825C0298401E0B
:10407000029002705CEA0100F0D1029806A9081AC9
:1040800000F1200A600702D524F4803400E0012703
:10409000574502DDA7EB0A0000E0002000EB0A0113
:1040A000009005984144401A0590E00306D45B4611
:1040B0002146179A059800F0B3F90544002706E059
:1040C00001A85A46C05D179990476D1C7F1C474553
:1040D000F6DBE0030CD55B462146179A059800F005
:1040E0009FF9054404E030205A46179990476D1C0B
:1040F0000099481E00900029F5DC08E0029802991A
:104100005A460078491C0291179990476D1CBAF1E4
:104110000001AAF1010AF1DC65E1000009280100B3
:10412000303132333435363738396162636465662D
:1041300000000000303132333435363738394142EF
:10414000434445460000000000F058F90544761C41
:10415000307800287FF4ECAD19B02846BDE8F08F28
:10416000620700D4062709F1070222F0070CFCE8D9
:104170000223E14603F000485FEA080C02D00FF288
:10418000702C0DE05FEA045C02D50FF2682C07E0AA
:104190005FEAC47C02D00FF2602C01E0AFF2700C39
:1041A0004FF0FF3823F00043CDF850C065280CD005
:1041B00006DC452809D046281DD047283DD13DE0E2
:1041C000662818D067287ED138E00021112F01DB46
:1041D000112000E0781CCDE9000106A90EA8FFF728
:1041E000DDFCDDE90F010E9A03910021009207F139
:1041F000010A04914DE04FF000400097CDE9011015
:1042000006A90EA8FFF7CAFCDDE90F0203920E9B78
:1042100011990022DDF80CA00093049211B9791CC9
:1042200000EB010AB7EB0A0004D4C0F1FF3007F13C
:10423000010A0490AAEB0700019044E0012F00DA84
:1042400001270021112F01DD112000E03846CDE9C2
:10425000000106A90EA8FFF7A1FCDDE90F010E9AE7
:104260000391002104910092BA4621070CD40399CE
:10427000514500DA8A46BAF1010F05DD009AAAF12C
:104280000101515C302908D0B84202DA10F1040F64
:1042900006DA0121CDE9011015E0AAF10101E9E7F3
:1042A000002805DC049901440491AAEB000102E016
:1042B000411C514500DD8A460499401A401C01907A
:1042C0004FF000400290200704D40198504501DBD4
:1042D000CDF8048000208DF84F0002980DF14F07B3
:1042E000B0F1004F25D02B200E9002984FF002081D
:1042F00000280CDA404202902D200E9007E00A219F
:104300000298FCF71BFB3031029007F8011DB8F151
:104310000001A8F10108F2DC02980028EFD1791E13
:104320000E980870307800F0200040F0450007F843
:10433000020D12A8C01B00F107081498007800B104
:10434000012000EB0A01019801EBE071059841445E
:10435000401A401E0590E00306D45B462146179A9A
:10436000059800F05DF805441498007818B15A4695
:10437000179990476D1CE00324D55B462146179A98
:10438000059800F04DF805441CE00498002807DB70
:10439000DDE90301884203DD0098405C179901E0E4
:1043A000179930205A469047049805F10105401CA2
:1043B00004900198401E019004D12E205A4617996E
:1043C00090476D1CBAF10001AAF1010ADDDC05E09D
:1043D00017F8010B5A46179990476D1CB8F1000168
:1043E000A8F10108F4DC5B462146179A0598ABE674
:1043F0002D0000002B000000200000002DE9F041FE
:10440000044600251E461746880404D405E03946B4
:104410002020B0476D1C641EF9D52846BDE8F08108
:104420002DE9F041044600251E469046C80301D5FB
:10443000302700E02027880404D505E041463846AF
:10444000B0476D1C641EF9D52846BDE8F0812DE902
:10445000F04106460D46174600241EE005F068F9B7
:10446000B62005F03BF905F089F958B9E8B205F036
:1044700035F905F083F928B9305D05F02FF905F01D
:104480007DF920B105F068F90020BDE8F08105F064
:1044900063F96D1CADB2641CA4B2BC42DED3012032
:1044A000F3E7000030B587B001214FF48260FDF7DB
:1044B0007BFE4FF40040FDF751FE1020ADF80400E4
:1044C00000248DF8074001A91648FDF7E3F9164DC1
:1044D0002846FCF7A1FB02948DF80C408DF80D40A6
:1044E0004FF460210491059401218DF8181002A960
:1044F0002846FCF7DBFB01212846FCF780FB284619
:10450000FCF732FC2846FCF7CAFB0028FAD1284603
:10451000FCF73BFC2846FCF7B1FB0028FAD107B0BA
:1045200030BD00000010014000280140012200F0D1
:1045300007039A400F4B07280DD818460129007829
:1045400006D090431870012202210A48FFF77FBF6E
:1045500002431A70F7E707480129407807D09043D3
:104560005870044801220321401CFFF770BF02432A
:104570005A70F6E71C00002070B505462846FBF788
:1045800088FE1249124C8D420DD2884201D2A042BF
:104590001BDDA04219DD2146FBF7CDFE2146BDE81B
:1045A0007040FBF7C8BE0B4A00F1FF4191420CD3AB
:1045B0000949884209D980F000402146FBF7BBFE3B
:1045C0002146BDE87040FBF7B9BE70BD0000808099
:1045D000000034430000B442000034C32848417B4B
:1045E000027C41EA0261C27B837B120442EA03221D
:1045F0001143C166417C027D41EA0261C27C837C39
:10460000120442EA032211430167417D027E41EA1E
:104610000261C27D837D120442EA03221143416795
:1046200090F83A1090F83D2041EA026190F83C2061
:1046300090F83B30120442EA03221143816790F85C
:104640003E1090F8412041EA026190F8402090F835
:104650003F30120442EA03221143C16790F842102E
:1046600090F8452041EA026190F8442090F8430018
:10467000120442EA00200143014880300160704783
:10468000E802002010B50021294C207941280ED1E4
:10469000607978280BD1A079FF2808D1E079062825
:1046A00005D1207A812802D1607A472801D00020E4
:1046B00010BD607E28B9A07E8C2802D1E07E0C2837
:1046C00001D0002010BD94F82800022807D194F8EA
:1046D00029008C2803D194F82A000C2801D000204E
:1046E00010BD94F83700012807D194F83800B0289D
:1046F00003D194F83900102801D0002010BD94F89F
:1047000052006D2801D0002010BD62181079491C9C
:10471000C9B24D29F9D34D21201D00F00BF894F8B2
:104720005110884201D0002010BD012010BD0000B2
:10473000E802002010B503460022002003E09C5C44
:104740006040521CD2B28A42F9D310BD70B50C4CF5
:10475000207800280FD00025257060884F2804D0CD
:10476000618808A0FEF7C0FE04E0FFF78BFF18B1D8
:10477000FFF734FF658070BD07A0FEF7B5FEF9E7CF
:10478000E8020020616E676C65206C656E206572C2
:10479000723A25640D0A0000616E676C65206368DB
:1047A0006B206572723A0D0A00000000052001F0CE
:1047B000D3BC000010B5052001F0CEFC0349FBF787
:1047C000C0FDFCF705F800B210BD00000000C842B3
:1047D00070B50546084C0021217040F22F11074AA0
:1047E000032004F02BFC6188602904D261884A1CF4
:1047F00062800819057170BDE80200203548000884
:1048000070B50B4D4FF4005421462846FDF7CDF806
:104810000A2000F054F921462846FDF7C4F80A2082
:1048200000F04DF921462846BDE87040FDF7BDB8BF
:10483000000C0140024901200870FFF787BF00000B
:10484000E802002000210020084A13181B7B012BDE
:1048500001D1491CC9B2401CC0B21428F5D30229A9
:1048600001D3012070470020704700008005002020
:1048700010B5B62004F012FF18B104F06DFF00204F
:1048800010BD012010BD00000148C17A817270473F
:10489000F88400202DE9F041002600242546002060
:1048A00001F004FBFBF7E0FF22462B46FBF7C5FDBA
:1048B00004460D46761CF6B2322EF0D3264F002267
:1048C0003B4620462946FBF7D1FEFCF711F8234E64
:1048D000706000242546A046012001F0E7FAFBF7AE
:1048E000C3FF22462B46FBF7A8FD04460D4608F100
:1048F000010808F0FF08B8F1320FEDD300223B4663
:1049000020462946FBF7B2FEFBF7F2FF3061002498
:104910002546A046022001F0C9FAFBF7A5FF224672
:104920002B46FBF78AFD04460D4608F1010808F006
:10493000FF08B8F1320FEDD300223B46204629464E
:10494000FBF794FEFBF7D4FFF06105483060F060A0
:10495000B061BDE8F0810000000049403C05002046
:10496000CDCCCC3F70B50446204601F09FFA094DEE
:1049700004EB440405EB8402014690605068FBF7A9
:10498000DAFC55F82410FBF7CFFF01D8012070BDE9
:10499000002070BD3C05002010B5042003F098F8FD
:1049A000052003F095F8062003F092F8022003F0AA
:1049B0008FF8012003F08CF8BDE81040032003F0CD
:1049C00087B810B504F03EFC04F01CFC04F05EFC5B
:1049D00004F054FCBDE8104004F028BC70B5194E3A
:1049E00020213046FCF7D8FF174DB41530B12146D1
:1049F0002846FCF7D1FF08B1022070BD20213046C7
:104A0000FCF7CAFF20B1FFF71DFF08B1022070BDFF
:104A100021462846FCF7C0FF20B1FFF713FF08B17D
:104A2000022070BD20213046FCF7B6FF08B10020FF
:104A300070BD21462846FCF7AFFF08B1012070BDCC
:104A4000032070BD00080140001C014038B5062459
:104A50008DF8004001208DF8010000208DF8020043
:104A60008DF803006846FDF7F1FA8DF800406846BE
:104A7000FDF7ECFA07208DF800006846FDF7E6FA2E
:104A800008208DF800006846FDF7E0FA09208DF84F
:104A900000006846FDF7DAFA0A208DF80000684643
:104AA000FDF7D4FA17208DF800006846FDF7CEFA1E
:104AB00028208DF800006846FDF7C8FA38BD4FF48D
:104AC0007A714843AFF3008030B5074A546800213B
:104AD000064B074D1B68B3FBF5F3434301E05068F9
:104AE000011B9942FBD330BD001000E02C020020D6
:104AF00040420F002DE9F047DFF8049499F80000D8
:104B0000002830D099F8010009F15C05FD4C05F151
:104B100028064FF00A084FF07E57A5F1500A1528D5
:104B200021D2DFE800F00B228EAAFDFCFBFAF9F897
:104B3000F7F6F5F4F3F2F1F0EFEEED0099F8080076
:104B4000B0FBF8F108FB110004EB400000214078B5
:104B5000FFF7ECFC05F0F6FCC9F8040099F8010039
:104B6000401C89F80100BDE8F08705F0EBFCD9F89E
:104B70000410401A0328F6D399F80800B0FBF8F1A6
:104B800008FB1100002114F81000FFF7CFFC78207B
:104B9000FFF79AFF01F032F999F80810B1FBF8F22B
:104BA00008FB12124AF83200B1FBF8F008FB1010B3
:104BB000012114F81000FFF7B9FC1420FFF784FF5F
:104BC00001F01CF999F80810B1FBF8F208FB121279
:104BD0000AEBC2025060B1FBF8F008FB101004EBC6
:104BE000400001214078FFF7A1FC99F80800B0FBD4
:104BF000F8F108FB110399F8011049080AEBC1020A
:104C00005468BC4201DB002101E05AF8311045F83C
:104C10002310B0FBF8F108FB11035168B94201DB26
:104C2000012100E00021F154401C89F8080005F042
:104C300089FCC9F8040099F80100401C89F80100BA
:104C400091E705F07FFCD9F8041088428BD099F8E1
:104C50000800B0FBF8F108FB110004EB4000002154
:104C60004078FFF763FC05F06DFCC9F8040099F883
:104C70000100401C89F8010075E705F063FCD9F8D4
:104C80000410401A0328DBD399F80800B0FBF8F1B0
:104C900008FB1100002114F81000FFF747FC7820F2
:104CA000FFF712FF01F0AAF899F80810B1FBF8F22B
:104CB00008FB12124AF83200B1FBF8F008FB1010A2
:104CC000012114F81000FFF731FC1420FFF7FCFE5F
:104CD00001F094F899F80810B1FBF8F208FB1212F1
:104CE0000AEBC2025060B1FBF8F008FB101004EBB5
:104CF000400001214078FFF719FC99F8080010E006
:104D0000FDE3FDE3EAE388E36BE3FEE2E1E274E264
:104D100057E2EAE1CDE160E143E1D0E0B3E046E013
:104D200029E0B0FBF8F108FB110399F801104908DC
:104D30000AEBC1025468BC4201DB002101E05AF8D1
:104D4000311045F82310B0FBF8F108FB110351684E
:104D5000B94201DB012100E00021F154401C89F837
:104D6000080005F0EFFBC9F8040099F80100401CA9
:104D700089F80100F7E605F0E5FBD9F80410884250
:104D8000F8D099F80800B0FBF8F108FB110004EB2B
:104D9000400000214078FFF7C9FB05F0D3FBC9F8BC
:104DA000040099F80100401C89F80100DBE605F0D9
:104DB000C9FBD9F80410401A0328DBD399F808007E
:104DC000B0FBF8F108FB1100002114F81000FFF708
:104DD000ADFB7820FFF778FE01F010F899F8081085
:104DE000B1FBF8F208FB12124AF83200B1FBF8F0FE
:104DF00008FB1010012114F81000FFF797FB142096
:104E0000FFF762FE00F0FAFF99F80810B1FBF8F224
:104E100008FB12120AEBC2025060B1FBF8F008FB6B
:104E2000101004EB400001214078FFF77FFB99F858
:104E30000800B0FBF8F108FB110399F801104908CC
:104E40000AEBC1025468BC4201DB002101E05AF8C0
:104E5000311045F82310B0FBF8F108FB110351683D
:104E6000B94201DB012100E00021F154401C89F826
:104E7000080005F067FBC9F8040099F80100401C20
:104E800089F801006FE605F05DFBD9F8041088424F
:104E90008CD099F80800B0FBF8F108FB110004EB86
:104EA000400000214078FFF741FB05F04BFBC9F8BB
:104EB000040099F80100401C89F8010053E605F050
:104EC00041FBD9F80410401A0328DBD399F80800F5
:104ED000B0FBF8F108FB1100002114F81000FFF7F7
:104EE00025FB7820FFF7F0FD00F088FF99F8081007
:104EF000B1FBF8F208FB12124AF8320004E000009D
:104F00006C03002028000020B1FBF8F008FB101013
:104F1000012114F81000FFF709FB1420FFF7D4FD5E
:104F200000F06CFF99F80810B1FBF8F208FB1212C0
:104F30000AEBC2025060B1FBF8F008FB101004EB62
:104F4000400001214078FFF7F1FA99F80800B0FB22
:104F5000F8F108FB110399F8011049080AEBC102A6
:104F60005468BC4201DB002101E05AF8311045F8D9
:104F70002310B0FBF8F108FB11035168B94201DBC3
:104F8000012100E00021F154401C89F8080005F0DF
:104F9000D9FAC9F8040099F80100401C89F8010009
:104FA000E1E505F0CFFAD9F80410884286D099F8E7
:104FB0000800B0FBF8F108FB110004EB40000021F1
:104FC0004078FFF7B3FA05F0BDFAC9F8040099F884
:104FD0000100401C89F80100C5E505F0B3FAD9F8D5
:104FE0000410401A0328DBD399F80800B0FBF8F14D
:104FF00008FB1100002114F81000FFF797FA782041
:10500000FFF762FD00F0FAFE99F80810B1FBF8F224
:1050100008FB12124AF83200B1FBF8F008FB10103E
:10502000012114F81000FFF781FA1420FFF74CFD5E
:1050300000F0E4FE99F80810B1FBF8F208FB121238
:105040000AEBC2025060B1FBF8F008FB101004EB51
:10505000400001214078FFF769FA99F80800B0FB99
:10506000F8F108FB110399F8011049080AEBC10295
:105070005468BC4201DB002101E05AF8311045F8C8
:105080002310B0FBF8F108FB11035168B94201DBB2
:10509000012100E00021F154401C89F8080005F0CE
:1050A00051FAC9F8040099F80100401C89F8010080
:1050B00059E505F047FAD9F8041088428CD099F8E0
:1050C0000800B0FBF8F108FB110004EB40000021E0
:1050D0004078FFF72BFA05F035FAC9F8040099F883
:1050E0000100401C89F801003DE505F02BFAD9F8D4
:1050F0000410401A0328DBD399F80800B0FBF8F13C
:1051000008FB1100002114F81000FFF70FFA7820B7
:10511000FFF7DAFC00F072FE99F80810B1FBF8F224
:1051200008FB12124AF83200B1FBF8F008FB10102D
:10513000012114F81000FFF7F9F91420FFF7C4FC5F
:1051400000F05CFE99F80810B1FBF8F208FB1212AF
:105150000AEBC2025060B1FBF8F008FB101004EB40
:10516000400001214078FFF7E1F999F80800B0FB11
:10517000F8F108FB110399F8011049080AEBC10284
:105180005468BC4201DB002101E05AF8311045F8B7
:105190002310B0FBF8F108FB11035168B94201DBA1
:1051A000012100E00021F154401C89F8080005F0BD
:1051B000C9F9C9F8040099F80100401C89F80100F8
:1051C000D1E405F0BFF9D9F8041088428CD099F8E1
:1051D0000800B0FBF8F108FB110004EB40000021CF
:1051E0004078FFF7A3F905F0ADF9C9F8040099F884
:1051F0000100401C89F80100B5E405F0A3F9D9F8D5
:105200000410401A0328DBD399F80800B0FBF8F12A
:1052100008FB1100002114F81000FFF787F978202F
:10522000FFF752FC00F0EAFD99F80810B1FBF8F224
:1052300008FB12124AF83200B1FBF8F008FB10101C
:10524000012114F81000FFF771F91420FFF73CFC5E
:1052500000F0D4FD99F80810B1FBF8F208FB121227
:105260000AEBC2025060B1FBF8F008FB101004EB2F
:10527000400001214078FFF759F999F80800B0FB88
:10528000F8F108FB110399F8011049080AEBC10273
:105290005468BC4201DB002101E05AF8311045F8A6
:1052A0002310B0FBF8F108FB11035168B94201DB90
:1052B000012100E00021F154401C89F8080005F0AC
:1052C00041F9C9F8040099F80100401C89F801006F
:1052D00049E405F037F9D9F8041088428CD099F8E0
:1052E0000800B0FBF8F108FB110004EB40000021BE
:1052F0004078FFF71BF905F025F9C9F8040099F883
:105300000100401C89F801002DE405F01BF9D9F8D3
:105310000410401A0328DBD399F80800B0FBF8F119
:1053200008FB1100002114F81000FFF7FFF87820A7
:10533000FFF7CAFB00F062FD99F80810B1FBF8F224
:1053400008FB12124AF83200B1FBF8F008FB10100B
:10535000012114F81000FFF7E9F81420FFF7B4FB5F
:1053600000F04CFD99F80810B1FBF8F208FB12129E
:105370000AEBC2025060B1FBF8F008FB101004EB1E
:10538000400001214078FFF7D1F899F80800B0FB00
:10539000F8F108FB110399F8011049080AEBC10262
:1053A0005468BC4201DB002101E05AF8311045F895
:1053B0002310B0FBF8F108FB11035168B94201DB7F
:1053C000012100E00021F154401C89F8080005F09B
:1053D000B9F8C9F8040099F80100401C89F80100E7
:1053E0002EE405F0AFF8D9F804108842F8D099F807
:1053F0000800B0FBF8F108FB110004EB40000021AD
:105400004078FFF793F805F09DF8C9F8040099F883
:105410000100401C89F8010012E405F093F8D9F866
:105420000410401A0328DBD37820FFF74DFB00F06F
:10543000E5FC99F80810B1FBF8F208FB12124AF8E3
:105440003200B1FBF8F008FB1010012114F8100035
:10545000FFF76CF81420FFF737FB00F0CFFC99F84A
:105460000810B1FBF8F208FB12120AEBC2025060FE
:10547000B1FBF8F008FB101004EB4000012140786C
:10548000FFF754F899F80800B0FBF8F108FB110396
:1054900099F8011049080AEBC1025468BC4201DBCB
:1054A000002101E05AF8311045F82310B0FBF8F163
:1054B00008FB11035168B94201DB012100E0002122
:1054C000F154401C89F8080005F03CF8C9F80400C4
:1054D00099F80100401C89F801004BE405F032F80E
:1054E000D9F804108842F8D099F80800B0FBF8F118
:1054F00008FB110004EB40000021407801E06DE062
:105500000BE0FFF713F805F01DF8C9F8040099F84F
:105510000100401C89F801002CE405F013F8D9F8CB
:105520000410401A0328D8D37820FFF7CDFA00F0F2
:1055300065FC99F80810B1FBF8F208FB12124AF862
:105540003200B1FBF8F008FB1010012114F8100034
:10555000FEF7ECFF1420FFF7B7FA00F04FFC99F8C4
:105560000810B1FBF8F208FB12120AEBC2025060FD
:10557000B1FBF8F008FB101004EB4000012140786B
:10558000FEF7D4FF99F80800B0FBF8F108FB11030F
:1055900099F8011049080AEBC1025468BC4201DBCA
:1055A000002101E05AF8311045F82310B0FBF8F162
:1055B00008FB11035168B94201DB012100E0002121
:1055C000F154401C89F8080004F0BCFFC9F804003D
:1055D00099F80100401C89F8010053E404F0B2FF7F
:1055E000D9F804108842F8D0002089F8010089F821
:1055F000080047E47047000070B50546294800EBF5
:10560000051420688047062205EB45030026A8B351
:105610002179062901D2227170BD0C2902D2491CC0
:10562000217170BDA07A05EB45056D1C20B90120E4
:10563000A072E8B202F0C4FE21890029F1D0E0880E
:1056400088420BD2401C80B2E08021898842E8D198
:10565000BDE87040DB1CD8B202F0B2BEE07A002890
:10566000DFD0207B401CC0B22073E17A8842D8D3BF
:105670002673E8B2BDE8704002F0A2BE2079062889
:1056800001D922710BE010B1401E207107E0A07A11
:10569000012804D1A6729B1CD8B202F091FEE680CC
:1056A000267370BD58840020044800214170416079
:1056B0004181017201210170704700006C030020DC
:1056C0002DE9FF4701210420FCF76EFD4FF4004453
:1056D000ADF80C4004278DF80F7003A92948FCF79A
:1056E000D9F801210846FCF75FFD0F210020FCF7E7
:1056F000BDF8019400248DF808404FF010088DF893
:10570000098001258DF80A5001A8FCF775F82820BA
:105710008DF800004FF00F098DF801908DF80240D0
:105720008DF803506846FCF791FC01214020FCF7FE
:105730003BFD0826ADF80C608DF80F7003A91248E8
:10574000FCF7A8F801210846FCF72EFD03210420F0
:10575000FCF78CF801968DF808408DF809808DF8DB
:105760000A5001A8FCF748F809208DF800008DF8D0
:1057700001908DF802408DF803506846FCF766FCF6
:10578000BDE8FF8700080140001801402DE9F047FF
:10579000694C2078002828D0012560680026AF07D2
:1057A000DFF89881062820D2DFE800F00321557148
:1057B00094A0072000F020FCB0F17E5F05DB04F030
:1057C000C1FEE06100F0D5F808E004F0BBFEE1693D
:1057D000401AB0F57A7F01D300F0C0F8FFF7FEF869
:1057E000032802D06068401C6060BDE8F08700F0CC
:1057F00009FC0546FFF7F2F8207503280BD000F0EE
:1058000091FC00F0BFFBE06004F09CFEA0606068CB
:10581000401C6060E9E7A5F17F50B0F5800F03D828
:1058200000F0A7F8A661E0E7B5F17F5F0DDA00F0C0
:10583000B6F843488542D8DAA069411CA1614228E4
:10584000D3D3A66104206060CFE7BD42CDDD00F078
:105850009BF8A661C9E704F075FEA168401AB0F58F
:10586000FA6F08D200F08EFBE168401AFAF78DFF5C
:1058700034498842B9DB02F023FEFEF797FF20612E
:1058800004F060FEA0606068401C6060ADE700F05E
:10589000B9FB0646FEF78AFF81462B492069FEF7D1
:1058A0006BFE4946FAF747FD03F0C6FFB8420DDD2F
:1058B0002648A6F17E56864297D8FEF777FF2169E3
:1058C000FAF739FD03F0B8FF40458EDB00F051F8E0
:1058D00065608AE7FEF76AFF206104F033FEA0608E
:1058E00002F0D7FB6068401C60607EE700F08AFB36
:1058F000074604F027FEA168401A40F6B8318842F6
:105900000ED3FEF753FF814611492069FEF734FE9E
:105910004946FAF710FD03F08FFF404500DC666052
:10592000FFF75CF8032804D10A4838440A49884242
:105930008AD8656059E70000FC0300200000204180
:10594000CDCC4C3EEA593A420000A0413333D3005B
:105950000000B443666666C09999B90010B50C2181
:10596000002003F015FA0C21BDE81040012003F0DF
:105970000FBA10B50621002003F00AFA0621BDE88F
:105980001040012003F004BA10B50521002003F0F7
:10599000FFF90621BDE81040012003F0F9B910B568
:1059A0000621002003F0F4F90521BDE81040012094
:1059B00003F0EEB9034901EBC001486800224A60D8
:1059C000704700001C040020014951F83000704766
:1059D0001C040020FFF73AF8002003F019FD012015
:1059E00003F016FD022003F013FD032003F010FD69
:1059F000042003F00DFD052003F00AFD1448FDF717
:105A000029FB1448FDF726FB1348FDF723FB134839
:105A1000FDF720FB1248FDF71DFB04F087FB01F0AA
:105A200069FA4FF0E020016921F0010101610221D2
:105A30000120FCF747FBBFF34F8F0A4801680A4A71
:105A400001F4E06111430160BFF34F8FFEE70000F6
:105A5000003801400044004000480040004C004035
:105A6000005000400CED00E00400FA052DE9F04183
:105A7000D9484178002919D00078002816D1D64C91
:105A8000D64D103CD64F21784FF0C0466FF0C7007E
:105A90000B290BD2DFE801F0060C467AA2D1FDFCFF
:105AA000FBFAF90003F0B2FA01202070BDE8F081A2
:105AB000FFF76CFE072000F09FFACA4E3146FAF756
:105AC00040FCC94F3946FAF736FCC84DA842EDD222
:105AD000072000F091FA3146FAF733FC3946FAF71D
