:020000040800F2
:10000000E0EF0020E90100080DC500089595000803
:1000100095C40008D92B0008210801080000000041
:100020000000000000000000000000004501000882
:100030002D760008000000008901000891FB0008EF
:10004000030200080302000803020008030200087C
:10005000030200080302000803020008030200086C
:1000600003020008117900080302000803020008D7
:10007000030200080302000803020008030200084C
:10008000030200080302000803020008030200083C
:10009000030200080302000803020008397900087F
:1000A000030200080302000803020008030200081C
:1000B00003020008E9FD000803020008030200082B
:1000C00003020008030200080302000803020008FC
:1000D0000302000803020008C9030108D503010850
:1000E000E578000803020008030200080302000884
:1000F00003020008030200080302000803020008CC
:10010000030200080302000885FE0008030200083D
:1001100003020008BD0301081DFF000803020008D8
:10012000030200080302000803020008030200089B
:10013000DFF80CD000F058FD00480047E9790108CD
:10014000E0EF0020204B19680868B0E8F00F80F35A
:100150000988BFF36F8F4FF0000080F311884EF0D5
:100160000D0E70470000000006480068006880F32C
:10017000088862B661B6BFF34F8FBFF36F8F00DFA1
:1001800000BF00BF08ED00E0EFF30980BFF36F8F01
:100190000D4B1A6820E9F00F106008B54FF0F00021
:1001A00080F3118819F06EFA4FF0000080F3118887
:1001B000BDE8084019680868B0E8F00F80F30988C6
:1001C000BFF36F8F704700BF2C020020EFF3118048
:1001D0004FF0F00181F31188704780F31188704768
:1001E000EFF3058070470000064880470648004747
:1001F000FEE7FEE7FEE7FEE7FEE7FEE7FEE7FEE7D7
:10020000FEE7FEE7B5FB00083101000840EA010304
:100210009B0703D009E008C9121F08C0042AFAD2BC
:1002200003E011F8013B00F8013B521EF9D2704780
:10023000D2B201E000F8012B491EFBD27047002228
:10024000F6E710B513460A4604461946FFF7F0FFD5
:10025000204610BDF0B480EA0102D40F4200B2EB98
:10026000410F02D20246084611464A0042D0C30D51
:10027000DDB2C1F3C752AD1A202D35DAC1F3160134
:1002800041F4000204B15242C5F1200602FA06F11F
:100290002A411044B3EBD05F23D0C4B1012DA0EBB1
:1002A000C35009DCF0BC4FF0004202EAC352DBB29B
:1002B00000F5000000F0A3BB400000F1807000EBEF
:1002C000C350A0F1807040EAD170490009E04908AC
:1002D00041EAC071A0EBC35000F50000400800EBFC
:1002E000C350F0BC00F082BB6142012202EB41012D
:1002F000001BF6E7F0BC704781F00041AAE780F0F0
:100300000040A7E780EA010210B502F00043400078
:1003100022D04A001FD0010E01EB1261C0F356003B
:10032000C2F3560240F4000042F40002A0FB022097
:1003300000047F39140400D0401C50EA124001D45C
:100340004000491EC2B20C0604EBD010401C40080D
:10035000802A02D003E0002010BD20F00100002917
:1003600000DA0020184310BD30B480EA010202F028
:10037000004530F0004221F0004013D090B1C30D91
:10038000D40DC2F31601C0F31600E41A41F40001C3
:1003900040F400027D34914201D3641C00E0490026
:1003A000002C02DA30BC002070474FF4000000231C
:1003B000914201D3891A034340084FEA4101F7D122
:1003C00051B1914202D14FF0004105E002D24FF00D
:1003D000010101E06FF0010103EBC450284430BC7F
:1003E00000F004BB420005D0C0F3C7525242914214
:1003F00001DC0020704700EBC15070472DE9FE4F33
:10040000804681EA0300C00F0C46009021F00041B5
:1004100023F00045B8EB0200A94105D24046214631
:1004200090461C460B46024623F00040104347D03E
:10043000270DC7F30A00C3F30A510290401A019036
:1004400040286BDAC3F3130040F4801B00989246F7
:1004500020B10023D2EB030A63EB0B0B0198594642
:10046000C0F14002504600F090FA06460D46504654
:100470005946019A00F0A8FA10EB080061410024E7
:1004800087EA115284EAE7731A4340D0009A62B3B4
:10049000019A012A4FEA075215DC001B61EB0201A9
:1004A0004FF0004202EA0752CDE90042001C41F53C
:1004B000801132462B4600F0DFFA03B0BDE8F08F22
:1004C00040462146F9E7001B61EB0201001C41F5A3
:1004D000801300185B412018A2F5001747EB0301B9
:1004E00040EAD570B6196D4111E06D084FEA360645
:1004F00045EAC0754FEA0752001B61EB0201001C80
:1005000041F5801149084FEA300000195141324647
:100510002B4603B0BDE8F04F00F09FBA00980122CF
:1005200040000023D0EB020263EBE0730098214609
:100530004FEAE074B8EB000061EB0401E9E783F0F7
:1005400000435BE781F0004158E72DE9FE4F81EA67
:10055000030404F0004421F0004100944FF0000B2C
:1005600023F0004350EA01045ED052EA03045BD05A
:10057000C3F30A54C1F30A552C44A4F2F334019492
:10058000A0FB0254C1F3130141F48011C3F3130320
:1005900043F4801301FB024400FB034E840A970AD4
:1005A00044EA815447EA8357A4FB076802958D0A01
:1005B00005FB07854FEA932C04FB0C542705029D8D
:1005C0004FEA065847EA1637B5EB08056EEB070CFD
:1005D000870E920E47EA811742EA8312A7FB0201B7
:1005E000B6EB0B0164EB00042B0D43EA0C335E18F1
:1005F00044EB1C50DA465146E7FB0201C5F31304F5
:100600004FEA0B3343EA14534FEA0432019C43EAA6
:100610000603A4F10C040294009CCDE900B400F0A0
:100620002BFA03B0BDE8F08F00200146F9E72DE971
:10063000F04D81EA030404F0004B21F0004514461C
:100640004FF0000A23F0004150EA050220D054EA9E
:1006500001021DD0C5F30A570246C5F31303C1F3C7
:100660001300C1F30A5640F4801543F48013A7EB3E
:100670000608101BD64608F2FD3873EB050002D3BE
:1006800008F1010801E092185B41B8F1000F03DAAC
:1006900000200146BDE8F08D00204FF48011064691
:1006A00084460EE0171B73EB050705D3121B63EBA3
:1006B000050306434CEA010C49084FEA3000921842
:1006C0005B4150EA0107EDD152EA030012D082EA01
:1006D000040083EA0501084305D0101BAB4106D294
:1006E0000122002306E000224FF0004302E06FF0F9
:1006F000010253101AEB06004CEB085110EB0A00F4
:1007000041EB0B01BDE8F04D00F0A7B970B521F049
:10071000004303430CD0C1F30A550024D5EB040574
:1007200064EB0403D617AD1AB34102DB0020014687
:1007300070BD201841EB025170BDC10F80EAE0701E
:100740000844CA079623002100F059B996230022D5
:10075000114600F054B90EB5C10F80EAE0700844AC
:10076000CA07002140F233438DE80E000A460B46CB
:1007700000F082F903B000BD0EB540F233410291A2
:100780000021CDE900110A460B4600F075F903B0CF
:1007900000BD00F0004220F00040C10DC0F3160083
:1007A00040F400007F2901DA00207047962903DC1D
:1007B000C1F19601C84001E096398840002AF4D082
:1007C0004042704720F00040C10DC0F3160040F4D5
:1007D00000007F2901DA00207047962903DCC1F16F
:1007E0009601C840704796398840704770B5C1F38C
:1007F0000A5201F000450024C1F3130140F2FF3317
:1008000041F480119A4201DA002070BD40F2334376
:100810009A42A2F2334203DC524200F0C5F800E0F3
:1008200090402C43F1D0404270BD00F0004230F0C7
:1008300000400AD0C10D01F56071C0F3160042EA14
:100840000151C2084007114370470020014670471C
:1008500030B5041E71F1000404DB4FF00044404247
:1008600064EB0101141E73F1000405DB1C464FF01C
:100870000043524263EB04038B4208BF824230BD07
:1008800030B5041E71F1000404DB4FF00044404217
:1008900064EB0101141E73F1000405DB1C464FF0EC
:1008A0000043524263EB0403994208BF904230BDBB
:1008B00001F0004330B421F0004150EA010206D0BB
:1008C0000A0DA2F56072C1F31301002A02DC30BCEC
:1008D00000207047440F44EAC104C100E01830BC56
:1008E00000EBC25000F082B8002801DBC0F10040EC
:1008F000002901DBC1F100418142704730B50B4650
:10090000014600202022012409E021FA02F59D423F
:1009100005D303FA02F5491B04FA02F52844151E13
:10092000A2F10102F1DC30BD2DE9F05F05460020A7
:1009300092469B4688460646814640241BE0284650
:1009400041464746224600F02FF853465A46C01A01
:10095000914110D311461846224600F016F82D1A80
:1009600067EB01084F4622460120002100F00DF8F8
:1009700017EB00094E41201EA4F10104DFDC4846BC
:1009800031462A464346BDE8F09F202A04DB203A40
:1009900000FA02F1002070479140C2F1200320FAD2
:1009A00003F3194390407047202A04DB203A21FAD0
:1009B00002F00021704721FA02F3D040C2F1200278
:1009C0009140084319467047202A06DBCB17203A8E
:1009D00041FA02F043EAE07306E041FA02F3D04044
:1009E000C2F1200291400843194670470029A8BF70
:1009F0007047401C490008BF20F00100704710B448
:100A0000B0FA80FC00FA0CF050EA010404BF10BCFC
:100A1000704749B1CCF1200421FA04F411FA0CF129
:100A200018BF012121430843A3EB0C01CB1D4FEA62
:100A300000614FEA102042BF002010BC704700EB5D
:100A4000C35010440029A4BF10BC7047401C49008B
:100A500008BF20F0010010BC704710B5141E73F1E0
:100A6000000408DA401C41F1000192185B411A436E
:100A700001D120F0010010BD2DE9F04D92469B46BA
:100A800011B1B1FA81F202E0B0FA80F22032904660
:100A9000FFF77BFF04460F4640EA0A0041EA0B01DC
:100AA00053465A46084313D0114653EA010019D061
:100AB000C8F140025046FFF777FF05460E46504604
:100AC00059464246FFF761FF084305D0012004E084
:100AD00020463946BDE8F08D0020054346EAE07621
:100AE0002C4337430A986305E40AA0EB0800002270
:100AF000FD0A44EA47540A3002D500200146E9E7DE
:100B0000010510196941DDE9084500196941BDE891
:100B1000F04DA2E72DE9F04D00231A461B1A8A4139
:100B200003DB00200146BDE8F08DC1F30A52C1F39A
:100B3000130141F480154FF0000BD10702D10018CA
:100B40006D41521E0027044640F2FF11384601EB6A
:100B5000620A3E468046024600204FF48011FFF7AD
:100B600023FFC2197141BB1846EB0100B4EB030C23
:100B700075EB000C04D3E41A65EB000517460E462E
:100B8000241908F101006D4180463428E3DDF9198C
:100B900046EB0600091BA84103D24FF0FF32134673
:100BA00001E0002213461BEB070046EB0A51BDE8AB
:100BB000F04DFFF752BFC1F30A52C1F3130140F2E7
:100BC000FF3341F480119A4202DA00200146704757
:100BD00040F233439A42A2F2334202DC5242FFF720
:100BE000E3BEFFF7D2BE0000064C074D06E0E0680A
:100BF00040F0010394E8070098471034AC42F6D364
:100C0000FFF79AFA60A0010880A0010870B58C185F
:100C100010F8015B15F0070301D110F8013B2A1110
:100C200006D110F8012B03E010F8016B01F8016BFD
:100C30005B1EF9D12B0705D40023521E0DD401F8F9
:100C4000013BFAE710F8013BCB1A921C03E013F8C2
:100C5000015B01F8015B521EF9D5A142D8D30020F7
:100C600070BD002904D0816841F0010181607047A6
:100C7000816821F0010181607047000010B51549BD
:100C800088420AD14415012120460BF0DFFC2046A2
:100C9000BDE8104000210BF0D9BC0F4988420AD1B1
:100CA0000415012120460BF0D1FC2046BDE8104080
:100CB00000210BF0CBBC094988420AD10121CC03A9
:100CC00020460BF0C3FC2046BDE8104000210BF08D
:100CD000BDBC10BD0024014000280140003C014083
:100CE000014600208968490700D501207047C06C83
:100CF00080B270470246002012680A4200D00120EC
:100D00007047014600208968090700D50120704717
:100D100010B542680E4B1A400C790B6842EA042267
:100D20001343436082680B4B1A40D1E902432343CB
:100D30004C7942EA440213438360C26A22F470028F
:100D4000097C491EC9B242EA0151C16210BD0000CE
:100D5000FFFEF0FFFDF7F1FF70B5072609290AD95C
:100D6000C568A1F10A0404EB4404A640B543A340BE
:100D70001D43C56007E0056901EB4104A640B5438A
:100D8000A3401D4305611F23072A09D2446B521E4D
:100D900002EB820293409C4391400C43446370BD3C
:100DA0000D2A09D2046BD21F02EB820293409C43AE
:100DB00091400C43046370BDC46A0D3A02EB820299
:100DC00093409C4391400C43C46270BD816841F0E4
:100DD000080181607047002904D0816841F4A001B6
:100DE00081607047816821F4A0018160704781684B
:100DF00041F00401816070472DE9F84F04468B46AD
:100E00000027A068642190FBF1F6DFF828A40025F4
:100E10005046BAF92AC00122017900F5807900F123
:100E20008008BCF1870F6FD018DCBCF1830F5BD05A
:100E30000ADCBCF1000F23D0BCF1810F7DD0FE4D48
:100E4000BCF1820F1FD11FE0BCF1840F76D0BCF142
:100E5000850F5DD0BCF1860FF4D1A7E0F748ACF167
:100E6000880C00780090F348407C431CDBB2BCF156
:100E7000070F08D2DFE80CF0FCFBD1FAF9F8F70015
:100E80008220AAF82A003CE32068FFF764FC16F0F1
:100E900074FE00222B46FFF7F3FC09D36068FFF7CE
:100EA0005AFC16F06AFE00222B46FFF7E9FC0CD232
:100EB0000020C9F80800C9F80C00C9F81000C9F8EA
:100EC00014008320AAF82A001BE30020C9F80800B8
:100ED000C9F80C000021C9F81010C9F81410022735
:100EE0008120AAF82A000CE3BBF1000F09D0BBF166
:100EF000010F0AD002208AF812008520AAF82A00E1
:100F0000FFE28AF81250F8E72CE18AF81220F4E7A1
:100F1000DFF82CB339B92068C8F828006068C8F831
:100F20002C008AF80420C7480021C9E90210C9F83A
:100F30001010C9F81410206801E0D4E2C4E2D8F817
:100F40002810081AFFF707FC16F017FE00225B4670
:100F5000FFF796FC0CD36068D8F82C10081AFFF73E
:100F6000FAFB16F00AFE00225B46FFF789FC8AD2E4
:100F70000021C9F80810C9F80C10C9F81010C9F8F8
:100F800014108AF80450C8F838609AF8120028B192
:100F9000012807D08820AAF82A00B2E28620AAF801
:100FA0002A00AEE28720AAF82A00AAE2D8F8380080
:100FB000801BFFF7D0FB16F0E0FD0022A24BFFF7ED
:100FC0005FFC0CD20021C9F80810C9F80C10C9F850
:100FD0001010C9F814108920AAF82A0091E2BBF178
:100FE000030F0CD195480078012808D00020C9F8DB
:100FF0000800C9F80C009549C9E9040181E2002103
:10100000C9F80810C9F80C100020C9F81000C9F878
:1010100014008A20AAF82A0073E239B92068C8F8B7
:1010200028006068C8F82C008AF804208548002150
:10103000C9E90210C9F81010C9F814102068D8F8CE
:101040002810081AFFF787FB16F097FD804E002244
:101050003346FFF715FC13D36068D8F82C10081A34
:10106000FFF779FB05E099E1D3E1B2E004E116E096
:101070005EE116F082FD00223346FFF701FC8CD2C0
:101080000021C9F80810C9F80C10C9F81010C9F8E7
:1010900014108AF804508620AAF82A0031E239B9DF
:1010A0002168C8F828106168C8F82C108AF8042054
:1010B000BBF1030F13D10099012910D00A281FD9C1
:1010C0000021C9F80810C9F80C10C9F81010C9F8A7
:1010D00014108AF804508420AAF82A0011E2002093
:1010E000C9F80800C9F80C00C9F81000C9F81400C4
:1010F0008AF804508AF811308520AAF82A0000E204
:101100002068D8F82810081AFFF725FB16F035FDDF
:10111000504E00223346FFF7B3FB0CD36068D8F87B
:101120002C10081AFFF717FB16F027FD0022334694
:10113000FFF7A6FB0DD20021C9F80810C9F80C1062
:10114000C9F81010C9F814108AF804508120AAF8C0
:101150002A0041480021C9E90210C9F81010C9F855
:101160001410CEE1D8F83800801BFFF7F4FA16F01F
:1011700004FD0022344BFFF783FB0DD20021C9F898
:101180000810C9F80C100020C9F81000C9F81400A4
:101190008B20AAF82A00B4E1BBF1030F0CD1274839
:1011A0000078012808D00021C9F80810C9F80C10EF
:1011B0002A48C9E90410A4E10021C9F80810C9F8B7
:1011C0000C10C9F81010C9F814108C20AAF82A00C5
:1011D00097E139B92068C8F828006068C8F82C0081
:1011E0008AF8042017480021C9E90210C9F8101034
:1011F000C9F814102068D8F82810081AFFF7ABFABD
:1012000016F0BBFC124E00223346FFF739FB0CD31D
:101210006068D8F82C10081AFFF79DFA16F0ADFC9C
:1012200000223346FFF72CFB9BD20021C9F808109F
:1012300016E00000880000200000694080000020C7
:101240000000344000C072C000003E4000004EC0AC
:10125000000024400000794000C0724000004E4071
:10126000C9F80C10C9F81010C9F814108AF8045005
:101270008720AAF82A0044E139B92168C8F8281063
:101280006168C8F82C108AF804209F490022C9E937
:1012900002210021C9F81010C9F81410BBF1030F86
:1012A0000FD1009901290CD00A2817D90021C9F8BB
:1012B0000810C9F80C108AF804508420AAF82A00F3
:1012C0001FE10021C9F80810C9F80C108AF8045071
:1012D0008AF811308520AAF82A0012E12068D8F88F
:1012E0002810081AFFF737FA16F047FC874E00223D
:1012F0003346FFF7C5FA0CD36068D8F82C10081AEB
:10130000FFF729FA16F039FC00223346FFF7B8FA46
:101310000DD20021C9F80810C9F80C10C9F8101036
:10132000C9F814108AF804508120AAF82A00E8E0CD
:10133000D8F83800801BFFF70EFA16F01EFC0022CA
:10134000734BFFF79DFA0CD20021C9F80810C9F8B9
:101350000C10C9F81010C9F814108D20AAF82A0032
:10136000CFE0BBF1030F0CD16A480078012808D008
:101370000021C9F80810C9F80C106748C9E9041021
:10138000BFE00021C9F80810C9F80C10C9F8101006
:10139000C9F814108E20AAF82A00B2E039B92068E2
:1013A000C8F828006068C8F82C008AF804205B4858
:1013B0000021C9E90210C9F81010C9F814102068FA
:1013C000D8F82810081AFFF7C6F916F0D6FB544EC5
:1013D00000223346FFF754FA0CD36068D8F82C107B
:1013E000081AFFF7B8F916F0C8FB00223346FFF7DA
:1013F00047FA0DD20021C9F80810C9F80C10C9F835
:101400001010C9F814108AF804508820AAF82A008D
:1014100077E039B92168C8F828106168C8F82C103D
:101420008AF8042038490022C9E90221C9F81020AD
:10143000C9F81420BBF1030F0FD1009901290CD07A
:10144000052817D90021C9F80810C9F80C108AF826
:1014500004508420AAF82A0053E00021C9F808109B
:10146000C9F80C108AF804508AF811308520AAF8BF
:101470002A0046E02068D8F82810081AFFF76BF910
:1014800016F07BFB214E00223346FFF7F9F90CD30F
:101490006068D8F82C10081AFFF75DF916F06DFB9C
:1014A00000223346FFF7ECF92BD20021C9F80810CF
:1014B000C9F80C10C9F81010C9F814108AF80450B3
:1014C0008120AAF82A001CE00021C9F80810C9F8F8
:1014D0000C10C9F81010C9F81410AAF82A508AF88C
:1014E000115001270DE00021C9F80810C9F80C10AF
:1014F000C9F81010C9F81410AAF82A508AF8115027
:1015000001273846BDE8F88F00C0724000007940DE
:10151000008046408000002000004E4000C072C0A5
:10152000000024402DE9F05F81460F464FF000088F
:10153000D9F80800642190FBF1FAF94CF94801212F
:10154000B4F9262003782046DFF8DCB3007904F5EF
:10155000807504F180065B2A78D031DC4FF0450CB1
:101560004F2A74D021DCF14F492A71D00FDCDFF80B
:10157000C0B34FF07807412A6ED003DC22B3402A73
:1015800043D143E0452A74D0482AF9D1DAE04A3AF7
:10159000E84DDFF8A493E94F052A36D2DFE812F0D0
:1015A000F102C603AA0479056606503A0B2AF4D262
:1015B000DFE802F0FCF5F4F3F2F1F0EFEEEDEC0011
:1015C0005D3A1C2AE9D200E01DE0DFE812F02703B3
:1015D0007C03E8033E041E000B046104B8040D05FF
:1015E0001E00DB0430058805F1051E00B2051D064E
:1015F0007806CD061E009B06F2064A07A1071E00CC
:101600006F07C40707084020E084FDE2D9F8000016
:10161000FFF7A1F816F0B1FA00225B46FFF730F9A8
:101620000AD3D9F80400FFF796F816F0A6FA0022BC
:101630005B46FFF725F90DD24120E084C049002028
:10164000C5E90201002129616961DEE718E3FBE3D6
:1016500099E101E0E784D8E7207B58B1B849002040
:10166000C5E90201002129616961A073A4F826C0BF
:10167000CBE70DE0A07B401CC0B2A0730A2802D9C2
:101680004FF0040801E04FF003080020E084BCE7BD
:10169000D9F80000FFF75FF816F06FFA00225B46FA
:1016A000FFF7D6F80AD2D9F80400FFF754F816F07D
:1016B00064FA00225B46FFF7CBF803D3617B207B03
:1016C000814201D3E784A0E72D2807D90020E084D8
:1016D0004FF0020860732073A07396E79948405C4E
:1016E000612817D0622818D0632819D064281AD02E
:1016F00065281BD066281CD067281DD068281ED0FE
:10170000E7848F480022C5E902202A616A61491CEA
:1017100061737AE74820E084F3E74920E084F0E74A
:101720004A20E084EDE74B20E084EAE74C20E084A7
:10173000E7E74D20E084E4E74E20E084E1E74F2036
:10174000E084DEE75046FFF706F80F46054616F040
:1017500014FA00227C4BFFF77BF803D9AAF12E0084
:10176000542802D25020E0844FE72846394616F02C
:1017700004FA0022754BFFF783F804D30AF18C0AB0
:10178000BAF15F0F0DD25120E0843EE722E2A4E1DE
:1017900049E1D4E17AE11CE182E02AE0B3E05AE0D9
:1017A00004E0F06EB0675220E0842EE7AAF1850ACB
:1017B000BAF1050F0AD262480021C5E90210296179
:1017C0006961F06EB0675220E0841EE7032F08D1F4
:1017D000012B06D00021A960E9605D48C5E904102D
:1017E00013E70021A960E960296169615320E08461
:1017F0000BE730B9D9F80000B062D9F80400F06204
:10180000217154480021C5E9021029616961D9F8A4
:101810000000B16A081AFEF79EFF16F0AEF900222A
:101820005B46FFF72DF80CD3D9F80400F16A081ACB
:10183000FEF791FF16F0A1F900225B46FFF720F8B2
:1018400092D20021A960E9602961696100202071BC
:101850005020E084D9E6AAF1850ABAF1050F0BD22F
:1018600037480021C5E90210002028616861F06E48
:10187000B0675220E084C8E6032F09D1012B07D0BE
:101880000020A860E86034480021C5E90410BCE6E7
:101890000020A860E860286168615420E084B4E614
:1018A00030B9D9F80000B062D9F80400F0622171B3
:1018B00028490020C5E90201002129616961D9F8A0
:1018C0000000B16A081AFEF746FF16F056F900222A
:1018D0005B46FEF7D5FF0CD3D9F80400F16A081A6D
:1018E000FEF739FF16F049F900225B46FEF7C8FF04
:1018F000B0D20021A960E9602961696100202071EE
:101900005120E08481E6032F28D1012B26D0B16F2E
:10191000F06E401AB0F5846F2DDBA4F826C074E693
:1019200088000020800000200000244000E0654086
:101930000000694000E060400000444000001440A6
:1019400000C07240716E00200080464000806140FF
:1019500000004E4000C072C000004EC00021A960CF
:10196000E960002028616861E0844FF0020860733C
:101970002073A07349E6FD490020C5E9020100215A
:101980002961696141E65046FEF7E5FE8946054654
:1019900016F0F3F800223B46FEF75AFF05D2BAF1E3
:1019A000000F02DB5520E0842FE62846494616F05A
:1019B000E4F800223B46FEF74BFF05D2BAF1000FD8
:1019C00002DA5620E08420E6F06EB0675720E0840B
:1019D0001BE65046FEF7BFFE16F0CFF80022E44BA0
:1019E000FEF74EFF0AD2E1480021C5E90210296145
:1019F0006961F06EB0675720E08406E6032F0AD1D4
:101A0000DC480078012806D00021A960E960DA48A6
:101A1000C5E90410F9E50021A960E960296169615F
:101A20005820E084F1E530B9D9F80000B062D9F867
:101A30000400F0622171D1490020C5E902010021B2
:101A400029616961D9F80000B16A081AFEF783FEBE
:101A500016F093F800225B46FEF712FF0CD3D9F87C
:101A60000400F16A081AFEF776FE16F086F80022E6
:101A70005B46FEF705FF85D20020A860E8600021E4
:101A80002961696120715520E084BEE55046FEF76A
:101A900062FE16F072F80022B54BFEF7F1FE0BD293
:101AA000B2490020C5E90201002129616961F06E97
:101AB000B0675720E084A8E5032F07D00020A86076
:101AC000E860286168615920E0849EE50021A960F2
:101AD000E960AB48C5E9041097E530B9D9F80000D2
:101AE000B062D9F80400F0622171A4480021C5E970
:101AF000021029616961D9F80000B16A081AFEF77D
:101B00002AFE16F03AF800225B46FEF7B9FE0CD327
:101B1000D9F80400F16A081AFEF71DFE16F02DF838
:101B200000225B46FEF7ACFEAFD20021A960E9605F
:101B300029616961002020715620E08465E5032F4A
:101B40000BD1012B09D0B16FF06E401A40F2F62193
:101B500088420FDDA4F826C057E50021A960E9609E
:101B6000296169610020E0844FF0020860732073EE
:101B7000A0734AE57D490020C5E90201286168613A
:101B800043E55046FEF7E7FD0F46054615F0F5FF25
:101B900000227C4BFEF774FE03D3AAF12E005E28D0
:101BA00002D85A20E08430E52846394615F0E5FF92
:101BB0000022754BFEF74CFE04D90AF1810ABAF1F6
:101BC000540F02D25B20E0841FE5F06EB067522014
:101BD000E0841AE50AF1890ABAF1050F0AD26348CE
:101BE0000021C5E9021029616961F06EB0675220D9
:101BF000E0840AE5032F08D1012B06D00021A9605B
:101C0000E9605D48C5E9041009E20021A960E960C6
:101C10000020286168615D20E08400E230B9D9F8D5
:101C20000000B062D9F80400F0622171534800212D
:101C3000C5E9021029616961D9F80000B16A081A82
:101C4000FEF789FD15F099FF00225B46FEF718FEAE
:101C50000CD3D9F80400F16A081AFEF77CFD15F0E0
:101C60008CFF00225B46FEF70BFE89D20020A860A5
:101C7000E86000212961696120715A20E084CEE189
:101C80000AF1890ABAF1050F0AD238480021C5E9DC
:101C9000021029616961F06EB0675220E084BEE1F4
:101CA000032F08D1012B06D00021A960E960344838
:101CB000C5E90410B3E10021A960E9602961696107
:101CC0005E20E084ABE130B9D9F80000B062D9F809
:101CD0000400F062217129490020C5E902010021B8
:101CE00029616961D9F80000B16A081AFEF733FD6D
:101CF00015F043FF00225B46FEF7C2FD0CD3D9F876
:101D00000400F16A081AFEF726FD15F036FF0022DE
:101D10005B46FEF7B5FDB2D20021A960E9602961FA
:101D20006961002020715B20E08478E15046FEF775
:101D300012FD0F46054615F020FF0022134BFEF75B
:101D40009FFD02D25F20E08469E12846394615F004
:101D500014FF00220E4BFEF77BFD04D3AAF1550AB7
:101D6000BAF10A0F16D86020E08458E100C0724032
:101D7000002066408000002000004E4000C072C07D
:101D800000004EC0008061400080464000C05740C7
:101D900000405540F06EB0675720E0843FE10AF103
:101DA000890ABAF1050F0AD2FB480021C5E90210E1
:101DB00029616961F06EB0675720E0842FE1032F3D
:101DC00008D1012B06D00021A960E960F348C5E9DC
:101DD000041024E10021A960E960296169616220A1
:101DE000E0841CE130B9D9F80000B062D9F80400F1
:101DF000F0622171EA480021C5E902102961696198
:101E0000D9F80000B16A081AFEF7A5FC15F0B5FE76
:101E100000225B46FEF734FD0CD3D9F80400F16ACA
:101E2000081AFEF798FC15F0A8FE00225B46FEF7A4
:101E300027FD89D20021A960E9600020286168613E
:101E400020715F20E084D5E3E6E20AF1890ABAF165
:101E5000050F0AD2D0480021C5E902102961696145
:101E6000F06EB0675720E084C4E3032F08D1012B44
:101E700006D00021A960E960CA48C5E90410B9E3A9
:101E80000021A960E960296169616320E084B1E310
:101E900030B9D9F80000B062D9F80400F0622171BD
:101EA000BF480021C5E9021029616961D9F8000025
:101EB000B16A081AFEF74FFC15F05FFE00225B4680
:101EC000FEF7DEFC0CD3D9F80400F16A081AFEF71D
:101ED00042FC15F052FE00225B46FEF7D1FCB2D266
:101EE0000021A960E96000202861686120716020FC
:101EF000E0847FE35046FEF72EFC8B46074615F044
:101F00003CFE00222B46FEF7BBFC10D93846594652
:101F100015F033FE00224B46FEF79AFC04D3AAF1DB
:101F2000280ABAF15F0F05D26520E08462E36420DD
:101F3000E0845FE3F06EB0675220E0845AE30AF178
:101F40002F0ABAF1050F0AD293480021C5E9021001
:101F500029616961F06EB0675220E0844AE3032F83
:101F600008D1012B06D00021A960E9608B48C5E9A2
:101F700004103FE30021A960E960296169616720DD
:101F8000E08437E330B9D9F80000B062D9F8040032
:101F9000F062217182480021C5E90210296169615E
:101FA000D9F80000B16A081AFEF7D5FB15F0E5FD77
:101FB00000225B46FEF764FC0CD3D9F80400F16AFA
:101FC000081AFEF7C8FB15F0D8FD00225B46FEF7A5
:101FD00057FC8ED20021A960E96000202861686169
:101FE00020716420E08405E30AF12F0ABAF1050F9D
:101FF0000BD269480021C5E9021000202861686100
:10200000F06EB0675220E084F4E2032F08D0002184
:10201000A960E9600020286168616820E084E9E245
:102020000021A960E9605F48C5E90410E2E230B927
:10203000D9F80000B062D9F80400F0622171584864
:102040000021C5E9021029616961D9F80000B16A6F
:10205000081AFEF780FB15F090FD00225B46FEF7A4
:102060000FFC0CD3D9F80400F16A081AFEF773FBD1
:1020700015F083FD00225B46FEF702FCB3D200217F
:10208000A960E96029616961002020716520E08410
:10209000B0E25046FEF75FFB8946054615F06DFD40
:1020A00000223B46FEF7ECFB05D2BAF1000F02DA44
:1020B0006920E0849EE22846494615F05EFD002234
:1020C0003B46FEF7DDFB05D2BAF1000F02DD6A20C8
:1020D000E0848FE2F06EB0675720E0848AE25046D9
:1020E000FEF739FB15F049FD00222F4BFEF7B0FB40
:1020F0000AD229480021C5E9021029616961F06E00
:10210000B0675720E08475E2032F0AD12748007892
:10211000012806D00021A960E9602048C5E9041023
:1021200068E20021A960E960296169616C20E084AE
:1021300060E230B9D9F80000B062D9F80400F0626A
:10214000217117480021C5E9021029616961D9F898
:102150000000B16A081AFEF7FEFA15F00EFD002223
:102160005B46FEF78DFB0CD3D9F80400F16A081A20
:10217000FEF7F1FA15F001FD00225B46FEF780FB49
:1021800086D20021A960E96029616961002020717F
:102190006920E0842EE2000000C0724000004E4042
:1021A00000C072C000004EC0000008408000002047
:1021B0005046FEF7D0FA15F0E0FC0022FE4BFEF789
:1021C00047FB0BD2FD490020C5E90201002129612E
:1021D0006961F06EB0675720E0840BE2032F0AD1EB
:1021E000F7480078012806D00021A960E960F54889
:1021F000C5E90410FEE10020A860E8600021296123
:1022000069616D20E084F5E130B9D9F80000B06271
:10221000D9F80400F0622171EB480021C5E90210F1
:1022200029616961D9F80000B16A081AFEF793FACA
:1022300015F0A3FC00225B46FEF722FB0CD3D9F875
:102240000400F16A081AFEF786FA15F096FC0022DF
:102250005B46FEF715FB9DD20021A960E96029616C
:102260006961002020716A20E084C3E15046FEF7D6
:1022700072FA8B46074615F080FC00224B46FEF7AB
:10228000E7FA03D90AF186005E2802D26E20E084C4
:10229000B0E13846594615F070FC00222B46FEF797
:1022A000EFFA04D9AAF1330ABAF1540F02D26F201F
:1022B000E0849FE1F06EB0675220E0849AE1AAF1D9
:1022C0002B0ABAF1050F0AD2BC480021C5E9021059
:1022D00029616961F06EB0675220E0848AE1032FC2
:1022E00008D1012B06D00021A960E960B748C5E9F3
:1022F00004107FE10021A960E96029616961712012
:10230000E08477E130B9D9F80000B062D9F8040070
:10231000F0622171AC480021C5E9021029616961B0
:10232000D9F80000B16A081AFEF715FA15F025FC75
:1023300000225B46FEF7A4FA0CD3D9F80400F16A38
:10234000081AFEF708FA15F018FC00225B46FEF7A3
:1023500097FA08D20021A960E9602961696100202B
:1023600020716E20E08445E1AAF12B0ABAF1050F35
:102370000BD292490020C5E902010021296169615F
:10238000F06EB0675220E08434E1032F08D1012BB6
:1023900006D00021A960E9608A48C5E9041029E156
:1023A0000021A960E9600020286168617220E08452
:1023B00020E130B9D9F80000B062D9F80400F06229
:1023C000217181490020C5E902010021296169616B
:1023D000D9F80000B16A081AFEF7BDF915F0CDFB77
:1023E00000225B46FEF74CFA0CD3D9F80400F16AE0
:1023F000081AFEF7B0F915F0C0FB00225B46FEF7A5
:102400003FFA08D20021A960E960296169610020D2
:1024100020716F20E084EDE05046FEF79CF90F46F6
:10242000054615F0AAFB0022694BFEF711FA02D20D
:102430007320E084DEE02846394615F09EFB00223A
:10244000644BFEF71DFA04D30AF15F0ABAF10A0FD2
:1024500002D87420E084CDE0F06EB0675720E084AD
:10246000C8E0AAF1580ABAF1050F0AD25348002170
:10247000C5E9021029616961F06EB0675720E084F8
:10248000B8E0032F09D1012B07D00021A960E96032
:102490004E490020C5E90401ACE00020A860E860D6
:1024A0000021296169617620E084A3E030B9D9F880
:1024B0000000B062D9F80400F062217142480021A6
:1024C000C5E9021029616961D9F80000B16A081AEA
:1024D000FEF741F915F051FB00225B46FEF7D0F9FB
:1024E0000CD3D9F80400F16A081AFEF734F915F094
:1024F00044FB00225B46FEF7C3F97BD20021A960B2
:10250000E96029616961002020717320E08471E035
:10251000AAF1580ABAF1050F0AD228480021C5E9E4
:10252000021029616961F06EB0675720E08461E0B4
:10253000032F08D1012B06D00021A960E9602148B2
:10254000C5E9041056E00021A960E96029616961CC
:102550007720E0844EE030B9D9F80000B062D9F8B5
:102560000400F062217118480021C5E902102961B8
:102570006961D9F80000B16A081AFEF7ECF815F0A5
:10258000FCFA00225B46FEF77BF90CD3D9F8040075
:10259000F16A081AFEF7DFF815F0EFFA00225B4641
:1025A000FEF76EF926D20021A960E9602961696110
:1025B0000020207174200FE00000084000C072402D
:1025C0008000002000004EC000C072C000004E40DD
:1025D0000040554000C05740E0840BE00021A96056
:1025E000E960296169614FF0010800206073207380
:1025F000A073E0844046BDE8F09F00002DE9F05F45
:1026000004460E464FF00008A568DFF8E4A1002755
:102610005146BAF928000A7980310123DFF8D4B194
:1026200001F1800943283CD003DC38B142280AD1AB
:102630000AE044286DD04728F9D19FE0086F486729
:102640004220AAF82800CFE0032E1DD16A48007866
:10265000012819D0D1E91C01401AFEF77CF815F0C9
:102660008CFA0022654BFEF70BF911D20020C9F855
:102670000800C9F80C00C9F81000C9F81400AAF83D
:1026800028704FF00108AFE04320AAF82800ABE023
:102690005B480021C9E90210C9F81010C9F81410EC
:1026A000A2E02AB9206888626068C8628AF80430AB
:1026B00054480022C9E90220C9F81020C9F81420A2
:1026C0000E462068896A081AFEF745F815F055FA93
:1026D00000225B46FEF7D4F80BD36068F16A081A53
:1026E000FEF739F815F049FA00225B46FEF7C8F804
:1026F0007AD20021C9F80810C9F80C10C9F81010D6
:10270000C9F814108AF80470B5634420AAF82800A8
:102710006AE0886B0C46401BFEF71DF815F02DFA99
:102720000022394BFEF7ACF80FD20020C9F80800A0
:10273000C9F80C000021C9F81010C9F81410206F56
:1027400060674220AAF828004EE0032E0DD000203A
:10275000C9F80800C9F80C000021C9F81010C9F820
:1027600014104720AAF828003EE00021C9F80810FC
:10277000C9F80C102548C9E9041035E02AB92068C9
:1027800088626068C8628AF804301E480022C9E97D
:102790000220C9F81020C9F814200E462068896A62
:1027A000081AFDF7D8FF15F0E8F900225B46FEF79E
:1027B00067F80BD36068F16A081AFDF7CCFF15F0D3
:1027C000DCF900225B46FEF75BF80DD20021C9F868
:1027D0000810C9F80C10C9F81010C9F814108AF8BC
:1027E00004704420AAF828004046BDE8F09F00008D
:1027F00088000020000034408000002000F08D4060
:1028000000C0724000C072C000003E4000004E4058
:102810002DE9F04F8DB000210B9101260A9109910D
:10282000089107910023026841F2883154184FF44F
:10283000C87294FBF2F40FFA84F94068084490FBE4
:10284000F2F00FFA80FB91FBF2F000B2029091FBE4
:10285000F2F000B201900024DFF89CE2002C02DDCF
:102860004FF0010801E04FF000080021DFF88CC2B2
:10287000002001EBC10202EB01120CEB82052A18C9
:10288000977DFA2F08D0927D32B1401C00B26428A7
:10289000F5DB23B1002306E00A910123F9E7491C87
:1028A00009B26429E4DB0A98A0EB040ABAF1030F29
:1028B00006DD4FEAEA700AEB90708010401E00E0DF
:1028C000002000B206906321002001EBC10202EB60
:1028D00001120CEB82073A18957DFA2D08D0927DF3
:1028E00032B1401C00B26428F5DB23B1002306E0BE
:1028F00009910123F9E7491E09B20029E4DA099890
:10290000001B602805DAC11700EB91708010401C95
:1029100000E0182000B205900021002000EBC0026A
:1029200002EB00120CEB82020A44957DFA2D08D0CE
:10293000927D32B1401C00B26428EFDB23B100234A
:1029400006E008910123F9E7491C09B26429E4DB98
:102950000898032806DD4FEAEA700AEB90708010B1
:10296000401E00E0002000B204906321002000EB34
:10297000C00202EB0015614A02EB85020A44957D14
:10298000FA2D08D0927D32B1401C00B26428EEDBF3
:1029900023B1002306E007910123F9E7491E09B29C
:1029A0000029E3DA07985F2801DD182005E0079881
:1029B000C11700EB91708010401C00B20390002101
:1029C000C8F119000C9075E00598814202D0069874
:1029D00081421BD1002001EBC102002502EB011254
:1029E00001277244494501D1584507D0DDF808C098
:1029F000614505D1DDF804C0604501D1155400E002
:102A00001754401C00B21928ECDB51E00020049A56
:102A1000904202D0039A904207D101EBC10505EB29
:102A20000115754401222A543EE000254FF0640A46
:102A3000002202EB8507274497FBFAFC0AFB1C7770
:102A400007EBC70C0CEB071C2C4F07EB8C0C02EBB5
:102A5000800797FBFAF80AFB18776744BF7D8FB1B0
:102A6000521C12B2042AE4DB1EB16D1C2DB2042DDF
:102A7000DEDB4EB101EBC10505EB0115754400220B
:102A80002A5411E00026EFE74C4501D158452BD0E0
:102A9000192C01D1192827D001EBC10505EB01152F
:102AA000754401222A540126401C00B21928AEDBCD
:102AB000491C09B20C98884286DC641C24B2042CA0
:102AC000FFF6CCAE01980BF0FF02C0B20090029866
:102AD00009F0FF01C3B2084814F010FE15F070FDB4
:102AE0000B980DB0BDE8F08F01EBC10505EB0115AA
:102AF000754400222A54D6E7006C0020380A0020D2
:102B000010B5012016F0D2FE0149486110BD000049
:102B1000000000207FB500241A48CDE901040121FE
:102B2000CA0200912346039417A11B4816F094FF94
:102B3000144802210C38CDE901040A020091002357
:102B4000039416A1194816F087FF0E480321083890
:102B5000CDE901044FF48065009100232A460394D7
:102B600013A1174816F078FF06480421001FCDE98D
:102B70000104009100232A46039412A1154816F07F
:102B80006BFF7FBD10000020765461736B4D617048
:102B900070696E67000000007194010876546173DB
:102BA0006B4465636973696F6E000000E993010807
:102BB000765461736B436F6E74726F6C000000002B
:102BC00079930108765461736B5065726365707414
:102BD000696F6E004995010810A41B4E4FF46165A2
:102BE000294630460DF06AFB294630460DF068FB59
:102BF000294630460DF066FB294630460DF064FB51
:102C00000020124B191F225C1A800A885206FCD53C
:102C1000401CC0B22928F6D3FEE700000D0A456E1D
:102C200074657220486172644661756C745F4861B6
:102C30006E646C65722C2053797374656D204861E5
:102C40006C742E0D0A000000002C0140044400406A
:102C50002DE9F84F04468B460026A068642190FBBE
:102C6000F1F00090DFF800A4002550460121007922
:102C7000FE4BDAF84C200AF180081B78FC4F08F173
:102C80008009B2F5377F7DD023DC40F2D62EA2F248
:102C9000D62C724577D014DC40F2D32EA2F2D32C7E
:102CA000724571D006DC02B31CF102024FD0012A3A
:102CB0004CD18EE0BCF1010F67D0BCF1020FF7D10F
:102CC00007E1BCF1060F41D2DFE80CF040F7F6F562
:102CD000F4F3A2F2DD220B2AF5D2DFE802F0F9F8D4
:102CE000F7F6F5F4F3F2F1F0EF0038B92068C8F820
:102CF00028006068C8F82C008AF80410DD4800211C
:102D0000C9E90210C9F81010C9F814102068D8F8E1
:102D10002810081AFDF71FFD14F02FFF00223B4674
:102D2000FDF7AEFD0CD36068D8F82C10081AFDF73B
:102D300012FD14F022FF00223B46FDF7A1FDC2D296
:102D400040F2D120CAF84C008AF80450B3E338B9F5
:102D50002068C8F828006068C8F82C008AF80410B9
:102D6000C4480021C9E90210C9F81010C9F81410AC
:102D70002068D8F82810081AFDF7EDFC14F0FDFEC5
:102D8000002203E0D4E1C9E034E056E03B46FDF721
:102D900077FDDBD20021C9F80810C9F80C10C9F87A
:102DA0001010C9F814100098FDF7D5FC14F0E5FEDA
:102DB0000022B14BFDF74CFD04D240F2D220CAF8FC
:102DC0004C0003E040F2DD20CAF84C008AF80450C1
:102DD00071E30021C9F80810C9F80C10C9F81010E7
:102DE000C9F814106068C8F8200040F2D320CAF86F
:102DF0004C0060E30021C9F80810C9F80C109F4886
:102E0000C9E9041000984B2808DDC9F81010C9F86A
:102E1000141040F2D520CAF84C004CE3BBF1030F6C
:102E200001D1012B92D10021C9F81010C9F814105A
:102E30004FF43570CAF84C003DE338B92068C8F843
:102E400028006068C8F82C008AF80410894800211E
:102E5000C9E90210C9F81010C9F814102068D8F890
:102E60002810081AFDF777FC14F087FE00223B4675
:102E7000FDF706FD0CD36068D8F82C10081AFDF792
:102E80006AFC14F07AFE00223B46FDF7F9FC9FD263
:102E90000021C9F80810C9F80C100020C9F810006A
:102EA000C9F814008AF8045040F2D320CAF84C0044
:102EB00001E302E1C2E0BDE089E04DE0F8E2ACE20E
:102EC0007FE27AE246E209E2DCE1B7E17AE144E15D
:102ED00032E16B480021C9E902100020C9F8100056
:102EE000C9F81400BBF1030F13D1012B11D0606896
:102EF000D8F82010081AFDF72EFC14F03EFE002230
:102F0000604BFDF7BDFC88D240F2D620CAF84C00D9
:102F1000D1E240F2D620CAF84C00CCE20021C9F838
:102F20000810C9F80C105548C9E904100098552834
:102F300008DDC9F81010C9F814104FF43670CAF83B
:102F40004C00B8E2BBF1030F01D1012BB0D140F22C
:102F5000D720CAF84C00AEE238B92068C8F828007B
:102F60006068C8F82C008AF8041042480021C9E9BA
:102F70000210C9F81010C9F814102068D8F82810E9
:102F8000081AFDF7E8FB14F0F8FD00223B46FDF7B8
:102F900077FC0CD36068D8F82C10081AFDF7DBFB1F
:102FA00014F0EBFD00223B46FDF76AFCB0D2002195
:102FB000C9F80810C9F80C10C9F81010C9F8141095
:102FC0008AF8045040F2D620CAF84C0073E22C482C
:102FD0000021C9E90210C9F81010C9F81410BBF19A
:102FE000030F1DD1012B1BD06068D8F82010081AE0
:102FF000FDF7B1FB14F0C1FD0022224BFDF740FCB0
:1030000086D20021C9F80810C9F80C100020C9F8B0
:103010001000C9F8140040F2DA20CAF84C004AE265
:103020000021C9F80810C9F80C1040F2D920CAF8DC
:103030004C0040E2CAF84C5002263CE20020C9F89D
:103040000800C9F80C000D49C9E904010098FDF712
:1030500082FB14F092FD00220B4BFDF711FC20D2F5
:103060000021C9F8081011E088000020800000202D
:103070000000244000C072C00080564000004E4056
:1030800000C072400000644000E06540C9F80C10C8
:10309000C9F81010C9F814104FF43770CAF84C0072
:1030A00009E2BBF1030F03D1F948007801288DD163
:1030B00040F2DB20CAF84C00FDE138B92068C8F8BE
:1030C00028006068C8F82C008AF80410F148002134
:1030D000C9E90210C9F81010C9F814102068D8F80E
:1030E0002810081AFDF737FB14F047FD00223B4675
:1030F000FDF7C6FB0CD36068D8F82C10081AFDF752
:103100002AFB14F03AFD00223B46FDF7B9FB86D2BC
:103110000021C9F80810C9F80C10C9F81010C9F836
:1031200014108AF8045040F2DA20CAF84C00C2E1C8
:10313000CAF84C500126BEE10021C9F80810C9F8B0
:103140000C10C9F81010C9F814106068C8F82000F5
:1031500040F2DE20CAF84C00ADE10021C9F80810A9
:10316000C9F80C10CC48C9E904100098FDF7F3FA2F
:1031700014F003FD0022C94BFDF76AFB0DD20021BC
:10318000C9F80810C9F80C10C9F81010C9F81410C3
:103190004FF43870CAF84C008DE1BBF1030F03D136
:1031A000BB480078012887D10021C9F80810C9F868
:1031B0000C10C9F81010C9F8141040F2DF20CAF83A
:1031C0004C0078E138B92068C8F828006068C8F871
:1031D0002C008AF80410AF480021C9E90210C9F890
:1031E0001010C9F814102068D8F82810081AFDF734
:1031F000B2FA14F0C2FC00223B46FDF741FB0CD3AF
:103200006068D8F82C10081AFDF7A5FA14F0B5FC80
:1032100000223B46FDF734FB89D20021C9F8081093
:10322000C9F80C100020C9F81000C9F814008AF879
:10323000045040F2DE20CAF84C003CE198480021DE
:10324000C9E90210C9F81010C9F81410BBF1030F36
:1032500013D1012B11D06068D8F82010081AFDF79F
:103260007AFA14F08AFC00228E4BFDF709FB93D208
:1032700040F2E120CAF84C001DE140F2E120CAF81A
:103280004C0018E10021C9F80810C9F80C10824858
:10329000C9E904100098FDF75EFA14F06EFC0022F4
:1032A000814BFDF7D5FA0DD20021C9F80810C9F8F5
:1032B0000C10C9F81010C9F8141040F2E320CAF835
:1032C0004C00F8E0BBF1030F03D1714800780128EE
:1032D00003D140F2E220CAF84C00ECE038B9206893
:1032E000C8F828006068C8F82C008AF804106948FB
:1032F0000021C9E90210C9F81010C9F8141020689B
:10330000D8F82810081AFDF726FA14F036FC002227
:103310003B46FDF7B5FA0CD36068D8F82C10081AB4
:10332000FDF719FA14F029FC00223B46FDF7A8FA34
:103330000FD20020C9F80800C9F80C000021C9F814
:103340001010C9F814108AF8045040F2E120CAF8AD
:103350004C00B0E052480021C9E90210C9F8101031
:10336000C9F81410BBF1030F1DD1012B1BD06068ED
:10337000D8F82010081AFDF7EEF914F0FEFB002231
:10338000484BFDF77DFA0DD20020C9F80800C9F8B6
:103390000C000021C9F81010C9F8141040F2E52003
:1033A000CAF84C0087E00021C9F80810C9F80C10D1
:1033B0004FF43970CAF84C007DE0CAF84C5003262F
:1033C00079E00021C9F80810C9F80C103248C9E9A1
:1033D00004100098FDF7BFF914F0CFFB0022334B27
:1033E000FDF736FA0DD20021C9F80810C9F80C1003
:1033F000C9F81010C9F8141040F2E720CAF84C00C0
:1034000059E0BBF1030F03D121480078012852D1C4
:1034100040F2E620CAF84C004DE038B92068C8F800
:1034200028006068C8F82C008AF8041019480021A8
:10343000C9E90210C9F81010C9F814102068D8F8AA
:103440002810081AFDF787F914F097FB00223B4675
:10345000FDF716FA0CD36068D8F82C10081AFDF79F
:103460007AF914F08AFB00223B46FDF709FA22D2D2
:103470000021C9F80810C9F80C10C9F81010C9F8D3
:1034800014108AF8045040F2E520CAF84C0012E00B
:103490008000002000C072C000004EC000405A40B2
:1034A00000C072400000644000C05740000014405B
:1034B000CAF84C5001263046BDE8F88F2DE9F84F88
:1034C00004468B460026A068642190FBF1F0009032
:1034D000DFF800A40025504601210079FE4BDAF800
:1034E0004C200AF180081B78FC4F08F18009B2F5E6
:1034F000B67F7CD021DCB2F5B37F79D014DC40F20A
:10350000631EA2F2631C724573D006DC0AB31CF181
:10351000020250D0012A4DD18FE0BCF1010F69D0D9
:10352000BCF1020FF7D109E1A2F26712052A41D2DC
:10353000DFE802F0F8F7F6F5F400A2F26D120B2ABC
:10354000F5D2DFE802F0FAF9F8F7F6F5F4F3F2F164
:10355000F00038B92068C8F828006068C8F82C0066
:103560008AF80410DE480021C9E90210C9F81010D9
:10357000C9F814102068D8F82810081AFDF7EBF8DD
:1035800014F0FBFA00223B46FDF77AF90CD3606891
:10359000D8F82C10081AFDF7DEF814F0EEFA002225
:1035A0003B46FDF76DF9C2D240F26110CAF84C00FB
:1035B0008AF80450B3E338B92068C8F82800606876
:1035C000C8F82C008AF80410C5480021C9E9021087
:1035D000C9F81010C9F814102068D8F82810081A73
:1035E000FDF7B9F814F0C9FA00223B4603E0D9E12F
:1035F000C9E033E056E0FDF743F9DBD20021C9F81A
:103600000810C9F80C10C9F81010C9F81410009867
:10361000FDF7A1F814F0B1FA0022B24BFDF718F94A
:1036200004D24FF4B170CAF84C0003E040F26D10C0
:10363000CAF84C008AF8045071E30021C9F8081058
:10364000C9F80C10C9F81010C9F814106068C8F84F
:10365000200040F26310CAF84C0060E30021C9F872
:103660000810C9F80C10A048C9E90410009810F11E
:103670004B0F08DAC9F81010C9F8141040F26510A1
:10368000CAF84C004BE3BBF1030F01D1012B91D1E0
:103690000021C9F81010C9F814104FF4B270CAF81C
:1036A0004C003CE338B92068C8F828006068C8F8C6
:1036B0002C008AF804108A490020C9E9020100217F
:1036C000C9F81010C9F814102068D8F82810081A82
:1036D000FDF741F814F051FA00223B46FDF7D0F80F
:1036E0000CD36068D8F82C10081AFDF734F814F0E1
:1036F00044FA00223B46FDF7C3F89DD20021C9F8E9
:103700000810C9F80C10C9F81010C9F814108AF87C
:10371000045040F26310CAF84C0000E307E1C6E031
:10372000C1E08DE050E0F7E2ABE27DE278E245E215
:1037300009E2E0E1BBE17FE149E137E16B480021CB
:10374000C9E902100020C9F81000C9F81400BBF143
:10375000030F13D1012B11D06068D8F82010081A7C
:10376000FCF7F9FF14F009FA0022614BFDF788F825
:1037700088D24FF4B370CAF84C00D0E24FF4B37063
:10378000CAF84C00CBE20021C9F80810C9F80C10A7
:1037900055490020C9E90401009810F1520F09DAD7
:1037A0000021C9F81010C9F814104FF4B470CAF809
:1037B0004C00B4E2BBF1030F01D1012BADD140F2BB
:1037C0006710CAF84C00AAE238B92068C8F8280087
:1037D0006068C8F82C008AF8041041480021C9E943
:1037E0000210C9F81010C9F814102068D8F8281071
:1037F000081AFCF7B0FF14F0C0F900223B46FDF7B1
:103800003FF80CD36068D8F82C10081AFCF7A3FF17
:1038100014F0B3F900223B46FDF732F8ADD2002098
:10382000C9F80800C9F80C000021C9F81010C9F83F
:1038300014108AF804504FF4B370CAF84C006EE2CA
:103840002A480021C9E90210C9F81010C9F814105B
:10385000BBF1030F1DD1012B1BD06068D8F82010DD
:10386000081AFCF778FF14F088F90022204BFDF7C6
:1038700007F887D20020C9F80800C9F80C00002119
:10388000C9F81010C9F814104FF4B570CAF84C00FC
:1038900045E20021C9F80810C9F80C1040F269107F
:1038A000CAF84C003BE2CAF84C50022637E200202E
:1038B000C9F80800C9F80C000B480021C9E9041038
:1038C0000098FCF748FF14F058F90022094BFCF768
:1038D000D7FF11E088000020800000200000244075
:1038E00000C072C00080564000004EC000C0724050
:1038F0000000644000A065400DD20021C9F8081006
:10390000C9F80C10C9F81010C9F814104FF4B670AB
:10391000CAF84C0003E2BBF1030F03D1F74800786B
:1039200001288CD140F26B10CAF84C00F7E138B98D
:103930002068C8F828006068C8F82C008AF80410CD
:10394000EF480021C9E90210C9F81010C9F8141095
:103950002068D8F82810081AFCF7FDFE14F00DF9BD
:1039600000223B46FCF78CFF0CD36068D8F82C1083
:10397000081AFCF7F0FE14F000F900223B46FCF7B1
:103980007FFF85D20021C9F80810C9F80C10C9F8CA
:103990001010C9F814108AF804504FF4B570CAF822
:1039A0004C00BCE1CAF84C500126B8E10021C9F82E
:1039B0000810C9F80C10C9F81010C9F81410606884
:1039C000C8F820004FF4B770CAF84C00A7E10021F6
:1039D000C9F80810C9F80C10CA48C9E904100098C1
:1039E000FCF7B9FE14F0C9F80022C74BFCF730FF12
:1039F0000DD20021C9F80810C9F80C10C9F8101030
:103A0000C9F814104FF4B870CAF84C0087E1BBF144
:103A1000030F03D1B9480078012887D10021C9F8E4
:103A20000810C9F80C10C9F81010C9F8141040F2A9
:103A30006F10CAF84C0072E138B92068C8F8280045
:103A40006068C8F82C008AF80410AD480021C9E964
:103A50000210C9F81010C9F814102068D8F82810FE
:103A6000081AFCF778FE14F088F800223B46FCF7B1
:103A700007FF0CD36068D8F82C10081AFCF76BFE0F
:103A800014F07BF800223B46FCF7FAFE89D20021B5
:103A9000C9F80810C9F80C10C9F81010C9F81410AA
:103AA0008AF804504FF4B770CAF84C0037E19748D1
:103AB0000021C9E90210C9F81010C9F81410BBF1AF
:103AC000030F13D1012B11D06068D8F82010081A09
:103AD000FCF741FE14F051F800228D4BFCF7D0FEAC
:103AE00003D240F27110CAF84C0018E140F2711094
:103AF000CAF84C0013E10021C9F80810C9F80C10ED
:103B00008048C9E904100098FCF725FE14F035F848
:103B10000022804BFCF79CFE0DD20021C9F8081052
:103B2000C9F80C10C9F81010C9F8141040F273103D
:103B3000CAF84C00F3E0BBF1030F03D04FF4B970A7
:103B4000CAF84C00EBE038B92068C8F82800606873
:103B5000C8F82C008AF8041069480021C9E902104D
:103B6000C9F81010C9F814102068D8F82810081ADD
:103B7000FCF7F1FD14F001F800223B46FCF780FE53
:103B80000CD36068D8F82C10081AFCF7E4FD13F089
:103B9000F4FF00223B46FCF773FE0ED20021C9F869
:103BA0000810C9F80C10C9F81010C9F814108AF8D8
:103BB000045040F27110CAF84C00B0E053480021A4
:103BC000C9E90210C9F81010C9F81410BBF1030FAD
:103BD0001CD1012B1AD06068D8F82010081AFCF705
:103BE000BAFD13F0CAFF0022494BFCF749FE0CD284
:103BF0000021C9F80810C9F80C10C9F81010C9F84C
:103C0000141040F27510CAF84C0088E00021C9F881
:103C10000810C9F80C104FF4BA70CAF84C007EE0D6
:103C2000CAF84C5003267AE00021C9F80810C9F8F8
:103C30000C103448C9E904100098FCF78CFD13F00F
:103C40009CFF00223B46FCF703FE0ED20021C9F880
:103C50000810C9F80C100020C9F81000C9F81400A9
:103C60004FF4B670CAF84C0059E0BBF1030F03D112
:103C700022480078012852D14FF4BB70CAF84C009A
:103C80004DE038B92068C8F828006068C8F82C00F2
:103C90008AF804101A480021C9E902100020C9F866
:103CA0001000C9F814002068D8F82810081AFCF78A
:103CB00052FD13F062FF00223B46FCF7E1FD0CD3FE
:103CC0006068D8F82C10081AFCF745FD13F055FF72
:103CD00000223B46FCF7D4FD21D20021C9F8081090
:103CE000C9F80C10C9F81010C9F814108AF804505B
:103CF00040F27510CAF84C0011E00000800000206E
:103D000000C072C000004E4000405A4000C07240E7
:103D10000000644000405740CAF84C50022630462C
:103D2000BDE8F88F2DE9F84F04468A460020009040
:103D3000A068642190FBF1F9F74DF8492846AA6C78
:103D400040F2A62C00790978DFF8D4B3A2F2A623BA
:103D50004FF0010805F1800705F5807662457DD0BA
:103D600036DC40F29A2CA2F29A23624577D01FDC0F
:103D700040F2952CA2F29523624571D00FDC40F2FF
:103D80009223A2F292219A426BD003DC1AB34A1C0E
:103D900063D167E001297DD00229F9D1DAE0012B56
:103DA00079D0022B78D0032B77D0042BF0D1ECE321
:103DB0000C2B52D2DFE813F051006704A404510029
:103DC0005100E4043B05DE020303CD0136032F025C
:103DD000142BEED200E015E0DFE813F03F00740290
:103DE0009A022E05290152018201390553058305E6
:103DF000AE05CA05100637063C0664069406920313
:103E0000F703F90428B92068B8626068F86285F899
:103E10000480C4480021C6E90210002030617061AE
:103E20002068B96A081AFCF796FC13F0A6FE002277
:103E30005B46FCF725FD0BD36068F96A081AFCF7AE
:103E40008AFC13F09AFE00225B46FCF719FDB0D203
:103E500040F29120A8640020287100E200E2E4E32F
:103E6000A9E044E028B92068B8626068F86285F883
:103E70000480AC480021C6E90210316171612068FC
:103E8000B96A081AFCF767FC13F077FE0022DFF826
:103E9000988203E034E098E0C8E207E34346FCF789
:103EA000EFFC0BD36068F96A081AFCF754FC13F0B6
:103EB00064FE00224346FCF7E3FCCED20021B16051
:103EC000F160316171614846FCF745FC13F055FE25
:103ED0000022964BFCF7D4FC03D240F29220A86457
:103EE00002E040F2A920A86400202871B5E7002173
:103EF000B160F1603161716140F29320A864ACE778
:103F00000021B160F1608A48C6E904104846FCF718
:103F100022FC13F032FE0022864BFCF799FC09D2FA
:103F20000020B060F06000213161716140F29520A5
:103F3000A86492E7BAF1030F03D17848007801280A
:103F40008BD10021B160F160316171614FF4257056
:103F5000A86482E728B92068B8626068F86285F8CA
:103F6000048070490020C6E90201002131617161BD
:103F70002068B96A081AFCF7EEFB13F0FEFD002278
:103F80005B46FCF77DFC0BD36068F96A081AFCF706
:103F9000E2FB13F0F2FD00225B46FCF771FCA5D2B8
:103FA0000021B160F160316171610020287140F23F
:103FB0009320A86451E70020786360683862206825
:103FC000F86140F29620A86447E72068B861786BF2
:103FD000401C7863584A0021C6E9021231617161C0
:103FE000012820DD2068F969081AFCF7B4FB13F0FA
:103FF000C4FD4D4E00223346FCF72AFC13D2606804
:10400000396A081AFCF7A7FB13F0B7FD0022334604
:10401000FCF71EFC07D2002078636068386240F22B
:10402000AA20A86419E740F2A320A86415E700219C
:10403000B160F1603E48C6E904104846FCF78BFBCE
:1040400013F09BFD0022394BFCF702FC08D2002143
:10405000B160F160316171614FF42B70A864FCE6CE
:10406000BAF1030F03D12D4800780128A2D1002115
:10407000B160F1603161716140F2AB20A864ECE69F
:1040800028B92068B8626068F86285F8048025481D
:104090000021C6E90210316171612068B96A081A0D
:1040A000FCF759FB13F069FD00225B46FCF7E8FBC7
:1040B0000BD36068F96A081AFCF74DFB13F05DFD3D
:1040C00000225B46FCF7DCFBACD20021B160F16062
:1040D000316171610020287140F2AA20A864BCE619
:1040E00015480022C6E9022032617261BAF1030F5D
:1040F00026D1012924D06068396A081AFCF72BFB05
:1041000013F03BFD00220D4BFCF7BAFB8AD240F2C4
:104110009F20A864A1E60000880000208000002005
:104120000000244000C072C00000344000805640AF
:1041300000004EC000C0624000C072400000544009
:104140000020B060F0604FF45E7028650020A86425
:1041500083E6BAF1000F0FD02068B969081AFCF79E
:10416000FAFA13F00AFD0022FD4BFCF789FB07D297
:1041700040F29A20A86472E040F29720A8646EE0B2
:104180006068396A081AFCF7E6FA13F0F6FC0022B8
:10419000F44BFCF775FB03D240F2A120A8645EE06B
:1041A000BAF1020F15D0BAF1010F12D0EE48007823
:1041B00001280ED06068396A401C88420FDA00205E
:1041C000B060F06000213161716140F2A520A86407
:1041D00045E06068386240F2AA20A8643FE02068A9
:1041E000FCF7B9FA13F0C9FC0022E04BFCF748FBDE
:1041F00003D24FF42870A86431E04846FCF7ABFACC
:1042000013F0BBFC0022DA4BFCF722FBA0D240F2F9
:10421000A720A86423E0BAF1030F16D1012914D016
:104220004846FCF798FA13F0A8FC0022D14BFCF7A3
:1042300027FB0ED20020B060F0603061706185F81D
:1042400006804FF42870A86409E040F2A620A86414
:1042500005E00021B160F160C748C6E904100DE235
:1042600028B92068B8626068F86285F80480C3489D
:104270000021C6E90210316171612068B96A081A2B
:10428000FCF769FA13F079FC00225B46FCF7F8FAB8
:104290000BD36068F96A081AFCF75DFA13F06DFC3D
:1042A00000225B46FCF7ECFA92D20021B160F1608B
:1042B0003161716185F8068040F2A520A864002074
:1042C0002871DBE1BAF1030F17D1012915D0484657
:1042D000FCF741FA13F051FC0022A94BFCF7B8FAA5
:1042E0000FD20020B060F06000213161716185F86B
:1042F00006804FF42870A864C0E14FF42A70A864C7
:10430000BCE10021B160F1609B48C6E90410FDE307
:1043100028B92068B8626068F86285F80480974818
:104320000021C6E90210316171612068B96A081A7A
:10433000FCF711FA13F021FC00225B46FCF7A0FA0F
:104340000BD36068F96A081AFCF705FA13F015FC3C
:1043500000225B46FCF794FAB3D20021B160F16011
:104360003161716185F8068040F2A720A8640020C1
:104370002871CBE3BAF1030F16D1012914D04846B6
:10438000FCF7E9F913F0F9FB00227D4BFCF760FA2A
:104390000ED20021B160F1603161716185F8068053
:1043A0004FF42970A864B1E340F2A220A864ADE301
:1043B0000021B160F1607048C6E90410A6E328B995
:1043C0002068B8626068F86285F804806B48002154
:1043D000C6E90210316171612068B96A081AFCF7F8
:1043E000BAF913F0CAFB00225B46FCF749FA0BD37B
:1043F0006068F96A081AFCF7AEF913F0BEFB0022F8
:104400005B46FCF73DFAB4D20020B060F0600021BA
:104410003161716185F8068040F2A120A864002016
:10442000287173E34FF42870A8646FE328B92068FB
:10443000B8626068F86285F8048050480021C6E9D7
:104440000210316171612068B96A081AFCF783F9BA
:1044500013F093FB00225B46FCF712FA0BD3606863
:10446000F96A081AFCF777F913F087FB00225B461C
:10447000FCF706FA97D20021B160F16031617161F9
:1044800000202871C7F838904846FCF764F913F00B
:1044900074FB00223B4BFCF7F3F903D24FF4267078
:1044A000A86433E340F29920A8642FE3BAF1030F24
:1044B00015D1012913D04846FCF74DF913F05DFBE7
:1044C0000022304BFCF7C4F912D20020B060F0603B
:1044D00000213161716140F29620A86416E3002149
:1044E000B160F1603161716140F2B720A8640DE301
:1044F0000020B060F06020480021C6E9041005E308
:1045000028B92068B8626068F86285F804801B48A2
:104510000021C6E90210316171612068B96A081A88
:10452000FCF719F913F029FB00225B46FCF7A8F908
:104530000BD36068F96A081AFCF70DF913F01DFB3C
:1045400000225B46FCF79CF9ABD20020B060F06023
:1045500000213161716128714FF42670A864D5E2A1
:1045600000804A4000006440800000200088B34082
:104570000080564000E0654000004EC000C072C0A0
:104580000000144000C06240FFE7BAF1030F11D1F0
:1045900001290FD0B86BA9EB0000FCF7DCF813F091
:1045A000ECFA0022FE4BFCF76BF907D240F29620A2
:1045B000A864ABE24FF42E70A864A7E20021B160BA
:1045C000F160F848C6E90410A0E228B92068B86292
:1045D0006068F86285F80480F3480021C6E902109B
:1045E000316171612068B96A081AFCF7B4F813F0F8
:1045F000C4FA00225B46FCF743F90BD36068F96A02
:10460000081AFCF7A8F813F0B8FA00225B46FCF78A
:1046100037F9A4D20020B060F060002131617161EF
:10462000287140F29920A86470E24846FCF793F89C
:104630008B46044613F0A1FADFF870A3002253461C
:10464000FCF71EF902D3B9F1000F18DD0021B160AB
:10465000F16031617161B9F1000F0ADD2046594600
:1046600013F08BFA00225346FCF70AF901D285F8C1
:104670000480C7F8389040F29B20A86446E240F2DC
:104680009620A86442E2012814D0B86BA9EB000080
:10469000FCF761F813F071FA0022C54BFCF7F0F853
:1046A0001DD20021B160F1603161716140F296204C
:1046B000A8642BE24846FCF74EF813F05EFA00229D
:1046C000BA4BFCF7C5F80AD2002028710021B1606E
:1046D000F1603161716140F29620A86416E2BAF18E
:1046E000030F03D1B3480078012802D14FF427709B
:1046F000A8640021B160F160AF48C6E9041005E28A
:1047000028B92068B8626068F86285F80480A64815
:104710000021C6E90210316171612068B96A081A86
:10472000FCF719F813F029FA00225B46FCF7A8F809
:104730000BD36068F96A081AFCF70DF813F01DFA3C
:1047400000225B46FCF79CF898D20021B160F16032
:104750003161716100202871C7F838904846FBF735
:10476000FAFF13F00AFA0022904BFCF789F803D203
:104770004FF42670A864C9E140F29920A864C5E10D
:10478000BAF1030F16D1012914D04846FBF7E3FF15
:1047900013F0F3F90022894BFCF75AF810D20021EC
:1047A000B160F1603161716185F806804FF4297064
:1047B000A864ABE140F2B920A86485F80680A5E1C1
:1047C0000021B160F1607748C6E904109EE128B984
:1047D0002068B8626068F86285F804807248002139
:1047E000C6E90210316171612068B96A081AFBF7E5
:1047F000B2FF13F0C2F900225B46FCF741F80BD37D
:104800006068F96A081AFBF7A6FF13F0B6F90022F0
:104810005B46FCF735F8AED20021B160F160316142
:10482000716140F29F20A864002028716EE1002091
:10483000A8640120009069E10021B160F16031615C
:1048400071616068386240F2AD20A8645EE10022C8
:10485000B260F260584A0020C6E90402B9F14B0F79
:1048600006DD00213161716140F2AF20A8644DE1A5
:10487000BAF1030F01D1012902D140F2AE20A864A0
:1048800044E128B92068B8626068F86285F804805D
:1048900045480021C6E90210316171612068B96A9A
:1048A000081AFBF758FF13F068F900225B46FBF784
:1048B000E7FF0BD36068F96A081AFBF74CFF13F0A7
:1048C0005CF900225B46FBF7DBFF09D20021B160F7
:1048D000F160316171610020287140F2AD20A8645F
:1048E00014E137480021C6E9021031617161BAF163
:1048F000020F1AD0BAF1000F17D0BAF1010F14D07D
:104900006068396A081AFBF726FF13F036F90022AF
:104910002C4BFBF7B5FF07D20021B160F16031618C
:1049200071614FF42C70A864F0E00021B160F16077
:104930004FF42C70A864E9E00022B260F2601E48D7
:10494000C6E90420B9F1550F06DD0021316171611E
:1049500040F2B220A864D9E0BAF1030F01D10129D5
:1049600005D100213161716140F2B120A864CDE030
:1049700028B92068B8626068F86285F804800A483F
:104980000021C6E90210316171612068B96A081A14
:10499000FBF7E1FE13F0F1F800225B4614E00000A3
:1049A00000002E4000004EC000C072C000C0624037
:1049B00000003E408000002000004E4000001440F7
:1049C00000C0724000805A40FBF75AFF0BD360686A
:1049D000F96A081AFBF7BFFE13F0CFF800225B4616
:1049E000FBF74EFF09D20021B160F16031617161C6
:1049F000002028714FF42C70A86487E045480022FD
:104A0000C6E9022032617261BAF1030F16D10129A1
:104A100014D06068396A081AFBF79DFE13F0ADF8F0
:104A200000223D4BFBF72CFF70D20021B160F160FA
:104A3000316171614FF42D70A86467E00021B160AD
:104A4000F16040F2B320A86460E00020A864022076
:104A500000905BE00021B160F16030490020C6E9C0
:104A600004014846FBF777FE13F087F800222C4B31
:104A7000FBF706FF09D20020B060F0600021316131
:104A8000716140F2B620A86440E0BAF1030F3DD056
:104A90000021B160F16000203061706140F2B5200A
:104AA000A86433E028B92068B8626068F86285F8C5
:104AB00004801C480021C6E9021031617161206840
:104AC000B96A081AFBF747FE13F057F800225B4655
:104AD000FBF7D6FE0BD36068F96A081AFBF73BFEBA
:104AE00013F04BF800225B46FBF7CAFE0ED2002102
:104AF000B160F16031617161002028714FF42D7057
:104B0000A86403E00020A864012000900098BDE89C
:104B1000F88F000000C072400000644000004E406A
:104B200000E0654000C072C02DE9F05F04460E460B
:104B30004FF0000AA068642190FBF1F7FA4DDFF80E
:104B4000EC932846AA6C4FF4A173007999F80010F1
:104B50004FF0000B4FF001089A4278D02CDC40F265
:104B6000391EA2F2391C724572D017DCB2F59A7F59
:104B70006FD008DC2AB31CF108026DD0012A6AD07C
:104B8000022A63D1ADE0A2F58072353A7ED0012AC7
:104B90007DD0022A7CD0032AF3D104E3BCF1090FB3
:104BA00054D2DFE81CF05300BB0311043604830425
:104BB000AD04FB0421055102A2F24312122AEFD2E6
:104BC00000E013E0DFE812F0CF019E02150532018C
:104BD0005C019301230549058105AB05C80518064D
:104BE000430648067106A8061D03740338B9CE486B
:104BF0002168803081626168C16285F80480CD4897
:104C0000CB490022C0E9022102614261C64E206800
:104C10008036B16A081AFBF79EFD12F0AEFFC64F50
:104C200000223B46FBF72CFE0BD36068F16A081AA2
:104C3000FBF791FD12F0A1FF00223B46FBF720FE9F
:104C4000AED240F23110A86485F804B017E222E237
:104C50000DE370E000E03AE038B9B34821688030F5
:104C600081626168C16285F80480B24EB04800215B
:104C7000C6E9021031617161A6F180012068896A7C
:104C8000081AFBF768FD12F078FF02E08CE097E06D
:104C90003CE20022A94BFBF7F3FDD7D20021B16023
:104CA000F160316171613846FBF755FD12F065FF27
:104CB0000022A34BFBF7CCFD03D24FF49970A864FC
:104CC00002E040F24510A86485F804B0BEE79948B8
:104CD00000228260C2600261426140F23310A86427
:104CE000B4E7944C0021A160E1609648C4E9041047
:104CF0003846FBF730FD12F040FF0022924BFBF7E5
:104D0000BFFD09D20020A060E06000212161616147
:104D100040F23510A86499E7032E03D199F80000FA
:104D2000012893D10021A160E160216161614FF40C
:104D30009A70A8648AE738B97B482168803081621C
:104D40006168C16285F804807A4F79490020C7E91B
:104D50000201002139617961A7F180062068B16AFA
:104D6000081AFBF7F8FC12F008FFDFF8CC810022EC
:104D70004346FBF785FD0BD36068F16A081AFBF721
:104D8000EAFC12F0FAFE00224346FBF779FD9DD2C1
:104D90000020B860F86000213961796185F804B0BD
:104DA00040F23310A86451E75F488030C0F834B057
:104DB000616801622168C1614FF49B70A86445E796
:104DC000594E20688036B061706B401C7063594941
:104DD0005E4A0023C1E9023200220A614A610128C9
:104DE00020DD2068F169081AFBF7B5FC12F0C5FE5A
:104DF000524F00223B46FBF72BFD13D26068316A0D
:104E0000081AFBF7A8FC12F0B8FE00223B46FBF79D
:104E10001FFD07D2C6F834B0606830624FF4A3704B
:104E2000A86413E740F24310A8640FE7414C002147
:104E3000A160E16043490020C4E904013846FBF762
:104E40008AFC12F09AFE00223D4BFBF719FD08D2B6
:104E50000021A160E160216161614FF4A470A86448
:104E6000F4E6032E03D199F8000001289BD100211C
:104E7000A160E1602161616140F24710A864E5E64C
:104E800038B929482168803081626168C16285F83B
:104E90000480284E26490020C6E902013061706175
:104EA000A6F180072068B96A081AFBF754FC12F0D3
:104EB00064FEDFF8848000224346FBF7E1FC0BD35D
:104EC0006068F96A081AFBF746FC12F056FE0022E9
:104ED0004346FBF7D5FCA4D20021B160F1603161FB
:104EE000716185F804B04FF4A370A864C7E011485D
:104EF000164A0023C0E9023203614361032E29D11F
:104F0000012927D0084960688031096A081AFBF72F
:104F100022FC12F032FE00220D4BFBF7B1FC84D2D2
:104F200040F23F10A864AAE0880000208000002022
:104F300000C072C0880100200000244000003440FE
:104F40000080564000004EC000003E4000C072404D
:104F50000000544000228260C26040F23720286482
:104F6000C5F848B08BE096B1DFF808B42068DBF8EC
:104F70001810081AFBF7EFFB12F0FFFD0022FE4BA2
:104F8000FBF77EFC07D24FF49D70A86477E040F2F7
:104F90003710A86473E06068DBF82010081AFBF78C
:104FA000DAFB12F0EAFD0022F44BFBF769FC03D2B6
:104FB00040F24110A86462E0022E18D0012E16D0F3
:104FC00099F80000012812D06068DBF82010401E1C
:104FD000884213DDE748002280308260C2600261AF
:104FE000426185F807804FF4A270A86447E06068CA
:104FF000CBF820004FF4A370A86440E02068FBF7D2
:10500000AAFB12F0BAFD0022DD4BFBF739FC03D2FC
:105010004FF4A070A86432E03846FBF79CFB12F016
:10502000ACFD0022D74BFBF72BFC03D24FF4A07052
:10503000A86424E0CF480021D34A8030C0E902129E
:105040000022026142611AE0032E19D1012917D012
:105050003846FBF780FB12F090FD0022CB4BFBF7AC
:105060000FFC0FD2C348002180308160C160002254
:105070000261426185F806804FF4A270A8640FE2D5
:10508000AB640DE2BB48002280308260C260C04940
:10509000C0E9042104E230B9B64821688162616840
:1050A000C16285F80480B34E0021BA488036C6E953
:1050B000021031617161AF4F2068B96A081AFBF7BD
:1050C0004AFB12F05AFDDFF8D08200224346FBF77C
:1050D000D7FB0BD36068F96A081AFBF73CFB12F0A8
:1050E0004CFD00224346FBF7CBFB86D20021B1608A
:1050F000F16000203061706140F24110A86485F8D1
:1051000004B0CDE14FF4A070A864C9E130B999486A
:10511000216881626168C16285F80480DFF8548289
:105120009C4908F180080020C8E90201C8F8100075
:10513000C8F814008F4E2068B16A081AFBF70BFB01
:1051400012F01BFDDFF8509200224B46FBF798FB54
:105150000BD36068F16A081AFBF7FDFA12F00DFD37
:1051600000224B46FBF78CFB89D20021C8F80810BF
:10517000C8F80C10C8F81010C8F8141085F804B05E
:105180003846FBF7E8FA12F0F8FC0022834BFBF7F5
:105190005FFB03D24FF49C70A864C1E3B76340F295
:1051A0003910A864BCE3032E16D1012914D0384667
:1051B000FBF7D1FA12F0E1FC0022784BFBF760FB21
:1051C00016D26C48002280308260C2600261426167
:1051D0004FF49B70A864A3E366480021803081608F
:1051E000C16000220261426140F25310A86497E35B
:1051F0006048002280308260C2606549C0E90421B5
:105200008EE330B95B48216881626168C16285F8CC
:105210000480584E00215F488036C6E90210316193
:105220007161544F2068B96A081AFBF794FA12F0BA
:10523000A4FCDFF8648100224346FBF721FB0BD37B
:105240006068F96A081AFBF786FA12F096FC0022E9
:105250004346FBF715FBA0D20021B160F16031613C
:1052600071614FF49C70A86485F804B058E3032E74
:1052700011D101290FD03F48806B381AFBF76BFA28
:1052800012F07BFC0022454BFBF7FAFA07D24FF4F1
:105290009B70A86444E34FF4AA70A86440E33548C7
:1052A000002280308260C2603949C0E9042137E3BE
:1052B00030B93048216881626168C16285F8048034
:1052C0002C4E002133488036C6E9021031617161ED
:1052D000284F2068B96A081AFBF73DFA12F04DFC16
:1052E000DFF8B48000224346FBF7CAFA0BD36068AC
:1052F000F96A081AFBF72FFA12F03FFC0022434626
:10530000FBF7BEFAB2D20021B160F1603161716188
:1053100040F23910A86485F804B001E33846FBF781
:105320001AFA0E46044612F028FCDFF874800022B8
:105330004346FBF78DFA0CD20E4800228030826083
:10534000C260026142618038876340F23B10A8640A
:10535000E6E22046314612F010FC00224346FBF7FD
:105360008FFA27D2002F25DA02480022803082608F
:10537000C26017E00801002000804A40000064403D
:105380000088B3400080564000C0724000E0654095
:1053900000004EC000C072C00000244000002E403B
:1053A00000003E40026142618038876340F23D1058
:1053B000A864B5E2FE4800228260C26002614261D8
:1053C0004FF49B70A864ABE23846FBF7C4F912F0C7
:1053D000D4FB0022F74BFBF753FA09D2F448002222
:1053E0008260C260026142614FF49B70A86497E2E0
:1053F000032E03D199F80000012802D14FF49E70CA
:10540000A864EB4800228260C260EB49C0E9042135
:1054100086E238B9E6482168803881626168C162F5
:1054200085F80480DFF88883E4480021C8E9021089
:10543000C8F81010C8F81410A8F180062068B16AE6
:10544000081AFBF788F912F098FBDFF87493002232
:105450004B46FBF715FA0BD36068F16A081AFBF7A5
:105460007AF912F08AFB00224B46FBF709FAA0D228
:105470000021C8F80810C8F80C10C8F81010C8F8B7
:10548000141085F804B03846FBF765F912F075FB87
:105490000022CC4BFBF7DCF903D24FF49C70A864DC
:1054A0003EE2B76340F23910A86439E2C048803860
:1054B000806B381AFBF74FF912F05FFB0022BD4BEF
:1054C000FBF7DEF90AD2BA4800218160C1600022F0
:1054D000026142614FF49B70A86421E2032E03D164
:1054E00099F80000012802D14FF49F70A864B048D9
:1054F00000218160C160B0490022C0E904210FE2AF
:1055000038B9AB482168803881626168C16285F82A
:105510000480DFF89C82A9480021C8E90210C8F87D
:105520001010C8F81410A8F180062068B16A081A93
:10553000FBF711F912F021FBDFF8849200224B46B1
:10554000FBF79EF90BD36068F16A081AFBF703F9C1
:1055500012F013FB00224B46FBF792F9A0D2002079
:10556000C8F80800C8F80C000021C8F81010C8F8E6
:10557000141085F804B03846FBF7EDF812F0FDFA88
:105580000022904BFBF764F903D24FF49C70A8649F
:10559000C6E1B76340F23910A864C1E1032E17D108
:1055A000012915D03846FBF7D6F812F0E6FA0022AA
:1055B000854BFBF765F90FD27D4800228260C260FF
:1055C0000261426185F806804FF4A270A864A7E1E9
:1055D000AB6485F80680A3E1754800228260C26052
:1055E0007A49C0E904219BE1C5F848B04FF0010AAF
:1055F00096E16F4800228260C260026142616C499C
:1056000060688039086240F24910A86488E1684CFB
:105610000020A060E06068480021C4E9041038461A
:10562000FBF799F812F0A9FA0022694BFBF710F981
:1056300009D20020A060E06000212161616140F298
:105640004B10A8646CE1032E03D199F800000128E7
:105650009ED14FF4A570A86462E138B9544821681E
:10566000803881626168C16285F80480504E534879
:105670000021C6E90210002030617061A6F18007A8
:105680002068B96A081AFBF766F812F076FADFF8B4
:10569000308100224346FBF7F3F80BD36068F96AC8
:1056A000081AFBF758F812F068FA00224346FBF795
:1056B000E7F809D20020B060F0603061706185F8D1
:1056C00004B040F24910A8642AE1394F414A002051
:1056D000C7E9020200223A617A61032E18D101293A
:1056E00016D0A7F180016068096A081AFBF733F841
:1056F00012F043FA0022384BFBF7C2F807D2002120
:10570000B960F960396179614FF4A670A86407E166
:105710000021B960F9604FF4A670A86400E1244844
:1057200000228260C260244A0023C0E9043217F1DB
:105730005D0F06DD0022026142614FF4A770A8648C
:10574000EEE0032E01D1012905D100220261426160
:1057500040F24D10A864E3E038B91548216880385C
:1057600081626168C16285F80480114E134800218E
:10577000C6E90210002030617061A6F18007206840
:10578000B96A081AFAF7E7FF12F0F7F9DFF8308084
:1057900000224346FBF774F823D36068F96A081ABD
:1057A000FAF7D9FF12F0E9F90022434616E00000AB
:1057B0008801002000003E4000004E4000C072C042
:1057C0000000244000002E4000E0654000004EC074
:1057D00000405A4000C0724000805A40FBF750F829
:1057E00009D20021B160F1603161716185F804B0C6
:1057F0004FF4A670A86493E04C4F4B4A0020C7E9D1
:10580000020200223A617A61032E19D1012917D0D0
:10581000A7F180016068096A081AFAF79CFF12F084
:10582000ACF90022424BFBF72BF879D20021B9608A
:10583000F9600020386178614FF4A870A8646FE0C7
:105840000021B960F96040F24F10A86468E0C5F823
:1058500048B04FF0020A63E0344C0021A160E160DF
:105860003448C4E904103846FAF775FF12F085F998
:105870000022314BFAF7ECFF08D20021A160E16071
:10588000216161614FF4A970A86449E0032E03D13E
:1058900099F80000012843D10021A160E160216155
:1058A000616140F25110A8643AE038B91F4821689C
:1058B000803881626168C16285F804801B4E1F4890
:1058C0000021C6E9021031617161A6F180072068EC
:1058D000B96A081AFAF73FFF12F04FF9DFF8608053
:1058E00000224346FAF7CCFF0BD36068F96A081A26
:1058F000FAF731FF12F041F900224346FAF7C0FFF0
:105900000ED20021B160F1603161716185F804B09F
:105910004FF4A870A86403E0C5F848B04FF0010A3E
:105920005046BDE8F09F000000C072408801002092
:105930000000644000004E400000204000C072C0E3
:10594000000024402DE9F84F04460F460020009047
:10595000A068642190FBF1F8FE4DDFF8FC93284627
:10596000696C007999F80020DFF8F0B305F1800A3E
:1059700005F58076B1F51A7F7ED033DC40F25D23E9
:10598000A1F25D2C994278D021DCB1F5167F75D05B
:1059900012DC40F25523A1F2552299426FD006DC69
:1059A0004FF4157719B3B94265D108B370E0012AF5
:1059B0007ED0022AF8D10FE3A1F50071593978D0D1
:1059C000012977D0022976D00329EDD136E1BCF147
:1059D0000B0F50D2DFE80CF04FFCFBFAF9F8F7F6AA
:1059E000F5F4F300A1F269211429F2D201E016E0E6
:1059F00046E0DFE811F004055F05B405F7051A0677
:105A00005E068706CC06EE06490326076504890470
:105A1000A10322070B042F042B0580056D0338B961
:105A20002068CAF828006068CAF82C000120287194
:105A3000CB480021C6E90210316171612068DAF8B3
:105A40002810081AFAF787FE12F097F800225B4632
:105A5000FAF716FF0CD36068DAF82C10081AFAF778
:105A60007AFE12F08AF800225B46FAF709FFB0D2FC
:105A70006F640020287109E2FDE3F9E0E0E246E00E
:105A80002068CAF828006068CAF82C000120287134
:105A9000B3480021C6E90210316171612068DAF86B
:105AA0002810081AFAF757FE12F067F8002203E0F0
:105AB00068E239E05BE09AE0AA4F3B46FAF7E0FE85
:105AC0000CD36068DAF82C10081AFAF744FE12F0CA
:105AD00054F800223B46FAF7D3FECCD20021B16045
