:020000040800F2
:10000000D8A00020E901000849150008F1100008F7
:1000100045150008110D0008F52500080000000036
:100020000000000000000000000000004501000882
:10003000CD0D00080000000089010008111800081B
:10004000030200080302000803020008030200087C
:10005000030200080302000803020008030200086C
:1000600003020008FD0D0008030200080302000857
:10007000030200080302000803020008030200084C
:10008000030200080302000803020008030200083C
:10009000030200080302000803020008030200082C
:1000A000030200080302000803020008030200081C
:1000B00003020008D11A0008030200080302000826
:1000C00003020008030200080302000803020008FC
:1000D000030200088121000891210008A1210008E5
:1000E000D10D000803020008030200080302000803
:1000F00003020008030200080302000803020008CC
:100100000302000803020008651B00080302000840
:100110007121000803020008051C00080302000802
:10012000030200080302000803020008030200089B
:10013000DFF80CD000F074FC00480047756D000833
:10014000D8A00020204B19680868B0E8F00F80F3B1
:100150000988BFF36F8F4FF0000080F311884EF0D5
:100160000D0E70470000000006480068006880F32C
:10017000088862B661B6BFF34F8FBFF36F8F00DFA1
:1001800000BF00BF08ED00E0EFF30980BFF36F8F01
:100190000D4B1A6820E9F00F106008B54FF0100001
:1001A00080F3118807F022FB4FF0000080F31188E4
:1001B000BDE8084019680868B0E8F00F80F30988C6
:1001C000BFF36F8F704700BFA0000020EFF31180D6
:1001D0004FF0100181F31188704780F31188704748
:1001E000EFF3058070470000064880470648004747
:1001F000FEE7FEE7FEE7FEE7FEE7FEE7FEE7FEE7D7
:10020000FEE7FEE7311800083101000840EA01036B
:100210009B0703D009E008C9121F08C0042AFAD2BC
:1002200003E011F8013B00F8013B521EF9D2704780
:10023000D2B201E000F8012B491EFBD27047002228
:10024000F6E710B513460A4604461946FFF7F0FFD5
:10025000204610BDF0B480EA0102D40F4200B2EB98
:10026000410F02D20246084611464A0042D0C30D51
:10027000DDB2C1F3C752AD1A202D35DAC1F3160134
:1002800041F4000204B15242C5F1200602FA06F11F
:100290002A411044B3EBD05F23D0C4B1012DA0EBB1
:1002A000C35009DCF0BC4FF0004202EAC352DBB29B
:1002B00000F5000000F0B9BA400000F1807000EBDA
:1002C000C350A0F1807040EAD170490009E04908AC
:1002D00041EAC071A0EBC35000F50000400800EBFC
:1002E000C350F0BC00F098BA6142012202EB410118
:1002F000001BF6E7F0BC704781F00041AAE780F0F0
:100300000040A7E780EA010210B502F00043400078
:1003100022D04A001FD0010E01EB1261C0F356003B
:10032000C2F3560240F4000042F40002A0FB022097
:1003300000047F39140400D0401C50EA124001D45C
:100340004000491EC2B20C0604EBD010401C40080D
:10035000802A02D003E0002010BD20F00100002917
:1003600000DA0020184310BD30B480EA010202F028
:10037000004530F0004221F0004013D090B1C30D91
:10038000D40DC2F31601C0F31600E41A41F40001C3
:1003900040F400027D34914201D3641C00E0490026
:1003A000002C02DA30BC002070474FF4000000231C
:1003B000914201D3891A034340084FEA4101F7D122
:1003C00051B1914202D14FF0004105E002D24FF00D
:1003D000010101E06FF0010103EBC450284430BC7F
:1003E00000F01ABA2DE9FE4F804681EA0300C00FE3
:1003F0000C46009021F0004123F00045B8EB0200CC
:10040000A94105D24046214690461C460B4602466D
:1004100023F00040104347D0270DC7F30A00C3F371
:100420000A510290401A019040286BDAC3F313007E
:1004300040F4801B0098924620B10023D2EB030ABF
:1004400063EB0B0B01985946C0F14002504600F097
:10045000B2F906460D4650465946019A00F0CAF9CF
:1004600010EB08006141002487EA115284EAE77327
:100470001A4340D0009A62B3019A012A4FEA075208
:1004800015DC001B61EB02014FF0004202EA07524B
:10049000CDE90042001C41F5801132462B4600F0A8
:1004A00001FA03B0BDE8F08F40462146F9E7001B92
:1004B00061EB0201001C41F5801300185B4120181C
:1004C000A2F5001747EB030140EAD570B6196D415C
:1004D00011E06D084FEA360645EAC0754FEA07524B
:1004E000001B61EB0201001C41F5801149084FEA35
:1004F00030000019514132462B4603B0BDE8F04FA1
:1005000000F0C1B90098012240000023D0EB0202A4
:1005100063EBE073009821464FEAE074B8EB00000B
:1005200061EB0401E9E783F000435BE781F0004100
:1005300058E72DE9FE4F81EA030404F0004421F05E
:10054000004100944FF0000B23F0004350EA0104F7
:100550005ED052EA03045BD0C3F30A54C1F30A55D8
:100560002C44A4F2F3340194A0FB0254C1F3130110
:1005700041F48011C3F3130343F4801301FB0244DD
:1005800000FB034E840A970A44EA815447EA8357E2
:10059000A4FB076802958D0A05FB07854FEA932C9B
:1005A00004FB0C542705029D4FEA065847EA16370C
:1005B000B5EB08056EEB070C870E920E47EA811724
:1005C00042EA8312A7FB0201B6EB0B0164EB0004C5
:1005D0002B0D43EA0C335E1844EB1C50DA465146AF
:1005E000E7FB0201C5F313044FEA0B3343EA14534C
:1005F0004FEA0432019C43EA0603A4F10C0402947E
:10060000009CCDE900B400F04DF903B0BDE8F08FD7
:1006100000200146F9E7C10F80EAE0700844CA07EC
:100620009623002100F001B996230022114600F024
:10063000FCB80EB5C10F80EAE0700844CA0700217B
:1006400040F233438DE80E000A460B4600F02AF9CB
:1006500003B000BD0EB540F2334102910021CDE957
:1006600000110A460B4600F01DF903B000BD00F072
:10067000004220F00040C10DC0F3160040F400001D
:100680007F2901DA00207047962903DCC1F1960129
:10069000C84001E096398840002AF4D040427047B3
:1006A00020F00040C10DC0F3160040F400007F2987
:1006B00001DA00207047962903DCC1F19601C84099
:1006C000704796398840704770B5C1F30A5201F0FF
:1006D00000450024C1F3130140F2FF3341F48011BF
:1006E0009A4201DA002070BD40F233439A42A2F2EE
:1006F000334203DC524200F06DF800E090402C439E
:10070000F1D0404270BD00F0004230F000400AD00D
:10071000C10D01F56071C0F3160042EA0151C20833
:10072000400711437047002001467047002801DB55
:10073000C0F10040002901DBC1F100418142704756
:10074000002801DBC0F10040002901DBC1F10041BC
:10075000884270472DE9F05F0546002092469B468F
:1007600088460646814640241BE0284641464746C7
:10077000224600F02FF853465A46C01A914110D332
:1007800011461846224600F016F82D1A67EB0108AC
:100790004F4622460120002100F00DF817EB00091A
:1007A0004E41201EA4F10104DFDC484631462A46B2
:1007B0004346BDE8F09F202A04DB203A00FA02F10C
:1007C000002070479140C2F1200320FA03F319433F
:1007D00090407047202A04DB203A21FA02F00021E1
:1007E000704721FA02F3D040C2F120029140084341
:1007F00019467047202A06DBCB17203A41FA02F04F
:1008000043EAE07306E041FA02F3D040C2F120026D
:1008100091400843194670470029A8BF7047401C03
:10082000490008BF20F00100704710B4B0FA80FC06
:1008300000FA0CF050EA010404BF10BC704749B143
:10084000CCF1200421FA04F411FA0CF118BF0121B3
:1008500021430843A3EB0C01CB1D4FEA00614FEA93
:10086000102042BF002010BC704700EBC350104462
:100870000029A4BF10BC7047401C490008BF20F0ED
:10088000010010BC704710B5141E73F1000408DAA3
:10089000401C41F1000192185B411A4301D120F044
:1008A000010010BD2DE9F04D92469B4611B1B1FA01
:1008B00081F202E0B0FA80F220329046FFF77BFF2F
:1008C00004460F4640EA0A0041EA0B0153465A46E5
:1008D000084313D0114653EA010019D0C8F1400271
:1008E0005046FFF777FF05460E46504659464246AA
:1008F000FFF761FF084305D0012004E02046394698
:10090000BDE8F08D0020054346EAE0762C433743EE
:100910000A986305E40AA0EB08000022FD0A44EAF5
:1009200047540A3002D500200146E9E701051019B5
:100930006941DDE9084500196941BDE8F04DA2E7CC
:100940002DE9F04D81EA030404F0004B21F000454D
:1009500014464FF0000A23F0004150EA050220D06F
:1009600054EA01021DD0C5F30A570246C5F313032A
:10097000C1F31300C1F30A5640F4801543F4801309
:10098000A7EB0608101BD64608F2FD3873EB0500EE
:1009900002D308F1010801E092185B41B8F1000FA1
:1009A00003DA00200146BDE8F08D00204FF48011ED
:1009B000064684460EE0171B73EB050705D3121B92
:1009C00063EB050306434CEA010C49084FEA30008B
:1009D00092185B4150EA0107EDD152EA030012D0B0
:1009E00082EA040083EA0501084305D0101BAB41ED
:1009F00006D20122002306E000224FF0004302E06D
:100A00006FF0010253101AEB06004CEB085110EB8B
:100A10000A0041EB0B01BDE8F04DFFF734BF0000C9
:100A2000064C074D06E0E06840F0010394E807003B
:100A300098471034AC42F6D3FFF77EFB18810008CC
:100A40003881000870B521F0004303430CD0C1F396
:100A50000A550024D5EB040564EB0403D617AD1A40
:100A6000B34102DB0020014670BD201841EB02516A
:100A700070BD21B1826842F00102826003E08268A9
:100A800022F001028260704710B504461248844289
:100A900008D10121401500F0C7FD0021601500F0CC
:100AA000C3FD17E00D48844208D10121001500F074
:100AB000BBFD0021201500F0B7FD0BE00848844283
:100AC00008D10121C80300F0AFFD00214FF4004020
:100AD00000F0AAFD10BD00000024014000280140E4
:100AE000003C0140014600208A6802F004020AB17D
:100AF000012000E0002070470146C86C80B27047BA
:100B00000246002013680B400BB1012000E00020DA
:100B10007047014600208A6802F008020AB10120ED
:100B200000E000207047000030B50246002000239E
:100B300050680F4C20400D790C6844EA052420438E
:100B4000506090680B4C2040D1E902542C434D7901
:100B500044EA450420439060D06A20F470000C7C85
:100B6000641EE4B2234340EA0350D06230BD00006B
:100B7000FFFEF0FFFDF7F1FFF0B504460D46002043
:100B80000021092D11DDE068A5F10A0606EB4607F4
:100B9000072606FA07F18843A5F10A0606EB460682
:100BA00003FA06F10843E0600CE0206905EB450715
:100BB000072606FA07F1884305EB450603FA06F116
:100BC00008432061072A0FDA606B561E06EB860782
:100BD0001F2606FA07F18843561E06EB860605FA1D
:100BE00006F10843606322E00D2A0FDA206BD61F5E
:100BF00006EB86071F2606FA07F18843D61F06EB89
:100C0000860605FA06F10843206310E0E06AA2F1C7
:100C10000D0606EB86071F2606FA07F18843A2F1A8
:100C20000D0606EB860605FA06F10843E062F0BD04
:100C3000816841F008018160704721B1826842F407
:100C4000A002826003E0826822F4A0028260704702
:100C5000816841F0040181607047000010B50120F7
:100C600006F074FE0149086010BD00000C00002071
:100C70001FB50020144A0123CDE901200093039001
:100C800003464FF4806211A1144806F053FF002080
:100C9000134A0223CDE901200093039003464FF449
:100CA000806210A1134806F045FF0020124A03237A
:100CB000CDE901200093039003464FF480620FA119
:100CC000124806F037FF1FBD000000207654617304
:100CD0006B4465636973696F6E000000A575000859
:100CE00004000020765461736B436F6E74726F6CF6
:100CF0000000000089750008080000207654617328
:100D00006B50657263657074696F6E00A176000840
:100D100000BFFEE7014609B909487047012901D122
:100D20000848FAE7022901D10748F6E7032901D16B
:100D30000648F2E7042901D10020EEE70020ECE7A5
:100D4000340600205C0E002084160020AC1E00201B
:100D500008B525208DF8000001208DF80100002045
:100D60008DF8020001208DF80300684600F0EEFBCC
:100D700026208DF8000001208DF8010000208DF85C
:100D8000020001208DF80300684600F0DFFB2720F9
:100D90008DF8000001208DF8010000208DF8020080
:100DA00001208DF80300684600F0D0FB34208DF858
:100DB000000001208DF8010000208DF802000120C4
:100DC0008DF80300684600F0C1FB08BD70470000C5
:100DD00010B54FF4004000F02BF860B14FF4004024
:100DE00000F020F804480068401C034908600846E9
:100DF0004068401C486010BD2805002010B5082040
:100E000000F016F858B1082000F00CF8044880688B
:100E1000401C034988600846C068401CC86010BD7B
:100E200028050020014908607047000014040140B3
:100E3000014600200022074B1B6803EA0102054B14
:100E400014331B680B4013B10AB1012000E00020ED
:100E50007047000000040140002123498279002AE4
:100E60003AD00A46126803689A430B461A600A1D74
:100E7000126803689A430B1D1A60027911440A68CC
:100E800003681A430A60184A0832126803689A43D2
:100E9000154B08331A601A1D126803689A43124BE7
:100EA0000C331A604279102A0ED11A1F1268036897
:100EB0001A430D4B08331A601A1D126803681A434F
:100EC000094B0C331A600DE00749427911440A6856
:100ED00003681A430A6005E0027911440A6803684E
:100EE0009A430A60704700000004014030B50022B8
:100EF0008B071C0F0F2303FA04F20B4B8C1053F8D3
:100F000024309343084C8D1044F8253023468C1030
:100F100053F824308C07240F00FA04F42343024CC6
:100F20008D1044F8253030BD080001402DE9F04116
:100F3000024600250026002000230024002791F807
:100F400003C00CF00F0591F803C00CF0100CBCF1BD
:100F5000000F03D091F802C04CEA050591F800C0DB
:100F6000BCF1000F31D0146800202BE04FF0010CD1
:100F70000CFA00F3B1F800C00CEA03069E4220D13F
:100F800083004FF00F0C0CFA03F7BC4305FA03FC87
:100F90004CEA040491F803C0BCF1280F06D14FF0CD
:100FA000010C0CFA00FCC2F814C00AE091F803C06E
:100FB000BCF1480F05D14FF0010C0CFA00FCC2F84F
:100FC00010C0401C0828D1D31460B1F800C0BCF197
:100FD000FF0F34DD546800202EE000F1080C4FF0C4
:100FE000010808FA0CF3B1F800C00CEA03069E42AF
:100FF00021D183004FF00F0C0CFA03F7BC4305FA24
:1010000003FC4CEA040491F803C0BCF1280F05D19D
:1010100000F1080C08FA0CF8C2F8148091F803C02B
:10102000BCF1480F07D100F1080C4FF0010808FA95
:101030000CF8C2F81080401C0828CED35460BDE8DC
:10104000F0810000F0B50A460023002400210025AD
:1010500000F00046B6F1004F02D11D4EF16901E0EB
:101060001B4E7168C0F3034583B200F44016B6F519
:10107000401F08D121F07061154E766826F0706629
:10108000134F7E6012E000F48016B6F5801F06D183
:10109000032606FA05F4A14341F0706106E0460D0F
:1010A000360103FA06F6B14341F0706122B1460DF4
:1010B000360103FA06F6314300F00046B6F1004F60
:1010C00002D1034EF16101E0014E7160F0BD0000FC
:1010D000000001400246002093680B400BB1012044
:1010E00000E00020704741617047016170470000D7
:1010F00009A100200CE00A5C124B1A8000BF114AC3
:10110000121F128802F04002002AF8D0421CD0B20E
:101110002A28F0D300BFFEE70D0A456E74657220E1
:10112000486172644661756C745F48616E646C6599
:10113000722C2053797374656D2048616C742E0D88
:101140000A000000043801404CF6CC400149086018
:1011500070470000003000404AF6AA2001490860AC
:1011600070470000003000400149486070470000AF
:1011700000300040014988607047000000300040A6
:1011800001490860704700000030004000B585B09C
:101190000121052000F038FA0121880300F034FA1B
:1011A0004FF40070ADF8100018208DF813000320E4
:1011B0008DF8120004A98748FFF7B8FE4FF480604D
:1011C000ADF8100004208DF8130004A98148FFF742
:1011D000ADFE4FF4E13000900020ADF80400ADF812
:1011E0000600ADF80800ADF80C000C20ADF80A00C0
:1011F0006946794801F040F8012240F225517648CD
:1012000001F015F80121744800F0DBFF402172481D
:1012100000F0CEFF0121052000F0F6F9012148047D
:1012200000F0E2F90420ADF8100018208DF813004A
:1012300003208DF8120004A96648FFF777FE082006
:10124000ADF8100004208DF8130004A96148FFF7E1
:101250006DFE04A95F48FFF769FE4FF4E13000908E
:101260000020ADF80400ADF80600ADF80800ADF8B8
:101270000C000C20ADF80A006946584800F0FCFF4D
:10128000012240F22551554800F0D1FF0121534879
:1012900000F097FF4021514800F08AFF012108200B
:1012A00000F0B2F910208DF8130003208DF8120021
:1012B0000420ADF8100004A94948FFF737FE0121CA
:1012C000092000F0A1F90121880400F08DF94FF404
:1012D0008060ADF8100018208DF8130003208DF801
:1012E000120004A93E48FFF721FE4FF40060ADF85C
:1012F000100004208DF8130004A93948FFF716FEEA
:1013000004A93748FFF712FE4FF4E13000900020A7
:10131000ADF80400ADF80600ADF80800ADF80C001B
:101320000C20ADF80A0069462E4800F0A5FF012206
:1013300040F225512B4800F07AFF0121294800F0A6
:1013400040FF4021274800F033FF0121112000F029
:101350005BF90121C80400F047F94FF48060ADF853
:10136000100018208DF8130003208DF8120004A936
:101370001D48FFF7DBFD4FF40060ADF810000420BE
:101380008DF8130004A91848FFF7D0FD4FF4E130A1
:1013900000900020ADF80400ADF80600ADF808009C
:1013A000ADF80C000C20ADF80A0069460F4800F0BB
:1013B00063FF012240F225510C4800F038FF012163
:1013C0000A4800F0FEFE4021084800F0F1FE05B09A
:1013D00000BD00000008014000380140004400400A
:1013E000000C01400048004000100140004C00404B
:1013F0000948006800F0800058B90748006800F408
:10140000807030B10448006800F4806008B10120A9
:1014100070470020FCE700000818014009480068F8
:1014200000F0800058B10748006800F4807030B9BF
:101430000448006800F4806008B90120704700206B
:10144000FCE70000081801400948006800F080002F
:1014500058B10748006800F4807030B9044800684B
:1014600000F4806008B1012070470020FCE7000014
:10147000081801400948006800F0800058B107488A
:10148000006800F4807030B10448006800F48060A7
:1014900008B9012070470020FCE70000081801404F
:1014A0000448006800F08000012800D17047002047
:1014B000FCE70000081801400448006800F08000C4
:1014C000012800D170470020FCE700000818014007
:1014D0000448006800F0800008B90120704700202F
:1014E000FCE70000081801400448006800F0800094
:1014F00008B9012070470020FCE7000008180140EF
:101500000448006800F0800008B9012070470020FE
:10151000FCE70000081801400948006800F080005E
:1015200058B90748006800F4807030B90448006872
:1015300000F4806008B1012070470020FCE7000043
:101540000818014000BFFEE77047000070B5002199
:1015500000230F22C47804B3154C246804F4E0641B
:10156000C4F5E064210AC1F10403CA40447804FAD6
:1015700003F184781440214309010E4C0678A155EB
:10158000047804F01F050124AC4005786D11AD000E
:1015900005F1E025C5F8004109E0047804F01F05D5
:1015A0000124AC40044D0678761145F8264070BD04
:1015B0000CED00E000E400E080E100E002490143BE
:1015C000024A1160704700000000FA050CED00E0CF
:1015D00001460020034A506820F440400843506010
:1015E000704700000010024029B1064AD269024348
:1015F000044BDA6104E0034AD2698243014BDA61A9
:10160000704700000010024029B1064A9269024367
:10161000044B9A6104E0034A92698243014B9A6148
:10162000704700000010024029B1064AD268024308
:10163000044BDA6004E0034AD2688243014BDA606B
:10164000704700000010024030B500210022002445
:1016500000232D4D6D6805F00C0121B1042905D042
:10166000082923D105E0294D056022E0274D0560BA
:101670001FE0254D6D6805F47012234D6D6805F46B
:101680008034022505EB92421CB9214D554305607B
:101690000BE01D4D6D6805F400351DB11C4D554323
:1016A000056002E0194D5543056002E0174D0560E5
:1016B00000BF00BF144D6D6805F0F0010909154D1C
:1016C0006B5C0568DD4045600F4D6D6805F4E061B9
:1016D000090A104D6B5C4568DD4085600A4D6D68F8
:1016E00005F46051C90A0B4D6B5C4568DD40C5606F
:1016F000054D6D6805F44041890B074D6B5CC5686D
:10170000B5FBF3F5056130BD0010024000127A0010
:1017100000093D00750000208500002010B504463A
:10172000204601F04BFE10BD10B500F001F810BDD1
:101730000CB50020019000903348006840F48030E0
:101740003149086000BF3048006800F40030009064
:101750000198401C0190009818B90198B0F5A06F4D
:10176000F1D12948006800F4003010B10120009048
:1017700001E0002000900098012843D12348006830
:1017800040F01000214908600846006820F003007E
:1017900008600846006840F0020008601A48406887
:1017A000194948600846406848600846406840F467
:1017B000806048600846406820F47C104860084615
:1017C000406840F4E81048600846006840F08070C7
:1017D000086000BF0C48006800F000700028F9D0D5
:1017E0000948406820F003000749486008464068FF
:1017F00040F00200486000BF0348406800F00C0061
:101800000828F9D10CBD0000001002400020024061
:1018100010B5FEF7DBFC06F02FFA18B14FF0805040
:10182000024908600020FEF7D8FC10BD04ED00E07E
:1018300010B51348006840F00100114908600846DF
:101840004068104908400E494860084600680E4943
:1018500008400B4908600846006820F480200860B2
:101860000846406820F4FE0048604FF41F0088607E
:10187000FFF75AFF4FF000600449086010BD0000F8
:10188000001002400000FFF8FFFFF6FE08ED00E048
:10189000F0B50C46154600220021068C4FF6FE7767
:1018A0003E400684028B018C4FF60C7632407E1C43
:1018B00006EA03162E433243104EB0420ED0104EAD
:1018C000B0420BD0B0F1804F08D00E4EB04205D0E0
:1018D0000D4EB04202D00D4EB04206D14FF6FD760D
:1018E000314044F00106314305E04FF6F5763140D2
:1018F00044F00106314302830184F0BD002C014015
:10190000003401400004004000080040000C00408A
:10191000F0B50C461546002200210026078C4FF634
:10192000EF7C07EA0C070784028B018C4FF6FF77E8
:1019300007EA041640F6FF473A404FF6FF7707EAFA
:1019400003373A434FF6FF7707EA05273A43114F2B
:10195000B8420ED0104FB8420BD0B0F1804F08D033
:101960000E4FB84205D00E4FB84202D00D4FB842CC
:1019700006D14FF6DF77394046F01007394305E0CE
:101980004FF65F77394044F01007394302830184F2
:10199000F0BD0000002C0140003401400004004074
:1019A00000080040000C0040F0B50C46154600222F
:1019B00000210026078C4FF6FF6C07EA0C0707840E
:1019C000828B018C4FF6FF7707EA04264FF60C77DF
:1019D0003A404FF6FF7707EA03172F433A43114F78
:1019E000B8420ED0104FB8420BD0B0F1804F08D0A3
:1019F0000E4FB84205D00E4FB84202D00D4FB8423C
:101A000006D14FF6FF57394046F48077394305E059
:101A10004FF2FF57394044F4807739438283018481
:101A2000F0BD0000002C01400034014000040040E3
:101A300000080040000C0040F0B50C46154600229E
:101A400000210026078C4EF6FF7C07EA0C0707846E
:101A5000828B018C4FF6FF7707EA043640F6FF478A
:101A60003A404FF6FF7707EA05273A434FF6FF77EC
:101A700007EA03373A43114FB8420ED0104FB8422D
:101A80000BD0B0F1804F08D00E4FB84205D00E4FAA
:101A9000B84202D00D4FB84206D14DF6FF7739401B
:101AA00046F48057394305E047F6FF57394044F480
:101AB0008057394382830184F0BD0000002C01402F
:101AC000003401400004004000080040000C0040C9
:101AD00010B50121224800F0F7F878B10121204823
:101AE00000F0C4F8002003F0FFFB012003F0FCFB32
:101AF000022003F0F9FB032003F0F6FB0221184853
:101B000000F0E2F830B10221154800F0AFF80020F3
:101B100003F034FB0421124800F0D6F830B1042160
:101B20000F4800F0A3F8012003F028FB08210C481F
:101B300000F0CAF830B10821094800F097F80220F7
:101B400003F01CFB1021064800F0BEF830B1102154
:101B5000034800F08BF8032003F010FB10BD0000D9
:101B60000004004010B50221214800F0ADF858B142
:101B700002211F4800F07AF8002202211C4800F0E0
:101B80000BF91C48006880470421194800F09CF8B4
:101B900058B10421164800F069F8002204211448C5
:101BA00000F0FAF81448006880470821104800F057
:101BB0008BF858B108210E4800F058F8002208218F
:101BC0000B4800F0E9F80D480068804710210848EC
:101BD00000F07AF858B11021054800F047F80022CB
:101BE0001021034800F0D8F805480068804710BD70
:101BF000000C004064000020680000206C00002001
:101C00007000002010B501210F4800F05DF8D0B140
:101C10000E480068401C0D49086008460068142101
:101C2000B0FBF1F201FB120000EB8000400008B9AC
:101C300004F05AFF06480068401C0549086001216D
:101C4000014800F013F810BD0010004020000020F3
:101C50001C00002021B1028842F08002028004E0D2
:101C600002884FF67F731A4002807047CA4302828F
:101C7000704721B1028842F00102028004E002882C
:101C80004FF6FE731A400280704731B1B0F844201D
:101C900042F40042A0F8442005E0B0F84420C2F32A
:101CA0000E02A0F8442070470146888E7047014616
:101CB000088F70470146888F70470146B1F8400091
:101CC00070470146888C704730B5024600200023DB
:101CD0000024158A05EA0103958905EA010413B178
:101CE0000CB1012000E0002030BD000070B50546B9
:101CF0000C46244885420ED0234885420BD0B5F1CE
:101D0000804F08D02148854205D02148854202D025
:101D10002048854200D100E000BF208850B92389C7
:101D2000A28861882846FFF7B3FDE188284600F0C5
:101D3000A1F925E0208804280AD12389A288618896
:101D40002846FFF7E5FDE188284600F09CF917E0FA
:101D5000208808280AD12389A28861882846FFF7AD
:101D600023FEE188284600F09BF909E02389A28838
:101D700061882846FFF760FEE188284600F099F95F
:101D800070BD0000002C0140003401400004004000
:101D900000080040000C00401AB183890B43838186
:101DA00002E083898B4383817047000070B5002473
:101DB00000220023058C4FF6FE7635400584028C08
:101DC0008388048B4FF68F752C40B51E2C400D88F0
:101DD0002C43751E2A400D892A434D882A43144DF1
:101DE000A8420BD0134DA84208D0134DA84205D0ED
:101DF000124DA84202D0124DA84213D14FF6F775EA
:101E00002A404D892A434FF6FB752A408D882A4384
:101E10004FF6FF652B404FF6FF552B408D892B4326
:101E2000CD892B4383800483CD888586028470BD51
:101E3000002C0140003401400040014000440140BA
:101E4000004801400A460021018B4FF6F773194004
:101E5000114301837047000070B500240022002365
:101E6000058C4FF6EF7635400584028C8388048B11
:101E700048F6FF752C404FF6FF452C400D884FF675
:101E8000FF7606EA05252C434FF6DF752A400D89BB
:101E900006EA05152A434D8806EA05152A43154D1D
:101EA000A84202D0144DA8421DD14FF67F752A409A
:101EB0004D894FF6FF7606EA05152A434FF6BF75A2
:101EC0002A408D8806EA05152A434FF6FF352B4038
:101ED0004FF2FF752B408D8906EA85052B43CD898E
:101EE00006EA85052B4383800483CD880587028419
:101EF00070BD0000002C0140003401400A46002162
:101F0000018B4FF2FF7319404FF6FF7303EA022370
:101F1000194301837047000070B50024002200239C
:101F2000058C4FF6FF6635400584028C8388848BD0
:101F30004FF68F752C404FF6FC752C400D882C43C6
:101F40004FF6FF552A400D894FF6FF7606EA052524
:101F50002A434D8806EA05252A43154DA84202D09A
:101F6000144DA8421DD14FF2FF752A404D894FF6FE
:101F7000FF7606EA05252A434FF6FF352A408D886D
:101F800006EA05252A434EF6FF752B404DF6FF75F0
:101F90002B408D8906EA05152B43CD8906EA0515E8
:101FA0002B4383808483CD888587028470BD0000A5
:101FB000002C0140003401400A460021818B4FF67D
:101FC000F7731940114381837047000070B50022F8
:101FD00000230024058C4EF6FF7635400584038CE3
:101FE0008488828B48F6FF752A404FF6FF452A40C9
:101FF0000D884FF6FF7606EA05252A434DF6FF7554
:102000002B400D8906EA05352B434D8806EA053538
:102010002B430B4DA84202D00A4DA84208D14BF6E3
:10202000FF752C408D894FF6FF7606EA85152C4307
:1020300084808283CD88A0F84050038470BD000066
:10204000002C0140003401400A460021818B4FF2F0
:10205000FF7319404FF6FF7303EA0223194381838C
:102060007047818670470187704781877047A0F865
:1020700040107047028B4FF6F3731A400283028BB5
:102080000A4302837047028B4FF2FF331A400283E8
:10209000028B4FF6FF7303EA01231A430283704752
:1020A000828B4FF6F3731A408283828B0A438283BA
:1020B0007047828B4FF2FF331A408283828B4FF638
:1020C000FF7303EA01231A438283704700220288C8
:1020D0001D4B98420ED01D4B98420BD0B0F1804F53
:1020E00008D01B4B984205D01A4B984202D01A4B8D
:1020F000984204D14FF68F731A404B881A43174BFE
:10210000984207D0164B984204D04FF6FF431A402E
:10211000CB881A4302808B8883850B8803850A4B02
:1021200098420BD0094B984208D00E4B984205D0EC
:102130000D4B984202D00D4B984201D10B7A038689
:102140000123838270470000002C014000340140CD
:102150000004004000080040000C00400010004057
:10216000001400400040014000440140004801408C
:1021700010B5024800F01AF910BD0000AC1E002096
:1021800010B5024800F012F910BD0000340600201E
:1021900010B5024800F00AF910BD00005C0E0020E6
:1021A00010B5024800F002F910BD000084160020AE
:1021B00001F40072B2F5007F00D100BFCA43028073
:1021C000704721B1828942F40052828104E0828901
:1021D0004DF6FF731A408281704770B502460024A5
:1021E00000230025002040F66A16B14200D100BF4E
:1021F000C1F3421501F01F03012606FA03F3012D76
:1022000002D19689334006E0022D02D1168A33406E
:1022100001E0968A33400C12012606FA04F416886F
:10222000344013B10CB1012000E0002070BDF0B5C6
:102230000346002400260025002040F66A17B94214
:1022400000D100BF1846C1F3421401F01F06012758
:1022500007FA06F5012C01D10C3004E0022C01D163
:10226000103000E014301AB107682F43076002E015
:102270000768AF430760F0BD2DE9F04786B005461B
:102280000E460024A24600BFA1460027B08900B137
:1022900000BF2F462C8A4CF6FF700440F0880443A0
:1022A0002C82AC894EF6F3100440B0883189084383
:1022B000718908430443AC81AC8A4FF6FF40044067
:1022C000B0890443AC8201A8FFF7BEF91F488742DA
:1022D00002D1DDF810A001E0DDF80CA0A88900F41F
:1022E000004040B10AEBCA0000EB0A103168490017
:1022F000B0FBF1F807E00AEBCA0000EB0A10316806
:102300008900B0FBF1F86420B8FBF0F0040120096B
:10231000642101FB1089A88900F4004040B13220FB
:1023200000EBC900B0FBF1F000F00700044308E047
:10233000322000EB09106421B0FBF1F000F00F0037
:1023400004432C8106B0BDE8F0870000003801404E
:1023500001468888C0F308007047C1F308028280F4
:10236000704770B504460D46012000F098FC668B5E
:10237000002000F094FC0EB9002070BD218BA068F5
:10238000405C2870012000F08AFC208B401C80B249
:102390002083E189884201DB00202083608B401E7E
:1023A0006083002000F07BFC0120E6E770B5044666
:1023B00040F225512068FFF710FFE0B12068FFF7D9
:1023C000C7FFC5B2E18AA0684554E08A401C80B2CC
:1023D000E082E189884201DB0020E082608BE189B4
:1023E000884202DA608B401C6083606A10B1284624
:1023F000616A884700BF40F227712068FFF7EDFE51
:1024000008B3A08A60B9002240F227712068FFF764
:102410000EFF012240F226612068FFF708FF37E037
:10242000638A6268D15C2068FFF797FF608A401C6E
:1024300080B26082A189884201DB00206082A08A8C
:10244000401EA08224E040F226612068FFF7C5FE0E
:10245000F0B1A08A50B9002240F226612068FFF74F
:10246000E6FE206AA0B1206A804711E0638A6268B4
:10247000D15C2068FFF771FF608A401C80B26082E7
:10248000A189884201DB00206082A08A401EA082D0
:1024900070BDF8B504460E461746002529E00EE04B
:1024A000012000F0FCFBA08A0090002000F0F7FB68
:1024B000A089BDF80010884200DD01E000BFEFE711
:1024C00000BF705D228A61688854012000F0E7FB3C
:1024D000208A401C80B22082A189884201DB002032
:1024E0002082A08A401CA082002000F0D8FB681C3B
:1024F00085B2BD42D3DB012240F227712068FFF78D
:1025000096FEF8BD2A482B4908602B4848602B48A6
:1025100088604FF480608881C881002008824882EA
:10252000C882088348838882C86108624862244858
:102530002449086024484860244888604FF480603B
:102540008881C881002008824882C8820883488325
:102550008882C861086248621D481E4908601E489A
:1025600048601E4888604FF480608881C8810020E0
:1025700008824882C882088348838882C8610862CA
:1025800017484862174818490860184848601848B2
:1025900088604FF480608881C8810020088248826A
:1025A000C882088348838882C8610862486270478D
:1025B00000380140340600205C0600205C0A002040
:1025C000004400405C0E0020840E00208412002095
:1025D0000048004084160020AC160020AC1A0020F1
:1025E0001D170008004C0040AC1E0020D41E002027
:1025F000D422002000BFFEE70FB4054B10B503A99D
:10260000044A029800F054FB10BC5DF814FB000073
:10261000356C000804010020490050EAC12018BFB1
:1026200004204A0D18BF40F0010040F2FF72B2EBE7
:10263000515F08BF40F00200012808BF0520704725
:102640002DE9F74F144694B00021C4E90211159901
:10265000079121F00045C9498D4206DC1599C4E96E
:10266000000117B00020BDE8F08FC549DFF814A3C2
:10267000A9423CDD0799C44E0029C44FC44A1599AC
:10268000534619DDFDF74FFF554506D0C14AC24BF1
:10269000FDF749FFC4E900010AE04FF0D352BE4BF9
:1026A000FDF741FF32463B46FDF73DFFC4E900011F
:1026B00017B00120BDE8F08FFDF794FE554506D018
:1026C000B44AB54BFDF78EFEC4E900010AE04FF0B5
:1026D000D352B14BFDF786FE32463B46FDF782FEF4
:1026E000C4E9000117B04FF0FF30BDE8F08FAB49EF
:1026F000A942159978DB21F0004183468846A84A13
:10270000A84BFDF716FF0022A74BFDF76BFEFDF768
:10271000DBFF0990FDF78DFF06460F469C4A5346A6
:10272000FDF707FF43465A46FDF700FF80468A46FD
:10273000984A994B30463946FDF7FBFE2A0D012594
:102740000B9242465346FDF7F1FE032DC4E900010A
:1027500039D00B98C1F30A51401A05EB45111139D4
:10276000814230DA9148C346784400EB0510CDF839
:102770000CA00C90D0E9002330463946FDF7D9FE75
:1027800002460B460491069058460399FDF7CBFE8E
:1027900080468A4602460B4658460399FDF7C3FE1B
:1027A000049B069AFDF7BFFE83460C9803913946B9
:1027B000D0E902233046FDF7BCFE5A46039BFDF7E5
:1027C000B2FE6D1CBDE707980028A2BF099817B09C
:1027D000BDE8F08F616881F000416160099817B031
:1027E0004042BDE8F08FFFE784461598C1F313011E
:1027F000C0F30A50A0F2F5304FEA601800F01F064F
:10280000C6F12000139000200690079041F4801E2E
:1028100005206D4676B1664A08EB00017A4452F80D
:10282000213002EB8101B3404A68139922FA01F189
:10283000194305E05F4908EB0002794451F8221082
:10284000A1FB0E27A1FB0C131A449A4234BF0123AB
:10285000002303EB070A05EB8003D3E901B70F441C
:102860008F4234BF0121002193448B4411B1934521
:1028700002D903E0934501D2012100E00021C3E920
:1028800001B7514445F82010011EA0F10100C1DC40
:102890000298059F00F10050800F12900298DDE928
:1028A00003568000FDF7C5FE834628460D91FDF7CF
:1028B000D1FE6FF01D02FEF7C5F8CDE90E013046DE
:1028C000FDF7C8FE6FF03D02FEF7BCF880468A4671
:1028D0003846FDF7BFFE6FF05D02FEF7B3F807461E
:1028E000424653461191FDF77DFDDDE90E23FDF7CC
:1028F00079FD5A460D9BFDF775FD00250E465A469B
:1029000028460D9BFDF70FFEDDE90E23FDF70BFEBC
:1029100042465346FDF707FE3A46119BFDF706FE79
:10292000DFF898A0244A5346FDF703FE0746884681
:10293000234A244B31462846FDF7FBFD3A464346E1
:10294000FDF750FD074688464FF0A84253463146F2
:102950002846FDF7EEFD3A464346FDF743FD159A3E
:1029600012F0004F04D0129A81F0004152421292AC
:10297000C4E90001129817B0BDE8F08FFB21E93FD0
:102980007CD90240FB21F93F7370032E8A19A33BC7
:10299000000040543163621A61B4D03DFB213941DB
:1029A00083C8C96D305FE43F0000E03FBC580000C1
:1029B000385800001A580000182D4454FB21F93DE6
:1029C0003326A611460B113C2DE9FF4D21F000489E
:1029D00007460C46B8F1795F08DAFDF775FE002866
:1029E00001BF0020324904B0BDE8F08D3A462346CD
:1029F00010461946FDF79DFD054602462D480E4638
:102A00000B460621784400F05DF82A463346FDF770
:102A100090FDDDE9022382468B4638462146FDF7CC
:102A200088FD04460F4652465B4628463146FDF770
:102A300080FD22463B46FDF776FD07468A464FF06D
:102A4000FF3228463146FDF7FDFF1B4A90450ADA62
:102A50003A465346FDF767FD04B00022BDE8F04D4D
:102A6000134BFDF763BD154A4245A8BFA8F50015F5
:102A70004FF00004B8BF124D22462B46FDF753FD20
:102A80000646884622462B4600200949FDF74BFDA5
:102A900004460D463A46534630464146FDF743FD4F
:102AA00004B022462B46BDE8F04DFDF73FBD0000C7
:102AB0000000F03FF05500003333D33F0000E93F02
:102AC0000000D23F2DE9F0414F1E00EBC701044644
:102AD000D1E9000115461E4637F006020DD02A4600
:102AE0003346FDF726FD7F1E04EBC703D3E9002321
:102AF000FDF778FC37F00602F1D1022F25D0042F24
:102B000013D0062F18BFBDE8F0812A463346FDF7E3
:102B100010FDD4E90A23FDF765FC2A463346FDF78C
:102B200008FDD4E90823FDF75DFC2A463346FDF78E
:102B300000FDD4E90623FDF755FC2A463346FDF790
:102B4000F8FCD4E90423FDF74DFC2A463346FDF793
:102B5000F0FCD4E90223FDF745FC2A463346FDF795
:102B6000E8FCD4E90023BDE8F041FDF73BBC0000E0
:102B70002DE9FF4D054621F0004084B00C46B0F130
:102B8000795F0BDA2846FFF747FD042808BF00F0FD
:102B90006FF8284608B02146BDE8F08D2A460B465E
:102BA0001046FDF7C6FC06460F462A462346FDF7AB
:102BB000C0FC804626488A4632463B46052178447A
:102BC000FFF780FF83461098029160B3214A224BA1
:102BD00040465146FDF7ADFCCDE900015A4640465E
:102BE0005146029BFDF7A5FC82468846DDE90601B9
:102BF0004FF0FF32FDF726FF52464346FDF793FCA8
:102C000032463B46FDF795FCDDE90623FDF78BFCDC
:102C1000DDE90023FDF787FC08B02A462346BDE81E
:102C2000F04DFDF783BC0B465A4630463946FDF75A
:102C300080FC084A084BFDF7D5FB42465346FDF79A
:102C400078FC08B02A462346BDE8F04DFDF7CABB24
:102C50002E550000495555555555C5BF0122FDF764
:102C6000F1BE0022134610461146FDF769BE000072
:102C7000024A00201107FDF7E5BE000001FDFFFF3D
:102C800002E008C8121F08C1002AFAD17047704735
:102C9000002001E001C1121F002AFBD1704780F320
:102CA0001088704701490860704700000801002043
:102CB0002DE9FF4F8DB00F460546002606E025287A
:102CC0000BD0DDE90F1290476D1C761C2878002888
:102CD000F5D111B03046BDE8F08F0024A246A146E0
:102CE0000122EC4900E0044315F8013F203B02FAC1
:102CF00003F00842F7D128782A2810D06FF02F026D
:102D00002878A0F13001092914D80AEB8A0102EBD6
:102D1000410144F0020400EB010A6D1CF0E701CF11
:102D20005FEA000A03D544F40054CAF1000A44F0F3
:102D300002046D1C28782E2817D115F8010F44F0D5
:102D400004042A280ED06FF02F022878A0F1300159
:102D500009290AD809EB890102EB410100EB0109BD
:102D60006D1CF2E757F8049B6D1C28786C280FD077
:102D700006DC4C2817D068280DD06A2814D104E04E
:102D8000742810D07A280FD10DE044F400140AE022
:102D900044F4801401E044F440146978814202D183
:102DA00004F580146D1C6D1C2A786E2A1FD00CDC73
:102DB000632A31D004DC002A8BD0582A11D1A3E039
:102DC000642A68D0692A0CD165E0732A2ED004DC0D
:102DD0006F2A73D0702A04D19BE0752A6FD0782AAD
:102DE0006ED01046DDE90F129047761C50E1C4F317
:102DF0000250022806D0032809D0042801CF09D0A8
:102E0000066045E101CFF117C0E9006140E101CF63
:102E100006803DE106703BE117F8040B8DF80000D9
:102E200000208DF80100EB46012003E057F804BBB9
:102E30004FF0FF3061074FF0000102D40DE008F1C0
:102E40000101884649450FDA8045F8DB1BF8081078
:102E50000029F4D108E008F1010188468142FADB3B
:102E60001BF808100029F6D1DDE90F23AAEB0800B2
:102E70008146214600F036F9304400EB080604E0B4
:102E8000DDE90F121BF8010B9047B8F10108F7D2EA
:102E900021464846F7E00A21C4F302534FF0000BE5
:102EA0000891022B04D001CFC117032B09D00AE0EF
:102EB000FF1D27F00707F7E8020108E032E01FE0F6
:102EC00020E000B2C117042B01D140B2C117031E8C
:102ED00071F1000307DA4FF0000CD0EB0C006CEB43
:102EE00001012D2302E0230504D52B238DF8243086
:102EF000012303E0E30701D02023F7E7984658E0D9
:102F00000A2110E010210EE010204FF0000B089075
:102F10000CE010214FF0000B44F004044FF00809BE
:102F2000089103E008214FF0000B0891C4F302530D
:102F3000022B04D001CF0021032B06D006E0FF1D99
:102F400027F00707F7E8020103E080B2042B00D165
:102F5000C0B24FF0000823072BD5702A07D0DDF848
:102F600020C08CF0100C5CEA0B0C05D00EE0402366
:102F70008DF82430012308E050EA010306D0302305
:102F80008DF824308DF8252002239846DDF820C0E6
:102F90008CF0080C5CEA0B0C0BD150EA010301D158
:102FA000630706D530238DF824304FF00108A9F1CE
:102FB0000109582A04D038A20B9208AA0A920BE001
:102FC0003AA2F9E75B46089AFDF7C4FB0B9B9B5CB2
:102FD0000A9A521E0A92137050EA0102F2D10A981C
:102FE000ADEB000000F1200B600702D524F4803423
:102FF00001E04FF00109D94502DDA9EB0B0000E02B
:10300000002000EB0B0141440890AAEB010AE00309
:1030100006D4DDE90F232146504600F063F806444C
:103020004FF0000908E009A911F80900DDE90F12C5
:10303000904709F10109761CC145F4DBE0030CD58A
:10304000DDE90F232146504600F04CF8064404E029
:10305000DDE90F1230209047761C0899481E089031
:103060000029F5DC08E00A980A990078491C0A91C1
:10307000DDE90F129047761CBBF10001ABF1010BAB
:10308000F1DC21465046DDE90F2300F019F8064433
:103090006D1C1BE6092801003031323334353637D8
:1030A0003839616263646566000000003031323394
:1030B0003435363738394142434445460000000034
:1030C0002DE9F041044600251E461746880404D425
:1030D00005E039462020B0476D1C641EF9D528460E
:1030E000BDE8F0812DE9F041044600251E469046DA
:1030F000C80301D5302700E02027880404D505E067
:1031000041463846B0476D1C641EF9D52846BDE8D7
:10311000F0812DE9F04105460E4617460024B046E1
:1031200000BF1FE003F0DEFDB62003F0B1FD03F0A9
:1031300003FE00B11BE008F0FF0003F0A9FD03F05F
:10314000FBFD00B113E0285D03F0A2FD03F0F4FDE8
:1031500000B10CE003F0DEFD08F101001FFA80F879
:10316000601C84B2BC42DDDB0120BDE8F08103F0CD
:10317000D1FD0020F9E7000000B587B001214FF430
:103180008260FEF741FA4FF40040FEF721FA10206A
:10319000ADF8040000208DF8070001A91748FDF7DD
:1031A000C5FE1748FDF770FC002002908DF80C005A
:1031B0008DF80D004FF46020049000200590012050
:1031C0008DF8180002A90E48FDF7AEFC01210C484D
:1031D000FDF74FFC0A48FDF72BFD00BF0848FDF73F
:1031E00098FC0028FAD10648FDF732FD00BF0448DC
:1031F000FDF778FC0028FAD107B000BD00100140AF
:103200000028014070B504460D46072C24DC012D32
:103210000ED12046E11704EB5171C910A4EBC10295
:10322000012191401F4A127811431E4A11700DE08E
:103230002046E11704EB5171C910A4EBC102012132
:103240009140184A12788A4316490A7001220221D5
:103250001448FFF75EFF23E0012D0ED12046E11751
:1032600004EB5171C910A4EBC102012191400E4A37
:10327000127811430C4A11700DE02046E11704EB5F
:103280005171C910A4EBC10201219140064A127884
:103290008A4305490A70012203210348FFF739FFD9
:1032A00070BD0000240000202500002070B50A48F1
:1032B000017A407A41EA002004B2604204B220461A
:1032C000FDF7A9F905460549FDF74EF802494861A1
:1032D0000846048370BD00000C0100200000C842B5
:1032E00023480179407941EA002000B22149088051
:1032F0001F488179C07941EA002000B21D49488009
:103300001B48017A407A41EA002000B219498880BE
:103310001748817AC07A41EA002000B21549C88076
:103320001348017B407B41EA002000B2114908812B
:103330000F48807B40B288720D48C17B007C41EA17
:10334000002000B20B4988810846B0F90000B1F9AD
:10335000021008440749B1F9041008440549B1F9BD
:103360000610884201D0002070470120FCE70000D1
:103370000C0100202801002010B50C48007800B98D
:1033800010BD002009490870084640880D2800D06B
:1033900006E0FFF7A5FF00B902E0FFF787FF00BFD7
:1033A00000200249488000BFEAE700000C0100202D
:1033B0000148B0F9180070470C01002070B50446B0
:1033C00000200A49087040F22F15094A29460320B7
:1033D00003F0C2FA054840880D2806DA03494888F8
:1033E000411C024A5180111D0C5470BD0C0100207B
:1033F0002934000810B54FF400510A48FDF775FE56
:103400000A2000F08FF94FF400510648FDF76BFEDB
:103410000A2000F087F94FF400510248FDF765FEDD
:1034200010BD0000000C014010B5012002490870D9
:10343000FFF7A2FF10BD00000C01002030B50446CC
:103440000D46FF21FF22002307E0E05C084480B224
:103450000146104482B2581CC3B2AB42F5DBC8B27D
:1034600000EB2121D0B200EB222241EA022080B2FF
:1034700030BD10B5B62003F0E7FB08B9012010BD40
:1034800003F048FC0020FAE710B500242021114881
:10349000FDF720FE08B144F001044FF480710E489E
:1034A000FDF718FE08B144F002040CB9032010BD6A
:1034B000012C01D10020FAE7022C01D10120F6E70E
:1034C000032C01D10220F2E704A0FFF795F80320B6
:1034D000EDE7000000080140001C0140B2BBBACF7C
:1034E000C0EDB5C4C5F6D7B2BDE1B9FB0D0A000009
:1034F0002DE9F04F8FB000200D90002403200E9096
:10350000EEE09DF834102046E21704EBD25252123E
:10351000A4EB42227A4B9954601C84B2012C05D151
:103520009DF83400AA28EBD00024D9E0022C05D164
:103530009DF83400AA28E3D00024D1E0032C05D163
:103540009DF83400AA28DBD00024C9E0042C11D156
:103550009DF834006B4988709DF834002528CFD041
:103560009DF834003528CBD09DF834004528C7D0CD
:103570000024B5E0052C04D19DF834006149088091
:10358000AEE0604800880830A042B9DCA01FC1B29C
:103590005B48C01CFFF752FF0C90A01E5849095C05
:1035A000E01E574A105C41EA00200B90601E114655
:1035B000085C552803D1DDE90B10884201D00024B6
:1035C0008DE05048807825287ED14D4880794C493F
:1035D000497940EA01200FFA80F94948007A4849C0
:1035E000C97940EA012000B20A900A98FDF713F861
:1035F00045490090FCF786FE44490190FCF7B4FE73
:1036000080464349FCF77EFE0746FDF77CF8CDE98E
:1036100004014FEA4900FDF70CF807463D4A3E4BCE
:10362000FCF787FFCDE90201DDE90423FCF77BFF0E
:1036300000223A4BCDE90601FCF77BFF054600224C
:10364000374BFCF776FF8246FDF73EF800B2099053
:103650000A98FCF7E0FF2C490090FCF753FE2B4939
:103660000190FCF781FE83462949FCF74BFE824618
:10367000FDF749F8CDE904014FEA4900FCF7D9FF0D
:103680008246244A244BFCF754FFCDE90201DDE9D0
:103690000423FCF7A7FE05460022204BFCF749FF58
:1036A000074600221E4BFCF744FFCDE90601FDF75B
:1036B0000BF800B20890099802F05EFB0546294617
:1036C000002003F027F800E008E0089802F054FB1F
:1036D00005462946012003F01DF800BF002400BF65
:1036E0000DA90E9803F02AFA00287FF40AAF0E9075
:1036F00001200E9002200E900FB0BDE8F08F000068
:10370000D40200204C000020C3F5484000003443A0
:103710001F856B3EFCA9F1D24D62503F0000E03F97
:1037200000408F4010B504464FF47A7104FB01F05D
:1037300000F002F810BD000030B5084C63680021AD
:10374000074C2468074DB4FBF5F404FB00F202E0DB
:10375000024C6468E11A9142FAD330BD001000E0D7
:103760008C00002040420F0070B5FE48007800B980
:1037700070BDFC48407815282DD2DFE810F0150008
:103780002D00C900E7008301A1014902670203037C
:103790002103BD03DB038304A1043D055B05010692
:1037A0001F06AE06CC065B07EE48007A0A2190FBA6
:1037B000F1F201FB1200EC4901EB400044780021DA
:1037C0002046FFF71FFD04F051FAE649486008461D
:1037D0004078401C48708EE304F048FAE14949689B
:1037E000401A03287BD3DF48007A0A2190FBF1F2CC
:1037F00001FB1200DC4911F8104000212046FFF7C0
:1038000001FD7820FFF798FF01F0EAF9D549097A20
:103810000A2291FBF2F302FB1311D44A42F8310061
:10382000D048007A0A2190FBF1F201FB1200CE4948
:1038300011F8104001212046FFF7E4FC1420FFF7A7
:103840007BFF01F0CDF9C749097A0A2291FBF2F317
:1038500002FB1311C54A02EBC1014860C148007A5E
:103860000A2190FBF1F201FB1200BF4901EB40007D
:10387000447801212046FFF7C5FCBA494D7805EB95
:10388000D5714910B94A02EBC10148684FF07E5129
:10389000FCF756FF01D8002007E0B248447804EB5B
:1038A000D4704010B14951F83000AE49097A0A226B
:1038B00091FBF2F302FB1311AD4A42F82100A94932
:1038C0004C7804EBD4714910A84A02EBC101486856
:1038D0004FF07E51FCF734FF02D8012001E016E0E2
:1038E0000020A049097A0A2291FBF2F302FB13118E
:1038F000A04A50549B48007A401C9A49087204F030
:10390000B5F99849486008464078401C487062E71D
:1039100004F0ACF993494968401A16D09148007AEE
:103920000A2190FBF1F201FB12008F4901EB4000EC
:10393000447800212046FFF765FC04F097F9894997
:10394000486008464078401C487044E704F08EF90F
:1039500084494968401A03287BD38248007A0A21A7
:1039600090FBF1F201FB12007F4911F81040002199
:103970002046FFF747FC7820FFF7DEFE01F030F924
:103980007849097A0A2291FBF2F302FB1311774A74
:1039900042F831007348007A0A2190FBF1F201FBF2
:1039A0001200714911F8104001212046FFF72AFC4E
:1039B0001420FFF7C1FE01F013F96A49097A0A22BF
:1039C00091FBF2F302FB1311684A02EBC10148605C
:1039D0006448007A0A2190FBF1F201FB120062496F
:1039E00001EB4000447801212046FFF70BFC5D49C4
:1039F0004D7805EBD57149105C4A02EBC10148686E
:103A00004FF07E51FCF79CFE01D8002007E055489E
:103A1000447804EBD4704010544951F830005149B7
:103A2000097A0A2291FBF2F302FB1311504A42F881
:103A300021004C494C7804EBD47149104B4A02EBFD
:103A4000C10148684FF07E51FCF77AFE02D8012090
:103A500001E016E000204349097A0A2291FBF2F3C3
:103A600002FB1311434A50543E48007A401C3D4922
:103A7000087204F0FBF83B49486008464078401C57
:103A80004870A8E604F0F2F836494968401A16D0A2
:103A90003448007A0A2190FBF1F201FB120032490E
:103AA00001EB4000447800212046FFF7ABFB04F017
:103AB000DDF82C49486008464078401C48708AE68A
:103AC00004F0D4F827494968401A03287DD32548D3
:103AD000007A0A2190FBF1F201FB1200224911F851
:103AE000104000212046FFF78DFB7820FFF724FED1
:103AF00001F076F81B49097A0A2291FBF2F302FBE6
:103B000013111A4A42F831001648007A0A2190FB34
:103B1000F1F201FB1200144911F810400121204676
:103B2000FFF770FB1420FFF707FE01F059F80D496D
:103B3000097A0A2291FBF2F302FB13110B4A02EB02
:103B4000C10148600748007A0A2190FBF1F201FBAD
:103B50001200054901EB4000447801212046FFF79F
:103B600051FB09E03801002028000020440100201A
:103B700094010020BC010020FE494D7805EBD57171
:103B80004910FD4A02EBC10148684FF07E51FCF735
:103B9000D7FD01D8002007E0F648447804EBD47044
:103BA0004010F54951F83000F249097A0A2291FB98
:103BB000F2F302FB1311F14A42F82100ED494C786F
:103BC00004EBD4714910EC4A00E020E002EBC101A3
:103BD00048684FF07E51FCF7B3FD01D8012000E0AA
:103BE0000020E449097A0A2291FBF2F302FB131147
:103BF000E34A5054DF48007A401CDE49087204F062
:103C000035F8DC49486008464078401C4870E2E5D9
:103C100004F02CF8D7494968401A16D0D548007AE4
:103C20000A2190FBF1F201FB1200D64901EB4000A2
:103C3000447800212046FFF7E5FA04F017F8CD4953
:103C4000486008464078401C4870C4E504F00EF80F
:103C5000C8494968401A03287BD3C648007A0A211C
:103C600090FBF1F201FB1200C64911F8104000214F
:103C70002046FFF7C7FA7820FFF75EFD00F0B0FF9F
:103C8000BC49097A0A2291FBF2F302FB1311BA4AEA
:103C900042F83100B748007A0A2190FBF1F201FBAB
:103CA0001200B84911F8104001212046FFF7AAFA86
:103CB0001420FFF741FD00F093FFAE49097A0A2274
:103CC00091FBF2F302FB1311AB4A02EBC101486016
:103CD000A848007A0A2190FBF1F201FB1200A949E1
:103CE00001EB4000447801212046FFF78BFAA149FF
:103CF0004D7805EBD57149109F4A02EBC101486828
:103D00004FF07E51FCF71CFD01D8002007E09948D8
:103D1000447804EBD4704010974951F8300095492D
:103D2000097A0A2291FBF2F302FB1311934A42F83B
:103D3000210090494C7804EBD47149108E4A02EB73
:103D4000C10148684FF07E51FCF7FAFC02D801200F
:103D500001E016E000208749097A0A2291FBF2F37C
:103D600002FB1311864A50548248007A401C814954
:103D7000087203F07BFF7F49486008464078401C8A
:103D8000487028E503F072FF7A494968401A16D056
:103D90007848007A0A2190FBF1F201FB1200794980
:103DA00001EB4000447800212046FFF72BFA03F096
:103DB0005DFF7049486008464078401C48700AE53D
:103DC00003F054FF6B494968401A03287BD36948C4
:103DD000007A0A2190FBF1F201FB1200694911F807
:103DE000104000212046FFF70DFA7820FFF7A4FCD1
:103DF00000F0F6FE5F49097A0A2291FBF2F302FB1A
:103E000013115D4A42F831005A48007A0A2190FBAA
:103E1000F1F201FB12005B4911F81040012120462C
:103E2000FFF7F0F91420FFF787FC00F0D9FE5149A5
:103E3000097A0A2291FBF2F302FB13114E4A02EBBC
:103E4000C10148604B48007A0A2190FBF1F201FB66
:103E500012004C4901EB4000447801212046FFF755
:103E6000D1F944494D7805EBD5714910424A02EB2E
:103E7000C10148684FF07E51FCF762FC01D8002078
:103E800007E03C48447804EBD47040103A4951F8BC
:103E900030003849097A0A2291FBF2F302FB131130
:103EA000364A42F8210033494C7804EBD47149106A
:103EB000314A02EBC10148684FF07E51FCF740FCEB
:103EC00002D8012001E016E000202A49097A0A22DE
:103ED00091FBF2F302FB1311294A50542548007A52
:103EE000401C2449087203F0C1FE2249486008467C
:103EF0004078401C4870A8E303F0B8FE1D494968AB
:103F0000401A16D01B48007A0A2190FBF1F201FBFF
:103F100012001C4901EB4000447800212046FFF7C5
:103F200071F903F0A3FE1349486008464078401C2D
:103F300048708AE303F09AFE0E494968401A032844
:103F40007DD30C48007A0A2190FBF1F201FB1200AC
:103F50000C4911F8104000212046FFF753F9782052
:103F6000FFF7EAFB00F03CFE0249097A0A2291FBC6
:103F7000F2F309E038010020440100209401002000
:103F8000BC0100202800002002FB1311F74A42F870
:103F90003100F748007A0A2190FBF1F201FB120090
:103FA000F44911F8104001212046FFF72BF91420A5
:103FB000FFF7C2FB00F014FEED49097A0A2291FBDB
:103FC000F2F302FB1311E94A02EBC1014860E84831
:103FD000007A0A2190FBF1F201FB1200E54901EBA6
:103FE0004000447801212046FFF70CF9E0494D7864
:103FF00005EBD5714910DD4A02EBC10148684FF06D
:104000007E51FCF79DFB01D8002007E0D84844789A
:1040100004EBD4704010D54951F83000D449097AE6
:104020000A2291FBF2F302FB1311D34A42F821005A
:10403000CF494C7804EBD4714910CC4A00E020E021
:1040400002EBC10148684FF07E51FCF779FB01D8C3
:10405000012000E00020C649097A0A2291FBF2F310
:1040600002FB1311C54A5054C148007A401CC04994
:10407000087203F0FBFDBE49486008464078401CCA
:104080004870E2E203F0F2FDB9494968401A16D0DF
:10409000B748007A0A2190FBF1F201FB1200B54902
:1040A00001EB4000447800212046FFF7ABF803F015
:1040B000DDFDAF49486008464078401C4870C4E2C6
:1040C00003F0D4FDAA494968401A03287BD3A848C5
:1040D000007A0A2190FBF1F201FB1200A54911F8C8
:1040E000104000212046FFF78DF87820FFF724FBD1
:1040F00000F076FD9E49097A0A2291FBF2F302FB59
:1041000013119A4A42F831009948007A0A2190FB2B
:10411000F1F201FB1200974911F8104001212046ED
:10412000FFF770F81420FFF707FB00F059FD9049E6
:10413000097A0A2291FBF2F302FB13118B4A02EB7C
:10414000C10148608A48007A0A2190FBF1F201FB24
:104150001200884901EB4000447801212046FFF716
:1041600051F883494D7805EBD57149107F4A02EB30
:10417000C10148684FF07E51FCF7E2FA01D80020F7
:1041800007E07B48447804EBD4704010774951F83D
:1041900030007749097A0A2291FBF2F302FB1311EE
:1041A000754A42F8210072494C7804EBD4714910E9
:1041B0006E4A02EBC10148684FF07E51FCF7C0FA2D
:1041C00002D8012001E016E000206949097A0A229C
:1041D00091FBF2F302FB1311684A50546448007AD1
:1041E000401C6349087203F041FD6149486008467C
:1041F0004078401C487028E203F038FD5C4949686B
:10420000401A16D05A48007A0A2190FBF1F201FBBD
:104210001200584901EB4000447800212046FEF787
:10422000F1FF03F023FD5249486008464078401CE6
:1042300048700AE203F01AFD4D494968401A032804
:104240007BD34B48007A0A2190FBF1F201FB12006C
:10425000484911F8104000212046FEF7D3FF78208E
:10426000FFF76AFA00F0BCFC4149097A0A2291FB87
:10427000F2F302FB13113D4A42F831003C48007A48
:104280000A2190FBF1F201FB12003A4911F81040AB
:1042900001212046FEF7B6FF1420FFF74DFA00F08B
:1042A0009FFC3349097A0A2291FBF2F302FB1311B6
:1042B0002E4A02EBC10148602D48007A0A2190FB8A
:1042C000F1F201FB12002B4901EB4000447801217F
:1042D0002046FEF797FF26494D7805EBD57149102A
:1042E000224A02EBC10148684FF07E51FCF728FAE0
:1042F00001D8002007E01E48447804EBD470401039
:104300001A4951F830001A49097A0A2291FBF2F34E
:1043100002FB1311184A42F8210015494C7804EBAE
:10432000D4714910114A02EBC10148684FF07E5127
:10433000FCF706FA02D8012001E016E000200C4943
:10434000097A0A2291FBF2F302FB13110B4A505433
:104350000748007A401C0649087203F087FC0449AC
:10436000486008464078401C48706EE144010020D7
:10437000380100202800002094010020BC0100200A
:1043800003F074FCB3494968401A16D0B148007A6A
:104390000A2190FBF1F201FB1200AF4901EB400052
:1043A000447800212046FEF72DFF03F05FFCA94969
:1043B000486008464078401C487046E103F056FCCF
:1043C000A4494968401A03287DD37820FFF7B4F93F
:1043D00000F006FC9F49097A0A2291FBF2F302FBE6
:1043E00013119E4A42F831009A48007A0A2190FB44
:1043F000F1F201FB1200984911F81040012120460A
:10440000FEF700FF1420FFF797F900F0E9FB914950
:10441000097A0A2291FBF2F302FB13118F4A02EB95
:10442000C10148608B48007A0A2190FBF1F201FB40
:104430001200894901EB4000447801212046FEF733
:10444000E1FE84494D7805EBD5714910834A02EBB2
:10445000C10148684FF07E51FCF772F901D8002085
:1044600007E07C48447804EBD47040107B4951F855
:1044700030007849097A0A2291FBF2F302FB13110A
:10448000774A42F8210073494C7804EBD471491003
:10449000724A02EBC10148684FF07E51FCF750F9B7
:1044A00001D8012000E000206A49097A0A2291FB24
:1044B000F2F302FB13116B4A50546648007A401C19
:1044C0006449087200E007E003F0D0FB61494860EE
:1044D00008464078401C4870B7E003F0C7FB5D49D0
:1044E0004968401A16D05B48007A0A2190FBF1F225
:1044F00001FB1200584901EB40004478002120469E
:10450000FEF780FE03F0B2FB52494860084640784F
:10451000401C487099E003F0A9FB4E494968401AD5
:1045200003287DD37820FFF707F900F059FB4949AC
:10453000097A0A2291FBF2F302FB1311474A42F86F
:1045400031004448007A0A2190FBF1F201FB12008D
:10455000414911F8104001212046FEF753FE142076
:10456000FFF7EAF800F03CFB3A49097A0A2291FB8E
:10457000F2F302FB1311394A02EBC10148603548DE
:10458000007A0A2190FBF1F201FB1200324901EBA3
:104590004000447801212046FEF734FE2D494D7835
:1045A00005EBD57149102D4A02EBC10148684FF067
:1045B0007E51FCF7C5F801D8002007E02548447873
:1045C00004EBD4704010254951F830002149097A94
:1045D0000A2291FBF2F302FB1311214A42F8210057
:1045E0001C494C7804EBD47149101C4A02EBC10100
:1045F00048684FF07E51FCF7A3F801D8012000E095
:1046000000201449097A0A2291FBF2F302FB1311EC
:10461000144A50540F48007A401C0E49087200E0BA
:1046200007E003F023FB0B49486008464078401C34
:1046300048700AE003F01AFB06494968401A03D0A3
:10464000002004494870087200BF00BF00BFFFF798
:104650008FB800003801002028000020440100200D
:1046600094010020BC0100200020704770B5054671
:10467000304800EB05142068804700283ED02079A0
:10468000062802DA0620207152E020790C2803DA8D
:104690002079401C20714BE0A07A38B90120A0722B
:1046A00005EB4501491CC8B201F068FE20890028CD
:1046B0003EDDE088218988420DDAE088401C80B226
:1046C000E0802189884233D105EB4501C91CC8B27D
:1046D00001F054FE2CE0E07A002829DD207B401C0C
:1046E000C0B22073E17A884222DB0020207305EB00
:1046F0004501491CC8B201F041FE19E020790628A5
:1047000002DD0620207110E0207918B12079401ECA
:1047100020710AE0A07A012807D10020A07205EBE1
:104720004501891CC8B201F029FE0020E0802073F9
:1047300070BD0000D4260020002004494870486065
:10474000488108720120087070470000380100207D
:104750001FB501210420FCF757FF4FF40040ADF8CE
:104760000C0004208DF80F0003A92E48FCF7DEFB97
:1047700001210846FCF748FF0F210020FCF7B6FB9B
:104780004FF40040019000208DF8080010208DF8B3
:10479000090001208DF80A0001A8FCF75DFB282024
:1047A0008DF800000F208DF8010000208DF8020028
:1047B00001208DF803006846FCF7C8FE0121402067
:1047C000FCF722FF0820ADF80C0004208DF80F0044
:1047D00003A91548FCF7AAFB01210846FCF714FFC2
:1047E00003210420FCF782FB0820019000208DF8B3
:1047F000080010208DF8090001208DF80A0001A89A
:10480000FCF72AFB09208DF800000F208DF801002D
:1048100000208DF8020001208DF803006846FCF7A7
:1048200095FE1FBD000801400018014070B53548D5
:10483000007800B970BD3348406830B101280CD011
:1048400002283AD0032859D14AE000F061F82D48F7
:104850004068401C2B49486050E0FEF715FE0446B6
:1048600000F038FA0546032C0AD000F0B9FA03F03C
:10487000FDF92449886008464068401C48601BE0F8
:1048800021492846FBF75CFF07D820492846FBF75B
:104890004DFF02D800F03CF80EE01B492846FBF71C
:1048A00045FF02D200F048F806E018492846FBF719
:1048B00047FF01D200F036F820E003F0D7F91149A4
:1048C0008968401AB0F5487F09D301F079FD03F0FB
:1048D000CDF90C49886008464068401C48600DE0EE
:1048E00003F0C4F907498968401AB0F5487F04D33A
:1048F00000F00EF801200349486000BF00BF00BF70
:1049000098E70000C80100209A99993F00002040D4
:1049100010B50321002001F0FDFE0321012001F06C
:10492000F9FE10BD10B50221002001F0F3FE0421B4
:10493000012001F0EFFE10BD10B50421002001F0B0
:10494000E9FE0221012001F0E5FE10BD0146002034
:10495000044A02EBC10250680022024B03EBC10380
:104960005A607047280500202DE9F04F99B00024C7
:104970005320189098481790FEF71AFD05464D20D1
:104980001690002001F0A0F900B21590012001F06E
:104990009BF900B21490002000F094F98F4909901F
:1049A000FBF7B0FC0A90FBF77BFE80B2139001206E
:1049B00000F088F989490990FBF7A4FC0A90FBF7FD
:1049C0006FFE86B2022000F07DF984490990FBF762
:1049D00099FC0A90FBF764FE87B2032000F072F99D
:1049E0007E490990FBF78EFC0A90FBF759FE1FFAEF
:1049F00080F8042000F066F978490990FBF782FC02
:104A00000A90FBF74DFE1FFA80F9052000F05AF9D5
:104A100072490990FBF776FC0A90FBF741FE1FFAFA
:104A200080FA062000F04EF96C490990FBF76AFC09
:104A30000A90FBF735FE1FFA80FB072000F042F9D1
:104A400066490990FBF75EFC0A90FBF729FE80B2ED
:104A50001290082000F036F960490990FBF752FCEB
:104A60000A90FBF71DFE80B21190092000F02AF990
:104A70005A490990FBF746FC0A90FBF711FE80B2F9
:104A8000109003F0F3F80F90002001F015F90E904C
:104A9000012001F011F90D9000F0ECF80C9000F0FD
:104AA000FDF80B90AA204C4908704870887030209F
:104AB000C87000200871169848710E98C1F8060059
:104AC0000D98C1F80A001598C881149808820C98AE
:104AD000C1F812000B98C1F8160008464583002063
:104AE0000877FEF7D1FC3C4948770020C88381F85D
:104AF00020001398A1F821000846A0F82360A0F830
:104B00002570A0F82780A0F82990A0F82BA0A0F885
:104B10002DB01298A1F82F001198A1F8310010982B
:104B2000A1F83300002081F83500C886088748873F
:104B300081F83C0081F83D0081F83E0081F83F009B
:104B40000F980864002048648864C86481F85000A5
:104B500081F85100552081F852001898801FC1B289
:104B60001798C01CFEF76AFC044620121A4981F807
:104B7000500081F8514000BF282101A8FBF75FFBDE
:104B80002846FBF748FD01903046FBF74DFD0290AB
:104B90003846FBF749FD03904046FBF745FD04907E
:104BA0004846FBF741FD05905046FBF73DFD06905A
:104BB0005846FBF739FD07901298FBF735FD089032
:104BC0001198FBF731FD09901098FBF72DFD0A9025
:104BD00019B0BDE8F08F0000D40400200000C842E6
:104BE0002DE9F84F00250326002700BF17E0072313
:104BF00001220E211748FBF7BFFF01211548FCF7E2
:104C00001CF800BF02211348FBF77AFF0028F9D0F7
:104C10001048FBF771FF04462744681CC5B2B54233
:104C2000E5DB3046FBF700FD83463846FBF7FCFC2E
:104C300059460090FBF798FB82460749FBF762FB59
:104C400081464FF08B41FBF78FFB80464046BDE825
:104C5000F88F0000002801403333534010B5802105
:104C60000348FCF737FA08B1012010BD0020FCE72B
:104C7000001C01402DE9F041064806694169002207
:104C8000054B3046FBF755FC0446FBF71DFDBDE820
:104C9000F0810000C005002000408F402DE9F04168
:104CA00006488669C1690022054B3046FBF741FC86
:104CB0000446FBF709FDBDE8F0810000C0050020B7
:104CC00000408F400146024850F821007047000024
:104CD000940100200148406A7047000094010020C0
:104CE0000B48807A0A4AD27A904201D1002070475C
:104CF0000748807A064A115C1046807A401CC0B290
:104D000090720A2801DB002090720846EFE700004D
:104D10007427002001460020244A914201D1C81482
:104D200042E0234A914201D148143DE0214A914298
:104D300002D14FF4002037E01F4A914202D14FF4D4
:104D4000801031E01D4A914202D14FF400102BE057
:104D5000B1F1804F01D1012026E0194A914201D1E1
:104D6000022021E0174A914201D104201CE0164A9A
:104D7000914201D1082017E0144A914201D110203C
:104D800012E0134A914201D120200DE0114A9142D4
:104D900001D1402008E0104A914201D1802003E077
:104DA0000E4A914200D1881570470000002C014046
:104DB00000340140004C01400050014000540140CB
:104DC0000004004000080040000C004000100040BB
:104DD0000014004000180040001C0040002000406B
:104DE00010B56FF00501002001F094FC6FF0050193
:104DF000012001F08FFC10BD10B56FF00301002001
:104E000001F088FC6FF00301012001F083FC10BD6C
:104E100010B500BF7E4A125C32B1012A58D0022A76
:104E20006CD0032A53D179E0B1F52F7F0CDD40F22D
:104E30004C42914208DA0123754A1354002374321C
:104E40001354121D135442E041F28832914230DD76
:104E500000EB40036E4A3032D35C00EB40040C3A66
:104E6000135500EB40030C321A44537800EB400416
:104E7000674A24322244537000EB4003644A3032C4
:104E80001A44937800EB4004614A24322244937020
:104E9000002300EB40045E4A3032135500EB40041F
:104EA0002244537000EB4004594A3032224493703C
:104EB0000DE0584A12781AB90122564B1A7006E0D2
:104EC000544A1278012A02D10222524B1A709DE0F4
:104ED000B1F59D7F06DBB1F5167F03DA02234C4A5C
:104EE00013540AE0962905DDFA2903DA0023484A1B
:104EF000135402E00023464A135487E00A2908DDD0
:104F0000642906DA0323424A13546C3222F8101043
:104F100003E000233E4A13547CE777E03C4A6C32BE
:104F200032F810200A4493B2394A7C3222F8103009
:104F3000083A125C5206130E354A74321354083282
:104F400032F810205C2A05DD314A7C3232F810201C
:104F5000842A18DB2E4A7C3232F81020CD2A0EDD4E
:104F60002B4A7C3232F81020F52A08DA284A7432AB
:104F7000125C521CD3B2264A7432135403E000234D
:104F8000234A135446E7224A7832125C521CD3B2A9
:104F90001F4A78321354125C082A33D11C4A7432E7
:104FA000135C703A02F82030002370321354703AC8
:104FB00012F82020272A06D1012300EB4004144ACE
:104FC000303213551AE0124A121D12F82020382AE6
:104FD00007D1012300EB40040D4A303222445370C4
:104FE0000CE00B4A121D12F82020162A06D10123CC
:104FF00000EB4004064A3032224493700023044AF6
:10500000135403E00223024A135400BF00BF10BD33
:105010008C2700207400002010B588B001211020DA
:10502000FCF7F2FA01210220FCF7DEFA0121084622
:10503000FCF7EAFA01214D48FCF704F803208DF84B
:105040001E0004208DF81F004FF47070ADF81C0096
:1050500007A94748FBF76AFF1D208DF818000020BC
:105060008DF819008DF81A0001208DF81B0006A894
:10507000FCF76CFA40F2CF244FF6FF70ADF8100049
:10508000ADF80C400020ADF81200ADF80E008DF820
:10509000140003A93748FDF719F80220ADF8020003
:1050A0000120ADF804000020ADF80600ADF80800BE
:1050B000ADF8000069462F48FCF718FE0420ADF853
:1050C000000069462B48FCF711FE0820ADF80000EF
:1050D00069462848FCF70AFE0C20ADF80000694636
:1050E0002448FCF703FE012202212248FCF754FE6B
:1050F000012204211F48FCF74FFE012208211D4810
:10510000FCF74AFE012210211A48FCF745FE012255
:1051100011461848FCF740FE002017490880087225
:10512000012081F8200000204880002112484172AF
:10513000012180F8211000200F49888000210E48AD
:105140008172012180F8221000200B49C8800021C3
:105150000948C172012180F8231000F0B1F8012143
:105160000448FCF786FD08B010BD0000000C1A00D2
:1051700000100140000400408427002070B588B072
:105180000446474B0FCB04AD0FC50021454820F81E
:10519000141024B94448FCF787FD054613E0012CA0
:1051A00004D14148FCF783FD05460CE0022C04D1F4
:1051B0003D48FCF77FFD054605E0032C03D13A4846
:1051C000FCF77BFD05463748001F005DC8B904A801
:1051D00030F8240080B2ADF804000220ADF80600DB
:1051E0000120ADF808000020ADF80A00ADF80C0071
:1051F00001A92D48FCF77AFD01212A48001F01551D
:1052000019E004A830F8240080B2ADF804000020B2
:10521000ADF806000120ADF808000020ADF80A0046
:10522000ADF80C0001A92048FCF760FD00211D48E5
:10523000001F015500BF1B48243830F81400A84255
:1052400006DC1848243830F81400281A86B20EE01C
:105250001448243830F81400A84208DD11482438D6
:1052600030F814004FF6FF71081A284486B20D4832
:105270001C38005D50B90B48243830F8140028B9A8
:105280000848243820F8145008B070BD0548243868
:1052900020F8145031462046FFF7BAFD00BFF3E76F
:1052A000E47F0008A827002000040040024602EB2B
:1052B000420302481844405C70470000B0270020B9
:1052C000002008494864002106488164C1640165E2
:1052D00041658165C165016641668166C166016798
:1052E000704700008427002010B588B00446284B82
:1052F0000FCBCDE90623CDE90401264830F8140090
:10530000022842DA234830F81400401C81B22148B8
:1053100020F81410022938D104A830F8240080B2F3
:10532000ADF804000220ADF806000120ADF8080039
:105330000020ADF80A00ADF80C0001A91648FCF7F2
:10534000D5FC01211348001F0155002118380155D3
:1053500004EB44022430815404EB440210444170B5
:1053600004EB44020B4808301044817004EB440203
:1053700008481430815404EB44021044417004EB9B
:105380004402044814301044817008B010BD00007D
:10539000D47F0008A82700200004004070B505460F
:1053A0000C4645F25550FBF7EBFE2846FBF7DCFEBA
:1053B0002046FBF7DFFEFBF7CFFEFBF7C5FE70BD17
:1053C00010B5FBF7C9FE10BD10B54FF44070FCF7E7
:1053D000F5F800F097F800F05FF800F023FA00F01D
:1053E000DDFB4FF4FA70FEF79DF900F093FA002010
:1053F00001F062FB012001F05FFB00F0ADF900F06D
:1054000006F900F0A9F800F09FF800F0DBF90020A1
:1054100000F0E6F9012000F0E3F900F053F800F0A5
:10542000A1FA00F063FA00F0EBF800BF00F026F8F4
:1054300004462CB907A0FDF7DFF86420FEF772F9E7
:10544000002CF3D000F072F8FFF7E6FD07A0FDF79F
:10545000D3F810BD4157393532334220496E697453
:10546000204572726F720D0A00000000B3F5CABCCD
:10547000BBAFCDEAB1CF0D0A0000000010B500F0BF
:10548000E7F900F09FF8FDF7F4FF08B9002010BD20
:1054900000F008FA0120FAE708B501210820FCF71E
:1054A000B3F803208DF8020014208DF803004FF4A8
:1054B0000050ADF8000069460148FBF737FD08BD14
:1054C000000C014008B501218420FCF79DF8032061
:1054D0008DF8020048208DF803002020ADF8000070
:1054E00069460648FBF722FD4FF48070ADF80000D6
:1054F00069460348FBF71AFD08BD0000000801409B
:10550000001C01400748006840F0807005490860B1
:105510000020054948600846006840F00100086026
:1055200070470000FCED00E0001000E010B5FDF752
:1055300023FE0020034908704870486048810872C3
:1055400010BD00003801002010B500F001F810BDBA
:1055500010B5FFF7FDF810BD7FB501210820FCF75D
:1055600043F81548006846081448B6FBF0F085B2C9
:105570004FF6FF74ADF80840ADF804500020ADF8C8
:105580000A00ADF8060001A90D48FCF79FFD0121B6
:105590000B48FCF76EFB32208DF8000004208DF8DC
:1055A000010000208DF8020001208DF803006846FC
:1055B000FBF7CCFF7FBD00008C00002040420F00B5
:1055C000000C004008B501210420FCF71DF8032061
:1055D0008DF8020014208DF803001020ADF80000B3
:1055E00069460648FBF7A2FC0220ADF800006946B8
:1055F0000248FBF79BFC01F08DFB08BD0008014051
:1056000010B540F271210420FFF7C8FE10BD10B59F
:1056100000F04CF800F002F810BD000008B50121C0
:10562000C420FBF7F1FF03208DF8020048208DF81D
:1056300003008020ADF8000069461B48FBF776FCAC
:105640004FF48070ADF8000069461748FBF76EFC18
:105650004FF48060ADF8000069461348FBF766FC24
:105660008020ADF8000069460F48FBF75FFC802002
:10567000ADF8000069460C48FBF758FC8020ADF8F7
:10568000000069460848FBF751FC8020ADF8000097
:1056900069460548FBF74AFC8020ADF800006946E2
:1056A0000148FBF743FC08BD0018014000211E4AD9
:1056B0009172D1721173002018E050211B4A02EB45
:1056C000001211810321194A02EB0012117100210D
:1056D000164A02EB00129172144A02EB0012D172C8
:1056E000124A02EB00121173411CC8B20A28E4DB13
:1056F00050210E4A11810021D1720D4911600D49CE
:1057000011610D4911620D4911630D4911640D4973
:1057100011650D4911660D4911670D49C2F88010D8
:105720000C49C2F89010704774270020D42600203E
:10573000F11300084914000875140008A1140008AA
:10574000B9140008D1140008E91400080115000874
:10575000191500081D14000808B501218020FBF769
:1057600053FF012000F048FA022000F045FA032020
:1057700000F042FA042000F03FFA03208DF8020006
:1057800010208DF803000820ADF8000069460C4891
:10579000FBF7CCFB0420ADF8000069460848FBF796
:1057A000C5FB0220ADF8000069460548FBF7BEFBCB
:1057B0000820ADF8000069460148FBF7B7FB08BDBB
:1057C000001C014010B5002140F60F6000F0F0F819
:1057D000002140F60F6000F06BF900F0E7F910BD12
:1057E00058B90D490D4A11600D4951600021916071
:1057F000D1601161516191610DE001280BD1064921
:10580000064AD161064A05490A6200224A628A6252
:10581000CA620A634A6370470000164338050020D5
:105820000000704208B501210802FBF7EDFE0320DD
:105830008DF8020010208DF803000220ADF8000062
:1058400069460248FBF772FB08BD000000200140DA
:1058500008B501218020FBF7D7FE03208DF8020058
:1058600010208DF80300C001ADF8000069460C4817
:10587000FBF75CFB4FF400610948FBF736FC0220A4
:10588000FDF750FF4FF400610548FBF72CFC282082
:10589000FDF752FF4FF400610148FBF726FC08BDFD
:1058A000001C014008B50020009000900122042156
:1058B0006846FDF72EFC0020009001220521684675
:1058C000FDF727FC10200090012211216846FDF70A
:1058D00020FCFF200090012202216846FDF719FC00
:1058E000012203216846FDF714FC08BD0020084989
:1058F0000870486088600520087348730320887327
:105900000B20C8730020087448748874C8747047EA
:105910001006002008B50121C020FBF775FE00200D
:1059200001F0B2F8012001F0AFF803208DF8020079
:1059300010208DF80300C002ADF80000694607484A
:10594000FBF7F4FA14208DF803000120ADF80000F5
:1059500069460348FBF7EAFA08BD00000018014059
:10596000001C014008B501212020FBF74DFE03205B
:105970008DF8020010208DF803000220ADF8000021
:1059800069460A48FBF7D2FA0420ADF800006946E0
:105990000648FBF7CBFA28208DF803000120ADF86C
:1059A000000069460148FBF7C1FA08BD0014014038
:1059B00030B589B005460C460121C802FBF724FE2C
:1059C00001214120FBF720FE01213648FBF73AFB7D
:1059D0004FF4D440ADF8200018208DF823000320A8
:1059E0008DF8220008A93048FBF7A0FAADF808505E
:1059F000ADF804400020ADF80A00ADF8060001A99A
:105A00002A48FCF763FB6020ADF810000120ADF8D8
:105A100012000020ADF81800ADF81400ADF81A001F
:105A2000ADF81C00ADF81E0004A92048FCF7BEF933
:105A300008211E48FCF706FA04A91C48FCF70CFADA
:105A400008211A48FCF75AFA04A91848FCF764FA26
:105A500008211648FCF7B0FA04A91448FCF7B6FA76
:105A600008211248FCF7F0FA01211048FCF701F96F
:105A700001210E48FCF709F94FF461610B48FCF76E
:105A8000F0FA4FF461610948FCF7EDFA4FF46161F7
:105A90000648FCF7EAFA4FF461610448FCF7E7FABC
:105AA00009B030BDC000160000180140002C0140B4
:105AB00030B589B005460C4601210420FBF794FD62
:105AC00001212120FBF7A0FD01210803FBF7BAFA11
:105AD0004FF47040ADF8200018208DF8230003200B
