:020000040800F2
:10000000B0A300204501000861110008A10D0008FF
:100010005D110008CD0900089921000800000000CA
:10002000000000000000000000000000191300089C
:10003000910A000800000000E911000805140008FA
:100040005F0100085F0100085F0100085F01000810
:100050005F0100085F0100085F0100085F01000800
:100060005F010008C10A00085F0100085F01000885
:100070005F0100085F0100085F0100085F010008E0
:100080005F0100085F0100085F0100085F010008D0
:10009000391F00085F0100085F0100085F010008C8
:1000A0005F0100085F0100085F0100085F010008B0
:1000B0005F0100080D1700085F0100085F010008DC
:1000C0005F0100085F0100085F0100085F01000890
:1000D0005F0100085F010008651D0008751D00082C
:1000E000950A00085F0100085F0100085F01000831
:1000F0005F0100085F0100085F0100085F01000860
:100100005F0100085F010008A11700085F010008F7
:10011000451D0008551D00085F0100085F0100082B
:100120005F0100085F0100085F0100085F0100082F
:10013000DFF80CD000F010FC004800475F4D0008CD
:10014000B0A300200648804706480047FEE7FEE7C8
:10015000FEE7FEE7FEE7FEE7FEE7FEE7FEE7FEE777
:100160006D14000831010008F0B480EA0102D40FD8
:100170004200B2EB410F02D20246084611464A0045
:1001800042D0C30DDDB2C1F3C752AD1A202D35DA0E
:10019000C1F3160141F4000204B15242C5F1200638
:1001A00002FA06F12A411044B3EBD05F23D0C4B168
:1001B000012DA0EBC35009DCF0BC4FF0004202EA75
:1001C000C352DBB200F5000000F00BBB400000F1B1
:1001D000807000EBC350A0F1807040EAD1704900FC
:1001E00009E0490841EAC071A0EBC35000F50000E6
:1001F000400800EBC350F0BC00F0EABA61420122B3
:1002000002EB4101001BF6E7F0BC704781F00041B2
:10021000AAE780F00040A7E780EA010210B502F0EB
:100220000043400022D04A001FD0010E01EB1261B2
:10023000C0F35600C2F3560240F4000042F400023C
:10024000A0FB022000047F39140400D0401C50EAB7
:10025000124001D44000491EC2B20C0604EBD0107B
:10026000401C4008802A02D003E0002010BD20F08E
:100270000100002900DA0020184310BD30B480EAE4
:10028000010202F0004530F0004221F0004013D09E
:1002900090B1C30DD40DC2F31601C0F31600E41AD9
:1002A00041F4000140F400027D34914201D3641C0A
:1002B00000E04900002C02DA30BC002070474FF407
:1002C00000000023914201D3891A034340084FEAFA
:1002D0004101F7D151B1914202D14FF0004105E007
:1002E00002D24FF0010101E06FF0010103EBC450B5
:1002F000284430BC00F06CBA2DE9FE4F804681EAFC
:100300000300C00F0C46009021F0004123F000458F
:10031000B8EB0200A94105D24046214690461C4652
:100320000B46024623F00040104347D0270DC7F389
:100330000A00C3F30A510290401A019040286BDA78
:10034000C3F3130040F4801B0098924620B10023B1
:10035000D2EB030A63EB0B0B01985946C0F1400244
:10036000504600F004FA06460D4650465946019A9A
:1003700000F01CFA10EB08006141002487EA1152DA
:1003800084EAE7731A4340D0009A62B3019A012AC3
:100390004FEA075215DC001B61EB02014FF00042EF
:1003A00002EA0752CDE90042001C41F580113246B5
:1003B0002B4600F053FA03B0BDE8F08F40462146CB
:1003C000F9E7001B61EB0201001C41F580130018E6
:1003D0005B412018A2F5001747EB030140EAD570F6
:1003E000B6196D4111E06D084FEA360645EAC07551
:1003F0004FEA0752001B61EB0201001C41F580111E
:1004000049084FEA30000019514132462B4603B0EB
:10041000BDE8F04F00F013BA00980122400000231D
:10042000D0EB020263EBE073009821464FEAE074E0
:10043000B8EB000061EB0401E9E783F000435BE700
:1004400081F0004158E72DE9FE4F81EA030404F0F2
:10045000004421F0004100944FF0000B23F00043D2
:1004600050EA01045ED052EA03045BD0C3F30A549D
:10047000C1F30A552C44A4F2F3340194A0FB0254B6
:10048000C1F3130141F48011C3F3130343F4801348
:1004900001FB024400FB034E840A970A44EA81549C
:1004A00047EA8357A4FB076802958D0A05FB078579
:1004B0004FEA932C04FB0C542705029D4FEA065883
:1004C00047EA1637B5EB08056EEB070C870E920E60
:1004D00047EA811742EA8312A7FB0201B6EB0B0140
:1004E00064EB00042B0D43EA0C335E1844EB1C5004
:1004F000DA465146E7FB0201C5F313044FEA0B331A
:1005000043EA14534FEA0432019C43EA0603A4F180
:100510000C040294009CCDE900B400F09FF903B0F4
:10052000BDE8F08F00200146F9E72DE9F04D81EAA2
:10053000030404F0004B21F0004514464FF0000A7C
:1005400023F0004150EA050220D054EA01021DD0F8
:10055000C5F30A570246C5F31303C1F31300C1F3F1
:100560000A5640F4801543F48013A7EB0608101BCD
:10057000D64608F2FD3873EB050002D308F10108F6
:1005800001E092185B41B8F1000F03DA0020014648
:10059000BDE8F08D00204FF48011064684460EE041
:1005A000171B73EB050705D3121B63EB050306430B
:1005B0004CEA010C49084FEA300092185B4150EABE
:1005C0000107EDD152EA030012D082EA040083EA67
:1005D0000501084305D0101BAB4106D201220023C0
:1005E00006E000224FF0004302E06FF001025310DA
:1005F0001AEB06004CEB085110EB0A0041EB0B0123
:10060000BDE8F04D00F01BB9C10F80EAE07008446E
:10061000CA079623002100F0E4B80EB540F233413A
:1006200002910021CDE900110A460B4600F016F9AF
:1006300003B000BD00F0004220F00040C10DC0F347
:10064000160040F400007F2901DA00207047962947
:1006500003DCC1F19601C84001E096398840002AC8
:10066000F4D04042704770B5C1F30A5201F0004522
:100670000024C1F3130140F2FF3341F480119A4288
:1006800001DA002070BD40F233439A42A2F23342B5
:1006900003DC524200F07AF800E090402C43F1D0A5
:1006A000404270BD00F0004230F000400AD0C10D61
:1006B00001F56071C0F3160042EA0151C20840071B
:1006C000114370470020014670470000002801DBFD
:1006D000C0F10040002901DBC1F1004181427047B7
:1006E00030B50B46014600202022012409E021FA02
:1006F00002F59D4205D303FA02F5491B04FA02F5FF
:100700002844151EA2F10102F1DC30BD2DE9F05F95
:100710000546002092469B46884606468146402470
:100720001BE0284641464746224600F02FF8534634
:100730005A46C01A914110D311461846224600F07D
:1007400016F82D1A67EB01084F46224601200021BA
:1007500000F00DF817EB00094E41201EA4F1010432
:10076000DFDC484631462A464346BDE8F09F202A52
:1007700004DB203A00FA02F1002070479140C2F1F8
:10078000200320FA03F3194390407047202A04DB2A
:10079000203A21FA02F00021704721FA02F3D040FA
:1007A000C2F120029140084319467047202A06DB17
:1007B000CB17203A41FA02F043EAE07306E041FA2F
:1007C00002F3D040C2F1200291400843194670471D
:1007D0000029A8BF7047401C490008BF20F0010055
:1007E000704710B4B0FA80FC00FA0CF050EA010433
:1007F00004BF10BC704749B1CCF1200421FA04F4C5
:1008000011FA0CF118BF012121430843A3EB0C019D
:10081000CB1D4FEA00614FEA102042BF002010BC00
:10082000704700EBC35010440029A4BF10BC7047B0
:10083000401C490008BF20F0010010BC704710B5F3
:10084000141E73F1000408DA401C41F100019218F3
:100850005B411A4301D120F0010010BD2DE9F04D9C
:1008600092469B4611B1B1FA81F202E0B0FA80F2F1
:1008700020329046FFF77BFF04460F4640EA0A000D
:1008800041EA0B0153465A46084313D0114653EA36
:10089000010019D0C8F140025046FFF777FF054626
:1008A0000E46504659464246FFF761FF084305D0C1
:1008B000012004E020463946BDE8F08D00200543C4
:1008C00046EAE0762C4337430A986305E40AA0EB36
:1008D00008000022FD0A44EA47540A3002D50020ED
:1008E0000146E9E7010510196941DDE908450019EC
:1008F0006941BDE8F04DA2E7C1F30A52C1F313010B
:1009000040F2FF3341F480119A4202DA002001469E
:10091000704740F233439A42A2F2334202DC524221
:10092000FFF734BFFFF723BF30B5041E71F1000499
:1009300004DB4FF00044404264EB0101141E73F1EC
:10094000000405DB1C464FF00043524263EB0403F6
:10095000994208BF904230BD064C074D06E0E06862
:1009600040F0010394E8070098471034AC42F6D3F6
:10097000FFF7E2FB704F0008904F000870B521F0C0
:10098000004303430CD0C1F30A550024D5EB040502
:1009900064EB0403D617AD1AB34102DB0020014615
:1009A00070BD201841EB025170BD0EB5C10F80EA39
:1009B000E0700844CA07002140F233438DE80E007E
:1009C0000A460B46FFF74AFF03B000BD00BFFEE733
:1009D000014609B900207047012901D10748FAE70B
:1009E000022901D10648F6E7032901D10548F2E7BB
:1009F000042901D10448EEE70020ECE7840200203E
:100A0000AC0A0020D4120020FC1A002008B52620D1
:100A10008DF8000001208DF802008DF80300684673
:100A200000F0A0FB27208DF8000002208DF80200C6
:100A300001208DF80300684600F094FB34208DF807
:100A4000000003208DF8020001208DF803006846A5
:100A500000F088FB35208DF8000004208DF802009E
:100A600001208DF80300684600F07CFB08BD000003
:100A700029B1064A52680243044B5A6004E0034A13
:100A800052688243014B5A6070470000002004E026
:100A90007047000010B54FF4004000F02BF860B133
:100AA0004FF4004000F020F804480068401C03495F
:100AB000086008464068401C486010BDE000002007
:100AC00010B5082000F016F858B1082000F00CF816
:100AD00004488068401C034988600846C068401C80
:100AE000C86010BDE00000200149086070470000A8
:100AF00014040140014600200022074B1B6803EA52
:100B00000102054B14331B680B4013B10AB10120DD
:100B100000E000207047000000040140002123494C
:100B20008279002A3AD00A46126803689A430B4633
:100B30001A600A1D126803689A430B1D1A60027935
:100B400011440A6803681A430A60184A0832126896
:100B500003689A43154B08331A601A1D126803681C
:100B60009A43124B0C331A604279102A0ED11A1F85
:100B7000126803681A430D4B08331A601A1D126875
:100B800003681A43094B0C331A600DE00749427998
:100B900011440A6803681A430A6005E002791144A7
:100BA0000A6803689A430A60704700000004014025
:100BB00030B500228B071C0F0F2303FA04F20B4BF6
:100BC0008C1053F824309343084C8D1044F8253092
:100BD00023468C1053F824308C07240F00FA04F4B9
:100BE0002343024C8D1044F8253030BD08000140ED
:100BF0002DE9F041024600250026002000230024B4
:100C0000002791F803C00CF00F0591F803C00CF019
:100C1000100CBCF1000F03D091F802C04CEA05059E
:100C200091F800C0BCF1000F31D0146800202BE017
:100C30004FF0010C0CFA00F3B1F800C00CEA030607
:100C40009E4220D183004FF00F0C0CFA03F7BC43F7
:100C500005FA03FC4CEA040491F803C0BCF1280F28
:100C600006D14FF0010C0CFA00FCC2F814C00AE0E7
:100C700091F803C0BCF1480F05D14FF0010C0CFAFC
:100C800000FCC2F810C0401C0828D1D31460B1F891
:100C900000C0BCF1FF0F34DD546800202EE000F1ED
:100CA000080C4FF0010808FA0CF3B1F800C00CEA88
:100CB00003069E4221D183004FF00F0C0CFA03F77C
:100CC000BC4305FA03FC4CEA040491F803C0BCF1F0
:100CD000280F05D100F1080C08FA0CF8C2F81480AE
:100CE00091F803C0BCF1480F07D100F1080C4FF098
:100CF000010808FA0CF8C2F81080401C0828CED36E
:100D00005460BDE8F0810000F0B50A4600230024DD
:100D10000021002500F00046B6F1004F02D11D4E23
:100D2000F16901E01B4E7168C0F3034583B200F422
:100D30004016B6F5401F08D121F07061154E766857
:100D400026F07066134F7E6012E000F48016B6F550
:100D5000801F06D1032606FA05F4A14341F0706115
:100D600006E0460D360103FA06F6B14341F0706124
:100D700022B1460D360103FA06F6314300F0004673
:100D8000B6F1004F02D1034EF16101E0014E7160F6
:100D9000F0BD0000000001404161704701617047F3
:100DA00000BFFEE700B585B00121052000F02EFA56
:100DB0000121480400F01AFA0420ADF810001820B0
:100DC0008DF8130003208DF8120004A98648FFF760
:100DD0000FFF0820ADF8100004208DF8130004A9BF
:100DE0008148FFF705FF04A97F48FFF701FF4FF493
:100DF000E13000900020ADF80400ADF80600ADF839
:100E00000800ADF80C000C20ADF80A0069467748E0
:100E100001F01CF8012240F22551744800F0F1FF66
:100E20000121724800F0B7FF4021704800F0AAFF8E
:100E30000121082000F0EAF910208DF813000320AA
:100E40008DF812000420ADF8100004A96848FFF7DF
:100E5000CFFE0121092000F0D9F90121880400F01A
:100E6000C5F94FF48060ADF8100018208DF813001C
:100E700003208DF8120004A95D48FFF7B9FE4FF476
:100E80000060ADF8100004208DF8130004A9584844
:100E9000FFF7AEFE04A95648FFF7AAFE4FF4E13073
:100EA00000900020ADF80400ADF80600ADF8080091
:100EB000ADF80C000C20ADF80A0069464D4800F072
:100EC000C5FF012240F225514A4800F09AFF012156
:100ED000484800F060FF4021464800F053FF0121E0
:100EE000112000F093F90121C80400F07FF94FF4BC
:100EF0008060ADF8100018208DF8130003208DF8E5
:100F0000120004A93C48FFF773FE4FF40060ADF8EF
:100F1000100004208DF8130004A93748FFF768FE7D
:100F20004FF4E13000900020ADF80400ADF8060069
:100F3000ADF80800ADF80C000C20ADF80A006946C9
:100F40002E4800F083FF012240F225512B4800F08B
:100F500058FF0121294800F01EFF4021274800F0DA
:100F600011FF0121312000F051F90121080500F0A5
:100F70003DF94FF48050ADF8100018208DF81300A3
:100F800003208DF8120004A91B48FFF731FE04204E
:100F9000ADF810008DF8130004A91948FFF728FEDA
:100FA0004FF4E13000900020ADF80400ADF80600E9
:100FB000ADF80800ADF80C000C20ADF80A00694649
:100FC000104800F043FF012240F225510D4800F087
:100FD00018FF01210B4800F0DEFE4021094800F017
:100FE000D1FE05B000BD00000008014000440040F3
:100FF000000C01400048004000100140004C00403F
:1010000000140140005000400948006800F480606E
:1010100058B90748006800F4807030B1044800688F
:1010200000F0800008B1012070470020FCE70000BC
:10103000081801400948006800F4806058B9074862
:10104000006800F4807030B10448006800F080004F
:1010500008B9012070470020FCE700000818014093
:101060000948006800F4806058B10748006800F43F
:10107000807030B90448006800F0800008B1012099
:1010800070470020FCE7000008180140094800688C
:1010900000F4806058B10748006800F4807030B1F7
:1010A0000448006800F0800008B901207047002063
:1010B000FCE70000081801400448006800F08000C8
:1010C000012800D170470020FCE70000081801400B
:1010D0000448006800F08000012800D1704700201B
:1010E000FCE70000081801400448006800F0800098
:1010F00008B9012070470020FCE7000008180140F3
:101100000448006800F0800008B901207047002002
:10111000FCE70000081801400448006800F0800067
:1011200008B9012070470020FCE7000008180140C2
:101130000948006800F4806058B90748006800F466
:10114000807030B90448006800F0800008B10120C8
:1011500070470020FCE700000818014000BFFEE7D0
:101160007047000070B5002100230F22C47804B33B
:10117000154C246804F4E064C4F5E064210AC1F16C
:101180000403CA40447804FA03F1847814402143EC
:1011900009010E4C0678A155047804F01F050124BE
:1011A000AC4005786D11AD0005F1E025C5F80041B2
:1011B00009E0047804F01F050124AC40044D0678D2
:1011C000761145F8264070BD0CED00E000E400E02B
:1011D00080E100E002490143024A116070470000CB
:1011E0000000FA050CED00E07047000029B1064A46
:1011F000D2690243044BDA6104E0034AD2698243B4
:10120000014BDA61704700000010024029B1064A24
:1012100092690243044B9A6104E0034A9269824353
:10122000014B9A61704700000010024030B5002168
:101230000022002400232D4D6D6805F00C0121B122
:10124000042905D0082923D105E0294D056022E0B5
:10125000274D05601FE0254D6D6805F47012234D84
:101260006D6805F48034022505EB92421CB9214DCE
:10127000554305600BE01D4D6D6805F400351DB14B
:101280001C4D5543056002E0194D5543056002E0D1
:10129000174D056000BF00BF144D6D6805F0F001EB
:1012A0000909154D6B5C0568DD4045600F4D6D68A3
:1012B00005F4E061090A104D6B5C4568DD4085600E
:1012C0000A4D6D6805F46051C90A0B4D6B5C4568A9
:1012D000DD40C560054D6D6805F44041890B074D43
:1012E0006B5CC568B5FBF3F5056130BD00100240CD
:1012F00000127A0000093D002A0000203A00002078
:101300000420014908607047100C01400420014985
:1013100008607047140C0140704710B500F002F8E7
:1013200010BD00000CB5002001900090334800680B
:1013300040F480303149086000BF3048006800F454
:10134000003000900198401C0190009818B9019855
:10135000B0F5A06FF1D12948006800F4003010B159
:101360000120009001E0002000900098012843D166
:101370002348006840F010002149086008460068D2
:1013800020F0030008600846006840F00200086092
:101390001A4840681949486008464068486008464D
:1013A000406840F4806048600846406820F47C1043
:1013B00048600846406840F4E81048600846006805
:1013C00040F08070086000BF0C48006800F00070BA
:1013D0000028F9D00948406820F003000749486018
:1013E0000846406840F00200486000BF034840687B
:1013F00000F00C000828F9D10CBD000000100240DC
:101400000020024010B500F001F810BD10B51348DF
:10141000006840B111480068401E1049086010B9CA
:1014200001200F4908700F480068401C0D490860F2
:1014300008460068401C08B90020086003F00AFB59
:1014400009480078401CC0B2074908700A2803DB2D
:101450000020087003F0F8FA10BD00000C00002016
:1014600010000020140000202800002010B51348B0
:10147000006840F0010011490860084640681049C2
:1014800008400E494860084600680E4908400B496C
:1014900008600846006820F480200860084640681C
:1014A00020F4FE0048604FF41F008860FFF735FF0E
:1014B0004FF000600449086010BD000000100240B9
:1014C0000000FFF8FFFFF6FE08ED00E0F0B50C4667
:1014D000154600220021068C4FF6FE773E4006841A
:1014E000028B018C4FF60C7632407E1C06EA031606
:1014F0002E433243104EB0420ED0104EB0420BD0AD
:10150000B0F1804F08D00E4EB04205D00D4EB04223
:1015100002D00D4EB04206D14FF6FD76314044F078
:101520000106314305E04FF6F576314044F00106FF
:10153000314302830184F0BD002C0140003401409E
:101540000004004000080040000C0040F0B50C46CC
:101550001546002200210026078C4FF6EF7C07EA93
:101560000C070784028B018C4FF6FF7707EA0416FD
:1015700040F6FF473A404FF6FF7707EA03373A4312
:101580004FF6FF7707EA05273A43114FB8420ED0CE
:10159000104FB8420BD0B0F1804F08D00E4FB84278
:1015A00005D00E4FB84202D00D4FB84206D14FF6CB
:1015B000DF77394046F01007394305E04FF65F7793
:1015C000394044F01007394302830184F0BD000024
:1015D000002C01400034014000040040000800409D
:1015E000000C0040F0B50C461546002200210026F4
:1015F000078C4FF6FF6C07EA0C070784828B018C7F
:101600004FF6FF7707EA04264FF60C773A404FF67D
:10161000FF7707EA03172F433A43114FB8420ED022
:10162000104FB8420BD0B0F1804F08D00E4FB842E7
:1016300005D00E4FB84202D00D4FB84206D14FF63A
:10164000FF57394046F48077394305E04FF2FF57A2
:10165000394044F48077394382830184F0BD00002F
:10166000002C01400034014000040040000800400C
:10167000000C0040F0B50C46154600220021002663
:10168000078C4EF6FF7C07EA0C070784828B018CDF
:101690004FF6FF7707EA043640F6FF473A404FF629
:1016A000FF7707EA05273A434FF6FF7707EA033744
:1016B0003A43114FB8420ED0104FB8420BD0B0F1A0
:1016C000804F08D00E4FB84205D00E4FB84202D01E
:1016D0000D4FB84206D14DF6FF77394046F480579A
:1016E000394305E047F6FF57394044F48057394302
:1016F00082830184F0BD0000002C014000340140D1
:101700000004004000080040000C004010B501211A
:10171000224800F0C3F878B10121204800F090F889
:10172000002002F06FF9012002F06CF9022002F0B3
:1017300069F9032002F066F90221184800F0AEF8BA
:1017400030B10221154800F07BF8002002F0C2F809
:101750000421124800F0A2F830B104210F4800F033
:101760006FF8012002F0B6F808210C4800F096F856
:1017700030B10821094800F063F8022002F0AAF80D
:101780001021064800F08AF830B11021034800F01B
:1017900057F8032002F09EF810BD0000000400403E
:1017A00010B50221214800F079F858B102211F48F4
:1017B00000F046F8002202211C4800F0D7F81C482F
:1017C000006880470421194800F068F858B10421E6
:1017D000164800F035F800220421144800F0C6F83D
:1017E0001448006880470821104800F057F858B1A5
:1017F00008210E4800F024F8002208210B4800F0D0
:10180000B5F80D48006880471021084800F046F8F8
:1018100058B11021054800F013F8002210210348A8
:1018200000F0A4F805480068804710BD000C004097
:10183000180000201C0000202000002024000020B0
:10184000CA430282704721B1028842F0010202803D
:1018500004E002884FF6FE731A400280704731B1EF
:10186000B0F8442042F40042A0F8442005E0B0F86B
:101870004420C2F30E02A0F8442070470146888E2F
:1018800070470146088F70470146888F70470146B0
:10189000B1F8400070470146888C704730B5024669
:1018A000002000230024158A05EA0103958905EA32
:1018B000010413B10CB1012000E0002030BD000094
:1018C00070B505460C46244885420ED02348854213
:1018D0000BD0B5F1804F08D02148854205D0214872
:1018E000854202D02048854200D100E000BF208818
:1018F00050B92389A28861882846FFF7E7FDE1886F
:10190000284600F0A1F925E0208804280AD123897F
:10191000A28861882846FFF719FEE188284600F072
:101920009CF917E0208808280AD12389A2886188B9
:101930002846FFF757FEE188284600F09BF909E0AA
:101940002389A28861882846FFF794FEE18828460B
:1019500000F099F970BD0000002C014000340140F6
:101960000004004000080040000C00401AB18389C8
:101970000B43838102E083898B438381704700009E
:1019800070B5002400220023058C4FF6FE7635400A
:101990000584028C8388048B4FF68F752C40B51E0E
:1019A0002C400D882C43751E2A400D892A434D88F2
:1019B0002A43144DA8420BD0134DA84208D0134D12
:1019C000A84205D0124DA84202D0124DA84213D110
:1019D0004FF6F7752A404D892A434FF6FB752A408A
:1019E0008D882A434FF6FF652B404FF6FF552B405D
:1019F0008D892B43CD892B4383800483CD888586B5
:101A0000028470BD002C01400034014000400140C0
:101A100000440140004801400A460021018B4FF676
:101A2000F7731940114301837047000070B500241B
:101A300000220023058C4FF6EF7635400584028C9A
:101A40008388048B48F6FF752C404FF6FF452C40E9
:101A50000D884FF6FF7606EA05252C434FF6DF7515
:101A60002A400D8906EA05152A434D8806EA051520
:101A70002A43154DA84202D0144DA8421DD14FF65D
:101A80007F752A404D894FF6FF7606EA05152A43F1
:101A90004FF6BF752A408D8806EA05152A434FF692
:101AA000FF352B404FF2FF752B408D8906EA8505E7
:101AB0002B43CD8906EA85052B4383800483CD889B
:101AC0000587028470BD0000002C014000340140F5
:101AD0000A460021018B4FF2FF7319404FF6FF7346
:101AE00003EA0223194301837047000070B5002404
:101AF00000220023058C4FF6FF6635400584028CDA
:101B00008388848B4FF68F752C404FF6FC752C40E4
:101B10000D882C434FF6FF552A400D894FF6FF766E
:101B200006EA05252A434D8806EA05252A43154D70
:101B3000A84202D0144DA8421DD14FF2FF752A4091
:101B40004D894FF6FF7606EA05252A434FF6FF3505
:101B50002A408D8806EA05252A434EF6FF752B405C
:101B60004DF6FF752B408D8906EA05152B43CD896F
:101B700006EA05152B4383808483CD8885870284FC
:101B800070BD0000002C0140003401400A460021D5
:101B9000818B4FF6F7731940114381837047000022
:101BA00070B5002200230024058C4EF6FF763540E8
:101BB0000584038C8488828B48F6FF752A404FF693
:101BC000FF452A400D884FF6FF7606EA05252A4391
:101BD0004DF6FF752B400D8906EA05352B434D88E0
:101BE00006EA05352B430B4DA84202D00A4DA84208
:101BF00008D14BF6FF752C408D894FF6FF7606EA2B
:101C000085152C4384808283CD88A0F840500384BE
:101C100070BD0000002C0140003401400A46002144
:101C2000818B4FF2FF7319404FF6FF7303EA0223D3
:101C30001943818370478186704701877047818788
:101C40007047A0F840107047028B4FF6F3731A40AC
:101C50000283028B0A4302837047028B4FF2FF33E9
:101C60001A400283028B4FF6FF7303EA01231A43E3
:101C700002837047828B4FF6F3731A408283828B04
:101C80000A4382837047828B4FF2FF331A4082836C
:101C9000828B4FF6FF7303EA01231A438283704756
:101CA000002202881D4B98420ED01D4B98420BD04B
:101CB000B0F1804F08D01B4B984205D01A4B984288
:101CC00002D01A4B984204D14FF68F731A404B88BA
:101CD0001A43174B984207D0164B984204D04FF640
:101CE000FF431A40CB881A4302808B8883850B8878
:101CF00003850A4B98420BD0094B984208D00E4BF3
:101D0000984205D00D4B984202D00D4B984201D11C
:101D10000B7A03860123838270470000002C014068
:101D2000003401400004004000080040000C004066
:101D300000100040001400400040014000440140F9
:101D40000048014010B5024800F0FCF810BD00004A
:101D5000D412002010B5024800F0F4F810BD0000C5
:101D6000FC1A002010B5024800F0ECF810BD00008D
:101D70008402002010B5024800F0E4F810BD000015
:101D8000AC0A002001F40072B2F5007F00D100BF60
:101D9000CA430280704721B1828942F40052828195
:101DA00004E082894DF6FF731A408281704770B556
:101DB0000246002400230025002040F66A16B142A6
:101DC00000D100BFC1F3421501F01F03012606FA3E
:101DD00003F3012D02D19689334006E0022D02D192
:101DE000168A334001E0968A33400C12012606FA27
:101DF00004F41688344013B10CB1012000E0002037
:101E000070BDF0B50346002400260025002040F6F2
:101E10006A17B94200D100BF1846C1F3421401F05D
:101E20001F06012707FA06F5012C01D10C3004E04A
:101E3000022C01D1103000E014301AB107682F4392
:101E4000076002E00768AF430760F0BD2DE9F04787
:101E500086B005460E460024A24600BFA1460027D4
:101E6000B08900B100BF2F462C8A4CF6FF700440A9
:101E7000F08804432C82AC894EF6F3100440B088FD
:101E800031890843718908430443AC81AC8A4FF619
:101E9000FF400440B0890443AC8201A8FFF7C6F9B3
:101EA0001F48874202D1DDF810A001E0DDF80CA048
:101EB000A88900F4004040B10AEBCA0000EB0A1008
:101EC00031684900B0FBF1F807E00AEBCA0000EB0B
:101ED0000A1031688900B0FBF1F86420B8FBF0F01B
:101EE00004012009642101FB1089A88900F4004045
:101EF00040B1322000EBC900B0FBF1F000F0070068
:101F0000044308E0322000EB09106421B0FBF1F03B
:101F100000F00F0004432C8106B0BDE8F0870000FC
:101F20000038014001468888C0F308007047C1F3BB
:101F300008028280704700000148C06970470000B5
:101F40000010024070B5044640F225512068FFF7AA
:101F50002EFFE0B12068FFF7E5FFC5B2E18AA06877
:101F60004554E08A401C80B2E082E189884201DB6E
:101F70000020E082608BE189884202DA608B401C9D
:101F80006083606A10B12846616A884700BF40F2EA
:101F900027712068FFF70BFF08B3A08A60B9002201
:101FA00040F227712068FFF72CFF012240F22661E2
:101FB0002068FFF726FF37E0638A6268D15C2068FB
:101FC000FFF7B5FF608A401C80B26082A189884219
:101FD00001DB00206082A08A401EA08224E040F243
:101FE00026612068FFF7E3FEF0B1A08A50B9002215
:101FF00040F226612068FFF704FF206AA0B1206A42
:10200000804711E0638A6268D15C2068FFF78FFF28
:10201000608A401C80B26082A189884201DB002076
:102020006082A08A401EA08270BDF8B504460E46AC
:102030001746002529E00EE0012000F005FCA08AEB
:102040000090002000F000FCA089BDF8001088423C
:1020500000DD01E000BFEFE700BF705D228A61682C
:102060008854012000F0F0FB208A401C80B22082BE
:10207000A189884201DB00202082A08A401CA08226
:10208000002000F0E1FB681C85B2BD42D3DB0122D9
:1020900040F227712068FFF7B4FEF8BD2B482C49A9
:1020A00008602C4848602C4888604FF48060888124
:1020B000C881002008824882C882088348838882B9
:1020C000C86108624862254825490860254848607B
:1020D000254888604FF480608881C881002008828C
:1020E0004882C8820883488388822048C861204883
:1020F000086220484862204820490860204848601B
:10210000204888604FF480608881C8810020088260
:102110004882C882088348838882C861086248620E
:1021200019481A4908601A4848601A4888604FF4EC
:1021300080608881C881002008824882C882088324
:1021400048838882C8610862486270470044004042
:1021500084020020AC020020AC06002000480040B1
:10216000AC0A0020D40A0020D40E0020011300087D
:102170000D1300085D330008004C0040D41200200D
:10218000FC120020FC16002000500040FC1A002029
:10219000241B0020241F002000BFFEE70FB4054BC6
:1021A00010B503A9044A029800F00AFC10BC5DF8BF
:1021B00014FB00004D4D000854000020490050EA77
:1021C000C12018BF04204A0D18BF40F0010040F2A2
:1021D000FF72B2EB515F08BF40F00200012808BF58
:1021E000052070472DE9F74F144694B00021C4E94B
:1021F00002111599079121F00045C9498D4206DC6D
:102200001599C4E9000117B00020BDE8F08FC54959
:10221000DFF814A3A9423CDD0799C44E0029C44F3E
:10222000C44A1599534619DDFEF707F9554506D0FE
:10223000C14AC24BFEF701F9C4E900010AE04FF0C0
:10224000D352BE4BFEF7F9F832463B46FEF7F5F89F
:10225000C4E9000117B00120BDE8F08FFEF74CF88B
:10226000554506D0B44AB54BFEF746F8C4E900011F
:102270000AE04FF0D352B14BFEF73EF832463B46F0
:10228000FEF73AF8C4E9000117B04FF0FF30BDE89F
:10229000F08FAB49A942159978DB21F000418346C4
:1022A0008846A84AA84BFEF7CEF80022A74BFEF7B7
:1022B00023F8FEF7D8F90990FEF777FB06460F469C
:1022C0009C4A5346FEF7BFF843465A46FEF7B8F815
:1022D00080468A46984A994B30463946FEF7B3F80D
:1022E0002A0D01250B9242465346FEF7A9F8032D0D
:1022F000C4E9000139D00B98C1F30A51401A05EB2B
:1023000045111139814230DA9148C346784400EBD7
:102310000510CDF80CA00C90D0E9002330463946CA
:10232000FEF791F802460B46049106905846039931
:10233000FEF783F880468A4602460B4658460399C4
:10234000FEF77BF8049B069AFEF777F883460C9815
:1023500003913946D0E902233046FEF774F85A4615
:10236000039BFEF76AF86D1CBDE707980028A2BF23
:10237000099817B0BDE8F08F616881F00041616095
:10238000099817B04042BDE8F08FFFE784461598E2
:10239000C1F31301C0F30A50A0F2F5304FEA601800
:1023A00000F01F06C6F12000139000200690079051
:1023B00041F4801E05206D4676B1664A08EB0001A7
:1023C0007A4452F8213002EB8101B3404A681399F4
:1023D00022FA01F1194305E05F4908EB0002794454
:1023E00051F82210A1FB0E27A1FB0C131A449A42AC
:1023F00034BF0123002303EB070A05EB8003D3E975
:1024000001B70F448F4234BF0121002193448B4414
:1024100011B1934502D903E0934501D2012100E0B7
:102420000021C3E901B7514445F82010011EA0F175
:102430000100C1DC0298059F00F10050800F12904E
:102440000298DDE903568000FEF7AFFA834628467E
:102450000D91FEF7E2F86FF01D02FEF78FFACDE95D
:102460000E013046FEF7D9F86FF03D02FEF786FA0E
:1024700080468A463846FEF7D0F86FF05D02FEF7D8
:102480007DFA0746424653461191FDF735FFDDE9D7
:102490000E23FDF731FF5A460D9BFDF72DFF00255A
:1024A0000E465A4628460D9BFDF7C7FFDDE90E2371
:1024B000FDF7C3FF42465346FDF7BFFF3A46119B67
:1024C000FDF7BEFFDFF898A0244A5346FDF7BBFF97
:1024D00007468846234A244B31462846FDF7B3FF7A
:1024E0003A464346FDF708FF074688464FF0A842A4
:1024F000534631462846FDF7A6FF3A464346FDF7C8
:10250000FBFE159A12F0004F04D0129A81F00041A0
:1025100052421292C4E90001129817B0BDE8F08F40
:10252000FB21E93F7CD90240FB21F93F7370032E68
:102530008A19A33B000040543163621A61B4D03D54
:10254000FB21394183C8C96D305FE43F0000E03FA3
:10255000702B0000EC2A0000CE2A0000182D4454F5
:10256000FB21F93D3326A611460B113C2DE9FF4D09
:1025700021F0004807460C46B8F1795F08DAFEF70B
:1025800072F8002801BF0020324904B0BDE8F08D88
:102590003A46234610461946FDF755FF05460246C2
:1025A0002D480E460B460621784400F05DF82A4679
:1025B0003346FDF748FFDDE9022382468B46384665
:1025C0002146FDF740FF04460F4652465B4628462B
:1025D0003146FDF738FF22463B46FDF72EFF074602
:1025E0008A464FF0FF3228463146FEF7C7F91B4AAC
:1025F00090450ADA3A465346FDF71FFF04B0002221
:10260000BDE8F04D134BFDF71BBF154A4245A8BF6F
:10261000A8F500154FF00004B8BF124D22462B4616
:10262000FDF70BFF0646884622462B460020094947
:10263000FDF703FF04460D463A46534630464146F1
:10264000FDF7FBFE04B022462B46BDE8F04DFDF73A
:10265000F7BE00000000F03FA42800003333D33F52
:102660000000E93F0000D23F2DE9F0414F1E00EB92
:10267000C7010446D1E9000115461E4637F006029F
:102680000DD02A463346FDF7DEFE7F1E04EBC7035E
:10269000D3E90023FDF730FE37F00602F1D1022F17
:1026A00025D0042F13D0062F18BFBDE8F0812A468D
:1026B0003346FDF7C8FED4E90A23FDF71DFE2A467E
:1026C0003346FDF7C0FED4E90823FDF715FE2A4680
:1026D0003346FDF7B8FED4E90623FDF70DFE2A4682
:1026E0003346FDF7B0FED4E90423FDF705FE2A4684
:1026F0003346FDF7A8FED4E90223FDF7FDFD2A4687
:102700003346FDF7A0FED4E90023BDE8F041FDF714
:10271000F3BD00002DE9FF4D054621F0004084B0D7
:102720000C46B0F1795F0BDA2846FFF747FD042825
:1027300008BF00F06FF8284608B02146BDE8F08DCC
:102740002A460B461046FDF77EFE06460F462A46F1
:102750002346FDF778FE804626488A4632463B46A9
:1027600005217844FFF780FF83461098029160B3FB
:10277000214A224B40465146FDF765FECDE9000156
:102780005A4640465146029BFDF75DFE824688460A
:10279000DDE906014FF0FF32FEF7F0F852464346FE
:1027A000FDF74BFE32463B46FDF74DFEDDE90623C5
:1027B000FDF743FEDDE90023FDF73FFE08B02A46A2
:1027C0002346BDE8F04DFDF73BBE0B465A4630466A
:1027D0003946FDF738FE084A084BFDF78DFD4246A5
:1027E0005346FDF730FE08B02A462346BDE8F04DBB
:1027F000FDF782BDE2270000495555555555C5BF27
:102800000122FEF7BBB80022134610461146FDF721
:102810008CBE0000024A00201107FEF7AFB800008E
:1028200001FDFFFF02E008C8121F08C1002AFAD10B
:1028300070477047002001E001C1121F002AFBD140
:10284000704780F31088704780F31088704700004D
:102850000149086070470000580000202DE9FF5F23
:10286000DDE90220010DDDF838B0024318D044F64E
:102870001050A1F2FF3141430D140F98012820D0D0
:10288000A5EB0B00401C5FEA000A4FF00004474E26
:10289000DFF81C91A046504616D5CAF1000728E083
:1028A0000F98012443A2012808D0002100980F9B13
:1028B000C0E90021C0E90243BDE8FF9F6FEA0B01B8
:1028C000F4E7CBF10000DEE7074612E0F80707D097
:1028D0002246334640464946FDF7B5FD80468946C7
:1028E0002246334610461946FDF7ADFD04460E4616
:1028F0007F10002FEAD1DDE90201BAF1000F424654
:102900004B4602DAFDF79FFD01E0FDF70EFE04469F
:102910000E460022284BFEF707F803D84FF0FF3091
:10292000014607E00022254B20463146FDF7E4FC36
:10293000FDF7E2FF102409E0002C0ADB0A22002345
:10294000FDF7E4FE019B30321A55641E50EA010285
:10295000F2D1641C019AC4F1110314440F9A012AA4
:1029600003D0012208430DD10AE0084304D000201F
:102970004FF0110B0F9080E7A3EB0B056D1E0DE0E0
:102980005B4504DD4FF0000205F1010504E003DAC8
:102990004FF00002A5F10105002AECD000980F9934
:1029A000C0E90231C0E9004586E70000000024408C
:1029B0000000F03F300000000000F0430000E03F66
:1029C0002DE9FF4F95B09B468946064600250FE24C
:1029D000252877D100242746F84A0121059400E0F4
:1029E000044316F8013F203B01FA03F01042F7D1EF
:1029F00030782A2811D06FF02F033078A0F1300200
:102A0000092A16D8059A44F0020402EB820203EB6D
:102A100042021044761C0590EFE759F8042B05920A
:102A2000002A03DA504244F40054059044F00204B2
:102A3000761C30782E2816D116F8010F44F00404C5
:102A40002A280DD06FF02F023078A0F13003092B27
:102A500009D807EB870302EB4303C718761CF3E79B
:102A600059F8047B761C30786C280FD006DC4C2893
:102A700017D068280DD06A2814D104E0742810D02B
:102A80007A280FD10DE044F400140AE044F48014D5
:102A900001E044F440147278824202D104F58014BB
:102AA000761C761C307866280BD013DC582877D03B
:102AB00009DC002875D04528F6D04628F4D04728F0
:102AC0001AD19DE118E0632835D0642879D06528B3
:102AD00012D195E1702873D008DC6728F1D06928FD
:102AE0006FD06E280DD06F2806D1B5E073282CD09A
:102AF000752875D0782874D05A46179990476D1C60
:102B000075E1C4F30250022809D003280DD0D9F88A
:102B1000001004280DD00D6009F1040967E1D9F80F
:102B20000010EA17C1E90052F6E7D9F800100D804D
:102B3000F2E70D70F0E719F8041B8DF80010002083
:102B40008DF80100EA46012003E059F804AB4FF08C
:102B5000FF3061074FF0000102D40DE008F10101E0
:102B60008846B9420FDA8045F8DB1AF808100029C8
:102B7000F4D108E008F1010188468142FADB1AF835
:102B800008100029F6D105985B46A0EB08072146FE
:102B90003846179A00F094FA284400EB080507E03D
:102BA0004DE029E10DE01AF8010B5A4617999047BC
:102BB000B8F10108F7D25B4621463846179A13E16F
:102BC00042E00A220092C4F302524FF0000A022AA5
:102BD00008D059F804CB032A4FEAEC710AD00DE073
:102BE00029E02AE009F1070121F00702F2E802C119
:102BF000914609E00FFA8CFC4FEAEC71042A03D1EC
:102C00004FFA8CFC4FEAEC71002907DA0A460021E2
:102C1000DCF1000C61EB02012D2202E0220504D55B
:102C20002B228DF80420012203E0E20701D02022AC
:102C3000F7E7904659E00A2102E010220DE010214A
:102C40004FF0000A00910BE010224FF0000A44F010
:102C500004040827009203E008224FF0000A0092C3
:102C6000C4F30252022A05D059F804CB0021032AEA
:102C700008D009E009F1070121F00702F2E802C1DA
:102C8000914605E01FFA8CFC042A01D10CF0FF0CE0
:102C90004FF00008220728D5702806D0009B83F04B
:102CA000100353EA0A0305D00EE040228DF80420F9
:102CB000012208E05CEA010206D030228DF80420EF
:102CC0008DF8050002229046009B83F0080353EA2A
:102CD0000A030AD15CEA010201D1620705D530225C
:102CE0008DF804204FF001087F1E582804D034A02E
:102CF00003900EA802900DE036A0F9E75346604617
:102D0000009AFDF703FD84460398825C0298401EFA
:102D1000029002705CEA0100F0D1029806A9081A3C
:102D200000F1200A600702D524F4803400E0012776
:102D3000574502DDA7EB0A0000E0002000EB0A0186
:102D4000009005984144401A0590E00306D45B4684
:102D50002146179A059800F0B3F90544002706E0CC
:102D600001A85A46C05D179990476D1C7F1C4745C6
:102D7000F6DBE0030CD55B462146179A059800F078
:102D80009FF9054404E030205A46179990476D1C7E
:102D90000099481E00900029F5DC08E0029802998D
:102DA0005A460078491C0291179990476D1CBAF158
:102DB0000001AAF1010AF1DC65E100000928010027
:102DC00030313233343536373839616263646566A1
:102DD0000000000030313233343536373839414263
:102DE000434445460000000000F058F90544761CB5
:102DF000307800287FF4ECAD19B02846BDE8F08F9C
:102E0000620700D4062709F1070222F0070CFCE84C
:102E10000223E14603F000485FEA080C02D00FF2FB
:102E2000702C0DE05FEA045C02D50FF2682C07E01D
:102E30005FEAC47C02D00FF2602C01E0AFF2700CAC
:102E40004FF0FF3823F00043CDF850C065280CD078
:102E500006DC452809D046281DD047283DD13DE055
:102E6000662818D067287ED138E00021112F01DBB9
:102E7000112000E0781CCDE9000106A90EA8FFF79B
:102E8000EDFCDDE90F010E9A03910021009207F19C
:102E9000010A04914DE04FF000400097CDE9011088
:102EA00006A90EA8FFF7DAFCDDE90F0203920E9BDC
:102EB00011990022DDF80CA00093049211B9791C3D
:102EC00000EB010AB7EB0A0004D4C0F1FF3007F1B0
:102ED000010A0490AAEB0700019044E0012F00DAF8
:102EE00001270021112F01DD112000E03846CDE936
:102EF000000106A90EA8FFF7B1FCDDE90F010E9A4B
:102F00000391002104910092BA4621070CD4039941
:102F1000514500DA8A46BAF1010F05DD009AAAF19F
:102F20000101515C302908D0B84202DA10F1040FD7
:102F300006DA0121CDE9011015E0AAF10101E9E766
:102F4000002805DC049901440491AAEB000102E089
:102F5000411C514500DD8A460499401A401C0190ED
:102F60004FF000400290200704D40198504501DB47
:102F7000CDF8048000208DF84F0002980DF14F0726
:102F8000B0F1004F25D02B200E9002984FF0020890
:102F900000280CDA404202902D200E9007E00A2112
:102FA0000298FDF79DFB3031029007F8011DB8F142
:102FB0000001A8F10108F2DC02980028EFD1791E87
:102FC0000E980870307800F0200040F0450007F8B7
:102FD000020D12A8C01B00F107081498007800B178
:102FE000012000EB0A01019801EBE07105984144D2
:102FF000401A401E0590E00306D45B462146179A0E
:10300000059800F05DF805441498007818B15A4608
:10301000179990476D1CE00324D55B462146179A0B
:10302000059800F04DF805441CE00498002807DBE3
:10303000DDE90301884203DD0098405C179901E057
:10304000179930205A469047049805F10105401C15
:1030500004900198401E019004D12E205A461799E1
:1030600090476D1CBAF10001AAF1010ADDDC05E010
:1030700017F8010B5A46179990476D1CB8F10001DB
:10308000A8F10108F4DC5B462146179A0598ABE6E7
:103090002D0000002B000000200000002DE9F04171
:1030A000044600251E461746880404D405E0394628
:1030B0002020B0476D1C641EF9D52846BDE8F0817C
:1030C0002DE9F041044600251E469046C80301D56F
:1030D000302700E02027880404D505E04146384623
:1030E000B0476D1C641EF9D52846BDE8F08100008C
:1030F00000203749097C0A063549C97B42EA01426A
:103100003349897B42EA0121314A527B41EA02007C
:103110002F49C866097D0A062D49C97C42EA014249
:103120002B49897C42EA0121294A527C41EA02006A
:1031300027490867097E0A062549C97D42EA0142F6
:103140002349897D42EA0121214A527D41EA020058
:103150001F49486791F83D100A061D4991F83C1037
:1031600042EA01421A4991F83B1042EA0121184A09
:1031700092F83A2041EA02001549886791F8411017
:103180000A06134991F8401042EA0142104991F8A9
:103190003F1042EA01210E4A92F83E2041EA020025
:1031A0000B49C86791F845100A06094991F844107F
:1031B00042EA0142064991F8431042EA0121044AD9
:1031C00092F8422041EA02000149C1F880007047AC
:1031D0005C00002070B500240025344800794128A7
:1031E00013D13248407978280FD130488079FF28B0
:1031F0000BD12E48C079062807D12C48007A8128A7
:1032000003D12A48407A472801D0002070BD2748C2
:10321000407E38B92548807E8C2803D12348C07E63
:103220000C2801D00020F1E7204890F8280002285F
:1032300009D11E4890F829008C2804D11B4890F829
:103240002A000C2801D00020E0E7184890F8370049
:10325000012809D1154890F83800B02804D1134846
:1032600090F83900102801D00020CFE70F4890F8DF
:1032700052006D2801D00020C8E7002406E00B486A
:10328000001D005D2844C5B2601CC4B24D2CF6DBA5
:103290004D210648001D00F00BF8044991F851102B
:1032A000884201D00020B1E70120AFE75C00002098
:1032B00010B502460B460021002000BF03E0545C1D
:1032C00060404C1CE1B29942F9DB10BD10B51048CA
:1032D000007800B910BD00200D49087008464088EC
:1032E0004F2805D0084641880AA0FEF757FF09E09D
:1032F000FFF770FF18B90CA0FEF750FF02E0FFF7D0
:10330000F7FE00BF00200249488000BFE2E700004E
:103310005C000020616E676C65206C656E206572D4
:10332000723A25640D0A0000616E676C652063685F
:103330006B206572723A0D0A0000000070B505201E
:1033400000F088F905460449FCF766FF0446FDF7DE
:1033500071F900B270BD00000000C84270B50446AB
:1033600000200A49087040F22F15094A2946032017
:1033700001F0AEFB05484088602806DA034948881A
:10338000411C024A5180111D0C5470BD5C0000208C
:103390009533000810B5012002490870FFF796FF29
:1033A00010BD00005C00002010B5044604B910BD3B
:1033B000012C00D102240120FFF743FA09480460E0
:1033C000002009490870FFF73CFA06E000F074FBA2
:1033D00005480078012800D100E0F7E700BF00BFF2
:1033E000E5E700000C00002010000020F0B50346C7
:1033F00000224FF0E02675690F4E36680F4FB6FB7E
:10340000F7F606FB03F400BF4FF0E026B16910E0C9
:103410004FF0E026B06988420BD0884202D20E1AE3
:10342000324402E02E1A0E4432440146A24200D336
:1034300000E0EDE700BFF0BD4000002040420F007B
:1034400070B50546304800EB051420688047002819
:103450003ED02079062802DA0620207152E0207939
:103460000C2803DA2079401C20714BE0A07A38B98F
:103470000120A07205EB4501491CC8B201F0C2FA57
:10348000208900283EDDE088218988420DDAE08825
:10349000401C80B2E0802189884233D105EB450190
:1034A000C91CC8B201F0AEFA2CE0E07A002829DD90
:1034B000207B401CC0B22073E17A884222DB0020CE
:1034C000207305EB4501491CC8B201F09BFA19E0D5
:1034D0002079062802DD0620207110E0207918B13D
:1034E0002079401E20710AE0A07A012807D100202F
:1034F000A07205EB4501891CC8B201F083FA0020D7
:10350000E080207370BD0000D40100201FB50121B0
:103510000420FDF77BFE4FF40040ADF80C000420C2
:103520008DF80F0003A92E48FDF762FB0121084624
:10353000FDF76CFE0F210020FDF73AFB4FF4004031
:10354000019000208DF8080010208DF8090001205E
:103550008DF80A0001A8FDF7E1FA28208DF8000097
:103560000F208DF8010000208DF8020001208DF859
:1035700003006846FDF7F6FD01214020FDF746FEF9
:103580000820ADF80C0004208DF80F0003A91548A1
:10359000FDF72EFB01210846FDF738FE032104202C
:1035A000FDF706FB0820019000208DF80800102090
:1035B0008DF8090001208DF80A0001A8FDF7AEFA88
:1035C00009208DF800000F208DF8010000208DF8F3
:1035D000020001208DF803006846FDF7C3FD1FBD02
:1035E000000801400018014001460020044A02EB97
:1035F000C10250680022024B03EBC1035A607047BE
:10360000E00000200B48807A0A4AD27A904201D129
:10361000002070470748807A064A115C1046807A7D
:10362000401CC0B290720A2801DB0020907208464C
:10363000EFE700007402002010B50120FFF701F948
:10364000034804680020FFF7FCF8204610BD000086
:103650001400002001460020062917D2DFE801F0FF
:103660000306090C0F120A4AD06E0FE0084A106FC9
:103670000CE0074A506F09E0054AD06F06E0044AA3
:10368000906F03E0024AD2F8800000BF00BF70478D
:103690005C00002010B500BF7E4A125C32B1012AE6
:1036A00058D0022A6CD0032A53D179E0B1F52F7F8C
:1036B0000CDD40F24C42914208DA0123754A135462
:1036C000002374321354121D135442E041F2883225
:1036D000914230DD00EB40036E4A3032D35C00EBA8
:1036E00040040C3A135500EB40030C321A44537853
:1036F00000EB4004674A24322244537000EB40033D
:10370000644A30321A44937800EB4004614A243210
:1037100022449370002300EB40045E4A303213557C
:1037200000EB40042244537000EB4004594A30320D
:10373000224493700DE0584A12781AB90122564B70
:103740001A7006E0544A1278012A02D10222524B22
:103750001A709DE0B1F59D7F06DBB1F5167F03DAA7
:1037600002234C4A13540AE0962905DDFA2903DAAC
:103770000023484A135402E00023464A135487E0CA
:103780000A2908DD642906DA0323424A13546C32FD
:1037900022F8101003E000233E4A13547CE777E040
:1037A0003C4A6C3232F810200A4493B2394A7C32D7
:1037B00022F81030083A125C5206130E354A743261
:1037C0001354083232F810205C2A05DD314A7C326D
:1037D00032F81020842A18DB2E4A7C3232F810206E
:1037E000CD2A0EDD2B4A7C3232F81020F52A08DA79
:1037F000284A7432125C521CD3B2264A74321354D3
:1038000003E00023234A135446E7224A7832125C2D
:10381000521CD3B21F4A78321354125C082A33D197
:103820001C4A7432135C703A02F820300023703264
:103830001354703A12F82020272A06D1012300EBF6
:103840004004144A303213551AE0124A121D12F87D
:103850002020382A07D1012300EB40040D4A3032E2
:10386000224453700CE00B4A121D12F82020162A35
:1038700006D1012300EB4004064A30322244937003
:103880000023044A135403E00223024A135400BFE6
:1038900000BF10BD2C2300202900002010B50021FE
:1038A0000B48FDF7D0FF002202210948FEF75EF821
:1038B000002204210648FEF759F800220821044896
:1038C000FEF754F8002210210148FEF74FF810BD12
:1038D0000004004070B588B00446474B0FCB04ADE0
:1038E0000FC50021454820F8141024B94448FDF7BD
:1038F000C5FF054613E0012C04D14148FDF7C1FF87
:1039000005460CE0022C04D13D48FDF7BDFF0546FD
:1039100005E0032C03D13A48FDF7B9FF05463748C7
:10392000001F005DC8B904A830F8240080B2ADF8CB
:1039300004000220ADF806000120ADF808000020C8
:10394000ADF80A00ADF80C0001A92D48FDF7B8FF4D
:1039500001212A48001F015519E004A830F824006D
:1039600080B2ADF804000020ADF806000120ADF8EB
:1039700008000020ADF80A00ADF80C0001A92048AD
:10398000FDF79EFF00211D48001F015500BF1B4889
:10399000243830F81400A84206DC1848243830F8DF
:1039A0001400281A86B20EE01448243830F81400A7
:1039B000A84208DD1148243830F814004FF6FF7192
:1039C000081A284486B20D481C38005D50B90B48CF
:1039D000243830F8140028B90848243820F8145046
:1039E00008B070BD0548243820F8145031462046F0
:1039F000FFF750FE00BFF3E7404E000848230020C9
:103A00000004004010B588B00446284B0FCBCDE928
:103A10000623CDE90401264830F81400022842DAD2
:103A2000234830F81400401C81B2214820F81410BB
:103A3000022938D104A830F8240080B2ADF804007F
:103A40000220ADF806000120ADF808000020ADF816
:103A50000A00ADF80C0001A91648FDF731FF01215D
:103A60001348001F015500211838015504EB44028A
:103A70002430815404EB44021044417004EB4402AE
:103A80000B4808301044817004EB4402084814309D
:103A9000815404EB44021044417004EB4402044896
:103AA00014301044817008B010BD0000304E000882
:103AB0004823002000040040704710B5012108464B
:103AC000FCF7D6FF4FF44070FDF784FB00F034F8AC
:103AD00000F04CF900F0A4F800F050FA00F076FB8A
:103AE00000F0C2F9002001F08DF84FF47A70FFF772
:103AF0005BFC012001F086F8022001F083F803202E
:103B000001F080F8042001F07DF8052001F07AF83A
:103B100000F028F800F046F800F076F9002000F0F8
:103B200081F9012000F07EF900F000FA042000F095
:103B3000A3FFFFF7B3FE10BD08B501210420FDF778
:103B400065FB03208DF8020014208DF8030002208D
:103B5000ADF8000069460248FDF74AF808BD0000CC
:103B60000008014008B501218420FDF74FFB032028
:103B70008DF8020048208DF803002020ADF80000E9
:103B800069460648FDF734F84FF48070ADF8000040
:103B900069460348FDF72CF808BD00000008014005
:103BA000001C014010B500F001F810BD10B5FFF782
:103BB000ADFC10BD7FB501210820FDF717FB1548AE
:103BC000006846081448B6FBF0F085B24FF6FF7463
:103BD000ADF80840ADF804500020ADF80A00ADF88B
:103BE000060001A90D48FEF75BF801210B48FDF71F
:103BF0002AFE32208DF8000004208DF801000020FC
:103C00008DF8020001208DF803006846FDF7AAFA3E
:103C10007FBD00004000002040420F00000C00402B
:103C200010B500F04BF800F001F810BD08B5012107
:103C3000C420FDF7EBFA03208DF8020048208DF830
:103C400003004FF48060ADF8000069461A48FCF7A5
:103C5000CFFF4FF48070ADF8000069461648FCF7BE
:103C6000C7FF8020ADF8000069461348FCF7C0FF8D
:103C70008020ADF8000069460F48FCF7B9FF8020AE
:103C8000ADF8000069460C48FCF7B2FF8020ADF8A3
:103C9000000069460848FCF7ABFF8020ADF8000043
:103CA00069460548FCF7A4FF8020ADF8000069468E
:103CB0000148FCF79DFF08BD0018014000211F4A84
:103CC0009172D1721173002018E050211C4A02EB4E
:103CD0000012118103211A4A02EB00121171002116
:103CE000174A02EB00129172154A02EB0012D172D0
:103CF000134A02EB00121173411CC8B20A28E4DB1C
:103D0000F0220F490A85002281F82B200D490C4A28
:103D100011600D4911610D4911620D4911630D4981
:103D200011640D4911650D4911660D4911670D4961
:103D3000C2F880100C49C2F890107047740200203D
:103D4000D401002009100008611000088D1000083F
:103D5000B9100008D1100008E9100008011100088E
:103D600019110008311100083510000808B50121AB
:103D70008820FDF74BFA042000F0EEFA052000F051
:103D8000EBFA062000F0E8FA022000F0E5FA012044
:103D900000F0E2FA032000F0DFFA03208DF80200C1
:103DA00010208DF803000820ADF800006946144883
:103DB000FCF71EFF0420ADF8000069461048FCF730
:103DC00017FF0220ADF8000069460D48FCF710FF10
:103DD0004FF40040ADF8000069460A48FCF708FFC0
:103DE0004FF48050ADF8000069460548FCF700FF2D
:103DF0001020ADF8000069460148FCF7F9FE08BD47
:103E0000001C0140000C014010B5002140F60F607D
:103E100000F0E6F8002140F60F6000F061F900F0D4
:103E2000DDF910BD58B90D490D4A11600D495160B9
:103E300000219160D1601161516191610DE0012813
:103E40000BD10649064AD161064A05490A62002299
:103E50004A628A62CA620A634A6370470000164374
:103E6000F00000200000704208B50121F420FDF7A9
:103E7000CDF9002000F090FE022000F08DFE03201E
:103E800000F08AFE042000F087FE052000F084FE8A
:103E9000012000F081FE03208DF8020010208DF833
:103EA00003004002ADF8000069461B48FCF7A0FE85
:103EB00014208DF803000120ADF800006946174872
:103EC000FCF796FE10208DF803004020ADF80000AE
:103ED00069461348FCF78CFE10208DF80300C001E2
:103EE000ADF8000069460F48FCF782FE10208DF8FF
:103EF00003008020ADF8000069460B48FCF778FE0F
:103F000010208DF803002020ADF800006946044819
:103F1000FCF76EFE08BD000000100140001C0140CF
:103F200000180140000801400014014008B50121BB
:103F30000420FDF76BF903208DF8020010208DF8A6
:103F400003008001ADF8000069460B48FCF750FE05
:103F50004FF40070ADF8000069460748FCF748FED2
:103F600028208DF803004FF48070ADF800006946FA
:103F70000148FCF73DFE08BD0008014070B515483A
:103F800000684FF47A72B0FBF2F1B1F1807F00D398
:103F90001DE021F07F40401E4FF0E022506150179D
:103FA0000F22002807DA13071D0E0B4B00F00F0439
:103FB000241F1D5503E013071C0E084B1C5400BFA3
:103FC00000204FF0E02290610720106100BFFFF752
:103FD000F1FD70BD4000002018ED00E000E400E0BD
:103FE00030B589B005460C460121C802FDF70EF92F
:103FF00001214120FDF70AF901213648FCF784FE32
:104000004FF4D440ADF8200018208DF82300032091
:104010008DF8220008A93048FCF7EAFDADF80850F9
:10402000ADF804400020ADF80A00ADF8060001A983
:104030002A48FDF735FE6020ADF810000120ADF8EC
:1040400012000020ADF81800ADF81400ADF81A0009
:10405000ADF81C00ADF81E0004A92048FDF790FC47
:1040600008211E48FDF7D8FC04A91C48FDF7DEFC1A
:1040700008211A48FDF72CFD04A91848FDF736FD64
:1040800008211648FDF782FD04A91448FDF788FDB4
:1040900008211248FDF7C2FD01211048FDF7D3FBAE
:1040A00001210E48FDF7DBFB4FF461610B48FDF782
:1040B000C2FD4FF461610948FDF7BFFD4FF4616136
:1040C0000648FDF7BCFD4FF461610448FDF7B9FDFA
:1040D00009B030BDC000160000180140002C01409E
:1040E00030B589B005460C4601210420FDF77EF865
:1040F00001212120FDF78AF801210803FCF704FEC5
:104100004FF47040ADF8200018208DF823000320F4
:104110008DF8220008A92B48FCF76AFDADF808507D
:10412000ADF804400020ADF80A00ADF8060001A982
:104130002548FDF7B5FD6020ADF810000120ADF871
:1041400012000020ADF8180004A91F48FDF718FC64
:1041500008211D48FDF760FC04A91B48FDF766FC1B
:1041600008211948FDF7B4FC04A91748FDF7BEFC67
:1041700008211548FDF70AFD04A91348FDF710FDB5
:1041800008211148FDF74AFD01210F48FDF75BFBAF
:1041900001210D48FDF763FB4FF461610A48FDF70B
:1041A0004AFD4FF461610848FDF747FD4FF4616136
:1041B0000548FDF744FD4FF461610348FDF741FDFB
:1041C00009B030BD001401400008004010B5FDF7F3
:1041D00065FFFCF7E7FDFCF719FC10BD08B50121F0
:1041E0000420FDF713F803208DF8020010208DF84D
:1041F00003000120ADF8000069460448FCF7F8FC14
:1042000001210248FCF7C8FD08BD0000000801407C
:1042100010B5FFF7F7F90446002C30DD072C10D05D
:1042200008DC012C15D0032C1FD0042C0DD0062C3B
:1042300024D116E0092C10D0192C1AD01C2C1DD119
:1042400018E00FA0FDF7AAFF18E011A0FDF7A6FFE8
:1042500014E013A0FDF7A2FF10E015A0FDF79EFFEC
:104260000CE017A0FDF79AFF08E019A0FDF796FFF4
:1042700004E003E01AA0FDF791FF00BF00BF10BDEE
:10428000B5E7D4B4B0B4BCFCB0B4CFC20D0A0000E2
:10429000B3E4B5E7B0B4BCFCB0B4CFC20D0A0000C3
:1042A000C7E5C9A8B0B4BCFCB0B4CFC20D0A0000C9
:1042B000B5E7D4B4B0B4BCFCB3A4B0B40D0A0000EC
:1042C000B3E4B5E7B0B4BCFCB3A4B0B40D0A0000CD
:1042D000C7E5C9A8B0B4BCFCB3A4B0B40D0A0000D3
:1042E000D6D8D0C2C5E4CDF8A3BACDACCAB1B0B46B
:1042F000B3E4B5E7BACDC7E5C9A80D0A00000000D0
:1043000010B5002404E02046FFF79AF8601CC4B200
:104310000A2CF8DB10BD000010B50E48407AC0B181
:104320000C48407A012814D1FFF786F909494968F9
:10433000401AB0F5B47F0CD3042000F037F8052004
:1043400000F034F8062000F031F8FFF775F9014964
:10435000486010BDC8010020411EC8B218B908212C
:10436000104A11601DE0012803D104210D4A11609B
:1043700017E0022803D102210A4A116011E0032844
:1043800004D14FF40041084A11600AE0042803D127
:104390008102044A116004E0052802D11021014A7B
:1043A00011607047101C0140100C0140012806D11B
:1043B0001949096881F00801174A11602BE00228A9
:1043C00006D11549096881F00401134A116022E001
:1043D000032806D11049096881F002010E4A1160D4
:1043E00019E0042806D10D49096881F400410B4AFF
:1043F000116010E0052806D10749096881F4805151
:10440000054A116007E0062805D10349096881F0D3
:104410001001014A116070470C1C01400C0C014056
:1044200010B5044654B94FF461610B48FDF707FC21
:104430004FF461610848FDF704FC0BE0012C09D141
:104440004FF461610448FDF7F6FB4FF461610248E7
:10445000FDF7F3FB10BD0000002C01402DE9F047F3
:10446000054600240026002700BF09E005EB850073
:104470000B4901EBC00050F824000644601CC4B294
:104480000A2CF3DB3046FCF7BFF881460549FBF701
:10449000F5FE8046FCF7CEF807463846BDE8F087C3
:1044A000280100200000204170B506460C46154644
:1044B00016B1012E26D112E044B900211248FDF7B1
:1044C000BEFB29461048FDF7BCFB07E029460E4815
:1044D000FDF7B5FB00210C48FDF7B3FB12E044B932
:1044E00000210948FDF7A7FB29460748FDF7A5FB72
:1044F00007E029460448FDF79EFB00210248FDF72E
:104500009CFB00BF00BF70BD002C014030B90021F2
:10451000074A9160D1601161916107E0012805D1DE
:10452000002203494A628A62CA624A6370470000F5
:10453000F00000202DE9F04705460E4614462CB940
:104540002846FFF76DFF2846FFF7E0FF002C00DA52
:1045500076428B4850F825003044894941F82500BF
:104560003046FCF751F881468649FBF787FE8046C6
:104570008549FBF751FE0746FCF75CF883494A5D25
:10458000495D491C814B595505EB8501804B03EB77
:10459000C10141F822007D48405D0A2802DB00206D
:1045A0007A494855002D74D1002C72D07948806921
:1045B00010B97848846118E02046FCF725F8804659
:1045C00074498869FCF720F881464146FBF756FE9E
:1045D00007460021FCF77AF807D22846FFF720FFAC
:1045E0002846FFF793FFBDE8F087301BFCF70CF877
:1045F000684988600A4691685068FBF70DFE81465D
:10460000644AD1689068FBF701FE82466148016800
:104610005046FBF701FE80464946FBF7A5FD0746DD
:104620005C4801693846FBF79FFD5A490861084616
:104630008068C8600869FBF7FDFF804600F0F2F96A
:104640000746FBF7E1FF53490861304600F099FB4C
:104650000746204600F095FB381A042805DB28465B
:10466000FFF7DEFE2846FFF751FF4A490869FBF7CE
:10467000E1FF804600F085FB87B2002C01DC0120C1
:1046800000E0002001463A460020FFF70DFF75E0EC
:10469000FFE7012D72D1002C70D03E48406B10B95D
:1046A0003C48446317E02046FBF7AEFF804639499B
:1046B000486BFBF7A9FF81464146FBF7DFFD074644
:1046C0000021FCF703F806D22846FFF7A9FE28468A
:1046D000FFF71CFF87E7301BFBF796FF2D49486269
:1046E0000A46516A106AFBF797FD8146294A916A8A
:1046F000506AFBF78BFD82462648C1695046FBF79E
:104700008BFD80464946FBF72FFD07462148C16ACD
:104710003846FBF729FD1F49C8620846416A816295
:104720000146C86AFBF786FF804600F07BF9074622
:10473000FBF76AFF1749C862304600F022FB0746C4
:10474000204600F01EFB381A042805DB2846FFF738
:1047500067FE2846FFF7DAFE0E49C86AFBF76AFFD4
:10476000804600F00EFB87B2002C01DC012000E047
:10477000002001463A460120FFF796FE00BF32E7CF
:10478000000000200000404100007A4308000020A3
:1047900028010020F000002010B50020FEF724FFC3
:1047A00004460848426921460020FFF7C3FE012065
:1047B000FEF71AFF04460348026B21460120FFF76B
:1047C000B9FE10BDF00000202DE9F04F89B08748F8
:1047D00090F8490010B909B0BDE8F08F834890F80F
:1047E000480020B101280DD002287DD1EEE0FEF76F
:1047F00023FF7E494863084690F84800401C81F832
:10480000480000BF7948406B78490863886AC96AE4
:10481000764A106251621046016C406C9163D0631D
:104820001046016940691160506011468869C96984
:104830009060D160FEF700FF6C4948630020FFF7ED
:104840000DFE80460120FFF709FE08EB0007384601
:10485000FBF7DAFE06464FF07C51FBF7DDFC054620
:104860006349FBF7D9FC0446FBF71CFF5F4A9062E3
:10487000D162FEF763FD8046FBF7C6FE07465D4941
:10488000FBF7CAFC06465C49FBF7C6FC05465B49DC
:10489000FBF7F4FC0446FBF705FF544A106451642F
:1048A0001146496B126B881AFBF7B7FE80468946A2
:1048B0004E48826BC16B104600F0FAF904464B4833
:1048C000066A436A32462046FBF7BDFDCDE9020188
:1048D0004648026C416C104600F0EAF904460D4669
:1048E00042498E6ACB6A00E07CE032462946FBF7FB
:1048F000AAFDCDE90001DDE90223FBF7FDFC4246FC
:104900004B46CDE90401FBF79EFD82464FF0604225
:104910003B4BFBF798FDCDE9060134490C684B6829
:1049200022460799FBF7E8FC304A106151611146B5
:10493000496B126B881AFBF770FE804689462B493B
:104940008A6BC96B104600F023FA04462748066AB2
:10495000436A32462046FBF776FDCDE90201234843
:10496000026C416C104600F013FA04461F48866A38
:10497000C36A32462046FBF766FDCDE90001DDE95A
:104980000223FBF7B9FC824642464B46FBF75BFD30
:104990004FF060421A4BCDE90401FBF754FDCDE91D
:1049A000060112498C68CB6822460799FBF7A4FCE4
:1049B0000E4A9061D161FEF73FFE0C49C86408467B
:1049C00090F84800401C81F848000BE0FEF734FEE8
:1049D0000649C96C401A142803D30120034981F801
:1049E000480000BF00BF00BFF5E6000078010020CE
:1049F0006F12833AC3F548400AD7233C0000344382
:104A00004D62403F0649C97A054A50541146C97A59
:104A1000491CC9B2D1720A2901DB0021D172704749
:104A20007402002001460020B1F5616F02DB4FF4F3
:104A3000616005E011F5616F01DC024800E00846A5
:104A400070470000F0F1FFFF10B5FFF759FCFFF7CA
:104A5000A3FE10BD7047000010B504460548407A1B
:104A6000A04205D0FEF7E8FD0249486008464472BE
:104A700010BD0000C801002070B5044600254FF4A9
:104A800000711248FCF78AF96420FEF7AFFC4FF47E
:104A900000710E48FCF780F96420FEF7A7FC00BF08
:104AA00011E04FF480610948FCF778F96420FEF7C3
:104AB0009DFC4FF480610548FCF76EF96420FEF719
:104AC00095FC681C85B2A542EBDB70BD0008014077
:104AD0002DE9F04104460F461546052F00D37F1FF0
:104AE0002848FCF7D8FE804608EB0706012C0FD1BA
:104AF00025480560B1B22348FDF79DF80221214801
:104B0000FCF79EFE012202211E48FCF72FFF37E032
:104B1000022C0FD11D480560B1B21A48FDF78DF87F
:104B200004211848FCF78CFE012204211548FCF7EB
:104B30001DFF25E0032C0FD115480560B1B21148C7
:104B4000FDF77DF808210F48FCF77AFE01220821C5
:104B50000C48FCF70BFF13E0042C0FD10D48056047
:104B6000B1B20848FDF76DF810210648FCF768FE61
:104B7000012210210348FCF7F9FE01E0BDE8F081B5
:104B800000BFFBE7000C0040180000201C000020C4
:104B9000200000202400002010B50446062C24D25A
:104BA000DFE804F0031E090E13194FF400511048FA
:104BB000FCF7F2F81AE001210E48FCF7EFF815E0D7
:104BC00040210D48FCF7E8F810E04FF400610B4875
:104BD000FCF7E4F80AE080210948FCF7DDF805E07D
:104BE00020210548FCF7DAF800E000BF00BF10BD47
:104BF00000100140001C0140001801400008014065
:104C00000014014010B50446062C24D2DFE804F05D
:104C1000031E090E13194FF400511048FCF7BEF89B
:104C20001AE001210E48FCF7B7F815E040210D48C5
:104C3000FCF7B4F810E04FF400610B48FCF7ACF857
:104C40000AE080210948FCF7A9F805E02021054881
:104C5000FCF7A2F800E000BF00BF10BD001001404B
:104C6000001C0140001801400008014000140140F0
:104C70002DE9F04105460E4617462846FBF7A8FEEB
:104C800004460CB9BDE8F081E06908B1E0698047ED
:104C90003A4631462046FDF7C8F900BFF2E713B5A2
:104CA0000446012201A92046FFF7E2FF1CBD0000D7
:104CB00000B5244B21F0004287B09A42DCBF0022AD
:104CC000134629DD204B9A4208D140B94FF001002C
:104CD000FDF7BEFDFDF797FD07B000BD03DBFDF757
:104CE0008FFD07B000BD02AAFDF77CFA10F00301AA
:104CF00004BF0DF1080C9CE80F000DD00120012924
:104D00000ED0022914D00DF1080C00909CE80F0081
:104D1000FDF700FD07B000BDFDF728FC07B000BDA2
:104D20000DF1080C00909CE80F00FDF7F3FC05E086
:104D30000DF1080C9CE80F00FDF718FC07B081F09E
:104D4000004100BDFB21E93F0000F07F70B5044643
:104D50000D46E1B20120FFF7A2FF204670BD0024FE
:104D6000FEF7ABFE0120FFF777FE09E0FFF72CFD11
:104D7000FFF7D2FAFFF74CFA641C0120FEF714FB90
:104D8000F4E70146002901DA484200E0084670478E
:104D900000B5254B21F0004287B09A4203DC002287
:104DA000134600922BE0214B9A4208D140B94FF0B4
:104DB0000100FDF74DFDFDF726FD07B000BD03DB4B
:104DC000FDF71EFD07B000BD02AAFDF70BFA10F0BB
:104DD00003014FF001000DD0012914D002291AD08F
:104DE0000DF1080C9CE80F00FDF7C0FB07B081F047
:104DF000004100BD0DF1080C00909CE80F00FDF78C
:104E000089FC07B000BD0DF1080C9CE80F00FDF710
:104E1000ADFB07B000BD0DF1080C00909CE80F0041
:104E2000FDF778FCE2E70000FB21E93F0000F07F9E
:104E30000000000004000000080000000C0000005A
:104E40000000000004000000080000000C0000004A
:104E50004C5555555555A53F7751C1166CC156BF98
:104E60009015CB19A001FA3EAD529C804F7E92BEA8
:104E7000C4B1B4BD9EEE213ED43888BEE9FAA8BDC7
:104E800000004054FB21F93F3163621A61B4D03D08
:104E90000000601A61B4D03D7370032E8A19A33BE1
:104EA0000000002E8A19A33BC14920259A837B3933
:104EB00000000000000000006E83F9A22915444E96
:104EC000D15727FCC0DD34F5999562DB4190433C16
:104ED000AB6351FE61C5BBDE3A6E24B7E0D24D42F2
:104EE000EA2E49061C92D1091CEB1DFE3EA729B1F2
:104EF000F53582E88444BB2E26709CE9417E5FB480
:104F000039D69139F43953838B5F849C3B28F9BDA2
:104F1000FF97F81F0F9805DE8B112FEF1F6D0A5AB0
:104F2000CF7E366DB709CB27663F464F2DEA5F9E91
:104F3000C7BA27757BF1E5EBF739073DEA92528A4C
:104F4000B15FFB6B085D8D1FA6F810111111813F39
:104F5000D561C119A0012ABF7DFEB157E31DC73E2F
:104F6000EB9C2B8AE6E55ABE7CD5CF5A3AD9E53D73
:104F7000904F0008000000205C000000242800087A
:104F8000EC4F00085C00002054A300003428000807
:104F90000000000000000000000000000000000011
:104FA0000000000000000000000000000000000001
:104FB00000000000000000000000000000000102EE
:104FC000030401020304060708090204060800009E
:104FD00000A24A04000000000000000001020304D7
:0C4FE000060708090000000000000000A7
:0400000508000131BD
:00000001FF
