:020000040800F2
:1000000000A10020E9010008851500087111000811
:1000100081150008490D0008852700080000000030
:100020000000000000000000000000004501000882
:10003000250E00080000000089010008A119000831
:10004000030200080302000803020008030200087C
:10005000030200080302000803020008030200086C
:1000600003020008550E00080302000803020008FE
:10007000030200080302000803020008030200084C
:10008000030200080302000803020008030200083C
:100090000302000803020008030200087D0E0008A6
:1000A000030200080302000803020008030200081C
:1000B00003020008611C0008030200080302000894
:1000C00003020008030200080302000803020008FC
:1000D000030200081123000821230008312300082F
:1000E000290E0008030200080302000803020008AA
:1000F00003020008030200080302000803020008CC
:100100000302000803020008F51C000803020008AF
:100110000123000803020008951D000803020008DF
:10012000030200080302000803020008030200089B
:10013000DFF80CD000F090FC004800473F63000857
:1001400000A10020204B19680868B0E8F00F80F388
:100150000988BFF36F8F4FF0000080F311884EF0D5
:100160000D0E70470000000006480068006880F32C
:10017000088862B661B6BFF34F8FBFF36F8F00DFA1
:1001800000BF00BF08ED00E0EFF30980BFF36F8F01
:100190000D4B1A6820E9F00F106008B54FF0100001
:1001A00080F3118806F040FE4FF0000080F31188C4
:1001B000BDE8084019680868B0E8F00F80F30988C6
:1001C000BFF36F8F704700BF70000020EFF3118006
:1001D0004FF0100181F31188704780F31188704748
:1001E000EFF3058070470000064880470648004747
:1001F000FEE7FEE7FEE7FEE7FEE7FEE7FEE7FEE7D7
:10020000FEE7FEE7C11900083101000840EA0103DA
:100210009B0703D009E008C9121F08C0042AFAD2BC
:1002200003E011F8013B00F8013B521EF9D2704780
:10023000D2B201E000F8012B491EFBD27047002228
:10024000F6E710B513460A4604461946FFF7F0FFD5
:10025000204610BDF0B480EA0102D40F4200B2EB98
:10026000410F02D20246084611464A0042D0C30D51
:10027000DDB2C1F3C752AD1A202D35DAC1F3160134
:1002800041F4000204B15242C5F1200602FA06F11F
:100290002A411044B3EBD05F23D0C4B1012DA0EBB1
:1002A000C35009DCF0BC4FF0004202EAC352DBB29B
:1002B00000F5000000F045BB400000F1807000EB4D
:1002C000C350A0F1807040EAD170490009E04908AC
:1002D00041EAC071A0EBC35000F50000400800EBFC
:1002E000C350F0BC00F024BB6142012202EB41018B
:1002F000001BF6E7F0BC704781F00041AAE780F0F0
:100300000040A7E780EA010210B502F00043400078
:1003100022D04A001FD0010E01EB1261C0F356003B
:10032000C2F3560240F4000042F40002A0FB022097
:1003300000047F39140400D0401C50EA124001D45C
:100340004000491EC2B20C0604EBD010401C40080D
:10035000802A02D003E0002010BD20F00100002917
:1003600000DA0020184310BD30B480EA010202F028
:10037000004530F0004221F0004013D090B1C30D91
:10038000D40DC2F31601C0F31600E41A41F40001C3
:1003900040F400027D34914201D3641C00E0490026
:1003A000002C02DA30BC002070474FF4000000231C
:1003B000914201D3891A034340084FEA4101F7D122
:1003C00051B1914202D14FF0004105E002D24FF00D
:1003D000010101E06FF0010103EBC450284430BC7F
:1003E00000F0A6BA2DE9FE4F804681EA0300C00F57
:1003F0000C46009021F0004123F00045B8EB0200CC
:10040000A94105D24046214690461C460B4602466D
:1004100023F00040104347D0270DC7F30A00C3F371
:100420000A510290401A019040286BDAC3F313007E
:1004300040F4801B0098924620B10023D2EB030ABF
:1004400063EB0B0B01985946C0F14002504600F097
:100450003EFA06460D4650465946019A00F056FAB5
:1004600010EB08006141002487EA115284EAE77327
:100470001A4340D0009A62B3019A012A4FEA075208
:1004800015DC001B61EB02014FF0004202EA07524B
:10049000CDE90042001C41F5801132462B4600F0A8
:1004A0008DFA03B0BDE8F08F40462146F9E7001B06
:1004B00061EB0201001C41F5801300185B4120181C
:1004C000A2F5001747EB030140EAD570B6196D415C
:1004D00011E06D084FEA360645EAC0754FEA07524B
:1004E000001B61EB0201001C41F5801149084FEA35
:1004F00030000019514132462B4603B0BDE8F04FA1
:1005000000F04DBA0098012240000023D0EB020217
:1005100063EBE073009821464FEAE074B8EB00000B
:1005200061EB0401E9E783F000435BE781F0004100
:1005300058E72DE9FE4F81EA030404F0004421F05E
:10054000004100944FF0000B23F0004350EA0104F7
:100550005ED052EA03045BD0C3F30A54C1F30A55D8
:100560002C44A4F2F3340194A0FB0254C1F3130110
:1005700041F48011C3F3130343F4801301FB0244DD
:1005800000FB034E840A970A44EA815447EA8357E2
:10059000A4FB076802958D0A05FB07854FEA932C9B
:1005A00004FB0C542705029D4FEA065847EA16370C
:1005B000B5EB08056EEB070C870E920E47EA811724
:1005C00042EA8312A7FB0201B6EB0B0164EB0004C5
:1005D0002B0D43EA0C335E1844EB1C50DA465146AF
:1005E000E7FB0201C5F313044FEA0B3343EA14534C
:1005F0004FEA0432019C43EA0603A4F10C0402947E
:10060000009CCDE900B400F0D9F903B0BDE8F08F4B
:1006100000200146F9E72DE9F04D81EA030404F0DA
:10062000004B21F0004514464FF0000A23F0004132
:1006300050EA050220D054EA01021DD0C5F30A5742
:100640000246C5F31303C1F31300C1F30A5640F485
:10065000801543F48013A7EB0608101BD64608F25A
:10066000FD3873EB050002D308F1010801E0921890
:100670005B41B8F1000F03DA00200146BDE8F08DC0
:1006800000204FF48011064684460EE0171B73EBE2
:10069000050705D3121B63EB050306434CEA010C67
:1006A00049084FEA300092185B4150EA0107EDD14A
:1006B00052EA030012D082EA040083EA05010843EB
:1006C00005D0101BAB4106D20122002306E0002218
:1006D0004FF0004302E06FF0010253101AEB0600E6
:1006E0004CEB085110EB0A0041EB0B01BDE8F04D5B
:1006F00000F055B9C10F80EAE0700844CA0796239C
:10070000002100F01EB996230022114600F019B90D
:100710000EB5C10F80EAE0700844CA07002140F21C
:1007200033438DE80E000A460B4600F047F903B04C
:1007300000BD0EB540F2334102910021CDE9001118
:100740000A460B4600F03AF903B000BD00F0004243
:1007500020F00040C10DC0F3160040F400007F29D6
:1007600001DA00207047962903DCC1F19601C840E8
:1007700001E096398840002AF4D04042704720F0CA
:100780000040C10DC0F3160040F400007F2901DADB
:1007900000207047962903DCC1F19601C8407047DC
:1007A00096398840704770B5C1F30A5201F0004590
:1007B0000024C1F3130140F2FF3341F480119A4247
:1007C00001DA002070BD40F233439A42A2F2334274
:1007D00003DC524200F08AF800E090402C43F1D054
:1007E000404270BD00F0004230F000400AD0C10D20
:1007F00001F56071C0F3160042EA0151C2084007DA
:100800001143704700200146704701F0004330B4A7
:1008100021F0004150EA010206D00A0DA2F56072F3
:10082000C1F31301002A02DC30BC00207047440FE2
:1008300044EAC104C100E01830BC00EBC25000F033
:1008400077B80000002801DBC0F10040002901DB7F
:10085000C1F1004181427047002801DBC0F1004036
:10086000002901DBC1F10041884270472DE9F05FAA
:100870000546002092469B4688460646814640240F
:100880001BE0284641464746224600F02FF85346D3
:100890005A46C01A914110D311461846224600F01C
:1008A00016F82D1A67EB01084F4622460120002159
:1008B00000F00DF817EB00094E41201EA4F10104D1
:1008C000DFDC484631462A464346BDE8F09F202AF1
:1008D00004DB203A00FA02F1002070479140C2F197
:1008E000200320FA03F3194390407047202A04DBC9
:1008F000203A21FA02F00021704721FA02F3D04099
:10090000C2F120029140084319467047202A06DBB5
:10091000CB17203A41FA02F043EAE07306E041FACD
:1009200002F3D040C2F120029140084319467047BB
:100930000029A8BF7047401C490008BF20F00100F3
:10094000704710B4B0FA80FC00FA0CF050EA0104D1
:1009500004BF10BC704749B1CCF1200421FA04F463
:1009600011FA0CF118BF012121430843A3EB0C013C
:10097000CB1D4FEA00614FEA102042BF002010BC9F
:10098000704700EBC35010440029A4BF10BC70474F
:10099000401C490008BF20F0010010BC704710B592
:1009A000141E73F1000408DA401C41F10001921892
:1009B0005B411A4301D120F0010010BD2DE9F04D3B
:1009C00092469B4611B1B1FA81F202E0B0FA80F290
:1009D00020329046FFF77BFF04460F4640EA0A00AC
:1009E00041EA0B0153465A46084313D0114653EAD5
:1009F000010019D0C8F140025046FFF777FF0546C5
:100A00000E46504659464246FFF761FF084305D05F
:100A1000012004E020463946BDE8F08D0020054362
:100A200046EAE0762C4337430A986305E40AA0EBD4
:100A300008000022FD0A44EA47540A3002D500208B
:100A40000146E9E7010510196941DDE9084500198A
:100A50006941BDE8F04DA2E7064C074D06E0E068AD
:100A600040F0010394E8070098471034AC42F6D3F5
:100A7000FFF762FB507700087077000870B521F02F
:100A8000004303430CD0C1F30A550024D5EB040501
:100A900064EB0403D617AD1AB34102DB0020014614
:100AA00070BD201841EB025170BD21B1826842F047
:100AB0000102826003E0826822F0010282607047D6
:100AC00010B504461248844208D10121401500F0B7
:100AD000E9FD0021601500F0E5FD17E00D488442B6
:100AE00008D10121001500F0DDFD0021201500F0E6
:100AF000D9FD0BE00848844208D10121C80300F069
:100B0000D1FD00214FF4004000F0CCFD10BD0000ED
:100B10000024014000280140003C01400146002023
:100B20008A6802F004020AB1012000E00020704748
:100B30000146C86C80B270470246002013680B4023
:100B40000BB1012000E000207047014600208A68B8
:100B500002F008020AB1012000E000207047000006
:100B600030B502460020002350680F4C20400D791C
:100B70000C6844EA05242043506090680B4C2040E8
:100B8000D1E902542C434D7944EA45042043906056
:100B9000D06A20F470000C7C641EE4B2234340EA67
:100BA0000350D06230BD0000FFFEF0FFFDF7F1FF03
:100BB000F0B504460D4600200021092D11DDE06846
:100BC000A5F10A0606EB4607072606FA07F1884351
:100BD000A5F10A0606EB460603FA06F10843E060B3
:100BE0000CE0206905EB4507072606FA07F1884364
:100BF00005EB450603FA06F108432061072A0FDAE0
:100C0000606B561E06EB86071F2606FA07F188431F
:100C1000561E06EB860605FA06F10843606322E0DD
:100C20000D2A0FDA206BD61F06EB86071F2606FA61
:100C300007F18843D61F06EB860605FA06F108433E
:100C4000206310E0E06AA2F10D0606EB86071F267E
:100C500006FA07F18843A2F10D0606EB860605FAAF
:100C600006F10843E062F0BD816841F0080181604F
:100C7000704721B1826842F4A002826003E082687A
:100C800022F4A00282607047816841F00401816013
:100C90007047000010B5012006F076F901490860A0
:100CA00010BD00000C0000201FB50020144A0123D5
:100CB000CDE901200093039003464FF4806211A117
:100CC000144806F055FA0020134A0223CDE901200A
:100CD0000093039003464FF4806210A1134806F07E
:100CE00047FA0020124A0323CDE901200093039024
:100CF00003464FF480620FA1124806F039FA1FBD77
:100D000000000020765461736B4465636973696FFA
:100D10006E000000816B00080400002076546173AF
:100D20006B436F6E74726F6C00000000696B00089B
:100D300008000020765461736B50657263657074AF
:100D4000696F6E00D96C000800BFFEE7014609B963
:100D500009487047012901D10848FAE7022901D161
:100D60000748F6E7032901D10648F2E7042901D133
:100D70000020EEE70020ECE75C060020840E002057
:100D8000AC160020D41E002008B525208DF80000E8
:100D900001208DF8010000208DF8020001208DF85F
:100DA0000300684600F0F0FB26208DF800000120CB
:100DB0008DF8010000208DF8020001208DF803005D
:100DC000684600F0E1FB27208DF8000001208DF837
:100DD000010000208DF8020001208DF80300684614
:100DE00000F0D2FB34208DF8000001208DF80100C6
:100DF00000208DF8020001208DF80300684600F005
:100E0000C3FB08BD29B1064A52680243044B5A602D
:100E100004E0034A52688243014B5A607047000065
:100E2000002004E07047000010B54FF4004000F0CF
:100E30003FF860B14FF4004000F034F80448006817
:100E4000401C0349086008464068401C486010BDCB
:100E50000805002010B5082000F02AF858B1082035
:100E600000F020F804488068401C03498860084668
:100E7000C068401CC86010BD0805002010B5802067
:100E800000F016F801280CD103F01CFF012005F03A
:100E900085F9022005F082F903F0F6FD802000F0CC
:100EA00001F810BD014908607047000014040140BA
:100EB000014600200022074B1B6803EA0102054B94
:100EC00014331B680B4013B10AB1012000E000206D
:100ED0007047000000040140002123498279002A64
:100EE0003AD00A46126803689A430B461A600A1DF4
:100EF000126803689A430B1D1A60027911440A684C
:100F000003681A430A60184A0832126803689A4351
:100F1000154B08331A601A1D126803689A43124B66
:100F20000C331A604279102A0ED11A1F1268036816
:100F30001A430D4B08331A601A1D126803681A43CE
:100F4000094B0C331A600DE00749427911440A68D5
:100F500003681A430A6005E0027911440A680368CD
:100F60009A430A60704700000004014030B5002237
:100F70008B071C0F0F2303FA04F20B4B8C1053F852
:100F800024309343084C8D1044F8253023468C10B0
:100F900053F824308C07240F00FA04F42343024C46
:100FA0008D1044F8253030BD080001402DE9F04196
:100FB000024600250026002000230024002791F887
:100FC00003C00CF00F0591F803C00CF0100CBCF13D
:100FD000000F03D091F802C04CEA050591F800C05B
:100FE000BCF1000F31D0146800202BE04FF0010C51
:100FF0000CFA00F3B1F800C00CEA03069E4220D1BF
:1010000083004FF00F0C0CFA03F7BC4305FA03FC06
:101010004CEA040491F803C0BCF1280F06D14FF04C
:10102000010C0CFA00FCC2F814C00AE091F803C0ED
:10103000BCF1480F05D14FF0010C0CFA00FCC2F8CE
:1010400010C0401C0828D1D31460B1F800C0BCF116
:10105000FF0F34DD546800202EE000F1080C4FF043
:10106000010808FA0CF3B1F800C00CEA03069E422E
:1010700021D183004FF00F0C0CFA03F7BC4305FAA3
:1010800003FC4CEA040491F803C0BCF1280F05D11D
:1010900000F1080C08FA0CF8C2F8148091F803C0AB
:1010A000BCF1480F07D100F1080C4FF0010808FA15
:1010B0000CF8C2F81080401C0828CED35460BDE85C
:1010C000F0810000F0B50A4600230024002100252D
:1010D00000F00046B6F1004F02D11D4EF16901E06B
:1010E0001B4E7168C0F3034583B200F44016B6F599
:1010F000401F08D121F07061154E766826F07066A9
:10110000134F7E6012E000F48016B6F5801F06D102
:10111000032606FA05F4A14341F0706106E0460D8E
:10112000360103FA06F6B14341F0706122B1460D73
:10113000360103FA06F6314300F00046B6F1004FDF
:1011400002D1034EF16101E0014E7160F0BD00007B
:10115000000001400246002093680B400BB10120C3
:1011600000E0002070474161704701617047000056
:1011700009A100200CE00A5C124B1A8000BF114A42
:10118000121F128802F04002002AF8D0421CD0B28E
:101190002A28F0D300BFFEE70D0A456E7465722061
:1011A000486172644661756C745F48616E646C6519
:1011B000722C2053797374656D2048616C742E0D08
:1011C0000A0000000438014000B585B00121052067
:1011D00000F058FA0121880300F054FA4FF400702F
:1011E000ADF8100018208DF8130003208DF81200C0
:1011F00004A98748FFF7DAFE4FF48060ADF81000CD
:1012000004208DF8130004A98148FFF7CFFE4FF4A6
:10121000E13000900020ADF80400ADF80600ADF814
:101220000800ADF80C000C20ADF80A0069467948BA
:1012300001F0EAF8012240F22551764801F0BFF8AA
:101240000121744801F085F84021724801F078F8D6
:101250000121052000F016FA0121480400F002FAED
:101260000420ADF8100018208DF8130003208DF82D
:10127000120004A96648FFF799FE0820ADF8100097
:1012800004208DF8130004A96148FFF78FFE04A91C
:101290005F48FFF78BFE4FF4E13000900020ADF87F
:1012A0000400ADF80600ADF80800ADF80C000C2005
:1012B000ADF80A006946584801F0A6F8012240F24C
:1012C0002551554801F07BF80121534801F041F8C0
:1012D0004021514801F034F80121082000F0D2F9F2
:1012E00010208DF8130003208DF812000420ADF8B3
:1012F000100004A94948FFF759FE0121092000F018
:10130000C1F90121880400F0ADF94FF48060ADF817
:10131000100018208DF8130003208DF8120004A986
:101320003E48FFF743FE4FF40060ADF81000042084
:101330008DF8130004A93948FFF738FE04A937488F
:10134000FFF734FE4FF4E13000900020ADF80400C8
:10135000ADF80600ADF80800ADF80C000C20ADF8B3
:101360000A0069462E4801F04FF8012240F225514B
:101370002B4801F024F80121294800F0EAFF402120
:10138000274800F0DDFF0121112000F07BF9012149
:10139000C80400F067F94FF48060ADF81000182021
:1013A0008DF8130003208DF8120004A91D48FFF7E3
:1013B000FDFD4FF40060ADF8100004208DF813001F
:1013C00004A91848FFF7F2FD4FF4E1300090002027
:1013D000ADF80400ADF80600ADF80800ADF80C005B
:1013E0000C20ADF80A0069460F4801F00DF8012203
:1013F00040F225510C4800F0E2FF01210A4800F0BC
:10140000A8FF4021084800F09BFF05B000BD000088
:10141000000801400038014000440040000C014039
:101420000048004000100140004C0040094800689E
:1014300000F0800058B90748006800F4807030B1AF
:101440000448006800F4806008B101207047002063
:10145000FCE70000081801400948006800F080001F
:1014600058B10748006800F4807030B9044800683B
:1014700000F4806008B9012070470020FCE70000FC
:10148000081801400948006800F0800058B107487A
:10149000006800F4807030B90448006800F480608F
:1014A00008B1012070470020FCE700000818014047
:1014B0000948006800F0800058B10748006800F44F
:1014C000807030B10448006800F4806008B90120E1
:1014D00070470020FCE7000008180140044800683D
:1014E00000F08000012800D170470020FCE70000D8
:1014F000081801400448006800F08000012800D16D
:1015000070470020FCE7000008180140044800680C
:1015100000F0800008B9012070470020FCE70000BF
:10152000081801400448006800F0800008B9012054
:1015300070470020FCE700000818014004480068DC
:1015400000F0800008B9012070470020FCE700008F
:10155000081801400948006800F0800058B90748A1
:10156000006800F4807030B90448006800F48060BE
:1015700008B1012070470020FCE700000818014076
:1015800000BFFEE77047000070B5002100230F2266
:10159000C47804B3154C246804F4E064C4F5E06432
:1015A000210AC1F10403CA40447804FA03F18478A3
:1015B0001440214309010E4C0678A155047804F02B
:1015C0001F050124AC4005786D11AD0005F1E02543
:1015D000C5F8004109E0047804F01F050124AC407F
:1015E000044D0678761145F8264070BD0CED00E0FC
:1015F00000E400E080E100E002490143024A11609A
:10160000704700000000FA050CED00E010B502463E
:1016100000200C4B186820F00300104318600A4BA0
:101620001B6843F00403084C2360012901D130BF3B
:1016300000E020BF044B1B6823F00403024C23602E
:1016400010BD00000070004010ED00E001460020D9
:10165000034A506820F4404008435060704700003F
:101660000010024029B1064AD2690243044BDA61F4
:1016700004E0034AD2698243014BDA6170470000FB
:101680000010024029B1064A92690243044B9A6154
:1016900004E0034A92698243014B9A61704700005B
:1016A0000010024029B1064AD2680243044BDA60B6
:1016B00004E0034AD2688243014BDA6070470000BD
:1016C000001002400F48006840F001000D4908601A
:1016D000084640680C4908400A49486008460068C6
:1016E0000A490840074908600846006820F480203D
:1016F00008600846406820F4FE0048604FF41F0070
:1017000088607047001002400000FFF8FFFFF6FEFF
:1017100030B500210022002400232D4D6D6805F016
:101720000C0121B1042905D0082923D105E0294D58
:10173000056022E0274D05601FE0254D6D6805F42A
:101740007012234D6D6805F48034022505EB92423A
:101750001CB9214D554305600BE01D4D6D6805F426
:1017600000351DB11C4D5543056002E0194D554330
:10177000056002E0174D056000BF00BF144D6D68A5
:1017800005F0F0010909154D6B5C0568DD40456009
:101790000F4D6D6805F4E061090A104D6B5C4568FA
:1017A000DD4085600A4D6D6805F46051C90A0B4D36
:1017B0006B5C4568DD40C560054D6D6805F44041D2
:1017C000890B074D6B5CC568B5FBF3F5056130BD52
:1017D0000010024000127A0000093D004500002080
:1017E0005500002010B501460022002300204A11B8
:1017F000012A02D1094C236806E0022A02D1074CD3
:10180000236A01E0054C636A01F01F020124944041
:101810001C400CB1012000E0002010BD001002406F
:101820000248406800F00C007047000000100240C1
:101830001149096821F480310F4A11601146096885
:1018400021F480211160B0F5803F03D0B0F5802FE6
:101850000ED106E00849096841F48031064A11605A
:1018600007E00549096841F4A021034A116000E03E
:1018700000BF00BF7047000000100240014908602F
:1018800070470000000042420149086670470000AE
:101890000000424201460020034A506820F0030045
:1018A00008435060704700000010024010B5044625
:1018B000204601F0F7FD10BD10B500F001F810BD95
:1018C0000CB50020019000903348006840F480304F
:1018D0003149086000BF3048006800F400300090D3
:1018E0000198401C0190009818B90198B0F5A06FBC
:1018F000F1D12948006800F4003010B101200090B7
:1019000001E0002000900098012843D1234800689E
:1019100040F01000214908600846006820F00300EC
:1019200008600846006840F0020008601A484068F5
:10193000194948600846406848600846406840F4D5
:10194000806048600846406820F47C104860084683
:10195000406840F4E81048600846006840F0807035
:10196000086000BF0C48006800F000700028F9D043
:101970000948406820F0030007494860084640686D
:1019800040F00200486000BF0348406800F00C00CF
:101990000828F9D10CBD00000010024000200240D0
:1019A00010B5FEF713FC05F085FC18B14FF0805020
:1019B000024908600020FEF710FC10BD04ED00E0B5
:1019C00010B51348006840F001001149086008464E
:1019D0004068104908400E494860084600680E49B2
:1019E00008400B4908600846006820F48020086021
:1019F0000846406820F4FE0048604FF41F008860ED
:101A0000FFF75AFF4FF000600449086010BD000066
:101A1000001002400000FFF8FFFFF6FE08ED00E0B6
:101A2000F0B50C46154600220021068C4FF6FE77D5
:101A30003E400684028B018C4FF60C7632407E1CB1
:101A400006EA03162E433243104EB0420ED0104E1B
:101A5000B0420BD0B0F1804F08D00E4EB04205D04E
:101A60000D4EB04202D00D4EB04206D14FF6FD767B
:101A7000314044F00106314305E04FF6F576314040
:101A800044F00106314302830184F0BD002C014083
:101A9000003401400004004000080040000C0040F9
:101AA000F0B50C461546002200210026078C4FF6A3
:101AB000EF7C07EA0C070784028B018C4FF6FF7757
:101AC00007EA041640F6FF473A404FF6FF7707EA69
:101AD00003373A434FF6FF7707EA05273A43114F9A
:101AE000B8420ED0104FB8420BD0B0F1804F08D0A2
:101AF0000E4FB84205D00E4FB84202D00D4FB8423B
:101B000006D14FF6DF77394046F01007394305E03C
:101B10004FF65F77394044F0100739430283018460
:101B2000F0BD0000002C01400034014000040040E2
:101B300000080040000C0040F0B50C46154600229D
:101B400000210026078C4FF6FF6C07EA0C0707847C
:101B5000828B018C4FF6FF7707EA04264FF60C774D
:101B60003A404FF6FF7707EA03172F433A43114FE6
:101B7000B8420ED0104FB8420BD0B0F1804F08D011
:101B80000E4FB84205D00E4FB84202D00D4FB842AA
:101B900006D14FF6FF57394046F48077394305E0C8
:101BA0004FF2FF57394044F48077394382830184F0
:101BB000F0BD0000002C0140003401400004004052
:101BC00000080040000C0040F0B50C46154600220D
:101BD00000210026078C4EF6FF7C07EA0C070784DD
:101BE000828B018C4FF6FF7707EA043640F6FF47F9
:101BF0003A404FF6FF7707EA05273A434FF6FF775B
:101C000007EA03373A43114FB8420ED0104FB8429B
:101C10000BD0B0F1804F08D00E4FB84205D00E4F18
:101C2000B84202D00D4FB84206D14DF6FF77394089
:101C300046F48057394305E047F6FF57394044F4EE
:101C40008057394382830184F0BD0000002C01409D
:101C5000003401400004004000080040000C004037
:101C600010B50121224800F0F7F878B10121204891
:101C700000F0C4F8002002F04FFE012002F04CFEFC
:101C8000022002F049FE032002F046FE022118481D
:101C900000F0E2F830B10221154800F0AFF8002062
:101CA00002F084FD0421124800F0D6F830B104217E
:101CB0000F4800F0A3F8012002F078FD08210C483D
:101CC00000F0CAF830B10821094800F097F8022066
:101CD00002F06CFD1021064800F0BEF830B1102172
:101CE000034800F08BF8032002F060FD10BD0000F7
:101CF0000004004010B50221214800F0ADF858B1B1
:101D000002211F4800F07AF8002202211C4800F04E
:101D10000BF91C48006880470421194800F09CF822
:101D200058B10421164800F069F800220421144833
:101D300000F0FAF81448006880470821104800F0C5
:101D40008BF858B108210E4800F058F800220821FD
:101D50000B4800F0E9F80D4800688047102108485A
:101D600000F07AF858B11021054800F047F8002239
:101D70001021034800F0D8F805480068804710BDDE
:101D8000000C004034000020380000203C000020FF
:101D90004000002010B501210F4800F05DF8D0B1DF
:101DA0000E480068401C0D49086008460068142170
:101DB000B0FBF1F201FB120000EB8000400008B91B
:101DC00004F00EFA06480068401C0549086001212D
:101DD000014800F013F810BD00100040180000206A
:101DE0001400002021B1028842F08002028004E049
:101DF00002884FF67F731A4002807047CA430282FE
:101E0000704721B1028842F00102028004E002889A
:101E10004FF6FE731A400280704731B1B0F844208B
:101E200042F40042A0F8442005E0B0F84420C2F398
:101E30000E02A0F8442070470146888E7047014684
:101E4000088F70470146888F70470146B1F84000FF
:101E500070470146888C704730B502460020002349
:101E60000024158A05EA0103958905EA010413B1E6
:101E70000CB1012000E0002030BD000070B5054627
:101E80000C46244885420ED0234885420BD0B5F13C
:101E9000804F08D02148854205D02148854202D094
:101EA0002048854200D100E000BF208850B9238936
:101EB000A28861882846FFF7B3FDE188284600F034
:101EC000A1F925E0208804280AD12389A288618805
:101ED0002846FFF7E5FDE188284600F09CF917E069
:101EE000208808280AD12389A28861882846FFF71C
:101EF00023FEE188284600F09BF909E02389A288A7
:101F000061882846FFF760FEE188284600F099F9CD
:101F100070BD0000002C014000340140000400406E
:101F200000080040000C00401AB183890B438381F4
:101F300002E083898B4383817047000070B50024E1
:101F400000220023058C4FF6FE7635400584028C76
:101F50008388048B4FF68F752C40B51E2C400D885E
:101F60002C43751E2A400D892A434D882A43144D5F
:101F7000A8420BD0134DA84208D0134DA84205D05B
:101F8000124DA84202D0124DA84213D14FF6F77558
:101F90002A404D892A434FF6FB752A408D882A43F3
:101FA0004FF6FF652B404FF6FF552B408D892B4395
:101FB000CD892B4383800483CD888586028470BDC0
:101FC000002C014000340140004001400044014029
:101FD000004801400A460021018B4FF6F773194073
:101FE000114301837047000070B5002400220023D4
:101FF000058C4FF6EF7635400584028C8388048B80
:1020000048F6FF752C404FF6FF452C400D884FF6E3
:10201000FF7606EA05252C434FF6DF752A400D8929
:1020200006EA05152A434D8806EA05152A43154D8B
:10203000A84202D0144DA8421DD14FF67F752A4008
:102040004D894FF6FF7606EA05152A434FF6BF7510
:102050002A408D8806EA05152A434FF6FF352B40A6
:102060004FF2FF752B408D8906EA85052B43CD89FC
:1020700006EA85052B4383800483CD880587028487
:1020800070BD0000002C0140003401400A460021D0
:10209000018B4FF2FF7319404FF6FF7303EA0223DF
:1020A000194301837047000070B50024002200230B
:1020B000058C4FF6FF6635400584028C8388848B3F
:1020C0004FF68F752C404FF6FC752C400D882C4335
:1020D0004FF6FF552A400D894FF6FF7606EA052593
:1020E0002A434D8806EA05252A43154DA84202D009
:1020F000144DA8421DD14FF2FF752A404D894FF66D
:10210000FF7606EA05252A434FF6FF352A408D88DB
:1021100006EA05252A434EF6FF752B404DF6FF755E
:102120002B408D8906EA05152B43CD8906EA051556
:102130002B4383808483CD888587028470BD000013
:10214000002C0140003401400A460021818B4FF6EB
:10215000F7731940114381837047000070B5002266
:1021600000230024058C4EF6FF7635400584038C51
:102170008488828B48F6FF752A404FF6FF452A4037
:102180000D884FF6FF7606EA05252A434DF6FF75C2
:102190002B400D8906EA05352B434D8806EA0535A7
:1021A0002B430B4DA84202D00A4DA84208D14BF652
:1021B000FF752C408D894FF6FF7606EA85152C4376
:1021C00084808283CD88A0F84050038470BD0000D5
:1021D000002C0140003401400A460021818B4FF25F
:1021E000FF7319404FF6FF7303EA022319438183FB
:1021F0007047818670470187704781877047A0F8D4
:1022000040107047028B4FF6F3731A400283028B23
:102210000A4302837047028B4FF2FF331A40028356
:10222000028B4FF6FF7303EA01231A4302837047C0
:10223000828B4FF6F3731A408283828B0A43828328
:102240007047828B4FF2FF331A408283828B4FF6A6
:10225000FF7303EA01231A43828370470022028836
:102260001D4B98420ED01D4B98420BD0B0F1804FC1
:1022700008D01B4B984205D01A4B984202D01A4BFB
:10228000984204D14FF68F731A404B881A43174B6C
:10229000984207D0164B984204D04FF6FF431A409D
:1022A000CB881A4302808B8883850B8803850A4B71
:1022B00098420BD0094B984208D00E4B984205D05B
:1022C0000D4B984202D00D4B984201D10B7A0386F8
:1022D0000123838270470000002C0140003401403C
:1022E0000004004000080040000C004000100040C6
:1022F00000140040004001400044014000480140FB
:1023000010B5024800F01AF910BD0000D41E0020DC
:1023100010B5024800F012F910BD00005C06002064
:1023200010B5024800F00AF910BD0000840E00202C
:1023300010B5024800F002F910BD0000AC160020F4
:1023400001F40072B2F5007F00D100BFCA430280E1
:10235000704721B1828942F40052828104E082896F
:102360004DF6FF731A408281704770B50246002413
:1023700000230025002040F66A16B14200D100BFBC
:10238000C1F3421501F01F03012606FA03F3012DE4
:1023900002D19689334006E0022D02D1168A3340DD
:1023A00001E0968A33400C12012606FA04F41688DE
:1023B000344013B10CB1012000E0002070BDF0B535
:1023C0000346002400260025002040F66A17B94283
:1023D00000D100BF1846C1F3421401F01F060127C7
:1023E00007FA06F5012C01D10C3004E0022C01D1D2
:1023F000103000E014301AB107682F43076002E084
:102400000768AF430760F0BD2DE9F04786B0054689
:102410000E460024A24600BFA1460027B08900B1A5
:1024200000BF2F462C8A4CF6FF700440F08804430E
:102430002C82AC894EF6F3100440B08831890843F1
:10244000718908430443AC81AC8A4FF6FF400440D5
:10245000B0890443AC8201A8FFF75AF91F488742AC
:1024600002D1DDF810A001E0DDF80CA0A88900F48D
:10247000004040B10AEBCA0000EB0A103168490085
:10248000B0FBF1F807E00AEBCA0000EB0A10316874
:102490008900B0FBF1F86420B8FBF0F004012009DA
:1024A000642101FB1089A88900F4004040B132206A
:1024B00000EBC900B0FBF1F000F00700044308E0B6
:1024C000322000EB09106421B0FBF1F000F00F00A6
:1024D00004432C8106B0BDE8F087000000380140BD
:1024E00001468888C0F308007047C1F30802828063
:1024F000704770B504460D46012000F098FC668BCD
:10250000002000F094FC0EB9002070BD218BA06863
:10251000405C2870012000F08AFC208B401C80B2B7
:102520002083E189884201DB00202083608B401EEC
:102530006083002000F07BFC0120E6E770B50446D4
:1025400040F225512068FFF710FFE0B12068FFF747
:10255000C7FFC5B2E18AA0684554E08A401C80B23A
:10256000E082E189884201DB0020E082608BE18922
:10257000884202DA608B401C6083606A10B1284692
:10258000616A884700BF40F227712068FFF7EDFEBF
:1025900008B3A08A60B9002240F227712068FFF7D3
:1025A0000EFF012240F226612068FFF708FF37E0A6
:1025B000638A6268D15C2068FFF797FF608A401CDD
:1025C00080B26082A189884201DB00206082A08AFB
:1025D000401EA08224E040F226612068FFF7C5FE7D
:1025E000F0B1A08A50B9002240F226612068FFF7BE
:1025F000E6FE206AA0B1206A804711E0638A626823
:10260000D15C2068FFF771FF608A401C80B2608255
:10261000A189884201DB00206082A08A401EA0823E
:1026200070BDF8B504460E461746002529E00EE0B9
:10263000012000F0FCFBA08A0090002000F0F7FBD6
:10264000A089BDF80010884200DD01E000BFEFE77F
:1026500000BF705D228A61688854012000F0E7FBAA
:10266000208A401C80B22082A189884201DB0020A0
:102670002082A08A401CA082002000F0D8FB681CA9
:1026800085B2BD42D3DB012240F227712068FFF7FB
:1026900096FEF8BD2A482B4908602B4848602B4815
:1026A00088604FF480608881C88100200882488259
:1026B000C882088348838882C861086248622448C7
:1026C0002449086024484860244888604FF48060AA
:1026D0008881C881002008824882C8820883488394
:1026E0008882C861086248621D481E4908601E4809
:1026F00048601E4888604FF480608881C88100204F
:1027000008824882C882088348838882C861086238
:102710001748486217481849086018484860184820
:1027200088604FF480608881C881002008824882D8
:10273000C882088348838882C861086248627047FB
:10274000003801405C06002084060020840A002036
:1027500000440040840E0020AC0E0020AC1200208B
:1027600000480040AC160020D4160020D41A0020E7
:10277000AD180008004C0040D41E0020FC1E0020B4
:10278000FC22002000BFFEE70FB4054B10B503A9E3
:10279000044A029800F054FB10BC5DF814FB0000E2
:1027A0002D630008D4000020490050EAC12018BF62
:1027B00004204A0D18BF40F0010040F2FF72B2EB56
:1027C000515F08BF40F00200012808BF0520704794
:1027D0002DE9F74F144694B00021C4E90211159970
:1027E000079121F00045C9498D4206DC1599C4E9DD
:1027F000000117B00020BDE8F08FC549DFF814A331
:10280000A9423CDD0799C44E0029C44FC44A15991A
:10281000534619DDFDF787FE554506D0C14AC24B28
:10282000FDF781FEC4E900010AE04FF0D352BE4B30
:10283000FDF779FE32463B46FDF775FEC4E900011F
:1028400017B00120BDE8F08FFDF7CCFD554506D04F
:10285000B44AB54BFDF7C6FDC4E900010AE04FF0EC
:10286000D352B14BFDF7BEFD32463B46FDF7BAFDF4
:10287000C4E9000117B04FF0FF30BDE8F08FAB495D
:10288000A942159978DB21F0004183468846A84A81
:10289000A84BFDF74EFE0022A74BFDF7A3FDFDF769
:1028A00082FF0990FDF734FF06460F469C4A5346C7
:1028B000FDF73FFE43465A46FDF738FE80468A46FE
:1028C000984A994B30463946FDF733FE2A0D0125CB
:1028D0000B9242465346FDF729FE032DC4E9000141
:1028E00039D00B98C1F30A51401A05EB4511113943
:1028F000814230DA9148C346784400EB0510CDF8A8
:102900000CA00C90D0E9002330463946FDF711FEAB
:1029100002460B460491069058460399FDF703FEC4
:1029200080468A4602460B4658460399FDF7FBFD52
:10293000049B069AFDF7F7FD83460C9803913946F0
:10294000D0E902233046FDF7F4FD5A46039BFDF71C
:10295000EAFD6D1CBDE707980028A2BF099817B0D3
:10296000BDE8F08F616881F000416160099817B09F
:102970004042BDE8F08FFFE784461598C1F313018C
:10298000C0F30A50A0F2F5304FEA601800F01F06BD
:10299000C6F12000139000200690079041F4801E9D
:1029A00005206D4676B1664A08EB00017A4452F87C
:1029B000213002EB8101B3404A68139922FA01F1F8
:1029C000194305E05F4908EB0002794451F82210F1
:1029D000A1FB0E27A1FB0C131A449A4234BF01231A
:1029E000002303EB070A05EB8003D3E901B70F448B
:1029F0008F4234BF0121002193448B4411B1934590
:102A000002D903E0934501D2012100E00021C3E98E
:102A100001B7514445F82010011EA0F10100C1DCAE
:102A20000298059F00F10050800F12900298DDE996
:102A300003568000FDF76CFE834628460D91FDF796
:102A400078FE6FF01D02FEF719F8CDE90E01304651
:102A5000FDF76FFE6FF03D02FEF710F880468A46E4
:102A60003846FDF766FE6FF05D02FEF707F8074691
:102A7000424653461191FDF7B5FCDDE90E23FDF703
:102A8000B1FC5A460D9BFDF7ADFC00250E465A469B
:102A900028460D9BFDF747FDDDE90E23FDF743FDBD
:102AA00042465346FDF73FFD3A46119BFDF73EFD7A
:102AB000DFF898A0244A5346FDF73BFD07468846B9
:102AC000234A244B31462846FDF733FD3A46434618
:102AD000FDF788FC074688464FF0A842534631462A
:102AE0002846FDF726FD3A464346FDF77BFC159A3E
:102AF00012F0004F04D0129A81F00041524212921B
:102B0000C4E90001129817B0BDE8F08FFB21E93F3E
:102B10007CD90240FB21F93F7370032E8A19A33B35
:102B2000000040543163621A61B4D03DFB21394149
:102B300083C8C96D305FE43F0000E03F644D000092
:102B4000E04C0000C24C0000182D4454FB21F93D1C
:102B50003326A611460B113C2DE9FF4D21F000480C
:102B600007460C46B8F1795F08DAFDF71CFE00282D
:102B700001BF0020324904B0BDE8F08D3A4623463B
:102B800010461946FDF7D5FC054602462D480E466F
:102B90000B460621784400F05DF82A463346FDF7DF
:102BA000C8FCDDE9022382468B4638462146FDF704
:102BB000C0FC04460F4652465B4628463146FDF7A8
:102BC000B8FC22463B46FDF7AEFC07468A464FF06E
:102BD000FF3228463146FDF751FF1B4A90450ADA7D
:102BE0003A465346FDF79FFC04B00022BDE8F04D85
:102BF000134BFDF79BBC154A4245A8BFA8F500152D
:102C00004FF00004B8BF124D22462B46FDF78BFC57
:102C10000646884622462B4600200949FDF783FCDC
:102C200004460D463A46534630464146FDF77BFC86
:102C300004B022462B46BDE8F04DFDF777BC0000FE
:102C40000000F03F984A00003333D33F0000E93FD3
:102C50000000D23F2DE9F0414F1E00EBC7010446B2
:102C6000D1E9000115461E4637F006020DD02A466E
:102C70003346FDF75EFC7F1E04EBC703D3E9002358
:102C8000FDF7B0FB37F00602F1D1022F25D0042F5B
:102C900013D0062F18BFBDE8F0812A463346FDF752
:102CA00048FCD4E90A23FDF79DFB2A463346FDF78D
:102CB00040FCD4E90823FDF795FB2A463346FDF78F
:102CC00038FCD4E90623FDF78DFB2A463346FDF791
:102CD00030FCD4E90423FDF785FB2A463346FDF793
:102CE00028FCD4E90223FDF77DFB2A463346FDF795
:102CF00020FCD4E90023BDE8F041FDF773BB0000E0
:102D00002DE9FF4D054621F0004084B00C46B0F19E
:102D1000795F0BDA2846FFF747FD042808BF00F06B
:102D20006FF8284608B02146BDE8F08D2A460B46CC
:102D30001046FDF7FEFB06460F462A462346FDF7E2
:102D4000F8FB804626488A4632463B4605217844B1
:102D5000FFF780FF83461098029160B3214A224B0F
:102D600040465146FDF7E5FBCDE900015A46404695
:102D70005146029BFDF7DDFB82468846DDE90601F0
:102D80004FF0FF32FDF77AFE52464346FDF7CBFB8C
:102D900032463B46FDF7CDFBDDE90623FDF7C3FBDD
:102DA000DDE90023FDF7BFFB08B02A462346BDE856
:102DB000F04DFDF7BBBB0B465A4630463946FDF792
:102DC000B8FB084A084BFDF70DFB42465346FDF79A
:102DD000B0FB08B02A462346BDE8F04DFDF702BB24
:102DE000D6490000495555555555C5BF0122FDF737
:102DF00045BE0022134610461146FDF70CBC0000EC
:102E0000024A00201107FDF739BE000001FDFFFF57
:102E100002E008C8121F08C1002AFAD170477047A3
:102E2000002001E001C1121F002AFBD1704780F38E
:102E3000108870470149086070470000D8000020E2
:102E40002DE9FF4F8DB00F460546002606E02528E8
:102E50000BD0DDE90F1290476D1C761C28780028F6
:102E6000F5D111B03046BDE8F08F0024A246A1464E
:102E70000122EC4900E0044315F8013F203B02FA2F
:102E800003F00842F7D128782A2810D06FF02F02DB
:102E90002878A0F13001092914D80AEB8A0102EB45
:102EA000410144F0020400EB010A6D1CF0E701CF80
:102EB0005FEA000A03D544F40054CAF1000A44F062
:102EC00002046D1C28782E2817D115F8010F44F044
:102ED00004042A280ED06FF02F022878A0F13001C8
:102EE00009290AD809EB890102EB410100EB01092C
:102EF0006D1CF2E757F8049B6D1C28786C280FD0E6
:102F000006DC4C2817D068280DD06A2814D104E0BC
:102F1000742810D07A280FD10DE044F400140AE090
:102F200044F4801401E044F440146978814202D1F1
:102F300004F580146D1C6D1C2A786E2A1FD00CDCE1
:102F4000632A31D004DC002A8BD0582A11D1A3E0A7
:102F5000642A68D0692A0CD165E0732A2ED004DC7B
:102F60006F2A73D0702A04D19BE0752A6FD0782A1B
:102F70006ED01046DDE90F129047761C50E1C4F385
:102F80000250022806D0032809D0042801CF09D016
:102F9000066045E101CFF117C0E9006140E101CFD2
:102FA00006803DE106703BE117F8040B8DF8000048
:102FB00000208DF80100EB46012003E057F804BB28
:102FC0004FF0FF3061074FF0000102D40DE008F12F
:102FD0000101884649450FDA8045F8DB1BF80810E7
:102FE0000029F4D108E008F1010188468142FADBAA
:102FF0001BF808100029F6D1DDE90F23AAEB080021
:103000008146214600F036F9304400EB080604E022
:10301000DDE90F121BF8010B9047B8F10108F7D258
:1030200021464846F7E00A21C4F302534FF0000B53
:103030000891022B04D001CFC117032B09D00AE05D
:10304000FF1D27F00707F7E8020108E032E01FE064
:1030500020E000B2C117042B01D140B2C117031EFA
:1030600071F1000307DA4FF0000CD0EB0C006CEBB1
:1030700001012D2302E0230504D52B238DF82430F4
:10308000012303E0E30701D02023F7E7984658E047
:103090000A2110E010210EE010204FF0000B0890E4
:1030A0000CE010214FF0000B44F004044FF008092D
:1030B000089103E008214FF0000B0891C4F302537C
:1030C000022B04D001CF0021032B06D006E0FF1D08
:1030D00027F00707F7E8020103E080B2042B00D1D4
:1030E000C0B24FF0000823072BD5702A07D0DDF8B7
:1030F00020C08CF0100C5CEA0B0C05D00EE04023D5
:103100008DF82430012308E050EA010306D0302373
:103110008DF824308DF8252002239846DDF820C054
:103120008CF0080C5CEA0B0C0BD150EA010301D1C6
:10313000630706D530238DF824304FF00108A9F13C
:103140000109582A04D038A20B9208AA0A920BE06F
:103150003AA2F9E75B46089AFDF788FB0B9B9B5C5C
:103160000A9A521E0A92137050EA0102F2D10A988A
:10317000ADEB000000F1200B600702D524F4803491
:1031800001E04FF00109D94502DDA9EB0B0000E099
:10319000002000EB0B0141440890AAEB010AE00378
:1031A00006D4DDE90F232146504600F063F80644BB
:1031B0004FF0000908E009A911F80900DDE90F1234
:1031C000904709F10109761CC145F4DBE0030CD5F9
:1031D000DDE90F232146504600F04CF8064404E098
:1031E000DDE90F1230209047761C0899481E0890A0
:1031F0000029F5DC08E00A980A990078491C0A9130
:10320000DDE90F129047761CBBF10001ABF1010B19
:10321000F1DC21465046DDE90F2300F019F80644A1
:103220006D1C1BE609280100303132333435363746
:103230003839616263646566000000003031323302
:1032400034353637383941424344454600000000A2
:103250002DE9F041044600251E461746880404D493
:1032600005E039462020B0476D1C641EF9D528467C
:10327000BDE8F0812DE9F041044600251E46904648
:10328000C80301D5302700E02027880404D505E0D5
:1032900041463846B0476D1C641EF9D52846BDE846
:1032A000F081000000B587B001214FF48260FEF785
:1032B000E9F94FF40040FEF7C9F91020ADF8040019
:1032C00000208DF8070001A91748FDF76FFE174889
:1032D000FDF7F6FB002002908DF80C008DF80D0034
:1032E0004FF4602004900020059001208DF8180014
:1032F00002A90E48FDF734FC01210C48FDF7D5FB6F
:103300000A48FDF7B1FC00BF0848FDF71EFC002885
:10331000FAD10648FDF7B8FC00BF0448FDF7FEFBF4
:103320000028FAD107B000BD00100140002801407C
:103330002DE9F04105460E4631462846FCF78AFF46
:10334000044610492046FDF787FA09D80D49204662
:10335000FCF7D2FF07460C49FCF77CFF04460DE062
:1033600009492046FDF76EFA08D821460648FCF7C1
:10337000C3FF07460349FCF7C2FF04462046BDE8E9
:10338000F081000000003443000034C370B50948E8
:10339000017A407A41EA002004B22046FDF7AAF9FA
:1033A00005460549FCF7E0FF0249486108460483E9
:1033B00070BD0000DC0000200000C84223480179F5
:1033C000407941EA002000B2214908801F488179F4
:1033D000C07941EA002000B21D4948801B48017AAB
:1033E000407A41EA002000B2194988801748817A62
:1033F000C07A41EA002000B21549C8801348017B19
:10340000407B41EA002000B2114908810F48807BCF
:1034100040B288720D48C17B007C41EA002000B2B6
:103420000B4988810846B0F90000B1F90210084440
:103430000749B1F9041008440549B1F9061088425A
:1034400001D0002070470120FCE70000DC000020D4
:10345000F800002010B50C48007800B910BD00201D
:1034600009490870084640880D2800D006E0FFF79B
:10347000A5FF00B902E0FFF789FF00BF0020024965
:10348000488000BFEAE70000DC00002001484069F6
:1034900070470000DC0000200148B0F918007047B8
:1034A000DC00002070B5044600200A49087040F294
:1034B0002F15094A2946032002F0B6FD0548408829
:1034C0000D2806DA03494888411C024A5180111D23
:1034D0000C5470BDDC0000201135000810B54FF40D
:1034E00000510A48FDF741FE0A2000F077FA4FF438
:1034F00000510648FDF737FE0A2000F06FFA4FF43E
:1035000000510248FDF731FE10BD0000000C0140E3
:1035100010B5012002490870FFF79CFF10BD0000A4
:10352000DC0000200022002100BF07E0074B5B5CAD
:10353000012B01D1531CDAB24B1CD9B21429F5DB93
:10354000022A01DB012000E0002070474406002031
:1035500010B51248007800B910BD032000F0CAFE73
:1035600004464FF07E51FDF777F905D801210B484D
:10357000026A0C30815404E000210848026A0C30D1
:1035800081540648006A401C044908620846006AE3
:10359000142801D30020086200BFDDE738060020B0
:1035A00030B504460D46FF21FF22002307E0E05C12
:1035B000084480B20146104482B2581CC3B2AB42E8
:1035C000F5DBC8B200EB2121D0B200EB222241EAA8
:1035D000022080B230BD00002DE9F047002400BF7A
:1035E00000210D460E4600BF0EE0002000F0C6FD93
:1035F0008146FDF7F7F807462A463346FCF7F2FE08
:1036000005460E46601CC4B2322CEEDB0022294B6C
:1036100028463146FCF7FFFF0746FDF7F6F8264936
:10362000486000210D460E4600240EE0012000F007
:10363000A5FD8146FDF7D6F807462A463346FCF736
:10364000D1FE05460E46601CC4B2322CEEDB0022D1
:10365000184B28463146FCF7DEFF0746FDF7D5F844
:103660001549086100210D460E4600240EE0022097
:1036700000F084FD8146FDF7B5F807462A4633463B
:10368000FCF7B0FE05460E46601CC4B2322CEEDBE1
:103690000022084B28463146FCF7BDFF0746FDF7E0
:1036A000B4F80549C86105480860C8608861BDE88C
:1036B000F087000000004940F0050020CDCCCC3F51
:1036C00010B520211948FDF745FD38B14FF4807140
:1036D0001748FDF73FFD08B1022424E020211348DC
:1036E000FDF738FD20B1FFF71DFF08B102241AE0F5
:1036F0004FF480710E48FDF72DFD20B1FFF712FF4A
:1037000008B102240FE020210848FDF723FD08B18D
:10371000002408E04FF480710548FDF71BFD08B157
:10372000012400E00324204610BD000000080140F1
:10373000001C01402DE9F04F8FB000200D900024B7
:1037400003200E90EEE09DF834102046E21704EBC3
:10375000D2525212A4EB42227A4B9954601C84B28A
:10376000012C05D19DF83400AA28EBD00024D9E023
:10377000022C05D19DF83400AA28E3D00024D1E022
:10378000032C05D19DF83400AA28DBD00024C9E021
:10379000042C11D19DF834006B4988709DF83400D9
:1037A0002528CFD09DF834003528CBD09DF83400A3
:1037B0004528C7D00024B5E0052C04D19DF834007D
:1037C00061490880AEE0604800880830A042B9DC5A
:1037D000A01FC1B25B48C01CFFF7E2FE0C90A01E08
:1037E0005849095CE01E574A105C41EA00200B90E2
:1037F000601E1146085C552803D1DDE90B10884294
:1038000001D000248DE05048807825287ED14D4895
:1038100080794C49497940EA01200FFA80F94948FA
:10382000007A4849C97940EA012000B20A900A9812
:10383000FCF760FF45490090FCF764FD44490190A6
:10384000FCF792FD80464349FCF75CFD0746FCF718
:10385000C9FFCDE904014FEA4900FCF759FF0746CB
:103860003D4A3E4BFCF765FECDE90201DDE904234C
:10387000FCF759FE00223A4BCDE90601FCF759FE50
:1038800005460022374BFCF754FE8246FCF78BFFBF
:1038900000B209900A98FCF72DFF2C490090FCF724
:1038A00031FD2B490190FCF75FFD83462949FCF768
:1038B00029FD8246FCF796FFCDE904014FEA490055
:1038C000FCF726FF8246244A244BFCF732FECDE962
:1038D0000201DDE90423FCF785FD05460022204BAB
:1038E000FCF727FE074600221E4BFCF722FECDE91F
:1038F0000601FCF758FF00B20890099801F0CCFDD2
:1039000005462946002002F065FA00E008E0089824
:1039100001F0C2FD05462946012002F05BFA00BF16
:10392000002400BF0DA90E9802F084FC00287FF44B
:103930000AAF0E9001200E9002200E900FB0BDE84D
:10394000F08F0000B40200201C000020C3F54840A6
:10395000000034431F856B3EFCA9F1D24D62503FFD
:103960000000E03F00408F4008B506208DF80000C1
:1039700001208DF8010000208DF802008DF8030071
:103980006846FDF701FE06208DF800006846FDF749
:10399000FBFD07208DF800006846FDF7F5FD0820C7
:1039A0008DF800006846FDF7EFFD09208DF8000056
:1039B0006846FDF7E9FD0A208DF800006846FDF72E
:1039C000E3FD17208DF800006846FDF7DDFD282097
:1039D0008DF800006846FDF7D7FD08BD10B5044618
:1039E0004FF47A7104FB01F000F002F810BD000002
:1039F00030B5084C63680021074C2468074DB4FBC0
:103A0000F5F404FB00F202E0024C6468E11A914212
:103A1000FAD330BD001000E05C00002040420F00EF
:103A200070B50546304800EB051420688047002833
:103A30003ED02079062802DA0620207152E0207953
:103A40000C2803DA2079401C20714BE0A07A38B9A9
:103A50000120A07205EB4501491CC8B201F0EEFF40
:103A6000208900283EDDE088218988420DDAE0883F
:103A7000401C80B2E0802189884233D105EB4501AA
:103A8000C91CC8B201F0DAFF2CE0E07A002829DD79
:103A9000207B401CC0B22073E17A884222DB0020E8
:103AA000207305EB4501491CC8B201F0C7FF19E0BE
:103AB0002079062802DD0620207110E0207918B157
:103AC0002079401E20710AE0A07A012807D1002049
:103AD000A07205EB4501891CC8B201F0AFFF0020C0
:103AE000E080207370BD0000FC2600200020044907
:103AF00048704860488108720120087070470000D3
:103B0000080100201FB501210420FDF7BBFD4FF483
:103B10000040ADF80C0004208DF80F0003A92E48DA
:103B2000FDF744FA01210846FDF7ACFD0F21002006
:103B3000FDF71CFA4FF40040019000208DF80800BA
:103B400010208DF8090001208DF80A0001A8FDF76A
:103B5000C3F928208DF800000F208DF80100002007
:103B60008DF8020001208DF803006846FDF70CFD7A
:103B700001214020FDF786FD0820ADF80C0004204F
:103B80008DF80F0003A91548FDF710FA012108462A
:103B9000FDF778FD03210420FDF7E8F908200190E6
:103BA00000208DF8080010208DF8090001208DF804
:103BB0000A0001A8FDF790F909208DF800000F20F8
:103BC0008DF8010000208DF8020001208DF803001F
:103BD0006846FDF7D9FC1FBD0008014000180140F0
:103BE0002DE9F0417548007808B9BDE8F0817348C7
:103BF000406806280FD2DFE800F0030F6387C0C8D3
:103C000000F0EAF8FFF75CFD032804D06B48406839
:103C1000401C6A494860CDE000F074FB0446FFF7A1
:103C20004FFD664908750846007D03280ED000F058
:103C3000EFFB00F01DFB6149C86003F035FB5F49F5
:103C4000886008464068401C486038E04FF07F516B
:103C50002046FCF701FE0BD84FF080412046FCF7D0
:103C6000F1FD05D800F0C2F800205449886126E033
:103C70004FF07F512046FCF7E5FD15D200F0CAF861
:103C80004F492046FCF7DEFD19D24C488169806916
:103C9000401C4A4A9061B1F5FA7F10D300201146CA
:103CA0008861042048600AE04FF080412046FCF71C
:103CB000D3FD04D200F0A4F800204049886179E0E7
:103CC00003F0F2FA3D498968401AB0F5FA6F0CD258
:103CD00000F0CEFA3949C968451A2846FCF713FDA9
:103CE00004463849FCF7B8FD0DD801F0C9FEFFF7CE
:103CF000CDFB3249086103F0D7FA304988600846A5
:103D00004068401C486055E000F0FCFA0646FFF7AA
:103D1000BDFB0746294908692B49FFF709FB804687
:103D20003946FCF7E9FA054602F019FB04464FF064
:103D30008041FCF787FD1AD94FF07E513046FCF7E1
:103D40008BFD19D821493046FCF77CFD14D8FFF7CC
:103D50009DFB0746194801693846FCF7CDFA054630
:103D600002F0FDFA04461A49FCF776FD04D800F08B
:103D70003DF80120114948601CE001F02BFD0F487F
:103D80004068401C0D49486014E000F0BBFA04464E
:103D9000FFF796FC032809D10E492046FCF75CFD8D
:103DA00007D80A492046FCF74DFD02D801200349F7
:103DB000486000BF00BF00BF17E700009801002067
:103DC000CDCC4C3EEA593A420000A0413333534037
:103DD000000020419A99993F10B50621002001F07A
:103DE000F9FF0621012001F0F5FF10BD10B50621F5
:103DF000002001F0EFFF0621012001F0EBFF10BDD4
:103E000010B50521002001F0E5FF0621012001F099
:103E1000E1FF10BD10B50621002001F0DBFF0521F8
:103E2000012001F0D7FF10BD01460020044A02EB3B
:103E3000C10250680022024B03EBC1035A60704775
:103E4000080500200146024850F831007047000084
:103E50000805002010B54FF0E020006920F00100B7
:103E60004FF0E021086102210120FDF7CFFB02F0B5
:103E7000E5FD4FF48030FDF7DBFC00BF3120FDF79E
:103E8000B1FC0028FAD00120FDF7FEFC00BF39206C
:103E9000FDF7A8FC0028FAD00220FDF7FBFC00BFCC
:103EA000FDF7BEFC0828FBD14FF0E020006940F090
:103EB00001004FF0E021086102F0E2FD10BD0000BA
:103EC0002DE9F04F99B0002453201890984817908E
:103ED000FFF7E2FA05464D201690002001F084FA23
:103EE00000B21590012001F07FFA00B2149000207A
:103EF00000F000FA8F490990FCF704FA0A90FCF7E9
:103F00003EFC80B21390012000F0F4F98949099039
:103F1000FCF7F8F90A90FCF732FC86B2022000F0B8
:103F2000E9F984490990FCF7EDF90A90FCF727FCC0
:103F300087B2032000F0DEF97E490990FCF7E2F930
:103F40000A90FCF71CFC1FFA80F8042000F0D2F95C
:103F500078490990FCF7D6F90A90FCF710FC1FFA93
:103F600080F9052000F0C6F972490990FCF7CAF9FA
:103F70000A90FCF704FC1FFA80FA062000F0BAF958
:103F80006C490990FCF7BEF90A90FCF7F8FB1FFAA0
:103F900080FB072000F0AEF966490990FCF7B2F902
:103FA0000A90FCF7ECFB80B21290082000F0A2F916
:103FB00060490990FCF7A6F90A90FCF7E0FB80B293
:103FC0001190092000F096F95A490990FCF79AF9E6
:103FD0000A90FCF7D4FB80B2109003F065F90F90C3
:103FE000002001F0F9F90E90012001F0F5F90D9093
:103FF00000F058F90C9000F069F90B90AA204C4998
:104000000870487088703020C870002008711698B9
:1040100048710E98C1F806000D98C1F80A0015986D
:10402000C881149808820C98C1F812000B98C1F846
:1040300016000846458300200877FFF741FB3C49FE
:1040400048770020C88381F820001398A1F8210048
:104050000846A0F82360A0F82570A0F82780A0F8F3
:104060002990A0F82BA0A0F82DB01298A1F82F004D
:104070001198A1F831001098A1F83300002081F8C0
:104080003500C8860887488781F83C0081F83D00E4
:1040900081F83E0081F83F000F98086400204864D2
:1040A0008864C86481F8500081F85100552081F877
:1040B00052001898801FC1B21798C01CFFF770FA01
:1040C000044620121A4981F8500081F8514000BF7F
:1040D000282101A8FCF7B3F82846FCF70BFB019058
:1040E0003046FCF710FB02903846FCF70CFB0390BF
:1040F0004046FCF708FB04904846FCF704FB05909B
:104100005046FCF700FB06905846FCF7FCFA079077
:104110001298FCF7F8FA08901198FCF7F4FA099055
:104120001098FCF7F0FA0A9019B0BDE8F08F000083
:10413000B40400200000C84210B5FDF7C3FA012006
:10414000FDF79CFB00BF2120FDF74CFB0028FAD0B7
:104150000020FDF79FFB00BFFDF762FB0028FBD1AD
:1041600010BD000010B580210348FCF7F3FF08B133
:10417000012010BD0020FCE7001C01402DE9F041AA
:104180000446002524B1012C24D0022C66D143E042
:104190000723012219463348FCF70AFD0121314863
:1041A000FCF767FD00BF02212E48FCF7C5FC002884
:1041B000F9D02C48FCF7BCFC8046FCF7A4FA074673
:1041C0002949FCF79FF806464FF08B41FCF7CCF8E5
:1041D000054643E00723012206212248FCF7E8FCBC
:1041E00001212048FCF745FD00BF02211D48FCF7D6
:1041F000A3FC0028F9D01B48FCF79AFC8046FCF78A
:1042000082FA07461849FCF77DF806464FF08B41C5
:10421000FCF7AAF8054621E00723012219461348B6
:10422000FCF7C6FC01211148FCF723FD00BF022169
:104230000E48FCF781FC0028F9D00C48FCF778FC0C
:104240008046FCF760FA07460749FCF75BF806462C
:104250004FF08B41FCF788F8054600BF00BF2846A9
:10426000BDE8F0810028014033335340003C014059
:104270002DE9F0410020FFF7E5FD02460120FFF7A0
:10428000E1FD17183846FCF73EFA06464FF080412C
:10429000FCF76AF80546FCF772FA04462046BDE8CA
:1042A000F08100002DE9F0410648066941690022CD
:1042B000054B3046FCF73DF90446FCF774FABDE8BF
:1042C000F0810000A005002000408F402DE9F04162
:1042D00006488669C1690022054B3046FCF729F97A
:1042E0000446FCF760FABDE8F0810000A00500205C
:1042F00000408F400146024850F8210070470000FE
:10430000640100200148406A7047000064010020F9
:104310000B48807A0A4AD27A904201D10020704735
:104320000748807A064A115C1046807A401CC0B269
:1043300090720A2801DB002090720846EFE7000027
:104340009C27002001460020244A914201D1C81434
:1043500042E0234A914201D148143DE0214A914272
:1043600002D14FF4002037E01F4A914202D14FF4AE
:10437000801031E01D4A914202D14FF400102BE031
:10438000B1F1804F01D1012026E0194A914201D1BB
:10439000022021E0174A914201D104201CE0164A74
:1043A000914201D1082017E0144A914201D1102016
:1043B00012E0134A914201D120200DE0114A9142AE
:1043C00001D1402008E0104A914201D1802003E051
:1043D0000E4A914200D1881570470000002C014020
:1043E00000340140004C01400050014000540140A5
:1043F0000004004000080040000C00400010004095
:104400000014004000180040001C00400020004044
:1044100010B56FF00501002001F0DCFC6FF0050124
:10442000012001F0D7FC10BD10B56FF00301002092
:1044300001F0D0FC6FF00301012001F0CBFC10BDB6
:1044400010B500BF7E4A125C32B1012A58D0022A50
:104450006CD0032A53D179E0B1F52F7F0CDD40F207
:104460004C42914208DA0123754A135400237432F6
:104470001354121D135442E041F28832914230DD50
:1044800000EB40036E4A3032D35C00EB40040C3A40
:10449000135500EB40030C321A44537800EB4004F0
:1044A000674A24322244537000EB4003644A30329E
:1044B0001A44937800EB4004614A243222449370FA
:1044C000002300EB40045E4A3032135500EB4004F9
:1044D0002244537000EB4004594A30322244937016
:1044E0000DE0584A12781AB90122564B1A7006E0AC
:1044F000544A1278012A02D10222524B1A709DE0CE
:10450000B1F59D7F06DBB1F5167F03DA02234C4A35
:1045100013540AE0962905DDFA2903DA0023484AF4
:10452000135402E00023464A135487E00A2908DDA9
:10453000642906DA0323424A13546C3222F810101D
:1045400003E000233E4A13547CE777E03C4A6C3298
:1045500032F810200A4493B2394A7C3222F81030E3
:10456000083A125C5206130E354A7432135408325C
:1045700032F810205C2A05DD314A7C3232F81020F6
:10458000842A18DB2E4A7C3232F81020CD2A0EDD28
:104590002B4A7C3232F81020F52A08DA284A743285
:1045A000125C521CD3B2264A7432135403E0002327
:1045B000234A135446E7224A7832125C521CD3B283
:1045C0001F4A78321354125C082A33D11C4A7432C1
:1045D000135C703A02F82030002370321354703AA2
:1045E00012F82020272A06D1012300EB4004144AA8
:1045F000303213551AE0124A121D12F82020382AC0
:1046000007D1012300EB40040D4A3032224453709D
:104610000CE00B4A121D12F82020162A06D10123A5
:1046200000EB4004064A3032224493700023044ACF
:10463000135403E00223024A135400BF00BF10BD0D
:10464000B42700204400002010B588B001211020BC
:10465000FDF718F801210220FDF704F801210846B2
:10466000FDF710F801214D48FCF72CFD03208DF8D3
:104670001E0004208DF81F004FF47070ADF81C0070
:1046800007A94748FCF792FC1D208DF81800002070
:104690008DF819008DF81A0001208DF81B0006A86E
:1046A000FCF772FF40F2CF244FF6FF70ADF8100018
:1046B000ADF80C400020ADF81200ADF80E008DF8FA
:1046C000140003A93748FDF7C9FD0220ADF8020028
:1046D0000120ADF804000020ADF80600ADF8080098
:1046E000ADF8000069462F48FDF7C8FB0420ADF87F
:1046F000000069462B48FDF7C1FB0820ADF800001B
:1047000069462848FDF7BAFB0C20ADF80000694661
:104710002448FDF7B3FB012202212248FDF704FCE7
:10472000012204211F48FDF7FFFB012208211D483B
:10473000FDF7FAFB012210211A48FDF7F5FB0122D3
:1047400011461848FDF7F0FB002017490880087251
:10475000012081F820000020488000211248417289
:10476000012180F8211000200F49888000210E4887
:104770008172012180F8221000200B49C88000219D
:104780000948C172012180F8231000F0B1F801211D
:104790000448FDF736FB08B010BD0000000C1A00FD
:1047A0000010014000040040AC27002070B588B024
:1047B0000446474B0FCB04AD0FC50021454820F8F8
:1047C000141024B94448FDF737FB054613E0012CCB
:1047D00004D14148FDF733FB05460CE0022C04D11F
:1047E0003D48FDF72FFB054605E0032C03D13A4871
:1047F000FDF72BFB05463748001F005DC8B904A82C
:1048000030F8240080B2ADF804000220ADF80600B4
:104810000120ADF808000020ADF80A00ADF80C004A
:1048200001A92D48FDF72AFB01212A48001F015547
:1048300019E004A830F8240080B2ADF8040000208C
:10484000ADF806000120ADF808000020ADF80A0020
:10485000ADF80C0001A92048FDF710FB00211D4810
:10486000001F015500BF1B48243830F81400A8422F
:1048700006DC1848243830F81400281A86B20EE0F6
:104880001448243830F81400A84208DD11482438B0
:1048900030F814004FF6FF71081A284486B20D480C
:1048A0001C38005D50B90B48243830F8140028B982
:1048B0000848243820F8145008B070BD0548243842
:1048C00020F8145031462046FFF7BAFD00BFF3E749
:1048D00020760008D027002000040040024602EBAA
:1048E000420302481844405C70470000D82700206B
:1048F000002008494864002106488164C1640165BC
:1049000041658165C165016641668166C166016771
:1049100070470000AC27002010B588B00446284B33
:104920000FCBCDE90623CDE90401264830F8140069
:10493000022842DA234830F81400401C81B2214892
:1049400020F81410022938D104A830F8240080B2CD
:10495000ADF804000220ADF806000120ADF8080013
:104960000020ADF80A00ADF80C0001A91648FDF7CB
:1049700085FA01211348001F0155002118380155FF
:1049800004EB44022430815404EB4402104441708F
:1049900004EB44020B4808301044817004EB4402DD
:1049A00008481430815404EB44021044417004EB75
:1049B0004402044814301044817008B010BD000057
:1049C00010760008D02700200004004010B5012117
:1049D0000220FCF717FA4FF44070FCF70DFE00F0D0
:1049E0004FF900F03BF800F0EDFA00F067FC00F042
:1049F00083FA4FF4FA70FEF7F1FF00F00DFB002090
:104A000001F0CCFB012001F0C9FB022001F0C6FB44
:104A100000F096F900F05EF900F054F900F0A2FA07
:104A2000002000F0ADFA012000F0AAFA00F008F929
:104A300000F028FB00F0DCFA00F036F9FFF704FE86
:104A400000F022F801A0FDF79FFE10BDB3F5CABC2F
:104A5000BBAFCDEAB1CF0D0A0000000008B50121BF
:104A60000820FCF70FFE03208DF8020014208DF8BB
:104A700003004FF40050ADF8000069460148FCF710
:104A800095FA08BD000C014000B587B0012140F245
:104A90000440FCF7F7FD4FF40040FCF7D7FD802001
:104AA000ADF8040000208DF8070001A96048FCF76C
:104AB0007DFA6048FCF704F8002002908DF80C00A5
:104AC0008DF80D004FF46020049000200590012027
:104AD0008DF8180002A95748FCF742F80121554803
:104AE000FBF7E3FF5348FCF7BFF800BF5148FCF762
:104AF0002CF80028FAD14F48FCF7C6F800BF4D4803
:104B0000FCF70CF80028FAD107230122194649487E
:104B1000FCF74EF8012140F20440FCF7B3FD4FF4DE
:104B20000040FCF793FD4020ADF8040000208DF814
:104B3000070001A93E48FCF739FA3E48FBF7C0FFE1
:104B4000002002908DF80C008DF80D004FF46020CD
:104B500004900020059001208DF8180002A9354826
:104B6000FBF7FEFF01213348FBF79FFF3148FCF7BD
:104B70007BF800BF2F48FBF7E8FF0028FAD12D484B
:104B8000FCF782F800BF2B48FBF7C8FF0028FAD1DA
:104B90000723012206212748FCF70AF8012148F2E1
:104BA0008000FCF76FFD4FF40040FCF74FFD4FF421
:104BB0000070ADF8040000208DF8070001A91E4820
:104BC000FCF7F4F91D48FBF77BFF002002908DF8FD
:104BD0000C008DF80D004FF460200490002005902B
:104BE00001208DF8180002A91448FBF7B9FF012134
:104BF0001248FBF75AFF1148FCF736F800BF0F4880
:104C0000FBF7A3FF0028FAD10C48FCF73DF800BFE2
:104C10000A48FBF783FF0028FAD10723012219462F
:104C20000648FBF7C5FFFEF7D7FC07B000BD000044
:104C30000008014000280140001C0140003C0140E8
:104C400008B501218420FCF71DFD03208DF802002A
:104C500048208DF803002020ADF800006946064882
:104C6000FCF7A4F94FF48070ADF8000069460348E2
:104C7000FCF79CF908BD000000080140001C014041
:104C80000748006840F08070054908600020054929
:104C900048600846006840F0010008607047000066
:104CA000FCED00E0001000E010B5FEF7FBFA00207C
:104CB00003490870487048604881087210BD0000C0
:104CC0000801002010B500F001F810BD10B5FEF786
:104CD00019FF10BD7FB501210820FCF7C3FC154862
:104CE000006846081448B6FBF0F085B24FF6FF7432
:104CF000ADF80840ADF804500020ADF80A00ADF85A
:104D0000060001A90D48FDF7A9FA01210B48FDF79E
:104D100078F832208DF8000004208DF80100002082
:104D20008DF8020001208DF803006846FCF72CFC8A
:104D30007FBD00005C00002040420F00000C0040DE
:104D400010B500F083F800F001F810BD08B501219E
:104D5000C420FCF797FC03208DF8020048208DF852
:104D600003008020ADF8000069461B48FCF71EF9DF
:104D70004FF48070ADF8000069461748FCF716F94B
:104D80004FF48060ADF8000069461348FCF70EF957
:104D90008020ADF8000069460F48FCF707F9802035
:104DA000ADF8000069460C48FCF700F98020ADF82A
:104DB000000069460848FCF7F9F88020ADF80000CB
:104DC00069460548FCF7F2F88020ADF80000694616
:104DD0000148FCF7EBF808BD001801401FB50121A0
:104DE0000807FCF73FFC01214120FCF74BFC802029
:104DF000ADF80C0048208DF80F0003A91248FCF70D
:104E0000D5F807210420FCF7B1F88020019000209C
:104E10008DF808000C208DF8090001208DF80A009B
:104E200001A8FCF759F817208DF8000001208DF833
:104E3000010000208DF8020001208DF80300684673
:104E4000FCF7A2FB1FBD00000018014000211E4A14
:104E50009172D1721173002018E050211B4A02EBAD
:104E6000001211810321194A02EB00121171002175
:104E7000164A02EB00129172144A02EB0012D17230
:104E8000124A02EB00121173411CC8B20A28E4DB7B
:104E900050210E4A11810021D1720D4911600D4936
:104EA00011610D4911620D4911630D4911640D49DC
:104EB00011650D4911660D4911670D49C2F8801041
:104EC0000C49C2F8901070479C270020FC26002057
:104ED0002D14000885140008B1140008DD14000822
:104EE000F51400080D150008251500083D150008EB
:104EF000551500085914000808B501218020FCF759
:104F0000C1FB012000F008FA022000F005FA03209E
:104F100000F002FA042000F0FFF903208DF80200EF
:104F200010208DF803000820ADF8000069460C48F9
:104F3000FCF73CF80420ADF8000069460848FCF78F
:104F400035F80220ADF8000069460548FCF72EF858
:104F50000820ADF8000069460148FCF727F808BDB5
:104F6000001C014010B5002140F60F6000F0B0F8C1
:104F7000002140F60F6000F02BF900F0A7F910BDFA
:104F800058B90D490D4A11600D49516000219160D9
:104F9000D1601161516191610DE001280BD1064989
:104FA000064AD161064A05490A6200224A628A62BB
:104FB000CA620A634A63704700001643180500205E
:104FC0000000704208B501210802FCF75BFB0320DA
:104FD0008DF8020010208DF803000220ADF80000CB
:104FE00069460248FBF7E2FF08BD000000200140CF
:104FF00000200849087048608860052008734873DD
:10500000032088730B20C8730020087448748874C8
:10501000C87470471406002008B50121C020FCF7B1
:1050200031FB002001F098F8012001F095F80220F2
:1050300001F092F803208DF8020010208DF8030093
:10504000C002ADF8000069460B48FBF7AFFF142023
:105050008DF803000120ADF8000069460748FBF712
:10506000A5FF10208DF803004001ADF8000069464F
:105070000348FBF79BFF08BD00180140001C0140DE
:105080000008014008B501212020FCF7FBFA0320AD
:105090008DF8020010208DF803000220ADF800000A
:1050A00069460A48FBF782FF0420ADF80000694614
:1050B0000648FBF77BFF28208DF803000120ADF8A0
:1050C000000069460148FBF771FF08BD001401406C
:1050D00030B589B005460C460121C802FCF7D2FA6A
:1050E00001214120FCF7CEFA01213648FBF7EAFF07
:1050F0004FF4D440ADF8200018208DF82300032091
:105100008DF8220008A93048FBF750FFADF8085091
:10511000ADF804400020ADF80A00ADF8060001A982
:105120002A48FDF79BF86020ADF810000120ADF88B
:1051300012000020ADF81800ADF81400ADF81A0008
:10514000ADF81C00ADF81E0004A92048FCF7F6FEDF
:1051500008211E48FCF73EFF04A91C48FCF744FF49
:1051600008211A48FCF792FF04A91848FCF79CFF95
:1051700008211648FCF7E8FF04A91448FCF7EEFFE5
:1051800008211248FDF728F801211048FCF739FEE4
:1051900001210E48FCF741FE4FF461610B48FDF719
:1051A00028F84FF461610948FDF725F84FF4616173
:1051B0000648FDF722F84FF461610448FDF71FF837
:1051C00009B030BDC000160000180140002C01409D
:1051D00030B589B005460C4601210420FCF742FA9F
:1051E00001212120FCF74EFA01210803FBF76AFF99
:1051F0004FF47040ADF8200018208DF823000320F4
:105200008DF8220008A92B48FBF7D0FEADF8085016
:10521000ADF804400020ADF80A00ADF8060001A981
:105220002548FDF71BF86020ADF810000120ADF80F
:1052300012000020ADF8180004A91F48FCF77EFEFC
:1052400008211D48FCF7C6FE04A91B48FCF7CCFE4C
:1052500008211948FCF71AFF04A91748FCF724FF96
:1052600008211548FCF770FF04A91348FCF776FFE6
:1052700008211148FCF7B0FF01210F48FCF7C1FDE0
:1052800001210D48FCF7C9FD4FF461610A48FCF7A4
:10529000B0FF4FF461610848FCF7ADFF4FF4616166
:1052A0000548FCF7AAFF4FF461610348FCF7A7FF2C
:1052B00009B030BD001401400008004010B5FDF7F2
:1052C000E9F9FBF781FFFBF75FFD10BD08B5012190
:1052D0000420FCF7D7F903208DF8020010208DF888
:1052E00003000120ADF8000069460448FBF75EFEAC
:1052F00001210248FBF737FF08BD0000000801400C
:1053000010B5002404E02046FEF78AFB601CC4B2FE
:105310000A2CF8DB10BD0000411EC8B218B90821E4
:105320000A4A116010E0012803D10421074A1160E4
:105330000AE0022803D10221044A116004E0032894
:1053400002D10821014A116070470000101C014081
:10535000012806D11049096881F008010E4A116040
:1053600019E0022806D10C49096881F004010A4AB3
:10537000116010E0032806D10749096881F0020195
:10538000054A116007E0042805D10349096881F046
:105390000801014A116070470C1C014010B5044619
:1053A00054B94FF461610B48FCF727FF4FF461617A
:1053B0000848FCF724FF0BE0012C09D14FF4616190
:1053C0000448FCF716FF4FF461610248FCF713FF35
:1053D00010BD0000002C01400146024850F8210099
:1053E00070470000280000202DE9F0470546002402
:1053F0000026002700BF09E005EB85000B4901EB03
:10540000C00050F824000644601CC4B20A2CF3DB30
:105410003046FBF76FF981460549FAF7A5FF80464C
:10542000FBF794F907463846BDE8F08750050020A1
:105430000000204170B506460C46154616B1012EF7
:1054400026D112E044B900211248FCF7D6FE2946C5
:105450001048FCF7D4FE07E029460E48FCF7CDFEC5
:1054600000210C48FCF7CBFE12E044B100210948B2
:10547000FCF7BFFE29460748FCF7BDFE07E02946BA
:105480000448FCF7B6FE00210248FCF7B4FE00BF5A
:1054900000BF70BD002C01402DE9F04104460025FD
:1054A000002614B90020BDE8F0812046FBF722F960
:1054B00080461449FAF726FF07461349FAF754FFC6
:1054C000064600213046FBF7C7F907D24FF07E5160
:1054D0003046FBF7B7F901D8012510E00B493046FB
:1054E000FBF7BAF907D800213046FBF7ABF902D237
:1054F0004FF0FF3503E03046FBF728F90546284614
:10550000D1E700000000404100007A43000080BF66
:1055100030B90021074A9160D1601161916107E0C3
:10552000012805D1002203494A628A62CA624A639D
:1055300070470000180500202DE9F04705460E468B
:1055400014462CB92846FFF729FF2846FFF7E0FF4D
:10555000002C00DA7642884850F82500304486490D
:1055600041F825003046FBF7C5F881468349FAF734
:10557000FBFE80468249FAF7C5FE0746FBF7E6F8D0
:1055800080494A5D495D491C7E4B595505EB8501B3
:105590007D4B03EBC10141F822007A48405D0A28A7
:1055A00002DB002077494855002D71D1002C6FD0C7
:1055B0007648806910B97548846118E02046FBF789
:1055C00099F8804671498869FBF794F8814641460D
:1055D000FAF7CAFE07460021FBF734F907D228463E
:1055E000FFF7DCFE2846FFF793FFBDE8F087301B8E
:1055F000FBF780F8654988600A4691685068FAF7B9
:1056000081FE8146614AD1689068FAF775FE82464C
:105610005E4801685046FAF775FE80464946FAF73B
:1056200019FE0746594801693846FAF713FE5749EB
:10563000086108468068C8600869FBF787F88046FB
:1056400000F00CFA0746FBF755F850490861304660
:1056500000F090FE0746204600F08CFE381A042821
:1056600002DB2846FFF754FF48490869FBF76EF84C
:10567000804600F07FFE87B2002C01DC012000E0B4
:10568000002001463A460020FFF7D4FE72E0FFE713
:10569000012D6FD1002C6DD03C48406B10B93B48B8
:1056A000446317E02046FBF725F880463749486BEE
:1056B000FBF720F881464146FAF756FE07460021DF
:1056C000FBF7C0F806D22846FFF768FE2846FFF72A
:1056D0001FFF8AE7301BFBF70DF82C4948620A468A
:1056E000516A106AFAF70EFE8146284A916A506A9A
:1056F000FAF702FE82462548C1695046FAF702FED3
:1057000080464946FAF7A6FD07462048C16A384652
:10571000FAF7A0FD1D49C8620846416A8162014648
:10572000C86AFBF713F8804600F098F90746FAF7C5
:10573000E1FF1649C862304600F01CFE07462046CD
:1057400000F018FE381A042802DB2846FFF7E0FEB6
:105750000E49C86AFAF7FAFF804600F00BFE87B2DE
:10576000002C01DC012000E0002001463A46012027
:10577000FFF760FE00BF38E728000020000040412E
:1057800000007A433000002050050020180500205A
:1057900010B50020FEF748FB044608484269214640
:1057A0000020FFF7C9FE0120FEF73EFB0446034838
:1057B000026B21460120FFF7BFFE10BD1805002037
:1057C00010B50021084600F005FB0421012000F07F
:1057D00001FB10BD10B50621002000F0FBFA0021EE
:1057E000012000F0F7FA10BD10B50421002000F0F0
:1057F000F1FA0021012000F0EDFA10BD2DE9F04F83
:1058000089B0884890F8490010B909B0BDE8F08F18
:10581000844890F8480020B101280DD002287DD19D
:10582000EEE001F041FD7F494863084690F84800EA
:10583000401C81F8480000BF7A48406B79490863F2
:10584000886AC96A774A106251621046016C406CDE
:105850009163D06310460169406911605060114640
:105860008869C9699060D16001F01EFD6D49486387
:105870000020FFF7B9FD80460120FFF7B5FD08EBDA
:1058800000073846FAF736FF06464FF07C51FAF724
:1058900039FD05466449FAF735FD0446FAF7A2FFDB
:1058A000604A9062D162FDF7F7FD8046FAF722FF69
:1058B00007465E49FAF726FD06465D49FAF722FDDE
:1058C00005465C49FAF750FD0446FAF78BFF554A46
:1058D000106451641146496B126B881AFAF729FF5C
:1058E000804689464F48826BC16B104600F0D0FC61
:1058F00004464C48066A436A32462046FAF719FEC7
:10590000CDE902014748026C416C104600F0C0FC32
:1059100004460D4643498E6ACB6A00E07EE032467B
:105920002946FAF706FECDE90001DDE90223FAF780
:1059300059FD42464B46CDE90401FAF7FAFD82468D
:105940004FF060423C4BFAF7F4FDCDE906013549D2
:105950000C684B6822460799FAF744FD314A1061FA
:1059600051611146496B126B881AFAF7E2FE8046C4
:1059700089462C498A6BC96B104600F0C5FF044666
:105980002848066A436A32462046FAF7D2FDCDE936
:1059900002012448026C416C104600F0B5FF044639
:1059A0002048866AC36A32462046FAF7C2FDCDE92E
:1059B0000001DDE90223FAF715FD824642464B4617
:1059C000FAF7B7FD4FF060421B4BCDE90401FAF73F
:1059D000B0FDCDE9060113498C68CB6822460799D2
:1059E000FAF700FD0F4A9061D16101F05DFC0D49AD
:1059F000C864084690F84800401C81F848000DE053
:105A000001F052FC0749C96C401A142805D300F074
:105A1000B7F90120034981F8480000BF00BF00BF6B
:105A2000F3E60000A00500206F12833AC3F548405A
:105A30000AD7233C000034434D62403F0649C97AEF
:105A4000054A50541146C97A491CC9B2D1720A2973
:105A500001DB0021D17270479C2700200146002005
:105A6000B1F5616F02DB4FF4616005E011F5616F24
:105A700001DC024800E0084670470000F0F1FFFF3B
:105A800010B56FF00401002000F0A4F905210120F9
:105A900000F0A0F910BD000010B5A448007800B9CE
:105AA00010BDFEF75FFB68B1A1A0FCF76DFE002101
:105AB000084600F08FF90021012000F08BF900F07A
:105AC00039FBEDE79948406820B101280AD0022847
:105AD00007D112E100F036F994484068401C934920
