:020000040800F2
:10000000F0F10020E901000871CE00087D9D000894
:10001000F9CD0008752C0008451601080000000005
:100020000000000000000000000000004501000882
:10003000DD7D000800000000890100088D0701082F
:10004000030200080302000803020008030200087C
:10005000030200080302000803020008030200086C
:1000600003020008C1800008030200080302000820
:10007000030200080302000803020008030200084C
:10008000030200080302000803020008030200083C
:10009000030200080302000803020008E9800008C8
:1000A000030200080302000803020008030200081C
:1000B00003020008E5090108030200080302000822
:1000C00003020008030200080302000803020008FC
:1000D0000302000803020008911101089D110108A4
:1000E00095800008030200080302000803020008CC
:1000F00003020008030200080302000803020008CC
:100100000302000803020008810A01080302000834
:100110007911010885110108190B01080302000873
:10012000030200080302000803020008030200089B
:10013000DFF80CD000F078FD00480047AD8A0108D8
:10014000F0F10020204B19680868B0E8F00F80F348
:100150000988BFF36F8F4FF0000080F311884EF0D5
:100160000D0E70470000000006480068006880F32C
:10017000088862B661B6BFF34F8FBFF36F8F00DFA1
:1001800000BF00BF08ED00E0EFF30980BFF36F8F01
:100190000D4B1A6820E9F00F106008B54FF0F00021
:1001A00080F311881AF008FB4FF0000080F31188EB
:1001B000BDE8084019680868B0E8F00F80F30988C6
:1001C000BFF36F8F704700BF30020020EFF3118044
:1001D0004FF0F00181F31188704780F31188704768
:1001E000EFF3058070470000064880470648004747
:1001F000FEE7FEE7FEE7FEE7FEE7FEE7FEE7FEE7D7
:10020000FEE7FEE7B1070108310100080649074A89
:100210000868504343F239021044086040087047B0
:100220000149086070470000CC0200206D4EC641B5
:1002300040EA01039B0703D009E008C9121F08C068
:10024000042AFAD203E011F8013B00F8013B521EE8
:10025000F9D27047D2B201E000F8012B491EFBD25F
:1002600070470022F6E710B513460A4604461946C1
:10027000FFF7F0FF204610BD30B5044600200346CE
:1002800000E05B1C934203D2E05CCD5C401BF8D0E5
:1002900030BDF0B480EA0102D40F4200B2EB410F4E
:1002A00002D20246084611464A0042D0C30DDDB2D2
:1002B000C1F3C752AD1A202D35DAC1F3160141F44E
:1002C000000204B15242C5F1200602FA06F12A41A9
:1002D0001044B3EBD05F23D0C4B1012DA0EBC350C9
:1002E00009DCF0BC4FF0004202EAC352DBB200F579
:1002F000000000F0A4BB400000F1807000EBC35090
:10030000A0F1807040EAD170490009E0490841EA53
:10031000C071A0EBC35000F50000400800EBC350D3
:10032000F0BC00F083BB6142012202EB4101001BE3
:10033000F6E7F0BC704781F00041AAE780F000408A
:10034000A7E780EA010210B502F00043400022D086
:100350004A001FD0010E01EB1261C0F35600C2F338
:10036000560240F4000042F40002A0FB0220000408
:100370007F39140400D0401C50EA124001D44000E0
:10038000491EC2B20C0604EBD010401C4008802A63
:1003900002D003E0002010BD20F00100002900DAA7
:1003A0000020184310BD30B480EA010202F000457D
:1003B00030F0004221F0004013D090B1C30DD40DB5
:1003C000C2F31601C0F31600E41A41F4000140F430
:1003D00000027D34914201D3641C00E04900002CEE
:1003E00002DA30BC002070474FF400000023914235
:1003F00001D3891A034340084FEA4101F7D151B1B3
:10040000914202D14FF0004105E002D24FF00101CC
:1004100001E06FF0010103EBC450284430BC00F050
:1004200005BB420005D0C0F3C7525242914201DCE5
:100430000020704700EBC15070472DE9FE4F804609
:1004400081EA0300C00F0C46009021F0004123F028
:100450000045B8EB0200A94105D24046214690462E
:100460001C460B46024623F00040104347D0270DA0
:10047000C7F30A00C3F30A510290401A01904028C2
:100480006BDAC3F3130040F4801B0098924620B14E
:100490000023D2EB030A63EB0B0B01985946C0F122
:1004A0004002504600F091FA06460D465046594625
:1004B000019A00F0A9FA10EB08006141002487EAD4
:1004C000115284EAE7731A4340D0009A62B3019A4A
:1004D000012A4FEA075215DC001B61EB02014FF0C5
:1004E000004202EA0752CDE90042001C41F58011AA
:1004F00032462B4600F0E0FA03B0BDE8F08F4046EC
:100500002146F9E7001B61EB0201001C41F5801355
:1005100000185B412018A2F5001747EB030140EAE1
:10052000D570B6196D4111E06D084FEA360645EAFF
:10053000C0754FEA0752001B61EB0201001C41F538
:10054000801149084FEA30000019514132462B46CC
:1005500003B0BDE8F04F00F0A0BA009801224000BF
:100560000023D0EB020263EBE073009821464FEAD0
:10057000E074B8EB000061EB0401E9E783F00043AD
:100580005BE781F0004158E72DE9FE4F81EA030463
:1005900004F0004421F0004100944FF0000B23F0E0
:1005A000004350EA01045ED052EA03045BD0C3F377
:1005B0000A54C1F30A552C44A4F2F3340194A0FB6D
:1005C0000254C1F3130141F48011C3F3130343F444
:1005D000801301FB024400FB034E840A970A44EA9D
:1005E000815447EA8357A4FB076802958D0A05FBEF
:1005F00007854FEA932C04FB0C542705029D4FEA14
:10060000065847EA1637B5EB08056EEB070C870E60
:10061000920E47EA811742EA8312A7FB0201B6EB6A
:100620000B0164EB00042B0D43EA0C335E1844EB22
:100630001C50DA465146E7FB0201C5F313044FEAAA
:100640000B3343EA14534FEA0432019C43EA060396
:10065000A4F10C040294009CCDE900B400F02CFA43
:1006600003B0BDE8F08F00200146F9E72DE9F04D19
:1006700081EA030404F0004B21F0004514464FF0DA
:10068000000A23F0004150EA050220D054EA01029A
:100690001DD0C5F30A570246C5F31303C1F3130077
:1006A000C1F30A5640F4801543F48013A7EB060803
:1006B000101BD64608F2FD3873EB050002D308F193
:1006C000010801E092185B41B8F1000F03DA002045
:1006D0000146BDE8F08D00204FF4801106468446A7
:1006E0000EE0171B73EB050705D3121B63EB050325
:1006F00006434CEA010C49084FEA300092185B416E
:1007000050EA0107EDD152EA030012D082EA040058
:1007100083EA0501084305D0101BAB4106D2012234
:10072000002306E000224FF0004302E06FF00102D8
:1007300053101AEB06004CEB085110EB0A0041EB8A
:100740000B01BDE8F04D00F0A8B970B521F00043F1
:1007500003430CD0C1F30A550024D5EB040564EB28
:100760000403D617AD1AB34102DB0020014670BD69
:10077000201841EB025170BDC10F80EAE0700844BF
:10078000CA079623002100F05AB996230022114689
:1007900000F055B90EB5C10F80EAE0700844CA07F1
:1007A000002140F233438DE80E000A460B4600F06C
:1007B00083F903B000BD0EB540F233410291002130
:1007C000CDE900110A460B4600F076F903B000BDF2
:1007D00000F0004220F00040C10DC0F3160040F4CC
:1007E00000007F2901DA00207047962903DCC1F15F
:1007F0009601C84001E096398840002AF4D0404272
:10080000704720F00040C10DC0F3160040F4000016
:100810007F2901DA00207047962903DCC1F1960197
:10082000C840704796398840704770B5C1F30A5286
:1008300001F000450024C1F3130140F2FF3341F4FD
:1008400080119A4201DA002070BD40F233439A428F
:10085000A2F2334203DC524200F0C6F800E09040BE
:100860002C43F1D0404270BD00F0004230F0004017
:100870000AD0C10D01F56071C0F3160042EA0151C2
:10088000C20840071143704700200146704700002E
:1008900030B5041E71F1000404DB4FF00044404207
:1008A00064EB0101141E73F1000405DB1C464FF0DC
:1008B0000043524263EB04038B4208BF824230BDC7
:1008C00030B5041E71F1000404DB4FF000444042D7
:1008D00064EB0101141E73F1000405DB1C464FF0AC
:1008E0000043524263EB0403994208BF904230BD7B
:1008F00001F0004330B421F0004150EA010206D07B
:100900000A0DA2F56072C1F31301002A02DC30BCAB
:1009100000207047440F44EAC104C100E01830BC15
:1009200000EBC25000F082B8002801DBC0F10040AB
:10093000002901DBC1F100418142704730B50B460F
:10094000014600202022012409E021FA02F59D42FF
:1009500005D303FA02F5491B04FA02F52844151ED3
:10096000A2F10102F1DC30BD2DE9F05F0546002067
:1009700092469B4688460646814640241BE0284610
:1009800041464746224600F02FF853465A46C01AC1
:10099000914110D311461846224600F016F82D1A40
:1009A00067EB01084F4622460120002100F00DF8B8
:1009B00017EB00094E41201EA4F10104DFDC48467C
:1009C00031462A464346BDE8F09F202A04DB203A00
:1009D00000FA02F1002070479140C2F1200320FA92
:1009E00003F3194390407047202A04DB203A21FA90
:1009F00002F00021704721FA02F3D040C2F1200238
:100A00009140084319467047202A06DBCB17203A4D
:100A100041FA02F043EAE07306E041FA02F3D04003
:100A2000C2F1200291400843194670470029A8BF2F
:100A30007047401C490008BF20F00100704710B407
:100A4000B0FA80FC00FA0CF050EA010404BF10BCBC
:100A5000704749B1CCF1200421FA04F411FA0CF1E9
:100A600018BF012121430843A3EB0C01CB1D4FEA22
:100A700000614FEA102042BF002010BC704700EB1D
:100A8000C35010440029A4BF10BC7047401C49004B
:100A900008BF20F0010010BC704710B5141E73F1A0
:100AA000000408DA401C41F1000192185B411A432E
:100AB00001D120F0010010BD2DE9F04D92469B467A
:100AC00011B1B1FA81F202E0B0FA80F22032904620
:100AD000FFF77BFF04460F4640EA0A0041EA0B019C
:100AE00053465A46084313D0114653EA010019D021
:100AF000C8F140025046FFF777FF05460E465046C4
:100B000059464246FFF761FF084305D0012004E043
:100B100020463946BDE8F08D0020054346EAE076E0
:100B20002C4337430A986305E40AA0EB080000222F
:100B3000FD0A44EA47540A3002D500200146E9E79D
:100B4000010510196941DDE9084500196941BDE851
:100B5000F04DA2E72DE9F04D00231A461B1A8A41F9
:100B600003DB00200146BDE8F08DC1F30A52C1F35A
:100B7000130141F480154FF0000BD10702D100188A
:100B80006D41521E0027044640F2FF11384601EB2A
:100B9000620A3E468046024600204FF48011FFF76D
:100BA00023FFC2197141BB1846EB0100B4EB030CE3
:100BB00075EB000C04D3E41A65EB000517460E46EE
:100BC000241908F101006D4180463428E3DDF9194C
:100BD00046EB0600091BA84103D24FF0FF32134633
:100BE00001E0002213461BEB070046EB0A51BDE86B
:100BF000F04DFFF752BFC1F30A52C1F3130140F2A7
:100C0000FF3341F480119A4202DA00200146704716
:100C100040F233439A42A2F2334202DC5242FFF7DF
:100C2000E3BEFFF7D2BE0000064C074D06E0E068C9
:100C300040F0010394E8070098471034AC42F6D323
:100C4000FFF77AFAB0B20108D0B2010870B58C187B
:100C500010F8015B15F0070301D110F8013B2A11D0
:100C600006D110F8012B03E010F8016B01F8016BBD
:100C70005B1EF9D12B0705D40023521E0DD401F8B9
:100C8000013BFAE710F8013BCB1A921C03E013F882
:100C9000015B01F8015B521EF9D5A142D8D30020B7
:100CA00070BD002904D0816841F001018160704766
:100CB000816821F0010181607047000010B515497D
:100CC00088420AD14415012120460CF0A3F92046A0
:100CD000BDE8104000210CF09DB90F4988420AD1AF
:100CE0000415012120460CF095F92046BDE810407E
:100CF00000210CF08FB9094988420AD10121CC03A7
:100D000020460CF087F92046BDE8104000210CF089
:100D100081B910BD0024014000280140003C014081
:100D2000014600208968490700D501207047C06C42
:100D300080B270470246002012680A4200D00120AB
:100D40007047014600208968090700D501207047D7
:100D500010B542680E4B1A400C790B6842EA042227
:100D60001343436082680B4B1A40D1E9024323438B
:100D70004C7942EA440213438360C26A22F470024F
:100D8000097C491EC9B242EA0151C16210BD00008E
:100D9000FFFEF0FFFDF7F1FF70B5072609290AD91C
:100DA000C568A1F10A0404EB4404A640B543A3407E
:100DB0001D43C56007E0056901EB4104A640B5434A
:100DC000A3401D4305611F23072A09D2446B521E0D
:100DD00002EB820293409C4391400C43446370BDFC
:100DE0000D2A09D2046BD21F02EB820293409C436E
:100DF00091400C43046370BDC46A0D3A02EB820259
:100E000093409C4391400C43C46270BD816841F0A3
:100E1000080181607047002904D0816841F4A00175
:100E200081607047816821F4A0018160704781680A
:100E300041F00401816070472DE9F84F04468B466C
:100E40000027A068642190FBF1F6DFF828A40025B4
:100E50005046BAF92EC00122017900F5807900F1DF
:100E60008008BCF1870F6FD018DCBCF1830F5BD01A
:100E70000ADCBCF1000F23D0BCF1810F7DD0FE4D08
:100E8000BCF1820F1FD11FE0BCF1840F76D0BCF102
:100E9000850F5DD0BCF1860FF4D1A7E0F748ACF127
:100EA000880C00780090F348407C431CDBB2BCF116
:100EB000070F08D2DFE80CF0FCFBD1FAF9F8F700D5
:100EC0008220AAF82E003CE32068FFF763FC17F0AD
:100ED000B6FE00222B46FFF7F3FC09D36068FFF74C
:100EE00059FC17F0ACFE00222B46FFF7E9FC0CD2B0
:100EF0000020C9F81000C9F81400C9F81800C9F892
:100F00001C008320AAF82E001BE30020C9F8100063
:100F1000C9F814000021C9F81810C9F81C100227DC
:100F20008120AAF82E000CE3BBF1000F09D0BBF121
:100F3000010F0AD002208AF812008520AAF82E009C
:100F4000FFE28AF81250F8E72CE18AF81220F4E761
:100F5000DFF82CB339B92068C8F82C006068C8F8ED
:100F600030008AF80420C7480021C9E90410C9F8F4
:100F70001810C9F81C10206801E0D4E2C4E2D8F8C7
:100F80002C10081AFFF706FC17F059FE00225B46EA
:100F9000FFF796FC0CD36068D8F83010081AFFF7FA
:100FA000F9FB17F04CFE00225B46FFF789FC8AD262
:100FB0000021C9F81010C9F81410C9F81810C9F8A0
:100FC0001C108AF80450C8F83C609AF8120028B146
:100FD000012807D08820AAF82E00B2E28620AAF8BD
:100FE0002E00AEE28720AAF82E00AAE2D8F83C0034
:100FF000801BFFF7CFFB17F022FE0022A24BFFF76A
:101000005FFC0CD20021C9F81010C9F81410C9F8FF
:101010001810C9F81C108920AAF82E0091E2BBF123
:10102000030F0CD195480078012808D00020C9F89A
:101030001000C9F814009549C9E9060181E20021B0
:10104000C9F81010C9F814100020C9F81800C9F820
:101050001C008A20AAF82E0073E239B92068C8F86B
:101060002C006068C8F830008AF804208548002108
:10107000C9E90410C9F81810C9F81C102068D8F87C
:101080002C10081AFFF786FB17F0D9FD804E0022BE
:101090003346FFF715FC13D36068D8F83010081AF0
:1010A000FFF778FB05E099E1D3E1B2E004E116E057
:1010B0005EE117F0C4FD00223346FFF701FC8CD23D
:1010C0000021C9F81010C9F81410C9F81810C9F88F
:1010D0001C108AF804508620AAF82E0031E239B993
:1010E0002168C8F82C106168C8F830108AF804200C
:1010F000BBF1030F13D10099012910D00A281FD981
:101100000021C9F81010C9F81410C9F81810C9F84E
:101110001C108AF804508420AAF82E0011E2002046
:10112000C9F81000C9F81400C9F81800C9F81C0063
:101130008AF804508AF811308520AAF82E0000E2BF
:101140002068D8F82C10081AFFF724FB17F077FD59
:10115000504E00223346FFF7B3FB0CD36068D8F83B
:101160003010081AFFF716FB17F069FD002233460E
:10117000FFF7A6FB0DD20021C9F81010C9F8141012
:10118000C9F81810C9F81C108AF804508120AAF870
:101190002E0041480021C9E90410C9F81810C9F807
:1011A0001C10CEE1D8F83C00801BFFF7F3FA17F0D3
:1011B00046FD0022344BFFF783FB0DD20021C9F816
:1011C0001010C9F814100020C9F81800C9F81C0044
:1011D0008B20AAF82E00B4E1BBF1030F0CD12748F5
:1011E0000078012808D00021C9F81010C9F814109F
:1011F0002A48C9E90610A4E10021C9F81010C9F86D
:101200001410C9F81810C9F81C108C20AAF82E0068
:1012100097E139B92068C8F82C006068C8F8300038
:101220008AF8042017480021C9E90410C9F81810E9
:10123000C9F81C102068D8F82C10081AFFF7AAFA71
:1012400017F0FDFC124E00223346FFF739FB0CD39A
:101250006068D8F83010081AFFF79CFA17F0EFFC16
:1012600000223346FFF72CFB9BD20021C9F8101057
:1012700016E0000088000020000069407C0000208B
:101280000000344000C072C000003E4000004EC06C
:10129000000024400000794000C0724000004E4031
:1012A000C9F81410C9F81810C9F81C108AF80450AD
:1012B0008720AAF82E0044E139B92168C8F82C101B
:1012C0006168C8F830108AF804209F490022C9E9F3
:1012D00004210021C9F81810C9F81C10BBF1030F34
:1012E0000FD1009901290CD00A2817D90021C9F87B
:1012F0001010C9F814108AF804508420AAF82E009F
:101300001FE10021C9F81010C9F814108AF8045020
:101310008AF811308520AAF82E0012E12068D8F84A
:101320002C10081AFFF736FA17F089FC874E0022B6
:101330003346FFF7C5FA0CD36068D8F83010081AA6
:10134000FFF728FA17F07BFC00223346FFF7B8FAC4
:101350000DD20021C9F81010C9F81410C9F81810DE
:10136000C9F81C108AF804508120AAF82E00E8E081
:10137000D8F83C00801BFFF70DFA17F060FC002244
:10138000734BFFF79DFA0CD20021C9F81010C9F871
:101390001410C9F81810C9F81C108D20AAF82E00D6
:1013A000CFE0BBF1030F0CD16A480078012808D0C8
:1013B0000021C9F81010C9F814106748C9E90610CF
:1013C000BFE00021C9F81010C9F81410C9F81810AE
:1013D000C9F81C108E20AAF82E00B2E039B9206896
:1013E000C8F82C006068C8F830008AF804205B4810
:1013F0000021C9E90410C9F81810C9F81C102068A8
:10140000D8F82C10081AFFF7C5F917F018FC544E3D
:1014100000223346FFF754FA0CD36068D8F8301036
:10142000081AFFF7B7F917F00AFC00223346FFF756
:1014300047FA0DD20021C9F81010C9F81410C9F8E4
:101440001810C9F81C108AF804508820AAF82E0039
:1014500077E039B92168C8F82C106168C8F83010F5
:101460008AF8042038490022C9E90421C9F8182063
:10147000C9F81C20BBF1030F0FD1009901290CD032
:10148000052817D90021C9F81010C9F814108AF8D6
:1014900004508420AAF82E0053E00021C9F810104F
:1014A000C9F814108AF804508AF811308520AAF877
:1014B0002E0046E02068D8F82C10081AFFF76AF9C9
:1014C00017F0BDFB214E00223346FFF7F9F90CD38C
:1014D0006068D8F83010081AFFF75CF917F0AFFB16
:1014E00000223346FFF7ECF92BD20021C9F8101087
:1014F000C9F81410C9F81810C9F81C108AF804505B
:101500008120AAF82E001CE00021C9F81010C9F8AB
:101510001410C9F81810C9F81C10AAF82E508AF82F
:10152000115001270DE00021C9F81010C9F814105E
:10153000C9F81810C9F81C10AAF82E508AF81150D2
:1015400001273846BDE8F88F00C07240000079409E
:10155000008046407C00002000004E4000C072C069
:10156000000024402DE9FC5F824688464FF00009C8
:10157000DAF80800642190FBF1F6F94CF9480121F2
:10158000B4F92A2003782046DFF8DCB3007904F5AB
:10159000807504F180075B2A7BD034DC4FF0450C6A
:1015A0004F2A77D024DCDFF8C483492A73D00FDCBC
:1015B000DFF8BCB34FF07808412A72D003DC32B3B5
:1015C000402A45D145E0452A67D0482AF9D1DFE0D5
:1015D0004A3ADFF8A0A3DFF8A0B3DFF8A083052A1A
:1015E00036D2DFE812F0EE02C103A1046C05590601
:1015F000503A0B2AF4D2DFE802F0FDF6F5F4F3F2EC
:10160000F1F0EFEEED005D3A1C2AE9D200E01DE0BA
:10161000DFE812F022037703E10336041E0003041F
:101620005804AD0402051E00CF0423057905E40526
:101630001E00A60510066906BE061E008B06E00603
:10164000350789071E005707AD07F0074020608562
:10165000F8E2DAF80000FFF79DF817F0F0FA002240
:101660005B46FFF72DF90AD3DAF80400FFF792F88A
:1016700017F0E5FA00225B46FFF722F90ED241206F
:101680006085BF490020C5E904010021A961E96125
:10169000DEE713E3F3E396E103E01DE0A4F82A801C
:1016A000D6E7207B50B1B6480021C5E904100020E0
:1016B000A861E861A073A4F82AC0C9E7A07B401C18
:1016C000C0B2A0730A2802D94FF0040901E04FF01C
:1016D000030900206085BBE7DAF80000FFF75AF83D
:1016E00017F0ADFA00225B46FFF7D2F80AD2DAF81B
:1016F0000400FFF74FF817F0A2FA00225B46FFF74D
:10170000C7F803D3617B207B814202D3A4F82A80EF
:101710009EE72D2807D9002060854FF002096073ED
:101720002073A07394E79748405C612818D0622822
:1017300019D063281AD064281BD065281CD06628CD
:101740001DD067281ED068281FD0A4F82A808C4896
:101750000022C5E90420AA61EA61491C617377E7A8
:1017600048206085F3E749206085F0E74A206085DE
:10177000EDE74B206085EAE74C206085E7E74D20E8
:101780006085E4E74E206085E1E74F206085DEE775
:101790003046FEF7FFFF8A46804617F050FA0022D7
:1017A000794BFFF775F803D9A6F12E00542802D221
:1017B000502060854CE74046514617F040FA002221
:1017C000724BFFF77DF802D38C365F2E0DD251207D
:1017D00060853DE71CE29FE145E1CFE174E116E160
:1017E0007EE029E0AEE059E004E0B86F6860522086
:1017F00060852DE7853E052E0AD261480021C5E9A6
:101800000410A961E961B86F6860522060851FE724
:10181000B8F1030F08D1012B06D0002129616961BD
:101820005B48C5E9061013E7002129616961A961D8
:10183000E961532060850BE730B9DAF80000F862FF
:10184000DAF804003863217152480021C5E9041018
:10185000A961E961DAF80000F96A081AFEF79AFF4F
:1018600017F0EDF900225B46FFF72AF80CD3DAF8FF
:101870000400396B081AFEF78DFF17F0E0F900221B
:101880005B46FFF71DF895D2002129616961A961C6
:10189000E9610020207150206085D9E6853E052E43
:1018A0000AD237480021C5E90410A961E961B86F7F
:1018B000686052206085CBE6B8F1030F08D1012B98
:1018C00006D00021296169613348C5E90610BFE6E9
:1018D000002129616961A961E96154206085B7E649
:1018E00030B9DAF80000F862DAF8040038632171E0
:1018F00028480021C5E90410A961E961DAF800006F
:10190000F96A081AFEF746FF17F099F900225B46BC
:10191000FEF7D6FF0CD3DAF80400396B081AFEF78D
:1019200039FF17F08CF900225B46FEF7C9FFB4D2ED
:10193000002129616961A961E961002020715120BC
:10194000608585E6B8F1030F28D1012B26D0B86F4A
:101950006968401AB0F5846F2DDBA4F82AC077E6D9
:10196000880000207C0000200000244000E065404A
:101970000000694000E06040000044400000144066
:1019800000C07240F16A0020008046400080614043
:1019900000004E4000C072C000004EC0002129610E
:1019A0006961A961E961002060854FF002096073F7
:1019B0002073A0734CE6FB480021C5E90410002009
:1019C000A861E86144E63046FEF7E4FE8B468246B5
:1019D00017F035F900224346FEF75AFF04D2002ED5
:1019E00002DB5520608533E65046594617F027F94B
:1019F00000224346FEF74CFF04D2002E02DA5620A6
:101A0000608525E6B86F68605720608520E630461F
:101A1000FEF7C0FE17F013F90022E34BFEF750FF6C
:101A20000AD2E0480021C5E90410A961E961B86F54
:101A30006860572060850BE6B8F1030F0BD1DB48D7
:101A40000078012807D0002129616961D849002068
:101A5000C5E90601FCE5002129616961A961E96127
:101A600058206085F4E530B9DAF80000F862DAF859
:101A7000040038632171CF480021C5E90410A96131
:101A8000E961DAF80000F96A081AFEF783FE17F038
:101A9000D6F800225B46FEF713FF0CD3DAF80400F9
:101AA000396B081AFEF776FE17F0C9F800225B467C
:101AB000FEF706FF86D2002028616861A861E86110
:101AC000207155206085C3E53046FEF763FE17F0B0
:101AD000B6F80022B44BFEF7F3FE0AD2B14800215B
:101AE000C5E90410A961E961B86F68605720608595
:101AF000AEE5B8F1030F08D000202861686100212D
:101B0000A961E96159206085A2E500212961696127
:101B1000A948C5E906109BE530B9DAF80000F8627B
:101B2000DAF8040038632171A2480021C5E90410E5
:101B3000A961E961DAF80000F96A081AFEF72AFEDD
:101B400017F07DF800225B46FEF7BAFE0CD3DAF8F8
:101B50000400396B081AFEF71DFE17F070F800221A
:101B60005B46FEF7ADFEAED2002028616861002121
:101B7000A961E96120715620608569E5B8F1030F1C
:101B80000BD1012B09D0B86F6968401A40F2F621D9
:101B900088420FDDA4F82AC05AE500212961696155
:101BA000A961E961002060854FF00209607320732C
:101BB000A0734DE57B490020C5E90401A861E861F7
:101BC00046E53046FEF7E6FD8A46804617F037F8D0
:101BD00000227A4BFEF774FE03D3A6F12E005E2896
:101BE00002D85A20608533E54046514617F027F861
:101BF0000022734BFEF74CFE02D98136542E02D2DE
:101C00005B20608524E5B86F6860522060851FE521
:101C10008936052E0AD263480021C5E90410A9615E
:101C2000E961B86F68605220608511E5B8F1030F73
:101C300009D1012B07D00020286168615C48002190
:101C4000C5E9061001E20020286168610021A96150
:101C5000E9615D206085F8E130B9DAF80000F862EA
:101C6000DAF804003863217152480021C5E90410F4
:101C7000A961E961DAF80000F96A081AFEF78AFD3D
:101C800016F0DDFF00225B46FEF71AFE0CD3DAF8F1
:101C90000400396B081AFEF77DFD16F0D0FF002214
:101CA0005B46FEF70DFE84D20020286168610021AA
:101CB000A961E96120715A206085C6E18936052E47
:101CC0000AD238480021C5E90410A961E961B86F5A
:101CD000686052206085B8E1B8F1030F08D1012B8C
:101CE00006D00021296169613348C5E90610ACE1DD
:101CF0000020286168610021A961E9615E2060859A
:101D0000A3E130B9DAF80000F862DAF804003863C9
:101D1000217128490020C5E904010021A961E96178
:101D2000DAF80000F96A081AFEF734FD16F087FFAA
:101D300000225B46FEF7C4FD0CD3DAF80400396BD1
:101D4000081AFEF727FD16F07AFF00225B46FEF721
:101D5000B7FDB2D2002129616961A961E961002062
:101D600020715B20608570E13046FEF713FD8A46E6
:101D7000804616F064FF0022124BFEF7A1FD02D24E
:101D80005F20608561E14046514616F058FF002211
:101D90000D4BFEF77DFD02D3553E0A2E16D860206E
:101DA000608552E100C07240002066407C00002047
:101DB00000004E4000C072C000004EC00080614074
:101DC0000080464000C0574000405540B86F6860F2
:101DD0005720608539E18936052E0AD2F94800215D
:101DE000C5E90410A961E961B86F68605720608592
:101DF0002BE1B8F1030F08D1012B06D00021296196
:101E00006961F148C5E90610FFE3002129616961B4
:101E1000A961E96162206085F7E330B9DAF8000072
:101E2000F862DAF8040038632171E8480021C5E956
:101E30000410A961E961DAF80000F96A081AFEF7EE
:101E4000A9FC16F0FCFE00225B46FEF739FD0CD320
:101E5000DAF80400396B081AFEF79CFC16F0EFFE66
:101E600000225B46FEF72CFD8CD2002129616961BE
:101E7000A961E961002020715F206085C5E3DBE294
:101E80008936052E0AD2CF480021C5E90410A96180
:101E9000E961B86F686057206085B6E3B8F1030F59
:101EA00008D1012B06D0002129616961C848C5E924
:101EB0000610AAE3002129616961A961E961632033
:101EC0006085A2E330B9DAF80000F862DAF80400BD
:101ED00038632171BD480021C5E90410A961E96199
:101EE000DAF80000F96A081AFEF754FC16F0A7FEAB
:101EF00000225B46FEF7E4FC0CD3DAF80400396BF1
:101F0000081AFEF747FC16F09AFE00225B46FEF721
:101F1000D7FCB3D2002129616961A961E961002080
:101F200020716020608570E33046FEF733FC804608
:101F3000019116F084FE00225346FEF7C1FC0ED933
:101F40004046019916F07BFE00225B46FEF7A0FC9E
:101F500002D3283E5F2E05D26520608555E36420BC
:101F6000608552E3B86F6860522060854DE32F367C
:101F7000052E0AD293480021C5E90410A961E96140
:101F8000B86F6860522060853FE3B8F1030F08D155
:101F9000012B06D00021296169618B48C5E9061033
:101FA00033E3002129616961A961E96167206085E6
:101FB0002BE330B9DAF80000F862DAF8040038638D
:101FC000217182490020C5E904010021A961E9616C
:101FD000DAF80000F96A081AFEF7DCFB16F02FFEAB
:101FE00000225B46FEF76CFC0CD3DAF80400396B78
:101FF000081AFEF7CFFB16F022FE00225B46FEF722
:102000005FFC90D2002129616961A961E96100202A
:10201000207164206085F8E22F36052E0BD26948C6
:102020000021C5E904100020A861E861B86F68606C
:1020300052206085E9E2B8F1030F07D00021296141
:102040006961A961E96168206085DEE2002129619A
:1020500069615F48C5E90610D7E230B9DAF80000D7
:10206000F862DAF804003863217158490020C5E9A4
:102070000401A861E861DAF80000F96A081AFEF7BD
:1020800089FB16F0DCFD00225B46FEF719FC0CD341
:10209000DAF80400396B081AFEF77CFB16F0CFFD66
:1020A00000225B46FEF70CFCB5D200212961696174
:1020B000A961E9610020207165206085A5E23046B4
:1020C000FEF768FB8B46824616F0B9FD00224346B8
:1020D000FEF7F6FB04D2002E02DA6920608594E256
:1020E0005046594616F0ABFD00224346FEF7E8FB8A
:1020F00004D2002E02DD6A20608586E2B86F686037
:102100005720608581E23046FEF744FB16F097FDCC
:102110000022304BFEF7BCFB0BD22A480021C5E958
:1021200004100020A861E861B86F686057206085DE
:102130006BE2B8F1030F0BD127480078012807D0D4
:1021400000202861686120480021C5E906105CE292
:10215000002129616961A961E9616C20608554E20F
:1021600030B9DAF80000F862DAF804003863217157
:1021700016480021C5E90410A961E961DAF80000F8
:10218000F96A081AFEF706FB16F059FD00225B46B5
:10219000FEF796FB0CD3DAF80400396B081AFEF749
:1021A000F9FA16F04CFD00225B46FEF789FB85D25A
:1021B000002129616961A961E9610020207169201C
:1021C000608522E200C0724000004E4000C072C034
:1021D00000004EC0000008407C0000203046FEF7A2
:1021E000D9FA16F02CFD0022FA4BFEF751FB0AD269
:1021F000F9480021C5E90410A961E961B86F686078
:102200005720608501E2B8F1030F0AD1F348007846
:10221000012806D0002129616961F148C5E906104D
:10222000F3E10020286168610021A961E9616D2066
:102230006085EAE130B9DAF80000F862DAF8040003
:1022400038632171E7480021C5E90410A961E961FB
:10225000DAF80000F96A081AFEF79CFA16F0EFFCAB
:1022600000225B46FEF72CFB0CD3DAF80400396B36
:10227000081AFEF78FFA16F0E2FC00225B46FEF722
:102280001FFB9ED2002129616961A961E9610020DB
:1022900020716A206085B8E13046FEF77BFA8046FF
:1022A000009116F0CCFC00225B46FEF7F1FA03D950
:1022B00006F186005E2802D26E206085A5E14046C8
:1022C000009916F0BCFC00225346FEF7F9FA02D939
:1022D000333E542E02D26F20608596E1B86F68605D
:1022E0005220608591E12B3E052E0AD2BA4800218A
:1022F000C5E90410A961E961B86F68605220608582
:1023000083E1B8F1030F08D1012B06D00021296128
:102310006961B548C5E9061077E100212961696165
:10232000A961E961712060856FE130B9DAF80000D8
:10233000F862DAF8040038632171AA480021C5E97F
:1023400004100020A861E861DAF80000F96A081AB0
:10235000FEF720FA16F073FC00225B46FEF7B0FA97
:102360000CD3DAF80400396B081AFEF713FA16F0EA
:1023700066FC00225B46FEF7A3FA08D20021296121
:102380006961A961E961002020716E2060853CE1EE
:102390002B3E052E0AD290480021C5E90410A96100
:1023A000E961B86F6860522060852EE1B8F1030FD3
:1023B00008D1012B06D00021296169618848C5E94F
:1023C000061022E1002129616961A961E961722099
:1023D00060851AE130B9DAF80000F862DAF8040032
:1023E000386321717F480021C5E90410A961E961C2
:1023F000DAF80000F96A081AFEF7CCF916F01FFCAB
:1024000000225B46FEF75CFA0CD3DAF80400396B65
:10241000081AFEF7BFF916F012FC00225B46FEF721
:102420004FFA08D2002129616961A961E9610020A0
:1024300020716F206085E8E03046FEF7ABF98A46F0
:10244000804616F0FCFB0022684BFEF721FA02D210
:1024500073206085D9E04046514616F0F0FB00221B
:10246000634BFEF72DFA02D35F360A2E02D8742092
:102470006085CAE0B86F686057206085C5E0583E47
:10248000052E0AD254480021C5E90410A961E9616A
:10249000B86F686057206085B7E0B8F1030F08D1C6
:1024A000012B06D00021296169614F48C5E906105A
:1024B000ABE0002129616961A961E961762060854D
:1024C000A3E030B9DAF80000F862DAF80400386303
:1024D000217144480021C5E90410A961E961DAF8D5
:1024E0000000F96A081AFEF755F916F0A8FB002259
:1024F0005B46FEF7E5F90CD3DAF80400396B081AED
:10250000FEF748F916F09BFB00225B46FEF7D8F970
:102510007BD20021296169610020A861E8612071F6
:102520007320608571E0583E052E0BD22A480021A9
:10253000C5E904100020A861E861B86F6860572001
:10254000608562E0B8F1030F09D1012B07D00020AC
:102550002861686122480021C5E9061055E0002184
:1025600029616961A961E961772060854DE030B931
:10257000DAF80000F862DAF80400386321711948CB
:102580000021C5E90410A961E961DAF80000F96ADF
:10259000081AFEF7FFF816F052FB00225B46FEF722
:1025A0008FF90CD3DAF80400396B081AFEF7F2F849
:1025B00016F045FB00225B46FEF782F925D200218A
:1025C00029616961A961E961002020717420608539
:1025D0001BE000000000084000C072407C000020AA
:1025E00000004EC000C072C000004E400040554088
:1025F00000C05740002028616861A861E8614FF081
:10260000010960732073A07360854846BDE8FC9F94
:102610002DE9F05F04460E464FF00008A568DFF88C
:10262000ECA100275146BAF92C000A798031012328
:10263000DFF8DCB101F1800943283ED003DC38B17A
:1026400042280BD10BE0442870D04728F9D1A3E0F1
:10265000C86FC9F800004220AAF82C00D2E0032E6F
:102660001ED16C48007801281AD0C86FD9F8001024
:10267000401AFEF78FF816F0E2FA0022664BFEF7DA
:102680001FF911D20021C9F81010C9F81410C9F8A7
:102690001810C9F81C10AAF82C704FF00108B1E00E
:1026A0004320AAF82C00ADE05C480021C9E90410E1
:1026B000C9F81810C9F81C10A4E02AB92068C8622B
:1026C000606808638AF8043055480022C9E904208C
:1026D000C9F81820C9F81C200E462068C96A081AD3
:1026E000FEF758F816F0ABFA00225B46FEF7E8F862
:1026F0000BD36068316B081AFEF74CF816F09FFA9E
:1027000000225B46FEF7DCF87CD20021C9F81010ED
:10271000C9F81410C9F81810C9F81C108AF8047008
:10272000F5634420AAF82C006CE0FFE7C86B0C4668
:10273000401BFEF72FF816F082FA0022394BFEF705
:10274000BFF810D20021C9F81010C9F814100020E9
:10275000C9F81800C9F81C00E06FC9F80000422051
:10276000AAF82C004EE0032E0DD00020C9F810006E
:10277000C9F814000021C9F81810C9F81C10472026
:10278000AAF82C003EE00021C9F81010C9F8141076
:102790002548C9E9061035E02AB92068C862606892
:1027A00008638AF804301E480022C9E90420C9F8E9
:1027B0001820C9F81C200E462068C96A081AFDF7BF
:1027C000E9FF16F03CFA00225B46FEF779F80BD3DE
:1027D0006068316B081AFDF7DDFF16F030FA002251
:1027E0005B46FEF76DF80DD20021C9F81010C9F84C
:1027F0001410C9F81810C9F81C108AF80470442085
:10280000AAF82C004046BDE8F09F00008800002098
:10281000000034407C00002000F08D4000C0724079
:1028200000C072C000003E4000004E402DE9F04F55
:102830008DB000210B9101260A9109910891079111
:102840000023026841F2883154184FF4C87294FB97
:10285000F2F40FFA84F94068084490FBF2F00FFAA2
:1028600080FB91FBF2F000B2029091FBF2F000B21B
:1028700001900024DFF89CE2002C02DD4FF00108FB
:1028800001E04FF000080021DFF88CC2002001EBCE
:10289000C10202EB01120CEB82052A18977DFA2F78
:1028A00008D0927D32B1401C00B26428F5DB23B120
:1028B000002306E00A910123F9E7491C09B26429C3
:1028C000E4DB0A98A0EB040ABAF1030F06DD4FEA35
:1028D000EA700AEB90708010401E00E0002000B209
:1028E00006906321002001EBC10202EB01120CEB08
:1028F00082073A18957DFA2D08D0927D32B1401C9E
:1029000000B26428F5DB23B1002306E0099101231E
:10291000F9E7491E09B20029E4DA0998001B60288A
:1029200005DAC11700EB91708010401C00E0182000
:1029300000B205900021002000EBC00202EB001263
:102940000CEB82020A44957DFA2D08D0927D32B1BB
:10295000401C00B26428EFDB23B1002306E008919D
:102960000123F9E7491C09B26429E4DB089803282C
:1029700006DD4FEAEA700AEB90708010401E00E01E
:10298000002000B204906321002000EBC00202EBA3
:102990000015614A02EB85020A44957DFA2D08D0A4
:1029A000927D32B1401C00B26428EEDB23B10023DB
:1029B00006E007910123F9E7491E09B20029E3DA8D
:1029C00007985F2801DD182005E00798C11700EB84
:1029D00091708010401C00B203900021C8F11900D2
:1029E0000C9075E00598814202D0069881421BD177
:1029F000002001EBC102002502EB01120127724405
:102A0000494501D1584507D0DDF808C0614505D1D9
:102A1000DDF804C0604501D1155400E01754401C96
:102A200000B21928ECDB51E00020049A904202D059
:102A3000039A904207D101EBC10505EB01157544DE
:102A400001222A543EE000254FF0640A002202EBE6
:102A50008507274497FBFAFC0AFB1C7707EBC70C9A
:102A60000CEB071C2C4F07EB8C0C02EB800797FB41
:102A7000FAF80AFB18776744BF7D8FB1521C12B277
:102A8000042AE4DB1EB16D1C2DB2042DDEDB4EB139
:102A900001EBC10505EB0115754400222A5411E034
:102AA0000026EFE74C4501D158452BD0192C01D118
:102AB000192827D001EBC10505EB0115754401224A
:102AC0002A540126401C00B21928AEDB491C09B269
:102AD0000C98884286DC641C24B2042CFFF6CCAE31
:102AE00001980BF0FF02C0B20090029809F0FF01BC
:102AF000C3B2084815F064FE16F0C4FD0B980DB083
:102B0000BDE8F08F01EBC10505EB0115754400220E
:102B10002A54D6E780680020B806002010B50120AE
:102B200017F0A4FF0149486110BD0000000000201B
:102B30007FB500241A48CDE901040121CA020091A1
:102B40002346039417A11B4818F066F81448022185
:102B50000C38CDE901040A0200910023039416A168
:102B6000194818F059F80E4803210838CDE9010436
:102B70004FF48065009100232A46039413A117485F
:102B800018F04AF806480421001FCDE9010400911D
:102B900000232A46039412A1154818F03DF87FBD82
:102BA00010000020765461736B4D617070696E6720
:102BB00000000000A1A50108765461736B446563B1
:102BC0006973696F6E00000021A501087654617376
:102BD0006B436F6E74726F6C00000000B1A401084B
:102BE000765461736B50657263657074696F6E00C3
:102BF00079A6010800B593B014221D4906A8FDF777
:102C000017FB14221A49143101A8FDF711FB04F037
:102C10009DFF00282AD120210BA807F099F806A9CA
:102C20000BA805F0BBF8002820D1142106A8FDF759
:102C300018FB20210BA807F08BF806AA20210BA86F
:102C400004F032FF002811D101AB01AA20210BA80A
:102C500009F0E8FF142201A906A8FDF70DFBC0B298
:102C6000002803D104F0E4FF0028FFD113B000BD19
:102C700090AF010810A41B4E4FF461652946304601
:102C80000EF01AF9294630460EF018F9294630465A
:102C90000EF016F9294630460EF014F90020124BBA
:102CA000191F225C1A800A885206FCD5401CC0B24B
:102CB0002928F6D3FEE700000D0A456E74657220E0
:102CC000486172644661756C745F48616E646C65DE
:102CD000722C2053797374656D2048616C742E0DCD
:102CE0000A000000002C0140044400402DE9F0419E
:102CF00005462C22002141480AF026F8404E3F4C60
:102D000021213078943C40F005002070204615F0D9
:102D1000A1FB7070002852D1A178C1F3810201F0AB
:102D2000030025B10223B3EB911F47D106E063787E
:102D30003B2B43D10B0641D44B063FD5032A3DD054
:102D4000304B2E4D2F4E9B5C6B702E4B383303EB6C
:102D500082031B5CAB702B4B443303EB8203503676
:102D60001B5C06EBC2022B7032F81000A880C8066C
:102D700001D510332B700822611CA81D09F0DAFF61
:102D80001E49607A85F82B008A39072201F19800E4
:102D900009F0D0FF19490622833901F1980009F0A2
:102DA000C9FF0022202018260121D307A0EB5203DF
:102DB000E35C06D0F02747EA131304E00420BDE8E3
:102DC000F08143F0F003AF18FB76A6EBD20302F0DC
:102DD0000707E35C01FA07F73B4201D0FF2700E059
:102DE000EF27AB18521C93F81BC0D2B207EA0C07AE
:102DF000DF76102AD9D30020E1E7000038D900207F
:102E000094020020FEAF010870B516460C46054638
:102E10000DF02CF808210D480DF046F810210C4853
:102E20000DF042F80948072108300DF03DF8084838
:102E3000182118380DF038F8214628460DF034F8DE
:102E40003046BDE870400CF0EFBF00003ED90020D6
:102E5000B80200200EB5104904236A46A1F108000B
:102E600009F07AFF0C4904230DF106020831684687
:102E700009F072FF08490423091D6A46A1F1080000
:102E800009F06AFF6846022301AA811C09F064FF69
:102E900001A809F06FFF0EBDACD800202DE9F84F56
:102EA00004468B460026A068642190FBF1F0009058
:102EB000DFF800A40025504601210079FE4BDAF826
:102EC00050200AF180081B78FC4F08F18009B2F508
:102ED000377F7DD023DC40F2D62EA2F2D62C72456D
:102EE00077D014DC40F2D32EA2F2D32C724571D0ED
:102EF00006DC02B31CF102024FD0012A4CD18EE055
:102F0000BCF1010F67D0BCF1020FF7D107E1BCF1B2
:102F1000060F41D2DFE80CF040F7F6F5F4F3A2F229
:102F2000DD220B2AF5D2DFE802F0F9F8F7F6F5F426
:102F3000F3F2F1F0EF0038B92068C8F82C006068AF
:102F4000C8F830008AF80410DD480021C9E90410EF
:102F5000C9F81810C9F81C102068D8F82C10081AE5
:102F6000FDF718FC15F06BFE00223B46FDF7A8FCB0
:102F70000CD36068D8F83010081AFDF70BFC15F078
:102F80005EFE00223B46FDF79BFCC2D240F2D12000
:102F9000CAF850008AF80450B3E338B92068C8F87A
:102FA0002C006068C8F830008AF80410C44800217A
:102FB000C9E90410C9F81810C9F81C102068D8F81D
:102FC0002C10081AFDF7E6FB15F039FE002203E08D
:102FD000D4E1C9E034E056E03B46FDF771FCDBD2BA
:102FE0000021C9F81010C9F81410C9F81810C9F850
:102FF0001C100098FDF7CEFB15F021FE0022B14B0E
:10300000FDF746FC04D240F2D220CAF8500003E09B
:1030100040F2DD20CAF850008AF8045071E3002124
:10302000C9F81010C9F81410C9F81810C9F81C1004
:103030006068C8F8240040F2D320CAF8500060E36A
:103040000021C9F81010C9F814109F48C9E90610EA
:1030500000984B2808DDC9F81810C9F81C1040F278
:10306000D520CAF850004CE3BBF1030F01D1012B6E
:1030700092D10021C9F81810C9F81C104FF435700E
:10308000CAF850003DE338B92068C8F82C006068E1
:10309000C8F830008AF8041089480021C9E90410F2
:1030A000C9F81810C9F81C102068D8F82C10081A94
:1030B000FDF770FB15F0C3FD00223B46FDF700FC59
:1030C0000CD36068D8F83010081AFDF763FB15F0D0
:1030D000B6FD00223B46FDF7F3FB9FD20021C9F865
:1030E0001010C9F814100020C9F81800C9F81C0005
:1030F0008AF8045040F2D320CAF8500001E302E1FC
:10310000C2E0BDE089E04DE0F8E2ACE27FE27AE2C5
:1031100046E209E2DCE1B7E17AE144E132E16B4801
:103120000021C9E904100020C9F81800C9F81C00E2
:10313000BBF1030F13D1012B11D06068D8F8241014
:10314000081AFDF727FB15F07AFD0022604BFDF70A
:10315000B7FB88D240F2D620CAF85000D1E240F244
:10316000D620CAF85000CCE20021C9F81010C9F8E6
:1031700014105548C9E906100098552808DDC9F80B
:103180001810C9F81C104FF43670CAF85000B8E295
:10319000BBF1030F01D1012BB0D140F2D720CAF807
:1031A0005000AEE238B92068C8F82C006068C8F852
:1031B00030008AF8041042480021C9E90410C9F817
:1031C0001810C9F81C102068D8F82C10081AFDF740
:1031D000E1FA15F034FD00223B46FDF771FB0CD3FC
:1031E0006068D8F83010081AFDF7D4FA15F027FDFA
:1031F00000223B46FDF764FBB0D20021C9F8101055
:10320000C9F81410C9F81810C9F81C108AF804502D
:1032100040F2D620CAF8500073E22C480021C9E9D8
:103220000410C9F81810C9F81C10BBF1030F1DD108
:10323000012B1BD06068D8F82410081AFDF7AAFAF1
:1032400015F0FDFC0022224BFDF73AFB86D200214F
:10325000C9F81010C9F814100020C9F81800C9F8EE
:103260001C0040F2DA20CAF850004AE20021C9F8F6
:103270001010C9F8141040F2D920CAF8500040E2EA
:10328000CAF8505002263CE20020C9F81000C9F8E4
:1032900014000D49C9E906010098FDF77BFA15F005
:1032A000CEFC00220B4BFDF70BFB20D20021C9F80E
:1032B000101011E0880000207C0000200000244055
:1032C00000C072C00080564000004E4000C07240F6
:1032D0000000644000E06540C9F81410C9F81810F7
:1032E000C9F81C104FF43770CAF8500009E2BBF15E
:1032F000030F03D1F948007801288DD140F2DB207B
:10330000CAF85000FDE138B92068C8F82C006068A0
:10331000C8F830008AF80410F1480021C9E9041007
:10332000C9F81810C9F81C102068D8F82C10081A11
:10333000FDF730FA15F083FC00223B46FDF7C0FA9A
:103340000CD36068D8F83010081AFDF723FA15F08E
:1033500076FC00223B46FDF7B3FA86D20021C9F87D
:103360001010C9F81410C9F81810C9F81C108AF800
:10337000045040F2DA20CAF85000C2E1CAF85050B6
:103380000126BEE10021C9F81010C9F81410C9F8CF
:103390001810C9F81C106068C8F8240040F2DE203C
:1033A000CAF85000ADE10021C9F81010C9F8141096
:1033B000CC48C9E906100098FDF7ECF915F03FFC80
:1033C0000022C94BFDF764FA0DD20021C9F8101094
:1033D000C9F81410C9F81810C9F81C104FF4387047
:1033E000CAF850008DE1BBF1030F03D1BB48007850
:1033F000012887D10021C9F81010C9F81410C9F8A4
:103400001810C9F81C1040F2DF20CAF8500078E10B
:1034100038B92068C8F82C006068C8F830008AF80D
:103420000410AF480021C9E90410C9F81810C9F800
:103430001C102068D8F82C10081AFDF7ABF915F00D
:10344000FEFB00223B46FDF73BFA0CD36068D8F840
:103450003010081AFDF79EF915F0F1FB00223B46EB
:10346000FDF72EFA89D20021C9F81010C9F81410FE
:103470000020C9F81800C9F81C008AF8045040F26E
:10348000DE20CAF850003CE198480021C9E9041048
:10349000C9F81810C9F81C10BBF1030F13D1012B88
:1034A00011D06068D8F82410081AFDF773F915F0E8
:1034B000C6FB00228E4BFDF703FA93D240F2E120C7
:1034C000CAF850001DE140F2E120CAF8500018E1AE
:1034D0000021C9F81010C9F814108248C9E9061073
:1034E0000098FDF757F915F0AAFB0022814BFDF774
:1034F000CFF90DD20021C9F81010C9F81410C9F87D
:103500001810C9F81C1040F2E320CAF85000F8E087
:10351000BBF1030F03D171480078012803D140F2B9
:10352000E220CAF85000ECE038B92068C8F82C0056
:103530006068C8F830008AF8041069480021C9E9B9
:103540000410C9F81810C9F81C102068D8F82C10FD
:10355000081AFDF71FF915F072FB00223B46FDF734
:10356000AFF90CD36068D8F83010081AFDF712F9DB
:1035700015F065FB00223B46FDF7A2F90FD20020B3
:10358000C9F81000C9F814000021C9F81810C9F8CA
:103590001C108AF8045040F2E120CAF85000B0E054
:1035A00052480021C9E90410C9F81810C9F81C10C4
:1035B000BBF1030F1DD1012B1BD06068D8F824107C
:1035C000081AFDF7E7F815F03AFB0022484BFDF723
:1035D00077F90DD20020C9F81000C9F814000021B5
:1035E000C9F81810C9F81C1040F2E520CAF85000BC
:1035F00087E00021C9F81010C9F814104FF4397091
:10360000CAF850007DE0CAF85050032679E0002146
:10361000C9F81010C9F814103248C9E9061000980A
:10362000FDF7B8F815F00BFB0022334BFDF730F92E
:103630000DD20021C9F81010C9F81410C9F81810DB
:10364000C9F81C1040F2E720CAF8500059E0BBF15D
:10365000030F03D121480078012852D140F2E6201F
:10366000CAF850004DE038B92068C8F82C006068EE
:10367000C8F830008AF8041019480021C9E904107C
:10368000C9F81810C9F81C102068D8F82C10081AAE
:10369000FDF780F815F0D3FA00223B46FDF710F94C
:1036A0000CD36068D8F83010081AFDF773F815F0DD
:1036B000C6FA00223B46FDF703F922D20021C9F8E1
:1036C0001010C9F81410C9F81810C9F81C108AF89D
:1036D000045040F2E520CAF8500012E07C000020BF
:1036E00000C072C000004EC000405A4000C072408E
:1036F0000000644000C0574000001440CAF8505019
:1037000001263046BDE8F88F2DE9F84F04468B4678
:103710000026A068642190FBF1F00090DFF800A47F
:103720000025504601210079FE4BDAF850200AF1BD
:1037300080081B78FC4F08F18009B2F5B67F7CD079
:1037400021DCB2F5B37F79D014DC40F2631EA2F223
:10375000631C724573D006DC0AB31CF1020250D020
:10376000012A4DD18FE0BCF1010F69D0BCF1020FED
:10377000F7D109E1A2F26712052A41D2DFE802F08F
:10378000F8F7F6F5F400A2F26D120B2AF5D2DFE895
:1037900002F0FAF9F8F7F6F5F4F3F2F1F00038B9BF
:1037A0002068C8F82C006068C8F830008AF8041057
:1037B000DE480021C9E90410C9F81810C9F81C1026
:1037C0002068D8F82C10081AFCF7E4FF15F037FA37
:1037D00000223B46FDF774F80CD36068D8F830102F
:1037E000081AFCF7D7FF15F02AFA00223B46FDF72E
:1037F00067F8C2D240F26110CAF850008AF804504B
:10380000B3E338B92068C8F82C006068C8F8300005
:103810008AF80410C5480021C9E90410C9F8181035
:10382000C9F81C102068D8F82C10081AFCF7B2FF51
:1038300015F005FA00223B4603E0D9E1C9E033E088
:1038400056E0FDF73DF8DBD20021C9F81010C9F8A9
:103850001410C9F81810C9F81C100098FCF79AFF4A
:1038600015F0EDF90022B24BFDF712F804D24FF437
:10387000B170CAF8500003E040F26D10CAF8500071
:103880008AF8045071E30021C9F81010C9F8141027
:10389000C9F81810C9F81C106068C8F8240040F274
:1038A0006310CAF8500060E30021C9F81010C9F88D
:1038B0001410A048C9E90610009810F14B0F08DA5F
:1038C000C9F81810C9F81C1040F26510CAF8500069
:1038D0004BE3BBF1030F01D1012B91D10021C9F8BA
:1038E0001810C9F81C104FF4B270CAF850003CE32D
:1038F00038B92068C8F82C006068C8F830008AF829
:1039000004108A490020C9E904010021C9F81810EF
:10391000C9F81C102068D8F82C10081AFCF73AFFD8
:1039200015F08DF900223B46FCF7CAFF0CD3606806
:10393000D8F83010081AFCF72DFF15F080F9002296
:103940003B46FCF7BDFF9DD20021C9F81010C9F815
:103950001410C9F81810C9F81C108AF8045040F265
:103960006310CAF8500000E307E1C6E0C1E08DE053
:1039700050E0F7E2ABE27DE278E245E209E2E0E125
:10398000BBE17FE149E137E16B480021C9E904105F
:103990000020C9F81800C9F81C00BBF1030F13D1AF
:1039A000012B11D06068D8F82410081AFCF7F2FE39
:1039B00015F045F90022614BFCF782FF88D24FF4E5
:1039C000B370CAF85000D0E24FF4B370CAF8500098
:1039D000CBE20021C9F81010C9F814105549002095
:1039E000C9E90601009810F1520F09DA0021C9F85F
:1039F0001810C9F81C104FF4B470CAF85000B4E2A3
:103A0000BBF1030F01D1012BADD140F26710CAF811
:103A10005000AAE238B92068C8F82C006068C8F8DD
:103A200030008AF8041041480021C9E90410C9F89F
:103A30001810C9F81C102068D8F82C10081AFCF7C8
:103A4000A9FE15F0FCF800223B46FCF739FF0CD329
:103A50006068D8F83010081AFCF79CFE15F0EFF8F3
:103A600000223B46FCF72CFFADD20020C9F8100025
:103A7000C9F814000021C9F81810C9F81C108AF8F8
:103A800004504FF4B370CAF850006EE22A48002187
:103A9000C9E90410C9F81810C9F81C10BBF1030FCC
:103AA0001DD1012B1BD06068D8F82410081AFCF730
:103AB00071FE15F0C4F80022204BFCF701FF87D2FD
:103AC0000020C9F81000C9F814000021C9F8181026
:103AD000C9F81C104FF4B570CAF8500045E2002137
:103AE000C9F81010C9F8141040F26910CAF8500053
:103AF0003BE2CAF85050022637E20020C9F8100015
:103B0000C9F814000B480021C9E906100098FCF719
:103B100041FE15F094F80022094BFCF7D1FE11E0AC
:103B2000880000207C0000200000244000C072C0FB
:103B30000080564000004EC000C07240000064404B
:103B400000A065400DD20021C9F81010C9F814106A
:103B5000C9F81810C9F81C104FF4B670CAF8500014
:103B600003E2BBF1030F03D1F748007801288CD1A1
:103B700040F26B10CAF85000F7E138B92068C8F875
:103B80002C006068C8F830008AF80410EF48002163
:103B9000C9E90410C9F81810C9F81C102068D8F831
:103BA0002C10081AFCF7F6FD15F049F800223B46E8
:103BB000FCF786FE0CD36068D8F83010081AFCF7C2
:103BC000E9FD15F03CF800223B46FCF779FE85D272
:103BD0000021C9F81010C9F81410C9F81810C9F854
:103BE0001C108AF804504FF4B570CAF85000BCE1BC
:103BF000CAF850500126B8E10021C9F81010C9F8E0
:103C00001410C9F81810C9F81C106068C8F824000E
:103C10004FF4B770CAF85000A7E10021C9F810109E
:103C2000C9F81410CA48C9E906100098FCF7B2FD9B
:103C300015F005F80022C74BFCF72AFE0DD2002133
:103C4000C9F81010C9F81410C9F81810C9F81C10D8
:103C50004FF4B870CAF8500087E1BBF1030F03D1ED
:103C6000B9480078012887D10021C9F81010C9F897
:103C70001410C9F81810C9F81C1040F26F10CAF8D7
:103C8000500072E138B92068C8F82C006068C8F8A4
:103C900030008AF80410AD480021C9E90410C9F8C1
:103CA0001810C9F81C102068D8F82C10081AFCF756
:103CB00071FD14F0C4FF00223B46FCF701FE0CD35B
:103CC0006068D8F83010081AFCF764FD14F0B7FFEC
:103CD00000223B46FCF7F4FD89D20021C9F8101000
:103CE000C9F81410C9F81810C9F81C108AF8045043
:103CF0004FF4B770CAF8500037E197480021C9E97E
:103D00000410C9F81810C9F81C10BBF1030F13D127
:103D1000012B11D06068D8F82410081AFCF73AFD7E
:103D200014F08DFF00228D4BFCF7CAFD03D240F248
:103D30007110CAF8500018E140F27110CAF8500032
:103D400013E10021C9F81010C9F814108048C9E91E
:103D500006100098FCF71EFD14F071FF0022804B46
:103D6000FCF796FD0DD20021C9F81010C9F8141007
:103D7000C9F81810C9F81C1040F27310CAF85000A6
:103D8000F3E0BBF1030F03D04FF4B970CAF8500051
:103D9000EBE038B92068C8F82C006068C8F830003B
:103DA0008AF8041069480021C9E90410C9F81810FC
:103DB000C9F81C102068D8F82C10081AFCF7EAFC87
:103DC00014F03DFF00223B46FCF77AFD0CD36068FF
:103DD000D8F83010081AFCF7DDFC14F030FF002290
:103DE0003B46FCF76DFD0ED20021C9F81010C9F852
:103DF0001410C9F81810C9F81C108AF8045040F2C1
:103E00007110CAF85000B0E053480021C9E904100D
:103E1000C9F81810C9F81C10BBF1030F1CD1012BF5
:103E20001AD06068D8F82410081AFCF7B3FC14F014
:103E300006FF0022494BFCF743FD0CD20021C9F8D4
:103E40001010C9F81410C9F81810C9F81C1040F265
:103E50007510CAF8500088E00021C9F81010C9F8A0
:103E600014104FF4BA70CAF850007EE0CAF85050EF
:103E700003267AE00021C9F81010C9F8141034485C
:103E8000C9E906100098FCF785FC14F0D8FE002262
:103E90003B46FCF7FDFC0ED20021C9F81010C9F812
:103EA00014100020C9F81800C9F81C004FF4B670AF
:103EB000CAF8500059E0BBF1030F03D12248007843
:103EC000012852D14FF4BB70CAF850004DE038B908
:103ED0002068C8F82C006068C8F830008AF8041020
:103EE0001A480021C9E904100020C9F81800C9F8CF
:103EF0001C002068D8F82C10081AFCF74BFC14F0B2
:103F00009EFE00223B46FCF7DBFC0CD36068D8F831
:103F10003010081AFCF73EFC14F091FE00223B46DC
:103F2000FCF7CEFC21D20021C9F81010C9F81410FA
:103F3000C9F81810C9F81C108AF8045040F275101E
:103F4000CAF8500011E000007C00002000C072C0E0
:103F500000004E4000405A4000C0724000006440E3
:103F600000405740CAF8505002263046BDE8F88F4E
:103F70002DE9F84F04468A4600200090A06864218D
:103F800090FBF1F9F74DF8492846EA6C40F2A62C6F
:103F900000790978DFF8D4B3A2F2A6234FF0010824
:103FA00005F1800705F5807662457DD036DC40F26C
:103FB0009A2CA2F29A23624577D01FDC40F2952C0E
:103FC000A2F29523624571D00FDC40F29223A2F257
:103FD00092219A426BD003DC1AB34A1C63D167E08A
:103FE00001297DD00229F9D1DAE0012B79D0022B09
:103FF00078D0032B77D0042BF0D1ECE30C2B52D2EA
:10400000DFE813F051006704A40451005100E404F8
:104010003B05DE020303CD0136032F02142BEED243
:1040200000E015E0DFE813F03F0074029A022E056D
:10403000290152018201390553058305AE05CA05E0
:10404000100637063C06640694069203F703F9044B
:1040500028B92068F8626068386385F80480C4482D
:104060000021C6E904100020B061F0612068F96AFF
:10407000081AFCF78FFB14F0E2FD00225B46FCF708
:104080001FFC0BD36068396B081AFCF783FB14F034
:10409000D6FD00225B46FCF713FCB0D240F2912023
:1040A000E8640020287100E200E2E4E3A9E044E0D3
:1040B00028B92068F8626068386385F80480AC48E5
:1040C0000021C6E90410B161F1612068F96A081A9B
:1040D000FCF760FB14F0B3FD0022DFF8988203E0E8
:1040E00034E098E0C8E207E34346FCF7E9FB0BD372
:1040F0006068396B081AFCF74DFB14F0A0FD002234
:104100004346FCF7DDFBCED2002131617161B16124
:10411000F1614846FCF73EFB14F091FD0022964BFE
:10412000FCF7CEFB03D240F29220E86402E040F2BA
:10413000A920E86400202871B5E700213161716190
:10414000B161F16140F29320E864ACE70021316194
:1041500071618A48C6E906104846FCF71BFB14F05B
:104160006EFD0022864BFCF793FB09D200203061E4
:1041700070610021B161F16140F29520E86492E73D
:10418000BAF1030F03D17848007801288BD10021C0
:1041900031617161B161F1614FF42570E86482E7CA
:1041A00028B92068F8626068386385F8048070492F
:1041B0000020C6E904010021B161F1612068F96ABB
:1041C000081AFCF7E7FA14F03AFD00225B46FCF708
:1041D00077FB0BD36068396B081AFCF7DBFA14F035
:1041E0002EFD00225B46FCF76BFBA5D2002131615E
:1041F0007161B161F1610020287140F29320E8649F
:1042000051E70020B863606878622068386240F245
:104210009620E86447E72068F861B86B401CB863F3
:10422000584A0021C6E90412B161F161012820DD7C
:104230002068396A081AFCF7ADFA14F000FD4D4EFB
:1042400000223346FCF724FB13D26068796A081A0F
:10425000FCF7A0FA14F0F3FC00223346FCF718FB3D
:1042600007D20020B8636068786240F2AA20E86450
:1042700019E740F2A320E86415E70021316171617C
:104280003E48C6E906104846FCF784FA14F0D7FC0D
:104290000022394BFCF7FCFA08D200213161716130
:1042A000B161F1614FF42B70E864FCE6BAF1030FE1
:1042B00003D12D4800780128A2D10021316171611C
:1042C000B161F16140F2AB20E864ECE628B9206806
:1042D000F8626068386385F8048025480021C6E9E3
:1042E0000410B161F1612068F96A081AFCF752FA0A
:1042F00014F0A5FC00225B46FCF7E2FA0BD36068E1
:10430000396B081AFCF746FA14F099FC00225B4658
:10431000FCF7D6FAACD2002131617161B161F16173
:104320000020287140F2AA20E864BCE6154800226B
:10433000C6E90420B261F261BAF1030F26D1012966
:1043400024D06068796A081AFCF724FA14F077FC24
:1043500000220D4BFCF7B4FA8AD240F29F20E864A9
:10436000A1E60000880000207C000020000024401E
:1043700000C072C0000034400080564000004EC0B3
:1043800000C0624000C07240000054400020306114
:1043900070614FF45E7068650020E86483E6BAF1EE
:1043A000000F0FD02068F969081AFCF7F3F914F030
:1043B00046FC0022FD4BFCF783FA07D240F29A201C
:1043C000E86472E040F29720E8646EE06068796A21
:1043D000081AFCF7DFF914F032FC0022F44BFCF76A
:1043E0006FFA03D240F2A120E8645EE0BAF1020F56
:1043F00015D0BAF1010F12D0EE48007801280ED086
:104400006068796A401C88420FDA00203061706170
:104410000021B161F16140F2A520E86445E06068E7
:10442000786240F2AA20E8643FE02068FCF7B2F925
:1044300014F005FC0022E04BFCF742FA03D24FF4E3
:104440002870E86431E04846FCF7A4F914F0F7FB63
:104450000022DA4BFCF71CFAA0D240F2A720E86455
:1044600023E0BAF1030F16D1012914D04846FCF716
:1044700091F914F0E4FB0022D14BFCF721FA0ED2A3
:10448000002030617061B061F06185F806804FF402
:104490002870E86409E040F2A620E86405E0002105
:1044A00031617161C748C6E906100DE228B920687C
:1044B000F8626068386385F80480C3480021C6E963
:1044C0000410B161F1612068F96A081AFCF762F919
:1044D00014F0B5FB00225B46FCF7F2F90BD36068E1
:1044E000396B081AFCF756F914F0A9FB00225B4659
:1044F000FCF7E6F992D2002131617161B161F1619D
:1045000085F8068040F2A520E86400202871DBE1F0
:10451000BAF1030F17D1012915D04846FCF73AF933
:1045200014F08DFB0022A94BFCF7B2F90FD200204A
:10453000306170610021B161F16185F806804FF44E
:104540002870E864C0E14FF42A70E864BCE10021FF
:10455000316171619B48C6E90610FDE328B9206806
:10456000F8626068386385F8048097480021C6E9DE
:104570000410B161F1612068F96A081AFCF70AF9C0
:1045800014F05DFB00225B46FCF79AF90BD36068E0
:10459000396B081AFCF7FEF814F051FB00225B4659
:1045A000FCF78EF9B3D2002131617161B161F16123
:1045B00085F8068040F2A720E86400202871CBE34C
:1045C000BAF1030F16D1012914D04846FCF7E2F8DE
:1045D00014F035FB00227D4BFCF75AF90ED2002176
:1045E00031617161B161F16185F806804FF4297024
:1045F000E864B1E340F2A220E864ADE30021316158
:1046000071617048C6E90610A6E328B92068F8620F
:104610006068386385F804806B480021C6E904109F
:10462000B161F1612068F96A081AFCF7B3F814F077
:1046300006FB00225B46FCF743F90BD36068396B3D
:10464000081AFCF7A7F814F0FAFA00225B46FCF708
:1046500037F9B4D20020306170610021B161F1619D
:1046600085F8068040F2A120E8640020287173E3F9
:104670004FF42870E8646FE328B92068F862606836
:10468000386385F8048050480021C6E90410B16100
:10469000F1612068F96A081AFCF77CF814F0CFFA87
:1046A00000225B46FCF70CF90BD36068396B081AE3
:1046B000FCF770F814F0C3FA00225B46FCF700F92F
:1046C00097D2002131617161B161F16100202871DF
:1046D000C7F83C904846FCF75DF814F0B0FA0022A9
:1046E0003B4BFCF7EDF803D24FF42670E86433E35C
:1046F00040F29920E8642FE3BAF1030F15D10129A4
:1047000013D04846FCF746F814F099FA0022304BD3
:10471000FCF7BEF812D20020306170610021B16157
:10472000F16140F29620E86416E300213161716185
:10473000B161F16140F2B720E8640DE3002030611F
:10474000706120480021C6E9061005E328B92068F9
:10475000F8626068386385F804801B480021C6E968
:104760000410B161F1612068F96A081AFCF712F8C7
:1047700014F065FA00225B46FCF7A2F80BD36068E0
:10478000396B081AFCF706F814F059FA00225B4658
:10479000FCF796F8ABD20020306170610021B16166
:1047A000F16128714FF42670E864D5E200804A4038
:1047B000000064407C0000200088B3400080564028
:1047C00000E0654000004EC000C072C00000144010
:1047D00000C06240FFE7BAF1030F11D101290FD0E9
:1047E000F86BA9EB0000FBF7D5FF14F028FA0022C4
:1047F000FE4BFCF765F807D240F29620E864ABE286
:104800004FF42E70E864A7E2002131617161F8482D
:10481000C6E90610A0E228B92068F862606838632B
:1048200085F80480F3480021C6E90410B161F16104
:104830002068F96A081AFBF7ADFF14F000FA0022AD
:104840005B46FCF73DF80BD36068396B081AFBF741
:10485000A1FF14F0F4F900225B46FCF731F8A4D272
:104860000020306170610021B161F161287140F276
:104870009920E86470E24846FBF78CFF8B460446BB
:1048800014F0DDF9DFF870A300225346FCF718F8A6
:1048900002D3B9F1000F18DD002131617161B161FE
:1048A000F161B9F1000F0ADD2046594614F0C7F94D
:1048B00000225346FCF704F801D285F80480C7F8BB
:1048C0003C9040F29B20E86446E240F29620E86487
:1048D00042E2012814D0F86BA9EB0000FBF75AFF65
:1048E00014F0ADF90022C54BFBF7EAFF1DD2002101
:1048F00031617161B161F16140F29620E8642BE2AF
:104900004846FBF747FF14F09AF90022BA4BFBF731
:10491000BFFF0AD200202871002131617161B161AD
:10492000F16140F29620E86416E2BAF1030F03D178
:10493000B3480078012802D14FF42770E8640021C1
:1049400031617161AF48C6E9061005E228B92068F7
:10495000F8626068386385F80480A6480021C6E9DB
:104960000410B161F1612068F96A081AFBF712FFBF
:1049700014F065F900225B46FBF7A2FF0BD36068D9
:10498000396B081AFBF706FF14F059F900225B4651
:10499000FBF796FF98D2002131617161B161F1613D
:1049A00000202871C7F83C904846FBF7F3FE14F04E
:1049B00046F90022904BFBF783FF03D24FF4267099
:1049C000E864C9E140F29920E864C5E1BAF1030F57
:1049D00016D1012914D04846FBF7DCFE14F02FF95C
:1049E0000022894BFBF754FF10D200213161716125
:1049F000B161F16185F806804FF42970E864ABE19C
:104A000040F2B920E86485F80680A5E10021316113
:104A100071617748C6E906109EE128B92068F862FE
:104A20006068386385F8048072480021C6E9041084
:104A3000B161F1612068F96A081AFBF7ABFE14F066
:104A4000FEF800225B46FBF73BFF0BD36068396B37
:104A5000081AFBF79FFE14F0F2F800225B46FBF702
:104A60002FFFAED2002131617161B161F16140F27D
:104A70009F20E864002028716EE10020E864012096
:104A8000009069E1002131617161B161F16160689B
:104A9000786240F2AD20E8645EE10022326172612A
:104AA000584A0020C6E90602B9F14B0F06DD002185
:104AB000B161F16140F2AF20E8644DE1BAF1030F5A
:104AC00001D1012902D140F2AE20E86444E128B9C5
:104AD0002068F8626068386385F8048045480021E2
:104AE000C6E90410B161F1612068F96A081AFBF7A0
:104AF00051FE14F0A4F800225B46FBF7E1FE0BD355
:104B00006068396B081AFBF745FE14F098F800222C
:104B10005B46FBF7D5FE09D2002131617161B161BD
:104B2000F1610020287140F2AD20E86414E13748BB
:104B30000021C6E90410B161F161BAF1020F1AD087
:104B4000BAF1000F17D0BAF1010F14D06068796A7A
:104B5000081AFBF71FFE14F072F800222C4BFBF72B
:104B6000AFFE07D2002131617161B161F1614FF493
:104B70002C70E864F0E00021316171614FF42C7019
:104B8000E864E9E00022326172611E48C6E906204D
:104B9000B9F1550F06DD0021B161F16140F2B2209B
:104BA000E864D9E0BAF1030F01D1012905D1002150
:104BB000B161F16140F2B120E864CDE028B920682C
:104BC000F8626068386385F804800A480021C6E905
:104BD0000410B161F1612068F96A081AFBF7DAFD87
:104BE00014F02DF800225B4614E0000000002E4077
:104BF00000004EC000C072C000C0624000003E40D5
:104C00007C00002000004E400000144000C07240B4
:104C100000805A40FBF754FE0BD36068396B081ACA
:104C2000FBF7B8FD14F00BF800225B46FBF748FEDB
:104C300009D2002131617161B161F16100202871F7
:104C40004FF42C70E86487E045480022C6E9042050
:104C5000B261F261BAF1030F16D1012914D0606874
:104C6000796A081AFBF796FD13F0E9FF00223D4B25
:104C7000FBF726FE70D2002131617161B161F161F3
:104C80004FF42D70E86467E000213161716140F2FA
:104C9000B320E86460E00020E864022000905BE05C
:104CA00000213161716130490020C6E906014846A2
:104CB000FBF770FD13F0C3FF00222C4BFBF700FE47
:104CC00009D20020306170610021B161F16140F2D0
:104CD000B620E86440E0BAF1030F3DD00021316115
:104CE00071610020B061F06140F2B520E86433E00A
:104CF00028B92068F8626068386385F804801C4829
:104D00000021C6E90410B161F1612068F96A081A4E
:104D1000FBF740FD13F093FF00225B46FBF7D0FD4D
:104D20000BD36068396B081AFBF734FD13F087FF6B
:104D300000225B46FBF7C4FD0ED200213161716198
:104D4000B161F161002028714FF42D70E86403E037
:104D50000020E864012000900098BDE8F88F000072
:104D600000C072400000644000004E4000E065401A
:104D700000C072C02DE9F05F04460E464FF0000AF5
:104D8000A068642190FBF1F7FA4DDFF8EC93284618
:104D9000EA6C4FF4A173007999F800104FF0000B02
:104DA0004FF001089A4278D02CDC40F2391EA2F272
:104DB000391C724572D017DCB2F59A7F6FD008DCCF
:104DC0002AB31CF108026DD0012A6AD0022A63D1ED
:104DD000ADE0A2F58072353A7ED0012A7DD0022A5C
:104DE0007CD0032AF3D104E3BCF1090F54D2DFE8ED
:104DF0001CF05300BB03110436048304AD04FB0410
:104E000021055102A2F24312122AEFD200E013E070
:104E1000DFE812F0CF019E02150532015C0193011B
:104E2000230549058105AB05C80518064306480654
:104E30007106A8061D03740338B9CE482168803076
:104E4000C1626168016385F80480CD48CB490022C6
:104E5000C0E904218261C261C64E20688036F16AD1
:104E6000081AFBF797FC13F0EAFEC64F00223B46F8
:104E7000FBF726FD0BD36068316B081AFBF78AFC41
:104E800013F0DDFE00223B46FBF71AFDAED240F2E6
:104E90003110E86485F804B017E222E20DE370E017
:104EA00000E03AE038B9B34821688030C1626168F7
:104EB000016385F80480B24EB0480021C6E90410B1
:104EC000B161F161A6F180012068C96A081AFBF797
:104ED00061FC13F0B4FE02E08CE097E03CE20022BB
:104EE000A94BFBF7EDFCD7D2002131617161B161B3
:104EF000F1613846FBF74EFC13F0A1FE0022A34BF4
:104F0000FBF7C6FC03D24FF49970E86402E040F26C
:104F10004510E86485F804B0BEE7994800220261B4
:104F200042618261C26140F23310E864B4E7944C9C
:104F30000021216161619648C4E906103846FBF7FB
:104F400029FC13F07CFE0022924BFBF7B9FC09D23E
:104F50000020206160610021A161E16140F2351013
:104F6000E86499E7032E03D199F80000012893D152
:104F7000002121616161A161E1614FF49A70E864EF
:104F80008AE738B97B4821688030C1626168016373
:104F900085F804807A4F79490020C7E9040100218F
:104FA000B961F961A7F180062068F16A081AFBF778
:104FB000F1FB13F044FEDFF8CC8100224346FBF7FF
:104FC0007FFC0BD36068316B081AFBF7E3FB13F02F
:104FD00036FE00224346FBF773FC9DD20020386169
:104FE00078610021B961F96185F804B040F23310AD
:104FF000E86451E75F488030C0F838B061684162CA
:10500000216801624FF49B70E86445E7594E2068BF
:105010008036F061B06B401CB06359495E4A002392
:10502000C1E9043200228A61CA61012820DD2068BA
:10503000316A081AFBF7AEFB13F001FE524F002253
:105040003B46FBF725FC13D26068716A081AFBF730
:10505000A1FB13F0F4FD00223B46FBF719FC07D23D
:10506000C6F838B0606870624FF4A370E86413E764
:1050700040F24310E8640FE7414C00212161616177
:1050800043490020C4E906013846FBF783FB13F0CF
:10509000D6FD00223D4BFBF713FC08D20021216115
:1050A0006161A161E1614FF4A470E864F4E6032E4C
:1050B00003D199F8000001289BD100212161616191
:1050C000A161E16140F24710E864E5E638B929489A
:1050D00021688030C1626168016385F80480284ED0
:1050E00026490020C6E90401B061F061A6F18007FD
:1050F0002068F96A081AFBF74DFB13F0A0FDDFF8F2
:10510000848000224346FBF7DBFB0BD36068396BDE
:10511000081AFBF73FFB13F092FD00224346FBF712
:10512000CFFBA4D2002131617161B161F16185F8D9
:1051300004B04FF4A370E864C7E01148164A002396
:10514000C0E904328361C361032E29D1012927D02C
:10515000084960688031496A081AFBF71BFB13F0A5
:105160006EFD00220D4BFBF7ABFB84D240F23F10EB
:10517000E864AAE0880000207C00002000C072C023
:105180008801002000002440000034400080564088
:1051900000004EC000003E4000C07240000054407D
:1051A00000220261426140F237206864C5F84CB0C9
:1051B0008BE096B1DFF808B42068DBF81C10081A01
:1051C000FBF7E8FA13F03BFD0022FE4BFBF778FB00
:1051D00007D24FF49D70E86477E040F23710E8643E
:1051E00073E06068DBF82410081AFBF7D3FA13F0B9
:1051F00026FD0022F44BFBF763FB03D240F2411083
:10520000E86462E0022E18D0012E16D099F8000052
:10521000012812D06068DBF82410401E884213DD9C
:10522000E74800228030026142618261C26185F8F4
:1052300007804FF4A270E86447E06068CBF8240070
:105240004FF4A370E86440E02068FBF7A3FA13F082
:10525000F6FC0022DD4BFBF733FB03D24FF4A070CA
:10526000E86432E03846FBF795FA13F0E8FC0022D8
:10527000D74BFBF725FB03D24FF4A070E86424E082
:10528000CF480021D34A8030C0E904120022826155
:10529000C2611AE0032E19D1012917D03846FBF755
:1052A00079FA13F0CCFC0022CB4BFBF709FB0FD2B1
:1052B000C348002180300161416100228261C261E6
:1052C00085F806804FF4A270E8640FE2EB640DE20B
:1052D000BB480022803002614261C049C0E906211A
:1052E00004E230B9B6482168C1626168016385F89B
:1052F0000480B34E0021BA488036C6E90410B1617B
:10530000F161AF4F2068F96A081AFBF743FA13F00E
:1053100096FCDFF8D08200224346FBF7D1FA0BD38C
:105320006068396B081AFBF735FA13F088FC002225
:105330004346FBF7C5FA86D2002131617161002036
:10534000B061F06140F24110E86485F804B0CDE14D
:105350004FF4A070E864C9E130B999482168C1628E
:105360006168016385F80480DFF854829C4908F184
:1053700080080020C8E90401C8F81800C8F81C001B
:105380008F4E2068F16A081AFBF704FA13F057FCF5
:10539000DFF8509200224B46FBF792FA0BD360687D
:1053A000316B081AFBF7F6F913F049FC00224B4663
:1053B000FBF786FA89D20021C8F81010C8F814103B
:1053C000C8F81810C8F81C1085F804B03846FBF768
:1053D000E1F913F034FC0022834BFBF759FA03D2B6
:1053E0004FF49C70E864C1E3F76340F23910E8645D
:1053F000BCE3032E16D1012914D03846FBF7CAF9B5
:1054000013F01DFC0022784BFBF75AFA16D26C48B9
:1054100000228030026142618261C2614FF49B7060
:10542000E864A3E366480021803001614161002205
:105430008261C26140F25310E86497E36048002241
:105440008030026142616549C0E906218EE330B9CE
:105450005B482168C1626168016385F80480584E29
:1054600000215F488036C6E90410B161F161544FF4
:105470002068F96A081AFBF78DF913F0E0FBDFF8F2
:10548000648100224346FBF71BFA0BD36068396B3B
:10549000081AFBF77FF913F0D2FB00224346FBF713
:1054A0000FFAA0D2002131617161B161F1614FF455
:1054B0009C70E86485F804B058E3032E11D10129EB
:1054C0000FD03F48C06B381AFBF764F913F0B7FBF5
:1054D0000022454BFBF7F4F907D24FF49B70E864C8
:1054E00044E34FF4AA70E86440E33548002280307A
:1054F000026142613949C0E9062137E330B93048D9
:105500002168C1626168016385F804802C4E002126
:1055100033488036C6E90410B161F161284F206834
:10552000F96A081AFBF736F913F089FBDFF8B48043
:1055300000224346FBF7C4F90BD36068396B081AA5
:10554000FBF728F913F07BFB00224346FBF7B8F981
:10555000B2D2002131617161B161F16140F2391063
:10556000E86485F804B001E33846FBF713F90E460A
:10557000044613F064FBDFF8748000224346FBF717
:1055800087F90CD20E4800228030026142618261AC
:10559000C2618038C76340F23B10E864E6E220460F
:1055A000314613F04CFB00224346FBF789F927D222
:1055B000002F25DA0248002280300261426117E0A4
:1055C0000801002000804A40000064400088B34089
:1055D0000080564000C0724000E0654000004EC0B0
:1055E00000C072C00000244000002E4000003E4079
:1055F0008261C2618038C76340F23D10E864B5E261
:10560000FE480022026142618261C2614FF49B70D8
:10561000E864ABE23846FBF7BDF813F010FB00225C
:10562000F74BFBF74DF909D2F448002202614261C1
:105630008261C2614FF49B70E86497E2032E03D14C
:1056400099F80000012802D14FF49E70E864EB48FD
:10565000002202614261EB49C0E9062186E238B9C5
:10566000E64821688038C1626168016385F804807A
:10567000DFF88883E4480021C8E90410C8F818104E
:10568000C8F81C10A8F180062068F16A081AFBF718
:1056900081F813F0D4FADFF8749300224B46FBF73D
:1056A0000FF90BD36068316B081AFBF773F813F02E
:1056B000C6FA00224B46FBF703F9A0D20021C8F836
:1056C0001010C8F81410C8F81810C8F81C1085F885
:1056D00004B03846FBF75EF813F0B1FA0022CC4B69
:1056E000FBF7D6F803D24FF49C70E8643EE2F76310
:1056F00040F23910E86439E2C0488038C06B381A8B
:10570000FBF748F813F09BFA0022BD4BFBF7D8F8E3
:105710000AD2BA4800210161416100228261C2615E
:105720004FF49B70E86421E2032E03D199F8000046
:10573000012802D14FF49F70E864B0480021016154
:105740004161B0490022C0E906210FE238B9AB48F7
:1057500021688038C1626168016385F80480DFF8E0
:105760009C82A9480021C8E90410C8F81810C8F89C
:105770001C10A8F180062068F16A081AFBF70AF8E5
:1057800013F05DFADFF8849200224B46FBF798F89D
:105790000BD36068316B081AFAF7FCFF13F04FFA6D
:1057A00000224B46FBF78CF8A0D20020C8F810006E
:1057B000C8F814000021C8F81810C8F81C1085F8A3
:1057C00004B03846FAF7E6FF13F039FA0022904B9E
:1057D000FBF75EF803D24FF49C70E864C6E1F76310
:1057E00040F23910E864C1E1032E17D1012915D028
:1057F0003846FAF7CFFF13F022FA0022854BFBF769
:105800005FF80FD27D480022026142618261C2616D
:1058100085F806804FF4A270E864A7E1EB6485F890
:105820000680A3E175480022026142617A49C0E91D
:1058300006219BE1C5F84CB04FF0010A96E16F4894
:105840000022026142618261C2616C4960688039F4
:10585000486240F24910E86488E1684C0020206109
:10586000606168480021C4E906103846FAF792FFE3
:1058700013F0E5F90022694BFBF70AF809D2002082
:10588000206160610021A161E16140F24B10E86498
:105890006CE1032E03D199F8000001289ED14FF44A
:1058A000A570E86462E138B9544821688038C16263
:1058B0006168016385F80480504E53480021C6E9B1
:1058C00004100020B061F061A6F180072068F96A39
:1058D000081AFAF75FFF13F0B2F9DFF830810022FF
:1058E0004346FAF7EDFF0BD36068396B081AFAF7F5
:1058F00051FF13F0A4F900224346FAF7E1FF09D261
:10590000002030617061B061F06185F804B040F250
:105910004910E8642AE1394F414A0020C7E90402EE
:105920000022BA61FA61032E18D1012916D0A7F11D
:1059300080016068496A081AFAF72CFF13F07FF9B2
:105940000022384BFAF7BCFF07D200213961796198
:10595000B961F9614FF4A670E86407E1002139618B
:1059600079614FF4A670E86400E1244800220261E6
:105970004261244A0023C0E9063217F15D0F06DDBB
:1059800000228261C2614FF4A770E864EEE0032E4A
:1059900001D1012905D100228261C26140F24D107E
:1059A000E864E3E038B9154821688038C16261686D
:1059B000016385F80480114E13480021C6E90410E4
:1059C0000020B061F061A6F180072068F96A081A2A
:1059D000FAF7E0FE13F033F9DFF830800022434697
:1059E000FAF76EFF23D36068396B081AFAF7D2FE14
:1059F00013F025F90022434616E00000880100203C
:105A000000003E4000004E4000C072C00000244034
:105A100000002E4000E0654000004EC000405A40AB
:105A200000C0724000805A40FAF74AFF09D20021B4
:105A300031617161B161F16185F804B04FF4A67014
:105A4000E86493E04C4F4B4A0020C7E9040200226F
:105A5000BA61FA61032E19D1012917D0A7F180018B
:105A60006068496A081AFAF795FE13F0E8F8002210
:105A7000424BFAF725FF79D2002139617961002084
:105A8000B861F8614FF4A870E8646FE000213961F3
:105A9000796140F24F10E86468E0C5F84CB04FF00F
:105AA000020A63E0344C0021216161613448C4E999
:105AB00006103846FAF76EFE13F0C1F80022314B9B
:105AC000FAF7E6FE08D2002121616161A161E1617E
:105AD0004FF4A970E86449E0032E03D199F800005F
