:020000040800F2
:1000000090D90020E9010008ED1C010865C800082E
:10001000351B0108E92E0008418F0108000000008F
:100020000000000000000000000000004501000882
:10003000FDA300080000000089010008818001087C
:10004000030200080302000803020008030200087C
:10005000030200080302000803020008030200086C
:1000600003020008A5A80008030200080302000814
:10007000030200080302000803020008030200084C
:10008000030200080302000803020008030200083C
:10009000030200080302000803020008CDA80008BC
:1000A000030200080302000803020008030200081C
:1000B00003020008D98201080302000803020008B5
:1000C00003020008030200080302000803020008FC
:1000D0000302000803020008758A0108818A0108EA
:1000E00079A80008030200080302000803020008C0
:1000F00003020008030200080302000803020008CC
:1001000003020008030200087583010803020008C7
:1001100003020008698A01080D840108030200082F
:10012000030200080302000803020008030200089B
:10013000DFF80CD000F0A4FD00480047252F02088E
:1001400090D90020204B19680868B0E8F00F80F3C0
:100150000988BFF36F8F4FF0000080F311884EF0D5
:100160000D0E70470000000006480068006880F32C
:10017000088862B661B6BFF34F8FBFF36F8F00DFA1
:1001800000BF00BF08ED00E0EFF30980BFF36F8F01
:100190000D4B1A6820E9F00F106008B54FF0F00021
:1001A00080F3118824F07AFF4FF0000080F311886B
:1001B000BDE8084019680868B0E8F00F80F30988C6
:1001C000BFF36F8F704700BF84020020EFF31180F0
:1001D0004FF0F00181F31188704780F31188704768
:1001E000EFF3058070470000064880470648004747
:1001F000FEE7FEE7FEE7FEE7FEE7FEE7FEE7FEE7D7
:10020000FEE7FEE7A5800108310100080649074A1C
:100210000868504343F239021044086040087047B0
:100220000149086070470000240300206D4EC6415C
:1002300040EA01039B0703D009E008C9121F08C068
:10024000042AFAD203E011F8013B00F8013B521EE8
:10025000F9D27047D2B201E000F8012B491EFBD25F
:1002600070470022F6E710B513460A4604461946C1
:10027000FFF7F0FF204610BD30B5044600200346CE
:1002800000E05B1C934203D2E05CCD5C401BF8D0E5
:1002900030BD034611F8012B00F8012B002AF9D1DB
:1002A00018467047F0B480EA0102D40F4200B2EB66
:1002B000410F02D20246084611464A0042D0C30D01
:1002C000DDB2C1F3C752AD1A202D35DAC1F31601E4
:1002D00041F4000204B15242C5F1200602FA06F1CF
:1002E0002A411044B3EBD05F23D0C4B1012DA0EB61
:1002F000C35009DCF0BC4FF0004202EAC352DBB24B
:1003000000F5000000F0C7BB400000F1807000EB7A
:10031000C350A0F1807040EAD170490009E049085B
:1003200041EAC071A0EBC35000F50000400800EBAB
:10033000C350F0BC00F0A6BB6142012202EB4101B8
:10034000001BF6E7F0BC704781F00041AAE780F09F
:100350000040A7E780EA010210B502F00043400028
:1003600022D04A001FD0010E01EB1261C0F35600EB
:10037000C2F3560240F4000042F40002A0FB022047
:1003800000047F39140400D0401C50EA124001D40C
:100390004000491EC2B20C0604EBD010401C4008BD
:1003A000802A02D003E0002010BD20F001000029C7
:1003B00000DA0020184310BD30B480EA010202F0D8
:1003C000004530F0004221F0004013D090B1C30D41
:1003D000D40DC2F31601C0F31600E41A41F4000173
:1003E00040F400027D34914201D3641C00E04900D6
:1003F000002C02DA30BC002070474FF400000023CC
:10040000914201D3891A034340084FEA4101F7D1D1
:1004100051B1914202D14FF0004105E002D24FF0BC
:10042000010101E06FF0010103EBC450284430BC2E
:1004300000F028BB420005D0C0F3C752524291429F
:1004400001DC0020704700EBC15070472DE9FE4FE2
:10045000804681EA0300C00F0C46009021F0004165
:1004600023F00045B8EB0200A94105D240462146E1
:1004700090461C460B46024623F00040104347D0EE
:10048000270DC7F30A00C3F30A510290401A0190E6
:1004900040286BDAC3F3130040F4801B00989246A7
:1004A00020B10023D2EB030A63EB0B0B01985946F2
:1004B000C0F14002504600F0B4FA06460D465046E0
:1004C0005946019A00F0CCFA10EB08006141002473
:1004D00087EA115284EAE7731A4340D0009A62B364
:1004E000019A012A4FEA075215DC001B61EB020159
:1004F0004FF0004202EA0752CDE90042001C41F5EC
:10050000801132462B4600F003FB03B0BDE8F08FAC
:1005100040462146F9E7001B61EB0201001C41F552
:10052000801300185B412018A2F5001747EB030168
:1005300040EAD570B6196D4111E06D084FEA3606F4
:1005400045EAC0754FEA0752001B61EB0201001C2F
:1005500041F5801149084FEA3000001951413246F7
:100560002B4603B0BDE8F04F00F0C3BA009801225B
:1005700040000023D0EB020263EBE07300982146B9
:100580004FEAE074B8EB000061EB0401E9E783F0A7
:1005900000435BE781F0004158E72DE9FE4F81EA17
:1005A000030404F0004421F0004100944FF0000BDC
:1005B00023F0004350EA01045ED052EA03045BD00A
:1005C000C3F30A54C1F30A552C44A4F2F334019442
:1005D000A0FB0254C1F3130141F48011C3F31303D0
:1005E00043F4801301FB024400FB034E840A970A84
:1005F00044EA815447EA8357A4FB076802958D0AB1
:1006000005FB07854FEA932C04FB0C542705029D3C
:100610004FEA065847EA1637B5EB08056EEB070CAC
:10062000870E920E47EA811742EA8312A7FB020166
:10063000B6EB0B0164EB00042B0D43EA0C335E18A0
:1006400044EB1C50DA465146E7FB0201C5F31304A4
:100650004FEA0B3343EA14534FEA0432019C43EA56
:100660000603A4F10C040294009CCDE900B400F050
:100670004FFA03B0BDE8F08F00200146F9E72DE9FD
:10068000F04D81EA030404F0004B21F000451446CC
:100690004FF0000A23F0004150EA050220D054EA4E
:1006A00001021DD0C5F30A570246C5F31303C1F377
:1006B0001300C1F30A5640F4801543F48013A7EBEE
:1006C0000608101BD64608F2FD3873EB050002D36E
:1006D00008F1010801E092185B41B8F1000F03DA5C
:1006E00000200146BDE8F08D00204FF48011064641
:1006F00084460EE0171B73EB050705D3121B63EB53
:10070000050306434CEA010C49084FEA30009218F1
:100710005B4150EA0107EDD152EA030012D082EAB0
:10072000040083EA0501084305D0101BAB4106D243
:100730000122002306E000224FF0004302E06FF0A8
:10074000010253101AEB06004CEB085110EB0A00A3
:1007500041EB0B01BDE8F04D00F0CBB970B521F0D5
:10076000004303430CD0C1F30A550024D5EB040524
:1007700064EB0403D617AD1AB34102DB0020014637
:1007800070BD201841EB025170BDC10F80EAE070CE
:100790000844CA079623002100F07DB99623002261
:1007A000114600F078B90EB5C10F80EAE070084438
:1007B000CA07002140F233438DE80E000A460B467B
:1007C00000F0A6F903B000BD0EB540F2334102912E
:1007D0000021CDE900110A460B4600F099F903B05B
:1007E00000BD00F0004220F00040C10DC0F3160033
:1007F00040F400007F2901DA00207047962903DCCD
:10080000C1F19601C84001E096398840002AF4D031
:100810004042704720F00040C10DC0F3160040F484
:1008200000007F2901DA00207047962903DCC1F11E
:100830009601C840704796398840704770B5C1F33B
:100840000A5201F000450024C1F3130140F2FF33C6
:1008500041F480119A4201DA002070BD40F2334326
:100860009A42A2F2334203DC524200F0E9F800E07F
:1008700090402C43F1D0404270BDC1F30A5210B5F4
:10088000C1F3130140F2FF3341F480119A4201DABF
:10089000002010BD40F233439A42A2F2334203DCFF
:1008A000524200F0CDF810BD904010BD00F0004263
:1008B00030F000400AD0C10D01F56071C0F31600A0
:1008C00042EA0151C2084007114370470020014627
:1008D0007047000030B5041E71F1000404DB4FF0D6
:1008E0000044404264EB0101141E73F1000405DB77
:1008F0001C464FF00043524263EB04038B4208BF97
:10090000824230BD30B5041E71F1000404DB4FF0AB
:100910000044404264EB0101141E73F1000405DB46
:100920001C464FF00043524263EB0403994208BF58
:10093000904230BD01F0004330B421F0004150EA54
:10094000010206D00A0DA2F56072C1F31301002A5C
:1009500002DC30BC00207047440F44EAC104C100EF
:10096000E01830BC00EBC25000F08CB8002801DB6E
:10097000C0F10040002901DBC1F100418142704714
:10098000002801DBC0F10040002901DBC1F100417A
:100990008842704730B50B460146002020220124D2
:1009A00009E021FA02F59D4205D303FA02F5491B3D
:1009B00004FA02F52844151EA2F10102F1DC30BD53
:1009C0002DE9F05F0546002092469B468846064684
:1009D000814640241BE0284641464746224600F017
:1009E0002FF853465A46C01A914110D31146184663
:1009F000224600F016F82D1A67EB01084F462246F2
:100A00000120002100F00DF817EB00094E41201ED7
:100A1000A4F10104DFDC484631462A464346BDE8DE
:100A2000F09F202A04DB203A00FA02F100207047F0
:100A30009140C2F1200320FA03F31943904070471C
:100A4000202A04DB203A21FA02F00021704721FA23
:100A500002F3D040C2F1200291400843194670478A
:100A6000202A06DBCB17203A41FA02F043EAE07372
:100A700006E041FA02F3D040C2F12002914008435F
:100A8000194670470029A8BF7047401C490008BF9D
:100A900020F00100704710B4B0FA80FC00FA0CF0AE
:100AA00050EA010404BF10BC704749B1CCF12004E6
:100AB00021FA04F411FA0CF118BF01212143084373
:100AC000A3EB0C01CB1D4FEA00614FEA102042BF9F
:100AD000002010BC704700EBC35010440029A4BF95
:100AE00010BC7047401C490008BF20F0010010BC3A
:100AF000704710B5141E73F1000408DA401C41F170
:100B0000000192185B411A4301D120F0010010BD91
:100B10002DE9F04D92469B4611B1B1FA81F202E007
:100B2000B0FA80F220329046FFF77BFF04460F4672
:100B300040EA0A0041EA0B0153465A46084313D0E3
:100B4000114653EA010019D0C8F140025046FFF7A0
:100B500077FF05460E46504659464246FFF761FF6D
:100B6000084305D0012004E020463946BDE8F08D59
:100B70000020054346EAE0762C4337430A98630594
:100B8000E40AA0EB08000022FD0A44EA47540A30B8
:100B900002D500200146E9E7010510196941DDE9A8
:100BA000084500196941BDE8F04DA2E72DE9F04D77
:100BB00000231A461B1A8A4103DB00200146BDE8C8
:100BC000F08DC1F30A52C1F3130141F480154FF0C7
:100BD000000BD10702D100186D41521E00270446B8
:100BE00040F2FF11384601EB620A3E46804602465B
:100BF00000204FF48011FFF723FFC2197141BB1889
:100C000046EB0100B4EB030C75EB000C04D3E41AC3
:100C100065EB000517460E46241908F101006D41E9
:100C200080463428E3DDF91946EB0600091BA8418C
:100C300003D24FF0FF32134601E0002213461BEBB4
:100C4000070046EB0A51BDE8F04DFFF752BFC1F374
:100C50000A52C1F3130140F2FF3341F480119A426A
:100C600002DA00200146704740F233439A42A2F272
:100C7000334202DC5242FFF7E3BEFFF7D2BE000070
:100C8000064C074D06E0E06840F0010394E80700D9
:100C900098471034AC42F6D3FFF74EFA205D0208B5
:100CA000405D020870B58C1810F8015B15F0070361
:100CB00001D110F8013B2A1106D110F8012B03E0F5
:100CC00010F8016B01F8016B5B1EF9D12B0705D4FD
:100CD0000023521E0DD401F8013BFAE710F8013B46
:100CE000CB1A921C03E013F8015B01F8015B521E62
:100CF000F9D5A142D8D3002070BD002904D0816865
:100D000041F0010181607047816821F0010181603B
:100D10007047000010B5154988420AD144150121D9
:100D2000204611F0B5F82046BDE81040002111F032
:100D3000AFB80F4988420AD104150121204611F0AD
:100D4000A7F82046BDE81040002111F0A1B80949DC
:100D500088420AD10121CC03204611F099F820469F
:100D6000BDE81040002111F093B810BD00240140EF
:100D700000280140003C01400146002089684907E5
:100D800000D501207047C06C80B270470246002039
:100D900012680A4200D0012070470146002089688D
:100DA000090700D50120704710B542680E4B1A4064
:100DB0000C790B6842EA04221343436082680B4BB0
:100DC0001A40D1E9024323434C7942EA44021343D7
:100DD0008360C26A22F47002097C491EC9B242EAE9
:100DE0000151C16210BD0000FFFEF0FFFDF7F1FFF1
:100DF00070B5072609290AD9C568A1F10A0404EBD0
:100E00004404A640B543A3401D43C56007E00569FF
:100E100001EB4104A640B543A3401D4305611F23D8
:100E2000072A09D2446B521E02EB820293409C4374
:100E300091400C43446370BD0D2A09D2046BD21F4C
:100E400002EB820293409C4391400C43046370BDCB
:100E5000C46A0D3A02EB820293409C4391400C43DA
:100E6000C46270BD816841F008018160704700294B
:100E700004D0816841F4A00181607047816821F449
:100E8000A00181607047816841F004018160704772
:100E90002DE9F84F04468B460027A068642190FB9B
:100EA000F1F6DFF848A400255046BAF95CC00122EB
:100EB000C17900F5807900F18008BCF1870F7AD004
:100EC00017DCBCF1830F7BD009DCBCF1000F25D00F
:100ED000BCF1810F71D0BCF1820F22D122E0BCF1B4
:100EE000840F6BD0BCF1850F7DD0BCF1860FF4D19F
:100EF000C4E0FF48ACF1880CBCF1070F0378FB4855
:100F0000007D00F1010E0EF0FF0ECDF800E008D2DA
:100F1000DFE80CF0F2F1F3EFEEEDEC008220AAF83E
:100F20005C0059E39AF8250028B1D9F80400D8F8F4
:100F30007810401A60609AF8020060B1D9F8000099
:100F40002060D9F80410D8F87420801A2060D8F8EE
:100F50007800081A60602068FFF725FC22F0ABF8E3
:100F6000E44D00222B46FFF7CDFC09D36068FFF764
:100F70001AFC22F0A0F800222B46FFF7C3FC0CD28B
:100F80000021C9F81810C9F81C10C9F82010C9F8B8
:100F900024108320AAF85C001EE30021C9F8181071
:100FA000C9F81C10C9F82010C9F8241002278120A4
:100FB000AAF85C0010E340E102E0FFE2EFE212E099
:100FC000BBF1000F09D0BBF1010F09D002208AF854
:100FD00015008520AAF85C00FEE28AF81550F8E7B3
:100FE0008AF81520F5E7DFF810B339B92068C8F89A
:100FF00034006068C8F838008AF80720BF4800212C
:10100000C9E90610C9F82010C9F824102068D8F8DA
:101010003410081AFFF7C7FB22F04DF800225B4698
:10102000FFF770FC0CD36068D8F83810081AFFF787
:10103000BAFB22F040F800225B46FFF763FCABD21C
:101040000021C9F81810C9F81C10C9F82010C9F8F7
:1010500024108AF80750C8F844609AF8150028B19F
:10106000012807D08820AAF85C00B5E28620AAF8FB
:101070005C00B1E28720AAF85C00ADE2D8F8440039
:10108000801BFFF790FB22F016F800229C4BFFF725
:1010900039FC0DD20020C9F81800C9F81C00002145
:1010A000C9F82010C9F824108920AAF85C0093E23E
:1010B000BBF1030F0DD18E480078012809D0002024
:1010C000C9F81800C9F81C008E480021C9E90810A9
:1010D00082E20021C9F81810C9F81C10C9F82010C4
:1010E000C9F824108A20AAF85C0075E2C1E1FBE18E
:1010F000DBE02AE101E03CE082E139B92068C8F890
:1011000034006068C8F838008AF807207B4800215E
:10111000C9E90610C9F82010C9F824102068D8F8C9
:101120003410081AFFF73FFB21F0C5FF764E00226E
:101130003346FFF7E7FB0CD36068D8F83810081A7D
:10114000FFF731FB21F0B7FF00223346FFF7DAFB50
:101150008BD20021C9F81810C9F81C100020C9F85A
:101160002000C9F824008AF807508620AAF85C00FD
:1011700032E239B92168C8F834106168C8F838100B
:101180008AF80720BBF1030F12D1012B10D00428DD
:1011900020D90021C9F81810C9F81C10C9F820106E
:1011A000C9F824108AF807508420AAF85C0013E2DA
:1011B0000021C9F81810C9F81C10C9F82010C9F886
:1011C00024108AF8075000988AF814008520AAF89D
:1011D0005C0001E22068D8F83410081AFFF7E3FA3F
:1011E00021F069FF434E00223346FFF78BFB0CD3FF
:1011F0006068D8F83810081AFFF7D5FA21F05BFFBD
:1012000000223346FFF77EFB0DD20021C9F81810EB
:10121000C9F81C10C9F82010C9F824108AF8075022
:101220008120AAF85C0039490020C9E906010021A3
:10123000C9F82010C9F82410CEE1D8F84400801B6A
:10124000FFF7B1FA21F037FF00222D4BFFF75AFBD1
:101250000DD20020C9F81800C9F81C000021C9F8F7
:101260002010C9F824108B20AAF85C00B4E1BBF16F
:10127000030F0DD11E480078012809D00020C9F8BD
:101280001800C9F81C0022480021C9E90810A3E190
:101290000021C9F81810C9F81C10C9F82010C9F8A5
:1012A00024108C20AAF85C0096E139B92068C8F8AF
:1012B00034006068C8F838008AF807200F49002019
:1012C000C9E90601C9F82000C9F824002068D8F847
:1012D0003410081AFFF767FA21F0EDFE0A4E0022DB
:1012E0003346FFF70FFB21D3606813E0B000002006
:1012F000A8000020000079400000344000406FC08A
:1013000000804640000049C00000244000406F407B
:1013100000004940D8F83810081AFFF744FA21F0C5
:10132000CAFE00223346FFF7EDFA85D20020C9F845
:101330001800C9F81C00C9F82000C9F824008AF870
:1013400007508720AAF85C0046E139B92168C8F83F
:1013500034106168C8F838108AF80720A0490022C4
:10136000C9E90621C9F82020C9F82420BBF1030FE0
:101370000ED1012B0CD0042818D90021C9F818105F
:10138000C9F81C108AF807508420AAF85C0023E1F1
:101390000021C9F81810C9F81C108AF807500098E5
:1013A0008AF814008520AAF85C0015E12068D8F8B6
:1013B0003410081AFFF7F7F921F07DFE894E00225C
:1013C0003346FFF79FFA0CD36068D8F83810081A34
:1013D000FFF7E9F921F06FFE00223346FFF792FA9A
:1013E0000DD20020C9F81800C9F81C00C9F8200067
:1013F000C9F824008AF807508120AAF85C00EBE0C5
:10140000D8F84400801BFFF7CEF921F054FE0022EB
:10141000754BFFF777FA0DD20020C9F81800C9F80C
:101420001C000021C9F82010C9F824108D20AAF84A
:101430005C00D1E0BBF1030F0DD16C4800780128AE
:1014400009D00021C9F81810C9F81C1068490020FB
:10145000C9E90801C0E00021C9F81810C9F81C103A
:101460000020C9F82000C9F824008E20AAF85C00EA
:10147000B2E039B92068C8F834006068C8F83800AC
:101480008AF807205B480021C9E90610C9F8201036
:10149000C9F824102068D8F83410081AFFF783F927
:1014A00021F009FE544E00223346FFF72BFA0CD3ED
:1014B0006068D8F83810081AFFF775F921F0FBFDBD
:1014C00000223346FFF71EFA0DD20021C9F818108A
:1014D000C9F81C10C9F82010C9F824108AF8075060
:1014E0008820AAF85C0077E039B92168C8F8341080
:1014F0006168C8F838108AF8072039490022C9E91C
:101500000621C9F82020C9F82420BBF1030F0ED111
:10151000012B0CD0032818D90021C9F81810C9F8DC
:101520001C108AF807508420AAF85C0054E00021BF
:10153000C9F81810C9F81C108AF8075000988AF8E2
:1015400014008520AAF85C0046E02068D8F8341022
:10155000081AFFF728F921F0AEFD224E002233468B
:10156000FFF7D0F90CD36068D8F83810081AFFF7E5
:101570001AF921F0A0FD00223346FFF7C3F92BD260
:101580000021C9F81810C9F81C10C9F82010C9F8B2
:1015900024108AF807508120AAF85C001CE0002182
:1015A000C9F81810C9F81C10C9F82010C9F824107F
:1015B000AAF85C508AF8145001270DE00021C9F800
:1015C0001810C9F81C10C9F82010C9F82410AAF87E
:1015D0005C508AF8145001273846BDE8F88F0000A7
:1015E00000406F400000794000004E40A8000020FD
:1015F0000000494000406FC0000024402DE9F05F2A
:1016000081460F464FF00008D9F80800642190FB8E
:10161000F1FBFB4CFB480121B4F9582090F800C0C5
:101620002046DFF8E4A3C07904F5807504F1800654
:101630005B2A7DD037DC4FF045034F2A79D027DC79
:10164000DFF8C8A3F24F492A74D013DC20464FF0CC
:10165000780790F825C081782846412A00686AD02A
:1016600003DC22B3402A44D144E0452A7DD0482AF5
:10167000F9D120E14A3AE74DDFF89C93E74F052A7C
:1016800037D2DFE812F04B0339041605F905E106FD
:10169000503A0B2AF4D2DFE802F0F1F0EFEEEDEC75
:1016A000EBEAE9E8E7005D3A1C2AE9D200E01DE038
:1016B000DFE812F08703EF034B04A5041F00720458
:1016C000CC04270580051F004E05A3050B066A06FE
:1016D0001F0037069706F6064F071F001C07750701
:1016E000D1073B081F00F707620895084020A4F8BF
:1016F000580050E3BCF1000F04D06A68B36FD21AEF
:10170000C9F80420DFF818A351B1C9F800006968CE
:10171000726F801AC9F80000B06F081AC9F8040087
:10172000D9F80000FFF73FF821F0C5FC002203E0E4
:101730007BE3F1E3E7E11CE05346FFF7E3F80AD36C
:10174000D9F80400FFF72FF821F0B5FC002253462A
:10175000FFF7D8F80AD24120A4F85800B148002178
:10176000C5E9061029626962C3E71EE0A4F8587053
:10177000BFE7E07B50B1AB480021C5E90610296204
:10178000696200206074A4F85830B2E7607C401CA5
:10179000C0B26074042802D94FF0040801E04FF091
:1017A00003080020A4F85800A3E7BCF1000F04D000
:1017B0006A68B36FD21AC9F80420DFF86CA251B17D
:1017C000C9F800006968726F801AC9F80000B06F2C
:1017D000081AC9F80400D9F80000FEF7E4FF21F068
:1017E0006AFC00225346FFF775F80AD2D9F80400C4
:1017F000FEF7D9FF21F05FFC00225346FFF76AF89D
:1018000003D3217CE07B814202D3A4F8587070E7B7
:101810002D2808D90020A4F858004FF002082074A1
:10182000E073607465E78148405C612818D06228E5
:1018300025D0632827D0642829D065282BD0662896
:101840002DD067282FD0682831D0A4F8587075485B
:101850000022C5E906202A626A62491C217448E711
:101860004820A4F85800F2E784E2FDE1A0E12EE26E
:10187000D1E171E1EEE071E01FE1A2E047E0492033
:10188000A4F85800E3E74A20A4F85800DFE74B200B
:10189000A4F85800DBE74C20A4F85800D7E74D2007
:1018A000A4F85800D3E74E20A4F85800CFE74F2003
:1018B000A4F85800CBE75846FEF775FF0F460546DB
:1018C00021F0F9FB00225346FFF704F803D9ABF1EE
:1018D0002E00542803D25020A4F8580009E72846C7
:1018E000394621F0E8FB0022514BFFF70BF804D3F7
:1018F0000BF18C0BBBF15F0F03D25120A4F8580001
:10190000F7E6B08870815220A4F85800F1E6ABF1F8
:10191000850BBBF1050F0CD242490020C5E9060139
:10192000002129626962B08870815220A4F85800B1
:10193000DFE6032F09D1BCF1010F06D00021A96118
:10194000E9613C48C5E90810D3E60021A961E961D5
:10195000296269625320A4F85800CAE630B9D9F860
:1019600000007063D9F80400B063E17132480021CF
:10197000C5E9061029626962D9F80000716B081A7E
:10198000FEF711FF21F097FB00225346FEF7BAFF46
:101990000CD3D9F80400B16B081AFEF704FF21F04C
:1019A0008AFB00225346FEF7ADFF97D20021A961C2
:1019B000E961296269620020E0715020A4F85800B2
:1019C00097E6ABF1850BBBF1050F0CD21548002152
:1019D000C5E90610002028626862B0887081522034
:1019E000A4F8580085E6032F2AD1BCF1010F27D0B7
:1019F0000021A961E9611148C5E9081079E60000F4
:101A0000B0000020A80000200000244000804640D4
:101A100000E0654000E060400000444000001440E9
:101A20000000794000406F4000C08240496F0020B4
:101A3000008061400000494000406FC0000049C084
:101A40000020A861E8610021296269625420A4F89D
:101A500058004EE630B9D9F800007063D9F8040098
:101A6000B063E171F9480021C5E906102962696295
:101A7000D9F80000716B081AFEF795FE21F01BFBE8
:101A800000225346FEF73EFF0CD3D9F80400B16B99
:101A9000081AFEF788FE21F00EFB00225346FEF7DF
:101AA00031FF8DD20021A961E961296269620020BC
:101AB000E0715120A4F858001BE6032F0DD1BCF1B2
:101AC000010F0AD0B6F90400B6F90A10401AB0F5B1
:101AD000846F10DBA4F858300BE60020A861E861A1
:101AE000002129626962A4F858004FF002082074AE
:101AF000E0736074FDE5D6480021C5E906100020BA
:101B000028626862F5E55846FEF74DFE89460546AF
:101B100021F0D1FA00223B46FEF7DCFE06D2BBF1F3
:101B2000000F03DB5520A4F85800E2E5284649469B
:101B300021F0C1FA00223B46FEF7CCFE06D2BBF1F3
:101B4000000F03DA5620A4F85800D2E5B08870815F
:101B50005720A4F85800CCE55846FEF724FE21F0A3
:101B6000AAFA0022BB4BFEF7CDFE0BD2B8480021EB
:101B7000C5E9061029626962B08870815720A4F80F
:101B80005800B6E5032F0AD1B3480078012806D0E3
:101B90000020A861E861B149C5E90801A9E5002173
:101BA000A961E961296269625820A4F85800A0E59A
:101BB00030B9D9F800007063D9F80400B063E1715E
:101BC000A2480021C5E90610002028626862D9F801
:101BD0000000716B081AFEF7E6FD21F06CFA002296
:101BE0005346FEF78FFE0CD3D9F80400B16B081AE8
:101BF000FEF7D9FD21F05FFA00225346FEF782FE80
:101C000093D20020A861E86128626862E0715520E3
:101C1000A4F858006DE55846FEF7C5FD21F04BFAD3
:101C200000228C4BFEF76EFE0BD289480021C5E9DD
:101C3000061029626962B08870815720A4F85800A4
:101C400057E5032F08D00021A961E9612962696283
:101C50005920A4F858004CE50020A861E8618048AC
:101C60000021C5E9081044E530B9D9F800007063D7
:101C7000D9F80400B063E17174480021C5E9061089
:101C800029626962D9F80000716B081AFEF78BFDB2
:101C900021F011FA00225346FEF734FE0CD3D9F896
:101CA0000400B16B081AFEF77EFD21F004FA002251
:101CB0005346FEF727FEADD20021A961E9612962F2
:101CC00069620020E0715620A4F8580011E5032F46
:101CD0000ED1BCF1010F0BD0B6F90400B6F90A1011
:101CE000401A40F2F621884210DDA4F8583000E591
:101CF0000020A861E861002129626962A4F8580007
:101D00004FF002082074E0736074F2E45049002040
:101D1000C5E90601002129626962EAE45846FEF736
:101D200042FD0F46054621F0C6F900224D4BFEF755
:101D3000E9FD03D3ABF12E005E2803D85A20A4F8A6
:101D40005800D6E42846394621F0B5F9002253461A
:101D5000FEF7C0FD04D90BF1810BBBF1540F03D288
:101D60005B20A4F85800C4E4B08870815220A4F825
:101D70005800BEE40BF1890BBBF1050F0CD23448BF
:101D80000021C5E90610002028626862B0887081D1
:101D90005220A4F858000CE2032F09D1BCF1010F26
:101DA00006D00021A961E9612C48C5E9081000E2CC
:101DB0000021A961E961296269625D20A4F85800E7
:101DC000F7E130B9D9F800007063D9F80400B063C6
:101DD000E1711E480021C5E90610002028626862F2
:101DE000D9F80000716B081AFEF7DDFC21F063F9E9
:101DF00000225346FEF786FD0CD3D9F80400B16BE0
:101E0000081AFEF7D0FC21F056F900225346FEF7DF
:101E100079FD96D20021A961E961296269620020F9
:101E2000E0715A20A4F85800C3E10BF1890BBBF113
:101E3000050F19D206480021C5E90610296269621A
:101E4000B08870815220A4F85800B2E100406FC001
:101E500000406F4000206640A8000020000049407C
:101E6000000049C000806140032F09D1BCF1010F7F
:101E700006D00021A961E961F948C5E9081098E197
:101E80000021A961E961296269625E20A4F8580015
:101E90008FE130B9D9F800007063D9F80400B0635D
:101EA000E171F0480021C5E9061029626962D9F89C
:101EB0000000716B081AFEF776FC21F0FCF8002296
:101EC0005346FEF71FFD0CD3D9F80400B16B081A76
:101ED000FEF769FC21F0EFF800225346FEF712FDF1
:101EE000A2D20021A961E961296269620020E07142
:101EF0005B20A4F858005CE15846FEF754FC0F46FE
:101F0000054621F0D8F80022D74BFEF7FBFC04D29F
:101F10005F20A4F858004CE175E32846394621F0CB
:101F2000CAF80022D14BFEF7D5FC04D3ABF1550B18
:101F3000BBF10A0F03D86020A4F8580039E1B0883B
:101F400070815720A4F8580033E10BF1890BBBF1E5
:101F5000050F0BD2C6480021C5E906102962696247
:101F6000B08870815720A4F8580022E1032F09D1CE
:101F7000BCF1010F06D00021A961E961BD48C5E9A6
:101F8000081016E10021A961E96100202862686259
:101F90006220A4F858000CE130B9D9F80000706351
:101FA000D9F80400B063E171AE480021C5E906101C
:101FB00029626962D9F80000716B081AFEF7F3FB19
:101FC00021F079F800225346FEF79CFC0CD3D9F897
:101FD0000400B16B081AFEF7E6FB21F06CF8002252
:101FE0005346FEF78FFC86D20020A861E8610021ED
:101FF00029626962E0715F20A4F85800FBE30BF1ED
:10200000890BBBF1050F0BD299480021C5E90610D9
:1020100029626962B08870815720A4F85800EAE309
:10202000032F0AD1BCF1010F07D00021A961E9619A
:102030008B490020C5E90801DDE30021A961E961C0
:10204000296269626320A4F85800D4E330B9D9F852
:1020500000007063D9F80400B063E1718148002189
:10206000C5E9061029626962D9F80000716B081A87
:10207000FEF799FB21F01FF800225346FEF742FCC1
:102080000CD3D9F80400B16B081AFEF78CFB21F0D1
:1020900012F800225346FEF735FCAFD20021A961A9
:1020A000E961296269620020E0716020A4F85800AB
:1020B000A1E35846FEF777FB8A46074620F0FBFF70
:1020C00000222B46FEF71EFC11D93846514620F05F
:1020D000F2FF00224B46FEF7FDFB04D3ABF1280BC9
:1020E000BBF15F0F07D26520A4F8580083E364209A
:1020F000A4F858007FE3B08870815220A4F85800FB
:1021000079E30BF12F0BBBF1050F0CD258490020DE
:10211000C5E90601002129626962B08870815220F8
:10212000A4F8580067E3032F09D1BCF1010F06D0D2
:102130000021A961E9614F48C5E908105BE300216E
:10214000A961E961296269626720A4F8580052E335
:1021500030B9D9F800007063D9F80400B063E171B8
:1021600040480021C5E9061029626962D9F80000DB
:10217000716B081AFEF717FB20F09DFF00225346F3
:10218000FEF7C0FB0CD3D9F80400B16B081AFEF7B8
:102190000AFB20F090FF00225346FEF7B3FB87D2E4
:1021A0000020A861E86128626862E0716420A4F8F8
:1021B000580020E30BF12F0BBBF1050F0BD22C487D
:1021C0000021C5E9061029626962B0887081522039
:1021D000A4F858000FE3032F08D00021A961E9619A
:1021E000296269626820A4F8580004E30021A9610B
:1021F000E9611B48C5E90810FDE230B9D9F80000D3
:102200007063D9F80400B063E17116480021C5E994
:10221000061029626962D9F80000716B081AFEF78E
:10222000C2FA20F048FF00225346FEF76BFB0CD3A6
:10223000D9F80400B16B081AFEF7B5FA20F03BFF9D
:1022400000225346FEF75EFBB3D20021A961E9618B
:10225000296269620020E0716520A4F85800CAE292
:10226000000049C000406FC000C0574000405540CA
:1022700000406F40000049405846FEF794FA8946F6
:10228000054620F018FF00223B46FEF73BFB06D236
:10229000BBF1000F03DA6920A4F85800ABE228462E
:1022A000494620F008FF00223B46FEF72BFB06D2F2
:1022B000BBF1000F03DD6A20A4F858009BE2B08850
:1022C00070815720A4F8580095E25846FEF76BFA43
:1022D00020F0F1FE0022FE4BFEF7FCFA0BD2FD4887
:1022E0000021C5E9061029626962B0887081572013
:1022F000A4F858007FE2032F0AD1F748007801289C
:1023000006D00021A961E961F448C5E9081072E22C
:102310000021A961E961296269626C20A4F8580072
:1023200069E230B9D9F800007063D9F80400B063ED
:10233000E171EB480021C5E9061029626962D9F80C
:102340000000716B081AFEF72EFA20F0B4FE00228E
:102350005346FEF7D7FA0CD3D9F80400B16B081A2C
:10236000FEF721FA20F0A7FE00225346FEF7CAFA34
:1023700094D20020A861E861002129626962E071BD
:102380006920A4F8580036E25846FEF70CFA20F00F
:1023900092FE0022CE4BFEF79DFA0CD2CD480021D2
:1023A000C5E90610002028626862B0887081572055
:1023B000A4F858001FE2032F0AD1C748007801286B
:1023C00006D00021A961E961C648C5E9081012E2FA
:1023D0000021A961E961296269626D20A4F85800B1
:1023E00009E230B9D9F800007063D9F80400B0638D
:1023F000E171BB480021C5E9061029626962D9F87C
:102400000000716B081AFEF7CEF920F054FE00228E
:102410005346FEF777FA0CD3D9F80400B16B081ACB
:10242000FEF7C1F920F047FE00225346FEF76AFA94
:10243000A9D20021A961E961002028626862E071E7
:102440006A20A4F85800D6E15846FEF7ACF98A464F
:10245000074620F030FE00224B46FEF73BFA03D938
:102460000BF186005E2803D26E20A4F85800C2E16A
:102470003846514620F01FFE00222B46FEF742FA56
:1024800004D9ABF1330BBBF1540F03D26F20A4F886
:102490005800B0E1B08870815220A4F85800AAE139
:1024A000ABF12B0BBBF1050F0BD28A480021C5E91C
:1024B000061029626962B08870815220A4F8580021
:1024C00099E1032F09D1BCF1010F06D00021A961C8
:1024D000E9618248C5E908108DE10021A961E9613F
:1024E000296269627120A4F8580084E130B9D9F8F2
:1024F00000007063D9F80400B063E17178480021EE
:10250000C5E9061029626962D9F80000716B081AE2
:10251000FEF749F920F0CFFD00225346FEF7F2F90D
:102520000CD3D9F80400B16B081AFEF73CF920F07F
:10253000C2FD00225346FEF7E5F909D20021A96148
:10254000E961296269620020E0716E20A4F85800F8
:1025500051E1ABF12B0BBBF1050F0BD25D48002114
:10256000C5E9061029626962B08870815220A4F81A
:10257000580040E1032F09D1BCF1010F06D0002122
:10258000A961E9615748C5E9081034E10021A96152
:10259000E961296269627220A4F858002BE130B920
:1025A000D9F800007063D9F80400B063E1714C48B9
:1025B0000021C5E90610002028626862D9F80000F1
:1025C000716B081AFEF7EFF820F075FD00225346F4
:1025D000FEF798F90CD3D9F80400B16B081AFEF78E
:1025E000E2F820F068FD00225346FEF78BF909D28D
:1025F0000020A861E861002129626962E0716F2012
:10260000A4F85800F7E05846FEF7CDF80F46054607
:1026100020F051FD0022344BFEF75CF903D2732009
:10262000A4F85800E7E02846394620F044FD00228F
:102630002E4BFEF767F904D30BF15F0BBBF10A0FCA
:1026400003D87420A4F85800D5E0B08870815720D2
:10265000A4F85800CFE0ABF1580BBBF1050F0BD23B
:102660001C480021C5E9061029626962B0887081A2
:102670005720A4F85800BEE0032F09D1BCF1010F88
:1026800006D00021A961E9611448C5E90810B2E04B
:102690000021A961E961296269627620A4F85800E5
:1026A000A9E030B9D9F800007063D9F80400B0632C
:1026B000E1710B480021C5E9061029626962D9F869
:1026C0000000716B081AFEF76EF820F0F4FC0FE0C2
:1026D0000000084000406F40A80000200000494072
:1026E00000406FC0000049C00040554000C0574046
:1026F00000225346FEF706F90CD3D9F80400B16B5B
:10270000081AFEF750F820F0D6FC00225346FEF7D8
:10271000F9F870D20020A861E8610021296269629D
:10272000E0717320A4F8580065E0ABF1580BBBF1E1
:10273000050F0CD231490020C5E9060100212962AC
:102740006962B08870815720A4F8580053E0032FC5
:1027500009D1BCF1010F06D00021A961E961284827
:10276000C5E9081047E00021A961E96129626962B1
:102770007720A4F858003EE030B9D9F80000706323
:10278000D9F80400B063E1711E480021C5E90610C4
:1027900029626962D9F80000716B081AFEF703F824
:1027A00020F089FC00225346FEF7ACF80CD3D9F890
:1027B0000400B16B081AFDF7F6FF20F07CFC002244
:1027C0005346FEF79FF816D20020A861E861002169
:1027D00029626962E0717420A4F858000BE00020BF
:1027E000A861E861286268624FF001082074E07314
:1027F0006074A4F858004046BDE8F09F00406F4068
:10280000000049C000406FC02DE9F05F04460E464D
:102810004FF00008A068642190FBF1F5DFF8E8A113
:1028200000275146BAF95A00CA7980310123DFF8EE
:10283000DCB101F1800943283FD003DC38B14228E4
:102840000AD10AE0442871D04728F9D1A2E0C8880B
:1028500008814220AAF85A00D2E0032E20D16C4809
:10286000007801281CD0B1F90600B1F90810401A0F
:10287000FDF799FF20F01FFC0022664BFEF742F89F
:1028800012D20020C9F81800C9F81C000021C9F8AC
:102890002010C9F82410AAF85A704FF00108AFE0D0
:1028A0004320AAF85A00ABE05B480021C9E90610B2
:1028B000C9F82010C9F82410A2E02AB9206848639A
:1028C000606888638AF8073054480022C9E9062006
:1028D000C9F82020C9F824200E462068496B081A40
:1028E000FDF761FF20F0E7FB00225B46FEF70AF8E8
:1028F0000BD36068B16B081AFDF755FF20F0DBFBC6
:1029000000225B46FDF7FEFF7AD20021C9F81810BD
:10291000C9F81C10C9F82010C9F824108AF80770EB
:1029200075644420AAF85A006AE0FFE7486C0C4638
:10293000401BFDF738FF20F0BEFB0022384BFDF7AF
:10294000E1FF0FD20020C9F81800C9F81C000021CF
:10295000C9F82010C9F82410E08820814220AAF884
:102960005A004DE0032E0CD00021C9F81810C9F808
:102970001C10C9F82010C9F824104720AAF85A00E2
:102980003EE00021C9F81810C9F81C102548C9E913
:10299000081035E02AB920684863606888638AF8BF
:1029A00007301E480022C9E90620C9F82020C9F8CE
:1029B00024200E462068496B081AFDF7F4FE20F02B
:1029C0007AFB00225B46FDF79DFF0BD36068B16B7D
:1029D000081AFDF7E8FE20F06EFB00225B46FDF7CB
:1029E00091FF0DD20021C9F81810C9F81C10C9F8C0
:1029F0002010C9F824108AF807704420AAF85A0059
:102A00004046BDE8F09F0000B000002000003440C8
:102A1000A800002000F08D4000406F4000406FC0D3
:102A200000003E40000049402DE9F04F8DB00021EC
:102A30000B9101260A91099108910791002341F217
:102A400088324FF4C87492FBF4F149B2029192FBC0
:102A5000F4F149B20191016865421144A94203DDD4
:102A600040681044A84203DC00200DB0BDE8F08FA0
:102A700091FBF4F14FFA81FA90FBF4F04FFA80FBEE
:102A8000B64991F8250018B10C2002901820019049
:102A9000B24891F82320807832B128B191F82720EC
:102AA000012A0FD01822029291F8241011B108B116
:102AB000002001900024DFF8A8E2002C05DD4FF093
:102AC000010804E000220292EEE74FF00008002126
:102AD000DFF890C2002001EBC10202EB01120CEB07
:102AE00082052A18977DFA2F08D0927D32B1401CBA
:102AF00040B26428F5DB23B1002306E00A910123EC
:102B0000F9E7491C49B26429E4DB0A98A0EB0409FF
:102B1000B9F1030F06DD4FEAE97009EB9070801000
:102B2000401E00E0002040B206906321002001EB2F
:102B3000C10202EB01120CEB82073A18957DFA2DC7
:102B400008D0927D32B1401C40B26428F5DB23B13D
:102B5000002306E009910123F9E7491E49B2002943
:102B6000E4DA0998001B602805DAC11700EB9170C0
:102B70008010401C00E0182040B205900021002089
:102B800000EBC00202EB00120CEB82020A44957DBE
:102B9000FA2D08D0927D32B1401C40B26428EFDBA0
:102BA00023B1002306E008910123F9E7491C49B24B
:102BB0006429E4DB0898032806DD4FEAE97009EB95
:102BC00090708010401E00E0002040B2049063210D
:102BD000002000EBC00202EB0015624A02EB850206
:102BE0000A44957DFA2D08D0927D32B1401C40B246
:102BF0006428EEDB23B1002306E007910123F9E707
:102C0000491E49B20029E3DA07985F2801DD182040
:102C100005E00798C11700EB91708010401C40B28E
:102C200003900021C8F119000C9075E005988142CD
:102C300002D0069881421BD1002001EBC102002581
:102C400002EB011201277244514501D1584507D0CA
:102C5000DDF808C0614505D1DDF804C0604501D14B
:102C6000155400E01754401C40B21928ECDB51E029
:102C70000020049A904202D0039A904207D101EBBF
:102C8000C10505EB0115754401222A543EE00025DB
:102C90004FF06409002202EB8507274497FBF9FCFB
:102CA00009FB1C7707EBC70C0CEB071C2D4F07EB40
:102CB0008C0C02EB800797FBF9F809FB1877674447
:102CC000BF7D8FB1521C52B2042AE4DB1EB16D1CD1
:102CD0006DB2042DDEDB4EB101EBC10505EB011534
:102CE000754400222A5411E00026EFE7544501D133
:102CF00058452AD0192C01D1192826D001EBC1053D
:102D000005EB0115754401222A540126401C40B2EE
:102D10001928AEDB491C49B20C98884286DC641C39
:102D200064B2042CFFF6C9AE01980BF0FF02C0B2EA
:102D3000009002980AF0FF01C3B209481FF026FF75
:102D400020F0DCFE0B98C0B28FE601EBC10505EB6D
:102D50000115754400222A54D7E70000B000002076
:102D6000D86C0020100B002010B5012022F0AEFA24
:102D70000149886110BD0000000000207FB50024DB
:102D80002048CDE9010401214E020091234632463C
:102D900003941DA1204822F06FFB1A4802210C3831
:102DA000CDE9010400910023324603941BA11F4882
:102DB00022F062FB134803210838CDE90104009199
:102DC0000023324603941AA11D4822F055FB0D48FA
:102DD0000425001FCDE901040023324619A11D4836
:102DE0000095039422F048FB06480023001DCDE91E
:102DF0000104324618A11B480095039422F03CFBC5
:102E00007FBD000010000020765461736B4D61702F
:102E100070696E6700000000354E020876546173D9
:102E20006B4465636973696F6E000000C14D0208F1
:102E3000765461736B436F6E74726F6C00000000A8
:102E4000514D0208765461736B50657263657074FE
:102E5000696F6E00294F0208765461736B4B657978
:102E600000000000294E020800B593B014221D494D
:102E700006A8FDF7DDF914221A49143101A8FDF75F
:102E8000D7F907F06FF900282AD120210BA809F003
:102E9000D3FC06A90BA807F08DFA002820D1142135
:102EA00006A8FDF7DEF920210BA809F0C5FC06AA4B
:102EB00020210BA807F004F9002811D101AB01AAC9
:102EC00020210BA80EF04CFD142201A906A8FDF745
:102ED000D3F9C0B2002803D107F0B6F90028FFD11A
:102EE00013B000BDF057020810A41B4E4FF46165EB
:102EF0002946304615F058FC2946304615F056FC58
:102F00002946304615F054FC2946304615F052FC4F
:102F10000020124B191F225C1A800A885206FCD529
:102F2000401CC0B22928F6D3FEE700000D0A456E0A
:102F300074657220486172644661756C745F4861A3
:102F40006E646C65722C2053797374656D204861D2
:102F50006C742E0D0A000000002C01400444004057
:102F60002DE9F04105462C22002141480EF08AFD52
:102F7000404E3F4C21213078943C40F005002070B9
:102F800020461FF04BFC7070002852D1A178C1F38D
:102F9000810201F0030025B10223B3EB911F47D159
:102FA00006E063783B2B43D10B0641D44B063FD55B
:102FB000032A3DD0304B2E4D2F4E9B5C6B702E4B19
:102FC000383303EB82031B5CAB702B4B443303EBB6
:102FD000820350361B5C06EBC2022B7032F81000E5
:102FE000A880C80601D510332B700822611CA81DCB
:102FF0000EF03EFD1E49607A85F82B008A390722C3
:1030000001F198000EF034FD19490622833901F1CF
:1030100098000EF02DFD0022202018260121D30754
:10302000A0EB5203E35C06D0F02747EA131304E059
:103030000420BDE8F08143F0F003AF18FB76A6EB67
:10304000D20302F00707E35C01FA07F73B4201D025
:10305000FF2700E0EF27AB18521C93F81BC0D2B239
:1030600007EA0C07DF76102AD9D30020E1E7000039
:10307000D4C00020E80200206E5A020870B5FF227A
:10308000FF23084D05F5807605E010F8014B54400C
:103090002A5D5A40335D491E89B2F6D243EA0220C6
:1030A00070BD00001858020870B516460C4605465B
:1030B00014F016F808210D4814F030F810210C48CF
:1030C00014F02CF809480721083014F027F80848B4
:1030D0001821183814F022F82146284614F01EF85A
:1030E0003046BDE8704013F0D9BF0000DAC00020C0
:1030F0000C0300200EB5104904236A46A1F1080014
:103100000EF0C8FC0C4904230DF106020831684694
:103110000EF0C0FC08490423091D6A46A1F108000D
:103120000EF0B8FC6846022301AA811C0EF0B2FC26
:1031300001A80EF0BDFC0EBD48C000202DE9FF5FC8
:1031400004468846002002908346A068642190FBD4
:10315000F1FAFE4EFE4840F2E23EB6F95210037814
:10316000304606F58075C079A1F2E23CD946A5F15A
:103170008007714576D031DCB1F5767F73D01BDCEA
:1031800040F2D33CA1F2D33361456DD00ADC4FF459
:10319000747041B3814250D0991C70D0012941F024
:1031A0003A8563E1012B6BD0022B6AD0032B69D0E7
:1031B000042BF4D101F0FEBCA1F2D931DFF894B3B5
:1031C000092981F02885DFE811F0D204120D1505D8
:1031D000570500084B098E0A73084008DE49BCF108
:1031E000140FEED200E015E0DFE81CF09A09BA08EF
:1031F000F9089B096709B909EF092C0AD60AA20A3E
:10320000F70A2D0B6B0B050CD10B240C6A0CA50CCB
:10321000AA0BA600143686F81B9086F8229006F8B2
:10322000059C0121B17606F8019C0022AA61EA61A1
:103230002A626A62F08701F0EEBC0021C74C63206D
:1032400001EBC10303EB011304EB83031D18AD7DF8
:103250007D2D0AD00A4686F8371086F839004FF0DF
:10326000010B06E0F3E3F3E32BE1401EC0B20028BC
:10327000ECD1BBF1000F06D04FF0000B07E053E19B
:103280007DE1EDE3FEE3891CC9B26429D7D3632055
:1032900096F93710491D01EBC10303EB011304EB51
:1032A00083031D18AD7D7D2D04D006F13703197001
:1032B000987003E0401EC0B20028F2D163210020C4
:1032C00001EBC10303EB011304EB83031D18AD7D78
:1032D0007D2D0AD086F8381086F83A00881A6423C3
:1032E0005843F8644FF0010B03E0401CC0B264285F
:1032F000ECD3BBF1000F03D1891EC9B20029DED186
:10330000002096F93810491F01EBC10202EB0112AF
:1033100004EB820213189B7D7D2B04D086F83810B5
:1033200086F83A0003E0401CC0B26428F2D340F2B1
:10333000F530A6F852007EE70021884B002000EB14
:10334000C00404EB001403EB84040C44A47D7D2C26
:1033500007D00A4686F83D0086F83E104FF0010B74
:1033600003E0401CC0B26428E9D3BBF1000F02D0D7
:103370004FF0000B03E0891CC9B26429DED30020A2
:1033800096F93E1000EBC00404EB001403EB840438
:103390000C44E47E7D2C05D006F13D042070491DCF
:1033A000617003E0401CC0B26428EBD363216C4D14
:1033B000632000EBC00404EB001403EB84040C4412
:1033C000A47D7D2C1CD086F83B0086F83C10881A22
:1033D00000EBC00404EB001CFC6CB4EB8C0F07DAB0
:1033E0006424604300EBD07005EB6000F86404E0F7
:1033F00004EBD47005EB6000F8644FF0010B03E0C0
:10340000401EC0B20028D4D1BBF1000F03D1891EE9
:10341000C9B20029CCD1632096F93C1000EBC00260
:1034200002EB001203EB82020A44527C7D2A05D093
:1034300086F83B00491F86F83C1003E0401EC0B2EE
:103440000028EBD1786CFDF7AEF91FF034FE0022B6
:10345000444BFDF757FA04D240F2D130A6F852009F
:10346000E9E640F2D230A6F85200E4E60021A96174
:10347000E9613D48C5E908105046FDF794F91FF091
:103480001AFE0022394BFDF73DFA09D20021A9614D
:10349000E9612962696240F2D130A6F85200CAE6B9
:1034A000B8F1030F03D12A4800780128D8D10021B0
:1034B000A961E9612962696240F2D330A6F852003D
:1034C000B9E628B9206878636068B8630120F071B4
:1034D00027480021C5E90610296269622068796BD6
:1034E000081AFDF760F91FF0E6FDDFF8888000227A
:1034F0004346FDF707FA0BD36068B96B081AFDF76E
:1035000052F91FF0D8FD00224346FDF7FBF9A7D280
:103510000021A961E9612962696286F8079040F299
:10352000D230A6F8520086E60020A861E8610021AA
:1035300029626962206878626068F8622168B9620D
:103540003863012030734FF4757015E0B00000202F
:10355000A800002000E065406CEEFFFF100B00208B
:103560000CFEFFFF008056400000494000406540CF
:1035700000406FC000002440A6F852005BE620F037
:103580007DFEB8F1030F08D1F8480078012804D077
:10359000F748F84EC07C50B12EE00021A961E961E6
:1035A0002962696240F2D530A6F8520043E6F86C11
:1035B000FDF7F9F8CDE900012068B96A081AFDF7AE
:1035C000F2F81FF078FDDDE90023FDF79BF910D339
:1035D000F86CFDF7E8F8CDE900016068396B081A6E
:1035E000FDF7E1F81FF067FDDDE90023FDF78AF93B
:1035F00002D2DF490120C8742068FDF7D4F81FF01B
:103600005AFD00223346FDF77DF909D36068FDF7C6
:10361000CAF81FF050FD00223346FDF773F905D2BA
:10362000D34940F2D630A1F8520004E6206841F2B6
:1036300088314318642293FBF2F303F0FF086368B8
:10364000194491FBF2F1CEB2796A081AFDF7ABF892
:103650001FF031FD0022C84BFDF754F90BD3606811
:10366000F96A081AFDF79FF81FF025FD0022C24BEA
:10367000FDF748F948D2A8F104005C283AD2032E9D
:1036800038D9602E36D2C1B2F31EF61CBB4D08F1FC
:1036900004081AE0D8B201EBC10202EB011205EBFB
:1036A00082020BE002EB000C9CF816C0BCF17D0F0F
:1036B00002D04FF0010B03E0401CC0B2B042F1D980
:1036C000BBF1000F03D1891CC9B24145E2D9BBF15E
:1036D000000F09D0206878626068F862A4484FF44F
:1036E0007571A0F85210A6E5A14840F2D731A0F8B4
:1036F0005210A0E5206878626068F8629C484FF438
:103700007571A0F8521096E5994C207B012815D0D0
:1037100002286BD003287CD004287BD09848002155
:10372000C5E9061029626962E07B0428DBD984F8C8
:10373000369040F2DA30A4F852007CE50AF1040039
:103740000E280AD2BAF1000F49DA8E490020C5E9E5
:1037500006018D480021C5E9081094F93700A8EB4F
:103760000000FDF720F81FF0A6FC884D00222B4634
:10377000FDF7B0F812D294F93700301AFDF713F8BC
:103780001FF099FC00222B46FDF7A4F806D2E07B3F
:10379000401CE0730220207384F8369094F93D00B9
:1037A000A8EB0000FCF7FFFF1FF085FC00222B4672
:1037B000FDF790F8B8D294F93E00301AFCF7F3FF09
:1037C0001FF079FC00222B46FDF784F8ACD2E07B99
:1037D000401CE0730320207384F83690A4E76C4803
:1037E0000021C5E906102962696224E5AAF15600A4
:1037F0000E2809D2BAF15A0F4BDA62480021C5E906
:1038000006106148C5E9081094F93D00A8EB0000D6
:1038100001E046E0C0E0FCF7C6FF1FF04CFC5B4D4A
:1038200000222B46FDF756F812D294F93E00301ACA
:10383000FCF7B9FF1FF03FFC00222B46FDF74AF8CA
:1038400006D2E07B401CE0730320207384F836909E
:1038500094F93800A8EB0000FCF7A5FF1FF02BFC43
:1038600000222B46FDF736F8B8D294F93A00301A08
:10387000FCF799FF1FF01FFC00222B46FDF72AF8EA
:10388000ACD2E07B401CE0730420207384F83690B7
:103890004AE73F480021C5E9061000202862686217
:1038A000C9E45046FCF77FFF1FF005FC0022394BAE
:1038B000FDF728F80AD2BAF1000F50DD3149002097
:1038C000C5E9060130480021C5E9081094F938001F
:1038D000A8EB0000FCF767FF1FF0EDFB2B4D00226B
:1038E0002B46FCF7F7FF12D294F93A00301AFCF796
:1038F0005AFF1FF0E0FB00222B46FCF7EBFF06D23D
:10390000E07B401CE0730420207384F83690E07C58
:103910000028BDD094F93B00A8EB0000FCF743FF62
:103920001FF0C9FB00222B46FCF7D4FFB0D294F95C
:103930003C00301AFCF737FF1FF0BDFB00222B467E
:10394000FCF7C8FFA4D2E07B401CE0730120207389
:1039500084F8369040F2DA30A4F852006BE40C4858
:103960000021C5E906102962696264E4A80000200C
:10397000B000002000C0B24000006440100B0020E6
:1039800000406F4000005940000034C00000244057
:1039900000006940008065400AF15E000E2809D2EF
:1039A0001AF15A0F55DAFD480021C5E90610FC4806
:1039B000C5E90810E07C0028ABD094F93B00A8EBE7
:1039C0000000FCF7F0FE1FF076FBF64D00222B46C0
:1039D000FCF780FF10D294F93C00301AFCF7E3FEAC
:1039E0001FF069FB00222B46FCF774FF04D2E07B3A
:1039F000401CE0730120207394F93700A8EB00000D
:103A0000FCF7D1FE1FF057FB00222B46FCF762FFAC
:103A100010D294F93700301AFCF7C5FE1FF04BFBAB
:103A200000222B46FCF756FF04D2E07B401CE073DB
:103A300002202073207B0428BED084F83690E07BDF
:103A4000401CE07340F2DA30A4F8520073E4E0E383
:103A50005AE0D5480021C5E90610296269626AE486
:103A600068B9206878636068B8630120F071B8F1C4
:103A7000000F3AD0B8F1010F3AD002207075002142
:103A8000CA4800E03BE1C5E90610002028626862F0
:103A90002068796B081AFCF786FE1FF00CFBDFF834
:103AA000048300224346FCF72DFF0BD36068B96BFB
:103AB000081AFCF778FE1FF0FEFA00224346FCF7D6
:103AC00021FFC3D20020A861E86100212962696258
:103AD00086F80790C7F844A0707D58B101280ED031
:103AE00040F2DB30A6F8520025E486F81590C6E7D0
:103AF0007075C4E74FF47670A6F852001BE440F2EC
:103B0000D930A6F8520016E4786CA0EB0A00FCF756
:103B10004AFE1FF0D0FA0022A54BFCF7F3FE0DD2AF
:103B20000021A961E96129626962206878626068A0
:103B3000F8624FF47570A6F8520091E4B8F1030FE3
:103B40000AD19C480078012806D00021A961E961CA
:103B50009948C5E9081083E40020A861E8610021C4
:103B6000296269624FF47770A6F8520078E4786CA5
:103B7000A0EB0A00FCF717FE1FF09DFA00228F4B06
:103B8000FCF7C0FE1ED25046FCF70DFE1FF093FA64
:103B900000228B4BFCF7B6FE06D2C7F844A040F2D9
:103BA000D930A6F852005BE40021A961E9612962DD
:103BB0006962206878626068F8624FF47570A6F8F0
:103BC00052004DE4B8F1030F0AD17A480078012879
:103BD00006D00021A961E9617748C5E908103FE4F2
:103BE0000021A961E961296269624FF47770A6F842
:103BF000520035E4786CA0EB0A00FCF7D4FD1FF00E
:103C00005AFA00226A4BFCF77DFE1CD25046FCF7A4
:103C1000CAFD1FF050FA00225B46FCF773FE04D287
:103C200040F2DB30A6F852001AE40021A961E961F4
:103C300029626962206878626068F8624FF4757082
:103C4000A6F852000CE4B8F1030F0AD159480078E5
:103C5000012806D00021A961E9615748C5E908108B
:103C60001DE40020A861E8610021296269624FF427
:103C70007770A6F8520012E428B92068786360686B
:103C8000B8630120F07149490020C5E9060100210F
:103C9000296269622068796B081AFCF784FD1FF0BD
:103CA0000AFADFF8008100224346FCF72BFE0BD313
:103CB0006068B96B081AFCF776FD1FF0FCF900226A
:103CC0004346FCF71FFE8AD20021A961E96100206A
:103CD0002862686286F80790707D30B1012809D0AB
:103CE00040F2DB30A6F852001DE44FF47670A6F8DF
:103CF000520018E440F2D930A6F8520013E41FF045
:103D0000BFF8B8F1030F11D12A48007801280DD06F
:103D10002068DFF8B080B0F57A6F12DA78626068F8
:103D2000F8624FF47570A6F8520027E40021A961EB
:103D3000E96100202862686240F2D530A6F852009E
:103D40001CE4FCF730FD1FF0B6F900224346FCF7F7
:103D5000D9FD09D36068FCF726FD1FF0ACF90022FD
:103D60004346FCF7CFFD4CD22068FCF71CFD1FF04A
:103D7000A2F900224346FCF7C5FD34D26068FCF787
:103D800012FD1FF098F900224346FCF7BBFD1BD241
:103D900040F2DA30A6F8520008E400000000594072
:103DA000000034C0000024400000694000406FC0A3
:103DB00000003E40A80000200000494000002E40C6
:103DC000004065400088B340216841F2883081425C
:103DD00004DD40F2DD30A6F8520012E040F2DE30A1
:103DE000A6F852000DE0616841F28830814204DD9E
:103DF00040F2DF30A6F8520003E04FF47D70A6F8E1
:103E00005200206841F2883C00EB0C02642192FBD6
:103E1000F1F2D3B203936268624492FBF1F101F0D4
:103E2000FF08796A081AFCF7BEFC1FF044F900226B
:103E3000F84BFCF767FD0BD36068F96A081AFCF7CA
:103E4000B2FC1FF038F90022F24BFCF75BFD4BD2BD
:103E50000398001F5C283ED2B8F1030F3BD9B8F19C
:103E6000600F38D2C1B2DDF80CC0A8F10403EA4DEE
:103E700008F104080CF1040C1AE0D8B201EBC102FD
:103E800002EB011205EB82020BE002EB000999F84C
:103E90001690B9F17D0F02D04FF0010B03E0401CEA
:103EA000C0B24045F1D9BBF1000F03D1891CC9B2A2
:103EB0006145E2D9BBF1000F08D0206878626068E4
:103EC000F86240F2D630A6F852000CE440F2D73047
:103ED000A6F8520007E4206878626068F86240F251
:103EE000D630A6F8520004E4307B012815D0022811
:103EF00060D003287DD004287CD0C8480021C5E9C3
:103F0000061029626962F07B0428DED9401CF07338
:103F100040F2DA30A6F852000FE4BAF1000F05DBE8
:103F20000021A961E961BE48C5E9081096F937107A
:103F30000398401AFCF737FC1FF0BDF8B94C00227B
:103F40002346FCF7C7FC13D296F93700A8EB000014
:103F5000FCF729FC1FF0AFF800222346FCF7BAFC5F
:103F600006D2F07B401CF0730220307386F8369046
:103F700096F93D100398401AFCF715FC1FF09BF8CA
:103F800000222346FCF7A6FCBDD296F93E00A8EB22
:103F90000000FCF708FC1FF08EF800222346FCF717
:103FA00099FCB0D2F07B401CF0730320307386F88C
:103FB0003690A8E75046FCF7F6FB1FF07CF800228D
:103FC000994BFCF787FC05D30021A961E96194486E
:103FD000C5E9081096F93D100398401AFCF7E3FB79
:103FE0001FF069F88F4C00222346FCF773FC16D2B1
:103FF00001E036E08AE096F93E00A8EB0000FCF70D
:10400000D2FB1FF058F800222346FCF763FC06D2CF
:10401000F07B401CF0730320307386F8369096F9DD
:1040200038100398401AFCF7BEFB1FF044F800223A
:104030002346FCF74FFCBCD296F93A00A8EB0000EF
:10404000FCF7B1FB1FF037F800222346FCF742FCD7
:10405000AFD2F07B401CF0730420307386F83690AA
:1040600051E7BAF1000F05DC0021A961E9616C4854
:10407000C5E9081096F938100398401AFCF793FB2D
:104080001FF019F8674C00222346FCF723FC13D2DB
:1040900096F93A00A8EB0000FCF785FB1FF00BF83F
:1040A00000222346FCF716FC06D2F07B401CF0737E
:1040B0000420307386F83690F07C0028D0D096F932
:1040C0003B100398401AFCF76EFB1EF0F4FF574CB0
:1040D00000222346FCF7FEFBC2D296F93C00A8EB77
:1040E0000000FCF760FB1EF0E6FF00222346FCF711
:1040F000F1FBB5D2F07B401CF0730120307386F8E1
:10410000369040F2DA30A6F8520009E25046FCF749
:104110004AFB1EF0D0FF0022434BFCF7F3FB05D314
:104120000021A961E9613E48C5E90810F07C00283A
:1041300096D096F93B100398401AFCF734FB1EF01A
:10414000BAFF384C00222346FCF7C4FB11D296F983
:104150003C00A8EB0000FCF726FB1EF0ACFF0022A1
:104160002346FCF7B7FB04D2F07B401CF073012020
:10417000307396F937100398401AFCF714FB1EF0C1
:104180009AFF00222346FCF7A5FB11D296F93700CF
:10419000A8EB0000FCF707FB1EF08DFF0022234672
:1041A000FCF798FB04D2F07B401CF07302203073C4
:1041B000307B0428BCD086F83690F07B401CF0732E
:1041C00040F2DA30A6F85200AAE15046FCF7EBFACA
:1041D0001EF071FF00225B46FCF794FB0AD2002020
:1041E000A861E8610021296269624FF47870A6F83D
:1041F000520095E1B8F1030F1CD10D480078012859
:1042000018D00020A861E86105480021C5E9081020
:1042100086E16EE000006440100B002000406F401B
:104220000000494000001440008056400000244037
:10423000A80000200020A861E861002129626962CD
:1042400040F2E130A6F852006AE128B920687863AC
:104250006068B8630120F071FC480021C5E90610D0
:10426000296269622068796B081AFCF79CFA1EF0D3
:1042700022FFDFF8DC8300224346FCF743FB0BD32D
:104280006068B96B081AFCF78EFA1EF014FF002262
:104290004346FCF737FB97D20021A961E961296207
:1042A000696286F8079040F2DD30A6F8520037E1E7
:1042B000E8490020C5E906010021296269622068F9
:1042C00041F29411884207DA78626068F8624FF42C
:1042D0007570A6F8520023E1B8F1030F01D1012B4C
:1042E00087D10020A861E86140F2E230A6F85200D0
:1042F00016E128B9206878636068B8630120F0711E
:10430000D2490020C5E906010021296269622068BE
:10431000796B081AFCF747FA1EF0CDFEDFF830B3D0
:1043200000225B46FCF7EEFA0BD36068B96B081A03
:10433000FCF739FA1EF0BFFE00225B46FCF7E2FAFA
:104340000ED20021A961E96100202862686286F826
:104350000790C7F844A040F2E330A6F85200DFE02F
:10436000AAF10100592802D2062086F8360096F8F4
:104370003600032807D20021A961E961B64900206F
:10438000C5E908010EE01AF1590004D340F2DA3011
:10439000A6F85200C4E00020A861E861AF480021FF
:1043A000C5E90810786CA0EB0A00FCF7FCF91EF0D8
:1043B00082FE0022AA4BFCF7A5FA09D20021A961CE
:1043C000E9610020286268624FF47870A6F8520014
:1043D000B8F1030F06D1A3480078012802D0F07984
:1043E00050B10FE00021A961E961296269624FF4CF
:1043F0007970A6F8520093E0206878636068B8632B
:104400000120F07191490020C5E9060100212962CF
:1044100069622068796B081AFCF7C5F91EF04BFE3B
:10442000DFF82CB200225B46FCF76CFA0BD3606815
:10443000B96B081AFCF7B7F91EF03DFE00225B4687
:10444000FCF760FA0CD20020A861E8610021296223
:10445000696286F8079040F2E330A6F85200DAE38A
:104460005046FCF7A0F91EF026FE00227E4BFCF71A
:1044700031FA09D20021A961E9612962696240F239
:10448000E530A6F85200C6E3B8F1030F0BD175482A
:104490000078012807D00020A861E8616F4800215A
:1044A000C5E90810B7E30021A961E96129626962E1
:1044B00040F2E630A6F85200ADE328B920687863F0
:1044C0006068B8630120F07160480021C5E90610FA
:1044D000296269622068796B081AFCF764F91EF09A
:1044E000EAFDDFF86C8100224346FCF70BFA0BD3A0
:1044F0006068B96B081AFCF756F91EF0DCFD002263
:104500004346FCF7FFF9AAD20021A961E961002026
:104510002862686286F8079040F2DE30A6F8520002
:1045200079E34C480022C5E906202A626A622068C5
:10453000884207DD78626068F8624FF47570A6F80B
:10454000520068E3B8F1030F01D1012B87D100219C
:10455000A961E96140F2E730A6F852005BE328B9AF
:10456000206878636068B8630120F07137490020E3
:10457000C5E906010021296269622068796B081A81
:10458000FCF711F91EF097FDDFF8C4B000225B467E
:10459000FCF7B8F90BD36068B96B081AFCF703F99C
:1045A0001EF089FD00225B46FCF7ACF90DD200211C
:1045B000A961E9612962696286F80790C7F844A099
:1045C0004FF47A70A6F8520025E31AF15A0F02DA76
:1045D000062086F8360096F83600032807D2002118
:1045E000A961E9611C490020C5E908010DE0BAF1A3
:1045F0005A0F04DD40F2DA30A6F852000BE3002037
:10460000A861E8611549C5E90801786CA0EB0A00CA
:10461000FCF7C9F81EF04FFD0022114BFCF772F9B0
:1046200009D20020A861E86100212962696240F294
:10463000E530A6F85200B8F1030F17D10948007809
:10464000012813D0F079D8B120E0000000406FC0FD
:104650000000244000406F40000049C00000494075
:1046600000003E40A8000020000014400020A86187
:10467000E8612862686240F2E930A6F85200CAE2B6
:10468000206878636068B8630120F071FE490020FB
:10469000C5E906010021296269622068796B081A60
:1046A000FCF781F81EF007FDDFF8E08300224346A7
:1046B000FCF728F90BD36068B96B081AFCF773F89C
:1046C0001EF0F9FC00224346FCF71CF996D20020AC
:1046D000A861E8612862686286F807904FF47A70F2
:1046E000A6F8520097E20AF15E0ABAF1090F09D260
:1046F0000021A961E9612962696240F2EA30A6F805
:10470000520088E2B8F1030F08D1012B06D0002136
:10471000A961E961DE48C5E908107CE20021A961D0
:10472000E9612962696240F2EB30A6F8520072E258
:1047300028B9206878636068B8630120F071D249B5
:104740000020C5E90601286268622068796B081AB2
:10475000FCF729F81EF0AFFCDFF830830022434657
:10476000FCF7D0F80BD36068B96B081AFCF71BF89C
:104770001EF0A1FC00224346FCF7C4F8B2D2002090
:10478000A861E86100212962696286F8079040F219
:10479000DF30A6F852003EE2BE490020C5E906011E
:1047A000002129626962606841F29411884207DA47
:1047B00021687962F8624FF47570A6F852002AE217
:1047C000B8F1030F01D1012B8CD10021A961E9615E
:1047D0004FF47B70A6F852001DE228B92068786378
:1047E0006068B8630120F071A7480021C5E9061090
:1047F0000020286268622068796B081AFBF7D3FFF3
:104800001EF059FCDFF884B200225B46FCF77AF810
:104810000BD36068B96B081AFBF7C5FF1EF04BFCA1
:1048200000225B46FCF76EF80DD20021A961E96118
:104830002962696286F80790C7F844A040F2ED301B
:10484000A6F85200E7E1BAF15A0F02DD062086F819
:10485000360096F83600032807D20020A861E861E8
:104860008D480021C5E908100EE0AAF10100592881
:1048700004D240F2DA30A6F85200CCE10021A9615E
:10488000E9618348C5E90810786CA0EB0A00FBF7E2
:104890008AFF1EF010FC0022804BFCF733F809D28F
:1048A0000021A961E96100202862686240F2EA30D3
:1048B000A6F85200B8F1030F06D179480078012814
:1048C00002D0F07950B10FE00021A961E9612962BD
:1048D000696240F2EE30A6F852009CE120687863ED
:1048E0006068B8630120F07167490020C5E90601DE
:1048F000286268622068796B081AFBF754FF1EF083
:10490000DAFBDFF888B100225B46FBF7FBFF0BD335
:104910006068B96B081AFBF746FF1EF0CCFB00225B
:104920005B46FBF7EFFF0BD20021A961E961296229
:10493000696286F8079040F2ED30A6F852006AE10D
:10494000AAF1560ABAF1090F09D20021A961E96159
:104950002962696240F2EF30A6F852005BE1B8F1DB
:10496000030F0AD14E480078012806D00021A96122
:10497000E9614748C5E908104DE10021A961E961F5
:10498000296269624FF47C70A6F8520043E128B9AD
:10499000206878636068B8630120F0713A480021AC
:1049A000C5E90610296269622068796B081AFBF76D
:1049B000FAFE1EF080FBDFF8D48000224346FBF7AE
:1049C000A1FF0BD36068B96B081AFBF7ECFE1EF071
:1049D00072FB00224346FBF795FF0BD20021A96131
:1049E000E96100202862686286F807904FF47D70C4
:1049F000A6F852000FE127480022C5E90620002052
:104A0000286268626068884207DD21687962F8621E
:104A10004FF47570A6F85200FDE0B8F1030F01D114
:104A2000012B06D10020A861E86140F2F130A6F820
:104A30005200F0E028B9206878636068B86301200C
:104A4000F07111480021C5E9061000202862686253
:104A50002068796B081AFBF7A6FE1EF02CFBDFF826
:104A60002CB000225B46FBF74DFF0BD36068B96B9F
:104A7000081AFBF798FE1EF01EFB00225B46FBF7B0
:104A800041FF1DD200200DE000406FC00000244017
:104A90000000494000406F40000049C000003E4017
:104AA000A8000020A861E86100212962696286F8F7
:104AB0000790C7F844A040F2F230A6F85200AAE0EE
:104AC000BAF1000F02DA062086F8360096F83600B2
:104AD000032806D20021A961E9615148C5E90810FF
:104AE0000DE01AF15A0F04DA40F2DA30A6F852005B
:104AF00091E00021A961E9614A48C5E90810786C94
:104B0000A0EB0A00FBF74FFE1EF0D5FA0022464B41
:104B1000FBF7F8FE08D20021A961E9612962696208
:104B200040F2EF30A6F85200B8F1030F06D13F482B
:104B30000078012802D0F07950B10FE00021A9617E
:104B4000E9612962696240F2F330A6F8520062E03E
:104B5000206878636068B8630120F07134490020F0
:104B6000C5E90601286268622068796B081AFBF7BC
:104B70001AFE1EF0A0FADFF8BC8000224346FBF7C5
:104B8000C1FE0BD36068B96B081AFBF70CFE1EF070
:104B900092FA00224346FBF7B5FE0BD20021A96131
:104BA000E9612962696286F8079040F2F230A6F85E
:104BB000520030E06068002804DA022002900DF014
:104BC000D1F901E0032002900021A961E961296285
:104BD000696286F8369086F80F9086F82E9086F8EF
:104BE0000C90A6F85290012086F82F0013E00120C7
:104BF00002900020A861E86100212962696286F8BC
:104C0000369086F80F9086F82E9086F80C90A6F8CD
:104C1000529086F81390029804B0BDE8F09F00000F
:104C2000000049C00000494000003E40A8000020AC
:104C300000406FC0000024402DE9F84F04468B4629
:104C40000026A068642190FBF1F00090DFF8F0935B
:104C5000FC4B4846B9F9482000250121C0791B7852
:104C6000F94F09F1800A09F58078B2F5377F76D0DF
:104C700023DC40F2D62EA2F2D62C724570D014DC82
:104C800040F2D32EA2F2D32C72456AD006DC12B3C6
:104C90001CF102026BD0012A51D1A7E0BCF1010F37
:104CA0007DD0BCF1020FF7D120E1BCF1060F46D256
:104CB000DFE80CF045FDFCFBFAF9A2F2DD224FF42F
:104CC000397C0B2AF3D2DFE802F0FDFCFBFAF9F89D
:104CD000F7F6F5F4F30050B9BBF1030F30D02068BC
:104CE000CAF834006068CAF8380089F80710D74855
:104CF0000021C8E90610C8F82010C8F82410206860
:104D0000DAF83410081AFBF74EFD1EF0D4F9002231
:104D10003B46FBF7F7FD0CD36068DAF83810081A49
:104D2000FBF741FD1EF0C7F900223B46FBF7EAFD09
:104D3000BDD240F2D120A9F8480089F80750A6E377
:104D40000098FBF730FD1EF0B6F90022C04BFBF7D0
:104D5000C1FD07D240F2D220A9F8480097E3E3E171
:104D6000EEE054E040F2DD20A9F848008FE338B9C6
:104D70002068CAF834006068CAF8380089F807105B
:104D8000B2480021C8E90610C8F82010C8F824105D
:104D90002068DAF83410081AFBF705FD00E059E046
:104DA0001EF089F900223B46FBF7ACFDC7D200217B
:104DB000C8F81810C8F81C10C8F82010C8F824103B
:104DC0000098FBF7F0FC1EF076F90022A04BFBF7F1
:104DD00081FD04D240F2D220A9F8480003E040F25D
:104DE000DD20A9F8480089F8075050E30021C8F8F1
:104DF0001810C8F81C10C8F82010C8F824106068F3
:104E0000CAF82C0040F2D320A9F848003FE3002163
:104E1000C8F81810C8F81C108E48C8E90810009887
:104E2000552808DDC8F82010C8F8241040F2D52015
:104E3000A9F848002BE3BBF1030F01D1012B8DD161
:104E40000021C8F82010C8F824104FF43570A9F8D4
:104E500048001CE338B92068CAF834006068CAF812
:104E6000380089F8071079480021C8E90610C8F809
:104E70002010C8F824102068DAF83410081AFBF75C
:104E800092FC1EF018F900223B46FBF73BFD1DD3B8
:104E90006068DAF83810081AFBF785FC1EF00BF989
:104EA00000223B460FE003E1DEE0D9E09DE061E057
:104EB000EAE298E274E26FE242E206E2E2E1BAE19B
:104EC0007DE146E134E1FBF71DFD8ED20021C8F8FB
:104ED0001810C8F81C10C8F82010C8F8241089F859
:104EE000075040F2D320A9F84800D0E25A490020E8
:104EF000C8E906010021C8F82010C8F82410BBF149
:104F0000030F13D1012B11D06068DAF82C10081AA6
:104F1000FBF749FC1EF0CFF80022504BFBF7F2FCE8
:104F200088D240F2D620A9F84800B0E20021C8F8A3
:104F30001810C8F81C1040F2D920A9F84800A6E2C1
:104F40000021C8F81810C8F81C104248C8E9081019
:104F500000985A2804DD4FF43670A9F8480096E20C
:104F6000BBF1030F01D1012BBFD140F2D720A9F82B
:104F700048008CE238B92068CAF834006068CAF882
:104F8000380089F8071031480021C8E90610C8F830
:104F90002010C8F824102068DAF83410081AFBF73B
:104FA00002FC1EF088F800223B46FBF7ABFC0CD35A
:104FB0006068DAF83810081AFBF7F5FB1EF07BF88A
:104FC00000223B46FBF79EFC8FD20021C8F8181048
:104FD000C8F81C10C8F82010C8F8241089F8075029
:104FE00040F2D620A9F8480051E21B490020C8E948
:104FF00006010021C8F82010C8F82410BBF1030FE7
:1050000013D1012B11D06068DAF82C10081AFBF7C5
:10501000CAFB1EF050F80022104BFBF773FC84D241
:1050200040F2DA20A9F8480031E20021C8F818104F
:10503000C8F81C1040F2D920A9F8480027E2000067
:10504000B0000020A80000200000244000406FC0F5
:10505000008056400000494000406F40000064401E
:10506000A9F84850022612E20020C8F81800C8F833
:105070001C00FB480021C8E908100098FBF793FBCF
:105080001EF019F80022F74BFBF73CFC04D24FF45A
:105090003770A9F84800FAE1BBF1030F03D1F248D9
:1050A00000780128A0D140F2DB20A9F84800EEE109
:1050B00038B92068CAF834006068CAF8380089F83E
:1050C0000710EA490020C8E906010021C8F82010AD
:1050D000C8F824102068DAF83410081AFBF763FBCC
:1050E0001DF0E9FF00223B46FBF70CFC0CD3606887
:1050F000DAF83810081AFBF756FB1DF0DCFF002227
:105100003B46FBF7FFFB8FD20021C8F81810C8F808
:105110001C10C8F82010C8F8241089F8075040F275
:10512000DA20A9F84800B2E1A9F848500126AEE11A
:105130000021C8F81810C8F81C10C8F82010C8F8CA
:1051400024106068CAF82C0040F2DE20A9F848005C
:105150009DE10021C8F81810C8F81C10C4490020AF
:10516000C8E908010098FBF71EFB1DF0A4FF002210
:10517000C04BFBF7AFFB0DD20021C8F81810C8F8E0
:105180001C10C8F82010C8F824104FF43870A9F883
:1051900048007CE1BBF1030F03D1B348007801283C
:1051A00085D10021C8F81810C8F81C10C8F82010C4
:1051B000C8F8241040F2DF20A9F8480067E138B9A8
:1051C0002068CAF834006068CAF8380089F8071007
:1051D000A6480021C8E906100020C8F82000C8F839
:1051E00024002068DAF83410081AFBF7DCFA1DF006
:1051F00062FF00223B46FBF785FB0CD36068DAF8C0
:105200003810081AFBF7CFFA1DF055FF00223B4675
:10521000FBF778FB87D20021C8F81810C8F81C10DB
:10522000C8F82010C8F8241089F8075040F2DE2092
:10523000A9F848002BE190480021C8E90610C8F8F9
:105240002010C8F82410BBF1030F13D1012B11D08B
:105250006068DAF82C10081AFBF7A5FA1DF02BFF8E
:105260000022864BFBF74EFB03D240F2E120A9F867
:1052700048000CE10021C8F81810C8F81C10A9F863
:1052800048C004E10020C8F81800C8F81C0078499C
:10529000C8E908010098FBF786FA1DF00CFF002210
:1052A000774BFBF717FB04D240F2E320A9F8480044
:1052B000EDE0BBF1030F03D16B480078012803D167
:1052C00040F2E220A9F84800E1E038B92068CAF8C5
:1052D00034006068CAF8380089F807106348002174
:1052E000C8E90610C8F82010C8F824102068DAF8B9
:1052F0003410081AFBF757FA1DF0DDFE00223B467A
:10530000FBF700FB0CD36068DAF83810081AFBF7DB
:105310004AFA1DF0D0FE00223B46FBF7F3FA0ED20C
:105320000021C8F81810C8F81C10C8F82010C8F8D8
:10533000241089F8075040F2E120A9F84800A6E0BF
:10534000BBF1030F13D1012B11D06068DAF82C10D8
:10535000081AFBF728FA1DF0AEFE0022474BFBF7B8
:10536000D1FA10D240F2E520A9F848008FE00021E0
:10537000C8F81810C8F81C10C8F82010C8F8241075
:10538000A9F848C083E03C480021C8E90610C8F8E5
:105390002010C8F824107AE0A9F84850032676E0D7
:1053A0000021C8F81810C8F81C103148C8E90810C6
:1053B0000098FBF7F8F91DF07EFE0022314BFBF759
:1053C00089FA04D240F2E720A9F848005FE0BBF177
:1053D000030F03D124480078012858D140F2E62079
:1053E000A9F8480053E038B92068CAF8340060686A
:1053F000CAF8380089F807101C480021C8E90610CF
:10540000C8F82010C8F824102068DAF83410081AF8
:10541000FBF7C9F91DF04FFE00223B46FBF772FA7D
:105420000CD36068DAF83810081AFBF7BCF91DF0E5
:1054300042FE00223B46FBF765FA28D20020C8F85E
:105440001800C8F81C000021C8F82010C8F8241063
:1054500089F8075040F2E520A9F8480017E000005D
:105460000000494000806540A800002000406FC057
:10547000000049C00080564000406F40000064407A
:105480000040554000002040A9F848500126304611
:10549000BDE8F88F2DE9F84F04468B460026A0683A
:1054A000642190FBF1F00090DFF8F893FE4B484642
:1054B000B9F9482000250121C0791B78FB4F09F17B
:1054C000800A09F58078B2F5B67F74D021DCB2F598
:1054D000B37F71D014DC40F2631EA2F2631C7245EC
:1054E0006BD006DC1AB31CF102026DD0012A52D136
:1054F000A9E0BCF1010F7DD0BCF1020FF7D123E18F
:10550000A2F26712052A46D2DFE802F0FEFDFCFB9C
:10551000FA00A2F26D124FF4BA7C0B2AF3D2DFE844
:1055200002F0FEFDFCFBFAF9F8F7F6F5F40050B9CD
:10553000BBF1030F30D02068CAF834006068CAF8A5
:10554000380089F80710DA480021C8E90610C8F8C1
:105550002010C8F824102068DAF83410081AFBF775
:1055600022F91DF0A8FD00223B46FBF7CBF90CD336
:105570006068DAF83810081AFBF715F91DF09BFD82
:1055800000223B46FBF7BEF9BDD240F26110A9F8FC
:10559000480089F80750B9E30098FBF704F91DF0BB
:1055A0008AFD0022C34BFBF795F908D24FF4B17086
:1055B000A9F84800AAE3F2E1EFE055E004E040F288
:1055C0006D10A9F84800A1E338B92068CAF8340082
:1055D0006068CAF8380089F80710B5480021C8E9A2
:1055E0000610C8F82010C8F824102068DAF8341023
:1055F000081A00E05CE0FBF7D6F81DF05CFD002225
:105600003B46FBF77FF9C6D20021C8F81810C8F84E
:105610001C10C8F82010C8F824100098FBF7C3F835
:105620001DF049FD0022A34BFBF754F904D24FF4BF
:10563000B170A9F8480003E040F26D10A9F84800E5
:1056400089F8075062E30021C8F81810C8F81C1048
:10565000C8F82010C8F824106068CAF82C0040F27E
:105660006310A9F8480051E30021C8F81810C8F8E1
:105670001C109148C8E90810009810F1550F08DA7D
:10568000C8F82010C8F8241040F26510A9F84800A6
:105690003CE3BBF1030F01D1012B8BD10021C8F8F2
:1056A0002010C8F824104FF4B270A9F848002DE378
:1056B00038B92068CAF834006068CAF8380089F838
:1056C00007107B480021C8E90610C8F82010C8F868
:1056D00024102068DAF83410081AFBF764F81DF07B
:1056E000EAFC00223B46FBF70DF91DD36068DAF8AF
:1056F0003810081AFBF757F81DF0DDFC00220FE008
:1057000011E1E3E0DEE09EE062E0FCE2A9E27CE29F
:1057100077E24AE20EE2EEE1C6E18AE154E142E1DB
:105720003B46FBF7EFF88DD20021C8F81810C8F8F7
:105730001C10C8F82010C8F8241089F8075040F24F
:105740006310A9F84800E1E25C480021C8E90610AE
:10575000C8F82010C8F82410BBF1030F13D1012B97
:1057600011D06068DAF82C10081AFBF71CF81DF04D
:10577000A2FC0022524BFBF7C5F889D24FF4B3705C
:10578000A9F84800C2E20021C8F81810C8F81C1097
:1057900040F26910A9F84800B8E20021C8F81810D2
:1057A000C8F81C104448C8E90810009810F15A0FB6
:1057B00004DA4FF4B470A9F84800A7E2BBF1030F74
:1057C00001D1012BBFD140F26710A9F848009DE23A
:1057D00038B92068CAF834006068CAF8380089F817
:1057E000071033480021C8E90610C8F82010C8F88F
:1057F00024102068DAF83410081AFAF7D4FF1DF0E4
:105800005AFC00223B46FBF77DF80CD36068DAF8BF
:105810003810081AFAF7C7FF1DF04DFC00223B466E
:10582000FBF770F88FD20021C8F81810C8F81C10C8
:10583000C8F82010C8F8241089F807504FF4B37046
:10584000A9F8480062E2BBF1030F13D1012B11D07C
:105850006068DAF82C10081AFAF7A5FF1DF02BFC87
:105860000022174BFBF74EF812D24FF4B570A9F88F
:1058700048004BE20021C8F81810C8F81C10C8F8FE
:105880002010C8F8241040F26910A9F848003DE241
:105890000A480021C8E90610C8F82010C8F82410EA
:1058A00034E20000B0000020A800002000002440E6
:1058B00000406FC000805640000049C000406F406B
:1058C00000006440A9F8485002261FE20021C8F8F1
:1058D0001810C8F81C10FE48C8E908100098FAF71C
:1058E00062FF1DF0E8FB0022FA4BFBF70BF80ED22B
:1058F0000020C8F81800C8F81C000021C8F82010C3
:10590000C8F824104FF4B670A9F84800FEE1BBF1C6
:10591000030F03D1F0480078012893D140F26B10B7
:10592000A9F84800F2E138B92068CAF83400606884
:10593000CAF8380089F80710E8480021C8E90610BD
:105940000020C8F82000C8F824002068DAF83410D5
:10595000081AFAF728FF1DF0AEFB00223B46FAF7C3
:10596000D1FF0CD36068DAF83810081AFAF71BFF79
:105970001DF0A1FB00223B46FAF7C4FF87D20021AD
:10598000C8F81810C8F81C10C8F82010C8F824105F
:1059900089F807504FF4B570A9F84800B6E1A9F8A6
:1059A00048500126B2E10021C8F81810C8F81C10B0
:1059B000C8F82010C8F824106068CAF82C004FF40A
:1059C000B770A9F84800A1E10021C8F81810C8F87C
:1059D0001C10C348C8E908100098FAF7E4FE1DF04F
:1059E0006AFB0022BF4BFAF775FF0DD20021C8F801
:1059F0001810C8F81C10C8F82010C8F824104FF46C
:105A0000B870A9F8480081E1BBF1030F03D1B24897
:105A10000078012886D10021C8F81810C8F81C1099
:105A2000C8F82010C8F8241040F26F10A9F84800F8
:105A30006CE138B92068CAF834006068CAF83800E8
:105A400089F80710A5480021C8E90610C8F82010F9
:105A5000C8F824102068DAF83410081AFAF7A3FE00
:105A60001DF029FB00223B46FAF74CFF0CD360687F
:105A7000DAF83810081AFAF796FE1DF01CFB00221F
:105A80003B46FAF73FFF89D20021C8F81810C8F842
:105A90001C10C8F82010C8F8241089F807504FF4DB
:105AA000B770A9F8480031E18F480021C8E9061015
:105AB000C8F82010C8F82410BBF1030F13D1012B34
:105AC00011D06068DAF82C10081AFAF76CFE1DF095
:105AD000F2FA0022854BFAF715FF03D240F271105B
