:020000040800F2
:10000000A8950020E901000851130008810F00089D
:100010004D130008190D00082527000800000000F6
:100020000000000000000000000000004501000882
:10003000B30D00080000000089010008191600082F
:10004000030200080302000803020008030200087C
:10005000030200080302000803020008030200086C
:10006000030200080302000803020008030200085C
:10007000030200080302000803020008030200084C
:10008000030200080302000803020008030200083C
:10009000030200080302000803020008030200082C
:1000A000030200080302000803020008030200081C
:1000B00003020008D9180008030200080302000820
:1000C00003020008030200080302000803020008FC
:1000D000030200080302000841230008512300081E
:1000E00003020008030200080302000803020008DC
:1000F00003020008030200080302000803020008CC
:100100000302000803020008E91B000803020008BC
:100110003123000803020008891C0008D11C0008D4
:10012000030200080302000803020008030200089B
:10013000DFF80CD000F0DCFB00480047395B00081A
:10014000A8950020204B19680868B0E8F00F80F3EC
:100150000988BFF36F8F4FF0000080F311884EF0D5
:100160000D0E70470000000006480068006880F32C
:10017000088862B661B6BFF34F8FBFF36F8F00DFA1
:1001800000BF00BF08ED00E0EFF30980BFF36F8F01
:100190000D4B1A6820E9F00F106008B54FF0100001
:1001A00080F3118806F0AAF94FF0000080F311885F
:1001B000BDE8084019680868B0E8F00F80F30988C6
:1001C000BFF36F8F704700BF84000020EFF31180F2
:1001D0004FF0100181F31188704780F31188704748
:1001E000EFF3058070470000064880470648004747
:1001F000FEE7FEE7FEE7FEE7FEE7FEE7FEE7FEE7D7
:10020000FEE7FEE7391600083101000840EA010365
:100210009B0703D009E008C9121F08C0042AFAD2BC
:1002200003E011F8013B00F8013B521EF9D2704780
:10023000D2B201E000F8012B491EFBD27047002228
:10024000F6E710B513460A4604461946FFF7F0FFD5
:10025000204610BDF0B480EA0102D40F4200B2EB98
:10026000410F02D20246084611464A0042D0C30D51
:10027000DDB2C1F3C752AD1A202D35DAC1F3160134
:1002800041F4000204B15242C5F1200602FA06F11F
:100290002A411044B3EBD05F23D0C4B1012DA0EBB1
:1002A000C35009DCF0BC4FF0004202EAC352DBB29B
:1002B00000F5000000F036B9400000F1807000EB5E
:1002C000C350A0F1807040EAD170490009E04908AC
:1002D00041EAC071A0EBC35000F50000400800EBFC
:1002E000C350F0BC00F015B96142012202EB41019C
:1002F000001BF6E7F0BC704781F00041AAE780F0F0
:100300000040A7E780EA010210B502F00043400078
:1003100022D04A001FD0010E01EB1261C0F356003B
:10032000C2F3560240F4000042F40002A0FB022097
:1003300000047F39140400D0401C50EA124001D45C
:100340004000491EC2B20C0604EBD010401C40080D
:10035000802A02D003E0002010BD20F00100002917
:1003600000DA0020184310BD30B480EA010202F028
:10037000004530F0004221F0004013D090B1C30D91
:10038000D40DC2F31601C0F31600E41A41F40001C3
:1003900040F400027D34914201D3641C00E0490026
:1003A000002C02DA30BC002070474FF4000000231C
:1003B000914201D3891A034340084FEA4101F7D122
:1003C00051B1914202D14FF0004105E002D24FF00D
:1003D000010101E06FF0010103EBC450284430BC7F
:1003E00000F097B8C10F80EAE0700844CA0796236E
:1003F000002100F097B896230022114600F092B831
:1004000000F0004220F00040C10DC0F3160040F49F
:1004100000007F2901DA00207047962903DCC1F132
:100420009601C84001E096398840002AF4D0404245
:10043000704720F00040C10DC0F3160040F40000EA
:100440007F2901DA00207047962903DCC1F196016B
:10045000C84070479639884070470000002801DB8B
:10046000C0F10040002901DBC1F100418142704729
:10047000002801DBC0F10040002901DBC1F100418F
:100480008842704730B50B460146002020220124E7
:1004900009E021FA02F59D4205D303FA02F5491B52
:1004A00004FA02F52844151EA2F10102F1DC30BD68
:1004B0002DE9F05F0546002092469B468846064699
:1004C000814640241BE0284641464746224600F02C
:1004D00030FA53465A46C01A914110D31146184675
:1004E000224600F017FA2D1A67EB01084F46224604
:1004F0000120002100F00EFA17EB00094E41201EEA
:10050000A4F10104DFDC484631462A464346BDE8F3
:10051000F09F0029A8BF7047401C490008BF20F089
:100520000100704710B4B0FA80FC00FA0CF050EAF9
:10053000010404BF10BC704749B1CCF1200421FA7A
:1005400004F411FA0CF118BF012121430843A3EB75
:100550000C01CB1D4FEA00614FEA102042BF002082
:1005600010BC704700EBC35010440029A4BF10BC5E
:100570007047401C490008BF20F0010010BC7047C4
:100580002DE9FE4F804681EA0300C00F0C46009023
:1005900021F0004123F00045B8EB0200A94105D24B
:1005A0004046214690461C460B46024623F000403A
:1005B000104347D0270DC7F30A00C3F30A51029036
:1005C000401A019040286BDAC3F3130040F4801BFB
:1005D0000098924620B10023D2EB030A63EB0B0B89
:1005E00001985946C0F14002504600F093F9064682
:1005F0000D4650465946019A00F0ABF910EB080041
:100600006141002487EA115284EAE7731A4340D01B
:10061000009A62B3019A012A4FEA075215DC001BC7
:1006200061EB02014FF0004202EA0752CDE90042BD
:10063000001C41F5801132462B4600F0ABF903B0A7
:10064000BDE8F08F40462146F9E7001B61EB02014F
:10065000001C41F5801300185B412018A2F500171B
:1006600047EB030140EAD570B6196D4111E06D0802
:100670004FEA360645EAC0754FEA0752001B61EBA8
:100680000201001C41F5801149084FEA30000019B1
:10069000514132462B4603B0BDE8F04F00F06BB934
:1006A0000098012240000023D0EB020263EBE073CC
:1006B000009821464FEAE074B8EB000061EB0401BA
:1006C000E9E783F000435BE781F0004158E72DE95B
:1006D000FE4F81EA030404F0004421F0004100943D
:1006E0004FF0000B23F0004350EA01045ED052EAC1
:1006F00003045BD0C3F30A54C1F30A552C44A4F29B
:10070000F3340194A0FB0254C1F3130141F48011AE
:10071000C3F3130343F4801301FB024400FB034EB5
:10072000840A970A44EA815447EA8357A4FB07687E
:1007300002958D0A05FB07854FEA932C04FB0C54A8
:100740002705029D4FEA065847EA1637B5EB08051C
:100750006EEB070C870E920E47EA811742EA83126E
:10076000A7FB0201B6EB0B0164EB00042B0D43EA7F
:100770000C335E1844EB1C50DA465146E7FB02018D
:10078000C5F313044FEA0B3343EA14534FEA043220
:10079000019C43EA0603A4F10C040294009CCDE9F9
:1007A00000B400F0F7F803B0BDE8F08F0020014678
:1007B000F9E72DE9F04D81EA030404F0004B21F044
:1007C000004514464FF0000A23F0004150EA0502AC
:1007D00020D054EA01021DD0C5F30A570246C5F3E2
:1007E0001303C1F31300C1F30A5640F4801543F418
:1007F0008013A7EB0608101BD64608F2FD3873EBF2
:10080000050002D308F1010801E092185B41B8F13C
:10081000000F03DA00200146BDE8F08D00204FF400
:100820008011064684460EE0171B73EB050705D3BF
:10083000121B63EB050306434CEA010C49084FEA1F
:10084000300092185B4150EA0107EDD152EA0300F3
:1008500012D082EA040083EA0501084305D0101B88
:10086000AB4106D20122002306E000224FF00043F4
:1008700002E06FF0010253101AEB06004CEB085136
:1008800010EB0A0041EB0B01BDE8F04D00F073B82E
:10089000C1F30A52C1F3130140F2FF3341F4801156
:1008A0009A4202DA00200146704740F233439A42EE
:1008B000A2F2334202DC524200F03BB800F02AB808
:1008C00030B5041E71F1000404DB4FF000444042D7
:1008D00064EB0101141E73F1000405DB1C464FF0AC
:1008E0000043524263EB0403994208BF904230BD7B
:1008F000064C074D06E0E06840F0010394E807006D
:1009000098471034AC42F6D3FFF716FC146D00087C
:10091000346D0008202A04DB203A00FA02F100209E
:1009200070479140C2F1200320FA03F3194390402D
:100930007047202A04DB203A21FA02F00021704798
:1009400021FA02F3D040C2F1200291400843194637
:100950007047202A06DBCB17203A41FA02F043EA1F
:10096000E07306E041FA02F3D040C2F12002914068
:1009700008431946704710B5141E73F1000408DAD5
:10098000401C41F1000192185B411A4301D120F053
:10099000010010BD2DE9F04D92469B4611B1B1FA10
:1009A00081F202E0B0FA80F220329046FFF7B2FF07
:1009B00004460F4640EA0A0041EA0B0153465A46F4
:1009C000084313D0114653EA010019D0C8F1400280
:1009D0005046FFF7AEFF05460E4650465946424682
:1009E000FFF798FF084305D0012004E02046394670
:1009F000BDE8F08D0020054346EAE0762C433743FE
:100A00000A986305E40AA0EB08000022FD0A44EA04
:100A100047540A3002D500200146E9E701051019C4
:100A20006941DDE9084500196941BDE8F04DA2E7DB
:100A300021B1826842F00102826003E0826822F004
:100A4000010282607047000010B5044612488442DB
:100A500008D10121401500F0EBFC0021601500F0E9
:100A6000E7FC17E00D48844208D10121001500F091
:100A7000DFFC0021201500F0DBFC0BE0084884427D
:100A800008D10121C80300F0D3FC00214FF400403D
:100A900000F0CEFC10BD0000002401400028014001
:100AA000003C0140014600208A6802F004020AB1BD
:100AB000012000E0002070470146C86C80B27047FA
:100AC0000246002013680B400BB1012000E000201B
:100AD0007047014600208A6802F008020AB101202E
:100AE00000E000207047000030B5024600200023DF
:100AF00050680F4C20400D790C6844EA05242043CF
:100B0000506090680B4C2040D1E902542C434D7941
:100B100044EA450420439060D06A20F470000C7CC5
:100B2000641EE4B2234340EA0350D06230BD0000AB
:100B3000FFFEF0FFFDF7F1FFF0B504460D46002083
:100B40000021092D11DDE068A5F10A0606EB460734
:100B5000072606FA07F18843A5F10A0606EB4606C2
:100B600003FA06F10843E0600CE0206905EB450755
:100B7000072606FA07F1884305EB450603FA06F156
:100B800008432061072A0FDA606B561E06EB8607C2
:100B90001F2606FA07F18843561E06EB860605FA5D
:100BA00006F10843606322E00D2A0FDA206BD61F9E
:100BB00006EB86071F2606FA07F18843D61F06EBC9
:100BC000860605FA06F10843206310E0E06AA2F108
:100BD0000D0606EB86071F2606FA07F18843A2F1E9
:100BE0000D0606EB860605FA06F10843E062F0BD45
:100BF000816841F008018160704721B1826842F448
:100C0000A002826003E0826822F4A0028260704742
:100C1000816841F0040181607047000010B5012037
:100C200005F034FD0149086010BD000010000020EF
:100C30001FB500201B4A0123CDE90120009303903A
:100C400003464FF4806218A11A4805F013FE0020F5
:100C5000194A0223CDE901200093039003464FF483
:100C6000806216A1184805F005FE0020174A0323EC
:100C7000CDE901200093039003464FF4806214A154
:100C8000164805F0F7FD0020154A0423CDE90120A0
:100C90000093039003464FF4806212A1144805F0BC
:100CA000E9FD1FBD00000020765461736B5573652C
:100CB00072494600BD650008040000207654617347
:100CC0006B4C45440000000025630008080000202C
:100CD000765461736B4D736750726F00C163000887
:100CE0000C000020765461736B53746172740000C1
:100CF00065640008014648780A7840EA0220704797
:100D00000146087800064A7840EA02408A7840EABC
:100D10000220CA781043704700BFFEE7014609B9B8
:100D200000207047012901D10748FAE7022901D1C3
:100D30000648F6E7032901D10548F2E7042901D165
:100D40000020EEE70020ECE7B8030020E00B0020D5
:100D50000814002008B526208DF8000001208DF829
:100D6000010000208DF8020001208DF80300684684
:100D700000F0F0FA27208DF8000001208DF8010026
:100D800000208DF8020001208DF80300684600F075
:100D9000E1FA34208DF8000001208DF801000020D8
:100DA0008DF8020001208DF80300684600F0D2FAA9
:100DB00008BD70472DE9F0410246002500260020BD
:100DC00000230024002791F803C00CF00F0591F8D0
:100DD00003C00CF0100CBCF1000F03D091F802C05E
:100DE0004CEA050591F800C0BCF1000F31D0146841
:100DF00000202BE04FF0010C0CFA00F3B1F800C01A
:100E00000CEA03069E4220D183004FF00F0C0CFA2F
:100E100003F7BC4305FA03FC4CEA040491F803C051
:100E2000BCF1280F06D14FF0010C0CFA00FCC2F8FF
:100E300014C00AE091F803C0BCF1480F05D14FF08F
:100E4000010C0CFA00FCC2F810C0401C0828D1D3D9
:100E50001460B1F800C0BCF1FF0F34DD546800200D
:100E60002EE000F1080C4FF0010808FA0CF3B1F87D
:100E700000C00CEA03069E4221D183004FF00F0C04
:100E80000CFA03F7BC4305FA03FC4CEA040491F89E
:100E900003C0BCF1280F05D100F1080C08FA0CF8CA
:100EA000C2F8148091F803C0BCF1480F07D100F1DB
:100EB000080C4FF0010808FA0CF8C2F81080401C2A
:100EC0000828CED35460BDE8F0810000F0B50A4692
:100ED000002300240021002500F00046B6F1004F59
:100EE00002D11D4EF16901E01B4E7168C0F303454C
:100EF00083B200F44016B6F5401F08D121F07061AE
:100F0000154E766826F07066134F7E6012E000F48E
:100F10008016B6F5801F06D1032606FA05F4A14314
:100F200041F0706106E0460D360103FA06F6B14362
:100F300041F0706122B1460D360103FA06F63143E5
:100F400000F00046B6F1004F02D1034EF16101E01E
:100F5000014E7160F0BD000000000140024600201B
:100F600093680B400BB1012000E000207047416105
:100F70007047016170470AB1016100E0416170474B
:100F800009A100200CE00A5C124B1A8000BF114A34
:100F9000121F128802F04002002AF8D0421CD0B280
:100FA0002A28F0D300BFFEE70D0A456E7465722053
:100FB000486172644661756C745F48616E646C650B
:100FC000722C2053797374656D2048616C742E0DFA
:100FD0000A000000043801404CF6CC40014908608A
:100FE00070470000003000404AF6AA20014908601E
:100FF0007047000000300040014948607047000021
:101000000030004001498860704700000030004017
:1010100001490860704700000030004000B585B00D
:101020000121052000F0F4F90121480400F0E0F965
:101030000420ADF8100018208DF8130003208DF85F
:10104000120004A96648FFF7B5FE0820ADF81000AD
:1010500004208DF8130004A96148FFF7ABFE04A932
:101060005F48FFF7A7FE4FF4E13000900020ADF895
:101070000400ADF80600ADF80800ADF80C000C2037
:10108000ADF80A006946574801F0CEF9012240F256
:101090002551544801F0A3F90121524801F069F9A2
:1010A0004021504801F05CF90121082000F0B0F91E
:1010B00010208DF8130003208DF812000420ADF8E5
:1010C000100004A94848FFF775FE0121092000F02F
:1010D0009FF90121880400F08BF94FF48060ADF88E
:1010E000100018208DF8130003208DF8120004A9B9
:1010F0003D48FFF75FFE4FF40060ADF8100004209C
:101100008DF8130004A93848FFF754FE04A93648A7
:10111000FFF750FE4FF4E13000900020ADF80400DE
:10112000ADF80600ADF80800ADF80C000C20ADF8E5
:101130000A0069462D4801F077F9012240F2255155
:101140002A4801F04CF90121284801F012F9402108
:10115000264801F005F90121112000F059F901217B
:10116000C80400F045F94FF48060ADF81000182075
:101170008DF8130003208DF8120004A91C48FFF716
:1011800019FE4FF40060ADF8100004208DF8130034
:1011900004A91748FFF70EFE4FF4E130009000203D
:1011A000ADF80400ADF80600ADF80800ADF80C008D
:1011B0000C20ADF80A0069460E4801F035F901220D
:1011C00040F225510B4801F00AF90121094801F0CC
:1011D000D0F84021074801F0C3F805B000BD000079
:1011E0000008014000440040000C0140004800405D
:1011F00000100140004C00400948006800F08000E9
:1012000058B90748006800F4807030B1044800689D
:1012100000F4806008B1012070470020FCE7000066
:10122000081801400948006800F0800058B10748DC
:10123000006800F4807030B90448006800F48060F1
:1012400008B9012070470020FCE7000008180140A1
:101250000948006800F0800058B10748006800F4B1
:10126000807030B90448006800F4806008B1012043
:1012700070470020FCE7000008180140094800689A
:1012800000F0800058B10748006800F4807030B169
:101290000448006800F4806008B90120704700200D
:1012A000FCE70000081801400448006800F08000D6
:1012B000012800D170470020FCE700000818014019
:1012C0000448006800F08000012800D17047002029
:1012D000FCE70000081801400448006800F08000A6
:1012E00008B9012070470020FCE700000818014001
:1012F0000448006800F0800008B901207047002011
:10130000FCE70000081801400448006800F0800075
:1013100008B9012070470020FCE7000008180140D0
:101320000948006800F0800058B90748006800F4D8
:10133000807030B90448006800F4806008B1012072
:1013400070470020FCE700000818014000BFFEE7DE
:101350007047000070B5002100230F22C47804B349
:10136000154C246804F4E064C4F5E064210AC1F17A
:101370000403CA40447804FA03F1847814402143FA
:1013800009010E4C0678A155047804F01F050124CC
:10139000AC4005786D11AD0005F1E025C5F80041C0
:1013A00009E0047804F01F050124AC40044D0678E0
:1013B000761145F8264070BD0CED00E000E400E039
:1013C00080E100E002490143024A116070470000D9
:1013D0000000FA050CED00E001460020034A5068C9
:1013E00020F4404008435060704700000010024065
:1013F00029B1064AD2690243044BDA6104E0034A88
:10140000D2698243014BDA6170470000001002404C
:1014100029B1064A92690243044B9A6104E0034AE7
:1014200092698243014B9A617047000000100240AC
:1014300029B1064AD2680243044BDA6004E0034A49
:10144000D2688243014BDA6070470000001002400E
:1014500030B500210022002400232D4D6D6805F0D9
:101460000C0121B1042905D0082923D105E0294D1B
:10147000056022E0274D05601FE0254D6D6805F4ED
:101480007012234D6D6805F48034022505EB9242FD
:101490001CB9214D554305600BE01D4D6D6805F4E9
:1014A00000351DB11C4D5543056002E0194D5543F3
:1014B000056002E0174D056000BF00BF144D6D6868
:1014C00005F0F0010909154D6B5C0568DD404560CC
:1014D0000F4D6D6805F4E061090A104D6B5C4568BD
:1014E000DD4085600A4D6D6805F46051C90A0B4DF9
:1014F0006B5C4568DD40C560054D6D6805F4404195
:10150000890B074D6B5CC568B5FBF3F5056130BD14
:101510000010024000127A0000093D005C0000202B
:101520006C00002010B50446204601F00FFF10BDEE
:1015300010B500F001F810BD0CB50020019000902E
:101540003348006840F480303149086000BF3048BB
:10155000006800F4003000900198401C0190009851
:1015600018B90198B0F5A06FF1D12948006800F4CE
:10157000003010B10120009001E0002000900098A0
:10158000012843D12348006840F010002149086039
:101590000846006820F0030008600846006840F034
:1015A000020008601A4840681949486008464068C7
:1015B00048600846406840F48060486008464068DB
:1015C00020F47C1048600846406840F4E810486009
:1015D0000846006840F08070086000BF0C48006852
:1015E00000F000700028F9D00948406820F003009E
:1015F000074948600846406840F00200486000BF64
:101600000348406800F00C000828F9D10CBD000028
:10161000001002400020024010B5FEF7D7FD05F093
:10162000CBF918B14FF08050024908600020FEF756
:10163000D4FD10BD04ED00E010B51348006840F083
:1016400001001149086008464068104908400E49E9
:101650004860084600680E4908400B490860084683
:10166000006820F4802008600846406820F4FE00EE
:1016700048604FF41F008860FFF75AFF4FF000608A
:101680000449086010BD0000001002400000FFF88F
:10169000FFFFF6FE08ED00E0F0B50C46154600220F
:1016A0000021068C4FF6FE773E400684028B018CAB
:1016B0004FF60C7632407E1C06EA03162E43324368
:1016C000104EB0420ED0104EB0420BD0B0F1804F51
:1016D00008D00E4EB04205D00D4EB04202D00D4E95
:1016E000B04206D14FF6FD76314044F00106314359
:1016F00005E04FF6F576314044F0010631430283B0
:101700000184F0BD002C0140003401400004004081
:1017100000080040000C0040F0B50C4615460022C1
:1017200000210026078C4FF6EF7C07EA0C070784A0
:10173000028B018C4FF6FF7707EA041640F6FF474D
:101740003A404FF6FF7707EA03373A434FF6FF7701
:1017500007EA05273A43114FB8420ED0104FB8425E
:101760000BD0B0F1804F08D00E4FB84205D00E4FCD
:10177000B84202D00D4FB84206D14FF6DF7739405C
:1017800046F01007394305E04FF65F77394044F0E3
:101790001007394302830184F0BD0000002C014092
:1017A000003401400004004000080040000C0040EC
:1017B000F0B50C461546002200210026078C4FF696
:1017C000FF6C07EA0C070784828B018C4FF6FF77CA
:1017D00007EA04264FF60C773A404FF6FF7707EA00
:1017E00003172F433A43114FB8420ED0104FB8425F
:1017F0000BD0B0F1804F08D00E4FB84205D00E4F3D
:10180000B84202D00D4FB84206D14FF6FF573940CB
:1018100046F48077394305E04FF2FF57394044F4EE
:101820008077394382830184F0BD0000002C0140A1
:10183000003401400004004000080040000C00405B
:10184000F0B50C461546002200210026078C4EF606
:10185000FF7C07EA0C070784828B018C4FF6FF7729
:1018600007EA043640F6FF473A404FF6FF7707EAAB
:1018700005273A434FF6FF7707EA03373A43114FFC
:10188000B8420ED0104FB8420BD0B0F1804F08D004
:101890000E4FB84205D00E4FB84202D00D4FB8429D
:1018A00006D14DF6FF77394046F48057394305E0BD
:1018B00047F6FF57394044F4805739438283018407
:1018C000F0BD0000002C0140003401400004004045
:1018D00000080040000C004010B5002400BFC048C4
:1018E000005D00F08000002856D10121BD4800F0C5
:1018F00093FAE0B1BA48005D00F04000B8B1B848D2
:10190000005D00F03F003F280CD1B548005D40F07D
:101910008000B34908554FF6FF71B148001D20F80B
:10192000141004E0AE48005D401CAD49085502218A
:10193000AC4800F071FA78B3A948005D00F04000AF
:1019400088B1A748005D40F08000A5490855A5482A
:1019500000F052FAA249091D21F814000221A14801
:1019600000F018FB18E000209D49085500219C4814
:10197000001D20F814109B4800F04BFA98490C31D8
:1019800021F814009648005D40F040000C390855DD
:101990000021944800F0FEFA01249148005D00F017
:1019A0008000002858D101218E4800F035FAE0B1BE
:1019B0008B48005D00F04000B8B18948005D00F040
:1019C0003F003F280CD18648005D40F080008449EC
:1019D00008554FF6FF718248001D20F8141004E0EE
:1019E0007F48005D401C7E49085504217D4800F079
:1019F00013FA88B37A48005D00F0400090B178484F
:101A0000005D40F0800076490855764800F0F7F90F
:101A100001467348001D20F814100221714800F09F
:101A20001DFB19E000206E49085500216C48001D7F
:101A300020F814106B4800F0ECF9014668480C30AF
:101A400020F814100C38005D40F04000644908553F
:101A50000021644800F002FB02246148005D00F0B0
:101A60008000002857D101215E4800F0D5F9E0B18F
:101A70005B48005D00F04000B8B15948005D00F0DF
:101A80003F003F280CD15648005D40F0800054498B
:101A900008554FF6FF715248001D20F8141004E05D
:101AA0004F48005D401C4E49085508214D4800F044
:101AB000B3F980B34A48005D00F0400088B148485F
:101AC000005D40F0800046490855464800F09AF90C
:101AD0004349091D21F814000221424800F028FB67
:101AE00019E000203E49085500213D48001D20F81E
:101AF00014103C4800F08DF9014639480C3020F8AC
:101B000014100C38005D40F04000354908550021A4
:101B1000344800F00DFB03243148005D00F08000E4
:101B2000002857D101212F4800F076F9E0B12C4868
:101B3000005D00F04000B8B12948005D00F03F00B2
:101B40003F280CD12648005D40F08000244908550C
:101B50004FF6FF712248001D20F8141004E02048C1
:101B6000005D401C1E49085510211E4800F054F924
:101B700080B31B48005D00F0400090B11848005D44
:101B800040F0800016490855164800F03EF901461D
:101B90001348001D20F814100221124800F01CFB0D
:101BA00018E000200E49085500210D48001D20F8BE
:101BB00014100C4800F02DF909490C3121F81400DB
:101BC0000748005D40F040000C39085500210548E9
:101BD00000F002FB1F21034800F0F0F810BD0000E8
:101BE0003C0200200004004010B50221214800F012
:101BF00013F958B102211F4800F0E0F80022022139
:101C00001C4800F071F91C480068804704211948FD
:101C100000F002F958B10421164800F0CFF8002274
:101C20000421144800F060F9144800688047082136
:101C3000104800F0F1F858B108210E4800F0BEF845
:101C4000002208210B4800F04FF90D48006880473A
:101C50001021084800F0E0F858B11021054800F0C4
:101C6000ADF800221021034800F03EF90548006855
:101C7000804710BD000C00404C00002050000020A8
:101C8000540000205800002010B501210D4800F03C
:101C9000C3F8A8B10C480068401C0B490860142127
:101CA000B0FBF1F201FB120008B903F0F3FA0748A8
:101CB0000068401C054908600121024800F07EF8D8
:101CC00010BD0000001000401C0000201800002083
:101CD00010B501212E4800F09FF8002857D00121AF
:101CE0002B4800F06BF82B480068401C294908601D
:101CF0004FF400412848FFF731F918B9012027496E
:101D0000087016E02548007898B100202349087033
:101D100008464068401C4860002003F041F908B9BB
:101D2000012001E04FF0FF301C49496908441B497C
:101D3000486108211A48FFF711F918B9012017491D
:101D4000487016E01548407898B100201349487053
:101D500008468068401C8860012003F021F908B91A
:101D6000012101E04FF0FF310C48806901440B482C
:101D700081610848006847F23051884207D300204B
:101D80000449086002F082FB012002F07FFB10BDD5
:101D900000140040200000200008014064010020E1
:101DA0000018014021B1028842F08002028004E064
:101DB00002884FF67F731A4002807047CA4302823E
:101DC000704721B1028842F00102028004E00288DB
:101DD0004FF6FE731A400280704731B1B0F84420CC
:101DE00042F40042A0F8442005E0B0F84420C2F3D9
:101DF0000E02A0F8442070470146888E70470146C5
:101E0000088F70470146888F70470146B1F840003F
:101E100070470146888C704730B502460020002389
:101E20000024158A05EA0103958905EA010413B126
:101E30000CB1012000E0002030BD000070B5054667
:101E40000C46244885420ED0234885420BD0B5F17C
:101E5000804F08D02148854205D02148854202D0D4
:101E60002048854200D100E000BF208850B9238976
:101E7000A28861882846FFF70FFCE188284600F019
:101E8000D8F925E0208804280AD12389A28861880E
:101E90002846FFF741FCE188284600F0D3F917E017
:101EA000208808280AD12389A28861882846FFF75C
:101EB0007FFCE188284600F0D2F909E02389A28856
:101EC00061882846FFF7BCFCE188284600F0D0F97D
:101ED00070BD0000002C01400034014000040040AF
:101EE00000080040000C00401AB183890B43838135
:101EF00002E083898B4383817047000070B5002422
:101F000000220023058C4FF6FE7635400584028CB6
:101F10008388048B4FF68F752C40B51E2C400D889E
:101F20002C43751E2A400D892A434D882A43144D9F
:101F3000A8420BD0134DA84208D0134DA84205D09B
:101F4000124DA84202D0124DA84213D14FF6F77598
:101F50002A404D892A434FF6FB752A408D882A4333
:101F60004FF6FF652B404FF6FF552B408D892B43D5
:101F7000CD892B4383800483CD888586028470BD00
:101F8000002C014000340140004001400044014069
:101F9000004801400A460021018C4FF6FD731940AC
:101FA0001143018470470A460021018B4FF6F773F5
:101FB000194011430183704770B5002400220023AB
:101FC000058C4FF6EF7635400584028C8388048BB0
:101FD00048F6FF752C404FF6FF452C400D884FF614
:101FE000FF7606EA05252C434FF6DF752A400D895A
:101FF00006EA05152A434D8806EA05152A43154DBC
:10200000A84202D0144DA8421DD14FF67F752A4038
:102010004D894FF6FF7606EA05152A434FF6BF7540
:102020002A408D8806EA05152A434FF6FF352B40D6
:102030004FF2FF752B408D8906EA85052B43CD892C
:1020400006EA85052B4383800483CD8805870284B7
:1020500070BD0000002C0140003401400A46002100
:10206000018C4FF6DF7319404FF6FF7303EA02133A
:102070001943018470470A460021018B4FF2FF7318
:1020800019404FF6FF7303EA022319430183704797
:1020900070B5002400220023058C4FF6FF66354002
:1020A0000584028C8388848B4FF68F752C404FF605
:1020B000FC752C400D882C434FF6FF552A400D89A6
:1020C0004FF6FF7606EA05252A434D8806EA0525E0
:1020D0002A43154DA84202D0144DA8421DD14FF2FB
:1020E000FF752A404D894FF6FF7606EA05252A43FB
:1020F0004FF6FF352A408D8806EA05252A434EF61D
:10210000FF752B404DF6FF752B408D8906EA0515AE
:102110002B43CD8906EA05152B4383808483CD8824
:102120008587028470BD0000002C0140003401400E
:102130000A460021018C4FF6FF5319404FF6FF73FA
:1021400003EA02231943018470470A460021818B68
:102150004FF6F773194011438183704770B5002221
:1021600000230024058C4EF6FF7635400584038C51
:102170008488828B48F6FF752A404FF6FF452A4037
:102180000D884FF6FF7606EA05252A434DF6FF75C2
:102190002B400D8906EA05352B434D8806EA0535A7
:1021A0002B430B4DA84202D00A4DA84208D14BF652
:1021B000FF752C408D894FF6FF7606EA85152C4376
:1021C00084808283CD88A0F84050038470BD0000D5
:1021D000002C0140003401400A460021018C4DF6DC
:1021E000FF7319404FF6FF7303EA0233194301846A
:1021F00070470A460021818B4FF2FF7319404FF65A
:10220000FF7303EA02231943818370470021018091
:1022100041808180C180018141818181C18170477C
:10222000818670470187704781877047A0F840100A
:102230007047028B4FF6F3731A400283028B0A43F6
:1022400002837047028B4FF2FF331A400283028BE6
:102250004FF6FF7303EA01231A4302837047828B10
:102260004FF6F3731A408283828B0A43828370474E
:10227000828B4FF2FF331A408283828B4FF6FF73BB
:1022800003EA01231A438283704700000022028878
:102290001D4B98420ED01D4B98420BD0B0F1804F91
:1022A00008D01B4B984205D01A4B984202D01A4BCB
:1022B000984204D14FF68F731A404B881A43174B3C
:1022C000984207D0164B984204D04FF6FF431A406D
:1022D000CB881A4302808B8883850B8803850A4B41
:1022E00098420BD0094B984208D00E4B984205D02B
:1022F0000D4B984202D00D4B984201D10B7A0386C8
:102300000123838270470000002C0140003401400B
:102310000004004000080040000C00400010004095
:1023200000140040004001400044014000480140CA
:1023300010B5024800F0EDF810BD000008140020B0
:1023400010B5024800F0E5F810BD0000B803002009
:1023500010B5024800F0DDF810BD0000E00B0020D1
:1023600001F40072B2F5007F00D100BFCA430280C1
:10237000704721B1828942F40052828104E082894F
:102380004DF6FF731A408281704770B502460024F3
:1023900000230025002040F66A16B14200D100BF9C
:1023A000C1F3421501F01F03012606FA03F3012DC4
:1023B00002D19689334006E0022D02D1168A3340BD
:1023C00001E0968A33400C12012606FA04F41688BE
:1023D000344013B10CB1012000E0002070BDF0B515
:1023E0000346002400260025002040F66A17B94263
:1023F00000D100BF1846C1F3421401F01F060127A7
:1024000007FA06F5012C01D10C3004E0022C01D1B1
:10241000103000E014301AB107682F43076002E063
:102420000768AF430760F0BD2DE9F04786B0054669
:102430000E460024A24600BFA1460027B08900B185
:1024400000BF2F462C8A4CF6FF700440F0880443EE
:102450002C82AC894EF6F3100440B08831890843D1
:10246000718908430443AC81AC8A4FF6FF400440B5
:10247000B0890443AC8201A8FEF7EAFF1F488742F7
:1024800002D1DDF810A001E0DDF80CA0A88900F46D
:10249000004040B10AEBCA0000EB0A103168490065
:1024A000B0FBF1F807E00AEBCA0000EB0A10316854
:1024B0008900B0FBF1F86420B8FBF0F004012009BA
:1024C000642101FB1089A88900F4004040B132204A
:1024D00000EBC900B0FBF1F000F00700044308E096
:1024E000322000EB09106421B0FBF1F000F00F0086
:1024F00004432C8106B0BDE8F0870000003801409D
:1025000001468888C0F308007047C1F30802828042
:10251000704770B5044640F225512068FFF735FF3B
:10252000E0B12068FFF7ECFFC5B2E18AA06845542E
:10253000E08A401C80B2E082E189884201DB002011
:10254000E082608BE189884202DA608B401C608304
:10255000606A10B12846616A884700BF40F227715F
:102560002068FFF712FF08B3A08A60B9002240F28A
:1025700027712068FFF733FF012240F226612068AF
:10258000FFF72DFF37E0638A6268D15C2068FFF7B0
:10259000BCFF608A401C80B26082A189884201DB56
:1025A00000206082A08A401EA08224E040F22661C2
:1025B0002068FFF7EAFEF0B1A08A50B9002240F28D
:1025C00026612068FFF70BFF206AA0B1206A8047D0
:1025D00011E0638A6268D15C2068FFF796FF608A29
:1025E000401C80B26082A189884201DB00206082A9
:1025F000A08A401EA08270BDF8B504460E4617465C
:10260000002529E00EE0012000F0ADF8A08A00903E
:10261000002000F0A8F8A089BDF80010884200DD75
:1026200001E000BFEFE700BF705D228A6168885457
:10263000012000F098F8208A401C80B22082A189F5
:10264000884201DB00202082A08A401CA08200205A
:1026500000F089F8681C85B2BD42D3DB012240F24C
:1026600027712068FFF7BBFEF8BD00002048214914
:10267000086021484860214888604FF48060888164
:10268000C881002008824882C882088348838882E3
:10269000C861086248621A481A4908601A484860C6
:1026A0001A4888604FF480608881C88100200882C1
:1026B0004882C882088348838882C86108621448B7
:1026C00048621448144908601448486014488860F7
:1026D0004FF480608881C881002008824882C882C7
:1026E000088348838882C861086248627047000096
:1026F00000440040B8030020E0030020E007002071
:1027000000480040E00B0020080C002008100020CA
:1027100025150008004C004008140020301400204B
:102720003018002000BFFEE70FB4054B10B503A919
:10273000044A029800F0CCF810BC5DF814FB0000CD
:10274000FB590008E800002002E008C8121F08C179
:10275000002AFAD170477047002001E001C1121F22
:10276000002AFBD1704780F3108870472DE9FF5F86
:10277000DDE90220010DDDF838B0024318D044F63F
:102780001050A1F2FF3141430D140F98012820D0C1
:10279000A5EB0B00401C5FEA000A4FF00004474E17
:1027A000DFF81C91A046504616D5CAF1000728E074
:1027B0000F98012443A2012808D0002100980F9B04
:1027C000C0E90021C0E90243BDE8FF9F6FEA0B01A9
:1027D000F4E7CBF10000DEE7074612E0F80707D088
:1027E0002246334640464946FDF771FF80468946FA
:1027F0002246334610461946FDF769FF04460E4649
:102800007F10002FEAD1DDE90201BAF1000F424644
:102810004B4602DAFDF75BFF01E0FDF7CAFF044615
:102820000E460022284BFEF74BF803D84FF0FF303E
:10283000014607E00022254B20463146FDF7A0FE69
:10284000FEF726F8102409E0002C0ADB0A220023F8
:10285000FDF72EFE019B30321A55641E50EA01022C
:10286000F2D1641C019AC4F1110314440F9A012A95
:1028700003D0012208430DD10AE0084304D0002010
:102880004FF0110B0F9080E7A3EB0B056D1E0DE0D1
:102890005B4504DD4FF0000205F1010504E003DAB9
:1028A0004FF00002A5F10105002AECD000980F9925
:1028B000C0E90231C0E9004586E70000000024407D
:1028C0000000F03F300000000000F0430000E03F57
:1028D0002DE9FF4F95B09B468946064600250FE23D
:1028E000252877D100242746F84A0121059400E0E5
:1028F000044316F8013F203B01FA03F01042F7D1E0
:1029000030782A2811D06FF02F033078A0F13002F0
:10291000092A16D8059A44F0020402EB820203EB5E
:1029200042021044761C0590EFE759F8042B0592FB
:10293000002A03DA504244F40054059044F00204A3
:10294000761C30782E2816D116F8010F44F00404B6
:102950002A280DD06FF02F023078A0F13003092B18
:1029600009D807EB870302EB4303C718761CF3E78C
:1029700059F8047B761C30786C280FD006DC4C2884
:1029800017D068280DD06A2814D104E0742810D01C
:102990007A280FD10DE044F400140AE044F48014C6
:1029A00001E044F440147278824202D104F58014AC
:1029B000761C761C307866280BD013DC582877D02C
:1029C00009DC002875D04528F6D04628F4D04728E1
:1029D0001AD19DE118E0632835D0642879D06528A4
:1029E00012D195E1702873D008DC6728F1D06928EE
:1029F0006FD06E280DD06F2806D1B5E073282CD08B
:102A0000752875D0782874D05A46179990476D1C50
:102A100075E1C4F30250022809D003280DD0D9F87B
:102A2000001004280DD00D6009F1040967E1D9F800
:102A30000010EA17C1E90052F6E7D9F800100D803E
:102A4000F2E70D70F0E719F8041B8DF80010002074
:102A50008DF80100EA46012003E059F804AB4FF07D
:102A6000FF3061074FF0000102D40DE008F10101D1
:102A70008846B9420FDA8045F8DB1AF808100029B9
:102A8000F4D108E008F1010188468142FADB1AF826
:102A900008100029F6D105985B46A0EB08072146EF
:102AA0003846179A00F094FA284400EB080507E02E
:102AB0004DE029E10DE01AF8010B5A4617999047AD
:102AC000B8F10108F7D25B4621463846179A13E160
:102AD00042E00A220092C4F302524FF0000A022A96
:102AE00008D059F804CB032A4FEAEC710AD00DE064
:102AF00029E02AE009F1070121F00702F2E802C10A
:102B0000914609E00FFA8CFC4FEAEC71042A03D1DC
:102B10004FFA8CFC4FEAEC71002907DA0A460021D3
:102B2000DCF1000C61EB02012D2202E0220504D54C
:102B30002B228DF80420012203E0E20701D020229D
:102B4000F7E7904659E00A2102E010220DE010213B
:102B50004FF0000A00910BE010224FF0000A44F001
:102B600004040827009203E008224FF0000A0092B4
:102B7000C4F30252022A05D059F804CB0021032ADB
:102B800008D009E009F1070121F00702F2E802C1CB
:102B9000914605E01FFA8CFC042A01D10CF0FF0CD1
:102BA0004FF00008220728D5702806D0009B83F03C
:102BB000100353EA0A0305D00EE040228DF80420EA
:102BC000012208E05CEA010206D030228DF80420E0
:102BD0008DF8050002229046009B83F0080353EA1B
:102BE0000A030AD15CEA010201D1620705D530224D
:102BF0008DF804204FF001087F1E582804D034A01F
:102C000003900EA802900DE036A0F9E75346604607
:102C1000009AFDF74DFC84460398825C0298401EA2
:102C2000029002705CEA0100F0D1029806A9081A2D
:102C300000F1200A600702D524F4803400E0012767
:102C4000574502DDA7EB0A0000E0002000EB0A0177
:102C5000009005984144401A0590E00306D45B4675
:102C60002146179A059800F0B3F90544002706E0BD
:102C700001A85A46C05D179990476D1C7F1C4745B7
:102C8000F6DBE0030CD55B462146179A059800F069
:102C90009FF9054404E030205A46179990476D1C6F
:102CA0000099481E00900029F5DC08E0029802997E
:102CB0005A460078491C0291179990476D1CBAF149
:102CC0000001AAF1010AF1DC65E100000928010018
:102CD0003031323334353637383961626364656692
:102CE0000000000030313233343536373839414254
:102CF000434445460000000000F058F90544761CA6
:102D0000307800287FF4ECAD19B02846BDE8F08F8C
:102D1000620700D4062709F1070222F0070CFCE83D
:102D20000223E14603F000485FEA080C02D00FF2EC
:102D3000702C0DE05FEA045C02D50FF2682C07E00E
:102D40005FEAC47C02D00FF2602C01E0AFF2700C9D
:102D50004FF0FF3823F00043CDF850C065280CD069
:102D600006DC452809D046281DD047283DD13DE046
:102D7000662818D067287ED138E00021112F01DBAA
:102D8000112000E0781CCDE9000106A90EA8FFF78C
:102D9000EDFCDDE90F010E9A03910021009207F18D
:102DA000010A04914DE04FF000400097CDE9011079
:102DB00006A90EA8FFF7DAFCDDE90F0203920E9BCD
:102DC00011990022DDF80CA00093049211B9791C2E
:102DD00000EB010AB7EB0A0004D4C0F1FF3007F1A1
:102DE000010A0490AAEB0700019044E0012F00DAE9
:102DF00001270021112F01DD112000E03846CDE927
:102E0000000106A90EA8FFF7B1FCDDE90F010E9A3B
:102E10000391002104910092BA4621070CD4039932
:102E2000514500DA8A46BAF1010F05DD009AAAF190
:102E30000101515C302908D0B84202DA10F1040FC8
:102E400006DA0121CDE9011015E0AAF10101E9E757
:102E5000002805DC049901440491AAEB000102E07A
:102E6000411C514500DD8A460499401A401C0190DE
:102E70004FF000400290200704D40198504501DB38
:102E8000CDF8048000208DF84F0002980DF14F0717
:102E9000B0F1004F25D02B200E9002984FF0020881
:102EA00000280CDA404202902D200E9007E00A2103
:102EB0000298FDF7E7FA3031029007F8011DB8F1EA
:102EC0000001A8F10108F2DC02980028EFD1791E78
:102ED0000E980870307800F0200040F0450007F8A8
:102EE000020D12A8C01B00F107081498007800B169
:102EF000012000EB0A01019801EBE07105984144C3
:102F0000401A401E0590E00306D45B462146179AFE
:102F1000059800F05DF805441498007818B15A46F9
:102F2000179990476D1CE00324D55B462146179AFC
:102F3000059800F04DF805441CE00498002807DBD4
:102F4000DDE90301884203DD0098405C179901E048
:102F5000179930205A469047049805F10105401C06
:102F600004900198401E019004D12E205A461799D2
:102F700090476D1CBAF10001AAF1010ADDDC05E001
:102F800017F8010B5A46179990476D1CB8F10001CC
:102F9000A8F10108F4DC5B462146179A0598ABE6D8
:102FA0002D0000002B000000200000002DE9F04162
:102FB000044600251E461746880404D405E0394619
:102FC0002020B0476D1C641EF9D52846BDE8F0816D
:102FD0002DE9F041044600251E469046C80301D560
:102FE000302700E02027880404D505E04146384614
:102FF000B0476D1C641EF9D52846BDE8F0812DE967
:10300000F04105460E4617460024B04600BF1FE0BB
:1030100002F04AFDB62002F01DFD02F06FFD00B186
:103020001BE008F0FF0002F015FD02F067FD00B1A3
:1030300013E0285D02F00EFD02F060FD00B10CE02F
:1030400002F04AFD08F101001FFA80F8601C84B20A
:10305000BC42DDDB0120BDE8F08102F03DFD002037
:10306000F9E700001CB501211748FDF72FFF42F2D8
:10307000107000210123154ACDE9001051151448A4
:1030800002F008FA42F21070002102230F4ACDE943
:103090000010D1140E4802F0FDF942F21070002128
:1030A00003230A4ACDE900105114094802F0F2F94D
:1030B00042F2107000210423044ACDE900101903E4
:1030C000034802F0E7F91CBDC0001600002C0140C7
:1030D0000018014000B587B001214FF48260FEF76F
:1030E00097F94FF40040FEF777F91020ADF804008F
:1030F00000208DF8070001A91748FDF75BFE17486F
:10310000FDF7A2FC002002908DF80C008DF80D0058
:103110004FF4602004900020059001208DF81800E5
:1031200002A90E48FDF7E0FC01210C48FDF780FCE8
:103130000A48FDF75DFD00BF0848FDF7CAFC0028FE
:10314000FAD10648FDF764FD00BF0448FDF7AAFC6C
:103150000028FAD107B000BD00100140002801404E
:1031600070B504460D46072C24DC012D0ED12046F7
:10317000E11704EB5171C910A4EBC1020121914088
:103180001F4A127811431E4A11700DE02046E117C4
:1031900004EB5171C910A4EBC10201219140184AFE
:1031A00012788A4316490A70012202211448FFF757
:1031B00026FF23E0012D0ED12046E11704EB5171CB
:1031C000C910A4EBC102012191400E4A12781143AB
:1031D0000C4A11700DE02046E11704EB5171C91043
:1031E000A4EBC10201219140064A12788A430549A5
:1031F0000A70012203210348FFF701FF70BD0000A0
:10320000240000202500002070B50948017A407A8A
:1032100041EA002004B22046FDF7E4F805460549DE
:10322000FDF7A2F8024948610846048370BD00001A
:10323000800100200000C84223480179407941EA1A
:10324000002000B2214908801F488179C07941EAF5
:10325000002000B21D4948801B48017A407A41EAAB
:10326000002000B2194988801748817AC07A41EA63
:10327000002000B21549C8801348017B407B41EA19
:10328000002000B2114908810F48807B40B288724B
:103290000D48C17B007C41EA002000B20B498881C7
:1032A0000846B0F90000B1F9021008440749B1F925
:1032B000041008440549B1F90610884201D00020E5
:1032C00070470120FCE70000800100209C010020E5
:1032D00010B51048007800B910BD00200D490870E5
:1032E000084640880D2805D0084641880AA0FFF707
:1032F0001BFA09E0FFF7A0FF18B90CA0FFF714FABA
:1033000002E0FFF781FF00BF00200249488000BFB4
:10331000E2E7000080010020616E676C65206C654B
:103320006E206572723A25640D0A0000616E676C4A
:10333000652063686B206572723A0D0A0000000018
:103340000148B0F9180070478001002070B50446AC
:1033500000200A49087040F22F15094A2946032027
:1033600002F080FA054840880D2806DA03494888AB
:10337000411C024A5180111D0C5470BD8001002077
:10338000B933000810B54FF400510A48FDF7F1FDBC
:103390000A2000F0CDF84FF400510648FDF7E7FD94
:1033A0000A2000F0C5F84FF400510248FDF7E1FD96
:1033B00010BD0000000C014010B50120024908704A
:1033C000FFF786FF10BD00008001002030B50446E5
:1033D0000D46FF21FF22002307E0E05C084480B295
:1033E0000146104482B2581CC3B2AB42F5DBC8B2EE
:1033F00000EB2121D0B200EB222241EA022080B270
:1034000030BD10B5B62002F001FB08B9012010BD97
:1034100002F062FB0020FAE710B5002200EB400347
:103420000B44024C44F8232010BD00005C02002035
:1034300010B5002420211148FDF790FD08B144F09B
:1034400001044FF480710E48FDF788FD08B144F087
:1034500002040CB9032010BD012C01D10020FAE7B1
:10346000022C01D10120F6E7032C01D10220F2E762
:1034700004A0FFF759F90320EDE700000008014020
:10348000001C0140B2BBBACFC0EDB5C4C5F6D7B27F
:10349000BDE1B9FB0D0A0000F8B505460C4628460B
:1034A00001F00CF906460121FDF7B2FFADF800402E
:1034B00010208DF8030003208DF80200694628468D
:1034C000FDF778FCF8BD00002DE9F84306460D46EF
:1034D00014469846304601F0F1F807460121FDF701
:1034E00097FF1148844202D01048844207D12046F9
:1034F00001F018F907460121FDF78AFF06E0204692
:1035000001F010F907460121FDF772FFADF80050F8
:1035100018208DF8030003208DF80200694630461C
:10352000FDF748FCBDE8F883002C01400034014061
:1035300010B504464FF47A7104FB01F000F002F874
:1035400010BD000030B5084C63680021074C2468AA
:10355000074DB4FBF5F404FB00F202E0024C646892
:10356000E11A9142FAD330BD001000E07000002053
:1035700040420F0070B5FE48007800B970BDFC48AD
:10358000407815282DD2DFE810F015002D00C90075
:10359000E7008301A1014902670203032103BD0380
:1035A000DB038304A1043D055B0501061F06AE068F
:1035B000CC065B07EE48007A0A2190FBF1F201FB92
:1035C0001200EC4901EB4000447800212046FFF74F
:1035D000C7FD03F0EBF9E649486008464078401C17
:1035E00048708EE303F0E2F9E1494968401A032884
:1035F0007BD3DF48007A0A2190FBF1F201FB120035
:10360000DC4911F8104000212046FFF7A9FD782081
:10361000FFF798FF00F0BAFFD549097A0A2291FB1B
:10362000F2F302FB1311D44A42F83100D048007A79
:103630000A2190FBF1F201FB1200CE4911F8104073
:1036400001212046FFF78CFD1420FFF77BFF00F0DF
:103650009DFFC749097A0A2291FBF2F302FB13117D
:10366000C54A02EBC1014860C148007A0A2190FBBB
:10367000F1F201FB1200BF4901EB40004478012147
:103680002046FFF76DFDBA494D7805EBD57149101D
:10369000B94A02EBC10148684FF07E51FCF7E8FEE1
:1036A00001D8002007E0B248447804EBD470401001
:1036B000B14951F83000AE49097A0A2291FBF2F380
:1036C00002FB1311AD4A42F82100A9494C7804EBE2
:1036D000D4714910A84A02EBC10148684FF07E51ED
:1036E000FCF7C6FE02D8012001E016E00020A04948
:1036F000097A0A2291FBF2F302FB1311A04A5054FB
:103700009B48007A401C9A49087203F04FF9984987
:10371000486008464078401C487062E703F046F96C
:1037200093494968401A16D09148007A0A2190FBC3
:10373000F1F201FB12008F4901EB400044780021B7
:103740002046FFF70DFD03F031F98949486008462E
:103750004078401C487044E703F028F984494968E0
:10376000401A03287BD38248007A0A2190FBF1F2A9
:1037700001FB12007F4911F8104000212046FFF79D
:10378000EFFC7820FFF7DEFE00F000FF7849097AB1
:103790000A2291FBF2F302FB1311774A42F831003F
:1037A0007348007A0A2190FBF1F201FB1200714983
:1037B00011F8104001212046FFF7D2FC1420FFF73A
:1037C000C1FE00F0E3FE6A49097A0A2291FBF2F396
:1037D00002FB1311684A02EBC10148606448007A99
:1037E0000A2190FBF1F201FB1200624901EB40005B
:1037F000447801212046FFF7B3FC5D494D7805EB85
:10380000D57149105C4A02EBC10148684FF07E5106
:10381000FCF72EFE01D8002007E05548447804EB61
:10382000D4704010544951F830005149097A0A22A5
:1038300091FBF2F302FB1311504A42F821004C496C
:103840004C7804EBD47149104B4A02EBC101486833
:103850004FF07E51FCF70CFE02D8012001E016E08B
:1038600000204349097A0A2291FBF2F302FB13116B
:10387000434A50543E48007A401C3D49087203F0C8
:1038800095F83B49486008464078401C4870A8E6D7
:1038900003F08CF836494968401A16D03448007A4B
:1038A0000A2190FBF1F201FB1200324901EB4000CA
:1038B000447800212046FFF753FC03F077F82C49A9
:1038C000486008464078401C48708AE603F06EF86D
:1038D00027494968401A03287DD32548007A0A21E0
:1038E00090FBF1F201FB1200224911F81040002177
:1038F0002046FFF735FC7820FFF724FE00F046FE57
:103900001B49097A0A2291FBF2F302FB13111A4AAE
:1039100042F831001648007A0A2190FBF1F201FBCF
:103920001200144911F8104001212046FFF718FC3D
:103930001420FFF707FE00F029FE0D49097A0A223C
:1039400091FBF2F302FB13110B4A02EBC101486039
:103950000748007A0A2190FBF1F201FB12000549A9
:1039600001EB4000447801212046FFF7F9FB09E014
:10397000AC01002028000020B8010020080200202F
:1039800030020020FE494D7805EBD5714910FD4A03
:1039900002EBC10148684FF07E51FCF769FD01D888
:1039A000002007E0F648447804EBD4704010F54955
:1039B00051F83000F249097A0A2291FBF2F302FB36
:1039C0001311F14A42F82100ED494C7804EBD4710F
:1039D0004910EC4A00E020E002EBC10148684FF0DA
:1039E0007E51FCF745FD01D8012000E00020E449AC
:1039F000097A0A2291FBF2F302FB1311E34A5054B5
:103A0000DF48007A401CDE49087202F0CFFFDC4933
:103A1000486008464078401C4870E2E502F0C6FF66
:103A2000D7494968401A16D0D548007A0A2190FB38
:103A3000F1F201FB1200D64901EB4000447800216D
:103A40002046FFF78DFB02F0B1FFCD4948600846E4
:103A50004078401C4870C4E502F0A8FFC849496896
:103A6000401A03287BD3C648007A0A2190FBF1F262
:103A700001FB1200C64911F8104000212046FFF753
:103A80006FFB7820FFF75EFD00F080FDBC49097AEE
:103A90000A2291FBF2F302FB1311BA4A42F83100F9
:103AA000B748007A0A2190FBF1F201FB1200B849F5
:103AB00011F8104001212046FFF752FB1420FFF7B8
:103AC00041FD00F063FDAE49097A0A2291FBF2F351
:103AD00002FB1311AB4A02EBC1014860A848007A0F
:103AE0000A2190FBF1F201FB1200A94901EB400011
:103AF000447801212046FFF733FBA1494D7805EBBF
:103B0000D57149109F4A02EBC10148684FF07E51C0
:103B1000FCF7AEFC01D8002007E09948447804EB9C
:103B2000D4704010974951F830009549097A0A221B
:103B300091FBF2F302FB1311934A42F821009049E2
:103B40004C7804EBD47149108E4A02EBC1014868ED
:103B50004FF07E51FCF78CFC02D8012001E016E00A
:103B600000208749097A0A2291FBF2F302FB131124
:103B7000864A50548248007A401C8149087202F0FB
:103B800015FF7F49486008464078401C487028E58A
:103B900002F00CFF7A494968401A16D07848007A3A
:103BA0000A2190FBF1F201FB1200794901EB400080
:103BB000447800212046FFF7D3FA02F0F7FE70495F
:103BC000486008464078401C48700AE502F0EEFE66
:103BD0006B494968401A03287BD36948007A0A2157
:103BE00090FBF1F201FB1200694911F8104000212D
:103BF0002046FFF7B5FA7820FFF7A4FC00F0C6FCDA
:103C00005F49097A0A2291FBF2F302FB13115D4A24
:103C100042F831005A48007A0A2190FBF1F201FB88
:103C200012005B4911F8104001212046FFF798FA75
:103C30001420FFF787FC00F0A9FC5149097A0A22F9
:103C400091FBF2F302FB13114E4A02EBC1014860F3
:103C50004B48007A0A2190FBF1F201FB12004C491B
:103C600001EB4000447801212046FFF779FA4449EE
:103C70004D7805EBD5714910424A02EBC101486805
:103C80004FF07E51FCF7F4FB01D8002007E03C48E0
:103C9000447804EBD47040103A4951F83000384968
:103CA000097A0A2291FBF2F302FB1311364A42F819
:103CB000210033494C7804EBD4714910314A02EBAE
:103CC000C10148684FF07E51FCF7D2FB02D80120B9
:103CD00001E016E000202A49097A0A2291FBF2F35A
:103CE00002FB1311294A50542548007A401C2449EC
:103CF000087202F05BFE2249486008464078401C8A
:103D00004870A8E302F052FE1D494968401A16D0D7
:103D10001B48007A0A2190FBF1F201FB12001C49BA
:103D200001EB4000447800212046FFF719FA02F029
:103D30003DFE1349486008464078401C48708AE3BD
:103D400002F034FE0E494968401A03287DD30C481E
:103D5000007A0A2190FBF1F201FB12000C4911F8E4
:103D6000104000212046FFF7FBF97820FFF7EAFB1F
:103D700000F00CFC0249097A0A2291FBF2F309E0F7
:103D8000AC010020B8010020080200203002002011
:103D90002800002002FB1311F74A42F83100F748CF
:103DA000007A0A2190FBF1F201FB1200F44911F8AC
:103DB000104001212046FFF7D3F91420FFF7C2FB82
:103DC00000F0E4FBED49097A0A2291FBF2F302FBD1
:103DD0001311E94A02EBC1014860E848007A0A2160
:103DE00090FBF1F201FB1200E54901EB4000447841
:103DF00001212046FFF7B4F9E0494D7805EBD57174
:103E00004910DD4A02EBC10148684FF07E51FCF7D2
:103E10002FFB01D8002007E0D848447804EBD47089
:103E20004010D54951F83000D449097A0A2291FB53
:103E3000F2F302FB1311D34A42F82100CF494C7828
:103E400004EBD4714910CC4A00E020E002EBC10140
:103E500048684FF07E51FCF70BFB01D8012000E0D1
:103E60000020C649097A0A2291FBF2F302FB1311E2
:103E7000C54A5054C148007A401CC049087202F03B
:103E800095FDBE49486008464078401C4870E2E213
:103E900002F08CFDB9494968401A16D0B748007A3B
:103EA0000A2190FBF1F201FB1200B54901EB400041
:103EB000447800212046FFF753F902F077FDAF491F
:103EC000486008464078401C4870C4E202F06EFD2D
:103ED000AA494968401A03287BD3A848007A0A21D6
:103EE00090FBF1F201FB1200A54911F810400021EE
:103EF0002046FFF735F97820FFF724FB00F046FB5A
:103F00009E49097A0A2291FBF2F302FB13119A4AA5
:103F100042F831009948007A0A2190FBF1F201FB46
:103F20001200974911F8104001212046FFF718F9B7
:103F30001420FFF707FB00F029FB9049097A0A22B9
:103F400091FBF2F302FB13118B4A02EBC1014860B3
:103F50008A48007A0A2190FBF1F201FB120088499D
:103F600001EB4000447801212046FFF7F9F883492E
:103F70004D7805EBD57149107F4A02EBC1014868C5
:103F80004FF07E51FCF774FA01D8002007E07B481F
:103F9000447804EBD4704010774951F830007749E9
:103FA000097A0A2291FBF2F302FB1311754A42F8D7
:103FB000210072494C7804EBD47149106E4A02EB2F
:103FC000C10148684FF07E51FCF752FA02D8012037
:103FD00001E016E000206949097A0A2291FBF2F318
:103FE00002FB1311684A50546448007A401C63492C
:103FF000087202F0DBFC6149486008464078401CCA
:10400000487028E202F0D2FC5C494968401A16D098
:104010005A48007A0A2190FBF1F201FB120058493C
:1040200001EB4000447800212046FFF799F802F0A8
:10403000BDFC5249486008464078401C48700AE27E
:1040400002F0B4FC4D494968401A03287BD34B4821
:10405000007A0A2190FBF1F201FB1200484911F8A5
:10406000104000212046FFF77BF87820FFF76AFA1E
:1040700000F08CFA4149097A0A2291FBF2F302FB23
:1040800013113D4A42F831003C48007A0A2190FB66
:10409000F1F201FB12003A4911F8104001212046CB
:1040A000FFF75EF81420FFF74DFA00F06FFA33497E
:1040B000097A0A2291FBF2F302FB13112E4A02EB5A
:1040C000C10148602D48007A0A2190FBF1F201FB02
:1040D00012002B4901EB4000447801212046FFF7F4
:1040E0003FF826494D7805EBD5714910224A02EB7D
:1040F000C10148684FF07E51FCF7BAF901D80020A1
:1041000007E01E48447804EBD47040101A4951F877
:1041100030001A49097A0A2291FBF2F302FB1311CB
:10412000184A42F8210015494C7804EBD471491023
:10413000114A02EBC10148684FF07E51FCF798F933
:1041400002D8012001E016E000200C49097A0A2279
:1041500091FBF2F302FB13110B4A50540748007A0B
:10416000401C0649087202F021FC044948600846D8
:104170004078401C48706EE1B8010020AC0100207E
:1041800028000020080200203002002002F00EFC6F
:10419000B3494968401A16D0B148007A0A2190FB09
:1041A000F1F201FB1200AF4901EB4000447800211D
:1041B0002046FEF7D5FF02F0F9FBA9494860084602
:1041C0004078401C487046E102F0F0FBA449496881
:1041D000401A03287DD37820FFF7B4F900F0D6F910
:1041E0009F49097A0A2291FBF2F302FB13119E4ABE
:1041F00042F831009A48007A0A2190FBF1F201FB63
:104200001200984911F8104001212046FEF7A8FF3E
:104210001420FFF797F900F0B9F99149097A0A22B9
:1042200091FBF2F302FB13118F4A02EBC1014860CC
:104230008B48007A0A2190FBF1F201FB12008949B8
:1042400001EB4000447801212046FEF789FF8449B4
:104250004D7805EBD5714910834A02EBC1014868DE
:104260004FF07E51FCF704F901D8002007E07C48AC
:10427000447804EBD47040107B4951F83000784901
:10428000097A0A2291FBF2F302FB1311774A42F8F2
:10429000210073494C7804EBD4714910724A02EB47
:1042A000C10148684FF07E51FCF7E2F801D80120C7
:1042B00000E000206A49097A0A2291FBF2F302FB2E
:1042C00013116B4A50546648007A401C64490872C6
:1042D00000E007E002F06AFB614948600846407868
:1042E000401C4870B7E002F061FB5D494968401A24
:1042F00016D05B48007A0A2190FBF1F201FB120014
:10430000584901EB4000447800212046FEF728FF81
:1043100002F04CFB5249486008464078401C487007
:1043200099E002F043FB4E494968401A03287DD3C7
:104330007820FFF707F900F029F94949097A0A229C
:1043400091FBF2F302FB1311474A42F83100444853
:10435000007A0A2190FBF1F201FB1200414911F8A9
:10436000104001212046FEF7FBFE1420FFF7EAF87B
:1043700000F00CF93A49097A0A2291FBF2F302FBA8
:104380001311394A02EBC10148603548007A0A210D
:1043900090FBF1F201FB1200324901EB400044783E
:1043A00001212046FEF7DCFE2D494D7805EBD57145
:1043B00049102D4A02EBC10148684FF07E51FCF7CD
:1043C00057F801D8002007E02548447804EBD47062
:1043D0004010254951F830002149097A0A2291FB01
:1043E000F2F302FB1311214A42F821001C494C78D8
:1043F00004EBD47149101C4A02EBC10148684FF02C
:104400007E51FCF735F801D8012000E00020144966
:10441000097A0A2291FBF2F302FB1311144A505459
:104420000F48007A401C0E49087200E007E002F0D5
:10443000BDFA0B49486008464078401C48700AE0C5
:1044400002F0B4FA06494968401A03D00020044932
:104450004870087200BF00BF00BFFFF78FB80000B0
:10446000AC01002028000020B80100200802002034
:1044700030020020002004494870486048810872DA
:104480000120087070470000AC0100202DE9F041C8
:1044900004460E4951F82400FBF7ADFF07464FF0E4
:1044A0008841FBF761FF06460949FBF72BFF0546EC
:1044B0000849FBF759FF0549083141F8240000215C
:1044C000024840F82410BDE8F08100006801002097
:1044D0004CE95B439A99993E0146024850F8210005
:1044E0007047000070010020FEB500242B25264EE9
:1044F000FEF726FF0290002001F050FA0190012003
:1045000001F04CFA0090AA2031460870487088707B
:104510003020C8702320087101A8FCF7F1FB314658
:10452000C1F805006846FCF7EBFB3146C1F809000D
:1045300000204873C8810882488202A8FCF7DAFB91
:1045400000B2314688820020C8820883488388836D
:10455000C88308844884888481F8260081F827006D
:1045600081F8280081F82900552081F82A00A81F29
:10457000C1B2F01CFEF72AFF04462012314681F832
:10458000280081F82940FEBD8C0300202DE9F84F5A
:1045900000250326002700BF17E0072301220E2174
:1045A0001748FCF7C9FA01211548FCF726FB00BFA4
:1045B00002211348FCF784FA0028F9D01048FCF7D0
:1045C0007BFA04462744681CC5B2B542E5DB304699
:1045D000FBF711FF83463846FBF70DFF5946009065
:1045E000FBF7C2FE82460749FBF78CFE81464FF07F
:1045F0008B41FBF7B9FE80464046BDE8F88F0000CE
:10460000002801403333534070B506460024354638
:104610002848405D00F08000002848D02548405DD3
:1046200000F03F0424042348001D30F81500044422
:1046300020480C3030F81500241AB4F5C87F0CD38C
:10464000B4F5167F09D8012005EB45011A4A5054EC
:1046500000212846FEF7E0FE21E0B4F5617F0ED38D
:1046600040F24C4084420AD8012005EB4501124A31
:104670001144487001212846FEF7CEFE0FE0B4F544
:10468000AF6F0CD3B4F5C86F09D8012005EB450115
:10469000094A1144887002212846FEF7BDFE002019
:1046A0000449485500210348001D20F815102046F4
:1046B00070BD00003C020020500200200146002096
:1046C000114A914201D104201CE0104A914201D1CB
:1046D000082017E00E4A914201D1102012E00D4A45
:1046E000914201D120200DE00B4A914201D140209E
:1046F00008E00A4A914201D1802003E0084A914231
:1047000000D188157047000000080140000C0140EE
:10471000001001400014014000180140001C01403D
:104720000020014001460020244A914201D1C814D2
:1047300042E0234A914201D148143DE0214A91428E
:1047400002D14FF4002037E01F4A914202D14FF4CA
:10475000801031E01D4A914202D14FF400102BE04D
:10476000B1F1804F01D1012026E0194A914201D1D7
:10477000022021E0174A914201D104201CE0164A90
:10478000914201D1082017E0144A914201D1102032
:1047900012E0134A914201D120200DE0114A9142CA
:1047A00001D1402008E0104A914201D1802003E06D
:1047B0000E4A914200D1881570470000002C01403C
:1047C00000340140004C01400050014000540140C1
:1047D0000004004000080040000C004000100040B1
:1047E0000014004000180040001C00400020004061
:1047F00070B505460C4645F25550FCF709FC2846B5
:10480000FCF7FAFB2046FCF7FDFBFCF7EDFBFCF7A1
:10481000E3FB70BD10B5FCF7E7FB10BD10B54FF41E
:104820004070FCF7CFFD00F097F800F04BF800F077
:1048300065FA00F06BFB00F0C5FA00F0E1F900F05A
:104840003AF900F0DDF800F07DF800F0A7F800F08C
:1048500059F800F04DF800BF00F026F804462CB9D6
:1048600007A0FDF761FF6420FEF762FE002CF3D085
:1048700000F086F800F018F907A0FDF755FF10BD0D
:104880004157393532334220496E6974204572727E
:104890006F720D0A00000000B3F5CABCBBAFCDEAD1
:1048A000B1CF0D0A0000000010B500F03DFA00F095
:1048B000DDF8FEF7A6FD08B9002010BD00F05EFA95
:1048C0000120FAE708B501210820FCF7A1FD03202B
:1048D0008DF8020014208DF803004FF40050ADF85D
:1048E000000069460148FCF765FA08BD000C01406C
:1048F00010B547214FF6FF7000F092FA01F016F85C
:1049000010BD000008B501218420FCF781FD0320C3
:104910008DF8020048208DF803002020ADF800003B
:1049200069460648FCF746FA4FF48070ADF800007F
:1049300069460348FCF73EFA08BD00000008014044
:10494000001C014010B5FEF78DFB002000F08EF931
:10495000012000F08BF910BD0748006840F080701E
:10496000054908600020054948600846006840F095
:104970000100086070470000FCED00E0001000E05E
:1049800010B5FEF7A7FB0020034908704870486087
:104990004881087210BD0000AC01002010B500F085
:1049A00003F800F021F810BD08B501214420FCF700
:1049B0002FFD48208DF8030003208DF802004FF4EE
:1049C0000040ADF8000069460548FCF7F3F90820FF
:1049D000ADF8000069460348FCF7ECF908BD00009B
:1049E000000801400018014010B5002301220249CF
:1049F000024800F031FE10BDA08601000014004006
:104A00007FB501210820FCF7F3FC15480068460833
:104A10001448B6FBF0F085B24FF6FF74ADF80840CD
:104A2000ADF804500020ADF80A00ADF8060001A969
:104A30000D48FDF72BFC01210B48FDF7C2F9322090
:104A40008DF8000004208DF8010000208DF8020090
:104A500001208DF803006846FCF77CFC7FBD000058
:104A60007000002040420F00000C004008B50121FA
:104A70000420FCF7CDFC03208DF8020014208DF8F3
:104A800003001020ADF8000069460648FCF792F9D3
:104A90000220ADF8000069460248FCF78BF901F0EE
:104AA0001BF808BD0008014010B540F27121042038
:104AB000FFF79EFE10BD10B500F04CF800F002F8B4
:104AC00010BD000008B50121C420FCF7A1FC0320A3
:104AD0008DF8020048208DF803008020ADF800001A
:104AE00069461B48FCF766F94FF48070ADF800008A
:104AF00069461748FCF75EF94FF48060ADF8000096
:104B000069461348FCF756F98020ADF80000694665
:104B10000F48FCF74FF98020ADF8000069460C48BB
:104B2000FCF748F98020ADF8000069460848FCF71A
:104B300041F98020ADF8000069460548FCF73AF9D4
:104B40008020ADF8000069460148FCF733F908BD44
:104B50000018014000211E4A9172D1721173002089
:104B600018E064211B4A02EB001211810221194A4C
:104B700002EB001211710021164A02EB0012917231
:104B8000144A02EB0012D172124A02EB00121173A6
:104B9000411CC8B20A28E4DB64210E4A11810021BD
:104BA000D1720D4911600D4911610D4911620D4914
:104BB00011630D4911640D4911650D4911660D49C7
:104BC00011670D49C2F880100C49C2F89010704767
:104BD000D01C0020301C0020F911000851120008E0
:104BE0007D120008A9120008C1120008D91200089D
:104BF000F11200080913000821130008251200080B
:104C000008B501212020FCF703FC012000F086F903
:104C1000022000F083F9032000F080F9042000F066
:104C20007DF903208DF8020010208DF8030001208B
:104C3000ADF8000069460C48FCF7BCF80220ADF85E
:104C4000000069460848FCF7B5F80420ADF80000FC
:104C500069460548FCF7AEF80120ADF8000069464A
:104C60000148FCF7A7F808BD0014014010B1012865
:104C700033D118E01A491B4A11601B4951604FF0AB
:104C80007C5191604FF07E51D160002111615161E2
:104C90009161D161154911621549516215499162BD
:104CA0001549D16219E00E490E4A11630E4A0D49A9
:104CB0004A634FF07C528A634FF07E52CA630022EF
:104CC0000A644A648A64CA64084A0A65084A4A65EA
:104CD000084A8A65084ACA6500BF00BF70470000DD
:104CE00000007A43040100200000C04000401C4640
:104CF00000409C46CDCC4C3F0000FA4408B5012151
:104D00000802FCF785FB03208DF8020010208DF8C7
:104D100003000220ADF8000069460248FCF74AF89B
:104D200008BD00000020014008B501218020FCF7EB
:104D30006FFB03208DF8020010208DF80300C001E6
:104D4000ADF8000069460C48FCF734F84FF40061F8
:104D50000948FCF70EF90220FEF7EAFB4FF4006168
:104D60000548FCF704F92820FEF7ECFB4FF400613E
:104D70000148FCF7FEF808BD001C014008B5002002
:104D800000900090012204216846FEF738F90020C7
:104D90000090012205216846FEF731F910200090AD
:104DA000012211216846FEF72AF9FF200090012216
:104DB00002216846FEF723F9012203216846FEF727
:104DC0001EF908BD08B50121C020FCF721FB002019
:104DD00000F0B4FD012000F0B1FD03208DF80200C9
:104DE00010208DF80300C002ADF8000069460A48A3
:104DF000FBF7E0FF14208DF803000120ADF8000060
:104E000069460648FBF7D6FF002000F0AFFD012001
:104E100000F0ACFD08BD000000180140001C01407E
:104E200030B589B005460C4601211020FCF7F0FA98
:104E300001210220FCF7DCFA01211120FCF7E8FA3D
:104E400001212F48FCF742F84FF47070ADF82000B4
:104E500048208DF8230003208DF8220008A9294856
:104E6000FBF7A8FFADF80850ADF804400020ADF8FE
:104E70000A00ADF8060001A92348FDF707FA022051
:104E8000ADF812000120ADF814000020ADF81600B6
:104E90000320ADF818000020ADF8100004A91A484E
:104EA000FCF7CCFF0420ADF8100004A91648FCF76D
:104EB000C5FF0820ADF8100004A91348FCF7BEFF99
:104EC0000C20ADF8100004A90F48FCF7B7FF1D2017
:104ED0008DF81C0000208DF81D008DF81E000120AB
:104EE0008DF81F0007A8FCF735FA01210648FCF7EA
:104EF00068FF01221F210448FCF7F6FF09B030BD0E
:104F0000000C1A00001001400004004010B5FDF72D
:104F1000ADFBFCF783F8FBF71DFF10BD411EC8B2C7
:104F200018B901210A4A116010E0012803D10221B9
:104F3000074A11600AE0022803D10421044A1160E3
:104F400004E0032802D10121014A116070470000EA
:104F500010140140012806D11049096881F00101AF
:104F60000E4A116019E0022806D10C49096881F047
:104F700002010A4A116010E0032806D107490968B6
:104F800081F00401054A116007E0042805D10349B6
:104F9000096881F00101014A116070470C14014059
:104FA000014601EB4100024A02EB8000007A7047A3
:104FB000EC0000202DE9F04F85B000240020019086
:104FC0000290039004908D48007800287ED0002045
:104FD000FFF782FA0546FBF713FA04462046FBF773
:104FE00001FA05468649086800F0B6FD06462946DE
:104FF000FBF782F9824908610A4611699069FBF75B
:1050000029F97F4988610A46516A9069FBF730FAAD
:1050100003D87B48406A7A498861794A51691069A6
:10502000FBF76AF907467648C1683846FBF76AF924
:105030000546734A91699068FBF764F98246704AA5
:1050400011695068FBF75EF983466D49086800F006
:1050500083FD00906A48816A0098FBF753F9814606
:105060006748C16A4846FBF7F5F880465946FBF7A2
:10507000F1F807465146FBF7EDF806462946FBF7DF
:10508000E9F85F49C8610846006948610A46116A43
:10509000D069FBF7EDF904D85948006A5849C8614E
:1050A00008E05749C8690021FBF7D8F902D8002069
:1050B0005349C8615249C869FBF7BBF985B25049E9
:1050C00008680021FBF7D4F903D300E008E00120D1
:1050D00000E0002006462A463146002000F058F93C
:1050E0004648007B00287DD00120FFF7F5F90546F2
:1050F000FBF786F904462046FBF774F9054640495C
:10510000086B00F029FD06462946FBF7F5F83C49F7
:1051100008640A46116C906CFBF79CF83849886467
:105120000A46516D906CFBF7A3F902D83448416DE3
:105130008164334A516C106CFBF7DEF80746304847
:10514000C16B3846FBF7DEF805462D4A916C906B33
:10515000FBF7D8F82A4A0090116C506BFBF7D2F895
:1051600082462749086B00F0F7FC83462448816D8E
:105170005846FBF7C7F881462148C16D4846FBF702
:1051800069F880465146FBF765F807460099FBF73A
:1051900061F806462946FBF75DF81949C8640846D8
:1051A000016C41640246116DD06CFBF761F903D8C4
:1051B0001348016DC16408E01149C86C0021FBF778
:1051C0004DF902D800210E48C1640D49C86CFBF7A7
:1051D00030F985B20A49086B0021FBF749F902D37F
:1051E000012001E006E0002006462A463146012063
:1051F00000F0CEF805B0BDE8F08F0000EC00002014
:105200000401002010B5044604EB4400134A105C6E
:10521000012801D112A000E013A0014614A0FDF75F
:1052200083FA04EB44000D4A10444078012801D170
:105230000BA000E00CA0014610A0FDF775FA04EBEE
:105240004400064A10448078012801D104A000E0FF
:1052500005A001460CA0FDF767FA10BD5002002022
:10526000747275650000000066616C736500000073
:1052700035303075733A25730D0A00003130303007
:1052800075733A25730D0A003135303075733A2540
:10529000730D0A0030B50024002500BF13E000257F
:1052A0000DE004EB44002844224951F82000462830
:1052B00003D82946204600F041F8681CC5B2022DEB
:1052C000EFDD601CC4B2032CE9DD04EB440028448C
:1052D000184951F8200046282BD95DB904EB440049
:1052E0001549085C012805D1002004EB4401124A4D
:1052F00050541EE0012D0DD104EB44000E4908442A
:105300004078012806D1002004EB44010A4A1144E8
:1053100048700EE0022D0CD104EB4400064908440D
:105320008078012805D1002004EB4401024A114491
:10533000887030BD5C0200205002002010B500EBE8
:1053400040020A44054B53F82220521C00EB400354
:105350000B44024C44F8232010BD00005C020020E6
:1053600070B52B25084E0024FFF7BEF800BF03E000
:10537000305D06490855641CAC42F9D3AAB2034912
:10538000032000F01BFB70BD8C0300208C0200206A
:105390007CB506460D46144642F21070844203DD89
:1053A00034A0FDF7C1F97CBD16B1012E5FD12EE00E
:1053B000B5B9002000900323334A511401903348BB
:1053C00000F068F847F2305004232F4A1903CDE962
:1053D00000042E4800F05EF800202D49087215E008
:1053E000002000900423284A19030190274800F068
:1053F00051F847F230500323234A5114CDE90004F9
:10540000224800F047F80120214908722FE0012DC1
:1054100016D10020009001231B4A511501901B4812
:1054200000F038F847F230500223174AD114CDE982
:105430000004164800F02EF800211548017515E00B
:10544000002000900223104AD11401900F4800F070
:1054500021F847F2305001230B4A5115CDE90004E1
:105460000A4800F017F801210948017500BF00BF84
:1054700000BF98E750574DD6B5B3ACB9FDC1CB4D81
:10548000415850574D0D0A00002C014000180140B2
:10549000EC0000202DE9FF4F87B0834614461D46DF
:1054A000DDE9146ABAF1000F0FD100212046FCF7A4
:1054B00088FC58460899FDF7EFFF002258460899E6
:1054C000FBF759FD0BB0BDE8F08F42F2107082453A
:1054D0000DD100212046FCF774FC58460899FDF7D1
:1054E000DBFF012258460899FBF745FDEAE72B460A
:1054F000224658460899FDF7E7FF514884420BD0F1
:105500005048844208D05048844205D04F488442D5
:1055100002D04F48844203D14E48D0F8008002E0C8
:105520004C48D0F80080642E0AD242F20F7942F241
:105530001070B8FBF0F0B0FBF6F0401E87B213E03D
:1055400040F6B830864209D24FF063096420B8FBB8
:10555000F0F0B0FBF6F0401E87B205E04FF0000916
:10556000B8FBF6F0401E87B2ADF81470ADF810909D
:105570000020ADF81600ADF812008DF8180004A94F
:105580002046FCF783FE6846FCF740FE6020ADF83D
:1055900000000120ADF802000AFB07F042F2107192
:1055A000B0FBF1F080B2ADF806000020ADF80800C5
:1055B000ADF80400ADF80A00ADF80C00ADF80E002F
:1055C000012D08D169462046FCF798FC08212046A9
:1055D000FCF7E9FC1FE0022D08D169462046FCF7E4
:1055E000EBFC08212046FCF746FD14E0032D08D112
:1055F00069462046FCF74CFD08212046FCF7A5FD36
:1056000009E0042D07D169462046FCF7A7FD0821D3
:105610002046FCF7EEFD01212046FCF7C3FB0121EB
:105620002046FCF7CEFB0648844202D0054884425F
:1056300003D101212046FCF7D0FB00BF42E7000068
:10564000002C014000340140004C0140005001405A
:1056500000540140700000202DE9FF5F04460D4614
:1056600091469A467448844202D07448844207D1D5
:105670002046FFF757F883460121FBF7C9FE06E0F5
:105680002046FFF74FF883460121FBF7B1FE002DBE
:1056900041D100212046FCF794FBAB46664884428A
:1056A00002D14FF0190B28E0B4F1804F02D14FF036
:1056B0001C0B22E06248844202D14FF01D0B1CE01B
:1056C0006048844202D14FF01E0B16E05E488442CF
:1056D00002D14FF0320B10E05C48844202D14FF00F
:1056E000360B0AE05A48844202D14FF0370B04E0EF
:1056F0005248844201D14FF02C0B8DF800B08DF848
:1057000001908DF802A000208DF803006846FBF799
:1057100021FEBDE8FF9F484884420BD047488442A1
:1057200008D04C48844205D04B48844202D04B48B4
:10573000844202D14A48066801E049480668642D5F
:105740000AD242F20F7842F21070B6FBF0F0B0FBD2
:10575000F5F0401E87B213E040F6B830854209D21A
:105760004FF063086420B6FBF0F0B0FBF5F0401E8C
:1057700087B205E04FF00008B6FBF5F0401E87B297
:10578000ADF80870ADF804800020ADF80A00ADF85F
:1057900006008DF80C0001A92046FCF777FD0121D9
:1057A0002046FCF7FFFA012211462046FCF79CFB3D
:1057B00001212046FCF705FB4FF0000B1E488442F8
:1057C00002D14FF0190B28E0B4F1804F02D14FF015
:1057D0001C0B22E01A48844202D14FF01D0B1CE042
:1057E0001848844202D14FF01E0B16E0164884423E
:1057F00002D14FF0320B10E01448844202D14FF036
:10580000360B0AE01248844202D14FF0370B04E015
:105810000A48844201D14FF02C0B8DF800B08DF86E
:1058200001908DF802A001208DF803006846FBF777
:1058300091FD00BF6DE70000002C014000340140E5
:105840000004004000080040000C00400010004030
:1058500000140040004C0140005001400054014041
:10586000700000202DE9F04104460F461546052F33
:1058700000D37F1F2848FCF7CCFA804608EB0706C8
:10588000012C0FD125480560B1B22348FCF7C8FCB4
:1058900002212148FCF792FA012202211E48FCF75E
:1058A00023FB37E0022C0FD11D480560B1B21A4826
:1058B000FCF7B8FC04211848FCF780FA0122042107
:1058C0001548FCF711FB25E0032C0FD115480560A6
:1058D000B1B21148FCF7A8FC08210F48FCF76EFA9A
:1058E000012208210C48FCF7FFFA13E0042C0FD129
:1058F0000D480560B1B20848FCF798FC1021064835
:10590000FCF75CFA012210210348FCF7EDFA01E0F4
:10591000BDE8F08100BFFBE7000C00404C00002018
:1059200050000020540000205800002000200249B0
:1059300048600120087070474400002010B50446FC
:1059400014B1012C0BD105E04FF400410548FBF7E1
:105950000EFB05E001210448FBF70BFB00E000BF54
:1059600000BF10BD00180140001C014010B50446E6
:1059700014B1012C0BD105E04FF400410548FBF7B1
:10598000F8FA05E001210448FBF7F1FA00E000BF56
:1059900000BF10BD00180140001C0140014600205E
:1059A00011B1012906D102E0034A506902E0024A1E
:1059B000906900BF00BF7047640100202DE9F041ED
:1059C00005460E4617462846FBF7A8F904460CB9CB
:1059D000BDE8F081E06908B1E06980473A463146A8
:1059E0002046FCF709FE00BFF2E713B5044601228A
:1059F00001A92046FFF7E2FF1CBD70B504460D4625
:105A0000E1B20120FFF7F1FF204670BD70B50446FA
:105A10000B48006800F0020080B10948006800F0FF
:105A2000100058B100F040F8204600F013F800F0E4
:105A300065F8054600F050F8284670BD0120FCE7E7
:105A400008080140002001E0411CC8B20428FBDB2B
:105A50007047000070B50446002520E004F0800087
:105A600018B102200F49086003E002200D49091D0A
:105A70000860FFF7E7FF10200A490860FFF7E2FF20
:105A800010200849091D0860072D02D10220091FB6
:105A900008606006040EFFF7D5FF681CC5B2082D2C
:105AA000DCDB70BD1008014010B502200949086018
:105AB00010200860FFF7C6FF02200649091D086094
:105AC000FFF7C0FF10200349091D0860FFF7BAFF68
:105AD00010BD00001008014010B502200649086002
