:020000040800F2
:1000000078980020E90100089D140008CD10000830
:1000100099140008110D0008D52700080000000001
:100020000000000000000000000000004501000882
:10003000AB0D0008000000008901000865170008EA
:10004000030200080302000803020008030200087C
:10005000030200080302000803020008030200086C
:1000600003020008D90D000803020008030200087B
:10007000030200080302000803020008030200084C
:10008000030200080302000803020008030200083C
:10009000030200080302000803020008030200082C
:1000A000030200080302000803020008030200081C
:1000B00003020008251A00080302000803020008D2
:1000C00003020008030200080302000803020008FC
:1000D0000302000803020008A9230008B92300084E
:1000E000AD0D000803020008030200080302000827
:1000F00003020008030200080302000803020008CC
:100100000302000803020008351D0008030200086E
:100110009923000803020008D51D00080302000807
:10012000030200080302000803020008030200089B
:10013000DFF80CD000F074FC00480047B9670008F5
:1001400078980020204B19680868B0E8F00F80F319
:100150000988BFF36F8F4FF0000080F311884EF0D5
:100160000D0E70470000000006480068006880F32C
:10017000088862B661B6BFF34F8FBFF36F8F00DFA1
:1001800000BF00BF08ED00E0EFF30980BFF36F8F01
:100190000D4B1A6820E9F00F106008B54FF0100001
:1001A00080F3118807F012F84FF0000080F31188F7
:1001B000BDE8084019680868B0E8F00F80F30988C6
:1001C000BFF36F8F704700BF88000020EFF31180EE
:1001D0004FF0100181F31188704780F31188704748
:1001E000EFF3058070470000064880470648004747
:1001F000FEE7FEE7FEE7FEE7FEE7FEE7FEE7FEE7D7
:10020000FEE7FEE7851700083101000840EA010318
:100210009B0703D009E008C9121F08C0042AFAD2BC
:1002200003E011F8013B00F8013B521EF9D2704780
:10023000D2B201E000F8012B491EFBD27047002228
:10024000F6E710B513460A4604461946FFF7F0FFD5
:10025000204610BDF0B480EA0102D40F4200B2EB98
:10026000410F02D20246084611464A0042D0C30D51
:10027000DDB2C1F3C752AD1A202D35DAC1F3160134
:1002800041F4000204B15242C5F1200602FA06F11F
:100290002A411044B3EBD05F23D0C4B1012DA0EBB1
:1002A000C35009DCF0BC4FF0004202EAC352DBB29B
:1002B00000F5000000F0B9BA400000F1807000EBDA
:1002C000C350A0F1807040EAD170490009E04908AC
:1002D00041EAC071A0EBC35000F50000400800EBFC
:1002E000C350F0BC00F098BA6142012202EB410118
:1002F000001BF6E7F0BC704781F00041AAE780F0F0
:100300000040A7E780EA010210B502F00043400078
:1003100022D04A001FD0010E01EB1261C0F356003B
:10032000C2F3560240F4000042F40002A0FB022097
:1003300000047F39140400D0401C50EA124001D45C
:100340004000491EC2B20C0604EBD010401C40080D
:10035000802A02D003E0002010BD20F00100002917
:1003600000DA0020184310BD30B480EA010202F028
:10037000004530F0004221F0004013D090B1C30D91
:10038000D40DC2F31601C0F31600E41A41F40001C3
:1003900040F400027D34914201D3641C00E0490026
:1003A000002C02DA30BC002070474FF4000000231C
:1003B000914201D3891A034340084FEA4101F7D122
:1003C00051B1914202D14FF0004105E002D24FF00D
:1003D000010101E06FF0010103EBC450284430BC7F
:1003E00000F01ABA2DE9FE4F804681EA0300C00FE3
:1003F0000C46009021F0004123F00045B8EB0200CC
:10040000A94105D24046214690461C460B4602466D
:1004100023F00040104347D0270DC7F30A00C3F371
:100420000A510290401A019040286BDAC3F313007E
:1004300040F4801B0098924620B10023D2EB030ABF
:1004400063EB0B0B01985946C0F14002504600F097
:10045000B2F906460D4650465946019A00F0CAF9CF
:1004600010EB08006141002487EA115284EAE77327
:100470001A4340D0009A62B3019A012A4FEA075208
:1004800015DC001B61EB02014FF0004202EA07524B
:10049000CDE90042001C41F5801132462B4600F0A8
:1004A00001FA03B0BDE8F08F40462146F9E7001B92
:1004B00061EB0201001C41F5801300185B4120181C
:1004C000A2F5001747EB030140EAD570B6196D415C
:1004D00011E06D084FEA360645EAC0754FEA07524B
:1004E000001B61EB0201001C41F5801149084FEA35
:1004F00030000019514132462B4603B0BDE8F04FA1
:1005000000F0C1B90098012240000023D0EB0202A4
:1005100063EBE073009821464FEAE074B8EB00000B
:1005200061EB0401E9E783F000435BE781F0004100
:1005300058E72DE9FE4F81EA030404F0004421F05E
:10054000004100944FF0000B23F0004350EA0104F7
:100550005ED052EA03045BD0C3F30A54C1F30A55D8
:100560002C44A4F2F3340194A0FB0254C1F3130110
:1005700041F48011C3F3130343F4801301FB0244DD
:1005800000FB034E840A970A44EA815447EA8357E2
:10059000A4FB076802958D0A05FB07854FEA932C9B
:1005A00004FB0C542705029D4FEA065847EA16370C
:1005B000B5EB08056EEB070C870E920E47EA811724
:1005C00042EA8312A7FB0201B6EB0B0164EB0004C5
:1005D0002B0D43EA0C335E1844EB1C50DA465146AF
:1005E000E7FB0201C5F313044FEA0B3343EA14534C
:1005F0004FEA0432019C43EA0603A4F10C0402947E
:10060000009CCDE900B400F04DF903B0BDE8F08FD7
:1006100000200146F9E7C10F80EAE0700844CA07EC
:100620009623002100F001B996230022114600F024
:10063000FCB80EB5C10F80EAE0700844CA0700217B
:1006400040F233438DE80E000A460B4600F02AF9CB
:1006500003B000BD0EB540F2334102910021CDE957
:1006600000110A460B4600F01DF903B000BD00F072
:10067000004220F00040C10DC0F3160040F400001D
:100680007F2901DA00207047962903DCC1F1960129
:10069000C84001E096398840002AF4D040427047B3
:1006A00020F00040C10DC0F3160040F400007F2987
:1006B00001DA00207047962903DCC1F19601C84099
:1006C000704796398840704770B5C1F30A5201F0FF
:1006D00000450024C1F3130140F2FF3341F48011BF
:1006E0009A4201DA002070BD40F233439A42A2F2EE
:1006F000334203DC524200F06DF800E090402C439E
:10070000F1D0404270BD00F0004230F000400AD00D
:10071000C10D01F56071C0F3160042EA0151C20833
:10072000400711437047002001467047002801DB55
:10073000C0F10040002901DBC1F100418142704756
:10074000002801DBC0F10040002901DBC1F10041BC
:10075000884270472DE9F05F0546002092469B468F
:1007600088460646814640241BE0284641464746C7
:10077000224600F02FF853465A46C01A914110D332
:1007800011461846224600F016F82D1A67EB0108AC
:100790004F4622460120002100F00DF817EB00091A
:1007A0004E41201EA4F10104DFDC484631462A46B2
:1007B0004346BDE8F09F202A04DB203A00FA02F10C
:1007C000002070479140C2F1200320FA03F319433F
:1007D00090407047202A04DB203A21FA02F00021E1
:1007E000704721FA02F3D040C2F120029140084341
:1007F00019467047202A06DBCB17203A41FA02F04F
:1008000043EAE07306E041FA02F3D040C2F120026D
:1008100091400843194670470029A8BF7047401C03
:10082000490008BF20F00100704710B4B0FA80FC06
:1008300000FA0CF050EA010404BF10BC704749B143
:10084000CCF1200421FA04F411FA0CF118BF0121B3
:1008500021430843A3EB0C01CB1D4FEA00614FEA93
:10086000102042BF002010BC704700EBC350104462
:100870000029A4BF10BC7047401C490008BF20F0ED
:10088000010010BC704710B5141E73F1000408DAA3
:10089000401C41F1000192185B411A4301D120F044
:1008A000010010BD2DE9F04D92469B4611B1B1FA01
:1008B00081F202E0B0FA80F220329046FFF77BFF2F
:1008C00004460F4640EA0A0041EA0B0153465A46E5
:1008D000084313D0114653EA010019D0C8F1400271
:1008E0005046FFF777FF05460E46504659464246AA
:1008F000FFF761FF084305D0012004E02046394698
:10090000BDE8F08D0020054346EAE0762C433743EE
:100910000A986305E40AA0EB08000022FD0A44EAF5
:1009200047540A3002D500200146E9E701051019B5
:100930006941DDE9084500196941BDE8F04DA2E7CC
:100940002DE9F04D81EA030404F0004B21F000454D
:1009500014464FF0000A23F0004150EA050220D06F
:1009600054EA01021DD0C5F30A570246C5F313032A
:10097000C1F31300C1F30A5640F4801543F4801309
:10098000A7EB0608101BD64608F2FD3873EB0500EE
:1009900002D308F1010801E092185B41B8F1000FA1
:1009A00003DA00200146BDE8F08D00204FF48011ED
:1009B000064684460EE0171B73EB050705D3121B92
:1009C00063EB050306434CEA010C49084FEA30008B
:1009D00092185B4150EA0107EDD152EA030012D0B0
:1009E00082EA040083EA0501084305D0101BAB41ED
:1009F00006D20122002306E000224FF0004302E06D
:100A00006FF0010253101AEB06004CEB085110EB8B
:100A10000A0041EB0B01BDE8F04DFFF734BF0000C9
:100A2000064C074D06E0E06840F0010394E807003B
:100A300098471034AC42F6D3FFF77EFBD87A000813
:100A4000F87A000870B521F0004303430CD0C1F3DD
:100A50000A550024D5EB040564EB0403D617AD1A40
:100A6000B34102DB0020014670BD201841EB02516A
:100A700070BD21B1826842F00102826003E08268A9
:100A800022F001028260704710B504461248844289
:100A900008D10121401500F071FD0021601500F022
:100AA0006DFD17E00D48844208D10121001500F0CA
:100AB00065FD0021201500F061FD0BE0084884422F
:100AC00008D10121C80300F059FD00214FF4004076
:100AD00000F054FD10BD000000240140002801403A
:100AE000003C0140014600208A6802F004020AB17D
:100AF000012000E0002070470146C86C80B27047BA
:100B00000246002013680B400BB1012000E00020DA
:100B10007047014600208A6802F008020AB10120ED
:100B200000E000207047000030B50246002000239E
:100B300050680F4C20400D790C6844EA052420438E
:100B4000506090680B4C2040D1E902542C434D7901
:100B500044EA450420439060D06A20F470000C7C85
:100B6000641EE4B2234340EA0350D06230BD00006B
:100B7000FFFEF0FFFDF7F1FFF0B504460D46002043
:100B80000021092D11DDE068A5F10A0606EB4607F4
:100B9000072606FA07F18843A5F10A0606EB460682
:100BA00003FA06F10843E0600CE0206905EB450715
:100BB000072606FA07F1884305EB450603FA06F116
:100BC00008432061072A0FDA606B561E06EB860782
:100BD0001F2606FA07F18843561E06EB860605FA1D
:100BE00006F10843606322E00D2A0FDA206BD61F5E
:100BF00006EB86071F2606FA07F18843D61F06EB89
:100C0000860605FA06F10843206310E0E06AA2F1C7
:100C10000D0606EB86071F2606FA07F18843A2F1A8
:100C20000D0606EB860605FA06F10843E062F0BD04
:100C3000816841F008018160704721B1826842F407
:100C4000A002826003E0826822F4A0028260704702
:100C5000816841F0040181607047000010B50120F7
:100C600006F064FB0149086010BD00000C00002084
:100C70001FB50020144A0123CDE901200093039001
:100C800003464FF4806211A1144806F043FC002093
:100C9000134A0223CDE901200093039003464FF449
:100CA000806210A1134806F035FC0020124A03238D
:100CB000CDE901200093039003464FF480620FA119
:100CC000124806F027FC1FBD000000207654617317
:100CD0006B4465636973696F6E000000E36F000821
:100CE00004000020765461736B436F6E74726F6CF6
:100CF00000000000CD6F00080800002076546173EA
:100D00006B50657263657074696F6E00997000084E
:100D100000BFFEE7014609B900207047012901D153
:100D20000748FAE7022901D10648F6E7032901D16D
:100D30000548F2E7042901D10020EEE70020ECE7A6
:100D400088060020B00E0020D816002008B5262006
:100D50008DF8000001208DF8010000208DF80200C0
:100D600001208DF80300684600F09AFB27208DF8DB
:100D7000000001208DF8010000208DF80200012004
:100D80008DF80300684600F08BFB34208DF80000DE
:100D900001208DF8010000208DF8020001208DF85F
:100DA0000300684600F07CFB08BD704710B54FF4A7
:100DB000004000F02BF860B14FF4004000F020F844
:100DC00004480068401C0349086008464068401C0D
:100DD000486010BD9C05002010B5082000F016F8F2
:100DE00058B1082000F00CF804488068401C034902
:100DF00088600846C068401CC86010BD9C05002083
:100E000001490860704700001404014001460020B9
:100E10000022074B1B6803EA0102054B14331B68D1
:100E20000B4013B10AB1012000E000207047000020
:100E300000040140002123498279002A3AD00A4661
:100E4000126803689A430B461A600A1D1268036809
:100E50009A430B1D1A60027911440A6803681A4309
:100E60000A60184A0832126803689A43154B08331F
:100E70001A601A1D126803689A43124B0C331A60E9
:100E80004279102A0ED11A1F126803681A430D4BBB
:100E900008331A601A1D126803681A43094B0C3391
:100EA0001A600DE00749427911440A6803681A4341
:100EB0000A6005E0027911440A6803689A430A60EF
:100EC000704700000004014030B500228B071C0F62
:100ED0000F2303FA04F20B4B8C1053F82430934386
:100EE000084C8D1044F8253023468C1053F82430DC
:100EF0008C07240F00FA04F42343024C8D1044F8AD
:100F0000253030BD080001402DE9F04102460025A2
:100F10000026002000230024002791F803C00CF0D5
:100F20000F0591F803C00CF0100CBCF1000F03D0BA
:100F300091F802C04CEA050591F800C0BCF1000F21
:100F400031D0146800202BE04FF0010C0CFA00F3B4
:100F5000B1F800C00CEA03069E4220D183004FF096
:100F60000F0C0CFA03F7BC4305FA03FC4CEA04042B
:100F700091F803C0BCF1280F06D14FF0010C0CFA18
:100F800000FCC2F814C00AE091F803C0BCF1480F9D
:100F900005D14FF0010C0CFA00FCC2F810C0401C47
:100FA0000828D1D31460B1F800C0BCF1FF0F34DDC4
:100FB000546800202EE000F1080C4FF0010808FAF8
:100FC0000CF3B1F800C00CEA03069E4221D1830065
:100FD0004FF00F0C0CFA03F7BC4305FA03FC4CEA84
:100FE000040491F803C0BCF1280F05D100F1080CEE
:100FF00008FA0CF8C2F8148091F803C0BCF1480F4D
:1010000007D100F1080C4FF0010808FA0CF8C2F8FB
:101010001080401C0828CED35460BDE8F081000049
:10102000F0B50A46002300240021002500F0004608
:10103000B6F1004F02D11D4EF16901E01B4E7168FF
:10104000C0F3034583B200F44016B6F5401F08D143
:1010500021F07061154E766826F07066134F7E6041
:1010600012E000F48016B6F5801F06D1032606FABA
:1010700005F4A14341F0706106E0460D360103FA24
:1010800006F6B14341F0706122B1460D360103FA14
:1010900006F6314300F00046B6F1004F02D1034E90
:1010A000F16101E0014E7160F0BD000000000140FF
:1010B0000246002093680B400BB1012000E00020A5
:1010C00070474161704701617047000009A100202D
:1010D0000CE00A5C124B1A8000BF114A121F1288E2
:1010E00002F04002002AF8D0421CD0B22A28F0D3E5
:1010F00000BFFEE70D0A456E746572204861726498
:101100004661756C745F48616E646C65722C205327
:10111000797374656D2048616C742E0D0A000000AF
:10112000043801404CF6CC4001490860704700008B
:10113000003000404AF6AA200149086070470000CC
:101140000030004001494860704700000030004016
:101150000149886070470000003000400149086084
:10116000704700000030004000B585B00121052027
:1011700000F0F4F90121480400F0E0F90420ADF892
:10118000100018208DF8130003208DF8120004A918
:101190006648FFF7B9FE0820ADF8100004208DF86E
:1011A000130004A96148FFF7AFFE04A95F48FFF7E9
:1011B000ABFE4FF4E13000900020ADF80400ADF834
:1011C0000600ADF80800ADF80C000C20ADF80A00E0
:1011D0006946574801F05CF9012240F22551544814
:1011E00001F031F90121524801F0F7F8402150484F
:1011F00001F0EAF80121082000F0B0F910208DF884
:10120000130003208DF812000420ADF8100004A98B
:101210004848FFF779FE0121092000F09FF90121DC
:10122000880400F08BF94FF48060ADF810001820AE
:101230008DF8130003208DF8120004A93D48FFF734
:1012400063FE4FF40060ADF8100004208DF8130029
:1012500004A93848FFF758FE04A93648FFF754FEA2
:101260004FF4E13000900020ADF80400ADF8060026
:10127000ADF80800ADF80C000C20ADF80A00694686
:101280002D4801F005F9012240F225512A4801F0CC
:10129000DAF80121284801F0A0F84021264801F0A1
:1012A00093F80121112000F059F90121C80400F040
:1012B00045F94FF48060ADF8100018208DF8130048
:1012C00003208DF8120004A91C48FFF71DFE4FF4FF
:1012D0000060ADF8100004208DF8130004A9174831
:1012E000FFF712FE4FF4E13000900020ADF804004B
:1012F000ADF80600ADF80800ADF80C000C20ADF814
:101300000A0069460E4801F0C3F8012240F2255157
:101310000B4801F098F80121094801F05EF84021DE
:10132000074801F051F805B000BD00000008014079
:1013300000440040000C0140004800400010014003
:10134000004C00400948006800F0800058B9074888
:10135000006800F4807030B10448006800F48060D8
:1013600008B1012070470020FCE700000818014088
:101370000948006800F0800058B10748006800F490
:10138000807030B90448006800F4806008B901201A
:1013900070470020FCE70000081801400948006879
:1013A00000F0800058B10748006800F4807030B940
:1013B0000448006800F4806008B1012070470020F4
:1013C000FCE70000081801400948006800F08000B0
:1013D00058B10748006800F4807030B104480068D4
:1013E00000F4806008B9012070470020FCE700008D
:1013F000081801400448006800F08000012800D16E
:1014000070470020FCE7000008180140044800680D
:1014100000F08000012800D170470020FCE70000A8
:10142000081801400448006800F0800008B9012055
:1014300070470020FCE700000818014004480068DD
:1014400000F0800008B9012070470020FCE7000090
:10145000081801400448006800F0800008B9012025
:1014600070470020FCE700000818014009480068A8
:1014700000F0800058B90748006800F4807030B967
:101480000448006800F4806008B101207047002023
:10149000FCE700000818014000BFFEE770470000AD
:1014A00070B5002100230F22C47804B3154C2468C2
:1014B00004F4E064C4F5E064210AC1F10403CA4005
:1014C000447804FA03F184781440214309010E4C56
:1014D0000678A155047804F01F050124AC40057876
:1014E0006D11AD0005F1E025C5F8004109E0047873
:1014F00004F01F050124AC40044D0678761145F830
:10150000264070BD0CED00E000E400E080E100E06A
:1015100002490143024A1160704700000000FA05C9
:101520000CED00E001460020034A506820F44040E2
:1015300008435060704700000010024029B1064A7D
:10154000D2690243044BDA6104E0034AD269824360
:10155000014BDA61704700000010024029B1064AD1
:1015600092690243044B9A6104E0034A9269824300
:10157000014B9A61704700000010024029B1064AF1
:10158000D2680243044BDA6004E0034AD268824323
:10159000014BDA60704700000010024030B50021B6
:1015A0000022002400232D4D6D6805F00C0121B1AF
:1015B000042905D0082923D105E0294D056022E042
:1015C000274D05601FE0254D6D6805F47012234D11
:1015D0006D6805F48034022505EB92421CB9214D5B
:1015E000554305600BE01D4D6D6805F400351DB1D8
:1015F0001C4D5543056002E0194D5543056002E05E
:10160000174D056000BF00BF144D6D6805F0F00177
:101610000909154D6B5C0568DD4045600F4D6D682F
:1016200005F4E061090A104D6B5C4568DD4085609A
:101630000A4D6D6805F46051C90A0B4D6B5C456835
:10164000DD40C560054D6D6805F44041890B074DCF
:101650006B5CC568B5FBF3F5056130BD0010024059
:1016600000127A0000093D00600000207000002098
:1016700010B50446204601F0ADFF10BD10B500F0D6
:1016800001F810BD0CB500200190009033480068AF
:1016900040F480303149086000BF3048006800F4F1
:1016A000003000900198401C0190009818B90198F2
:1016B000B0F5A06FF1D12948006800F4003010B1F6
:1016C0000120009001E0002000900098012843D103
:1016D0002348006840F0100021490860084600686F
:1016E00020F0030008600846006840F0020008602F
:1016F0001A484068194948600846406848600846EA
:10170000406840F4806048600846406820F47C10DF
:1017100048600846406840F4E810486008460068A1
:1017200040F08070086000BF0C48006800F0007056
:101730000028F9D00948406820F0030007494860B4
:101740000846406840F00200486000BF0348406817
:1017500000F00C000828F9D10CBD00000010024078
:101760000020024010B5FEF731FD05F075FF18B1FD
:101770004FF08050024908600020FEF72EFD10BD9A
:1017800004ED00E010B51348006840F00100114975
:10179000086008464068104908400E4948600846FD
:1017A00000680E4908400B4908600846006820F4AC
:1017B000802008600846406820F4FE0048604FF42E
:1017C0001F008860FFF75AFF4FF00060044908606F
:1017D00010BD0000001002400000FFF8FFFFF6FE01
:1017E00008ED00E0F0B50C46154600220021068CFD
:1017F0004FF6FE773E400684028B018C4FF60C7646
:1018000032407E1C06EA03162E433243104EB0428D
:101810000ED0104EB0420BD0B0F1804F08D00E4E1B
:10182000B04205D00D4EB04202D00D4EB04206D1AE
:101830004FF6FD76314044F00106314305E04FF6A6
:10184000F576314044F00106314302830184F0BD56
:10185000002C01400034014000040040000800401A
:10186000000C0040F0B50C46154600220021002671
:10187000078C4FF6EF7C07EA0C070784028B018C7C
:101880004FF6FF7707EA041640F6FF473A404FF657
:10189000FF7707EA03373A434FF6FF7707EA052752
:1018A0003A43114FB8420ED0104FB8420BD0B0F1AE
:1018B000804F08D00E4FB84205D00E4FB84202D02C
:1018C0000D4FB84206D14FF6DF77394046F010078A
:1018D000394305E04FF65F77394044F0100739434C
:1018E00002830184F0BD0000002C0140003401405F
:1018F0000004004000080040000C0040F0B50C4619
:101900001546002200210026078C4FF6FF6C07EADF
:101910000C070784828B018C4FF6FF7707EA0426B9
:101920004FF60C773A404FF6FF7707EA03172F433D
:101930003A43114FB8420ED0104FB8420BD0B0F11D
:10194000804F08D00E4FB84205D00E4FB84202D09B
:101950000D4FB84206D14FF6FF57394046F4807715
:10196000394305E04FF2FF57394044F4807739435B
:1019700082830184F0BD0000002C0140003401404E
:101980000004004000080040000C0040F0B50C4688
:101990001546002200210026078C4EF6FF7C07EA40
:1019A0000C070784828B018C4FF6FF7707EA043619
:1019B00040F6FF473A404FF6FF7707EA05273A43DC
:1019C0004FF6FF7707EA03373A43114FB8420ED07C
:1019D000104FB8420BD0B0F1804F08D00E4FB84234
:1019E00005D00E4FB84202D00D4FB84206D14DF689
:1019F000FF77394046F48057394305E047F6FF57F3
:101A0000394044F48057394382830184F0BD00009B
:101A1000002C014000340140000400400008004058
:101A2000000C004010B5002400BFC048005D00F06D
:101A30008000002856D10121BD4800F02BFAE0B10A
:101A4000BA48005D00F04000B8B1B848005D00F051
:101A50003F003F280CD1B548005D40F08000B349FD
:101A600008554FF6FF71B148001D20F8141004E02E
:101A7000AE48005D401CAD4908550221AC4800F05D
:101A800009FA78B3A948005D00F0400088B1A74882
:101A9000005D40F08000A5490855A54800F0EAF92E
:101AA000A249091D21F814000221A14800F0B0FA52
:101AB00018E000209D49085500219C48001D20F891
:101AC00014109B4800F0E3F998490C3121F81400F8
:101AD0009648005D40F040000C39085500219448BC
:101AE00000F096FA01249148005D00F08000002883
:101AF00058D101218E4800F0CDF9E0B18B48005D4E
:101B000000F04000B8B18948005D00F03F003F2878
:101B10000CD18648005D40F08000844908554FF69E
:101B2000FF718248001D20F8141004E07F48005D1A
:101B3000401C7E49085504217D4800F0ABF988B36C
:101B40007A48005D00F0400090B17848005D40F0B8
:101B5000800076490855764800F08FF901467348B1
:101B6000001D20F814100221714800F0B5FA19E0A8
:101B700000206E49085500216C48001D20F8141003
:101B80006B4800F084F9014668480C3020F81410C6
:101B90000C38005D40F0400064490855002164485D
:101BA00000F09AFA02246148005D00F080000028ED
:101BB00057D101215E4800F06DF9E0B15B48005D4E
:101BC00000F04000B8B15948005D00F03F003F28E8
:101BD0000CD15648005D40F08000544908554FF63E
:101BE000FF715248001D20F8141004E04F48005DBA
:101BF000401C4E49085508214D4800F04BF980B370
:101C00004A48005D00F0400088B14848005D40F05F
:101C1000800046490855464800F032F94349091DFD
:101C200021F814000221424800F0C0FA19E0002017
:101C30003E49085500213D48001D20F814103C483D
:101C400000F025F9014639480C3020F814100C3802
:101C5000005D40F04000354908550021344800F04F
:101C6000A5FA03243148005D00F08000002857D118
:101C700001212F4800F00EF9E0B12C48005D00F082
:101C80004000B8B12948005D00F03F003F280CD16A
:101C90002648005D40F08000244908554FF6FF714A
:101CA0002248001D20F8141004E02048005D401C6C
:101CB0001E49085510211E4800F0ECF880B31B485F
:101CC000005D00F0400090B11848005D40F08000D9
:101CD00016490855164800F0D6F801461348001D6D
:101CE00020F814100221124800F0B4FA18E0002085
:101CF0000E49085500210D48001D20F814100C480D
:101D000000F0C5F809490C3121F814000748005DBE
:101D100040F040000C3908550021054800F09AFABF
:101D20001F21034800F088F810BD000020020020A9
:101D30000004004010B50221214800F0ABF858B172
:101D400002211F4800F078F8002202211C4800F010
:101D500009F91C48006880470421194800F09AF8E6
:101D600058B10421164800F067F8002204211448F5
:101D700000F0F8F81448006880470821104800F087
:101D800089F858B108210E4800F056F800220821C1
:101D90000B4800F0E7F80D4800688047102108481C
:101DA00000F078F858B11021054800F045F80022FD
:101DB0001021034800F0D6F805480068804710BDA0
:101DC000000C00405000002054000020580000206B
:101DD0005C00002010B501210E4800F05BF8B8B19E
:101DE0000D480068401C0C49086008460068142132
:101DF000B0FBF1F201FB120008B903F0AFFF074896
:101E00000068401C054908600121024800F014F8F0
:101E100010BD000000100040140000201000002041
:101E200021B1028842F08002028004E002884FF66D
:101E30007F731A4002807047CA430282704721B103
:101E4000028842F00102028004E002884FF6FE732D
:101E50001A400280704731B1B0F8442042F4004289
:101E6000A0F8442005E0B0F84420C2F30E02A0F828
:101E7000442070470146888E70470146088F70479E
:101E80000146888F70470146B1F84000704701460F
:101E9000888C704730B50246002000230024158A44
:101EA00005EA0103958905EA010413B10CB101208B
:101EB00000E0002030BD000070B505460C46244807
:101EC00085420ED0234885420BD0B5F1804F08D013
:101ED0002148854205D02148854202D020488542CC
:101EE00000D100E000BF208850B92389A288618812
:101EF0002846FFF777FCE188284600F0CEF925E078
:101F0000208804280AD12389A28861882846FFF7FF
:101F1000A9FCE188284600F0C9F917E020880828C4
:101F20000AD12389A28861882846FFF7E7FCE18867
:101F3000284600F0C8F909E02389A288618828466C
:101F4000FFF724FDE188284600F0C6F970BD0000C7
:101F5000002C014000340140000400400008004013
:101F6000000C00401AB183890B43838102E083890E
:101F70008B4383817047000070B50024002200234A
:101F8000058C4FF6FE7635400584028C8388048BE1
:101F90004FF68F752C40B51E2C400D882C43751EB6
:101FA0002A400D892A434D882A43144DA8420BD05C
:101FB000134DA84208D0134DA84205D0124DA84297
:101FC00002D0124DA84213D14FF6F7752A404D8921
:101FD0002A434FF6FB752A408D882A434FF6FF654A
:101FE0002B404FF6FF552B408D892B43CD892B433A
:101FF00083800483CD888586028470BD002C0140D7
:1020000000340140004001400044014000480140CC
:102010000A460021018C4FF6FD73194011430184DB
:1020200070470A460021018B4FF6F77319401143A0
:102030000183704770B5002400220023058C4FF601
:10204000EF7635400584028C8388048B48F6FF7553
:102050002C404FF6FF452C400D884FF6FF7606EAE0
:1020600005252C434FF6DF752A400D8906EA051534
:102070002A434D8806EA05152A43154DA84202D089
:10208000144DA8421DD14FF67F752A404D894FF659
:10209000FF7606EA05152A434FF6BF752A408D885C
:1020A00006EA05152A434FF6FF352B404FF2FF7520
:1020B0002B408D8906EA85052B43CD8906EA8505E7
:1020C0002B4383800483CD880587028470BD000084
:1020D000002C0140003401400A460021018C4FF6DB
:1020E000DF7319404FF6FF7303EA021319430184AB
:1020F00070470A460021018B4FF2FF7319404FF6DB
:10210000FF7303EA022319430183704770B500246B
:1021100000220023058C4FF6FF6635400584028CB3
:102120008388848B4FF68F752C404FF6FC752C40BE
:102130000D882C434FF6FF552A400D894FF6FF7648
:1021400006EA05252A434D8806EA05252A43154D4A
:10215000A84202D0144DA8421DD14FF2FF752A406B
:102160004D894FF6FF7606EA05252A434FF6FF35DF
:102170002A408D8806EA05252A434EF6FF752B4036
:102180004DF6FF752B408D8906EA05152B43CD8949
:1021900006EA05152B4383808483CD8885870284D6
:1021A00070BD0000002C0140003401400A460021AF
:1021B000018C4FF6FF5319404FF6FF7303EA0223D9
:1021C0001943018470470A460021818B4FF6F7734B
:1021D000194011438183704770B500220023002409
:1021E000058C4EF6FF7635400584038C8488828BFF
:1021F00048F6FF752A404FF6FF452A400D884FF6F6
:10220000FF7606EA05252A434DF6FF752B400D891A
:1022100006EA05352B434D8806EA05352B430B4D61
:10222000A84202D00A4DA84208D14BF6FF752C40B7
:102230008D894FF6FF7606EA85152C4384808283CC
:10224000CD88A0F84050038470BD0000002C0140F0
:10225000003401400A460021018C4DF6FF731940FD
:102260004FF6FF7303EA02331943018470470A46AD
:102270000021818B4FF2FF7319404FF6FF7303EA81
:102280000223194381837047818670470187704715
:1022900081877047A0F840107047028B4FF6F373A8
:1022A0001A400283028B0A4302837047028B4FF26B
:1022B000FF331A400283028B4FF6FF7303EA0123B8
:1022C0001A4302837047828B4FF6F3731A4082835E
:1022D000828B0A4382837047828B4FF2FF331A400E
:1022E0008283828B4FF6FF7303EA01231A438283B2
:1022F00070470000002202881D4B98420ED01D4BF3
:1023000098420BD0B0F1804F08D01B4B984205D0BB
:102310001A4B984202D01A4B984204D14FF68F7351
:102320001A404B881A43174B984207D0164B9842D5
:1023300004D04FF6FF431A40CB881A4302808B88A3
:1023400083850B8803850A4B98420BD0094B984232
:1023500008D00E4B984205D00D4B984202D00D4B41
:10236000984201D10B7A03860123838270470000D3
:10237000002C0140003401400004004000080040EF
:10238000000C0040001000400014004000400140DC
:10239000004401400048014010B5024800F012F925
:1023A00010BD0000D816002010B5024800F00AF950
:1023B00010BD00008806002010B5024800F002F9A8
:1023C00010BD0000B00E002001F40072B2F5007FD5
:1023D00000D100BFCA430280704721B1828942F414
:1023E0000052828104E082894DF6FF731A40828197
:1023F000704770B50246002400230025002040F6F7
:102400006A16B14200D100BFC1F3421501F01F03AB
:10241000012606FA03F3012D02D19689334006E026
:10242000022D02D1168A334001E0968A33400C1205
:10243000012606FA04F41688344013B10CB10120C9
:1024400000E0002070BDF0B5034600240026002502
:10245000002040F66A17B94200D100BF1846C1F308
:10246000421401F01F06012707FA06F5012C01D1DD
:102470000C3004E0022C01D1103000E014301AB10D
:1024800007682F43076002E00768AF430760F0BDAD
:102490002DE9F04786B005460E460024A24600BF4F
:1024A000A1460027B08900B100BF2F462C8A4CF608
:1024B000FF700440F08804432C82AC894EF6F31080
:1024C0000440B08831890843718908430443AC81D2
:1024D000AC8A4FF6FF400440B0890443AC8201A8A7
:1024E000FFF75CF81F48874202D1DDF810A001E039
:1024F000DDF80CA0A88900F4004040B10AEBCA0046
:1025000000EB0A1031684900B0FBF1F807E00AEB74
:10251000CA0000EB0A1031688900B0FBF1F86420B2
:10252000B8FBF0F004012009642101FB1089A8899F
:1025300000F4004040B1322000EBC900B0FBF1F0E4
:1025400000F00700044308E0322000EB091064218A
:10255000B0FBF1F000F00F0004432C8106B0BDE8A1
:10256000F08700000038014001468888C0F3080069
:102570007047C1F308028280704770B504460D466B
:10258000012000F07CFC668B002000F078FC0EB986
:10259000002070BD218BA068405C2870012000F0F5
:1025A0006EFC208B401C80B22083E189884201DBD5
:1025B00000202083608B401E6083002000F05FFCC1
:1025C0000120E6E770B5044640F225512068FFF788
:1025D00010FFE0B12068FFF7C7FFC5B2E18AA0682D
:1025E0004554E08A401C80B2E082E189884201DBE8
:1025F0000020E082608BE189884202DA608B401C17
:102600006083606A10B12846616A884700BF40F263
:1026100027712068FFF7EDFE08B3A08A60B9002299
:1026200040F227712068FFF70EFF012240F2266179
:102630002068FFF708FF37E0638A6268D15C206892
:10264000FFF797FF608A401C80B26082A1898842B0
:1026500001DB00206082A08A401EA08224E040F2BC
:1026600026612068FFF7C5FEF0B1A08A50B90022AC
:1026700040F226612068FFF7E6FE206AA0B1206ADA
:10268000804711E0638A6268D15C2068FFF771FFC0
:10269000608A401C80B26082A189884201DB0020F0
:1026A0006082A08A401EA08270BDF8B504460E4626
:1026B0001746002529E00EE0012000F0E0FBA08A8B
:1026C0000090002000F0DBFBA089BDF800108842DC
:1026D00000DD01E000BFEFE700BF705D228A6168A6
:1026E0008854012000F0CBFB208A401C80B220825D
:1026F000A189884201DB00202082A08A401CA082A0
:10270000002000F0BCFB681C85B2BD42D3DB012277
:1027100040F227712068FFF796FEF8BD2048214956
:10272000086021484860214888604FF480608881B3
:10273000C881002008824882C88208834883888232
:10274000C861086248621A481A4908601A48486015
:102750001A4888604FF480608881C8810020088210
:102760004882C882088348838882C8610862144806
:102770004862144814490860144848601448886046
:102780004FF480608881C881002008824882C88216
:10279000088348838882C8610862486270470000E5
:1027A0000044004088060020B0060020B00A002047
:1027B00000480040B00E0020D80E0020D8120020A3
:1027C00071160008004C0040D816002000170020A9
:1027D000001B002000BFFEE70FB4054B10B503A996
:1027E000044A029800F054FB10BC5DF814FB000092
:1027F00079660008EC000020490050EAC12018BFAB
:1028000004204A0D18BF40F0010040F2FF72B2EB05
:10281000515F08BF40F00200012808BF0520704743
:102820002DE9F74F144694B00021C4E9021115991F
:10283000079121F00045C9498D4206DC1599C4E98C
:10284000000117B00020BDE8F08FC549DFF814A3E0
:10285000A9423CDD0799C44E0029C44FC44A1599CA
:10286000534619DDFDF75FFE554506D0C14AC24B00
:10287000FDF759FEC4E900010AE04FF0D352BE4B08
:10288000FDF751FE32463B46FDF74DFEC4E900011F
:1028900017B00120BDE8F08FFDF7A4FD554506D027
:1028A000B44AB54BFDF79EFDC4E900010AE04FF0C4
:1028B000D352B14BFDF796FD32463B46FDF792FDF4
:1028C000C4E9000117B04FF0FF30BDE8F08FAB490D
:1028D000A942159978DB21F0004183468846A84A31
:1028E000A84BFDF726FE0022A74BFDF77BFDFDF769
:1028F000EBFE0990FDF79DFE06460F469C4A5346A7
:10290000FDF717FE43465A46FDF710FE80468A46FD
:10291000984A994B30463946FDF70BFE2A0D0125A2
:102920000B9242465346FDF701FE032DC4E9000118
:1029300039D00B98C1F30A51401A05EB45111139F2
:10294000814230DA9148C346784400EB0510CDF857
:102950000CA00C90D0E9002330463946FDF7E9FD84
:1029600002460B460491069058460399FDF7DBFD9D
:1029700080468A4602460B4658460399FDF7D3FD2A
:10298000049B069AFDF7CFFD83460C9803913946C8
:10299000D0E902233046FDF7CCFD5A46039BFDF7F4
:1029A000C2FD6D1CBDE707980028A2BF099817B0AB
:1029B000BDE8F08F616881F000416160099817B04F
:1029C0004042BDE8F08FFFE784461598C1F313013C
:1029D000C0F30A50A0F2F5304FEA601800F01F066D
:1029E000C6F12000139000200690079041F4801E4D
:1029F00005206D4676B1664A08EB00017A4452F82C
:102A0000213002EB8101B3404A68139922FA01F1A7
:102A1000194305E05F4908EB0002794451F82210A0
:102A2000A1FB0E27A1FB0C131A449A4234BF0123C9
:102A3000002303EB070A05EB8003D3E901B70F443A
:102A40008F4234BF0121002193448B4411B193453F
:102A500002D903E0934501D2012100E00021C3E93E
:102A600001B7514445F82010011EA0F10100C1DC5E
:102A70000298059F00F10050800F12900298DDE946
:102A800003568000FDF7D5FD834628460D91FDF7DE
:102A9000E1FD6FF01D02FDF7D5FFCDE90E013046D7
:102AA000FDF7D8FD6FF03D02FDF7CCFF80468A466A
:102AB0003846FDF7CFFD6FF05D02FDF7C3FF074617
:102AC000424653461191FDF78DFCDDE90E23FDF7DB
:102AD00089FC5A460D9BFDF785FC00250E465A469B
:102AE00028460D9BFDF71FFDDDE90E23FDF71BFDBD
:102AF00042465346FDF717FD3A46119BFDF716FD7A
:102B0000DFF898A0244A5346FDF713FD0746884690
:102B1000234A244B31462846FDF70BFD3A464346EF
:102B2000FDF760FC074688464FF0A8425346314601
:102B30002846FDF7FEFC3A464346FDF753FC159A3E
:102B400012F0004F04D0129A81F0004152421292CA
:102B5000C4E90001129817B0BDE8F08FFB21E93FEE
:102B60007CD90240FB21F93F7370032E8A19A33BE5
:102B7000000040543163621A61B4D03DFB213941F9
:102B800083C8C96D305FE43F0000E03F9C50000007
:102B900018500000FA4F0000182D4454FB21F93D55
:102BA0003326A611460B113C2DE9FF4D21F00048BC
:102BB00007460C46B8F1795F08DAFDF785FD002875
:102BC00001BF0020324904B0BDE8F08D3A462346EB
:102BD00010461946FDF7ADFC054602462D480E4647
:102BE0000B460621784400F05DF82A463346FDF78F
:102BF000A0FCDDE9022382468B4638462146FDF7DC
:102C000098FC04460F4652465B4628463146FDF77F
:102C100090FC22463B46FDF786FC07468A464FF06D
:102C2000FF3228463146FDF70DFF1B4A90450ADA70
:102C30003A465346FDF777FC04B00022BDE8F04D5C
:102C4000134BFDF773BC154A4245A8BFA8F5001504
:102C50004FF00004B8BF124D22462B46FDF763FC2F
:102C60000646884622462B4600200949FDF75BFCB4
:102C700004460D463A46534630464146FDF753FC5E
:102C800004B022462B46BDE8F04DFDF74FBC0000D6
:102C90000000F03FD04D00003333D33F0000E93F48
:102CA0000000D23F2DE9F0414F1E00EBC701044662
:102CB000D1E9000115461E4637F006020DD02A461E
:102CC0003346FDF736FC7F1E04EBC703D3E9002330
:102CD000FDF788FB37F00602F1D1022F25D0042F33
:102CE00013D0062F18BFBDE8F0812A463346FDF702
:102CF00020FCD4E90A23FDF775FB2A463346FDF78D
:102D000018FCD4E90823FDF76DFB2A463346FDF78E
:102D100010FCD4E90623FDF765FB2A463346FDF790
:102D200008FCD4E90423FDF75DFB2A463346FDF792
:102D300000FCD4E90223FDF755FB2A463346FDF794
:102D4000F8FBD4E90023BDE8F041FDF74BBB0000E0
:102D50002DE9FF4D054621F0004084B00C46B0F14E
:102D6000795F0BDA2846FFF747FD042808BF00F01B
:102D70006FF8284608B02146BDE8F08D2A460B467C
:102D80001046FDF7D6FB06460F462A462346FDF7BA
:102D9000D0FB804626488A4632463B460521784489
:102DA000FFF780FF83461098029160B3214A224BBF
:102DB00040465146FDF7BDFBCDE900015A4640466D
:102DC0005146029BFDF7B5FB82468846DDE90601C8
:102DD0004FF0FF32FDF736FE52464346FDF7A3FBA8
:102DE00032463B46FDF7A5FBDDE90623FDF79BFBDD
:102DF000DDE90023FDF797FB08B02A462346BDE82E
:102E0000F04DFDF793BB0B465A4630463946FDF769
:102E100090FB084A084BFDF7E5FA42465346FDF79A
:102E200088FB08B02A462346BDE8F04DFDF7DABA24
:102E30000E4D0000495555555555C5BF0122FDF7AA
:102E400001BE0022134610461146FDF779BD000071
:102E5000024A00201107FDF7F5BD000001FDFFFF4C
:102E600002E008C8121F08C1002AFAD17047704753
:102E7000002001E001C1121F002AFBD1704780F33E
:102E8000108870470149086070470000F00000207A
:102E90002DE9FF4F8DB00F460546002606E0252898
:102EA0000BD0DDE90F1290476D1C761C28780028A6
:102EB000F5D111B03046BDE8F08F0024A246A146FE
:102EC0000122EC4900E0044315F8013F203B02FADF
:102ED00003F00842F7D128782A2810D06FF02F028B
:102EE0002878A0F13001092914D80AEB8A0102EBF5
:102EF000410144F0020400EB010A6D1CF0E701CF30
:102F00005FEA000A03D544F40054CAF1000A44F011
:102F100002046D1C28782E2817D115F8010F44F0F3
:102F200004042A280ED06FF02F022878A0F1300177
:102F300009290AD809EB890102EB410100EB0109DB
:102F40006D1CF2E757F8049B6D1C28786C280FD095
:102F500006DC4C2817D068280DD06A2814D104E06C
:102F6000742810D07A280FD10DE044F400140AE040
:102F700044F4801401E044F440146978814202D1A1
:102F800004F580146D1C6D1C2A786E2A1FD00CDC91
:102F9000632A31D004DC002A8BD0582A11D1A3E057
:102FA000642A68D0692A0CD165E0732A2ED004DC2B
:102FB0006F2A73D0702A04D19BE0752A6FD0782ACB
:102FC0006ED01046DDE90F129047761C50E1C4F335
:102FD0000250022806D0032809D0042801CF09D0C6
:102FE000066045E101CFF117C0E9006140E101CF82
:102FF00006803DE106703BE117F8040B8DF80000F8
:1030000000208DF80100EB46012003E057F804BBD7
:103010004FF0FF3061074FF0000102D40DE008F1DE
:103020000101884649450FDA8045F8DB1BF8081096
:103030000029F4D108E008F1010188468142FADB59
:103040001BF808100029F6D1DDE90F23AAEB0800D0
:103050008146214600F036F9304400EB080604E0D2
:10306000DDE90F121BF8010B9047B8F10108F7D208
:1030700021464846F7E00A21C4F302534FF0000B03
:103080000891022B04D001CFC117032B09D00AE00D
:10309000FF1D27F00707F7E8020108E032E01FE014
:1030A00020E000B2C117042B01D140B2C117031EAA
:1030B00071F1000307DA4FF0000CD0EB0C006CEB61
:1030C00001012D2302E0230504D52B238DF82430A4
:1030D000012303E0E30701D02023F7E7984658E0F7
:1030E0000A2110E010210EE010204FF0000B089094
:1030F0000CE010214FF0000B44F004044FF00809DD
:10310000089103E008214FF0000B0891C4F302532B
:10311000022B04D001CF0021032B06D006E0FF1DB7
:1031200027F00707F7E8020103E080B2042B00D183
:10313000C0B24FF0000823072BD5702A07D0DDF866
:1031400020C08CF0100C5CEA0B0C05D00EE0402384
:103150008DF82430012308E050EA010306D0302323
:103160008DF824308DF8252002239846DDF820C004
:103170008CF0080C5CEA0B0C0BD150EA010301D176
:10318000630706D530238DF824304FF00108A9F1EC
:103190000109582A04D038A20B9208AA0A920BE01F
:1031A0003AA2F9E75B46089AFDF7D4FA0B9B9B5CC1
:1031B0000A9A521E0A92137050EA0102F2D10A983A
:1031C000ADEB000000F1200B600702D524F4803441
:1031D00001E04FF00109D94502DDA9EB0B0000E049
:1031E000002000EB0B0141440890AAEB010AE00328
:1031F00006D4DDE90F232146504600F063F806446B
:103200004FF0000908E009A911F80900DDE90F12E3
:10321000904709F10109761CC145F4DBE0030CD5A8
:10322000DDE90F232146504600F04CF8064404E047
:10323000DDE90F1230209047761C0899481E08904F
:103240000029F5DC08E00A980A990078491C0A91DF
:10325000DDE90F129047761CBBF10001ABF1010BC9
:10326000F1DC21465046DDE90F2300F019F8064451
:103270006D1C1BE6092801003031323334353637F6
:1032800038396162636465660000000030313233B2
:103290003435363738394142434445460000000052
:1032A0002DE9F041044600251E461746880404D443
:1032B00005E039462020B0476D1C641EF9D528462C
:1032C000BDE8F0812DE9F041044600251E469046F8
:1032D000C80301D5302700E02027880404D505E085
:1032E00041463846B0476D1C641EF9D52846BDE8F6
:1032F000F0812DE9F04105460E4617460024B04600
:1033000000BF1FE003F010FAB62003F0E3F903F06A
:1033100035FA00B11BE008F0FF0003F0DBF903F021
:103320002DFA00B113E0285D03F0D4F903F026FA7A
:1033300000B10CE003F010FA08F101001FFA80F868
:10334000601C84B2BC42DDDB0120BDE8F08103F0EB
:1033500003FA0020F9E7000000B587B001214FF41F
:103360008260FEF7FBF84FF40040FEF7DBF8102018
:10337000ADF8040000208DF8070001A91748FDF7FB
:10338000C3FD1748FDF780FB002002908DF80C006C
:103390008DF80D004FF4602004900020059001206E
:1033A0008DF8180002A90E48FDF7BEFB01210C485C
:1033B000FDF75FFB0A48FDF73BFC00BF0848FDF73F
:1033C000A8FB0028FAD10648FDF742FC00BF0448DC
:1033D000FDF788FB0028FAD107B000BD00100140BE
:1033E0000028014070B504460D46072C24DC012D51
:1033F0000ED12046E11704EB5171C910A4EBC102B4
:10340000012191401F4A127811431E4A11700DE0AC
:103410002046E11704EB5171C910A4EBC102012150
:103420009140184A12788A4316490A7001220221F3
:103430001448FFF75EFF23E0012D0ED12046E1176F
:1034400004EB5171C910A4EBC102012191400E4A55
:10345000127811430C4A11700DE02046E11704EB7D
:103460005171C910A4EBC10201219140064A1278A2
:103470008A4305490A70012203210348FFF739FFF7
:1034800070BD0000180000201900002070B50A4827
:10349000017A407A41EA002004B2604204B2204638
:1034A000FDF7B9F805460549FCF75EFF024948619A
:1034B0000846048370BD0000F40000200000C842EC
:1034C00023480179407941EA002000B2214908806F
:1034D0001F488179C07941EA002000B21D49488027
:1034E0001B48017A407A41EA002000B219498880DD
:1034F0001748817AC07A41EA002000B21549C88095
:103500001348017B407B41EA002000B21149088149
:103510000F48807B40B288720D48C17B007C41EA35
:10352000002000B20B4988810846B0F90000B1F9CB
:10353000021008440749B1F9041008440549B1F9DB
:103540000610884201D0002070470120FCE70000EF
:10355000F40000201001002010B51048007800B9D8
:1035600010BD00200D490870084640880D2805D080
:10357000084641880AA0FFF72FF909E0FFF7A0FFEE
:1035800018B90CA0FFF728F902E0FFF77FFF00BF92
:1035900000200249488000BFE2E70000F40000205C
:1035A000616E676C65206C656E206572723A256489
:1035B0000D0A0000616E676C652063686B206572A0
:1035C000723A0D0A000000000148B0F91800704777
:1035D000F400002070B5044600200A49087040F24B
:1035E0002F15094A2946032002F022FF054840888A
:1035F0000D2806DA03494888411C024A5180111DF2
:103600000C5470BDF40000204136000810B54FF492
:1036100000510A48FDF757FD0A2000F08FF94FF4DA
:1036200000510648FDF74DFD0A2000F087F94FF4E0
:1036300000510248FDF747FD10BD0000000C01409D
:1036400010B5012002490870FFF786FF10BD000089
:10365000F400002030B504460D46FF21FF22002370
:1036600007E0E05C084480B20146104482B2581C76
:10367000C3B2AB42F5DBC8B200EB2121D0B200EB04
:10368000222241EA022080B230BD10B5B62002F0FD
:10369000FDFF08B9012010BD03F05EF80020FAE735
:1036A00010B5002420211148FDF702FD08B144F0B7
:1036B00001044FF480710E48FDF7FAFC08B144F0A4
:1036C00002040CB9032010BD012C01D10020FAE73F
:1036D000022C01D10120F6E7032C01D10220F2E7F0
:1036E00004A0FFF779F80320EDE70000000801408F
:1036F000001C0140B2BBBACFC0EDB5C4C5F6D7B20D
:10370000BDE1B9FB0D0A00002DE9F04F8FB000209C
:103710000D90002403200E90EEE09DF8341020461A
:10372000E21704EBD2525212A4EB42227A4B995484
:10373000601C84B2012C05D19DF83400AA28EBD07E
:103740000024D9E0022C05D19DF83400AA28E3D04A
:103750000024D1E0032C05D19DF83400AA28DBD049
:103760000024C9E0042C11D19DF834006B49887005
:103770009DF834002528CFD09DF834003528CBD0D3
:103780009DF834004528C7D00024B5E0052C04D1AD
:103790009DF8340061490880AEE060480088083038
:1037A000A042B9DCA01FC1B25B48C01CFFF752FFAA
:1037B0000C90A01E5849095CE01E574A105C41EA73
:1037C00000200B90601E1146085C552803D1DDE9EE
:1037D0000B10884201D000248DE0504880782528C5
:1037E0007ED14D4880794C49497940EA01200FFA51
:1037F00080F94948007A4849C97940EA012000B275
:103800000A900A98FCF707FF45490090FCF77AFDFB
:1038100044490190FCF7A8FD80464349FCF772FD3E
:103820000746FCF770FFCDE904014FEA4900FCF7B9
:1038300000FF07463D4A3E4BFCF77BFECDE9020107
:10384000DDE90423FCF76FFE00223A4BCDE90601C7
:10385000FCF76FFE05460022374BFCF76AFE8246F6
:10386000FCF732FF00B209900A98FCF7D4FE2C490D
:103870000090FCF747FD2B490190FCF775FD83464E
:103880002949FCF73FFD8246FCF73DFFCDE90401E5
:103890004FEA4900FCF7CDFE8246244A244BFCF750
:1038A00048FECDE90201DDE90423FCF79BFD054656
:1038B0000022204BFCF73DFE074600221E4BFCF782
:1038C00038FECDE90601FCF7FFFE00B2089009982A
:1038D00001F0A6FF05462946002002F097FC00E013
:1038E00008E0089801F09CFF05462946012002F0F7
:1038F0008DFC00BF002400BF0DA90E9802F040FE11
:1039000000287FF40AAF0E9001200E9002200E9046
:103910000FB0BDE8F08F00004803002040000020F9
:10392000C3F54840000034431F856B3EFCA9F1D22B
:103930004D62503F0000E03F00408F4010B504460C
:103940004FF47A7104FB01F000F002F810BD0000A2
:1039500030B5084C63680021074C2468074DB4FB60
:10396000F5F404FB00F202E0024C6468E11A9142B3
:10397000FAD330BD001000E07400002040420F0078
:1039800070B5FE48007800B970BDFC484078152835
:103990002DD2DFE810F015002D00C900E7008301EB
:1039A000A1014902670203032103BD03DB03830472
:1039B000A1043D055B0501061F06AE06CC065B07AC
:1039C000EE48007A0A2190FBF1F201FB1200EC496B
:1039D00001EB4000447800212046FFF703FD03F08F
:1039E00035FEE649486008464078401C48708EE342
:1039F00003F02CFEE1494968401A03287BD3DF48D5
:103A0000007A0A2190FBF1F201FB1200DC4911F867
:103A1000104000212046FFF7E5FC7820FFF798FFD3
:103A200001F05AF9D549097A0A2291FBF2F302FB17
:103A30001311D44A42F83100D048007A0A2190FB91
:103A4000F1F201FB1200CE4911F81040012120468D
:103A5000FFF7C8FC1420FFF77BFF01F03DF9C749D1
:103A6000097A0A2291FBF2F302FB1311C54A02EB19
:103A7000C1014860C148007A0A2190FBF1F201FBC4
:103A80001200BF4901EB4000447801212046FFF7B6
:103A9000A9FCBA494D7805EBD5714910B94A02EB3A
:103AA000C10148684FF07E51FCF74AFE01D8002062
:103AB00007E0B248447804EBD4704010B14951F8A3
:103AC0003000AE49097A0A2291FBF2F302FB13118E
:103AD000AD4A42F82100A9494C7804EBD471491051
:103AE000A84A02EBC10148684FF07E51FCF728FE5E
:103AF00002D8012001E016E00020A049097A0A223C
:103B000091FBF2F302FB1311A04A50549B48007A38
:103B1000401C9A49087203F099FD9849486008468C
:103B20004078401C487062E703F090FD9349496873
:103B3000401A16D09148007A0A2190FBF1F201FB5D
:103B400012008F4901EB4000447800212046FFF726
:103B500049FC03F07BFD8949486008464078401CD9
:103B6000487044E703F072FD84494968401A03280D
:103B70007BD38248007A0A2190FBF1F201FB12000C
:103B80007F4911F8104000212046FFF72BFC7820D8
:103B9000FFF7DEFE01F0A0F87849097A0A2291FBCE
:103BA000F2F302FB1311774A42F831007348007AAE
:103BB0000A2190FBF1F201FB1200714911F810404B
:103BC00001212046FFF70EFC1420FFF7C1FE01F093
:103BD00083F86A49097A0A2291FBF2F302FB131176
:103BE000684A02EBC10148606448007A0A2190FBF0
:103BF000F1F201FB1200624901EB4000447801211F
:103C00002046FFF7EFFB5D494D7805EBD571491074
:103C10005C4A02EBC10148684FF07E51FCF790FD11
:103C200001D8002007E05548447804EBD4704010D8
:103C3000544951F830005149097A0A2291FBF2F3B4
:103C400002FB1311504A42F821004C494C7804EB16
:103C5000D47149104B4A02EBC10148684FF07E51C4
:103C6000FCF76EFD02D8012001E016E00020434978
:103C7000097A0A2291FBF2F302FB1311434A5054D2
:103C80003E48007A401C3D49087203F0DFFC3B4986
:103C9000486008464078401C4870A8E603F0D6FC0F
:103CA00036494968401A16D03448007A0A2190FBF8
:103CB000F1F201FB1200324901EB4000447800218F
:103CC0002046FFF78FFB03F0C1FC2C4948600846F3
:103CD0004078401C48708AE603F0B8FC27494968E0
:103CE000401A03287DD32548007A0A2190FBF1F27F
:103CF00001FB1200224911F8104000212046FFF775
:103D000071FB7820FFF724FE00F0E6FF1B49097ADB
:103D10000A2291FBF2F302FB13111A4A42F8310016
:103D20001648007A0A2190FBF1F201FB12001449B7
:103D300011F8104001212046FFF754FB1420FFF733
:103D400007FE00F0C9FF0D49097A0A2291FBF2F340
:103D500002FB13110B4A02EBC10148600748007ACD
:103D60000A2190FBF1F201FB1200054901EB400032
:103D7000447801212046FFF735FB09E020010020AF
:103D80001C0000202C0100207C010020A401002048
:103D9000FE494D7805EBD5714910FD4A02EBC10192
:103DA00048684FF07E51FCF7CBFC01D8002007E0BB
:103DB000F648447804EBD4704010F54951F83000CF
:103DC000F249097A0A2291FBF2F302FB1311F14A3C
:103DD00042F82100ED494C7804EBD4714910EC4ACB
:103DE00000E020E002EBC10148684FF07E51FCF793
:103DF000A7FC01D8012000E00020E449097A0A224A
:103E000091FBF2F302FB1311E34A5054DF48007AAE
:103E1000401CDE49087203F019FCDC494860084682
:103E20004078401C4870E2E503F010FCD74949682F
:103E3000401A16D0D548007A0A2190FBF1F201FB16
:103E40001200D64901EB4000447800212046FFF7DC
:103E5000C9FA03F0FBFBCD49486008464078401C96
:103E60004870C4E503F0F2FBC8494968401A0328CA
:103E70007BD3C648007A0A2190FBF1F201FB1200C5
:103E8000C64911F8104000212046FFF7ABFA782010
:103E9000FFF75EFD00F020FFBC49097A0A2291FB82
:103EA000F2F302FB1311BA4A42F83100B748007A24
:103EB0000A2190FBF1F201FB1200B84911F8104001
:103EC00001212046FFF78EFA1420FFF741FD00F094
:103ED00003FFAE49097A0A2291FBF2F302FB1311A8
:103EE000AB4A02EBC1014860A848007A0A2190FB66
:103EF000F1F201FB1200A94901EB400044780121D5
:103F00002046FFF76FFAA1494D7805EBD5714910AE
:103F10009F4A02EBC10148684FF07E51FCF710FC4C
:103F200001D8002007E09948447804EBD470401091
:103F3000974951F830009549097A0A2291FBF2F32A
:103F400002FB1311934A42F8210090494C7804EB8C
:103F5000D47149108E4A02EBC10148684FF07E517E
:103F6000FCF7EEFB02D8012001E016E000208749B3
:103F7000097A0A2291FBF2F302FB1311864A50548C
:103F80008248007A401C8149087203F05FFB7F4938
:103F9000486008464078401C487028E503F056FB0E
:103FA0007A494968401A16D07848007A0A2190FB6D
:103FB000F1F201FB1200794901EB40004478002145
:103FC0002046FFF70FFA03F041FB704948600846AE
:103FD0004078401C48700AE503F038FB6B4949689B
:103FE000401A03287BD36948007A0A2190FBF1F23A
:103FF00001FB1200694911F8104000212046FFF72B
:10400000F1F97820FFF7A4FC00F066FE5F49097A19
:104010000A2291FBF2F302FB13115D4A42F83100D0
:104020005A48007A0A2190FBF1F201FB12005B4929
:1040300011F8104001212046FFF7D4F91420FFF7B2
:1040400087FC00F049FE5149097A0A2291FBF2F3FC
:1040500002FB13114E4A02EBC10148604B48007A43
:104060000A2190FBF1F201FB12004C4901EB4000E8
:10407000447801212046FFF7B5F944494D7805EB16
:10408000D5714910424A02EBC10148684FF07E5198
:10409000FCF756FB01D8002007E03C48447804EBCD
:1040A000D47040103A4951F830003849097A0A2250
:1040B00091FBF2F302FB1311364A42F82100334917
:1040C0004C7804EBD4714910314A02EBC1014868C5
:1040D0004FF07E51FCF734FB02D8012001E016E0DE
:1040E00000202A49097A0A2291FBF2F302FB1311FC
:1040F000294A50542548007A401C2449087203F08C
:10410000A5FA2249486008464078401C4870A8E358
:1041100003F09CFA1D494968401A16D01B48007AE2
:104120000A2190FBF1F201FB12001C4901EB400057
:10413000447800212046FFF755F903F087FA134928
:10414000486008464078401C48708AE303F07EFAD5
:104150000E494968401A03287DD30C48007A0A2189
:1041600090FBF1F201FB12000C4911F81040002104
:104170002046FFF737F97820FFF7EAFB00F0ACFDA7
:104180000249097A0A2291FBF2F309E0200100209A
:104190002C0100207C010020A40100201C00002034
:1041A00002FB1311F74A42F83100F748007A0A215E
:1041B00090FBF1F201FB1200F44911F810400121CB
:1041C0002046FFF70FF91420FFF7C2FB00F084FD33
:1041D000ED49097A0A2291FBF2F302FB1311E94A35
:1041E00002EBC1014860E848007A0A2190FBF1F235
:1041F00001FB1200E54901EB400044780121204613
:10420000FFF7F0F8E0494D7805EBD5714910DD4A2C
:1042100002EBC10148684FF07E51FCF791FA01D8DA
:10422000002007E0D848447804EBD4704010D5490A
:1042300051F83000D449097A0A2291FBF2F302FBCB
:104240001311D34A42F82100CF494C7804EBD471C2
:104250004910CC4A00E020E002EBC10148684FF071
:104260007E51FCF76DFA01D8012000E00020C6491C
:10427000097A0A2291FBF2F302FB1311C54A50544A
:10428000C148007A401CC049087203F0DFF9BE49FA
:10429000486008464078401C4870E2E203F0D6F9D6
:1042A000B9494968401A16D0B748007A0A2190FBEC
:1042B000F1F201FB1200B54901EB40004478002106
:1042C0002046FFF78FF803F0C1F9AF494860084670
:1042D0004078401C4870C4E203F0B8F9AA49496824
:1042E000401A03287BD3A848007A0A2190FBF1F2F8
:1042F00001FB1200A54911F8104000212046FFF7EC
:1043000071F87820FFF724FB00F0E6FC9E49097A5B
:104310000A2291FBF2F302FB13119A4A42F8310090
:104320009948007A0A2190FBF1F201FB12009749AB
:1043300011F8104001212046FFF754F81420FFF730
:1043400007FB00F0C9FC9049097A0A2291FBF2F3BD
:1043500002FB13118B4A02EBC10148608A48007AC4
:104360000A2190FBF1F201FB1200884901EB4000A9
:10437000447801212046FFF735F883494D7805EB55
:10438000D57149107F4A02EBC10148684FF07E5158
:10439000FCF7D6F901D8002007E07B48447804EB0D
:1043A000D4704010774951F830007749097A0A22D1
:1043B00091FBF2F302FB1311754A42F82100724996
:1043C0004C7804EBD47149106E4A02EBC101486885
:1043D0004FF07E51FCF7B4F902D8012001E016E05D
:1043E00000206949097A0A2291FBF2F302FB1311BA
:1043F000684A50546448007A401C6349087203F0CC
:1044000025F96149486008464078401C487028E218
:1044100003F01CF95C494968401A16D05A48007AE2
:104420000A2190FBF1F201FB1200584901EB400018
:10443000447800212046FEF7D5FF03F007F95249E2
:10444000486008464078401C48700AE203F0FEF8D5
:104450004D494968401A03287BD34B48007A0A210A
:1044600090FBF1F201FB1200484911F810400021C5
:104470002046FEF7B7FF7820FFF76AFA00F02CFC21
:104480004149097A0A2291FBF2F302FB13113D4ADA
:1044900042F831003C48007A0A2190FBF1F201FB1E
:1044A00012003A4911F8104001212046FEF79AFF08
:1044B0001420FFF74DFA00F00FFC3349097A0A2265
:1044C00091FBF2F302FB13112E4A02EBC10148608B
:1044D0002D48007A0A2190FBF1F201FB12002B49D2
:1044E00001EB4000447801212046FEF77BFF26497E
:1044F0004D7805EBD5714910224A02EBC10148689D
:104500004FF07E51FCF71CF901D8002007E01E484F
:10451000447804EBD47040101A4951F830001A491D
:10452000097A0A2291FBF2F302FB1311184A42F8AE
:10453000210015494C7804EBD4714910114A02EB63
:10454000C10148684FF07E51FCF7FAF802D801200B
:1045500001E016E000200C49097A0A2291FBF2F3EF
:1045600002FB13110B4A50540748007A401C0649BD
:10457000087203F06BF80449486008464078401C14
:1045800048706EE12C010020200100201C0000205A
:104590007C010020A401002003F058F8B3494968C9
:1045A000401A16D0B148007A0A2190FBF1F201FBC3
:1045B0001200AF4901EB4000447800212046FEF78D
:1045C00011FF03F043F8A949486008464078401CB1
:1045D000487046E103F03AF8A4494968401A0328B4
:1045E0007DD37820FFF7B4F900F076FB9F49097A74
:1045F0000A2291FBF2F302FB13119E4A42F83100AA
:104600009A48007A0A2190FBF1F201FB12009849C6
:1046100011F8104001212046FEF7E4FE1420FFF7B8
:1046200097F900F059FB9149097A0A2291FBF2F3BC
:1046300002FB13118F4A02EBC10148608B48007ADC
:104640000A2190FBF1F201FB1200894901EB4000C5
:10465000447801212046FEF7C5FE84494D7805EBDC
:10466000D5714910834A02EBC10148684FF07E5171
:10467000FCF766F801D8002007E07C48447804EB9A
:10468000D47040107B4951F830007849097A0A22E9
:1046900091FBF2F302FB1311774A42F821007349B0
:1046A0004C7804EBD4714910724A02EBC10148689E
:1046B0004FF07E51FCF744F801D8012000E00020C3
:1046C0006A49097A0A2291FBF2F302FB13116B4A41
:1046D00050546648007A401C6449087200E007E0C4
:1046E00002F0B4FF6149486008464078401C4870B9
:1046F000B7E002F0ABFF5D494968401A16D05B484D
:10470000007A0A2190FBF1F201FB1200584901EBFB
:104710004000447800212046FEF764FE02F096FF38
:104720005249486008464078401C487099E002F0C1
:104730008DFF4E494968401A03287DD37820FFF742
:1047400007F900F0C9FA4949097A0A2291FBF2F304
:1047500002FB1311474A42F831004448007A0A210B
:1047600090FBF1F201FB1200414911F810400121C8
:104770002046FEF737FE1420FFF7EAF800F0ACFA07
:104780003A49097A0A2291FBF2F302FB1311394AE2
:1047900002EBC10148603548007A0A2190FBF1F232
:1047A00001FB1200324901EB400044780121204610
:1047B000FEF718FE2D494D7805EBD57149102D4AAD
:1047C00002EBC10148684FF07E51FBF7B9FF01D8F9
:1047D000002007E02548447804EBD47040102549B8
:1047E00051F830002149097A0A2291FBF2F302FBC9
:1047F0001311214A42F821001C494C7804EBD47172
:1048000049101C4A02EBC10148684FF07E51FBF78A
:1048100097FF01D8012000E000201449097A0A22FC
:1048200091FBF2F302FB1311144A50540F48007A23
:10483000401C0E49087200E007E002F007FF0B4938
:10484000486008464078401C48700AE002F0FEFECE
:1048500006494968401A03D000200449487008728C
:1048600000BF00BF00BFFFF78FB80000200100208D
:104870001C0000202C0100207C010020A40100204D
:104880000020704770B50546304800EB05142068DD
:10489000804700283ED02079052802DA05202071C3
:1048A00052E020790A2803DA2079401C20714BE07D
:1048B000A07A38B90120A07205EB4501491CC8B2A5
:1048C00001F096FA208900283EDDE088218988429F
:1048D0000DDAE088401C80B2E0802189884233D123
:1048E00005EB4501C91CC8B201F082FA2CE0E07A60
:1048F000002829DD207B401CC0B22073E17A884269
:1049000022DB0020207305EB4501491CC8B201F0F1
:104910006FFA19E02079052802DD0520207110E0EA
:10492000207918B12079401E20710AE0A07A012870
:1049300007D10020A07205EB4501891CC8B201F027
:1049400057FA0020E080207370BD0000001F002097
:1049500000200449487048604881087201200870AE
:1049600070470000200100201FB501210420FCF742
:10497000F5FD4FF40040ADF80C0004208DF80F0059
:1049800003A92E48FCF7C0FA01210846FCF7E6FD12
:104990000F210020FCF798FA4FF40040019000200E
:1049A0008DF8080010208DF8090001208DF80A000C
:1049B00001A8FCF73FFA28208DF800000F208DF8A1
:1049C000010000208DF8020001208DF803006846E8
:1049D000FCF766FD01214020FCF7C0FD0820ADF882
:1049E0000C0004208DF80F0003A91548FCF78CFA81
:1049F00001210846FCF7B2FD03210420FCF764FA0C
:104A00000820019000208DF8080010208DF8090082
:104A100001208DF80A0001A8FCF70CFA09208DF896
:104A200000000F208DF8010000208DF80200012009
:104A30008DF803006846FCF733FD1FBD00080140F8
:104A40000018014001460020044A02EBC1025068F0
:104A50000022024B03EBC1035A6070479C05002003
:104A60002DE9F04F99B000245320189098481790E2
:104A7000FEF7AAFD05464D201690002000F078FEB6
:104A800000B21590012000F073FE00B214900020D7
:104A900000F094F98F490990FBF734FC0A90FBF77A
:104AA000FFFD80B21390012000F088F98949099038
:104AB000FBF728FC0A90FBF7F3FD86B2022000F01A
:104AC0007DF984490990FBF71DFC0A90FBF7E8FD8E
:104AD00087B2032000F072F97E490990FBF712FCBF
:104AE0000A90FBF7DDFD1FFA80F8042000F066F95C
:104AF00078490990FBF706FC0A90FBF7D1FD1FFAF5
:104B000080F9052000F05AF972490990FBF7FAFB89
:104B10000A90FBF7C5FD1FFA80FA062000F04EF957
:104B20006C490990FBF7EEFB0A90FBF7B9FD1FFA01
:104B300080FB072000F042F966490990FBF7E2FB91
:104B40000A90FBF7ADFD80B21290082000F036F914
:104B500060490990FBF7D6FB0A90FBF7A1FD80B2F4
:104B60001190092000F02AF95A490990FBF7CAFB75
:104B70000A90FBF795FD80B2109002F067FD0F9050
:104B8000002000F0EDFD0E90012000F0E9FD0D90F9
:104B900000F0ECF80C9000F0FDF80B90AA204C49C6
:104BA0000870487088703020C8700020087116980E
:104BB00048710E98C1F806000D98C1F80A001598C2
:104BC000C881149808820C98C1F812000B98C1F89B
:104BD00016000846458300200877FEF761FD3C4932
:104BE00048770020C88381F820001398A1F821009D
:104BF0000846A0F82360A0F82570A0F82780A0F848
:104C00002990A0F82BA0A0F82DB01298A1F82F00A1
:104C10001198A1F831001098A1F83300002081F814
:104C20003500C8860887488781F83C0081F83D0038
:104C300081F83E0081F83F000F9808640020486426
:104C40008864C86481F8500081F85100552081F8CB
:104C500052001898801FC1B21798C01CFEF7FAFCCA
:104C6000044620121A4981F8500081F8514000BFD3
:104C7000282101A8FBF7E3FA2846FBF7CCFC0190BA
:104C80003046FBF7D1FC02903846FBF7CDFC039091
:104C90004046FBF7C9FC04904846FBF7C5FC05906D
:104CA0005046FBF7C1FC06905846FBF7BDFC079049
:104CB0001298FBF7B9FC08901198FBF7B5FC099026
:104CC0001098FBF7B1FC0A9019B0BDE8F08F000016
:104CD000480500200000C8422DE9F84F00250326B2
:104CE000002700BF17E0072301220E211748FBF71A
:104CF00043FF01211548FBF7A0FF00BF0221134825
:104D0000FBF7FEFE0028F9D01048FBF7F5FE04463D
:104D10002744681CC5B2B542E5DB3046FBF784FC8E
:104D200083463846FBF780FC59460090FBF71CFB96
:104D300082460749FBF7E6FA81464FF08B41FBF7C5
:104D400013FB80464046BDE8F88F00000028014074
:104D50003333534010B580210348FCF7A9F908B15B
:104D6000012010BD0020FCE7001C01402DE9F041AE
:104D70000648066941690022054B3046FBF7D9FB1E
:104D80000446FBF7A1FCBDE8F081000038060020D6
:104D900000408F402DE9F04106488669C169002234
:104DA000054B3046FBF7C5FB0446FBF78DFCBDE821
:104DB000F08100003806002000408F400146024884
:104DC00050F82100704700007C0100200B48807AD9
:104DD0000A4AD27A904201D1002070470748807A6F
:104DE000064A115C1046807A401CC0B290720A28B4
:104DF00001DB002090720846EFE70000A01F0020B2
:104E000001460020244A914201D1C81442E0234ABD
:104E1000914201D148143DE0214A914202D14FF420
:104E2000002037E01F4A914202D14FF4801031E058
:104E30001D4A914202D14FF400102BE0B1F1804F96
:104E400001D1012026E0194A914201D1022021E03E
:104E5000174A914201D104201CE0164A914201D127
:104E6000082017E0144A914201D1102012E0134AA1
:104E7000914201D120200DE0114A914201D1402000
:104E800008E0104A914201D1802003E00E4A91428D
:104E900000D1881570470000002C0140003401400B
:104EA000004C01400050014000540140000400400B
:104EB00000080040000C00400010004000140040BA
:104EC00000180040001C00400020004070B505465E
:104ED0000C4645F25550FCF741F92846FCF732F9EB
:104EE0002046FCF735F9FCF725F9FCF71BF970BDF6
:104EF00010B5FCF71FF910BD10B54FF44070FCF76A
:104F000007FB00F095F800F053F800F053FA00F0BA
:104F1000D9FB00F0B3FA00F0CBF900F024F900F06F
:104F2000B1F800F0A7F800F0F9F9002000F020FA3D
:104F3000012000F01DFA00F05BF800F04FF800F0DF
:104F4000F5F900BF00F026F804462CB907A0FDF7DC
:104F500043FC6420FEF7F2FC002CF3D000F07CF858
:104F600000F0FAF807A0FDF737FC10BD41573935BE
:104F700032334220496E6974204572726F720D0A95
:104F800000000000B3F5CABCBBAFCDEAB1CF0D0A3B
:104F90000000000010B500F023FA00F0A9F8FEF7B9
:104FA00074FB08B9002010BD00F044FA0120FAE7B4
:104FB00008B501210820FCF7D1FA03208DF8020082
:104FC00014208DF803004FF40050ADF8000069463E
:104FD0000148FBF799FF08BD000C014010B54721BF
:104FE0004FF6FF7000F078FA00F0A0F810BD000056
:104FF00008B501218420FCF7B1FA03208DF80200E6
:1050000048208DF803002020ADF8000069460648CE
:10501000FBF77AFF4FF48070ADF800006946034853
:10502000FBF772FF08BD000000080140001C0140B2
:105030000748006840F08070054908600020054975
:1050400048600846006840F00100086070470000B2
:10505000FCED00E0001000E010B5FEF77DF9002047
:1050600003490870487048604881087210BD00000C
:105070002001002010B500F001F810BD10B5FFF7B9
:1050800073FC10BD7FB501210820FCF757FA1548C5
:10509000006846081448B6FBF0F085B24FF6FF747E
:1050A000ADF80840ADF804500020ADF80A00ADF8A6
:1050B000060001A90D48FDF71DF901210B48FCF779
:1050C000BEFE32208DF8000004208DF80100002083
:1050D0008DF8020001208DF803006846FCF7E0F926
:1050E0007FBD00007400002040420F00000C004013
:1050F00008B501210420FCF731FA03208DF80200E5
:1051000014208DF803000220ADF80000694606481F
:10511000FBF7FAFE1020ADF8000069460248FBF7E5
:10512000F3FE01F019FB08BD0008014008B501219C
:105130008020FCF713FA03208DF8020004208DF87C
:1051400003008020ADF8000069460248FBF7DCFE52
:1051500008BD0000001C014010B540F27121042080
:10516000FFF7B4FE10BD10B500F04CF800F002F8E7
:1051700010BD000008B50121C420FCF7EFF90320A1
:105180008DF8020048208DF803008020ADF8000063
:1051900069461B48FBF7B8FE4FF48070ADF800007D
:1051A00069461748FBF7B0FE4FF48060ADF8000089
:1051B00069461348FBF7A8FE8020ADF80000694659
:1051C0000F48FBF7A1FE8020ADF8000069460C48AF
:1051D000FBF79AFE8020ADF8000069460848FBF70F
:1051E00093FE8020ADF8000069460548FBF78CFE71
:1051F0008020ADF8000069460148FBF785FE08BD38
:105200000018014000211E4A9172D17211730020D2
:1052100018E064211B4A02EB001211810221194A95
:1052200002EB001211710021164A02EB001291727A
:10523000144A02EB0012D172124A02EB00121173EF
:10524000411CC8B20A28E4DB64210E4A1181002106
:10525000D1720D4911600D4911610D4911620D495D
:1052600011630D4911640D4911650D4911660D4910
:1052700011670D49C2F880100C49C2F890107047B0
:10528000A01F0020001F0020451300089D130008E8
:10529000C9130008F51300080D14000825140008B0
:1052A0003D140008551400086D140008711300081F
:1052B00008B501212020FCF751F9012000F016FA71
:1052C000022000F013FA032000F010FA042000F08E
:1052D0000DFA03208DF8020010208DF80300012044
:1052E000ADF8000069460C48FBF70EFE0220ADF851
:1052F000000069460848FBF707FE0420ADF80000EF
:1053000069460548FBF700FE0120ADF8000069463C
:105310000148FBF7F9FD08BD0014014010B500215C
:1053200040F60F6000F04EF910BD000008B50121F5
:105330005020FCF713F903208DF8020004208DF8AB
:105340000300C001ADF8000069460748FBF7DCFD2B
:1053500004208DF803008002ADF800006946034880
:10536000FBF7D2FD08BD000000100140001801400D
:1053700058B90D490D4A11600D49516000219160E5
:10538000D1601161516191610DE001280BD1064995
:10539000064AD161064A05490A6200224A628A62C7
:1053A000CA620A634A6370470000A040AC0500204F
:1053B0000000204108B501210802FCF7CFF80320C6
:1053C0008DF8020010208DF803000220ADF80000D7
:1053D00069460248FBF798FD08BD00000020014027
:1053E00008B501218020FCF7B9F803208DF80200F0
:1053F00010208DF80300C001ADF8000069460C488C
:10540000FBF782FD4FF400610948FBF75CFE0220C8
:10541000FEF794FA4FF400610548FBF752FE28208E
:10542000FEF796FA4FF400610148FBF74CFE08BD09
:10543000001C014008B500200090009001220421CA
:105440006846FDF756FF00200090012205216846BE
:10545000FDF74FFF10200090012211216846FDF753
:1054600048FFFF200090012202216846FDF741FF1E
:10547000012203216846FDF73CFF08BD08B5012164
:10548000C020FCF76BF8002001F04AF8012001F081
:1054900047F803208DF8020010208DF80300C002A9
:1054A000ADF8000069460A48FBF72EFD14208DF880
:1054B00003000120ADF8000069460648FBF724FD13
:1054C000002001F045F8012001F042F808BD00007D
:1054D00000180140001C014030B589B005460C465B
:1054E00001211020FCF73AF801210220FCF726F8F0
:1054F00001211120FCF732F801212F48FBF790FD24
:105500004FF47070ADF8200048208DF82300032080
:105510008DF8220008A92948FBF7F6FCADF80850E1
:10552000ADF804400020ADF80A00ADF8060001A96E
:105530002348FCF7DFFE0220ADF812000120ADF891
:1055400014000020ADF816000320ADF8180000206C
:10555000ADF8100004A91A48FCF7AEFC0420ADF821
:10556000100004A91648FCF7A7FC0820ADF81000AD
:1055700004A91348FCF7A0FC0C20ADF8100004A906
:105580000F48FCF799FC1D208DF81C0000208DF8B9
:105590001D008DF81E0001208DF81F0007A8FBF7E5
:1055A0007FFF01210648FCF74AFC01221F21044825
:1055B000FCF7D8FC09B030BD000C1A000010014007
:1055C0000004004030B589B005460C460121C802F0
:1055D000FBF7C4FF01214120FBF7C0FF0121364842
:1055E000FBF71EFD4FF4D440ADF8200018208DF8D5
:1055F000230003208DF8220008A93048FBF784FC23
:10560000ADF80850ADF804400020ADF80A00ADF840
:10561000060001A92A48FCF76DFE6020ADF81000D5
:105620000120ADF812000020ADF81800ADF814000C
:10563000ADF81A00ADF81C00ADF81E0004A9204812
:10564000FCF79AFC08211E48FCF7EBFC04A91C4857
:10565000FCF7F0FC08211A48FCF74BFD04A9184898
:10566000FCF754FD08211648FCF7ADFD04A91448C9
:10567000FCF7B2FD08211248FCF7F9FD01211048A2
:10568000FCF7DDFB01210E48FCF7E5FB4FF46161FF
:105690000B48FCF7F9FD4FF461610948FCF7F6FD92
:1056A0004FF461610648FCF7F3FD4FF46161044873
:1056B000FCF7F0FD09B030BDC00016000018014035
:1056C000002C014010B5FDF729F8FBF74DFDFBF765
:1056D0003DFB10BD10B5002404E02046FFF7D2F8D2
:1056E000601CC4B20A2CF8DB10BD0000411EC8B219
:1056F00018B901210A4A116010E0012803D10221E2
:10570000074A11600AE0022803D10421044A11600B
:1057100004E0032802D10121014A11607047000012
:105720001014014010B5044654B94FF461610B48A0
:10573000FCF7AEFD4FF461610848FCF7ABFD0BE0F0
:10574000012C09D14FF461610448FCF79DFD4FF431
:1057500061610248FCF79AFD10BD0000002C014079
:105760000146024850F82100704700004400002024
:105770002DE9F047054600240026002700BF09E078
:1057800005EB85000B4901EBC00050F824000644EE
:10579000601CC4B20A2CF3DB3046FAF73CFF8146AA
:1057A0000549FAF7E1FD8046FAF761FF07463846FA
:1057B000BDE8F087E40500200000204170B50646F2
:1057C0000C46154616B1012E26D112E044B900212F
:1057D0001248FCF75DFD29461048FCF75BFD07E029
:1057E00029460E48FCF754FD00210C48FCF752FDF9
:1057F00012E044B100210948FCF746FD294607485C
:10580000FCF744FD07E029460448FCF73DFD002174
:105810000248FCF73BFD00BF00BF70BD002C0140FB
:105820002DE9F04104460025002614B90020BDE80A
:10583000F0812046FAF7EFFE80461449FAF762FD40
:1058400007461349FAF790FD064600213046FAF75D
:1058500077FF07D24FF07E513046FAF767FF01D845
:10586000012510E00B493046FAF76AFF07D80021FE
:105870003046FAF75BFF02D24FF0FF3503E03046C7
:10588000FAF7F5FE05462846D1E700000000404142
:1058900000007A43000080BF30B90021074A9160C0
:1058A000D1601161916107E0012805D1002203490F
:1058B0004A628A62CA624A6370470000AC050020EF
:1058C0002DE9F04704460E4615462DB92046FFF750
:1058D00029FF2046FFF7E0FF002D00DA76427D48E1
:1058E00050F8240030447B4941F824003046FAF750
:1058F00092FE81467849FAF737FD80467749FAF7F4
:1059000001FD0746FAF7B3FE75490A5D095D491CBA
:10591000734B195504EB8401724B03EBC10141F841
:1059200022006F48005D0A2802DB00206C49085500
:10593000002C65D16C48806910B96B48856118E00E
:105940002846FAF768FE804667498869FAF763FED9
:1059500081464146FAF708FD07460021FAF7E6FEC0
:1059600007D22046FFF7DEFE2046FFF795FFBDE891
:10597000F087701BFAF74FFE5B4988600A46916812
:105980005068FAF7BFFC8146574AD1689068FAF729
:10599000B3FC8246544801685046FAF7B3FC80468F
:1059A0004946FAF757FC07464F4801693846FAF767
:1059B00051FC4D49086108468068C8600869FAF7DB
:1059C00056FE804600F024FA0746FAF724FE4649C0
:1059D00008610869FAF74BFE814600F0FDFE87B2C8
:1059E000414908690021FAF7ABFE01D2012000E02D
:1059F000002080463A4641460020FFF7DFFE66E081
:105A0000012C64D13848406B10B93748456317E022
:105A10002846FAF700FE80463349486BFAF7FBFD4B
:105A200081464146FAF7A0FC07460021FAF77EFEC0
:105A300006D22046FFF776FE2046FFF72DFF96E7B9
:105A4000701BFAF7E8FD284948620A46516A106A55
:105A5000FAF758FC8146244A916A506AFAF74CFCDE
:105A600082462148C1695046FAF74CFC80464946B7
:105A7000FAF7F0FB07461C48C16A3846FAF7EAFB1A
:105A80001949C8620846416A81620146C86AFAF744
:105A9000EEFD804600F0BCF90746FAF7BCFD12495E
:105AA000C862C86AFAF7E3FD814600F095FE87B246
:105AB0000D49C86A0021FAF743FE01D2012000E037
:105AC000002080463A4641460120FFF777FE00BF9E
:105AD0004DE70000440000200000404100007A43F0
