:020000040800F2
:1000000080ED0020E9010008EDB2000849840008F5
:10001000E9B20008D50E0008ADEE000800000000AF
:100020000000000000000000000000004501000882
:100030002D7800080000000089010008F9E00008A0
:10004000030200080302000803020008030200087C
:10005000030200080302000803020008030200086C
:10006000030200085D78000803020008030200088C
:10007000030200080302000803020008030200084C
:10008000030200080302000803020008030200083C
:100090000302000803020008030200088578000834
:1000A000030200080302000803020008030200081C
:1000B00003020008B9E30008030200080302000875
:1000C00003020008030200080302000803020008FC
:1000D000030200080302000865EA000875EA000848
:1000E0003178000803020008030200080302000838
:1000F00003020008030200080302000803020008CC
:1001000003020008030200084DE40008030200088F
:1001100055EA000803020008EDE4000803020008A5
:10012000030200080302000803020008030200089B
:10013000DFF80CD000F0F0FC00480047AF58010891
:1001400080ED0020204B19680868B0E8F00F80F3BC
:100150000988BFF36F8F4FF0000080F311884EF0D5
:100160000D0E70470000000006480068006880F32C
:10017000088862B661B6BFF34F8FBFF36F8F00DFA1
:1001800000BF00BF08ED00E0EFF30980BFF36F8F01
:100190000D4B1A6820E9F00F106008B54FF0100001
:1001A00080F3118816F028FF4FF0000080F31188CB
:1001B000BDE8084019680868B0E8F00F80F30988C6
:1001C000BFF36F8F704700BF64010020EFF3118011
:1001D0004FF0100181F31188704780F31188704748
:1001E000EFF3058070470000064880470648004747
:1001F000FEE7FEE7FEE7FEE7FEE7FEE7FEE7FEE7D7
:10020000FEE7FEE719E100083101000840EA0103BA
:100210009B0703D009E008C9121F08C0042AFAD2BC
:1002200003E011F8013B00F8013B521EF9D2704780
:10023000D2B201E000F8012B491EFBD27047002228
:10024000F6E710B513460A4604461946FFF7F0FFD5
:10025000204610BDF0B480EA0102D40F4200B2EB98
:10026000410F02D20246084611464A0042D0C30D51
:10027000DDB2C1F3C752AD1A202D35DAC1F3160134
:1002800041F4000204B15242C5F1200602FA06F11F
:100290002A411044B3EBD05F23D0C4B1012DA0EBB1
:1002A000C35009DCF0BC4FF0004202EAC352DBB29B
:1002B00000F5000000F08DBB400000F1807000EB05
:1002C000C350A0F1807040EAD170490009E04908AC
:1002D00041EAC071A0EBC35000F50000400800EBFC
:1002E000C350F0BC00F06CBB6142012202EB410143
:1002F000001BF6E7F0BC704781F00041AAE780F0F0
:100300000040A7E780EA010210B502F00043400078
:1003100022D04A001FD0010E01EB1261C0F356003B
:10032000C2F3560240F4000042F40002A0FB022097
:1003300000047F39140400D0401C50EA124001D45C
:100340004000491EC2B20C0604EBD010401C40080D
:10035000802A02D003E0002010BD20F00100002917
:1003600000DA0020184310BD30B480EA010202F028
:10037000004530F0004221F0004013D090B1C30D91
:10038000D40DC2F31601C0F31600E41A41F40001C3
:1003900040F400027D34914201D3641C00E0490026
:1003A000002C02DA30BC002070474FF4000000231C
:1003B000914201D3891A034340084FEA4101F7D122
:1003C00051B1914202D14FF0004105E002D24FF00D
:1003D000010101E06FF0010103EBC450284430BC7F
:1003E00000F0EEBA2DE9FE4F804681EA0300C00F0F
:1003F0000C46009021F0004123F00045B8EB0200CC
:10040000A94105D24046214690461C460B4602466D
:1004100023F00040104347D0270DC7F30A00C3F371
:100420000A510290401A019040286BDAC3F313007E
:1004300040F4801B0098924620B10023D2EB030ABF
:1004400063EB0B0B01985946C0F14002504600F097
:1004500086FA06460D4650465946019A00F09EFA25
:1004600010EB08006141002487EA115284EAE77327
:100470001A4340D0009A62B3019A012A4FEA075208
:1004800015DC001B61EB02014FF0004202EA07524B
:10049000CDE90042001C41F5801132462B4600F0A8
:1004A000D5FA03B0BDE8F08F40462146F9E7001BBE
:1004B00061EB0201001C41F5801300185B4120181C
:1004C000A2F5001747EB030140EAD570B6196D415C
:1004D00011E06D084FEA360645EAC0754FEA07524B
:1004E000001B61EB0201001C41F5801149084FEA35
:1004F00030000019514132462B4603B0BDE8F04FA1
:1005000000F095BA0098012240000023D0EB0202CF
:1005100063EBE073009821464FEAE074B8EB00000B
:1005200061EB0401E9E783F000435BE781F0004100
:1005300058E72DE9FE4F81EA030404F0004421F05E
:10054000004100944FF0000B23F0004350EA0104F7
:100550005ED052EA03045BD0C3F30A54C1F30A55D8
:100560002C44A4F2F3340194A0FB0254C1F3130110
:1005700041F48011C3F3130343F4801301FB0244DD
:1005800000FB034E840A970A44EA815447EA8357E2
:10059000A4FB076802958D0A05FB07854FEA932C9B
:1005A00004FB0C542705029D4FEA065847EA16370C
:1005B000B5EB08056EEB070C870E920E47EA811724
:1005C00042EA8312A7FB0201B6EB0B0164EB0004C5
:1005D0002B0D43EA0C335E1844EB1C50DA465146AF
:1005E000E7FB0201C5F313044FEA0B3343EA14534C
:1005F0004FEA0432019C43EA0603A4F10C0402947E
:10060000009CCDE900B400F021FA03B0BDE8F08F02
:1006100000200146F9E72DE9F04D81EA030404F0DA
:10062000004B21F0004514464FF0000A23F0004132
:1006300050EA050220D054EA01021DD0C5F30A5742
:100640000246C5F31303C1F31300C1F30A5640F485
:10065000801543F48013A7EB0608101BD64608F25A
:10066000FD3873EB050002D308F1010801E0921890
:100670005B41B8F1000F03DA00200146BDE8F08DC0
:1006800000204FF48011064684460EE0171B73EBE2
:10069000050705D3121B63EB050306434CEA010C67
:1006A00049084FEA300092185B4150EA0107EDD14A
:1006B00052EA030012D082EA040083EA05010843EB
:1006C00005D0101BAB4106D20122002306E0002218
:1006D0004FF0004302E06FF0010253101AEB0600E6
:1006E0004CEB085110EB0A0041EB0B01BDE8F04D5B
:1006F00000F09DB9C10F80EAE0700844CA07962354
:10070000002100F066B996230022114600F061B97D
:100710000EB5C10F80EAE0700844CA07002140F21C
:1007200033438DE80E000A460B4600F08FF903B004
:1007300000BD0EB540F2334102910021CDE9001118
:100740000A460B4600F082F903B000BD00F00042FB
:1007500020F00040C10DC0F3160040F400007F29D6
:1007600001DA00207047962903DCC1F19601C840E8
:1007700001E096398840002AF4D04042704720F0CA
:100780000040C10DC0F3160040F400007F2901DADB
:1007900000207047962903DCC1F19601C8407047DC
:1007A00096398840704770B5C1F30A5201F0004590
:1007B0000024C1F3130140F2FF3341F480119A4247
:1007C00001DA002070BD40F233439A42A2F2334274
:1007D00003DC524200F0D2F800E090402C43F1D00C
:1007E000404270BDC1F30A5210B5C1F3130140F28B
:1007F000FF3341F480119A4201DA002010BD40F22B
:1008000033439A42A2F2334203DC524200F0B6F87C
:1008100010BD904010BD00F0004230F000400AD002
:10082000C10D01F56071C0F3160042EA0151C20822
:1008300040071143704700200146704730B5041E41
:1008400071F1000404DB4FF00044404264EB01010D
:10085000141E73F1000405DB1C464FF000435242A6
:1008600063EB04038B4208BF824230BD30B5041EE7
:1008700071F1000404DB4FF00044404264EB0101DD
:10088000141E73F1000405DB1C464FF00043524276
:1008900063EB0403994208BF904230BD01F000436E
:1008A00030B421F0004150EA010206D00A0DA2F551
:1008B0006072C1F31301002A02DC30BC00207047D3
:1008C000440F44EAC104C100E01830BC00EBC25040
:1008D00000F076B8002801DBC0F10040002901DB00
:1008E000C1F1004181427047002801DBC0F10040A6
:1008F000002901DBC1F10041884270472DE9F05F1A
:100900000546002092469B4688460646814640247E
:100910001BE0284641464746224600F02FF8534642
:100920005A46C01A914110D311461846224600F08B
:1009300016F82D1A67EB01084F46224601200021C8
:1009400000F00DF817EB00094E41201EA4F1010440
:10095000DFDC484631462A464346BDE8F09F202A60
:1009600004DB203A00FA02F1002070479140C2F106
:10097000200320FA03F3194390407047202A04DB38
:10098000203A21FA02F00021704721FA02F3D04008
:10099000C2F120029140084319467047202A06DB25
:1009A000CB17203A41FA02F043EAE07306E041FA3D
:1009B00002F3D040C2F1200291400843194670472B
:1009C0000029A8BF7047401C490008BF20F0010063
:1009D000704710B4B0FA80FC00FA0CF050EA010441
:1009E00004BF10BC704749B1CCF1200421FA04F4D3
:1009F00011FA0CF118BF012121430843A3EB0C01AC
:100A0000CB1D4FEA00614FEA102042BF002010BC0E
:100A1000704700EBC35010440029A4BF10BC7047BE
:100A2000401C490008BF20F0010010BC704710B501
:100A3000141E73F1000408DA401C41F10001921801
:100A40005B411A4301D120F0010010BD2DE9F04DAA
:100A500092469B4611B1B1FA81F202E0B0FA80F2FF
:100A600020329046FFF77BFF04460F4640EA0A001B
:100A700041EA0B0153465A46084313D0114653EA44
:100A8000010019D0C8F140025046FFF777FF054634
:100A90000E46504659464246FFF761FF084305D0CF
:100AA000012004E020463946BDE8F08D00200543D2
:100AB00046EAE0762C4337430A986305E40AA0EB44
:100AC00008000022FD0A44EA47540A3002D50020FB
:100AD0000146E9E7010510196941DDE908450019FA
:100AE0006941BDE8F04DA2E770B521F00043034332
:100AF0000CD0C1F30A550024D5EB040564EB0403C4
:100B0000D617AD1AB34102DB0020014670BD201894
:100B100041EB025170BD0000064C074D06E0E06855
:100B200040F0010394E8070098471034AC42F6D334
:100B3000FFF702FB907A0108B07A01082DE9F04D29
:100B400000231A461B1A8A4103DB00200146BDE838
:100B5000F08DC1F30A52C1F3130141F480154FF037
:100B6000000BD10702D100186D41521E0027044628
:100B700040F2FF11384601EB620A3E4680460246CB
:100B800000204FF48011FFF7F9FEC2197141BB1824
:100B900046EB0100B4EB030C75EB000C04D3E41A34
:100BA00065EB000517460E46241908F101006D415A
:100BB00080463428E3DDF91946EB0600091BA841FD
:100BC00003D24FF0FF32134601E0002213461BEB25
:100BD000070046EB0A51BDE8F04DFFF728BF70B59E
:100BE0008C1810F8015B15F0070301D110F8013BD8
:100BF0002A1106D110F8012B03E010F8016B01F85F
:100C0000016B5B1EF9D12B0705D40023521E0DD4B6
:100C100001F8013BFAE710F8013BCB1A921C03E004
:100C200013F8015B01F8015B521EF9D5A142D8D33C
:100C3000002070BD21B1826842F00102826003E0B1
:100C4000826822F0010282607047000010B50446FD
:100C50001248844208D1012140150AF0B7FB002157
:100C600060150AF0B3FB17E00D48844208D101215A
:100C700000150AF0ABFB002120150AF0A7FB0BE0E2
:100C80000848844208D10121C8030AF09FFB0021D3
:100C90004FF400400AF09AFB10BD00000024014010
:100CA00000280140003C0140014600208A6802F013
:100CB00004020AB1012000E0002070470146C86C20
:100CC00080B270470246002013680B400BB1012030
:100CD00000E000207047014600208A6802F0080208
:100CE0000AB1012000E000207047000030B5024644
:100CF0000020002350680F4C20400D790C6844EA16
:100D000005242043506090680B4C2040D1E90254E8
:100D10002C434D7944EA450420439060D06A20F486
:100D200070000C7C641EE4B2234340EA0350D0629E
:100D300030BD0000FFFEF0FFFDF7F1FFF0B5044607
:100D40000D4600200021092D11DDE068A5F10A06FD
:100D500006EB4607072606FA07F18843A5F10A06BF
:100D600006EB460603FA06F10843E0600CE0206952
:100D700005EB4507072606FA07F1884305EB45060C
:100D800003FA06F108432061072A0FDA606B561E4A
:100D900006EB86071F2606FA07F18843561E06EB68
:100DA000860605FA06F10843606322E00D2A0FDA91
:100DB000206BD61F06EB86071F2606FA07F188432D
:100DC000D61F06EB860605FA06F10843206310E0FD
:100DD000E06AA2F10D0606EB86071F2606FA07F168
:100DE0008843A2F10D0606EB860605FA06F10843D4
:100DF000E062F0BD816841F008018160704721B177
:100E0000826842F4A002826003E0826822F4A002B9
:100E100082607047816841F0040181607047000082
:100E200010B5012016F098F90149086010BD0000C6
:100E30000C0000201FB50020144A0123CDE9012039
:100E40000093039003464FF4806211A1144816F0FA
:100E500077FA0020134A0223CDE901200093039082
:100E600003464FF4806210A1134816F069FA00207F
:100E7000124A0323CDE901200093039003464FF467
:100E800000620FA1124816F05BFA1FBD000000209F
:100E9000765461736B4465636973696F6E0000001B
:100EA0007F6D010804000020765461736B436F6E00
:100EB00074726F6C00000000616D01080800002072
:100EC000765461736B50657263657074696F6E0000
:100ED000496E010800BFFEE72DE9F05F0446894630
:100EE0004FF0000AFE49A0680860FE48006840F222
:100EF0002942811A90426FD020DC40F22342A0EBBD
:100F00000201904269D00FDC432867D005DC58B35A
:100F1000412865D042285ED1D0E2A0F221400028CD
:100F20007ED00128F7D114E3062954D2DFE811F06E
:100F300053007D03B1031504500456041229F4D262
:100F4000DFE811F04900C2044900490049004900A6
:100F500049004900D2000401470172019D01FF01CF
:100F60003A0240027502B602DF48007840B9DF4914
:100F700020680860DE49606808600120DA4908706E
:100F80000020DC49DC4A03C2DC4A10605060D74ACA
:100F900021681268501AFFF7BBFB074614F097FC54
:100FA00005460022D64BFFF761FC0ED3D04A61689C
:100FB0001268501AFFF7ACFB074614F088FC054690
:100FC0000022CF4BFFF752FC09D24120C5490860EF
:100FD0000020C54908701AE2F8E3FBE275E0FAE781
:100FE000C148007840B9C14920680860C0496068BC
:100FF00008600120BC4908700020BE49BE4A03C2F7
:10100000BE4A10605060B9F1020F05D0B9F1000F6F
:1010100002D0B9F1010F25D10021B74A116000E0DB
:101020005CE251600020B54A10605060AC48006836
:10103000642190FBF1FB5846FFF76AFB074614F06A
:1010400046FC05460022AF4BFFF7F8FB03D24320D6
:10105000A449086002E04220A24908600020A24999
:101060000870B8E7A14A21681268501AFFF750FBD0
:10107000074614F02CFC05460022A34BFFF7F6FBB5
:1010800022D200219C4A116051609C4A116051603B
:1010900093480068642190FBF1FB5846FFF738FB4A
:1010A000074614F014FC05460022964BFFF7C6FBDA
:1010B00003D243208B49086002E04220894908603E
:1010C00000208949087086E785E700208A4A106079
:1010D00050608A4A106050608C496068086040F235
:1010E000314080490860F5E30021834A1160516076
:1010F00000208749814A03C279480068642190FB37
:10110000F1F03C280BDD00217B4A116051607B4AE5
:101110001160516040F2334072490860DAE3B9F17E
:10112000020F05D0B9F1000F02D0B9F1010F0CD1B7
:101130000020714A106050600021704A11605160B7
:1011400040F2324067490860C4E3C3E36648007870
:1011500040B96649206808606549606808600120F8
:101160006149087000216348634AC2E90010002009
:10117000624A106050605D4A21681268501AFFF799
:10118000C7FA074614F0A3FB054600225C4BFFF7A5
:101190006DFB0ED3564A61681268501AFFF7B8FA11
:1011A000074614F094FB05460022554BFFF75EFB03
:1011B0000ED20021504A11605160504A11605160B6
:1011C00000204949087040F231404649086081E3F7
:1011D00080E300204F49484A03C20021474A11607A
:1011E0005160B9F1020F05D0B9F1000F02D0B9F189
:1011F000010F04D140F234403A4908606AE3434A9F
:1012000061681268501AFFF783FA074614F05FFB13
:1012100005460022404BFFF729FB04D240F2344040
:101220003049086056E355E30020334A10605060AF
:1012300000213748314AC2E900102948006864217A
:1012400090FBF1F052280BDD00202B4A106050601B
:101250002A4A1060506040F236402249086039E363
:10126000B9F1020F05D0B9F1000F02D0B9F1010FA9
:1012700004D140F235401B4908602BE32AE31A48A9
:10128000007840B919492068086019496068086009
:1012900001201549087000211648174AC2E90010BC
:1012A000164A11605160114A21681268501AFFF7FE
:1012B0002FFA074614F00BFB05460022104BFFF7F0
:1012C000D5FA2ED30A4A61681268501AFFF720FA3D
:1012D000074614F0FCFA05460022094B1EE0000008
:1012E0001C010020F800002095000020AC00002028
:1012F000B000002000406FC0800000208800002067
:10130000000008400080564000002440A00000205B
:101310000000494000406F4000006440FFF7A6FA1B
:101320000ED20021FB4A116051600020FA4A106081
:101330005060FA49087040F23440F9490860C9E247
:10134000C8E20021F748F34AC2E900100020F24A3F
:1013500010605060B9F1020F05D0B9F1000F02D052
:10136000B9F1010F0BD10021EA4A11605160EA4A3C
:101370001160516040F23740E9490860AAE2EA4A48
:1013800061681268501AFFF7C3F9074614F09FFA14
:1013900005460022E54BFFF769FA0CD20020DD4A32
:1013A000106050600021DC4A116051604FF487608A
:1013B000DB4908608EE28DE20020D94908604FF0D9
:1013C000020A87E20021D34A116051600020D84907
:1013D000D14A03C2D7480068642190FBF1FB58460C
:1013E000FFF796F9074614F072FA05460022D24B31
:1013F000FFF73CFA0CD20021C64A11605160002070
:10140000C54A1060506040F23A40C549086061E248
:10141000B9F1020F05D0B9F1000F02D0B9F1010FF7
:1014200004D140F23940BE49086053E252E2BB4861
:10143000007840B9C14920680860C1496068086007
:101440000120B64908700020BE49B24A03C2B24A20
:1014500010605060B94A21681268501AFFF758F9B5
:10146000074614F034FA05460022B74BFFF7FEF9A1
:101470000ED3B34A61681268501AFFF749F907465C
:1014800014F025FA05460022AF4BFFF7EFF90ED214
:101490000021A04A116051609F4A116051600020F4
:1014A0009E4908704FF487609D49086012E211E27E
:1014B00000209B4908604FF0010A0BE20021954A89
:1014C000116051600020944A106050609649606835
:1014D000086040F2214092490860FBE100208D4AFB
:1014E0001060506099498C4A03C292480068642198
:1014F00090FBF1FB5846FFF70BF9074614F0E7F9AC
:1015000005460022924BFFF799F90CD20021814A3F
:10151000116051600020804A1060506040F223400A
:101520007F490860D6E1B9F1020F05D0B9F1000F8B
:1015300002D0B9F1010F0BD10021764A1160516040
:10154000754A1160516040F2224075490860C1E15E
:10155000C0E17248007840B978492068086078494D
:101560006068086001206D49087000207549694A6B
:1015700003C2694A10605060704A21681268501AAC
:10158000FFF7C6F8074614F0A2F9054600226E4B95
:10159000FFF76CF90ED36A4A61681268501AFFF7B8
:1015A000B7F8074614F093F905460022664BFFF79B
:1015B0005DF90ED20020574A106050600021564A53
:1015C000116051605549087040F22140544908604B
:1015D00080E17FE1002053494E4A03C200214E4A78
:1015E00011605160B9F1020F05D0B9F1000F02D0BE
:1015F000B9F1010F04D140F224404949086069E182
:10160000494A61681268501AFFF782F8074614F0D9
:101610005EF905460022454BFFF728F904D240F257
:1016200024403F49086055E154E10021394A1160E6
:1016300051604648384AC2E900103E4800686421BB
:1016400090FBF1FB5846FFF763F8074614F03FF9AB
:10165000054600223F4BFFF7F1F80BD200202D4A40
:10166000106050602C4A1060506040F226402C49B7
:1016700008602FE1B9F1020F05D0B9F1000F02D0D7
:10168000B9F1010F04D140F225402549086021E15C
:1016900020E12248007840B928492068086028499C
:1016A0006068086001201D49087000212548194A1A
:1016B000C2E90010184A11605160204A216812687E
:1016C000501AFFF725F8074614F001F905460022E5
:1016D0001D4BFFF7CBF80ED3194A61681268501AF8
:1016E000FFF716F8074614F0F2F805460022164BED
:1016F000FFF7BCF830D20021064A1160516000208B
:10170000054A106050600549087040F224400449C1
:101710000860DFE0800000208800002095000020A5
:10172000F800002000406F40A0000020000064404E
:10173000000049401C01002000E06540AC00002092
:10174000B000002000406FC000000840000049C009
:1017500000005E4000405740BCE000205F49604A06
:1017600003C2604A10605060B9F1020F05D0B9F1B0
:10177000000F02D0B9F1010F0CD10020584A1060BF
:1017800050600021574A1160516040F2274056498D
:1017900008609FE0554A61681268501AFEF7B8FF6A
:1017A000074614F094F805460022514BFFF75EF807
:1017B0000DD200214A4A116051600020494A106050
:1017C00050604FF485604849086083E03BE081E069
:1017D0000020454908604FF0030A7BE00021404AA1
:1017E0001160516043483F4AC2E900104248006816
:1017F000642190FBF1FB5846FEF78AFF074614F080
:1018000066F8054600223D4BFFF718F80CD2002180
:10181000334A116051600020324A1060506040F23B
:101820002A403149086055E0B9F1020F05D0B9F1FD
:10183000000F02D0B9F1010F04D140F229402A492A
:10184000086047E046E02E48007840B92D492068FE
:1018500008602D496068086001202949087000204F
:101860002A491F4A03C21F4A10605060254A216856
:101870001268501AFEF74CFF054614F028F8074688
:101880000022234BFEF7F2FF0ED31F4A6168126855
:10189000501AFEF73DFF054614F019F807460022DE
:1018A0001B4BFEF7E3FF0ED200210D4A1160516081
:1018B0000C4A116051600020114908704FF4856096
:1018C0000949086006E005E00020074908604FF07C
:1018D000010A00BF00BF5046BDE8F09F00406F40C6
:1018E0008000002088000020F8000020A0000020D8
:1018F00000006440000049C01C01002000001440AA
:1019000095000020AC000020B000002000406FC017
:10191000000008402DE9F05F044689464FF0000AB8
:10192000FE49A0680860FE48006840F22942811A1A
:1019300090426FD020DC40F22342A0EB02019042A3
:1019400069D00FDC432867D005DC58B3412865D047
:1019500042285ED1D7E0A0F2214000287ED00128A5
:10196000F7D112E1062954D2DFE811F053007D01CE
:10197000A9010A0245024B021229F4D2DFE811F054
:101980004900B7024900490049004900490049009F
:10199000CD02080349037403A8030D0447044D0452
:1019A0008204C304DF48007840B9DF49206808603A
:1019B000DE49606808600120DA4908700020DC49CF
:1019C000DC4A03C2DC4A10605060D74A21681268C2
:1019D000501AFEF79DFE074613F079FF05460022D8
:1019E000D64BFEF743FF0ED3D04A61681268501AF7
:1019F000FEF78EFE074613F06AFF05460022CF4B26
:101A0000FEF734FF09D24120C54908600020C549CE
:101A100008701BE22AE2FBE06FE2FAE7C1480078B7
:101A200040B9C14920680860C04960680860012069
:101A3000BC4908700020BE49BE4A03C2BE4A1060BD
:101A40005060B9F1020F05D0B9F1000F02D0B9F121
:101A5000010F25D10021B74A116000E062E051601A
:101A60000020B54A10605060AC480068642190FBCB
:101A7000F1FB5846FEF74CFE074613F028FF0546DB
:101A80000022AF4BFEF7DAFE03D24220A4490860E1
:101A900002E04320A24908600020A2490870B8E78C
:101AA000A14A21681268501AFEF732FE074613F069
:101AB0000EFF05460022A34BFEF7D8FE22D20021DE
:101AC0009C4A116051609C4A1160516093480068C3
:101AD000642190FBF1FB5846FEF71AFE074613F00F
:101AE000F6FE05460022964BFEF7A8FE03D24220E2
:101AF0008B49086002E04320894908600020894939
:101B0000087086E785E700208A4A106050608A4A9C
:101B1000106050608C496068086040F22140804944
:101B20000860F6E30021834A116051600020874974
:101B3000814A03C279480068642190FBF1F010F1FA
:101B40003C0F0BDA00217B4A116051607A4A116028
:101B5000516040F2234072490860DAE3B9F1020FA4
:101B600005D0B9F1000F02D0B9F1010F0CD100205E
:101B7000704A1060506000216F4A1160516040F25D
:101B8000224067490860C4E3C3E36648007840B96F
:101B900065492068086065496068086001206149FE
:101BA000087000216248634AC2E900100020624ABE
:101BB000106050605C4A21681268501AFEF7A8FD58
:101BC000074613F084FE054600225C4BFEF74EFEEE
:101BD0000ED3564A61681268501AFEF799FD0746FF
:101BE00013F075FE05460022544BFEF73FFE0ED261
:101BF0000021504A116051604F4A1160516000202D
:101C00004849087040F221404549086081E380E37B
:101C100000204F49474A03C20021474A11605160E2
:101C2000B9F1020F05D0B9F1000F02D0B9F1010FDF
:101C300004D140F224403A4908606AE3424A6168AC
:101C40001268501AFEF764FD074613F040FE054681
:101C50000022404BFEF70AFE04D240F224403049F5
:101C6000086056E355E30020324A106050600021BE
:101C70003648314AC2E9001028480068642190FBC8
:101C8000F1F010F1520F0BDA00202A4A1060506078
:101C9000294A1060506040F226402149086038E32C
:101CA000B9F1020F05D0B9F1000F02D0B9F1010F5F
:101CB00004D140F225401A4908602AE329E3194873
:101CC000007840B9184920680860184960680860C1
:101CD00001201449087000211548164AC2E9001075
:101CE000154A11605160104A21681268501AFEF7B7
:101CF0000FFD074613F0EBFD054600220F4BFEF7E4
:101D0000B5FD2DD3094A61681268501AFEF700FD2F
:101D1000074613F0DCFD054600221DE01C010020F3
:101D20007C00002095000020AC000020B0000020C6
:101D300000406FC0800000208800002000000840A4
:101D40000080564000002440A0000020000049C050
:101D500000406F4000006440FE4BFEF787FD0ED24E
:101D60000021FD4A116051600020FC4A1060506063
:101D7000FB49087040F22440FA490860C9E2C8E211
:101D80000021F948F44AC2E900100020F34A10602B
:101D90005060B9F1020F05D0B9F1000F02D0B9F1CE
:101DA000010F0BD10021EC4A11605160EB4A116028
:101DB000516040F22740EB490860AAE2EB4A6168B3
:101DC0001268501AFEF7A4FC074613F080FD054682
:101DD0000022E74BFEF74AFD0CD20020DE4A1060DD
:101DE00050600021DD4A116051604FF48560DD498B
:101DF00008608EE28DE20020DA4908604FF0020AA6
:101E000087E20021D44A116051600020D949D34AA9
:101E100003C2D9480068642190FBF1FB5846FEF7E5
:101E200077FC074613F053FD05460022D34BFEF71F
:101E30001DFD0CD20021C84A116051600020C74A24
:101E40001060506040F22A40C649086061E2B9F172
:101E5000020F05D0B9F1000F02D0B9F1010F04D182
:101E600040F22940BF49086053E252E2BC48007882
:101E700040B9C34920680860C24960680860012011
:101E8000B74908700020C049B34A03C2B34A106082
:101E90005060BB4A21681268501AFEF739FC0746A9
:101EA00013F015FD05460022AA4BFEF7DFFC0ED30A
:101EB000B44A61681268501AFEF72AFC074613F00C
:101EC00006FD05460022A34BFEF7D0FC0ED20021F2
:101ED000A14A11605160A14A116051600020A049DF
:101EE00008704FF485609F49086012E211E20020FB
:101EF0009C4908604FF0010A0BE20021964A1160EC
:101F000051600020954A10605060984960680860F0
:101F100040F2314093490860FBE100208E4A106096
:101F200050609A498D4A03C293480068642190FB2F
:101F3000F1FB5846FEF7ECFB074613F0C8FC0546DC
:101F40000022934BFEF77AFC0CD20021824A1160EA
:101F500051600020814A1060506040F23340814956
:101F60000860D6E1B9F1020F05D0B9F1000F02D037
:101F7000B9F1010F0BD10021774A11605160774A06
:101F80001160516040F2324076490860C1E1C0E121
:101F90007348007840B97A492068086079496068D8
:101FA000086001206E490870002077496A4A03C220
:101FB0006A4A10605060724A21681268501AFEF72F
:101FC000A7FB074613F083FC05460022614BFEF792
:101FD0004DFC0ED36B4A61681268501AFEF798FBED
:101FE000074613F074FC054600225A4BFEF73EFCF0
:101FF0000ED20020584A106050600021574A1160EC
:1020000051605749087040F231405649086080E1FC
:102010007FE100205449504A03C200214F4A116019
:102020005160B9F1020F05D0B9F1000F02D0B9F13A
:10203000010F04D140F234404A49086069E14B4A3B
:1020400061681268501AFEF763FB074613F03FFC05
:1020500005460022464BFEF709FC04D240F234400C
:102060004049086055E154E100213B4A116051604C
:1020700046483A4AC2E900103F480068642190FB94
:10208000F1FB5846FEF744FB074613F020FC0546DB
:102090000022404BFEF7D2FB0BD200202E4A1060EC
:1020A00050602E4A1060506040F236402D49086062
:1020B0002FE1B9F1020F05D0B9F1000F02D0B9F14B
:1020C000010F04D140F235402649086021E120E1AA
:1020D0002348007840B92A49206808602949606887
:1020E000086001201E490870002127481A4AC2E9E9
:1020F00000101A4A11605160214A21681268501A72
:10210000FEF706FB074613F0E2FB05460022114BE3
:10211000FEF7ACFB0ED31B4A61681268501AFEF73B
:10212000F7FA074613F0D3FB05460022094BFEF7EA
:102130009DFB31D20021084A116051600020074AFE
:10214000106050600649087040F23440054908604C
:10215000DFE0000000000840800000208800002030
:10216000950000207C00002000406F40A00000206F
:1021700000006440000049C01C01002000A0654030
:10218000AC000020B000002000406FC000004940BB
:1021900000005E4000405740BBE000205F49604ABD
:1021A00003C2604A10605060B9F1020F05D0B9F166
:1021B000000F02D0B9F1010F0CD10020584A106075
:1021C00050600021574A1160516040F23740564933
:1021D00008609EE0554A61681268501AFEF798FA46
:1021E000074613F074FB05460022514BFEF73EFBF9
:1021F0000CD200214A4A116051600020494A106007
:1022000050604FF487604849086082E081E0002018
:10221000454908604FF0030A7BE00021404A116005
:10222000516044483F4AC2E90010434800686421B5
:1022300090FBF1FB5846FEF76BFA074613F047FB9D
:10224000054600223D4BFEF7F9FA0CD20021344A34
:10225000116051600020334A1060506040F22A4003
:102260003149086055E0B9F1020F05D0B9F1000F0E
:1022700002D0B9F1010F04D140F239402A49086077
:1022800047E046E02E48007840B92E4920680860B3
:102290002D496068086001202949087000202B49F9
:1022A0001F4A03C21F4A10605060264A2168126804
:1022B000501AFEF72DFA054613F009FB07460022D7
:1022C000234BFEF7D3FA0ED31F4A61681268501AE7
:1022D000FEF71EFA054613F0FAFA074600221C4BD9
:1022E000FEF7C4FA0ED200210D4A116051600D4A6A
:1022F000116051600020124908704FF487600A494C
:10230000086006E005E00020074908604FF0020A77
:1023100000BF00BF5046BDE8F09F000000406F4086
:1023200080000020880000207C000020A000002009
:1023300000006440000049401C01002000002440CF
:1023400095000020AC000020B000002000406FC0CD
:102350000000084003B587B0002006900798806809
:10236000FD490860FD48006840F22732811A90421A
:1023700042D03CDC40F24522A0EB020190427CD0EE
:1023800020DCB0F5107F00F0CD8710DC322875D04E
:1023900004DC80B3312841F0E882A1E0332800F06A
:1023A000C787A0F23F200028F5D100F031BFA0F28E
:1023B000412000287ED001287DD002287CD003282F
:1023C000E9D1D8E3DD2978D008DC012976D00229CB
:1023D00075D0032974D0DC29DDD120E1DE2970D04D
:1023E000DF296FD0E0296ED0E129D4D1F3E31C2995
:1023F00081F0BB8201E01EE0EEE3DFE811F01C0992
:102400000E061C091C095D06BB061C091C091C09DB
:102410001C09AA07E80759088808B208FF083E09FE
:102420006E09BA09F909FF095E0AAC0A1C091C0900
:102430001F059F054407CA48007850B907980068EF
:10244000C849086007984068C74908600120C44926
:1024500008700020C549C64A03C20021C54A116060
:10246000516007980068BF490968091A0846019138
:10247000FEF74EF9CDE9020101E05BE2C3E013F0A3
:1024800026FA0022BC4BCDE90401FEF7EFF91ED37A
:1024900007984068B4490968091A08460191FEF78F
:1024A00037F9CDE9020113F012FA0022B24BCDE95F
:1024B000040109E052E3BBE3BAE1EEE073E2C2E2F9
:1024C000FAE238E168E1FCE3FEF7D0F907D2312007
:1024D000A24908600020A249087001F046BAFCE752
:1024E0009F48007850B9079800689E49086007988F
:1024F00040689D49086001209949087000219B4867
:102500009B4AC2E900109B4A11605160089802285A
:1025100004D0089810B10898012825D10021944AC8
:10252000116051600020934A106050608A48006832
:10253000642190FBF1F00190FEF7EAF8CDE9020189
:1025400013F0C5F900228D4BCDE90401FEF78EF999
:1025500003D232208149086002E033207F490860BD
:1025600000207F490870B8E7079800687D4909682E
:10257000091A08460191FEF7CBF8CDE9020113F0E4
:10258000A6F900227E4BCDE90401FEF76FF913D3C3
:102590000798406874490968091A08460191FEF7CE
:1025A000B7F8CDE9020113F092F90022744BCDE99E
:1025B0000401FEF75BF925D200206D4A10605060DF
:1025C00000216C4A1160516063480068642190FBEF
:1025D000F1F00190FEF79CF8CDE9020113F077F9D4
:1025E0000022664BCDE90401FEF740F903D2322008
:1025F0005A49086002E033205849086000205849D1
:1026000008706AE769E70021594A11605160594A28
:102610001160516040F22130504908605DE70020B0
:10262000534A1060506000215648524AC2E90010D7
:1026300049480068642190FBF1F00190FEF768F8CA
:10264000CDE9020113F043F900224F4BCDE904011B
:10265000FEF7F4F80BD20021454A11605160454A5B
:102660001160516040F223303C49086035E708981A
:10267000022804D0089810B1089801280CD1002134
:102680003B4A1160516000203A4A1060506040F2AD
:1026900022303249086020E71FE73148007850B9FE
:1026A000079800682F490860079840682E4908601D
:1026B00001202B49087000202C492D4A03C200211B
:1026C0002C4A116051600798006826490968091A68
:1026D00008460191FEF71CF8CDE9020113F0F7F866
:1026E0000022254BCDE90401FEF7C0F813D307986B
:1026F00040681D490968091A08460191FEF708F863
:10270000CDE9020113F0E3F800221B4BCDE90401EF
:10271000FEF7ACF80ED20021154A11605160154A3F
:102720001160516000200E49087040F221300B49C1
:102730000860D2E6D1E60020144908600798406896
:102740001349086007980068124908604FF44970FF
:1027500002490860C1E600001C010020F4000020CE
:1027600095000020AC000020B000002000406FC0A9
:1027700080000020880000200000084000805640B3
:1027800000003940000049C000C06240B80000208D
:10279000A00000209C00002007980068F64908600F
:1027A000F6480068401CF5490860F5480068FDF7E8
:1027B000AFFFF44A03C20021F34A11605160EF48B1
:1027C000006804282FDD07980068F0490968091A95
:1027D00008460191FDF79CFFCDE9020113F077F85F
:1027E0000022EB4BCDE90401FEF728F81BD2079835
:1027F0004068E8490968091A08460191FDF788FF11
:10280000CDE9020113F063F80022E14BCDE90401A8
:10281000FEF714F807D20020D849086040F23F20A4
:10282000DD49086059E640F24320DB49086054E680
:10283000089820B940F22530D74908604DE607983E
:102840000068CD490968091A08460191FDF760FF43
:10285000CDE9020113F03BF80022D04BCDE9040191
:10286000FEF704F804D24FF44A70CB49086034E60E
:1028700007984068C7490968091A08460191FDF799
:1028800047FFCDE9020113F022F80022C44BCDE945
:102890000401FDF7EBFF05D30898022802D0089841
:1028A000012804D140F24120BB49086015E6079891
:1028B0004068401CB749096888420CDA0020B14AD8
:1028C000106050600021B04A1160516040F2452014
:1028D000B149086001E60798016808460191FDF7D3
:1028E00017FFCDE9020112F0F2FF0022AD4BCDE956
:1028F0000401FDF7BBFF04D24FF41070A649086035
:10290000EBE5A9480068642190FBF1F00190FDF728
:10291000FFFECDE9020112F0DAFF0022A34BCDE960
:102920000401FDF78BFF04D240F247209A4908606A
:10293000D3E5D2E50898022804D00898012801D0F0
:10294000089820B940F2462093490860C5E59648AA
:102950000068642190FBF1F00190FDF7D9FECDE90C
:10296000020112F0B4FF0022914BCDE90401FDF702
:1029700065FF0FD20021834A116051600020824A16
:102980001060506001208B4908704FF4107082492C
:102990000860A2E500217B4A1160516086487A4AAE
:1029A000C2E9001099E58548007850B90798006899
:1029B00083490860079840688249086001207F4980
:1029C0000870002080496F4A03C26F4A106050604F
:1029D000079800687A490968091A08460191FDF7C5
:1029E00097FECDE9020112F072FF0022774BCDE98C
:1029F0000401FDF73BFF13D307984068714909684C
:102A0000091A08460191FDF783FECDE9020112F093
:102A10005EFF00226D4BCDE90401FDF727FF11D2C7
:102A20000021584A11605160574A116051600120DD
:102A30006049087040F245205749086000205F490E
:102A400008704AE549E50898022804D0089801284A
:102A500001D0089820B94FF412704F4908603CE546
:102A600051480068642190FBF1F00190FDF750FEA1
:102A7000CDE9020112F02BFF0022554BCDE90401F4
:102A8000FDF7DCFE0ED200213E4A116051603E4A45
:102A9000116051600120474908704FF410703E49A1
:102AA00008601AE50020374A106050600021424853
:102AB000354AC2E9001010E54048007850B907983F
:102AC00000683F490860079840683E490860012057
:102AD0003A49087000213C482A4AC2E90010002007
:102AE000294A106050600798006835490968091A3A
:102AF00008460191FDF70CFECDE9020112F0E7FE58
:102B00000022324BCDE90401FDF7B0FE13D3079844
:102B100040682C490968091A08460191FDF7F8FD3B
:102B2000CDE9020112F0D3FE0022284BCDE90401C9
:102B3000FDF79CFE11D20021124A11605160124A29
:102B40001160516001201B49087040F24720124972
:102B50000860002019490870BFE4BEE40898022804
:102B600004D00898012801D0089898BB40F2422070
:102B700009490860B1E4AEE098000020B8000020E8
:102B80009000002080000020880000209C00002091
:102B900000003440A0000020F400002000804A40E3
:102BA000000064400088B3401C01002000805640B3
:102BB00000E06540BC000020000049C095000020F6
:102BC000AC000020B000002000406FC000000840B2
:102BD0000000144001E0F5E07FE1FE480068642158
:102BE00090FBF1F00190FDF793FDCDE9020112F0A9
:102BF0006EFE0022F84BCDE90401FDF71FFE0FD257
:102C00000021F64A116051600020F54A10605060C2
:102C10000120F44908704FF41170F34908605CE436
:102C20000020EE4A10605060F049ED4A03C254E4BF
:102C3000EF48007850B907980068EE490860079897
:102C40004068ED4908600120E94908700021EB481F
:102C5000E24AC2E90010E24A116051600798006838
:102C6000E4490968091A08460191FDF751FDCDE9CB
:102C7000020112F02CFE0022E14BCDE90401FDF728
:102C8000F5FD13D307984068DB490968091A08461F
:102C90000191FDF73DFDCDE9020112F018FE002281
:102CA000D74BCDE90401FDF7E1FD13D20020CB4A5B
:102CB00010605060CA4A106050600120C949087015
:102CC00000E011E040F24120C74908600020C849F7
:102CD000087004E447E407984068CA4908604FF464
:102CE0001070C14908603EE4C148007850B90798A7
:102CF0000068C049086007984068BF490860012023
:102D0000BB4908700021BD48B44AC2E90010002048
:102D1000B34A1060506007980068B6490968091AFC
:102D200008460191FDF7F4FCCDE9020112F0CFFD58
:102D30000022B34BCDE90401FDF798FD13D30798AA
:102D40004068AD490968091A08460191FDF7E0FCA1
:102D5000CDE9020112F0BBFD0022A94BCDE904012F
:102D6000FDF784FD2DD200219C4A116051609C4AE0
:102D70001160516000209E490870964800686421E7
:102D800090FBF1F0A049086092480068642190FB34
:102D9000F1F00190FDF7BCFCCDE9020112F097FDC6
:102DA00000229A4BCDE90401FDF760FD04D240F208
:102DB00026308D49086003E040F227308A490860D8
:102DC0001FE41EE40898022804D00898012801D0C6
:102DD000089858B90021814A11605160804A1160F9
:102DE00051604FF45070804908600AE479480068E7
:102DF000642190FBF1F00190FDF78AFCCDE902011E
:102E000012F065FD0022814BCDE90401FDF716FDAE
:102E10000BD20020714A10605060714A10605060FF
:102E20004FF449707049086020E400216B4A11603A
:102E300051606E486A4AC2E9001017E46C48007895
:102E400050B9079800686B490860079840686A495C
:102E50000860012066490870002168485F4AC2E99D
:102E6000001000205E4A10605060079800686149B9
:102E70000968091A08460191FDF74AFCCDE90201EB
:102E800012F025FD00225E4BCDE90401FDF7EEFCBA
:102E900013D30798406858490968091A08460191F0
:102EA000FDF736FCCDE9020112F011FD0022544B72
:102EB000CDE90401FDF7DAFC0ED20021474A11608A
:102EC0005160474A1160516000204949087040F242
:102ED0002630454908602CE42BE40898022804D0E9
:102EE0000898012801D0089820B940F241303E49A5
:102EF00008601EE437480068642190FBF1F0424905
:102F00000968401A0190FDF703FCCDE9020112F0B7
:102F1000DEFC00223E4BCDE90401FDF7A7FC04D204
:102F20004FF449703049086004E400212B4A1160D5
:102F300051602E482A4AC2E900100BE42C48007860
:102F400050B9079800682B490860079840682A49DB
:102F50000860012026490870002128481F4AC2E95C
:102F600000101F4A116051600798006821490968E4
:102F7000091A08460191FDF7CBFBCDE9020112F0D9
:102F8000A6FC00221E4BCDE90401FDF76FFC13D314
:102F90000798406818490968091A08460191FDF721
:102FA000B7FBCDE9020112F092FC0022144BCDE9EF
:102FB0000401FDF75BFC2FD20021084A116051602B
:102FC000074A1160516000200949087040F227301B
:102FD00005491FE01C010020000014408000002073
:102FE00088000020BC000020F4000020000049C040
:102FF00095000020AC000020B000002000406FC011
:1030000000000840B4000020C000002000C0624062
:1030100000002E40086005E404E4FE4800686421D6
:1030200090FBF1F00190FDF773FBCDE9020112F086
:103030004EFC0022F84BCDE90401FDF717FC06D346
:10304000F4480068642190FBF1F000282FDD002196
:10305000F24A116051600020F14A10605060ED4862
:103060000068642190FBF1F0002814DDE948006855
:1030700090FBF1F00190FDF74BFBCDE9020112F05E
:1030800026FC0022E44BCDE90401FDF7EFFB02D260
:103090000120E4490870DF480068642190FBF1F0EA
:1030A000E149086040F22B30E049086012E44FF437
:1030B0004970DE4908600DE4DA480078012821D122
:1030C000D4480068642190FBF1F00190FDF720FBEB
:1030D000CDE9020112F0FBFB0022CF4BCDE9040148
:1030E000FDF7ACFB31D20020CE4908700021CB4A5D
:1030F00011605160CA4A116051604FF44970CB4968
:10310000086015E4C3480068642190FBF1F0C649EB
:103110000968401A0190FDF7FBFACDE9020112F0AF
:10312000D6FB0022C24BCDE90401FDF79FFB0CD278
:103130000021BA4A116051600020B94A1060506005
:103140004FF44970B949086023E40898022804D074
:10315000089810B10898012803D14FF44B70B34977
:1031600008600021AD4A11605160B248AC4AC2E922
:103170000010FAE3AB48007850B907980068AE49F0
:10318000086007984068AD4908600120A5490870AB
:103190000021AB48A14AC2E90010A14A1160516068
:1031A00007980068A4490968091A08460191FDF7C3
:1031B000AFFACDE9020112F08AFB0022A14BCDE962
:1031C0000401FDF753FB13D3079840689B49096836
:1031D000091A08460191FDF79BFACDE9020112F0A8
:1031E00076FB0022974BCDE90401FDF73FFB0ED2A1
:1031F00000218A4A11605160894A1160516040F291
:103200002B308A490860002086490870ADE3ACE3A2
:103210000898022804D00898012801D0089838B9E5
:1032200040F24230814908600120874908709CE3E0
:1032300078480068642190FBF1F00190FDF768FA8E
:10324000CDE9020112F043FB0022804BCDE90401DD
:10325000FDF7F4FA0ED20021704A11605160704AF5
:10326000116051600120784908704FF411706F4966
:1032700008607AE30021694A116051607448684A25
:10328000C2E9001071E36748007850B907980068F8
:1032900069490860079840686849086001206149E9
:1032A0000870002166485D4AC2E9001000205C4AAF
:1032B00010605060079800685F490968091A08465D
:1032C0000191FDF725FACDE9020112F000FB002281
:1032D0005C4BCDE90401FDF7C9FA13D307984068A8
:1032E00056490968091A08460191FDF711FACDE916
:1032F000020112F0ECFA0022524BCDE90401FDF775
:10330000B5FA0ED20021454A11605160444A11605D
:10331000516040F23F204549086000204149087053
:1033200023E322E3002041490860012006901CE3CA
:1033300000203A4A106050600021394A1160516003
:10334000079840684349086040F2313037490860C7
:103350000BE30020314A1060506000213548304AAC
:10336000C2E900102B480068642190FBF1F0019045
:10337000FDF7CEF9CDE9020112F0A9FA0022364B91
:10338000CDE90401FDF772FA0BD20021234A116046
:103390005160234A1160516040F233302349086084
:1033A000E3E20898022804D0089810B10898012890
:1033B0000CD10020194A106050600021184A116099
:1033C000516040F2323019490860CEE2CDE2154832
:1033D000007850B907980068174908600798406856
:1033E0001649086001200F490870002014490B4A53
:1033F00003C20B4A10605060079800680E490968C4
:10340000091A08460191FDF783F9CDE9020112F08E
:103410005EFA23E01C01002000C062408000002012
:103420008800002095000020C0000020F40000204B
:1034300000003E4000004940AC000020B0000020E9
:1034400000406FC000000840BC0000200000144095
:10345000000049C0A000002000003B400022FB4BC0
:10346000CDE90401FDF702FA13D307984068F84943
:103470000968091A08460191FDF74AF9CDE90201E8
:1034800012F025FA0022F14BCDE90401FDF7EEF927
:103490000DD20020EF4A10605060EF4A106050607B
:1034A000EE49087040F23130ED4908605DE25CE2BF
:1034B0000021EC48E74AC2E90010E74A1160516078
:1034C0000898022804D0089810B10898012804D15F
:1034D0004FF44D70E249086047E207984068E249BE
:1034E0000968091A08460191FDF712F9CDE90201B0
:1034F00012F0EDF90022DD4BCDE90401FDF7B6F93C
:1035000004D24FF44D70D64908602EE22DE200201F
:10351000D04A106050600021D548CF4AC2E900105F
:10352000D4480068642190FBF1F039280BDD0020BD
:10353000C84A10605060C84A1060506040F236308F
:10354000C749086011E20898022804D0089810B111
:103550000898012804D140F23530C149086004E2DE
:1035600003E2BE48007850B907980068C249086075
:1035700007984068B64908600120B84908700020E3
:10358000BE49B44A03C2B44A10605060079800684C
:10359000B9490968091A08460191FDF7B9F8CDE95A
:1035A000020112F094F90022B54BCDE90401FDF7B8
:1035B0005DF913D307984068A5490968091A0846B8
:1035C0000191FDF7A5F8CDE9020112F080F9002282
:1035D000AB4BCDE90401FDF749F90ED200219D4A1C
:1035E000116051609C4A1160516000209B49087035
:1035F0004FF44D709A490860B7E1B6E1002199484F
:10360000944AC2E900100020934A10605060089864
:10361000022804D0089810B1089801280CD1002085
:103620008C4A1060506000218B4A1160516040F25A
:1036300037308B49086098E1079840688A490968E3
:10364000091A08460191FDF763F8CDE9020112F06D
:103650003EF900228B4BCDE90401FDF707F90BD2AF
:1036600000217C4A116051607B4A1160516040F238
:1036700037307B49086078E177E10020754A1060B7
:1036800050607B49744A03C27A480068642190FB09
:10369000F1F057280CDD00216E4A116051600020C6
:1036A0006D4A1060506040F239306D4908605CE14D
:1036B0000898022804D0089810B1089801280BD166
:1036C0000021644A11605160634A116051604FF4F7
:1036D0004E706349086048E147E16048007850B99E
:1036E000079800686449086007984068584908606E
:1036F00001205A49087000206049564A03C2564AC0
:1037000010605060079800685B490968091A08460C
:103710000191FCF7FDFFCDE9020112F0D8F800227B
:103720004A4BCDE90401FDF7A1F813D3079840688F
:1037300047490968091A08460191FCF7E9FFCDE9F4
:10374000020112F0C4F80022404BCDE90401FDF75C
:103750008DF80DD200203F4A106050603E4A106044
:1037600050603E49087040F237303D490860FCE047
:10377000FBE000213B48374AC2E90010364A11609D
:1037800051600898022804D0089810B108980128C0
:103790000CD100212F4A1160516000202E4A106088
:1037A000506040F23A302E490860DEE007984068E9
:1037B0002D490968091A08460191FCF7A9FFCDE9CE
:1037C000020112F084F800222F4BCDE90401FDF72D
:1037D0004DF80CD200201F4A1060506000211E4A94
:1037E0001160516040F23B301D490860BDE0BCE013
:1037F00000201B49086002200690B6E00021154A0F
:10380000116051601A48144AC2E900101948006852
:10381000642190FBF1F00190FCF77AFFCDE9020101
:1038200012F055F80022194BCDE90401FDF71EF8FE
:103830002ED20021074A116051600020064A106014
:10384000506040F23D30064908608EE000000840BC
:10385000B00000208000002088000020950000209B
:10386000F400002000406F40A000002000804A408B
:10387000000049401C010020AC00002000406FC047
:103880000000104000805A400000644000E06540A5
:103890000898022804D0089810B1089801280BD184
:1038A0000021344A11605160334A116051604FF475
:1038B0004F703249086058E057E03148007850B9FD
:1038C000079800682F490860079840682E490860EB
:1038D00001202B49087000212C48264AC2E900101B
:1038E000254A116051600798006826490968091A3D
:1038F00008460191FCF70CFFCDE9020111F0E7FF4A
:103900000022234BCDE90401FCF7B0FF13D3079845
:1039100040681D490968091A08460191FCF7F8FE3C
:10392000CDE9020111F0D3FF0022194BCDE90401CA
:10393000FCF79CFF0ED200210E4A116051600E4A26
:103940001160516000200E49087040F23B300B4975
:1039500008600AE009E0079840680E490860002006
:10396000064908600121069100BF00BF069809B012
:1039700000BD00008000002088000020F40000202E
:1039800095000020AC000020B000002000406FC077
:1039900000000840B400002003B587B00020069066
:1039A00007988068FE490860FE48006840F22932A6
:1039B000811A90427ED02BDCB0F5117F7BD018DCD1
:1039C00040F23F22A0EB0201904275D008DC10B318
:1039D000312872D0322871D0332841F0B181FDE313
:1039E00001296CD002296BD003296AD00429F4D1B3
:1039F00016E2A0F22130082881F0A281DFE810F061
:103A000000013C018A019A01270395035804D70459
:103A10001729F1D200E018E0DFE811F068085D0531
:103A2000AD05E5056808680868086808A006E006AE
:103A30002E075D078707D40712086A08B908F70838
:103A4000FD083A098809C5037B04D748007850B9B6
:103A500007980068D549086007984068D44908600D
:103A60000120D14908700021D248D34AC2E9001090
:103A70000020D24A1060506007980068CB4909685E
:103A8000091A08460191FCF743FECDE9020111F045
:103A90001EFF0022CA4BCDE90401FCF7E7FE1CD350
:103AA00007984068C2490968091A08460191FCF75D
:103AB0002FFE07E0F8E3C5E2F7E317E094E0F5E353
:103AC00039E271E2CDE9020111F001FF0022BC4BA5
:103AD000CDE90401FCF7CAFE07D23120B1490860E4
:103AE0000020B149087001F02BB9FCE7AE4800781E
:103AF00050B907980068AD49086007984068AC491C
:103B000008600120A84908700021AA48AA4AC2E911
:103B10000010AA4A116051600898022804D0089841
:103B200010B10898012824D10020A34A10605060E9
:103B3000A24A106050609A480068642190FBF1F03E
:103B40000190FCF7E5FDCDE9020111F0C0FE002275
:103B50009C4BCDE90401FCF771FE03D23220914960
:103B6000086002E033208F49086000208E49087009
:103B7000B9E7079800688D490968091A0846019154
:103B8000FCF7C6FDCDE9020111F0A1FE00228E4B2B
:103B9000CDE90401FCF76AFE25D20021864A1160B6
:103BA00051600020854A106050607D4800686421A3
:103BB00090FBF1F00190FCF7ABFDCDE9020111F0B3
:103BC00086FE00227F4BCDE90401FCF737FE03D2CD
:103BD00032207449086002E03320724908600020F6
:103BE000714908707FE77EE70021734A11605160D8
:103BF000724A1160516040F221306A49086072E7F0
:103C000000216D4A11605160002070496B4A03C267
:103C100063480068642190FBF1F00190FCF778FDA7
:103C2000CDE9020111F053FE0022694BCDE90401F8
:103C3000FCF71CFE0BD200215F4A116051605F4A05
:103C40001160516040F22330564908604BE70898F4
:103C5000022804D0089810B1089801280BD100213F
:103C6000554A11605160554A1160516040F222304E
:103C70004C49086037E736E74B48007850B9079859
:103C800000684A490860079840684949086001206F
:103C90004549087000214748474AC2E90010474A91
:103CA000116051600798006840490968091A084680
:103CB0000191FCF72DFDCDE9020111F008FE002273
:103CC000444BCDE90401FCF7D1FD13D307984068BC
:103CD00037490968091A08460191FCF719FDCDE931
:103CE000020111F0F4FD00223A4BCDE90401FCF78A
:103CF000BDFD0ED20021304A116051602F4A116083
:103D0000516000202849087040F2213025490860A0
:103D1000E9E6E8E6002030490860079840682F4946
:103D20000860079800682E4908604FF449701D49E3
:103D30000860D8E6079800682A49086026480068A5
:103D4000401C2549086028480068FCF7E1FC1A4A35
:103D500003C20021194A116051601F4800680428FD
:103D600059DD079800681E490968091A084601913B
:103D7000FCF7CEFCCDE9020111F0A9FD00221B4B9E
:103D8000CDE90401FCF75AFD45D207984068134974
:103D90000968091A08460191FCF7BAFC28E00000FE
:103DA0001C0100207800002095000020AC000020BD
:103DB000B000002000406FC080000020880000207C
:103DC000000008400080564000003940000049C013
:103DD00000003E4000001040B8000020A00000207D
:103DE0009C0000209800002090000020000034403B
:103DF000CDE9020111F06BFD0022FE4BCDE904017B
:103E0000FCF71CFD07D20020FB49086040F23F2070
:103E1000FA49086067E640F24320F849086062E624
:103E2000089820B940F22530F44908605BE607980D
:103E30000068F3490968091A08460191FCF768FC13
:103E4000CDE9020111F043FD0022EE4BCDE9040162
:103E5000FCF70CFD04D24FF44A70E849086042E6D2
:103E600007984068E8490968091A08460191FCF773
:103E70004FFCCDE9020111F02AFD0022E34BCDE910
:103E80000401FCF7F3FC05D30898022802D0089837
:103E9000012804D140F24120D849086023E6079860
:103EA0004068401ED849096888420EDD0021D84A82
:103EB00011605160D74A116051600120D6490870E5
:103EC0004FF41170CD4908600DE607980068019025
:103ED000FCF71EFCCDE9020111F0F9FC0022CF4BEA
:103EE000CDE90401FCF7C2FC04D24FF41070C349C1
:103EF0000860F8E5CA480068642190FBF1F0019081
:103F0000FCF706FCCDE9020111F0E1FC0022C54BF3
:103F1000CDE90401FCF7AAFC04D24FF41070B749B4
:103F20000860E0E50021C048B94AC2E90010B94A7A
:103F300011605160D7E50898022804D0089801283C
:103F400001D0089820B940F24220AC490860CAE587
:103F5000B3480068642190FBF1F00190FCF7D8FBB6
:103F6000CDE9020111F0B3FC0022B04BCDE9040110
:103F7000FCF77CFC0ED20021A54A11605160A54AD5
:103F8000116051600120AA4908704FF411709B49DB
:103F90000860A8E500209E4A106050600021A548F6
:103FA0009C4AC2E900109EE5A348007850B90798E2
:103FB0000068A249086007984068A149086001208C
:103FC0009D49087000209F49914A03C2914A1060A0
:103FD00050600798006899490968091A08460191D4
:103FE000FCF796FBCDE9020111F071FC0022964B23
:103FF000CDE90401FCF73AFC13D3079840689049D7
:104000000968091A08460191FCF782FBCDE9020113
:1040100011F05DFC00228C4BCDE90401FCF726FC7D
:104020000FD200207A4A106050600021794A116056
:10403000516040F241207149086000207E490870BB
:1040400051E550E54FF410706C4908604BE57A4833
:10405000007850B907980068784908600798406868
:104060007749086001207449087000217548684A42
:10407000C2E900100020674A10605060079800688D
:104080006E490968091A08460191FCF741FBCDE920
:10409000020111F01CFC00226C4BCDE90401FCF77D
:1040A000E5FB13D30798406865490968091A084673
:1040B0000191FCF72DFBCDE9020111F008FC002273
:1040C000624BCDE90401FCF7D1FB2DD20020504A10
:1040D0001060506000214F4A1160516056490870CD
:1040E0004F480068642190FBF1F00190FCF710FB51
:1040F000CDE9020111F0EBFB0022554BCDE90401A3
:10410000FCF79CFB04D240F226303C4908600AE0F0
:1041100043480068642190FBF1F04E49086040F28A
:10412000273036490860DEE4DDE40898022804D030
:104130000898012801D0089860B90021344A11601C
:1041400051600020334A1060506040F23E302B49ED
:104150000860C8E432480068642190FBF1F00190E7
:10416000FCF7D6FACDE9020111F0B1FB0022384B81
:10417000CDE90401FCF77AFB0BD20021244A11603F
:104180005160244A116051604FF449701B49086026
:10419000A9E400201E4A10605060002125481D4AF5
:1041A000C2E900109FE42448007850B907980068DD
:1041B00022490860079840682149086001201E498B
:1041C000087000201F49124A03C2124A1060506052
:1041D0000798006819490968091A00E0B2E2084620
:1041E0000191FCF795FACDE9020111F070FB002274
:1041F000164B31E000003440B80000207800002069
:104200009800002000804A40A00000200000644088
:104210008000002088000020BD0000200088B340FE
:104220001C0100200080564000406F4000E06540C7
:10423000BC000020000049C095000020AC00002018
:10424000B000002000406FC0000010400000084097
:1042500000002E40C0000020CDE90401FCF706FB61
:1042600013D307984068FE490968091A0846019166
:10427000FCF74EFACDE9020111F029FB0022F94BBF
:10428000CDE90401FCF7F2FA11D20021F64A1160DF
:104290005160F64A1160516040F22630F4490860DE
:1042A0000020F44908701EE4E1E009E244E21AE467
:1042B0000898022804D00898012801D0089820B94D
:1042C00040F23F30EA4908600DE4EB4800686421A1
:1042D00090FBF1F0E9490968401A0190FCF718FADF
:1042E000CDE9020111F0F3FA0022E54BCDE904011A
:1042F000FCF7BCFA04D24FF44970DD49086037E49A
:104300000021D94A11605160DE48D84AC2E9001044
:104310002EE4D848007850B907980068DA49086058
:1043200007984068CE4908600120D24908700021F2
:10433000D648CD4AC2E90010CC4A116051600798B6
:104340000068D1490968091A08460191FCF7E0F9AB
:10435000CDE9020111F0BBFA0022C24BCDE9040104
:10436000FCF784FA13D307984068BD490968091A15
:1043700008460191FCF7CCF9CDE9020111F0A7FA4A
:104380000022B84BCDE90401FCF770FA0ED20021EF
:10439000B54A11605160B54A1160516040F2273052
:1043A000B34908600020B34908701BE41AE4B2481E
:1043B0000068642190FBF1F00190FCF7A9F9CDE9C8
:1043C000020111F084FA0022B14BCDE90401FCF79F
:1043D00035FA12D20021A44A11605160A34A11603B
:1043E0005160A5480068642190FBF1F0A349086082
:1043F00040F229309E49086038E09F4800686421F7
:1044000090FBF1F00190FCF783F9CDE9020111F086
:104410005EFA00229E4BCDE90401FCF727FA19D27F
:1044200095480068642190FBF1F0002812DA002121
:104430008D4A116051608D4A116051608E4800684C
:10444000642190FBF1F08D49086040F22B308849DF
:1044500008600BE00021844A11605160834A1160BA
:1044600051604FF449708249086004E450E4824886
:104470000068642190FBF1F00190FCF749F9CDE967
:10448000020111F024FA0022814BCDE90401FCF76E
:10449000EDF90BD20021744A11605160734A11602A
:1044A00051604FF449707249086031E4089802285D
:1044B00004D0089810B10898012803D140F22A309E
:1044C0006B4908600021684A116051607148674A71
:1044D000C2E900101CE46748007850B907980068EA
:1044E00069490860079840685D4908600120614992
:1044F0000870002165485C4AC2E9001000205B4A50
:1045000010605060079800685F490968091A0846FA
:104510000191FCF7FDF8CDE9020111F0D8F9002274
:10452000504BCDE90401FCF7A1F913D3079840687B
:104530004B490968091A08460191FCF7E9F8CDE9E9
:10454000020111F0C4F90022464BCDE90401FCF749
:104550008DF90FD20021444A116051600020434A76
:104560001060506040F22930414908600020414904
:104570000870E5E3E4E340480068642190FBF1F053
:104580003E490968401A0190FCF7C2F8CDE90201E2
:1045900011F09DF900223E4BCDE90401FCF766F9CC
:1045A0000BD20021304A11605160304A11605160D5
:1045B0004FF449702E490860C2E30898022804D0DD
:1045C000089810B10898012803D14FF44B7028497E
:1045D00008600020244A1060506000212D48234AC2
:1045E000C2E90010ACE32348007850B9079800688E
:1045F00025490860079840681949086001201D494D
:10460000087000212148184AC2E90010174A1160B9
:104610005160079800681C490968091A0846019109
:10462000FCF776F8CDE9020111F051F900220D4BAB
:10463000CDE90401FCF71AF931D30798406808491D
:104640000968091A08460191FCF762F8CDE90201F0
:1046500011F03DF90022034BCDE904011CE00000FC
:10466000B0000020000008408000002088000020EA
:1046700078000020950000201C010020C0000020D0
:1046800000002E40000049C0AC00002000406FC078
:1046900000003E4000004940FCF7E8F80FD200203F
:1046A000FE4A106050600021FD4A1160516040F2E6
:1046B0002B30FC4908600020FB49087040E33FE3D1
:1046C0000898022804D00898012801D0089838B921
:1046D00040F24220F34908600120F44908702FE3BA
:1046E000F3480068642190FBF1F00190FCF710F8AA
:1046F000CDE9020111F0EBF80022EE4BCDE9040107
:10470000FCF7B4F80FD20020E44A1060506000219A
:10471000E34A116051600120E44908704FF41170C0
:10472000E04908600CE30021DC4A11605160002080
:10473000E149DB4A03C203E30020DA4908600120B3
:104740000690FDE20021D54A11605160D44A116003
:10475000516040F23130D3490860F1E20021CF4A84
:1047600011605160D548CE4AC2E90010D0480068B7
:10477000642190FBF1F00190FBF7CAFFCDE9020143
:1047800011F0A5F80022CE4BCDE90401FCF756F854
:104790000FD20021C14A11605160C14A11605160BD
:1047A00007984068C749086040F23330BD49086047
:1047B000C6E20898022804D0089810B10898012889
:1047C0000BD10021B54A11605160B54A11605160AA
:1047D00040F23230B3490860B2E2B1E2B248007848
:1047E00050B907980068B849086007984068B74909
:1047F00008600120AC4908700021B548A74AC2E909
:104800000010A74A1160516007980068AE49096816
:10481000091A08460191FBF77BFFCDE9020111F06F
:1048200056F80022AB4BCDE90401FCF71FF813D377
:1048300007984068A5490968091A08460191FBF7DD
:1048400067FFCDE9020111F042F80022A14BCDE94A
:104850000401FCF70BF80ED20021904A1160516060
:104860008F4A1160516000208F49087040F231304A
:104870008C49086064E263E200219748874AC2E9F4
:104880000010874A116051600898022804D00898E7
:1048900010B10898012804D14FF44D708149086087
:1048A0004EE20798406887490968091A084601914D
:1048B000FBF72EFFCDE9020111F009F80022874B2A
:1048C000CDE90401FBF7D2FF04D24FF44D707549D6
:1048D000086035E234E20020704A10605060774989
:1048E0006F4A03C272480068642190FBF1F010F136
:1048F0007B0F0CDD0020694A106050600021684A7F
:104900001160516040F236306649086018E208983C
:10491000022804D0089810B10898012804D140F268
:104920003530604908600BE20AE25F48007850B910
:104930000798006864490860079840686349086000
:1049400001205949087000206149544A03C2544A61
:1049500010605060079800685B490968091A0846AA
:104960000191FBF7D5FECDE9020110F0B0FF002266
:104970005B4BCDE90401FBF779FF13D3079840683F
:1049800052490968091A08460191FBF7C1FECDE9B1
:10499000020110F09CFF0022514BCDE90401FBF70E
:1049A00065FF0ED200203D4A1060506000213C4A55
:1049B000116051603C4908704FF44D7039490860EE
:1049C000BEE1BDE100214448344AC2E90010344A46
:1049D000116051600898022804D0089810B1089816
:1049E00001280CD100212D4A1160516000202C4A71
:1049F0001060506040F237302A490860A0E1079803
:104A0000406830490968091A08460191FBF780FEA1
:104A1000CDE9020110F05BFF0022324BCDE9040129
:104A2000FBF724FF0BD200201C4A106050601C4A88
:104A30001060506040F237301A49086080E17FE131
:104A40000021164A1160516000201C49144A03C21B
:104A500017480068642190FBF1F010F1620F0BDD44
:104A600000210E4A116051600D4A1160516040F200
:104A700039300C49086063E10898022804D008988E
:104A800010B10898012832D10021044A1160516008
:104A9000034A116051604FF44E7025E08000002001
:104AA000880000207800002095000020BC00002035
:104AB0001C01002000A06540000049C000004940E2
:104AC00000206340A0000020AC000020B0000020C7
:104AD00000406FC00000084000406F4000804A4026
:104AE0000000104000805A409749086028E127E103
:104AF0009648007850B9079800689549086007986B
:104B0000406894490860012090490870002192484B
:104B1000924AC2E900100020914A10605060079844
:104B200000688B490968091A08460191FBF7F0FDF6
:104B3000CDE9020110F0CBFE00228A4BCDE9040141
:104B4000FBF794FE13D30798406882490968091A55
:104B500008460191FBF7DCFDCDE9020110F0B7FE3C
:104B60000022804BCDE90401FBF780FE0ED200202D
:104B70007A4A106050600021794A1160516073498F
:104B8000087040F2373070490860D9E0D8E0002062
:104B90007549724A03C2724A106050600898022830
:104BA00004D0089810B1089801280CD100206B4A55
:104BB0001060506000216A4A1160516040F23A3042
:104BC00061490860BCE00798406868490968091AAB
:104BD00008460191FBF79CFDCDE9020110F077FE3C
:104BE0000022634BCDE90401FBF740FE0CD200210B
:104BF0005A4A116051600020594A1060506040F2DA
:104C00003B30514908609BE09AE000204E49086023
:104C10000220069094E00021504A116051605548EE
:104C20004F4AC2E9001054480068642190FBF1F03B
:104C30000190FBF76DFDCDE9020110F048FE002266
:104C40004E4BCDE90401FBF7F9FD0CD20021434A9C
:104C5000116051600020424A1060506040F23D30C7
:104C6000394908606CE00898022804D0089810B10F
:104C7000089801280BD10021384A11605160384A48
:104C8000116051604FF44F702F49086058E057E0B1
:104C90002E48007850B9079800682D490860079899
:104CA00040682C49086001202849087000212A48E2
:104CB0002A4AC2E900100020294A10605060079873
:104CC000006823490968091A08460191FBF720FD8D
:104CD000CDE9020110F0FBFD0022224BCDE90401D9
:104CE000FBF7C4FD13D3079840681A490968091AED
:104CF00008460191FBF70CFDCDE9020110F0E7FD3C
:104D00000022184BCDE90401FBF7B0FD0DD20020C5
:104D1000124A10605060124A106050600B490870CF
:104D200040F23B30084908600AE009E00798406813
:104D3000134908600020044908600121069100BF62
:104D400000BF069809B000BD780000209500002043
:104D5000AC000020B000002000406FC080000020A8
:104D6000880000200000084000406F40A0000020A4
:104D700000006440000049401C0100200000204069
:104D8000B400002003B587B0002006900798806823
:104D9000FB490860FB48006840F23522811A9042C6
:104DA00000F00D8738DC40F22722A0EB0201904290
:104DB0007DD01EDC40F22222A0EB0201904277D08F
:104DC0000EDC222875D004DC48B3212841F0218371
:104DD00094E023286ED0A0F221200028F6D130E103
:104DE000012968D0022967D0032966D00429EDD1B2
:104DF00074E20E2981F00D83DFE811F05009DE0224
:104E00002B0369036F03AD031D04500950095009BA
:104E100034047104BF04CF041E29EBD200E01FE06C
:104E2000DFE811F03C093A07C5073C096308BD08F3
:104E3000F0083E097609660AF10A3A067206070585
:104E4000C4067E05BB05C509FB093C093C093C09B4
:104E50003C093C093C093C093C097707F607A20AD2
:104E6000C948007850B907980068C8490860079891
:104E70004068C74908600120C34908700020C5493F
:104E8000C54A03C2C54A1060506007980068BF4910
:104E90000968091A08460191FBF73AFCCDE90201BD
:104EA00010F015FD0022BE4BCDE9040106E053E2EF
:104EB00003E1B6E0C9E34EE19AE1C2E1FBF7D6FCBB
:104EC00013D307984068B2490968091A0846019146
:104ED000FBF71EFCCDE9020110F0F9FC0022B04BFB
:104EE000CDE90401FBF7C2FC07D22120A5490860E7
:104EF0000020A549087001F08CBAFCE7A2480078B0
:104F000050B907980068A149086007984068A0490F
:104F1000086001209C49087000219E489E4AC2E911
:104F2000001000209D4A106050600898022804D0AC
:104F3000089810B10898012825D10020964A1060E1
:104F400050600021954A116051608D4800686421CD
:104F500090FBF1F00190FBF7DBFBCDE9020110F0D3
:104F6000B6FC00228F4BCDE90401FBF77FFC03D296
:104F700022208449086002E0232082490860002042
:104F800081490870B7E70798006880490968091ADD
:104F900008460191FBF7BCFBCDE9020110F097FC3C
:104FA0000022814BCDE90401FBF760FC13D3079885
:104FB000406877490968091A08460191FBF7A8FB80
:104FC000CDE9020110F083FC0022774BCDE904010A
:104FD000FBF74CFC24D200216F4A116051606F4AEC
:104FE0001160516066480068642190FBF1F0019007
:104FF000FBF78EFBCDE9020110F069FC0022694B42
:10500000CDE90401FBF732FC03D222205D490860A0
:1050100002E023205B49086000205B4908706AE7D2
:1050200069E700215C4A116051605C4A116051607F
:10503000079840685D49086040F2212051490860A6
:1050400059E70021544A116051605948534AC2E956
:1050500000104B480068642190FBF1F00190FBF7D1
:1050600057FBCDE9020110F032FC0022514BCDE993
:105070000401FBF7E3FB0BD20021474A11605160AA
:10508000464A1160516040F223203E49086032E7F1
:105090000898022804D0089810B1089801280BD16C
:1050A00000213D4A116051603C4A1160516040F25C
:1050B0002220344908601EE71DE73348007850B9C4
:1050C00007980068314908600798406830490860CF
:1050D00001202D49087000202E492F4A03C20021CB
:1050E0002E4A116051600798006828490968091A1A
:1050F00008460191FBF70CFBCDE9020110F0E7FB3C
:105100000022274BCDE90401FBF7B0FB13D307982E
:1051100040681F490968091A08460191FBF7F8FA27
:10512000CDE9020110F0D3FB00221D4BCDE90401B3
:10513000FBF79CFB0ED20021174A11605160002042
:10514000164A106050601049087040F221200D4945
:105150000860D0E6CFE6002117480F4AC2E90010E8
:105160000E4A116051600898022804D0089810B1C6
:105170000898012822D14FF4097002490860BAE664
:105180001C010020F000002095000020AC00002051
:10519000B000002000406FC0800000208800002088
:1051A000000008400080564000003940A000002068
:1051B000000049C00020634000406F4007984068ED
:1051C000FE490968091A08460191FBF7A1FACDE9E1
:1051D000020110F07CFB0022F94BCDE90401FBF742
:1051E00045FB04D24FF40970F649086083E682E675
:1051F0000021F54A11605160F448F54AC2E90010F7
:10520000F4480068642190FBF1F07B280BDA002160
:10521000ED4A11605160EE4A1160516040F2262063
:10522000E849086067E60898022804D0089810B199
:105230000898012804D140F22520E24908605AE686
:1052400059E6E548007850B907980068E3490860D6
:1052500007984068E24908600120DF490870002093
:10526000E049D94A03C2DA4A1060506007980068E2
:10527000DA490968091A08460191FBF749FACDE9AC
:10528000020110F024FB0022D74BCDE90401FBF70B
:10529000EDFA13D307984068D1490968091A0846FE
:1052A0000191FBF735FACDE9020110F010FB002265
:1052B000CD4BCDE90401FBF7D9FA0ED20021C24A49
:1052C000116051600020C24A10605060C2490870ED
:1052D0004FF40970BB4908600DE60CE60020C34995
:1052E000B94A03C20021BA4A1160516008980228E5
:1052F00004D0089810B1089801280CD10021B24AB6
:10530000116051600020B24A1060506040F22720C6
:10531000AC490860EFE507984068A8490968091A90
:1053200008460191FBF7F4F9CDE9020110F0CFFA3C
:105330000022AF4BCDE90401FBF798FA0BD2002114
:10534000A14A11605160A24A1160516040F22720C9
:105350009C490860CFE5CEE500219B4A1160516071
:105360009A489B4AC2E900109A480068642190FB61
:10537000F1F062280BDA0021934A11605160944ADF
:105380001160516040F229208E490860B3E5089809
:10539000022804D0089810B1089801280BD10021E8
:1053A000894A116051608A4A116051604FF40A7055
:1053B000844908609FE59EE58748007850B90798C2
:1053C00000688649086007984068854908600120A0
:1053D00081490870002183487B4AC2E900107C4A59
:1053E00011605160079800687C490968091A0846ED
:1053F0000191FBF78DF9CDE9020110F068FA002266
:105400007C4BCDE90401FBF731FA13D307984068D0
:1054100073490968091A08460191FBF779F9CDE942
:10542000020110F054FA0022724BCDE90401FBF79F
:105430001DFA0DD20020644A10605060644A10606A
:1054400050606549087040F227205E49086052E5C7
:1054500051E5002165485C4AC2E9001000205C4A21
:10546000106050600898022804D0089810B108987D
:1054700001280BD10021544A11605160544A116037
:10548000516040F22A204F49086034E5079840688F
:105490004A490968091A08460191FBF739F9CDE92B
:1054A000020110F014FA0022534BCDE90401FBF77E
:1054B000DDF90BD20021444A11605160444A116069
:1054C000516040F22B203F49086014E513E50020AD
:1054D0003C490860022006900DE500203A4A106021
:1054E0005060002139483A4AC2E900103948006842
:1054F000642190FBF1F00190FBF70AF9CDE902017C
:1055000010F0E5F900223B4BCDE90401FBF796F9D9
:105510000CD200202C4A1060506000212C4A1160EF
:10552000516040F22D2027490860E4E408980228E1
:1055300004D0089810B1089801280BD10021224A04
:1055400011605160224A116051604FF40B701D4987
:105550000860D0E4CFE42048007850B9079800688C
:105560001E490860079840681D49086001201A49D3
:10557000087000211B48144AC2E90010144A116047
:1055800051600798006815490968091A0846019191
:10559000FBF7BEF8CDE9020110F099F90022154B96
:1055A000CDE90401FBF762F935D3079840680C494F
:1055B0000968091A0846019120E00000A0000020B7
:1055C00000804A40F000002080000020000049C018
:1055D000880000201C01002095000020AC00002065
:1055E000B000002000406FC00000104000406F403D
:1055F00000805A400000084000006440FBF788F833
:10560000CDE9020110F063F90022FE4BCDE904015F
:10561000FBF72CF90ED20021FB4A11605160FB4AC6
:10562000116051600020FA49087040F22B20F949BE
:10563000086060E45FE407984068F749086000206C
:10564000F44908600121069155E40020EE4A1060FB
:1056500050600021ED4A1160516040F23120ED4967
:10566000086048E40021E84A11605160EB48E74ACD
:10567000C2E90010EA480068642190FBF1F0019053
:10568000FBF746F8CDE9020110F021F90022E54BC5
:10569000CDE90401FBF7EAF80BD20021DA4A1160E8
:1056A0005160DA4A1160516040F23320D9490860F4
:1056B00021E40898022804D0089810B1089801281D
:1056C0000CD10020D04A106050600021CF4A1160F8
:1056D000516040F23220CF4908600CE40BE4CC4822
:1056E000007850B907980068CF490860079840686B
:1056F000CE4908600120C64908700021CC48C24A42
:10570000C2E90010C14A1160516007980068C6499B
:105710000968091A08460191FAF7FAFFCDE9020172
:1057200010F0D5F80022C34BCDE90401FBF79EF839
:1057300013D307984068BD490968091A08460191C2
:10574000FAF7E6FFCDE9020110F0C1F80022B94BEB
:10575000CDE90401FBF78AF80ED20021AA4A1160B4
:105760005160AA4A116051600020A949087040F2B6
:105770003120A849086005E404E40020AE4908602F
:1057800007984068AD49086007980068AC49086010
:105790004FF40D709F49086041E407980068A949DB
:1057A0000860A5480068401CA3490860A648006836
:1057B000FAF7AEFF944A03C20021944A1160516087
:1057C0009D48006804282FDD079800689C490968F7
:1057D000091A08460191FAF79BFFCDE9020110F082
:1057E00076F80022994BCDE90401FBF727F81BD28C
:1057F0000798406891490968091A08460191FAF723
:1058000087FFCDE9020110F062F800228F4BCDE94D
:105810000401FBF713F807D200208749086040F223
:105820003E207C4908600BE440F242207949086040
:1058300006E40898012804D140F235207549086033
:1058400025E4079800687F490968091A084601910C
:10585000FAF75EFFCDE9020110F039F800227C4B27
:10586000CDE90401FBF702F804D240F2392069497E
:1058700008600CE40798406870490968401AA0283D
:1058800004DC0898022801D0089820B94FF4107061
:10589000604908600FE407984068401C6749096840
:1058A00088420EDA0021584A11605160574A11604F
:1058B00051600120674908704FF411705549086024
:1058C00047E40798016808460191FAF721FFCDE9FE
:1058D00002010FF0FCFF00225F4BCDE90401FAF753
:1058E000C5FF04D240F23F204A49086031E44C48E9
:1058F0000068642190FBF1F00190FAF709FFCDE90F
:1059000002010FF0E4FF0022544BCDE90401FAF745
:10591000ADFF04D240F246203E49086019E418E485
:105920000021394A116051603C48384AC2E90010F0
:105930000898022804D00898012801D0089860B976
:105940000021314A116051600020304A10605060DF
:1059500040F245202F49086011E431480068642175
:1059600090FBF1F00190FAF7D3FECDE902010FF0C0
:10597000AEFF00223A4BCDE90401FAF75FFF0BD2EC
:105980000021214A11605160204A1160516040F2AB
:1059900043202049086029E428E41D48007850B9D4
:1059A0000798006820490860079840681F49086008
:1059B00001201749087000211D48134AC2E9001050
:1059C000124A116051600798006817490968091A5E
:1059D00008460191FAF79CFECDE902010FF077FF2E
:1059E0000022084BCDE90401FAF740FF45D30798A0
:1059F00040680E490968091A08460191FAF788FEBD
:105A000030E00000000008408000002088000020F6
:105A100095000020F0000020B40000200000494064
:105A20001C01002000003B40AC000020B000002022
:105A300000406FC000001040B8000020A00000200F
:105A40009C000020980000209000002000003440BE
:105A500000804A40BD0000200088B34000805640CE
:105A600000001440CDE902010FF031FF0022FE4B8F
:105A7000CDE90401FAF7FAFE0DD20020FB4A1060CE
:105A80005060FB4A10605060FA4908704FF4117082
:105A9000F949086020E41FE40898022804D0089817
:105AA000012801D0089820B940F24120F24908604D
:105AB00012E4F2480068642190FBF1F00190FAF7DB
:105AC00027FECDE902010FF002FF0022EC4BCDE9E9
:105AD0000401FAF7CBFE0ED20021E44A11605160B6
