:020000040800F2
:10000000E0F10020E90100084DCD0008619D0008E5
:10001000D5CC0008CD2C0008951301080000000085
:100020000000000000000000000000004501000882
:10003000A57D0008000000008901000841050108B5
:10004000030200080302000803020008030200087C
:10005000030200080302000803020008030200086C
:100060000302000889800008030200080302000858
:10007000030200080302000803020008030200084C
:10008000030200080302000803020008030200083C
:10009000030200080302000803020008B180000800
:1000A000030200080302000803020008030200081C
:1000B0000302000899070108030200080302000870
:1000C00003020008030200080302000803020008FC
:1000D0000302000803020008410F01084D0F010848
:1000E0005D80000803020008030200080302000804
:1000F00003020008030200080302000803020008CC
:100100000302000803020008350801080302000882
:10011000290F0108350F0108CD0801080302000866
:10012000030200080302000803020008030200089B
:10013000DFF80CD000F090FD00480047B98E0108B0
:10014000E0F10020204B19680868B0E8F00F80F358
:100150000988BFF36F8F4FF0000080F311884EF0D5
:100160000D0E70470000000006480068006880F32C
:10017000088862B661B6BFF34F8FBFF36F8F00DFA1
:1001800000BF00BF08ED00E0EFF30980BFF36F8F01
:100190000D4B1A6820E9F00F106008B54FF0F00021
:1001A00080F311881AF0BAFC4FF0000080F3118838
:1001B000BDE8084019680868B0E8F00F80F30988C6
:1001C000BFF36F8F704700BF2C020020EFF3118048
:1001D0004FF0F00181F31188704780F31188704768
:1001E000EFF3058070470000064880470648004747
:1001F000FEE7FEE7FEE7FEE7FEE7FEE7FEE7FEE7D7
:10020000FEE7FEE765050108310100080649074AD7
:100210000868504343F239021044086040087047B0
:100220000149086070470000C80200206D4EC641B9
:1002300040EA01039B0703D009E008C9121F08C068
:10024000042AFAD203E011F8013B00F8013B521EE8
:10025000F9D27047D2B201E000F8012B491EFBD25F
:1002600070470022F6E710B513460A4604461946C1
:10027000FFF7F0FF204610BD30B5044600200346CE
:1002800000E05B1C934203D2E05CCD5C401BF8D0E5
:1002900030BDF0B480EA0102D40F4200B2EB410F4E
:1002A00002D20246084611464A0042D0C30DDDB2D2
:1002B000C1F3C752AD1A202D35DAC1F3160141F44E
:1002C000000204B15242C5F1200602FA06F12A41A9
:1002D0001044B3EBD05F23D0C4B1012DA0EBC350C9
:1002E00009DCF0BC4FF0004202EAC352DBB200F579
:1002F000000000F0BCBB400000F1807000EBC35078
:10030000A0F1807040EAD170490009E0490841EA53
:10031000C071A0EBC35000F50000400800EBC350D3
:10032000F0BC00F09BBB6142012202EB4101001BCB
:10033000F6E7F0BC704781F00041AAE780F000408A
:10034000A7E780EA010210B502F00043400022D086
:100350004A001FD0010E01EB1261C0F35600C2F338
:10036000560240F4000042F40002A0FB0220000408
:100370007F39140400D0401C50EA124001D44000E0
:10038000491EC2B20C0604EBD010401C4008802A63
:1003900002D003E0002010BD20F00100002900DAA7
:1003A0000020184310BD30B480EA010202F000457D
:1003B00030F0004221F0004013D090B1C30DD40DB5
:1003C000C2F31601C0F31600E41A41F4000140F430
:1003D00000027D34914201D3641C00E04900002CEE
:1003E00002DA30BC002070474FF400000023914235
:1003F00001D3891A034340084FEA4101F7D151B1B3
:10040000914202D14FF0004105E002D24FF00101CC
:1004100001E06FF0010103EBC450284430BC00F050
:100420001DBB420005D0C0F3C7525242914201DCCD
:100430000020704700EBC15070472DE9FE4F804609
:1004400081EA0300C00F0C46009021F0004123F028
:100450000045B8EB0200A94105D24046214690462E
:100460001C460B46024623F00040104347D0270DA0
:10047000C7F30A00C3F30A510290401A01904028C2
:100480006BDAC3F3130040F4801B0098924620B14E
:100490000023D2EB030A63EB0B0B01985946C0F122
:1004A0004002504600F0A9FA06460D46504659460D
:1004B000019A00F0C1FA10EB08006141002487EABC
:1004C000115284EAE7731A4340D0009A62B3019A4A
:1004D000012A4FEA075215DC001B61EB02014FF0C5
:1004E000004202EA0752CDE90042001C41F58011AA
:1004F00032462B4600F0F8FA03B0BDE8F08F4046D4
:100500002146F9E7001B61EB0201001C41F5801355
:1005100000185B412018A2F5001747EB030140EAE1
:10052000D570B6196D4111E06D084FEA360645EAFF
:10053000C0754FEA0752001B61EB0201001C41F538
:10054000801149084FEA30000019514132462B46CC
:1005500003B0BDE8F04F00F0B8BA009801224000A7
:100560000023D0EB020263EBE073009821464FEAD0
:10057000E074B8EB000061EB0401E9E783F00043AD
:100580005BE781F0004158E72DE9FE4F81EA030463
:1005900004F0004421F0004100944FF0000B23F0E0
:1005A000004350EA01045ED052EA03045BD0C3F377
:1005B0000A54C1F30A552C44A4F2F3340194A0FB6D
:1005C0000254C1F3130141F48011C3F3130343F444
:1005D000801301FB024400FB034E840A970A44EA9D
:1005E000815447EA8357A4FB076802958D0A05FBEF
:1005F00007854FEA932C04FB0C542705029D4FEA14
:10060000065847EA1637B5EB08056EEB070C870E60
:10061000920E47EA811742EA8312A7FB0201B6EB6A
:100620000B0164EB00042B0D43EA0C335E1844EB22
:100630001C50DA465146E7FB0201C5F313044FEAAA
:100640000B3343EA14534FEA0432019C43EA060396
:10065000A4F10C040294009CCDE900B400F044FA2B
:1006600003B0BDE8F08F00200146F9E72DE9F04D19
:1006700081EA030404F0004B21F0004514464FF0DA
:10068000000A23F0004150EA050220D054EA01029A
:100690001DD0C5F30A570246C5F31303C1F3130077
:1006A000C1F30A5640F4801543F48013A7EB060803
:1006B000101BD64608F2FD3873EB050002D308F193
:1006C000010801E092185B41B8F1000F03DA002045
:1006D0000146BDE8F08D00204FF4801106468446A7
:1006E0000EE0171B73EB050705D3121B63EB050325
:1006F00006434CEA010C49084FEA300092185B416E
:1007000050EA0107EDD152EA030012D082EA040058
:1007100083EA0501084305D0101BAB4106D2012234
:10072000002306E000224FF0004302E06FF00102D8
:1007300053101AEB06004CEB085110EB0A0041EB8A
:100740000B01BDE8F04D00F0C0B970B521F00043D9
:1007500003430CD0C1F30A550024D5EB040564EB28
:100760000403D617AD1AB34102DB0020014670BD69
:10077000201841EB025170BDC10F80EAE0700844BF
:10078000CA079623002100F072B996230022114671
:1007900000F06DB90EB5C10F80EAE0700844CA07D9
:1007A000002140F233438DE80E000A460B4600F06C
:1007B0009BF903B000BD0EB540F233410291002118
:1007C000CDE900110A460B4600F08EF903B000BDDA
:1007D00000F0004220F00040C10DC0F3160040F4CC
:1007E00000007F2901DA00207047962903DCC1F15F
:1007F0009601C84001E096398840002AF4D0404272
:10080000704720F00040C10DC0F3160040F4000016
:100810007F2901DA00207047962903DCC1F1960197
:10082000C840704796398840704770B5C1F30A5286
:1008300001F000450024C1F3130140F2FF3341F4FD
:1008400080119A4201DA002070BD40F233439A428F
:10085000A2F2334203DC524200F0DEF800E09040A6
:100860002C43F1D0404270BDC1F30A5210B5C1F320
:10087000130140F2FF3341F480119A4201DA002063
:1008800010BD40F233439A42A2F2334203DC52429B
:1008900000F0C2F810BD904010BD00F0004230F0F2
:1008A00000400AD0C10D01F56071C0F3160042EAA4
:1008B0000151C208400711437047002001467047AC
:1008C00030B5041E71F1000404DB4FF000444042D7
:1008D00064EB0101141E73F1000405DB1C464FF0AC
:1008E0000043524263EB04038B4208BF824230BD97
:1008F00030B5041E71F1000404DB4FF000444042A7
:1009000064EB0101141E73F1000405DB1C464FF07B
:100910000043524263EB0403994208BF904230BD4A
:1009200001F0004330B421F0004150EA010206D04A
:100930000A0DA2F56072C1F31301002A02DC30BC7B
:1009400000207047440F44EAC104C100E01830BCE5
:1009500000EBC25000F082B8002801DBC0F100407B
:10096000002901DBC1F100418842704730B50B46D8
:10097000014600202022012409E021FA02F59D42CF
:1009800005D303FA02F5491B04FA02F52844151EA3
:10099000A2F10102F1DC30BD2DE9F05F0546002037
:1009A00092469B4688460646814640241BE02846E0
:1009B00041464746224600F02FF853465A46C01A91
:1009C000914110D311461846224600F016F82D1A10
:1009D00067EB01084F4622460120002100F00DF888
:1009E00017EB00094E41201EA4F10104DFDC48464C
:1009F00031462A464346BDE8F09F202A04DB203AD0
:100A000000FA02F1002070479140C2F1200320FA61
:100A100003F3194390407047202A04DB203A21FA5F
:100A200002F00021704721FA02F3D040C2F1200207
:100A30009140084319467047202A06DBCB17203A1D
:100A400041FA02F043EAE07306E041FA02F3D040D3
:100A5000C2F1200291400843194670470029A8BFFF
:100A60007047401C490008BF20F00100704710B4D7
:100A7000B0FA80FC00FA0CF050EA010404BF10BC8C
:100A8000704749B1CCF1200421FA04F411FA0CF1B9
:100A900018BF012121430843A3EB0C01CB1D4FEAF2
:100AA00000614FEA102042BF002010BC704700EBED
:100AB000C35010440029A4BF10BC7047401C49001B
:100AC00008BF20F0010010BC704710B5141E73F170
:100AD000000408DA401C41F1000192185B411A43FE
:100AE00001D120F0010010BD2DE9F04D92469B464A
:100AF00011B1B1FA81F202E0B0FA80F220329046F0
:100B0000FFF77BFF04460F4640EA0A0041EA0B016B
:100B100053465A46084313D0114653EA010019D0F0
:100B2000C8F140025046FFF777FF05460E46504693
:100B300059464246FFF761FF084305D0012004E013
:100B400020463946BDE8F08D0020054346EAE076B0
:100B50002C4337430A986305E40AA0EB08000022FF
:100B6000FD0A44EA47540A3002D500200146E9E76D
:100B7000010510196941DDE9084500196941BDE821
:100B8000F04DA2E72DE9F04D00231A461B1A8A41C9
:100B900003DB00200146BDE8F08DC1F30A52C1F32A
:100BA000130141F480154FF0000BD10702D100185A
:100BB0006D41521E0027044640F2FF11384601EBFA
:100BC000620A3E468046024600204FF48011FFF73D
:100BD00023FFC2197141BB1846EB0100B4EB030CB3
:100BE00075EB000C04D3E41A65EB000517460E46BE
:100BF000241908F101006D4180463428E3DDF9191C
:100C000046EB0600091BA84103D24FF0FF32134602
:100C100001E0002213461BEB070046EB0A51BDE83A
:100C2000F04DFFF752BFC1F30A52C1F3130140F276
:100C3000FF3341F480119A4202DA002001467047E6
:100C400040F233439A42A2F2334202DC5242FFF7AF
:100C5000E3BEFFF7D2BE0000064C074D06E0E06899
:100C600040F0010394E8070098471034AC42F6D3F3
:100C7000FFF762FA18B6010838B6010870B58C188B
:100C800010F8015B15F0070301D110F8013B2A11A0
:100C900006D110F8012B03E010F8016B01F8016B8D
:100CA0005B1EF9D12B0705D40023521E0DD401F889
:100CB000013BFAE710F8013BCB1A921C03E013F852
:100CC000015B01F8015B521EF9D5A142D8D3002087
:100CD00070BD002904D0816841F001018160704736
:100CE000816821F0010181607047000010B515494D
:100CF00088420AD14415012120460CF0F9F820461B
:100D0000BDE8104000210CF0F3B80F4988420AD129
:100D10000415012120460CF0EBF82046BDE81040F8
:100D200000210CF0E5B8094988420AD10121CC0321
:100D300020460CF0DDF82046BDE8104000210CF004
:100D4000D7B810BD0024014000280140003C0140FC
:100D5000014600208968490700D501207047C06C12
:100D600080B270470246002012680A4200D001207B
:100D70007047014600208968090700D501207047A7
:100D800010B542680E4B1A400C790B6842EA0422F7
:100D90001343436082680B4B1A40D1E9024323435B
:100DA0004C7942EA440213438360C26A22F470021F
:100DB000097C491EC9B242EA0151C16210BD00005E
:100DC000FFFEF0FFFDF7F1FF70B5072609290AD9EC
:100DD000C568A1F10A0404EB4404A640B543A3404E
:100DE0001D43C56007E0056901EB4104A640B5431A
:100DF000A3401D4305611F23072A09D2446B521EDD
:100E000002EB820293409C4391400C43446370BDCB
:100E10000D2A09D2046BD21F02EB820293409C433D
:100E200091400C43046370BDC46A0D3A02EB820228
:100E300093409C4391400C43C46270BD816841F073
:100E4000080181607047002904D0816841F4A00145
:100E500081607047816821F4A001816070478168DA
:100E600041F00401816070472DE9F84F04468B463C
:100E70000027A068642190FBF1F6DFF828A4002584
:100E80005046BAF92EC00122017900F5807900F1AF
:100E90008008BCF1870F6FD018DCBCF1830F5BD0EA
:100EA0000ADCBCF1000F23D0BCF1810F7DD0FE4DD8
:100EB000BCF1820F1FD11FE0BCF1840F76D0BCF1D2
:100EC000850F5DD0BCF1860FF4D1A7E0F748ACF1F7
:100ED000880C00780090F348407C431CDBB2BCF1E6
:100EE000070F08D2DFE80CF0FCFBD1FAF9F8F700A5
:100EF0008220AAF82E003CE32068FFF74BFC18F094
:100F0000A4F800222B46FFF7F3FC09D36068FFF733
:100F100041FC18F09AF800222B46FFF7E9FC0CD2AE
:100F20000020C9F81000C9F81400C9F81800C9F861
:100F30001C008320AAF82E001BE30020C9F8100033
:100F4000C9F814000021C9F81810C9F81C100227AC
:100F50008120AAF82E000CE3BBF1000F09D0BBF1F1
:100F6000010F0AD002208AF812008520AAF82E006C
:100F7000FFE28AF81250F8E72CE18AF81220F4E731
:100F8000DFF82CB339B92068C8F82C006068C8F8BD
:100F900030008AF80420C7480021C9E90410C9F8C4
:100FA0001810C9F81C10206801E0D4E2C4E2D8F897
:100FB0002C10081AFFF7EEFB18F047F800225B46EA
:100FC000FFF796FC0CD36068D8F83010081AFFF7CA
:100FD000E1FB18F03AF800225B46FFF789FC8AD261
:100FE0000021C9F81010C9F81410C9F81810C9F870
:100FF0001C108AF80450C8F83C609AF8120028B116
:10100000012807D08820AAF82E00B2E28620AAF88C
:101010002E00AEE28720AAF82E00AAE2D8F83C0003
:10102000801BFFF7B7FB18F010F80022A24BFFF768
:101030005FFC0CD20021C9F81010C9F81410C9F8CF
:101040001810C9F81C108920AAF82E0091E2BBF1F3
:10105000030F0CD195480078012808D00020C9F86A
:101060001000C9F814009549C9E9060181E2002180
:10107000C9F81010C9F814100020C9F81800C9F8F0
:101080001C008A20AAF82E0073E239B92068C8F83B
:101090002C006068C8F830008AF8042085480021D8
:1010A000C9E90410C9F81810C9F81C102068D8F84C
:1010B0002C10081AFFF76EFB17F0C7FF804E0022B6
:1010C0003346FFF715FC13D36068D8F83010081AC0
:1010D000FFF760FB05E099E1D3E1B2E004E116E03F
:1010E0005EE117F0B2FF00223346FFF701FC8CD21D
:1010F0000021C9F81010C9F81410C9F81810C9F85F
:101100001C108AF804508620AAF82E0031E239B962
:101110002168C8F82C106168C8F830108AF80420DB
:10112000BBF1030F13D10099012910D00A281FD950
:101130000021C9F81010C9F81410C9F81810C9F81E
:101140001C108AF804508420AAF82E0011E2002016
:10115000C9F81000C9F81400C9F81800C9F81C0033
:101160008AF804508AF811308520AAF82E0000E28F
:101170002068D8F82C10081AFFF70CFB17F065FF51
:10118000504E00223346FFF7B3FB0CD36068D8F80B
:101190003010081AFFF7FEFA17F057FF0022334607
:1011A000FFF7A6FB0DD20021C9F81010C9F81410E2
:1011B000C9F81810C9F81C108AF804508120AAF840
:1011C0002E0041480021C9E90410C9F81810C9F8D7
:1011D0001C10CEE1D8F83C00801BFFF7DBFA17F0BB
:1011E00034FF0022344BFFF783FB0DD20021C9F8F6
:1011F0001010C9F814100020C9F81800C9F81C0014
:101200008B20AAF82E00B4E1BBF1030F0CD12748C4
:101210000078012808D00021C9F81010C9F814106E
:101220002A48C9E90610A4E10021C9F81010C9F83C
:101230001410C9F81810C9F81C108C20AAF82E0038
:1012400097E139B92068C8F82C006068C8F8300008
:101250008AF8042017480021C9E90410C9F81810B9
:10126000C9F81C102068D8F82C10081AFFF792FA59
:1012700017F0EBFE124E00223346FFF739FB0CD37A
:101280006068D8F83010081AFFF784FA17F0DDFE0E
:1012900000223346FFF72CFB9BD20021C9F8101027
:1012A00016E0000088000020000069407C0000205B
:1012B0000000394000C072C000003E4000004EC037
:1012C000000008400000794000C0724000004E401D
:1012D000C9F81410C9F81810C9F81C108AF804507D
:1012E0008720AAF82E0044E139B92168C8F82C10EB
:1012F0006168C8F830108AF804209F490022C9E9C3
:1013000004210021C9F81810C9F81C10BBF1030F03
:101310000FD1009901290CD00A2817D90021C9F84A
:101320001010C9F814108AF804508420AAF82E006E
:101330001FE10021C9F81010C9F814108AF80450F0
:101340008AF811308520AAF82E0012E12068D8F81A
:101350002C10081AFFF71EFA17F077FE874E0022AE
:101360003346FFF7C5FA0CD36068D8F83010081A76
:10137000FFF710FA17F069FE00223346FFF7B8FABC
:101380000DD20021C9F81010C9F81410C9F81810AE
:10139000C9F81C108AF804508120AAF82E00E8E051
:1013A000D8F83C00801BFFF7F5F917F04EFE00223D
:1013B000734BFFF79DFA0CD20021C9F81010C9F841
:1013C0001410C9F81810C9F81C108D20AAF82E00A6
:1013D000CFE0BBF1030F0CD16A480078012808D098
:1013E0000021C9F81010C9F814106748C9E906109F
:1013F000BFE00021C9F81010C9F81410C9F818107E
:10140000C9F81C108E20AAF82E00B2E039B9206865
:10141000C8F82C006068C8F830008AF804205B48DF
:101420000021C9E90410C9F81810C9F81C10206877
:10143000D8F82C10081AFFF7ADF917F006FE544E35
:1014400000223346FFF754FA0CD36068D8F8301006
:10145000081AFFF79FF917F0F8FD00223346FFF74F
:1014600047FA0DD20021C9F81010C9F81410C9F8B4
:101470001810C9F81C108AF804508820AAF82E0009
:1014800077E039B92168C8F82C106168C8F83010C5
:101490008AF8042038490022C9E90421C9F8182033
:1014A000C9F81C20BBF1030F0FD1009901290CD002
:1014B000052817D90021C9F81010C9F814108AF8A6
:1014C00004508420AAF82E0053E00021C9F810101F
:1014D000C9F814108AF804508AF811308520AAF847
:1014E0002E0046E02068D8F82C10081AFFF752F9B1
:1014F00017F0ABFD214E00223346FFF7F9F90CD36C
:101500006068D8F83010081AFFF744F917F09DFD0D
:1015100000223346FFF7ECF92BD20021C9F8101056
:10152000C9F81410C9F81810C9F81C108AF804502A
:101530008120AAF82E001CE00021C9F81010C9F87B
:101540001410C9F81810C9F81C10AAF82E508AF8FF
:10155000115001270DE00021C9F81010C9F814102E
:10156000C9F81810C9F81C10AAF82E508AF81150A2
:1015700001273846BDE8F88F00C07240000079406E
:10158000008046407C00002000004E4000C072C039
:10159000000008402DE9FC5F83460F464FF0000A2B
:1015A000DBF80800642190FBF1F9F94CF9480121BE
:1015B000B4F92A2003782046DFF8DC83007904F5AB
:1015C000807504F180065B2A7AD034DC4F2A78D00B
:1015D00022DCF24F492A75D00FDCDFF8C4834FF0CC
:1015E0007807412A73D003DC4AB3402A48D148E047
:1015F000452A69D0482AF9D1DEE04A3ADFF8A483C7
:10160000DFF8A4B3E94F052A3AD2DFE812F0F4027A
:10161000CA03B10480056B06DFF894C3503A0B2A65
:10162000DCF800C0F0D2DFE802F0FBF4F3F2F1F0F6
:10163000EFEEEDECEB005D3A1C2AE5D200E01DE098
:10164000DFE812F025037C03E90341041E000D04CA
:101650006404BB0411051E00DF0433058B05F2058D
:101660001E00B5051D067906D0061E009D06F4066F
:101670004C07A2071E007007C607060840206085B9
:10168000FCE2DBF80000FFF785F817F0DEFC002233
:101690004346FFF72DF90AD3DBF80400FFF77AF889
:1016A00017F0D3FC00224346FFF722F90DD2412068
:1016B0006085C0480021C5E90410A961E961DFE740
:1016C00018E3FDE397E102E01CE06785D8E7207BA3
:1016D00050B1B8480021C5E90410A961E9610020B2
:1016E000A07345206085CBE7A07B401CC0B2A073EF
:1016F0000A2802D94FF0040A01E04FF0030A002043
:101700006085BDE7DBF80000FFF744F817F09DFCAB
:1017100000224346FFF7D4F80AD2DBF80400FFF7B3
:1017200039F817F092FC00224346FFF7C9F803D3BB
:10173000617B207B814201D36785A1E72D2807D9F2
:10174000002060854FF0020A60732073A07397E752
:101750009948405C612817D0622818D0632819D0B6
:1017600064281AD065281BD066281CD067281DD095
:1017700068281ED067858F480022C5E90420AA6129
:10178000EA61491C61737BE748206085F3E74920E3
:101790006085F0E74A206085EDE74B206085EAE749
:1017A0004C206085E7E74D206085E4E74E206085AA
:1017B000E1E74F206085DEE74846FEF7EBFF88460D
:1017C000074617F042FC00227C4BFFF779F803D95B
:1017D000A9F12E00542802D25020608550E73846E7
:1017E000414617F032FC0022754BFFF781F804D315
:1017F00009F18C09B9F15F0F0DD2512060853FE7E7
:1018000022E2A4E149E1D4E179E11AE181E02BE0AF
:10181000B1E05BE004E0706F2860522060852FE744
:10182000A9F18509B9F1050F0AD262480021C5E97D
:101830000410A961E961706F2860522060851FE77C
:10184000032F08D1012B06D00020286168615D4973
:10185000C5E9060114E70020286168610021A9613B
:10186000E961532060850BE730B9DBF80000F062D6
:10187000DBF804003063217153480021C5E90410EE
:10188000A961E961DBF80000F16A081AFEF782FF3E
:1018900017F0DBFB00224346FFF72AF80CD3DBF8F6
:1018A0000400316B081AFEF775FF17F0CEFB00221B
:1018B0004346FFF71DF891D200212961696100209C
:1018C000A861E861207150206085D9E6A9F18509F9
:1018D000B9F1050F0AD237480021C5E90410A96102
:1018E000E961706F286052206085C9E6032F08D136
:1018F000012B06D00020286168613449C5E9060142
:10190000BEE6002028616861A861E8615420608516
:10191000B6E630B9DBF80000F062DBF804003063B3
:10192000217129480021C5E90410A961E961DBF8AA
:101930000000F16A081AFEF72DFF17F086FB00225F
:101940004346FEF7D5FF0CD3DBF80400316B081AD1
:10195000FEF720FF17F079FB00224346FEF7C8FF91
:10196000B3D2002129616961A961E9610020207178
:101970005120608584E6032F2AD1012B28D0706F77
:10198000A0EB0C00B0F5846F2EDB4520608577E678
:10199000880000207C0000200000084000E0654036
:1019A0000000694000E06040000044400000144036
:1019B0008801002000C07240196B00200080464062
:1019C0000080614000004E4000C072C000004EC068
:1019D000002028616861A861E86160854FF0020A13
:1019E00060732073A0734BE6FE480021C5E9041024
:1019F000A961E96144E64846FEF7CCFE8B46804685
:101A000017F023FB00223B46FEF75AFF05D2B9F13F
:101A1000000F02DB5520608532E64046594617F03C
:101A200014FB00223B46FEF74BFF05D2B9F1000F35
:101A300002DA5620608523E6706F286057206085A3
:101A40001EE64846FEF7A6FE17F0FFFA0022E64B18
:101A5000FEF74EFF0AD2E3480021C5E90410A96150
:101A6000E961706F28605720608509E6032F0BD16C
:101A7000DE480078012807D0002028616861DC4832
:101A80000021C5E90610FBE50020286168610021FE
:101A9000A961E96158206085F2E530B9DBF8000002
:101AA000F062DBF8040030632171D2480021C5E9FF
:101AB0000410A961E961DBF80000F16A081AFEF779
:101AC00069FE17F0C2FA00224346FEF711FF0CD35D
:101AD000DBF80400316B081AFEF75CFE17F0B5FA6C
:101AE00000224346FEF704FF84D200212961696188
:101AF000A961E9610020207155206085C0E5484654
:101B0000FEF748FE17F0A1FA0022B74BFEF7F0FEF1
:101B10000AD2B4490020C5E90401A861E861706FE8
:101B2000286057206085ABE5032F08D0002028618E
:101B300068610021A961E96159206085A0E5002064
:101B400028616861AC480021C5E9061098E530B904
:101B5000DBF80000F062DBF8040030632171A54877
:101B60000021C5E90410A961E961DBF80000F16A10
:101B7000081AFEF70FFE17F068FA00224346FEF738
:101B8000B7FE0CD3DBF80400316B081AFEF702FE37
:101B900017F05BFA00224346FEF7AAFEAED2002001
:101BA000286168610021A961E96120715620608582
:101BB00066E5032F0BD1012B09D0706F40F2F6219F
:101BC000A0EB0C0088420EDD4520608558E5002022
:101BD00028616861A861E86160854FF0020A60735E
:101BE0002073A0734CE57F490020C5E90401002162
:101BF000A961E96144E54846FEF7CCFD8846074601
:101C000017F023FA00227D4BFEF772FE03D3A9F1F1
:101C10002E005E2802D85A20608531E538464146BC
:101C200017F013FA0022764BFEF74AFE04D909F1A9
:101C30008109B9F1540F02D25B20608520E5706FF5
:101C40002860522060851BE509F18909B9F1050F6B
:101C50000AD264490020C5E90401A861E861706FF7
:101C60002860522060850BE5032F08D1012B06D098
:101C70000021296169615E48C5E9061002E2002180
:101C800029616961A961E9615D206085FAE130B986
:101C9000DBF80000F062DBF8040030632171554985
:101CA0000020C5E904010021A961E961DBF8000019
:101CB000F16A081AFEF76EFD17F0C7F900224346D5
:101CC000FEF716FE0CD3DBF80400316B081AFEF7A2
:101CD00061FD17F0BAF900224346FEF709FE89D2EA
:101CE000002129616961A961E961002020715A2000
:101CF0006085C7E109F18909B9F1050F0AD23948B0
:101D00000021C5E90410A961E961706F28605220C3
:101D10006085B7E1032F09D1012B07D0002028618E
:101D2000686135480021C5E90610ABE10021296151
:101D30006961A961E9615E206085A3E130B9DBF8E2
:101D40000000F062DBF804003063217129490020B3
:101D5000C5E904010021A961E961DBF80000F16A2D
:101D6000081AFEF717FD17F070F900224346FEF738
:101D7000BFFD0CD3DBF80400316B081AFEF70AFD37
:101D800017F063F900224346FEF7B2FDB1D20021FD
:101D900029616961A961E961002020715B2060858A
:101DA00070E14846FEF7F6FC8846074617F04DF905
:101DB0000022144BFEF79CFD02D25F20608561E19A
:101DC0003846414617F041F900220F4BFEF778FDE7
:101DD00004D3A9F15509B9F10A0F17D8602060851D
:101DE00050E1000000C07240002066407C000020EE
:101DF00000004E4000C072C000004EC00080614034
:101E00000080464000C0574000405540706F286039
:101E10005720608536E109F18909B9F1050F0BD228
:101E2000FC480021C5E904100020A861E861706F3A
:101E300028605720608525E1032F08D1012B06D0AB
:101E4000002129616961F448C5E906101AE1002101
:101E500029616961A961E9616220608512E130B997
:101E6000DBF80000F062DBF8040030632171EB481E
:101E70000021C5E90410A961E961DBF80000F16AFD
:101E8000081AFEF787FC17F0E0F800224346FEF739
:101E90002FFD0CD3DBF80400316B081AFEF77AFC37
:101EA00017F0D3F800224346FEF722FD87D2002127
:101EB00029616961A961E961002020715F2000E06A
:101EC000E7E26085D0E309F18909B9F1050F0AD28B
:101ED000D0480021C5E90410A961E961706F28604C
:101EE00057206085C0E3032F08D1012B06D00021C5
:101EF00029616961CA48C5E90610B5E30021296175
:101F00006961A961E96163206085ADE330B9DBF8FF
:101F10000000F062DBF8040030632171BF4800214B
:101F2000C5E90410A961E961DBF80000F16A081A4B
:101F3000FEF730FC17F089F800224346FEF7D8FC84
:101F40000CD3DBF80400316B081AFEF723FC17F002
:101F50007CF800224346FEF7CBFCB3D20021296176
:101F60006961A961E96100202071602060857BE3DF
:101F70004846FEF70FFC0746019117F066F800226D
:101F80004346FEF7B5FC10D93846019917F05DF8C5
:101F900000225B46FEF794FC04D3A9F12809B9F1AD
:101FA0005F0F05D2652060855EE3642060855BE39A
:101FB000706F28605220608556E309F12F09B9F14E
:101FC000050F0BD293480021C5E904100020A86139
:101FD000E861706F28605220608545E3032F08D1C7
:101FE000012B06D00021296169618B48C5E90610E3
:101FF0003AE3002129616961A961E961672060858F
:1020000032E330B9DBF80000F062DBF80400306343
:10201000217182480021C5E90410A961E961DBF85A
:102020000000F16A081AFEF7B5FB17F00EF800225F
:102030004346FEF75DFC0CD3DBF80400316B081A55
:10204000FEF7A8FB17F001F800224346FEF750FC0C
:102050008DD2002129616961A961E96100202071A7
:102060006420608500E309F12F09B9F1050F0AD258
:1020700068480021C5E90410A961E961706F286012
:1020800052206085F0E2032F07D0002129616961A9
:10209000A961E96168206085E6E200202861686145
:1020A0005F480021C5E90610DEE230B9DBF8000028
:1020B000F062DBF804003063217158480021C5E963
:1020C0000410A961E961DBF80000F16A081AFEF763
:1020D00061FB16F0BAFF00224346FEF709FC0CD361
:1020E000DBF80400316B081AFEF754FB16F0ADFF65
:1020F00000224346FEF7FCFBB4D20021296169614E
:10210000A961E9610020207165206085ACE2484644
:10211000FEF740FB8B46804616F097FF00223B46B9
:10212000FEF7E6FB05D2B9F1000F02DA69206085FF
:102130009AE24046594616F088FF00223B46FEF7D9
:10214000D7FB05D2B9F1000F02DD6A2060858BE272
:10215000706F28605720608586E24846FEF71AFBBC
:1021600016F073FF00224346FEF7AAFB0AD2294865
:102170000021C5E90410A961E961706F286057204A
:10218000608571E2032F0AD126480078012806D025
:102190000021296169612048C5E9061064E2002137
:1021A00029616961A961E9616C2060855CE230B9EF
:1021B000DBF80000F062DBF804003063217117489F
:1021C0000021C5E90410A961E961DBF80000F16AAA
:1021D000081AFEF7DFFA16F038FF00224346FEF732
:1021E00087FB0CD3DBF80400316B081AFEF7D2FA38
:1021F00016F02BFF00224346FEF77AFB86D2002121
:1022000029616961A961E961002020716920608507
:102210002AE2000000C0724000004E4000C072C0C0
:1022200000004EC07C0000204846FEF7B3FA16F0CE
:102230000CFF00224346FEF743FB0BD2FD48002172
:10224000C5E904100020A861E861706F286057207C
:10225000608509E2032F0AD1F7480078012806D0EB
:10226000002129616961F548C5E90610FCE10021FA
:1022700029616961A961E9616D206085F4E130B986
:10228000DBF80000F062DBF8040030632171EC49F8
:102290000020C5E904010021A961E961DBF8000023
:1022A000F16A081AFEF776FA16F0CFFE00224346CE
:1022B000FEF71EFB0CD3DBF80400316B081AFEF7A7
:1022C00069FA16F0C2FE00224346FEF711FB9FD2C8
:1022D000002129616961A961E961002020716A20FA
:1022E0006085C1E14846FEF755FA0746009116F0B1
:1022F000ACFE00225B46FEF7E3FA03D909F1860043
:102300005E2802D26E206085AEE13846009916F054
:102310009CFE00224346FEF7EBFA04D9A9F13309EB
:10232000B9F1540F02D26F2060859DE1706F286073
:102330005220608598E1A9F12B09B9F1050F0AD265
:10234000BC480021C5E90410A961E961706F2860EB
:102350005220608588E1032F08D1012B06D000218F
:1023600029616961B748C5E906107DE1002028614F
:1023700068610021A961E9617120608574E130B96B
:10238000DBF80000F062DBF8040030632171AC4838
:102390000021C5E904100020A861E861DBF8000015
:1023A000F16A081AFEF7F6F916F04FFE00224346CE
:1023B000FEF79EFA0CD3DBF80400316B081AFEF727
:1023C000E9F916F042FE00224346FEF791FA08D2E0
:1023D0000020286168610021A961E96120716E20F7
:1023E000608541E1A9F12B09B9F1050F0AD29148A5
:1023F0000021C5E90410A961E961706F28605220CD
:10240000608531E1032F08D1012B06D0002129611D
:1024100069618A48C5E9061026E1002028616861E3
:102420000021A961E961722060851DE130B9DBF806
:102430000000F062DBF80400306321718048002165
:10244000C5E904100020A861E861DBF80000F16A2A
:10245000081AFEF79FF916F0F8FD00224346FEF732
:1024600047FA0CD3DBF80400316B081AFEF792F937
:1024700016F0EBFD00224346FEF73AFA08D200219F
:1024800029616961A961E961002020716F2060857F
:10249000EAE04846FEF77EF98846074616F0D5FD85
:1024A0000022694BFEF70CFA02D273206085DBE054
:1024B0003846414616F0C9FD0022644BFEF718FA73
:1024C00004D309F15F09B9F10A0F02D874206085BD
:1024D000CAE0706F286057206085C5E0A9F15809EF
:1024E000B9F1050F0AD253480021C5E90410A961CA
:1024F000E961706F286057206085B5E0032F08D12F
:10250000012B06D00021296169614E48C5E90610FA
:10251000AAE00020286168610021A961E9617620B4
:102520006085A1E030B9DBF80000F062DBF8040060
:102530003063217142480021C5E90410A961E961B5
:10254000DBF80000F16A081AFEF724F916F07DFDA9
:1025500000224346FEF7CCF90CD3DBF80400316BC4
:10256000081AFEF717F916F070FD00224346FEF731
:10257000BFF979D2002129616961A961E96100206F
:102580002071732060856FE0A9F15809B9F1050F3A
:102590000BD228480021C5E904100020A861E86199
:1025A000706F2860572060855EE0032F08D1012BF3
:1025B00006D00021296169612048C5E9061053E071
:1025C000002129616961A961E961772060854BE09B
:1025D00030B9DBF80000F062DBF8040030632171F1
:1025E00017480021C5E90410A961E961DBF8000082
:1025F000F16A081AFEF7CEF816F027FD00224346CE
:10260000FEF776F90CD3DBF80400316B081AFEF7FD
:10261000C1F816F01AFD00224346FEF769F923D2ED
:10262000002129616961A961E9610020207174209C
:10263000608519E000C072407C00002000004EC0A0
:1026400000C072C000004E400040554000C05740DE
:102650000021296169610020A861E8614FF0010A49
:1026600060732073A07360855046BDE8FC9F000036
:102670002DE9F05F04460E464FF00008A568DFF82C
:10268000E4A100275146BAF92C000A7980310123D0
:10269000DFF8D4B101F1800943283CD003DC38B124
:1026A00042280AD10AE044286DD04728F9D19FE09A
:1026B000886FC8674220AAF82C00CFE0032E1DD1F6
:1026C0006A480078012819D0D1E91E01401AFEF7A6
:1026D00061F816F0BAFC0022654BFEF709F911D239
:1026E0000020C9F81000C9F81400C9F81800C9F88A
:1026F0001C00AAF82C704FF00108AFE04320AAF8A4
:102700002C00ABE05B480021C9E90410C9F818109F
:10271000C9F81C10A2E02AB92068C8626068086382
:102720008AF8043054480022C9E90420C9F8182066
:10273000C9F81C200E462068C96A081AFEF72AF854
:1027400016F083FC00225B46FEF7D2F80BD36068DC
:10275000316B081AFEF71EF816F077FC00225B4674
:10276000FEF7C6F87AD20021C9F81010C9F8141083
:10277000C9F81810C9F81C108AF80470F5634420D1
:10278000AAF82C006AE0C86B0C46401BFEF702F862
:1027900016F05BFC0022394BFEF7AAF80FD200209E
:1027A000C9F81000C9F814000021C9F81810C9F8B8
:1027B0001C10A06FE0674220AAF82C004EE0032E08
:1027C0000DD00020C9F81000C9F814000021C9F884
:1027D0001810C9F81C104720AAF82C003EE0002170
:1027E000C9F81010C9F814102548C9E9061035E0D9
:1027F0002AB92068C862606808638AF804301E48F5
:102800000022C9E90420C9F81820C9F81C200E4686
:102810002068C96A081AFDF7BDFF16F016FC0022F1
:102820005B46FEF765F80BD36068316B081AFDF75D
:10283000B1FF16F00AFC00225B46FEF759F80DD2F4
:102840000021C9F81010C9F81410C9F81810C9F8F7
:102850001C108AF804704420AAF82C004046BDE8F9
:10286000F09F000088000020000039407C0000201C
:1028700000F08D4000C0724000C072C000003E40B9
:1028800000004E402DE9F04F8DB000210B91012644
:102890000A910991089107910023026841F2883159
:1028A00054184FF4C87294FBF2F40FFA84F940689C
:1028B000084490FBF2F00FFA80FB91FBF2F000B2BB
:1028C000029091FBF2F000B201900024DFF89CE24C
:1028D000002C02DD4FF0010801E04FF0000800215C
:1028E000DFF88CC2002001EBC10202EB01120CEBFD
:1028F00082052A18977DFA2F08D0927D32B1401CAC
:1029000000B26428F5DB23B1002306E00A9101231D
:10291000F9E7491C09B26429E4DB0A98A0EB040A30
:10292000BAF1030F06DD4FEAEA700AEB90708010EF
:10293000401E00E0002000B206906321002001EB61
:10294000C10202EB01120CEB82073A18957DFA2DB9
:1029500008D0927D32B1401C00B26428F5DB23B16F
:10296000002306E009910123F9E7491E09B2002975
:10297000E4DA0998001B602805DAC11700EB9170B2
:102980008010401C00E0182000B2059000210020BB
:1029900000EBC00202EB00120CEB82020A44957DB0
:1029A000FA2D08D0927D32B1401C00B26428EFDBD2
:1029B00023B1002306E008910123F9E7491C09B27D
:1029C0006429E4DB0898032806DD4FEAEA700AEB85
:1029D00090708010401E00E0002000B2049063213F
:1029E000002000EBC00202EB0015614A02EB8502F9
:1029F0000A44957DFA2D08D0927D32B1401C00B278
:102A00006428EEDB23B1002306E007910123F9E7F8
:102A1000491E09B20029E3DA07985F2801DD182072
:102A200005E00798C11700EB91708010401C00B2C0
:102A300003900021C8F119000C9075E005988142BF
:102A400002D0069881421BD1002001EBC102002573
:102A500002EB011201277244494501D1584507D0C4
:102A6000DDF808C0614505D1DDF804C0604501D13D
:102A7000155400E01754401C00B21928ECDB51E05B
:102A80000020049A904202D0039A904207D101EBB1
:102A9000C10505EB0115754401222A543EE00025CD
:102AA0004FF0640A002202EB8507274497FBFAFCEB
:102AB0000AFB1C7707EBC70C0CEB071C2C4F07EB32
:102AC0008C0C02EB800797FBFAF80AFB1877674437
:102AD000BF7D8FB1521C12B2042AE4DB1EB16D1C03
:102AE0002DB2042DDEDB4EB101EBC10505EB011566
:102AF000754400222A5411E00026EFE74C4501D12D
:102B000058452BD0192C01D1192827D001EBC1052C
:102B100005EB0115754401222A540126401C00B220
:102B20001928AEDB491C09B20C98884286DC641C6B
:102B300024B2042CFFF6CCAE01980BF0FF02C0B219
:102B40000090029809F0FF01C3B2084816F03EF861
:102B500016F0AEFF0B980DB0BDE8F08F01EBC1058C
:102B600005EB0115754400222A54D6E7A868002019
:102B7000E006002010B5012018F02AF9014948614B
:102B800010BD0000000000207FB500241A48CDE9E8
:102B900001040121CA0200912346039417A11B4896
:102BA00018F0ECF9144802210C38CDE901040A02AE
:102BB00000910023039416A1194818F0DFF90E487C
:102BC00003210838CDE901044FF48065009100230A
:102BD0002A46039413A1174818F0D0F90648042197
:102BE000001FCDE90104009100232A46039412A19D
:102BF000154818F0C3F97FBD1000002076546173AA
:102C00006B4D617070696E670000000071A901086A
:102C1000765461736B4465636973696F6E0000007D
:102C2000F5A80108765461736B436F6E74726F6C14
:102C30000000000085A80108765461736B5065722E
:102C400063657074696F6E00E9A9010800B593B0FF
:102C500014221D4906A8FDF7EBFA14221A49143173
:102C600001A8FDF7E5FA04F051FF00282AD1202140
:102C70000BA807F05FF806A90BA805F06FF800286D
:102C800020D1142106A8FDF7ECFA20210BA807F0AB
:102C900051F806AA20210BA804F0E6FE002811D165
:102CA00001AB01AA20210BA809F02AFF142201A9D7
:102CB00006A8FDF7E1FAC0B2002803D104F098FF9E
:102CC0000028FFD113B000BDF4B2010810A41B4EC0
:102CD0004FF46165294630460DF0C6FF294630465F
:102CE0000DF0C4FF294630460DF0C2FF294630469C
:102CF0000DF0C0FF0020124B191F225C1A800A88B9
:102D00005206FCD5401CC0B22928F6D3FEE70000CD
:102D10000D0A456E74657220486172644661756C77
:102D2000745F48616E646C65722C205379737465AE
:102D30006D2048616C742E0D0A000000002C0140CB
:102D4000044400402DE9F04105462C220021414871
:102D500009F068FF404E3F4C21213078943C40F010
:102D600005002070204615F07BFD7070002852D1C0
:102D7000A178C1F3810201F0030025B10223B3EB76
:102D8000911F47D106E063783B2B43D10B0641D41A
:102D90004B063FD5032A3DD0304B2E4D2F4E9B5C2A
:102DA0006B702E4B383303EB82031B5CAB702B4BE9
:102DB000443303EB820350361B5C06EBC2022B70DC
:102DC00032F81000A880C80601D510332B700822F5
:102DD000611CA81D09F01CFF1E49607A85F82B00B4
:102DE0008A39072201F1980009F012FF19490622D9
:102DF000833901F1980009F00BFF002220201826EA
:102E00000121D307A0EB5203E35C06D0F02747EA89
:102E1000131304E00420BDE8F08143F0F003AF1881
:102E2000FB76A6EBD20302F00707E35C01FA07F793
:102E30003B4201D0FF2700E0EF27AB18521C93F86C
:102E40001BC0D2B207EA0C07DF76102AD9D30020C4
:102E5000E1E7000024D900209002002062B30108BD
:102E600070B516460C4605460CF0CAFE08210D4802
:102E70000CF0E4FE10210C480CF0E0FE094807219C
:102E800008300CF0DBFE0848182118380CF0D6FE8C
:102E9000214628460CF0D2FE3046BDE870400CF0CA
:102EA0008DBE00002AD90020B40200200EB51049C2
:102EB00004236A46A1F1080009F0BCFE0C49042372
:102EC0000DF106020831684609F0B4FE08490423F2
:102ED000091D6A46A1F1080009F0ACFE684602230C
:102EE00001AA811C09F0A6FE01A809F0B1FE0EBDE1
:102EF00098D800202DE9F84F04468B460026A0689C
:102F0000642190FBF1F00090DFF800A4002550460A
:102F100001210079FE4BDAF850200AF180091B7874
:102F2000FC4F09F18008B2F5377F7DD024DC40F2F8
:102F3000D62EA2F2D62C724577D015DC40F2D32ED5
:102F4000A2F2D32C724571D007DC0AB3A2F500724D
:102F5000D13A4FD0012A4CD18EE0BCF1010F66D09E
:102F6000BCF1020FF7D107E1BCF1060F41D2DFE857
:102F70000CF040F7F6F5F4F3A2F2DD220B2AF5D2BD
:102F8000DFE802F0F9F8F7F6F5F4F3F2F1F0EF000C
:102F900038B92068C9F82C006068C9F830008AF890
:102FA0000410DD480021C8E90410C8F81810C8F85A
:102FB0001C102068D9F82C10081AFDF7EBFB16F04E
:102FC00044F800223B46FDF793FC0CD36068D9F827
:102FD0003010081AFDF7DEFB16F037F800223B46EA
:102FE000FDF786FCC2D240F2D120CAF850008AF820
:102FF0000450B6E338B92068C9F82C006068C9F8F5
:1030000030008AF80410C4480021C8E90410C8F848
:103010001810C8F81C102068D9F82C10081AFDF7F1
:10302000B9FB16F012F803E0D9E1CAE035E057E049
:103030000022BA4BFDF75CFCDBD20021C8F810106F
:10304000C8F81410C8F81810C8F81C100098FDF73C
:10305000A1FB15F0FAFF0022B14BFDF731FC04D2C1
:1030600040F2D220CAF8500003E040F2DD20CAF856
:1030700050008AF8045074E30021C8F81010C8F812
:103080001410C8F81810C8F81C106068C9F824009B
:1030900040F2D320CAF8500063E30021C8F81010B2
:1030A000C8F814109F48C8E9061000984B2808DD9E
:1030B000C8F81810C8F81C1040F2D520CAF8500003
:1030C0004FE3BBF1030F01D1012B92D10021C8F8CE
:1030D0001810C8F81C104FF43570CAF8500040E3BF
:1030E00038B92068C9F82C006068C9F830008AF83F
:1030F000041089480021C8E90410C8F81810C8F85D
:103100001C102068D9F82C10081AFDF743FB15F0A5
:103110009CFF00223B46FDF7EBFB0CD36068D9F81F
:103120003010081AFDF736FB15F08FFF00223B46E2
:10313000FDF7DEFB9FD20021C8F81010C8F814106C
:103140000020C8F81800C8F81C008AF8045040F2A3
:10315000D320CAF8500004E305E1C2E0BDE089E0F5
:103160004DE0FBE2AEE281E27CE249E20DE2E0E129
:10317000BBE17EE148E136E16B480021C8E904107B
:103180000020C8F81800C8F81C00BBF1030F13D1C9
:10319000012B11D06068D9F82410081AFDF7FAFA4B
:1031A00015F053FF0022614BFDF7A2FB88D240F2DD
:1031B000D620CAF85000D4E240F2D620CAF8500017
:1031C000CFE20021C8F81010C8F814105548C8E91B
:1031D00006100098552808DDC8F81810C8F81C100B
:1031E0004FF43670CAF85000BBE2BBF1030F01D1B7
:1031F000012BB0D140F2D720CAF85000B1E238B963
:103200002068C9F82C006068C9F830008AF80410FA
:1032100041480021C8E90410C8F81810C8F81C106B
:103220002068D9F82C10081AFDF7B4FA15F00DFF34
:1032300000223B46FDF75CFB0CD36068D9F83010E8
:10324000081AFDF7A7FA15F000FF00223B46FDF72C
:103250004FFBB0D20021C8F81010C8F81410C8F8FD
:103260001810C8F81C108AF8045040F2D620CAF88A
:10327000500076E22C480021C8E90410C8F8181064
:10328000C8F81C10BBF1030F1DD1012B1BD06068C7
:10329000D9F82410081AFDF77DFA15F0D6FE0022A1
:1032A000224BFDF725FB86D20021C8F81010C8F884
:1032B00014100020C8F81800C8F81C0040F2DA20EA
:1032C000CAF850004DE20021C8F81010C8F81410D8
:1032D00040F2D920CAF8500043E2CAF85050022602
:1032E0003FE20020C8F81000C8F814000D49C8E9F2
:1032F00006010098FDF74EFA15F0A7FE00220C4BD0
:10330000FDF7F6FA23D2002114E000008800002027
:103310007C0000200000084000C072C00000244073
:103320000080564000004E4000C0724000006440E3
:1033300000E06540C8F81010C8F81410C8F818105C
:10334000C8F81C104FF43770CAF8500009E2BBF1FE
:10335000030F03D1F948007801288AD140F2DB201D
:10336000CAF85000FDE138B92068C9F82C0060683F
:10337000C9F830008AF80410F1480021C8E90410A7
:10338000C8F81810C8F81C102068D9F82C10081AB2
:10339000FDF700FA15F059FE00223B46FDF7A8FAAA
:1033A0000CD36068D9F83010081AFDF7F3F915F05E
:1033B0004CFE00223B46FDF79BFA8DD20020C8F858
:1033C0001000C8F814000021C8F81810C8F81C1024
:1033D0008AF8045040F2DA20CAF85000C1E1CAF875
:1033E00050500126BDE10021C8F81010C8F8141093
:1033F000C8F81810C8F81C106068C9F8240040F21A
:10340000DE20CAF85000ACE10021C8F81010C8F85E
:103410001410CC48C8E906100098FDF7BBF915F068
:1034200014FE0022C84BFDF74BFA0DD20021C8F85C
:103430001010C8F81410C8F81810C8F81C104FF471
:103440003870CAF850008CE1BBF1030F03D1BB48C0
:103450000078012886D10021C8F81010C8F814108F
:10346000C8F81810C8F81C1040F2DF20CAF8500045
:1034700077E138B92068C9F82C006068C9F83000D5
:103480008AF80410AE480021C8E90410C8F81810E2
:10349000C8F81C102068D9F82C10081AFDF77AF922
:1034A00015F0D3FD00223B46FDF722FA0CD36068ED
:1034B000D9F83010081AFDF76DF915F0C6FD002295
:1034C0003B46FDF715FA89D20021C8F81010C8F85C
:1034D00014100020C8F81800C8F81C008AF804501E
:1034E00040F2DE20CAF850003BE198480021C8E9CC
:1034F0000410C8F81810C8F81C10BBF1030F13D142
:10350000012B11D06068D9F82410081AFDF742F990
:1035100015F09BFD00228E4BFDF7EAF993D240F2A5
:10352000E120CAF850001CE140F2E120CAF8500046
:1035300017E10021C8F81010C8F814108148C8E934
:1035400006100098FDF726F915F07FFD0022814B4B
:10355000FDF7B6F90DD20021C8F81010C8F8141004
:10356000C8F81810C8F81C1040F2E320CAF8500040
:10357000F7E0BBF1030F03D170480078012803D1B5
:1035800040F2E220CAF85000EBE038B92068C9F8F0
:103590002C006068C9F830008AF8041068480021DF
:1035A000C8E90410C8F81810C8F81C102068D9F829
:1035B0002C10081AFDF7EEF815F047FD00223B46E7
:1035C000FDF796F90CD36068D9F83010081AFDF7AA
:1035D000E1F815F03AFD00223B46FDF789F90ED2DD
:1035E0000021C8F81010C8F81410C8F81810C8F84E
:1035F0001C108AF8045040F2E120CAF85000B0E0F4
:1036000052480021C8E90410C8F81810C8F81C1066
:10361000BBF1030F1CD1012B1AD06068D9F824101C
:10362000081AFDF7B7F815F010FD0022484BFDF71A
:103630005FF90CD20021C8F81010C8F81410C8F8AF
:103640001810C8F81C1040F2E520CAF8500088E0B5
:103650000021C8F81010C8F814104FF43970CAF8D7
:1036600050007EE0CAF8505003267AE00021C8F8E6
:103670001010C8F814103348C8E906100098FDF778
:1036800089F815F0E2FC0022334BFDF719F90DD251
:103690000021C8F81010C8F81410C8F81810C8F89D
:1036A0001C1040F2E720CAF850005AE0BBF1030FAB
:1036B00003D122480078012853D140F2E620CAF80D
:1036C00050004EE038B92068C9F82C006068C9F88D
:1036D00030008AF804101A480021C8E90410C8F81C
:1036E0001810C8F81C102068D9F82C10081AFDF71B
:1036F00051F815F0AAFC00223B46FDF7F9F80CD36F
:103700006068D9F83010081AFDF744F815F09DFCF0
:1037100000223B46FDF7ECF823D20021C8F8101038
:10372000C8F81410C8F81810C8F81C108AF804500B
:1037300040F2E520CAF8500013E000007C000020B1
:1037400000C072C000004EC000405A4000C072402D
:103750000000644000C0574000001440CAF85050B8
:1037600001263046BDE8F88F2DE9F84F04468B4618
:103770000026A068642190FBF1F00090DFF800A41F
:103780000025504601210079FE4BDAF850200AF15D
:1037900080081B78FC4F08F18009B2F5B67F7DD018
:1037A00022DCB2F5B37F7AD015DC40F2631EA2F2C0
:1037B000631C724574D007DC12B3A2F58072613AC3
:1037C00050D0012A4DD18FE0BCF1010F69D0BCF17E
:1037D000020FF7D109E1A2F26712052A41D2DFE810
:1037E00002F0F8F7F6F5F400A2F26D120B2AF5D20A
:1037F000DFE802F0FAF9F8F7F6F5F4F3F2F1F00089
:1038000038B92068C8F82C006068C8F830008AF819
:103810000410DE480021C9E90410C9F81810C9F8DD
:103820001C102068D8F82C10081AFCF7B3FF15F00C
:103830000CFC00223B46FDF75BF80CD36068D8F81F
:103840003010081AFCF7A6FF15F0FFFB00223B46DC
:10385000FDF74EF8C2D240F26110CAF850008AF863
:103860000450B6E338B92068C8F82C006068C8F87E
:1038700030008AF80410C5480021C9E90410C9F8CD
:103880001810C9F81C102068D8F82C10081AFCF77A
:1038900081FF15F0DAFB0022BD4B03E0D8E1C9E05F
:1038A00033E056E0FDF724F8DBD20021C9F8101010
:1038B000C9F81410C9F81810C9F81C100098FCF7C2
:1038C00069FF15F0C2FB0022B24BFCF7F9FF04D2EE
:1038D0004FF4B170CAF8500003E040F26D10CAF81E
:1038E00050008AF8045074E30021C9F81010C9F898
:1038F0001410C9F81810C9F81C106068C8F8240022
:1039000040F26310CAF8500063E30021C9F81010B8
:10391000C9F81410A048C9E90610009810F14B0F1F
:1039200008DAC9F81810C9F81C1040F26510CAF876
:1039300050004EE3BBF1030F01D1012B91D10021C7
:10394000C9F81810C9F81C104FF4B270CAF850002A
:103950003FE338B92068C8F82C006068C8F8300028
:103960008AF8041089490020C9E904010021C9F836
:103970001810C9F81C102068D8F82C10081AFCF789
:1039800009FF15F062FB00223B46FCF7B1FF0CD3A8
:103990006068D8F83010081AFCF7FCFE15F055FBEB
:1039A00000223B46FCF7A4FF9DD20021C9F810106D
:1039B000C9F81410C9F81810C9F81C108AF8045076
:1039C00040F26310CAF8500003E306E1C3E0BEE032
:1039D0008AE04EE0FAE2ACE27DE278E245E208E21B
:1039E000DFE1BAE17EE148E136E16C480021C9E956
:1039F00004100020C9F81800C9F81C00BBF1030F1F
:103A000013D1012B11D06068D8F82410081AFCF7E4
:103A1000C1FE15F01AFB0022614BFCF769FF88D24A
:103A20004FF4B370CAF85000D3E24FF4B370CAF841
:103A30005000CEE20021C9F81010C9F81410564801
:103A4000C9E90610009810F1520F08DAC9F81810E9
:103A5000C9F81C104FF4B470CAF85000B9E2BBF1B9
:103A6000030F01D1012BAFD140F26710CAF850000B
:103A7000AFE238B92068C8F82C006068C8F8300098
:103A80008AF8041041480021C9E90410C9F8181047
:103A9000C9F81C102068D8F82C10081AFCF77AFE18
:103AA00015F0D3FA00223B46FCF722FF0CD36068E6
:103AB000D8F83010081AFCF76DFE15F0C6FA00228F
:103AC0003B46FCF715FFAFD20021C9F81010C9F82A
:103AD0001410C9F81810C9F81C108AF804504FF4D3
:103AE000B370CAF8500074E22C480021C9E90410F0
:103AF000C9F81810C9F81C10BBF1030F1DD1012B18
:103B00001BD06068D8F82410081AFCF743FE15F0A3
:103B10009CFA0022224BFCF7EBFE85D20020C9F86C
:103B20001000C9F814000021C9F81810C9F81C10B9
:103B30004FF4B570CAF850004BE20021C9F81010DC
:103B4000C9F8141040F26910CAF8500041E2CAF8EE
:103B5000505002263DE20020C9F81000C9F81400B8
:103B60000D480021C9E906100098FCF713FE15F076
:103B70006CFA00220B4BFCF7BBFE22D2002113E0B3
:103B8000880000207C0000200000084000C072C0B7
:103B9000000024400080564000004EC000C072402B
:103BA0000000644000A06540C9F81010C9F8141066
:103BB000C9F81810C9F81C104FF4B670CAF85000B4
:103BC00007E2BBF1030F03D1F848007801288AD13E
:103BD00040F26B10CAF85000FBE138B92068C8F811
:103BE0002C006068C8F830008AF80410F048002102
:103BF000C9E90410C9F81810C9F81C102068D8F8D1
:103C00002C10081AFCF7C6FD15F01FFA00223B46DF
:103C1000FCF76EFE0CD36068D8F83010081AFCF779
:103C2000B9FD15F012FA00223B46FCF761FE8DD279
:103C30000021C9F81010C9F81410C9F81810C9F8F3
:103C40001C108AF804504FF4B570CAF85000C0E157
:103C5000CAF850500126BCE10021C9F81010C9F87B
:103C60001410C9F81810C9F81C106068C8F82400AE
:103C70004FF4B770CAF85000ABE10021C9F810103A
:103C8000C9F81410CB48C9E906100098FCF782FD6A
:103C900015F0DBF90022C84BFCF712FE0DD2002113
:103CA000C9F81010C9F81410C9F81810C9F81C1078
:103CB0004FF4B870CAF850008BE1BBF1030F03D189
:103CC000BA480078012887D10021C9F81010C9F836
:103CD0001410C9F81810C9F81C1040F26F10CAF877
:103CE000500076E138B92068C8F82C006068C8F840
:103CF00030008AF80410AE480021C9E90410C9F860
:103D00001810C9F81C102068D8F82C10081AFCF7F5
:103D100041FD15F09AF900223B46FCF7E9FD0CD372
:103D20006068D8F83010081AFCF734FD15F08DF9EA
:103D300000223B46FCF7DCFD89D20021C9F81010B7
:103D4000C9F81410C9F81810C9F81C108AF80450E2
:103D50004FF4B770CAF850003BE198480021C9E918
:103D60000410C9F81810C9F81C10BBF1030F13D1C7
:103D7000012B11D06068D8F82410081AFCF70AFD4E
:103D800015F063F900228E4BFCF7B2FD03D240F22E
:103D90007110CAF850001CE140F27110CAF85000CE
:103DA00017E10021C9F81010C9F814108148C9E9B9
:103DB00006100098FCF7EEFC15F047F90022814B45
:103DC000FCF77EFD0DD20021C9F81010C9F81410BF
:103DD000C9F81810C9F81C1040F27310CAF8500046
:103DE000F7E0BBF1030F03D04FF4B970CAF85000ED
:103DF000EFE038B92068C8F82C006068C8F83000D7
:103E00008AF804106A480021C9E90410C9F818109A
:103E1000C9F81C102068D8F82C10081AFCF7BAFC56
:103E200015F013F900223B46FCF762FD0CD36068E5
:103E3000D8F83010081AFCF7ADFC15F006F900228E
:103E40003B46FCF755FD0FD20020C9F81000C9F819
:103E500014000021C9F81810C9F81C108AF8045081
:103E600040F27110CAF85000B3E054480021C9E98B
:103E70000410C9F81810C9F81C10BBF1030F1CD1AD
:103E8000012B1AD06068D8F82410081AFCF782FCBD
:103E900015F0DBF800224A4BFCF72AFD0CD200217A
:103EA000C9F81010C9F81410C9F81810C9F81C1076
:103EB00040F27510CAF850008BE00021C9F81010CC
:103EC000C9F814104FF4BA70CAF8500081E0CAF86B
:103ED000505003267DE00020C9F81000C9F81400F6
:103EE00034480021C9E906100098FCF753FC15F08E
:103EF000ACF80022344BFCF7E3FC0ED20021C9F8E9
:103F00001010C9F814100020C9F81800C9F81C00D6
:103F10004FF4B670CAF850005BE0BBF1030F03D159
:103F200022480078012854D14FF4BB70CAF85000E1
:103F30004FE038B92068C8F82C006068C8F8300035
:103F40008AF804101A480021C9E904100020C9F8B1
:103F50001800C9F81C002068D8F82C10081AFCF7C3
:103F600019FC15F072F800223B46FCF7C1FC0CD39B
:103F70006068D8F83010081AFCF70CFC15F065F8EA
:103F800000223B46FCF7B4FC23D20021C9F81010F4
:103F9000C9F81410C9F81810C9F81C108AF8045090
:103FA00040F27510CAF8500013E000007C000020B9
:103FB00000C072C000004E4000405A4000C0724035
:103FC000000064400040574000002440CAF85050B0
:103FD00002263046BDE8F88F2DE9F84F04468A46A0
:103FE00000200090A068642190FBF1F9FA4DFB4994
:103FF0002846EA6C40F2A62C00790978DFF8E0B395
:10400000A2F2A6234FF0010805F1800705F580769E
:1040100062457DD038DC40F29A2CA2F29A236245A8
:1040200077D021DC40F2952CA2F29523624571D025
:1040300011DC40F29223A2F292219A426BD005DC6D
:104040002AB3A2F50072913A66D169E001297CD0C9
:104050000229F9D1DCE0012B78D0022B77D0032B99
:1040600076D0042BF0D1F4E30C2B55D2DFE813F01B
:1040700054007204AF0454005400F0044705E502F4
:104080000A03D3013D033402142BEED200E015E005
:10409000DFE813F042007A02A0023A052B01570133
:1040A000870145055E059005BB05D7051E0645063B
:1040B0004A067206A20699030004050528B920687D
:1040C000F8626068386385F80480C6480021C6E954
:1040D00004100020B061F0612068F96A081AFCF74A
:1040E00059FB14F0B2FF00225B46FCF701FC0BD336
:1040F0006068396B081AFCF74DFB14F0A6FF00222C
:104100005B46FCF7F5FBB0D240F29120E86404E096
:1041100007E2EFE3ACE048E002E200202871FFE1B3
:10412000DFF8C4A228B92068F8626068386385F8AF
:104130000480AC480021C6E90410B161F161206837
:10414000F96A081AFCF726FB03E037E09AE0D0E2B0
:104150000FE314F07AFF00225346FCF7C9FB0BD3A0
:104160006068396B081AFCF715FB14F06EFF00222B
:104170005346FCF7BDFBD2D2002131617161B161C0
:10418000F1614846FCF706FB14F05FFF0022974BF5
:10419000FCF7AEFB03D240F29220E86402E040F26A
:1041A000A920E86400202871B9E70020306170611F
:1041B000B061F06140F29320E864B0E70021316122
:1041C00071618B490020C6E906014846FCF7E2FA16
:1041D00014F03BFF0022874BFCF772FB08D2002152
:1041E00031617161B161F16140F29520E86496E757
:1041F000BAF1030F03D17948007801288FD100214B
:1042000031617161B161F1614FF42570E86486E755
:1042100028B92068F8626068386385F804807148BE
:104220000021C6E90410B161F1612068F96A081A39
:10423000FCF7B0FA14F009FF00225B46FCF758FBCC
:104240000BD36068396B081AFCF7A4FA14F0FDFE72
:1042500000225B46FCF74CFBA6D200213161716164
:10426000B161F1610020287140F29320E86456E7C3
:104270000020B863606878622068386240F2962057
:10428000E8644CE72068F861B86B401CB8635A4991
:104290000022C6E904210021B161F161574E0128D5
:1042A0001FDD2068396A081AFCF774FA14F0CDFE95
:1042B00000223346FCF704FB13D26068796A081ABF
:1042C000FCF768FA14F0C1FE00223346FCF7F8FA56
:1042D00007D20020B8636068786240F2AA20E864E0
:1042E0001DE740F2A320E86419E700203061706107
:1042F0003F480021C6E906104846FCF74BFA14F087
:10430000A4FE0022394BFCF7DBFA09D20020306111
:1043100070610021B161F1614FF42B70E864FEE639
:10432000BAF1030F03D12D48007801289FD1002056
:10433000306170610021B161F16140F2AB20E8644D
:10434000EDE628B92068F8626068386385F8048073
:1043500024480021C6E90410B161F1612068F96ABE
:10436000081AFCF717FA14F070FE00225B46FCF7FF
:10437000BFFA0BD36068396B081AFCF70BFA14F01C
:1043800064FE00225B46FCF7B3FAA9D2002131613A
:104390007161B161F1610020287140F2AA20E864E6
:1043A000BDE615480022C6E90420B261F261BAF107
:1043B000030F27D1012925D06068796A081AFCF714
:1043C000E9F914F042FE00220D4BFCF791FA87D276
:1043D00040F29F20E864A2E6880000207C000020D4
:1043E0000000084000C072C0000039400080564004
:1043F00000004EC000C0624000C072400000344067
:10440000000054400021316171614FF45E706865B5
:104410000020E86483E6BAF1000F0FD02068F96944
:10442000081AFCF7B7F914F010FE0022FE4BFCF757
:104430005FFA07D240F29A20E86471E040F29720D8
:10444000E8646DE06068796A081AFCF7A3F914F073
:10445000FCFD0022F54BFCF74BFA03D240F2A12001
:10446000E8645DE0BAF1020F14D0BAF1010F11D087
:10447000EF48007801280DD06068796A401C8842B6
:104480000EDA002131617161B161F16140F2A52064
:10449000E86445E06068786240F2AA20E8643FE0A2
:1044A0002068FCF777F914F0D0FD0022E14BFCF70F
:1044B0001FFA03D24FF42870E86431E04846FCF755
:1044C00069F914F0C2FD0022DB4BFCF7F9F9A1D227
:1044D00040F2A720E86423E0BAF1030F16D10129C6
:1044E00014D04846FCF756F914F0AFFD0022D34B28
:1044F000FCF7FEF90ED2002030617061B061F0610E
:1045000085F806804FF42870E86409E040F2A620A0
:10451000E86405E0002030617061C949C6E9060120
:1045200013E228B92068F8626068386385F804806F
:10453000C4480021C6E904100020B061F061206881
:10454000F96A081AFCF726F914F07FFD00225B4691
:10455000FCF7CEF90BD36068396B081AFCF71AF92F
:1045600014F073FD00225B46FCF7C2F991D20021E2
:1045700031617161B161F16185F8068040F2A52079
:10458000E86400202871E0E1BAF1030F17D1012996
:1045900015D04846FCF7FEF814F057FD0022AA4B50
:1045A000FCF78EF90FD20020306170610021B161FB
:1045B000F16185F806804FF42870E864C5E14FF496
:1045C0002A70E864C1E10021316171619C48C6E94B
:1045D0000610BAE128B92068F8626068386385F887
:1045E000048098480021C6E904100020B061F06101
:1045F0002068F96A081AFCF7CDF814F026FD0022AD
:104600005B46FCF775F90BD36068396B081AFCF749
:10461000C1F814F01AFD00225B46FCF769F9B2D22A
:10462000002131617161B161F16185F8068040F26C
:10463000A720E86400202871D2E3BAF1030F16D155
:10464000012914D04846FCF7A5F814F0FEFC00221E
:104650007D4BFCF735F90ED2002131617161B161FA
:10466000F16185F806804FF42970E864B8E340F200
:10467000A220E864B4E30021316171617048C6E9A9
:104680000610ADE328B92068F8626068386385F8E1
:1046900004806C480021C6E90410B161F161206812
:1046A000F96A081AFCF776F814F0CFFC00225B4692
:1046B000FCF71EF90BD36068396B081AFCF76AF82F
:1046C00014F0C3FC00225B46FCF712F9B4D20020C0
:1046D000306170610021B161F16185F8068040F2BE
:1046E000A120E864002028717AE34FF42870E86480
:1046F00076E328B92068F8626068386385F804803A
:1047000050480021C6E90410B161F1612068F96ADE
:10471000081AFCF73FF814F098FC00225B46FCF7FF
:10472000E7F80BD36068396B081AFCF733F814F01C
:104730008CFC00225B46FCF7DBF897D2002131614C
:104740007161B161F16100202871C7F83C90484661
:10475000FCF720F814F079FC00223C4BFCF7C8F879
:1047600003D24FF42670E8643AE340F29920E864FB
:1047700036E3BAF1030F15D1012913D04846FCF7EF
:1047800009F814F062FC0022304BFCF799F812D2C1
:104790000020306170610021B161F16140F296202A
:1047A000E8641DE3002131617161B161F16140F2A2
:1047B000B720E86414E300203061706120480021D4
:1047C000C6E906100CE328B92068F862606838630F
:1047D00085F804801B480021C6E904100020B06160
:1047E000F0612068F96A081AFBF7D4FF14F02DFC79
:1047F00000225B46FCF77CF80BD36068396B081A23
:10480000FBF7C8FF14F021FC00225B46FCF770F8B0
:10481000AAD20020306170610021B161F16128717C
:104820004FF42670E864DBE200804A4000006440F8
:104830007C0000200088B3400080564000E06540C6
:1048400000004EC000C072C00000144000C06240B2
:10485000FFE7BAF1030F11D101290FD0F86BA9EBD3
:104860000000FBF797FF14F0F0FB0022FE4BFCF773
:104870003FF807D240F29620E864B1E24FF42E7080
:10488000E864ADE2002030617061F8480021C6E9BB
:104890000610A5E228B92068F8626068386385F8D8
:1048A0000480F3480021C6E90410B161F161206879
:1048B000F96A081AFBF76EFF14F0C7FB00225B468B
:1048C000FCF716F80BD36068396B081AFBF762FF28
:1048D00014F0BBFB00225B46FCF70AF8A3D20020D1
:1048E000306170610021B161F161287140F299205D
:1048F000E86475E2FFE74846FBF74CFF8B46044649
:1049000014F0A3FBDFF86CA300225346FBF7F0FF83
:1049100002D3B9F1000F19DD002030617061002170
:10492000B161F161B9F1000F0ADD2046594614F07A
:104930008CFB00225346FBF7DBFF01D285F8048095
:10494000C7F83C9040F29B20E86449E240F2962090
:10495000E86445E2012814D0F86BA9EB0000FBF7EE
:1049600019FF14F072FB0022C34BFBF7C1FF1DD2ED
:10497000002131617161B161F16140F29620E8641A
:104980002EE24846FBF706FF14F05FFB0022B94B0E
:10499000FBF796FF0AD20020287100213161716176
:1049A000B161F16140F29620E86419E2BAF1030FB7
:1049B00003D1B2480078012802D14FF42770E8648F
:1049C000002131617161AE48C6E9061008E228B9DC
:1049D0002068F8626068386385F80480A448002184
:1049E000C6E904100020B061F0612068F96A081A75
:1049F000FBF7D0FE14F029FB00225B46FBF778FFA3
:104A00000BD36068396B081AFBF7C4FE14F01DFB6A
:104A100000225B46FBF76CFF97D200213161716188
:104A2000B161F16100202871C7F83C904846FBF75E
:104A3000B1FE14F00AFB00228E4BFBF759FF03D2A4
:104A40004FF42670E864CBE140F29920E864C7E1B6
:104A5000BAF1030F16D1012914D04846FBF79AFE8C
:104A600014F0F3FA0022874BFBF72AFF10D2002143
:104A700031617161B161F16185F806804FF429708F
:104A8000E864ADE140F2B920E86485F80680A7E16A
:104A90000021316171617548C6E90610A0E128B9AD
:104AA0002068F8626068386385F8048070480021E7
:104AB000C6E90410B161F1612068F96A081AFBF7D0
:104AC00069FE14F0C2FA00225B46FBF711FF0BD31C
:104AD0006068396B081AFBF75DFE14F0B6FA002225
:104AE0005B46FBF705FFAED2002131617161B16118
:104AF000F16140F29F20E8640020287170E10020FD
:104B0000E864012000906BE1002131617161B161C5
:104B1000F1616068786240F2AD20E86460E10022F3
:104B2000326172615648C6E90620B9F14B0F06DDC5
:104B30000021B161F16140F2AF20E86450E1BAF1C7
:104B4000030F01D1012902D140F2AE20E86447E110
:104B5000DFF8349128B92068F8626068386385F816
:104B6000048043480021C6E90410B161F161206866
:104B7000F96A081AFBF70EFE14F067FA00224B469A
:104B8000FBF7B6FE0BD36068396B081AFBF702FE21
:104B900014F05BFA00224B46FBF7AAFE09D2002173
:104BA00031617161B161F1610020287140F2AD2085
:104BB000E86415E135480021C6E90410B161F161EE
:104BC000BAF1020F1AD0BAF1000F17D0BAF1010FE3
:104BD00014D06068796A081AFBF7DCFD14F035FA26
:104BE00000222B4BFBF784FE07D20021316171615B
:104BF000B161F1614FF42C70E864F1E000213161A2
:104C000071614FF42C70E864EAE000223261726155
:104C10001B48C6E90620B9F1550F06DD0021B16138
:104C2000F16140F2B220E864DAE0BAF1030F01D199
:104C3000012905D10021B161F16140F2B120E864A0
:104C4000CEE028B92068F8626068386385F804808F
:104C500007480021C6E90410B161F1612068F96AD2
:104C6000081AFBF797FD15E000002E4000004EC02B
:104C700000C072C000C0624000003E407C000020C6
:104C800000004E40000014400000104000C0724080
:104C900000805A4014F0D9F900225B46FBF728FE49
:104CA0000BD36068396B081AFBF774FD14F0CDF96B
:104CB00000225B46FBF71CFE09D2002131617161C5
:104CC000B161F161002028714FF42C70E86487E035
:104CD00045480022C6E90420B261F261BAF1030F2F
:104CE00016D1012914D06068796A081AFBF752FDC1
:104CF00014F0ABF900223D4BFBF7FAFD70D2002116
:104D000031617161B161F1614FF42D70E86467E068
:104D100000213161716140F2B320E86460E000205D
:104D2000E864022000905BE000213161716130494C
:104D30000020C6E906014846FBF72CFD14F085F972
:104D400000222C4BFBF7D4FD09D2002030617061AA
:104D50000021B161F16140F2B620E86440E0BAF1AF
:104D6000030F3DD00021316171610020B061F0611D
:104D700040F2B520E86433E028B92068F862606842
:104D8000386385F804801C480021C6E90410B1612D
:104D9000F1612068F96A081AFBF7FCFC14F055F978
:104DA00000225B46FBF7A4FD0BD36068396B081A41
:104DB000FBF7F0FC14F049F900225B46FBF798FD85
:104DC0000ED2002131617161B161F1610020287161
:104DD0004FF42D70E86403E00020E86401200090A7
:104DE0000098BDE8F88F000000C0724000006440E9
:104DF00000004E4000E0654000C072C02DE9F84F51
:104E000004460F4600200090A068642190FBF1F852
:104E1000F74DF8492846EA6C00790978DFF8D8B3ED
:104E20004FF0010905F1800A05F58076B2F5A17F02
:104E300076D02CDC40F2391CA2F23913624570D0D6
:104E400018DCB2F59A7F6DD009DC2AB3A2F5807226
:104E5000313A6AD0012A67D0022A60D1A8E0A2F5CF
:104E60008072353A7ED0012A7DD0022A7CD0032A76
:104E7000F3D1ECE2092B52D2DFE813F05100990391
:104E8000D2030E0452047804BC04E2044602A2F2E7
:104E90004312122AEFD200E013E0DFE812F0CA0159
:104EA0008F02D6042F0157018C01E30407053C054E
:104EB00064057F05B305DA05F70521065506FF02EF
:104EC000540338B92068CAF82C006068CAF830006A
:104ED00085F80490C9480021C6E90410B161F16168
:104EE0002068DAF82C10081AFBF754FC14F0ADF81F
:104EF00000225B46FBF7FCFC0CD36068DAF830104C
:104F0000081AFBF747FC14F0A0F800225B46FBF7F9
:104F1000EFFCB0D240F23110E864002028710BE2BF
:104F200017E2F0E26DE000E039E038B92068CAF835
:104F30002C006068CAF8300085F80490AF48002162
:104F4000C6E904100020B061F0612068DAF82C1086
:104F5000081AFBF71FFC14F078F80022A84BFBF7A7
:104F6000C7FC02E083E08FE02CE2D8D2002131615F
:104F70007161B161F1614046FBF70CFC14F065F81A
:104F80000022A04BFBF79CFC03D24FF49970E8641D
:104F900002E040F24510E86400202871BFE70021DC
:104FA00031617161B161F16140F23310E864B6E7DB
:104FB0000021316171619448C6E906104046FBF753
:104FC000E9FB14F042F80022904BFBF791FC09D268
:104FD0000020306170610021B161F16140F2351053
:104FE000E8649CE7032F03D182480078012896D11A
:104FF000002131617161B161F1614FF49A70E8642F
:105000008DE738B92068CAF82C006068CAF830000B
:1050100085F8049079480021C6E904100020B061A9
:10502000F0612068DAF82C10081AFBF7B3FB14F0D3
:105030000CF8774F00223B46FBF75AFC0CD3606814
:10504000DAF83010081AFBF7A5FB13F0FEFF002278
:105050003B46FBF74DFCA1D200213161716100207C
:10506000B061F061287140F23310E86457E7002026
:10507000CAF838006068CAF824002068CAF820001E
:105080004FF49B70E8644AE72068CAF81C00DAF81D
:105090003800401CCAF838005E4A0021C6E90412F4
:1050A0000022B261F2615C4E012823DD2068DAF84B
:1050B0002010081AFBF76EFB13F0C7FF00223346DF
:1050C000FBF7FEFB16D26068DAF82410081AFBF72B
:1050D00061FB13F0BAFF00223346FBF7F1FB09D264
:1050E0000020CAF838006068CAF824004FF4A370A2
:1050F000E86414E740F24310E86410E700203061F0
:1051000070614149C6E906014046FBF743FB13F0D5
:105110009CFF00223B4BFBF7EBFB08D200213161E7
:105120007161B161F1614FF4A470E864F7E6032F97
:1051300003D130480078012898D100213161716194
:10514000B161F16140F24710E864E8E638B92068DF
:10515000CAF82C006068CAF8300085F80490274926
:105160000020C6E904010021B161F1612068DAF88C
:105170002C10081AFBF70EFB13F067FF00225B46AA
:10518000FBF7B6FB0CD36068DAF83010081AFBF7AF
:1051900001FB13F05AFF00225B46FBF7A9FBA8D2E4
:1051A000002131617161B161F161002028714FF41A
:1051B000A370E864C0E017480022C6E9042000207C
:1051C000B061F061032F2BD1012929D06068DAF892
:1051D0002410081AFBF7DEFA13F037FF00220F4BFA
:1051E000FBF786FB85D240F23F10E864A4E00000A4
:1051F000880000207C0000200000084000C072C031
:10520000000039400080564000004EC000003E4083
:105210000000104000C072400000344000005440C4
:1052200000213161716140F2372068640020E86438
:1052300082E087B12068DAF81C10081AFBF7AAFA96
:1052400013F003FF0022FE4BFBF752FB07D24FF493
:105250009D70E86470E040F23710E8646CE06068CC
:10526000DAF82410081AFBF795FA13F0EEFE002284
:10527000F44BFBF73DFB03D240F24110E8645BE0E6
:10528000022F16D0012F14D0EF480078012810D03B
:105290006068DAF82410401E884211DD0021316177
:1052A0007161B161F16185F807904FF4A270E86413
:1052B00042E06068CAF824004FF4A370E8643BE061
:1052C0002068FBF767FA13F0C0FE0022DF4BFBF704
:1052D0000FFB03D24FF4A070E8642DE04046FBF7CB
:1052E00059FA13F0B2FE0022D94BFBF701FB03D2AF
:1052F0004FF4A070E8641FE0D6490020C6E904011D
:105300000021B161F16117E0032F16D1012914D0FA
:105310004046FBF73FFA13F098FE0022CE4BFBF716
:10532000E7FA0ED2002131617161B161F16185F856
:1053300006904FF4A270E86407E24FF4A170E864AD
:1053400003E2002030617061C4480021C6E9061004
:10535000FEE338B92068CAF82C006068CAF830004B
:1053600085F80490BE480021C6E90410B161F161DE
:105370002068DAF82C10081AFBF70CFA13F065FE17
:10538000B84F00223B46FBF7B3FA0CD36068DAF85B
:105390003010081AFBF7FEF913F057FE00223B46C7
:1053A000FBF7A6FA84D2002131617161B161F1612C
:1053B00040F24110E86400202871C9E34FF4A07066
:1053C000E864C5E338B92068CAF82C006068CAF8F8
:1053D000300085F80490A2490020C6E904010021AC
:1053E000B161F1612068DAF82C10081AFBF7D2F9E4
:1053F00013F02BFE00225B46FBF77AFA0CD36168B0
:10540000DAF83000401AFBF7C5F913F01EFE00224F
:105410005B46FBF76DFA8FD2002131617161B1619A
:10542000F161002028714046FBF7B4F913F00DFE3E
:1054300000228D4BFBF744FA03D24FF49C70E864D2
:1054400086E3CAF83C8040F23910E86480E3032F19
:1054500014D1012912D04046FBF79CF913F0F5FD59
:105460000022814BFBF744FA11D2002131617161B6
:10547000B161F1614FF49B70E86469E3002131612F
:105480007161B161F16140F25310E86460E30021A1
:10549000316171617148C6E9061059E338B9206875
:1054A000CAF82C006068CAF8300085F804906C498E
:1054B0000020C6E904010021B161F1612068DAF839
:1054C0002C10081AFBF766F913F0BFFD00225B46AB
:1054D000FBF70EFA0CD36068DAF83010081AFBF705
:1054E00059F913F0B2FD00225B46FBF701FAA7D28F
:1054F000002131617161B161F1614FF49C70E86428
:105500000020287124E3032F12D1012910D0DAF8EA
:105510003C00A8EB0000FBF73DF913F096FD0022DC
:10552000514BFBF7E5F907D24FF49B70E8640FE3AA
:105530004FF4AA70E8640BE30021316171614748C0
:10554000C6E9061004E338B92068CAF82C00606880
:10555000CAF8300085F8049041480021C6E90410DB
:10556000B161F1612068DAF82C10081AFBF712F922
:1055700013F06BFD00225B46FBF7BAF90CD36068B1
:10558000DAF83010081AFBF705F913F05EFD002277
:105590005B46FBF7ADF9B5D2002131617161B161B4
:1055A000F16140F23910E86400202871D0E24046F1
:1055B000FBF7F0F88946074613F047FD2B4C002215
:1055C0002346FBF77DF90AD2002131617161B16197
:1055D000F161CAF83C8040F23B10E864B8E238461A
:1055E000494613F032FD00222346FBF781F90DD224
:1055F000B8F1000F0ADA002131617161B161F16126
:10560000CAF83C8040F23D10E864A1E2002030611D
:1056100070610021B161F1614FF49B70E86497E221
:105620004046FBF7B7F813F010FD00220F4BFBF7D5
:105630005FF921D2002131617161B161F16117E03F
:1056400000804A40000064407C0000200088B34095
:105650000080564000C0724000E0654000004EC02F
:1056600000C072C00000104000002E4000003E400C
:105670004FF49B70E8646BE2032F03D1F748007886
:10568000012802D14FF49E70E864002131617161FC
:10569000F348C6E906105BE238B92068CAF82C0066
:1056A0006068CAF8300085F80490EE480021C6E929
:1056B0000410B161F1612068DAF82C10081AFBF7C8
:1056C00069F813F0C2FC00225B46FBF711F90CD31A
:1056D0006068DAF83010081AFBF75CF813F0B5FCD4
:1056E00000225B46FBF704F98FD200213161716122
:1056F000B161F161002028714046FBF74BF813F0CF
:10570000A4FC0022D84BFBF7DBF803D24FF49C70CB
:10571000E8641DE2CAF83C8040F23910E86417E200
:10572000DAF83C00A8EB0000FBF734F813F08DFC2E
:105730000022CE4BFBF7DCF808D200213161716109
:10574000B161F1614FF49B70E86401E2032F03D172
:10575000C2480078012802D14FF49F70E86400210C
:1057600031617161BE48C6E90610F1E138B92068BF
:10577000CAF82C006068CAF8300085F80490B9486F
:105780000021C6E90410B161F1612068DAF82C103B
:10579000081AFAF7FFFF13F058FC00225B46FBF7EC
:1057A000A7F80CD36068DAF83010081AFAF7F2FF9D
:1057B00013F04BFC00225B46FBF79AF8A9D20021BC
:1057C00031617161B161F161002028714046FAF7E1
:1057D000E1FF13F03AFC0022A34BFBF771F803D270
:1057E0004FF49C70E864B3E1CAF83C8040F2391091
:1057F000E864ADE1032F16D1012914D04046FAF731
:10580000C9FF13F022FC0022994BFBF771F810D26C
:10581000002131617161B161F16185F806904FF449
:10582000A270E86494E14FF4A170E86485F80690F2
:105830008EE10021316171618E48C6E9061087E171
:105840000020E8640120009082E100203061706156
:105850000021B161F1616068CAF8240040F249108A
:10586000E86475E10021316171617D48C6E9061087
:105870004046FAF78FFF13F0E8FB00227E4BFBF760
:105880001FF809D20020306170610021B161F1611F
:1058900040F24B10E8645BE1032F03D16F480078BE
:1058A0000128A0D14FF4A570E86451E138B920680F
:1058B000CAF82C006068CAF8300085F8049069487E
:1058C0000021C6E90410B161F1612068DAF82C10FA
:1058D000081AFAF75FFF13F0B8FB684F00223B4647
:1058E000FBF706F80CD36068DAF83010081AFAF7FC
:1058F00051FF13F0AAFB00223B46FAF7F9FF09D249
:105900000021316171610020B061F061287140F2C5
:105910004910E8641CE15A480022C6E90420B2613B
:10592000F261032F18D1012916D06068DAF824102B
:10593000081AFAF72FFF13F088FB0022514BFAF7F1
:10594000D7FF08D20020306170610021B161F161A0
:105950004FF4A670E864FBE00021316171614FF4FF
:10596000A670E864F4E00022326172613C48C6E946
:10597000062018F15D0F06DD0021B161F1614FF4E1
:10598000A770E864E4E0032F01D1012905D10021CB
:10599000B161F16140F24D10E864D9E038B9206896
:1059A000CAF82C006068CAF8300085F804902D48C9
:1059B0000021C6E90410B161F1612068DAF82C1009
:1059C000081AFAF7E7FE13F040FB00225B46FAF7ED
:1059D0008FFF0CD36068DAF83010081AFAF7DAFE95
:1059E00013F033FB00225B46FAF782FF09D2002155
:1059F00031617161B161F161002028714FF4A670CD
:105A0000E864A5E01E480022C6E90420B261F26104
:105A1000032F17D1012915D06068DAF82410081A6D
:105A2000FAF7B8FE13F011FB0022174BFAF760FFEC
:105A300007D2002131617161B161F1614FF4A87049
:105A4000E86485E000213161716140F24F10E86443
:105A50007EE00020E8640220009079E07C000020D5
:105A600000004E4000C072C000002E4000003E40CA
:105A700000E0654000004EC000405A400000104069
:105A800000C0724000805A40000064400021316133
:105A9000716131490020C6E906014046FAF77AFEF5
:105AA00013F0D3FA00222D4BFAF70AFF08D2002197
:105AB00031617161B161F1614FF4A970E86447E04F
:105AC000032F03D126480078012841D100203061FE
:105AD00070610021B161F16140F25110E86437E07A
