:020000040800F2
:1000000018F20020E90100085DF40008E9A70008E3
:10001000A5F200088D2D0008515C010800000000C9
:100020000000000000000000000000004501000882
:10003000258600080000000089010008994D01088C
:10004000030200080302000803020008030200087C
:10005000030200080302000803020008030200086C
:10006000030200087D8A000803020008030200085A
:10007000030200080302000803020008030200084C
:10008000030200080302000803020008030200083C
:10009000030200080302000803020008A58A000802
:1000A000030200080302000803020008030200081C
:1000B00003020008F14F01080302000803020008D0
:1000C00003020008030200080302000803020008FC
:1000D00003020008030200089D570108A957010800
:1000E000518A000803020008030200080302000806
:1000F00003020008030200080302000803020008CC
:1001000003020008030200088D50010803020008E2
:10011000855701089157010825510108030200087D
:10012000030200080302000803020008030200089B
:10013000DFF80CD000F078FD0048004785DA0108B0
:1001400018F20020204B19680868B0E8F00F80F31F
:100150000988BFF36F8F4FF0000080F311884EF0D5
:100160000D0E70470000000006480068006880F32C
:10017000088862B661B6BFF34F8FBFF36F8F00DFA1
:1001800000BF00BF08ED00E0EFF30980BFF36F8F01
:100190000D4B1A6820E9F00F106008B54FF0F00021
:1001A00080F311881FF002FB4FF0000080F31188EC
:1001B000BDE8084019680868B0E8F00F80F30988C6
:1001C000BFF36F8F704700BF54020020EFF3118020
:1001D0004FF0F00181F31188704780F31188704768
:1001E000EFF3058070470000064880470648004747
:1001F000FEE7FEE7FEE7FEE7FEE7FEE7FEE7FEE7D7
:10020000FEE7FEE7BD4D0108310100080649074A37
:100210000868504343F239021044086040087047B0
:100220000149086070470000F00200206D4EC64191
:1002300040EA01039B0703D009E008C9121F08C068
:10024000042AFAD203E011F8013B00F8013B521EE8
:10025000F9D27047D2B201E000F8012B491EFBD25F
:1002600070470022F6E710B513460A4604461946C1
:10027000FFF7F0FF204610BD30B5044600200346CE
:1002800000E05B1C934203D2E05CCD5C401BF8D0E5
:1002900030BDF0B480EA0102D40F4200B2EB410F4E
:1002A00002D20246084611464A0042D0C30DDDB2D2
:1002B000C1F3C752AD1A202D35DAC1F3160141F44E
:1002C000000204B15242C5F1200602FA06F12A41A9
:1002D0001044B3EBD05F23D0C4B1012DA0EBC350C9
:1002E00009DCF0BC4FF0004202EAC352DBB200F579
:1002F000000000F0A4BB400000F1807000EBC35090
:10030000A0F1807040EAD170490009E0490841EA53
:10031000C071A0EBC35000F50000400800EBC350D3
:10032000F0BC00F083BB6142012202EB4101001BE3
:10033000F6E7F0BC704781F00041AAE780F000408A
:10034000A7E780EA010210B502F00043400022D086
:100350004A001FD0010E01EB1261C0F35600C2F338
:10036000560240F4000042F40002A0FB0220000408
:100370007F39140400D0401C50EA124001D44000E0
:10038000491EC2B20C0604EBD010401C4008802A63
:1003900002D003E0002010BD20F00100002900DAA7
:1003A0000020184310BD30B480EA010202F000457D
:1003B00030F0004221F0004013D090B1C30DD40DB5
:1003C000C2F31601C0F31600E41A41F4000140F430
:1003D00000027D34914201D3641C00E04900002CEE
:1003E00002DA30BC002070474FF400000023914235
:1003F00001D3891A034340084FEA4101F7D151B1B3
:10040000914202D14FF0004105E002D24FF00101CC
:1004100001E06FF0010103EBC450284430BC00F050
:1004200005BB420005D0C0F3C7525242914201DCE5
:100430000020704700EBC15070472DE9FE4F804609
:1004400081EA0300C00F0C46009021F0004123F028
:100450000045B8EB0200A94105D24046214690462E
:100460001C460B46024623F00040104347D0270DA0
:10047000C7F30A00C3F30A510290401A01904028C2
:100480006BDAC3F3130040F4801B0098924620B14E
:100490000023D2EB030A63EB0B0B01985946C0F122
:1004A0004002504600F091FA06460D465046594625
:1004B000019A00F0A9FA10EB08006141002487EAD4
:1004C000115284EAE7731A4340D0009A62B3019A4A
:1004D000012A4FEA075215DC001B61EB02014FF0C5
:1004E000004202EA0752CDE90042001C41F58011AA
:1004F00032462B4600F0E0FA03B0BDE8F08F4046EC
:100500002146F9E7001B61EB0201001C41F5801355
:1005100000185B412018A2F5001747EB030140EAE1
:10052000D570B6196D4111E06D084FEA360645EAFF
:10053000C0754FEA0752001B61EB0201001C41F538
:10054000801149084FEA30000019514132462B46CC
:1005500003B0BDE8F04F00F0A0BA009801224000BF
:100560000023D0EB020263EBE073009821464FEAD0
:10057000E074B8EB000061EB0401E9E783F00043AD
:100580005BE781F0004158E72DE9FE4F81EA030463
:1005900004F0004421F0004100944FF0000B23F0E0
:1005A000004350EA01045ED052EA03045BD0C3F377
:1005B0000A54C1F30A552C44A4F2F3340194A0FB6D
:1005C0000254C1F3130141F48011C3F3130343F444
:1005D000801301FB024400FB034E840A970A44EA9D
:1005E000815447EA8357A4FB076802958D0A05FBEF
:1005F00007854FEA932C04FB0C542705029D4FEA14
:10060000065847EA1637B5EB08056EEB070C870E60
:10061000920E47EA811742EA8312A7FB0201B6EB6A
:100620000B0164EB00042B0D43EA0C335E1844EB22
:100630001C50DA465146E7FB0201C5F313044FEAAA
:100640000B3343EA14534FEA0432019C43EA060396
:10065000A4F10C040294009CCDE900B400F02CFA43
:1006600003B0BDE8F08F00200146F9E72DE9F04D19
:1006700081EA030404F0004B21F0004514464FF0DA
:10068000000A23F0004150EA050220D054EA01029A
:100690001DD0C5F30A570246C5F31303C1F3130077
:1006A000C1F30A5640F4801543F48013A7EB060803
:1006B000101BD64608F2FD3873EB050002D308F193
:1006C000010801E092185B41B8F1000F03DA002045
:1006D0000146BDE8F08D00204FF4801106468446A7
:1006E0000EE0171B73EB050705D3121B63EB050325
:1006F00006434CEA010C49084FEA300092185B416E
:1007000050EA0107EDD152EA030012D082EA040058
:1007100083EA0501084305D0101BAB4106D2012234
:10072000002306E000224FF0004302E06FF00102D8
:1007300053101AEB06004CEB085110EB0A0041EB8A
:100740000B01BDE8F04D00F0A8B970B521F00043F1
:1007500003430CD0C1F30A550024D5EB040564EB28
:100760000403D617AD1AB34102DB0020014670BD69
:10077000201841EB025170BDC10F80EAE0700844BF
:10078000CA079623002100F05AB996230022114689
:1007900000F055B90EB5C10F80EAE0700844CA07F1
:1007A000002140F233438DE80E000A460B4600F06C
:1007B00083F903B000BD0EB540F233410291002130
:1007C000CDE900110A460B4600F076F903B000BDF2
:1007D00000F0004220F00040C10DC0F3160040F4CC
:1007E00000007F2901DA00207047962903DCC1F15F
:1007F0009601C84001E096398840002AF4D0404272
:10080000704720F00040C10DC0F3160040F4000016
:100810007F2901DA00207047962903DCC1F1960197
:10082000C840704796398840704770B5C1F30A5286
:1008300001F000450024C1F3130140F2FF3341F4FD
:1008400080119A4201DA002070BD40F233439A428F
:10085000A2F2334203DC524200F0C6F800E09040BE
:100860002C43F1D0404270BD00F0004230F0004017
:100870000AD0C10D01F56071C0F3160042EA0151C2
:10088000C20840071143704700200146704700002E
:1008900030B5041E71F1000404DB4FF00044404207
:1008A00064EB0101141E73F1000405DB1C464FF0DC
:1008B0000043524263EB04038B4208BF824230BDC7
:1008C00030B5041E71F1000404DB4FF000444042D7
:1008D00064EB0101141E73F1000405DB1C464FF0AC
:1008E0000043524263EB0403994208BF904230BD7B
:1008F00001F0004330B421F0004150EA010206D07B
:100900000A0DA2F56072C1F31301002A02DC30BCAB
:1009100000207047440F44EAC104C100E01830BC15
:1009200000EBC25000F082B8002801DBC0F10040AB
:10093000002901DBC1F100418142704730B50B460F
:10094000014600202022012409E021FA02F59D42FF
:1009500005D303FA02F5491B04FA02F52844151ED3
:10096000A2F10102F1DC30BD2DE9F05F0546002067
:1009700092469B4688460646814640241BE0284610
:1009800041464746224600F02FF853465A46C01AC1
:10099000914110D311461846224600F016F82D1A40
:1009A00067EB01084F4622460120002100F00DF8B8
:1009B00017EB00094E41201EA4F10104DFDC48467C
:1009C00031462A464346BDE8F09F202A04DB203A00
:1009D00000FA02F1002070479140C2F1200320FA92
:1009E00003F3194390407047202A04DB203A21FA90
:1009F00002F00021704721FA02F3D040C2F1200238
:100A00009140084319467047202A06DBCB17203A4D
:100A100041FA02F043EAE07306E041FA02F3D04003
:100A2000C2F1200291400843194670470029A8BF2F
:100A30007047401C490008BF20F00100704710B407
:100A4000B0FA80FC00FA0CF050EA010404BF10BCBC
:100A5000704749B1CCF1200421FA04F411FA0CF1E9
:100A600018BF012121430843A3EB0C01CB1D4FEA22
:100A700000614FEA102042BF002010BC704700EB1D
:100A8000C35010440029A4BF10BC7047401C49004B
:100A900008BF20F0010010BC704710B5141E73F1A0
:100AA000000408DA401C41F1000192185B411A432E
:100AB00001D120F0010010BD2DE9F04D92469B467A
:100AC00011B1B1FA81F202E0B0FA80F22032904620
:100AD000FFF77BFF04460F4640EA0A0041EA0B019C
:100AE00053465A46084313D0114653EA010019D021
:100AF000C8F140025046FFF777FF05460E465046C4
:100B000059464246FFF761FF084305D0012004E043
:100B100020463946BDE8F08D0020054346EAE076E0
:100B20002C4337430A986305E40AA0EB080000222F
:100B3000FD0A44EA47540A3002D500200146E9E79D
:100B4000010510196941DDE9084500196941BDE851
:100B5000F04DA2E72DE9F04D00231A461B1A8A41F9
:100B600003DB00200146BDE8F08DC1F30A52C1F35A
:100B7000130141F480154FF0000BD10702D100188A
:100B80006D41521E0027044640F2FF11384601EB2A
:100B9000620A3E468046024600204FF48011FFF76D
:100BA00023FFC2197141BB1846EB0100B4EB030CE3
:100BB00075EB000C04D3E41A65EB000517460E46EE
:100BC000241908F101006D4180463428E3DDF9194C
:100BD00046EB0600091BA84103D24FF0FF32134633
:100BE00001E0002213461BEB070046EB0A51BDE86B
:100BF000F04DFFF752BFC1F30A52C1F3130140F2A7
:100C0000FF3341F480119A4202DA00200146704716
:100C100040F233439A42A2F2334202DC5242FFF7DF
:100C2000E3BEFFF7D2BE0000064C074D06E0E068C9
:100C300040F0010394E8070098471034AC42F6D323
:100C4000FFF77AFAA8020208C802020870B58C18E9
:100C500010F8015B15F0070301D110F8013B2A11D0
:100C600006D110F8012B03E010F8016B01F8016BBD
:100C70005B1EF9D12B0705D40023521E0DD401F8B9
:100C8000013BFAE710F8013BCB1A921C03E013F882
:100C9000015B01F8015B521EF9D5A142D8D30020B7
:100CA00070BD002904D0816841F001018160704766
:100CB000816821F0010181607047000010B515497D
:100CC00088420AD14415012120460EF099FC2046A5
:100CD000BDE8104000210EF093BC0F4988420AD1B4
:100CE0000415012120460EF08BFC2046BDE8104083
:100CF00000210EF085BC094988420AD10121CC03AC
:100D000020460EF07DFC2046BDE8104000210EF08C
:100D100077BC10BD0024014000280140003C014088
:100D2000014600208968490700D501207047C06C42
:100D300080B270470246002012680A4200D00120AB
:100D40007047014600208968090700D501207047D7
:100D500010B542680E4B1A400C790B6842EA042227
:100D60001343436082680B4B1A40D1E9024323438B
:100D70004C7942EA440213438360C26A22F470024F
:100D8000097C491EC9B242EA0151C16210BD00008E
:100D9000FFFEF0FFFDF7F1FF70B5072609290AD91C
:100DA000C568A1F10A0404EB4404A640B543A3407E
:100DB0001D43C56007E0056901EB4104A640B5434A
:100DC000A3401D4305611F23072A09D2446B521E0D
:100DD00002EB820293409C4391400C43446370BDFC
:100DE0000D2A09D2046BD21F02EB820293409C436E
:100DF00091400C43046370BDC46A0D3A02EB820259
:100E000093409C4391400C43C46270BD816841F0A3
:100E1000080181607047002904D0816841F4A00175
:100E200081607047816821F4A0018160704781680A
:100E300041F00401816070472DE9F05F0446884667
:100E40000027A068642190FBF1F6DFF844A4002598
:100E50005046BAF942B00122C0790AF58079BBF157
:100E6000870F78D017DCBBF1830F79D009DCBBF199
:100E7000000F23D0BBF1810F6FD0BBF1820F20D1C7
:100E800020E0BBF1840F69D0BBF1850F7BD0BBF1B3
:100E9000860FF4D1C7E0FF49ABF1880BBBF1070F18
:100EA0000B78FB49097D01F1010C0CF0FF0C08D215
:100EB000DFE80BF0F7F6F8F4F3F2F1008220AAF87D
:100EC00042005CE39AF8250028B1D9F83000D9F83F
:100ED0001410401A60609AF8020060B1D9F82C0032
:100EE0002060D9F83010D9F81020801A2060D9F885
:100EF0001400081A60602068FFF74CFC1CF08BFEA1
:100F0000E54D00222B46FFF7DBFC09D36068FFF7B5
:100F100041FC1CF080FE00222B46FFF7D1FC0CD2D6
:100F20000021C9F84010C9F84410C9F84810C9F8A0
:100F30004C108320AAF8420021E30021C9F8401098
:100F4000C9F84410C9F84810C9F84C10022781208C
:100F5000AAF8420013E345E102E002E3F2E212E004
:100F6000B8F1000F09D0B8F1010F09D002208AF8BA
:100F700015008520AAF8420001E38AF81550F8E729
:100F80008AF81520F5E7DFF814B338B9C0482168AE
:100F90008030C164616801658AF80720C04800217B
:100FA000C9E91010C9F84810C9F84C10DFF8E08200
:100FB000206808F18008D8F84C10081AFFF7EAFBFF
:100FC0001CF029FE00225B46FFF77AFC0CD3606818
:100FD000D8F85010081AFFF7DDFB1CF01CFE0022A9
:100FE0005B46FFF76DFCA7D20020C9F84000C9F8A6
:100FF00044000021C9F84810C9F84C108AF807507D
:10100000C8F85C609AF8150028B1012807D088203C
:10101000AAF84200B3E28620AAF84200AFE2872095
:10102000AAF84200ABE29A488030C06D801BFFF7FF
:10103000B1FB1CF0F0FD00229A4BFFF741FC0CD2F3
:101040000021C9F84010C9F84410C9F84810C9F87F
:101050004C108920AAF8420091E2B8F1030F0DD19B
:101060008C480078012809D00020C9F84000C9F850
:1010700044008D480021C9E9121080E20020C9F81F
:101080004000C9F84400C9F84800C9F84C008A205B
:10109000AAF8420073E2C0E1FAE1DCE02DE101E0F0
:1010A0003DE083E138B97A4821688030C1646168E5
:1010B00001658AF807207A480021C9E91010C9F8AB
:1010C0004810C9F84C10724E20688036F16C081A2E
:1010D000FFF760FB1CF09FFDDFF8D0810022434644
:1010E000FFF7EEFB0BD36068316D081AFFF752FB78
:1010F0001CF091FD00224346FFF7E2FB8AD200205C
:10110000C9F84000C9F844000021C9F84810C9F8DE
:101110004C108AF807508620AAF842002FE238B90E
:101120005B4826688030C664666806658AF80720D2
:10113000B8F1030F12D1012B10D004291FD90021BF
:10114000C9F84010C9F84410C9F84810C9F84C1043
:101150008AF807508420AAF8420010E20021C9F85A
:101160004010C9F84410C9F84810C9F84C108AF862
:1011700007508AF814C08520AAF84200FFE1444EC7
:1011800020688036F16C081AFFF704FB1CF043FD61
:10119000DFF8048100224346FFF792FB0BD360681F
:1011A000316D081AFFF7F6FA1CF035FD00224346B0
:1011B000FFF786FB0DD20021C9F84010C9F8441092
:1011C000C9F84810C9F84C108AF807508120AAF8CD
:1011D000420037480021C9E91010C9F84810C9F881
:1011E0004C10CCE12A488030C06D801BFFF7D2FA4A
:1011F0001CF011FD00222B4BFFF762FB0DD20020EB
:10120000C9F84000C9F844000021C9F84810C9F8DD
:101210004C108B20AAF84200B1E1B8F1030F0DD1B8
:101220001C480078012809D00020C9F84000C9F8FE
:10123000440020480021C9E91210A0E10021C9F8AA
:101240004010C9F84410C9F84810C9F84C108C2057
:10125000AAF8420093E138B90D4821688030C16492
:10126000616801658AF807200D480021C9E910105E
:10127000C9F84810C9F84C10054E20688036F16C4A
:10128000081AFFF787FA1CF0C6FC002214E00000E1
:1012900080000020740000200000794000003440ED
:1012A00000C072C00080464000004EC000002440D4
:1012B00000C0724000004E40DFF8C8824346FFF78E
:1012C000FFFA0BD36068316D081AFFF763FA1CF060
:1012D000A2FC00224346FFF7F3FA9DD20021C9F891
:1012E0004010C9F84410C9F84810C9F84C108AF8E1
:1012F00007508720AAF8420041E130B9A248266889
:10130000C664666806658AF80720A0480022C9E915
:101310001020C9F84820C9F84C20B8F1030F0ED1AD
:10132000012B0CD0042917D90020C9F84000C9F8B6
:1013300044008AF807508420AAF842001FE10021E7
:10134000C9F84010C9F844108AF807508AF814C048
:101350008520AAF8420012E18B4E2068F16C081A31
:10136000FFF718FA1CF057FCDFF8248200224346EE
:10137000FFF7A6FA0BD36068316D081AFFF70AFA77
:101380001CF049FC00224346FFF79AFA0DD20021D7
:10139000C9F84010C9F84410C9F84810C9F84C10F1
:1013A0008AF807508120AAF84200E8E07648C06D2C
:1013B000801BFFF7EFF91CF02EFC0022754BFFF7A6
:1013C0007FFA0DD20021C9F84010C9F8441000205E
:1013D000C9F84800C9F84C008D20AAF84200CEE0B8
:1013E000B8F1030F0CD16C480078012808D0002018
:1013F000C9F84000C9F844006649C9E91201BEE0D5
:101400000020C9F84000C9F84400C9F84800C9F8EC
:101410004C008E20AAF84200B1E030B95A48216849
:10142000C164616801658AF807205C480021C9E948
:101430001010C9F84810C9F84C10534E2068F16CD0
:10144000081AFFF7A7F91CF0E6FBDFF83881002245
:101450004346FFF735FA0BD36068316D081AFFF782
:1014600099F91CF0D8FB00224346FFF729FA0ED267
:101470000020C9F84000C9F844000021C9F848100C
:10148000C9F84C108AF807508820AAF8420076E084
:1014900030B93D482668C664666806658AF8072044
:1014A0003A480022C9E91020C9F84820C9F84C2060
:1014B000B8F1030F0ED1012B0CD0032917D900214D
:1014C000C9F84010C9F844108AF807508420AAF8D7
:1014D000420054E00021C9F84010C9F844108AF8CD
:1014E00007508AF814C08520AAF8420047E0264E2B
:1014F0002068F16C081AFFF74DF91CF08CFBDFF83F
:10150000908000224346FFF7DBF90BD36068316D12
:10151000081AFFF73FF91CF07EFB00224346FFF755
:10152000CFF92CD20020C9F84000C9F844000021AE
:10153000C9F84810C9F84C108AF807508120AAF859
:1015400042001CE00021C9F84010C9F84410C9F855
:101550004810C9F84C10AAF842508AF814500127D4
:101560000DE00021C9F84010C9F84410C9F848102E
:10157000C9F84C10AAF842508AF81450012738468E
:10158000BDE8F09F000024400001002000C0724030
:101590000000794000004E407400002000C072C07E
:1015A0002DE9FC5F81468B460027D9F808006421AD
:1015B00090FBF1F6FF48FE4D012203782846B5F96D
:1015C0003EC0C17900F580748030DFF8ECA34FF0A5
:1015D0005208BCF15B0F7DD042DCBCF14F0F7AD0DA
:1015E00031DCDFF8D8A3BCF1490F75D019DC2846EF
:1015F000DFF8CCB390F8251080784FF0780ABCF172
:10160000410F6AD006DCBCF1000F4CD0BCF1400F9A
:101610004BD14BE0BCF1450F7ED0BCF1480FF7D168
:1016200013E1ACF14A0CDFF89CA3DFF89CB3DFF8C0
:101630009C93BCF1050F38D2DFE81CF01D03F003CA
:10164000D404A1059006ACF1500CBCF10B0FF2D202
:10165000DFE80CF0F1F0EFEEEDECEBEAE9E8E700A3
:10166000ACF15D0CBCF11C0FE5D2DFE81CF04F03C0
:10167000A4030E0466041E0032048804DE0434054C
:101680001E0001055505AC0519061E00D9054406C6
:101690009E06F4061E00C10617076D07C2071E004E
:1016A0008F07E40727084020E88761E321B1216B19
:1016B0006269891AC9F8041058B1E06AC9F80000D3
:1016C000216B2269801AC9F800006069081AC9F8FC
:1016D000040003E04DE3F2E3CBE124E0D9F800009D
:1016E000FFF758F81CF097FA00225B46FFF7E8F87E
:1016F0000AD3D9F80400FFF74DF81CF08CFA002249
:101700005B46FFF7DDF80BD24120E887B0490020A7
:10171000C4E91001002100E01EE0A164E164C4E717
:10172000A5F83EA0C1E7E87B50B1A9480021C4E973
:101730001010A164E164002068744520E887B4E7D4
:10174000687C401CC0B26874042801D9042700E0FA
:1017500003270020E887A8E721B1216B6269891A75
:10176000C9F8041058B1E06AC9F80000216B226979
:10177000801AC9F800006069081AC9F80400D9F88D
:101780000000FFF707F81CF046FA00225B46FFF75F
:101790007FF80AD2D9F80400FEF7FCFF1CF03BFAF0
:1017A00000225B46FFF774F803D3297CE87B814273
:1017B00002D3A5F83EA078E72D2806D90020E887B7
:1017C00002272874E87368746FE78248405C6128D8
:1017D00018D0622819D063281AD064281BD0652835
:1017E0001CD0662828D0672829D068282AD0A5F8D8
:1017F0003EA077480022C4E91020A264E264491C9C
:10180000297452E74820E887F3E74920E887F0E7A2
:101810004A20E887EDE74B20E887EAE74C20E88795
:10182000E7E74FE2D2E175E103E2A6E145E1ACE092
:1018300055E0FCE086E02FE04D20E887D9E74E2018
:10184000E887D6E74F20E887D3E73046FEF7A2FFC8
:101850008A4681461CF0DFF900225F4BFFF718F83B
:1018600003D9A6F12E00542802D25020E8871CE7A5
:10187000484651461CF0CFF90022584BFFF720F89C
:1018800002D38C365F2E02D25120E8870DE7A06983
:101890006062A5F83E8008E7853E052E0AD24C48D6
:1018A0000021C4E91010A164E164A0696062A5F898
:1018B0003E80FAE6BBF1030F08D1012B06D00021D0
:1018C000216461644648C4E91210EEE600212164F7
:1018D00061640020A064E0645320E887E5E631B944
:1018E000D9F80010C164D9F804100165EA713D49C6
:1018F0000022C4E91021A264E2640646D9F800106F
:10190000C06C401AFEF746FF1CF085F900225346D2
:10191000FEF7D6FF0CD3D9F80400316D081AFEF794
:1019200039FF1CF078F900225346FEF7C9FF9ED21A
:101930000021216461640020A064E064E87150200B
:10194000E887B2E6853E052E0AD221480021C4E987
:101950001010A164E164A0696062A5F83E80A4E66D
:10196000BBF1030F08D1012B06D000212164616473
:101970001D48C4E9121098E600212164616400202A
:10198000A064E0645420E8878FE631B9D9F80010EC
:10199000C164D9F804100165EA7112490022C4E952
:1019A0001021A264E2640646D9F80010C06C1DE064
:1019B00080000020740000200000244000E065400A
:1019C0000000794000E06040000044400000144006
:1019D00000C07240516B0020008046400080614092
:1019E00000004E4000C072C000004EC0401AFEF71A
:1019F000D1FE1CF010F900225346FEF761FF0CD314
:101A0000D9F80400316D081AFEF7C4FE1CF003F982
:101A100000225346FEF754FF93D2002121646164F3
:101A2000A164E1640020E8715120E8873DE6BBF144
:101A3000030F0AD1012B08D0616AA069401AB0F5E2
:101A4000846F0EDB4520E8872FE600212164616466
:101A50000020A064E064E88702272874E8736874B3
:101A600023E6FD480021C4E910100020A064E064D2
:101A70001BE63046FEF78EFE894680461CF0CBF80A
:101A800000225346FEF704FF04D2002E02DB55204D
:101A9000E8870AE6404649461CF0BDF80022534656
:101AA000FEF7F6FE04D2002E02DA5620E887FCE5A7
:101AB000A06960625720E887F7E53046FEF76AFEC6
:101AC0001CF0A9F80022E54BFEF7FAFE0BD2E24823
:101AD0000021C4E910100020A064E064A0696062E5
:101AE0005720E887E1E5BBF1030F0AD1DC48007815
:101AF000012806D0002020646064DA49C4E912019C
:101B0000D3E50020206460640021A164E1645820D2
:101B1000E887CAE531B9D9F80010C164D9F80410D2
:101B20000165EA71D0490022C4E91021A264E2648F
:101B30000646D9F80010C06C401AFEF72BFE1CF0C8
:101B40006AF800225346FEF7BBFE0CD3D9F8040016
:101B5000316D081AFEF71EFE1CF05DF80022534698
:101B6000FEF7AEFE84D20020206460640021A164F0
:101B7000E164E8715520E88797E53046FEF70AFEF4
:101B80001CF049F80022B54BFEF79AFE0BD2B24882
:101B90000021C4E910100020A064E064A069606224
:101BA0005720E88781E5BBF1030F07D000212164AE
:101BB0006164A164E1645920E88776E5002020642F
:101BC0006064AA480021C4E912106EE531B9D9F861
:101BD0000010C164D9F804100165EA71A24900221D
:101BE000C4E91021A264E2640646D9F80010C06C72
:101BF000401AFEF7CFFD1CF00EF800225346FEF708
:101C00005FFE0CD3D9F80400316D081AFEF7C2FD4F
:101C10001CF001F800225346FEF752FEACD2002120
:101C200021646164A164E1640020E8715620E887C2
:101C30003BE5BBF1030F0BD1012B09D0616AA06911
:101C4000401A40F2F62188420EDD4520E8872CE557
:101C5000002121646164A164E1640020E887022717
:101C60002874E873687420E57B480021C4E91010EB
:101C7000A164E16419E53046FEF78CFD8A46814691
:101C80001BF0C9FF00227A4BFEF71AFE03D3A6F120
:101C90002E005E2802D85A20E88706E548465146BD
:101CA0001BF0B9FF0022734BFEF7F2FD02D981361B
:101CB000542E02D25B20E887F7E4A0696062A5F8A1
:101CC0003E80F2E48936052E0BD263490020C4E938
:101CD00010010021A164E164A0696062A5F83E8062
:101CE000E3E4BBF1030F08D1012B06D000212164EE
:101CF00061645C48C4E91210D7E400202064606489
:101D00000021A164E1645D20E887CEE431B9D9F80F
:101D10000010C164D9F804100165EA71524900222B
:101D2000C4E91021A264E2640646D9F80010C06C30
:101D3000401AFEF72FFD1BF06EFF00225346FEF700
:101D4000BFFD0CD3D9F80400316D081AFEF722FD4F
:101D50001BF061FF00225346FEF7B2FD8AD200213C
:101D600021646164A164E1640020E8715A20E8877D
:101D700004E28936052E0AD237480021C4E9101042
:101D8000A164E164A0696062A5F83E80F6E1BBF160
:101D9000030F08D1012B06D0002121646164334870
:101DA000C4E91210EAE1002121646164A164E164E4
:101DB0005E20E887E2E131B9D9F80010C164D9F8B2
:101DC00004100165EA7128490022C4E91021A264C7
:101DD000E2640646D9F80010C06C401AFEF7DAFC3F
:101DE0001BF019FF00225346FEF76AFD0CD3D9F809
:101DF0000400316D081AFEF7CDFC1BF00CFF002229
:101E00005346FEF75DFDB3D2002121646164A164F5
:101E1000E1640020E8715B20E887AFE13046FEF71F
:101E2000B9FC894680461BF0F6FE0022124BFEF7F5
:101E300047FD02D25F20E887A0E1404649461BF0FB
:101E4000EAFE00220D4BFEF723FD02D3553E0A2E7B
:101E500016D86020E88791E100C0724000206640FB
:101E60007400002000004E4000C072C000004EC050
:101E7000008061400080464000C05740004055400F
:101E8000A06960625720E88778E18936052E0AD27A
:101E9000FD480021C4E91010A164E164A0696062FA
:101EA0005720E8876AE1BBF1030F09D1012B07D066
:101EB000002020646064F549C4E912015EE120E37A
:101EC0000020206460640021A164E1646220E8874E
:101ED000FFE331B9D9F80010C164D9F804100165E5
:101EE000EA71EB4A0021C4E910120022A264E26404
:101EF0000646D9F80010C06C401AFEF74BFC1BF0E8
:101F00008AFE00225346FEF7DBFC0CD3D9F804000E
:101F1000316D081AFEF73EFC1BF07DFE0022534691
:101F2000FEF7CEFC88D2002121646164A164E164E3
:101F30000020E8715F20E887CBE38936052E0AD2BE
:101F4000D1480021C4E91010A164E164A069606275
:101F50005720E887BDE3BBF1030F08D1012B06D062
:101F6000002121646164CB48C4E91210B1E300216F
:101F700021646164A164E1646320E887A9E331B965
:101F8000D9F80010C164D9F804100165EA71C0499C
:101F90000022C4E91021A264E2640646D9F80010C8
:101FA000C06C401AFEF7F6FB1BF035FE00225346CC
:101FB000FEF786FC0CD3D9F80400316D081AFEF741
:101FC000E9FB1BF028FE00225346FEF779FCB3D252
:101FD000002121646164A164E1640020E871602053
:101FE000E88776E33046FEF7D5FB814601911BF08A
:101FF00012FE00225346FEF763FC0ED948460199B3
:102000001BF009FE00225B46FEF742FC02D3283E8D
:102010005F2E05D26520E8875BE36420E88758E3FC
:10202000A0696062A5F83E8053E32F36052E0BD2DF
:1020300095480021C4E910100020A064E064A06964
:102040006062A5F83E8044E3BBF1030F08D1012B89
:1020500006D00021216461648C48C4E9121038E381
:10206000002121646164A164E1646720E88730E3B2
:1020700031B9D9F80010C164D9F804100165EA71CA
:1020800083490022C4E91021A264E2640646D9F81B
:102090000010C06C401AFEF77DFB1BF0BCFD002257
:1020A0005346FEF70DFC0CD3D9F80400316D081A25
:1020B000FEF770FB1BF0AFFD00225346FEF700FC5D
:1020C0008FD20021216461640020A064E064E87183
:1020D0006420E887FDE22F36052E0BD26A480021E6
:1020E000C4E910100020A064E064A0696062A5F853
:1020F0003E80EEE2BBF1030F07D000212164616452
:10210000A164E1646820E887E3E20021216461645E
:102110006048C4E91210DCE231B9D9F80010C1649A
:10212000D9F804100165EA7159490022C4E9102167
:10213000A264E2640646D9F80010C06C401AFEF7AB
:1021400029FB1BF068FD00225346FEF7B9FB0CD3B8
:10215000D9F80400316D081AFEF71CFB1BF05BFD7B
:1021600000225346FEF7ACFBB4D200212164616427
:10217000A164E1640020E8716520E887A9E23046A7
:10218000FEF708FB8A4680461BF045FD00224B46C1
:10219000FEF796FB04D2002E02DA6920E88798E267
:1021A000404651461BF037FD00224B46FEF788FBA8
:1021B00004D2002E02DD6A20E8878AE2A06960620C
:1021C0005720E88785E23046FEF7E4FA1BF023FD4E
:1021D0000022314BFEF75CFB0BD22B480021C4E9F7
:1021E00010100020A064E064A06960625720E887B6
:1021F0006FE2BBF1030F0BD128480078012807D00C
:1022000000202064606421480021C4E9121060E2CB
:10221000002121646164A164E1646C20E88758E2D4
:1022200031B9D9F80010C164D9F804100165EA7118
:1022300017490022C4E91021A264E2640646D9F8D5
:102240000010C06C401AFEF7A5FA1BF0E4FC002257
:102250005346FEF735FB0CD3D9F80400316D081A4C
:10226000FEF798FA1BF0D7FC00225346FEF728FB36
:1022700084D20021216461640020A064E064E871DC
:102280006920E88725E2000000C0724000004E404F
:1022900000C072C000004EC0000008407400002062
:1022A0003046FEF777FA1BF0B6FC0022FB4BFEF738
:1022B000EFFA0AD2FA490020C4E91001A064E064F0
:1022C000A06960625720E88703E2BBF1030F0AD1DF
:1022D000F4480078012806D0002121646164F248A6
:1022E000C4E91210F5E1002121646164A164E16494
:1022F0006D20E887EDE131B9D9F80010C164D9F853
:1023000004100165EA71E9490022C4E91021A264C0
:10231000E2640646D9F80010C06C401AFEF73AFA9B
:102320001BF079FC00225346FEF7CAFA0CD3D9F809
:102330000400316D081AFEF72DFA1BF06CFC002228
:102340005346FEF7BDFA9DD2002121646164A16469
:10235000E1640020E8716A20E887BAE13046FEF7C0
:1023600019FA814600911BF056FC00225B46FEF7ED
:102370008FFA03D906F186005E2802D26E20E88724
:10238000A7E1484600991BF046FC00225346FEF7A1
:1023900097FA02D9333E542E02D26F20E88798E193
:1023A000A0696062A5F83E8093E12B3E052E0AD21B
:1023B000BB490020C4E91001A064E064A069606228
:1023C000A5F83E8085E1BBF1030F09D1012B07D0B1
:1023D000002121646164B6490020C4E9120178E15A
:1023E000002121646164A164E1647120E88770E1E7
:1023F00031B9D9F80010C164D9F804100165EA7147
:10240000AA490022C4E91021A264E2640646D9F870
:102410000010C06C401AFEF7BDF91BF0FCFB002257
:102420005346FEF74DFA0CD3D9F80400316D081A63
:10243000FEF7B0F91BF0EFFB00225346FEF740FA1F
:1024400008D2002121646164A164E1640020E87184
:102450006E20E8873DE12B3E052E0AD290480021F0
:10246000C4E91010A164E164A0696062A5F83E802F
:102470002FE1BBF1030F09D1012B07D0002020640D
:10248000606489480021C4E9121022E1002121641E
:102490006164A164E1647220E8871AE131B9D9F876
:1024A0000010C164D9F804100165EA717F49002267
:1024B000C4E91021A264E2640646D9F80010C06C99
:1024C000401AFEF767F91BF0A6FB00225346FEF701
:1024D000F7F90CD3D9F80400316D081AFEF75AF950
:1024E0001BF099FB00225346FEF7EAF908D20020C0
:1024F000206460640021A164E164E8716F20E887D2
:10250000E7E03046FEF746F9894680461BF083FB3C
:102510000022684BFEF7BCF902D27320E887D8E0AE
:10252000404649461BF077FB0022634BFEF7C8F993
:1025300002D35F360A2E02D87420E887C9E0A0696A
:1025400060625720E887C4E0583E052E0AD25448FE
:102550000021C4E91010A164E164A0696062572001
:10256000E887B6E0BBF1030F08D1012B06D00021AC
:10257000216461644E48C4E91210AAE0002121647C
:102580006164A164E1647620E887A2E031B9D9F8FA
:102590000010C164D9F804100165EA7143490022B2
:1025A000C4E91021A264E2640646D9F80010C06CA8
:1025B000401AFEF7EFF81BF02EFB00225346FEF701
:1025C0007FF90CD3D9F80400316D081AFEF7E2F850
:1025D0001BF021FB00225346FEF772F979D200214D
:1025E00021646164A164E1640020E8717320E887DC
:1025F0006FE0583E052E0AD229480021C4E9101088
:10260000A164E164A06960625720E88761E0BBF1E2
:10261000030F08D1012B06D00021216461642248F8
:10262000C4E9121055E0002121646164A164E164F1
:102630007720E8874DE031B9D9F80010C164D9F8A6
:1026400004100165EA7119490022C4E91021A2644D
:10265000E2640646D9F80010C06C401AFEF79AF8FA
:102660001BF0D9FA00225346FEF72AF90CD3D9F809
:102670000400316D081AFEF78DF81BF0CCFA002229
:102680005346FEF71DF924D2002121646164A16440
:10269000E1640020E8717420E8871AE00000084037
:1026A00000C072407400002000004EC000C072C024
:1026B00000004E400040554000C0574000212164BA
:1026C0006164A164E164012700202874E8736874E0
:1026D000E8873846BDE8FC9F2DE9F05F04460E46CA
:1026E0004FF00008A068642190FBF1F5DFF8E4A149
:1026F00000275146BAF94000CA7901F580790123D3
:102700008031DFF8D4B143283ED003DC38B1422811
:102710000CD10CE0442870D04728F9D1A1E0D9F8B9
:102720001C00C9F820004220AAF84000CFE0032E88
:102730001DD16A480078012819D0D9E90701401A4B
:10274000FEF728F81BF067FA0022654BFEF7B8F891
:1027500011D20021C9F84010C9F84410C9F8481036
:10276000C9F84C10AAF840704FF00108AFE04320C0
:10277000AAF84000ABE05B480021C9E91010C9F895
:102780004810C9F84C10A2E02AB92068C8646068F3
:1027900008658AF8073054480022C9E91020C9F8B2
:1027A0004820C9F84C200E462068C96C081AFDF76D
:1027B000F1FF1BF030FA00225B46FEF781F80BD3E5
:1027C0006068316D081AFDF7E5FF1BF024FA00225E
:1027D0005B46FEF775F87AD20021C9F84010C9F8B7
:1027E0004410C9F84810C9F84C108AF80770F5650C
:1027F0004420AAF840006AE0FFE7C86D401BFDF7DF
:10280000C9FF1BF008FA0022384BFEF759F810D226
:102810000021C9F84010C9F84410C9F84810C9F897
:102820004C10D9F81C00C9F820004220AAF840003A
:102830004DE0032E0CD00021C9F84010C9F8441017
:10284000C9F84810C9F84C104720AAF840003EE0EB
:102850000021C9F84010C9F844102548C9E91210F0
:1028600035E02AB92068C864606808658AF80730CE
:102870001D480022C9E91020C9F84820C9F84C2099
:102880000E462068C96C081AFDF784FF1BF0C3F9D7
:1028900000225B46FEF714F80BD36068316D081A0E
:1028A000FDF778FF1BF0B7F900225B46FEF708F84A
:1028B0000DD20021C9F84010C9F84410C9F84810D9
:1028C000C9F84C108AF807704420AAF84000404626
:1028D000BDE8F09F8000002000003440740000201C
:1028E00000F08D4000C0724000C072C000003E4049
:1028F00000004E402DE9F04F8DB000210B910126D4
:102900000A91099108910791002341F288324FF40E
:10291000C87492FBF4F149B2029192FBF4F149B20E
:102920000191016865421144A94203DD40681044E9
:10293000A84203DC00200DB0BDE8F08F91FBF4F15C
:102940004FFA81FA90FBF4F04FFA80FBB64991F808
:10295000250018B10C20029018200190B24891F87F
:102960002320807832B128B191F82720012A0FD096
:102970001822029291F8241011B108B100200190A0
:102980000024DFF8A8E2002C05DD4FF0010804E088
:1029900000220292EEE74FF000080021DFF890C21B
:1029A000002001EBC10202EB01120CEB82052A1898
:1029B000977DFA2F08D0927D32B1401C40B2642836
:1029C000F5DB23B1002306E00A910123F9E7491C56
:1029D00049B26429E4DB0A98A0EB0409B9F1030FBA
:1029E00006DD4FEAE97009EB90708010401E00E0B0
:1029F000002040B206906321002001EBC10202EBEF
:102A000001120CEB82073A18957DFA2D08D0927DC1
:102A100032B1401C40B26428F5DB23B1002306E04C
:102A200009910123F9E7491E49B20029E4DA09981E
:102A3000001B602805DAC11700EB91708010401C64
:102A400000E0182040B205900021002000EBC002F9
:102A500002EB00120CEB82020A44957DFA2D08D09D
:102A6000927D32B1401C40B26428EFDB23B10023D9
:102A700006E008910123F9E7491C49B26429E4DB27
:102A80000898032806DD4FEAE97009EB9070801082
:102A9000401E00E0002040B204906321002000EBC3
:102AA000C00202EB0015624A02EB85020A44957DE2
:102AB000FA2D08D0927D32B1401C40B26428EEDB82
:102AC00023B1002306E007910123F9E7491E49B22B
:102AD0000029E3DA07985F2801DD182005E0079850
:102AE000C11700EB91708010401C40B20390002190
:102AF000C8F119000C9075E00598814202D0069843
:102B000081421BD1002001EBC102002502EB011222
:102B100001277244514501D1584507D0DDF808C05E
:102B2000614505D1DDF804C0604501D1155400E0D0
:102B30001754401C40B21928ECDB51E00020049AE5
:102B4000904202D0039A904207D101EBC10505EBF8
:102B50000115754401222A543EE000254FF0640916
:102B6000002202EB8507274497FBF9FC09FB1C7741
:102B700007EBC70C0CEB071C2D4F07EB8C0C02EB83
:102B8000800797FBF9F809FB18776744BF7D8FB181
:102B9000521C52B2042AE4DB1EB16D1C6DB2042D2E
:102BA000DEDB4EB101EBC10505EB011575440022DA
:102BB0002A5411E00026EFE7544501D158452AD0A8
:102BC000192C01D1192826D001EBC10505EB0115FF
:102BD000754401222A540126401C40B21928AEDB5C
:102BE000491C49B20C98884286DC641C64B2042CEF
:102BF000FFF6C9AE01980BF0FF02C0B20090029838
:102C00000AF0FF01C3B209481AF0C6FD1BF026FD09
:102C10000B98C0B28FE601EBC10505EB01157544B9
:102C200000222A54D7E7000080000020E06800203E
:102C30001807002010B501201CF012FF014948615F
:102C400010BD0000000000207FB500241A48CDE927
:102C500001040121CA0200912346039417A11B48D5
:102C60001CF0D4FF144802210C38CDE901040A02FB
:102C700000910023039416A119481CF0C7FF0E48C9
:102C800003210838CDE901044FF480650091002349
:102C90002A46039413A117481CF0B8FF06480421E4
:102CA000001FCDE90104009100232A46039412A1DC
:102CB00015481CF0ABFF7FBD1000002076546173F7
:102CC0006B4D617070696E670000000095F501083A
:102CD000765461736B4465636973696F6E000000BD
:102CE00015F50108765461736B436F6E74726F6CE7
:102CF00000000000A5F40108765461736B50657202
:102D000063657074696F6E006DF6010800B593B06D
:102D100014221D4906A8FDF78BFA14221A49143112
:102D200001A8FDF785FA05F035FB00282AD12021FE
:102D30000BA807F043FD06A90BA805F053FC0028DB
:102D400020D1142106A8FDF78CFA20210BA807F04A
:102D500035FD06AA20210BA805F0CAFA002811D1DA
:102D600001AB01AA20210BA80CF0B2F9142201A991
:102D700006A8FDF781FAC0B2002803D105F07CFB5C
:102D80000028FFD113B000BD84FF010810A41B4E22
:102D90004FF461652946304612F094FB29463046CF
:102DA00012F092FB2946304612F090FB294630463D
:102DB00012F08EFB0020124B191F225C1A800A8829
:102DC0005206FCD5401CC0B22928F6D3FEE700000D
:102DD0000D0A456E74657220486172644661756CB7
:102DE000745F48616E646C65722C205379737465EE
:102DF0006D2048616C742E0D0A000000002C01400B
:102E0000044400402DE9F04105462C2200214148B0
:102E10000CF0F0F9404E3F4C21213078943C40F0CA
:102E20000500207020461AF0FFFA7070002852D179
:102E3000A178C1F3810201F0030025B10223B3EBB5
:102E4000911F47D106E063783B2B43D10B0641D459
:102E50004B063FD5032A3DD0304B2E4D2F4E9B5C69
:102E60006B702E4B383303EB82031B5CAB702B4B28
:102E7000443303EB820350361B5C06EBC2022B701B
:102E800032F81000A880C80601D510332B70082234
:102E9000611CA81D0CF0A4F91E49607A85F82B006E
:102EA0008A39072201F198000CF09AF91949062293
:102EB000833901F198000CF093F9002220201826A4
:102EC0000121D307A0EB5203E35C06D0F02747EAC9
:102ED000131304E00420BDE8F08143F0F003AF18C1
:102EE000FB76A6EBD20302F00707E35C01FA07F7D3
:102EF0003B4201D0FF2700E0EF27AB18521C93F8AC
:102F00001BC0D2B207EA0C07DF76102AD9D3002003
:102F1000E1E700005CD90020B8020020F2FF0108C0
:102F200070B516460C46054610F08EFF08210D4878
:102F300010F0A8FF10210C4810F0A4FF0948072149
:102F4000083010F09FFF08481821183810F09AFF39
:102F50002146284610F096FF3046BDE8704010F03C
:102F600051BF000062D90020DC0200200EB51049DC
:102F700004236A46A1F108000CF044F90C4904232B
:102F80000DF10602083168460CF03CF908490423AB
:102F9000091D6A46A1F108000CF034F968460223C5
:102FA00001AA811C0CF02EF901A80CF039F90EBD14
:102FB000D0D800202DE9F84F04468A460026A068A4
:102FC000642190FBF1F00090DFF8EC93FB4B484656
:102FD000D9F8642000250121C0791B7809F1800807
:102FE000F74F08F1800BB2F5377F74D023DC40F245
:102FF000D62EA2F2D62C72456ED014DC40F2D32E1F
:10300000A2F2D32C724568D006DC02B31CF1020296
:1030100069D0012A4FD1A6E0BCF1010F7ED0BCF1EE
:10302000020FF7D120E1BCF1060F44D2DFE80CF02B
:1030300043FCFBFAF9F8A2F2DD220B2AF5D2DFE815
:1030400002F0FEFDFCFBFAF9F8F7F6F5F40050B9D2
:10305000BAF1030F30D02068C8F84C006068C8F897
:10306000500089F80710D7480021CBE91010CBF8A1
:103070004810CBF84C102068D8F84C10081AFDF70F
:1030800089FB1AF0C8FD00223B46FDF719FC0CD362
:103090006068D8F85010081AFDF77CFB1AF0BBFDE9
:1030A00000223B46FDF70CFCBFD240F2D120C9F80C
:1030B000640089F80750CDE30098FDF76BFB1AF028
:1030C000AAFD0022C04BFDF7E3FB07D240F2D2205D
:1030D000C9F86400BEE3F5E1EAE055E040F2DD2026
:1030E000C9F86400B6E338B92068C8F84C006068D5
:1030F000C8F8500089F80710B2480021CBE9101039
:10310000DA46CAF84810CAF84C102068D8F84C10B3
:10311000081AFDF73FFB1AF07EFD00E057E00022A1
:103120003B46FDF7CDFBC6D20021CAF84010CAF8D5
:103130004410CAF84810CAF84C100098FDF72AFB52
:103140001AF069FD0022A04BFDF7A2FB04D240F269
:10315000D220C9F8640003E040F2DD20C9F8640021
:1031600089F8075076E30021CBF84010CBF84410E3
:10317000CBF84810CBF84C106068C8F8440040F217
:10318000D320C9F8640065E30021CBF84010CBF8E8
:1031900044108E48CBE9121000984B2808DDCBF87C
:1031A0004810CBF84C1040F2D520C9F8640051E328
:1031B000BAF1030F01D1012B8CD10021CBF84810BB
:1031C000CBF84C104FF43570C9F8640042E338B9BD
:1031D0002068C8F84C006068C8F8500089F80710EB
:1031E00078480021CBE91010DA46CAF84810CAF82E
:1031F0004C102068D8F84C10081AFDF7CBFA1AF0DA
:103200000AFD00223B46FDF75BFB1DD36068D8F842
:103210005010081AFDF7BEFA1AF0FDFC00220FE06C
:1032200014E1E7E0E2E09FE062E010E3BFE292E257
:103230008DE259E21CE2EFE1CAE18DE157E145E19F
:103240003B46FDF73DFB8DD20021CAF84010CAF87D
:103250004410CAF84810CAF84C1089F8075040F2D8
:10326000D320C9F86400F5E259480021CBE91010D9
:10327000CBF84810CBF84C10BAF1030F13D1012B47
:1032800011D06068D8F84410081AFDF783FA1AF0D4
:10329000C2FC00224F4BFDF713FB88D240F2D62030
:1032A000C9F86400D6E240F2D620C9F86400D1E241
:1032B0000021CBF84010CBF8441044490020CBE962
:1032C00012010098552809DD0021CBF84810CBF8F1
:1032D0004C104FF43670C9F86400BBE2BAF1030F2A
:1032E00001D1012BBFD140F2D720C9F86400B1E26F
:1032F00038B92068C8F84C006068C8F8500089F8F0
:10330000071030480021CBE91010DA46CAF84810FF
:10331000CAF84C102068D8F84C10081AFDF73AFA91
:103320001AF079FC00223B46FDF7CAFA0CD360681C
:10333000D8F85010081AFDF72DFA1AF06CFC00228C
:103340003B46FDF7BDFA8ED20021CAF84010CAF8FC
:103350004410CAF84810CAF84C1089F8075040F2D7
:10336000D620C9F8640075E219480021CBE9101095
:10337000CBF84810CBF84C10BAF1030F2CD1012B2D
:103380002AD06068D8F84410081AFDF703FA1AF03A
:1033900042FC00220F4BFDF793FA88D20021CBF8B4
:1033A0004010CBF84410CBF84810CBF84C1040F24A
:1033B000DA20C9F864004DE280000020740000208B
:1033C0000000244000C072C00080564000004E4003
:1033D00000C07240008061400021CBF84010CBF863
:1033E000441040F2D920C9F8640033E2C9F86450AF
:1033F00002262FE20020CBF84000CBF84400FE4923
:10340000CBE912010098FDF7C5F91AF004FC00227F
:10341000FA4BFDF755FA0DD20021CBF84010CBF84E
:103420004410CBF84810CBF84C104FF43770C9F863
:1034300064000FE2BAF1030F03D1F14800780128CC
:1034400091D140F2DB20C9F8640003E238B920686A
:10345000C8F84C006068C8F8500089F80710E948BF
:103460000021CBE91010DA46CAF84810CAF84C100F
:103470002068D8F84C10081AFDF78CF91AF0CBFB2D
:1034800000223B46FDF71CFA0CD36068D8F85010B8
:10349000081AFDF77FF91AF0BEFB00223B46FDF744
:1034A0000FFA88D20021CAF84010CAF84410CAF8AE
:1034B0004810CAF84C1089F8075040F2DA20C9F8D1
:1034C0006400C7E1C9F864500126C3E10021CBF8CC
:1034D0004010CBF84410CBF84810CBF84C10606883
:1034E000C8F8440040F2DE20C9F86400B2E10021CF
:1034F000CBF84010CBF84410C348CBE91210009829
:10350000FDF748F91AF087FB0022C04BFDF7C0F920
:103510000DD20021CBF84010CBF84410CBF8481066
:10352000CBF84C104FF43870C9F8640092E1BAF14E
:10353000030F03D1B2480078012886D10021CBF8CF
:103540004010CBF84410CBF84810CBF84C1040F2A8
:10355000DF20C9F864007DE138B92068C8F84C0064
:103560006068C8F8500089F80710A6480021CBE928
:103570001010DA46CAF84810CAF84C102068D8F87B
:103580004C10081AFDF706F91AF045FB00223B46DD
:10359000FDF796F90CD36068D8F85010081AFDF7BB
:1035A000F9F81AF038FB00223B46FDF789F988D27A
:1035B0000021CAF84010CAF84410CAF84810CAF8E6
:1035C0004C1089F8075040F2DE20C9F8640041E150
:1035D0008F480021CBE91010CBF84810CBF84C10E5
:1035E000BAF1030F13D1012B11D06068D8F8441041
:1035F000081AFDF7CFF81AF00EFB0022854BFDF7F5
:103600005FF903D240F2E120C9F8640022E140F200
:10361000E120C9F864001DE10021CBF84010CBF88F
:1036200044107948CBE912100098FDF7B3F81AF06E
:10363000F2FA0022784BFDF72BF90DD20021CBF8DE
:103640004010CBF84410CBF84810CBF84C1040F2A7
:10365000E320C9F86400FDE0BAF1030F03D1684824
:103660000078012803D140F2E220C9F86400F1E0BB
:1036700038B92068C8F84C006068C8F8500089F86C
:10368000071060480021CBE91010DA46CAF848104C
:10369000CAF84C102068D8F84C10081AFDF77AF8D0
:1036A0001AF0B9FA00223B46FDF70AF90CD360681C
:1036B000D8F85010081AFDF76DF81AF0ACFA00228D
:1036C0003B46FDF7FDF80ED20021CAF84010CAF8BB
:1036D0004410CAF84810CAF84C1089F8075040F254
:1036E000E120C9F86400B5E049480021CBE9101099
:1036F000CBF84810CBF84C10BAF1030F1DD1012BB9
:103700001BD06068D8F84410081AFDF743F81AF087
:1037100082FA00223F4BFDF7D3F80DD20021CBF8FF
:103720004010CBF844100020CBF84800CBF84C00F8
:1037300040F2E520C9F864008CE00021CBF840108D
:10374000CBF844104FF43970C9F8640082E0C9F82E
:10375000645003267EE00021CBF84010CBF84410E3
:103760002948CBE912100098FDF714F81AF053FA23
:1037700000222A4BFDF78CF80DD20021CBF8401027
:10378000CBF84410CBF84810CBF84C1040F2E720AF
:10379000C9F864005EE0BAF1030F03D1184800785D
:1037A000012857D140F2E620C9F8640052E038B948
:1037B0002068C8F84C006068C8F8500089F8071005
:1037C00010480021CBE91010CBF84810CBF84C1072
:1037D0002068D8F84C10081AFCF7DCFF1AF01BFA26
:1037E00000223B46FDF76CF821D36068D8F85010F2
:1037F000081AFCF7CFFF13E000004E4000E06540E0
:103800007400002000C072C000004EC000405A404A
:1038100000C072400080614000C05740000014406A
:103820001AF0F9F900223B46FDF74AF812D20021BE
:10383000CBF84010CBF84410CBF84810CBF84C1024
:1038400089F8075040F2E520C9F8640002E0C9F8A1
:10385000645001263046BDE8F88F00002DE9F84F8E
:10386000044688460026A068642190FBF1F0009091
:10387000DFF8F093FC4B4846D9F86420002501217D
:10388000C0791B78F94F09F1800A09F5807BB2F500
:10389000B67F72D021DCB2F5B37F6FD014DC40F27A
:1038A000631EA2F2631C724569D006DC0AB31CF1E8
:1038B00002026AD0012A50D1A7E0BCF1010F7DD0ED
:1038C000BCF1020FF7D122E1A2F26712052A44D21D
:1038D000DFE802F0FCFBFAF9F800A2F26D120B2A05
:1038E000F5D2DFE802F0FEFDFCFBFAF9F8F7F6F599
:1038F000F40050B9B8F1030F30D02068CAF84C007A
:103900006068CAF8500089F80710D9480021CBE94F
:103910001010CBF84810CBF84C102068DAF84C1097
:10392000081AFCF737FF1AF076F900223B46FCF73D
:10393000C7FF0CD36068DAF85010081AFCF72AFFAA
:103940001AF069F900223B46FCF7BAFFBFD240F2F9
:103950006110C9F8640089F80750CFE30098FCF7BC
:1039600019FF1AF058F90022C24BFCF791FF07D259
:103970004FF4B170C9F86400C0E3FAE1ECE055E03F
:1039800040F26D10C9F86400B8E338B92068CAF88D
:103990004C006068CAF8500089F80710B44800214C
:1039A000CBE91010D846C8F84810C8F84C10206869
:1039B000DAF84C10081AFCF7EDFE00E05AE01AF0B5
:1039C0002AF900223B46FCF77BFFC6D20021C8F84B
:1039D0004010C8F84410C8F84810C8F84C100098B7
:1039E000FCF7D8FE1AF017F90022A24BFCF750FFA3
:1039F00004D24FF4B170C9F8640003E040F26D10D6
:103A0000C9F8640089F8075078E30021CBF840102A
:103A1000CBF84410CBF84810CBF84C106068CAF8CB
:103A2000440040F26310C9F8640067E30021CBF85A
:103A30004010CBF844109048CBE91210009810F1D8
:103A40004B0F08DACBF84810CBF84C1040F2651059
:103A5000C9F8640052E3B8F1030F01D1012B8BD1F7
:103A60000021CBF84810CBF84C104FF4B270C9F8D5
:103A7000640043E338B92068CAF84C006068CAF8AB
:103A8000500089F807107A480021CBE91010D84679
:103A9000C8F84810C8F84C102068DAF84C10081A1A
:103AA000FCF778FE1AF0B7F800223B46FCF708FF57
:103AB0001DD36068DAF85010081AFCF76BFE1AF094
:103AC000AAF80FE018E1EBE0E6E0A1E063E012E322
:103AD000C1E294E28FE25CE21FE2F6E1D0E193E121
:103AE0005DE14AE100223B46FCF7EAFE8CD2002170
:103AF000C8F84010C8F84410C8F84810C8F84C106E
:103B000089F8075040F26310C9F86400F6E25B4898
:103B10000021CBE910100020CBF84800CBF84C0076
:103B2000B8F1030F13D1012B11D06068DAF84410FB
:103B3000081AFCF72FFE1AF06EF80022504BFCF723
:103B4000BFFE87D24FF4B370C9F86400D6E24FF4D9
:103B5000B370C9F86400D1E20021CBF84010CBF873
:103B600044104548CBE91210009810F1520F08DAC2
:103B7000CBF84810CBF84C104FF4B470C9F864007F
:103B8000BCE2B8F1030F01D1012BBFD140F26710A5
:103B9000C9F86400B2E238B92068CAF84C0060681D
:103BA000CAF8500089F8071031480021CBE91010FD
:103BB000D846C8F84810C8F84C102068DAF84C10FD
:103BC000081AFCF7E7FD1AF026F800223B46FCF73E
:103BD00077FE0CD36068DAF85010081AFCF7DAFDAB
:103BE0001AF019F800223B46FCF76AFE8ED200213B
:103BF000C8F84010C8F844100020C8F84800C8F8B9
:103C00004C0089F807504FF4B370C9F8640075E2AE
:103C10001A480021CBE91010CBF84810CBF84C1013
:103C2000B8F1030F2ED1012B2CD06068DAF84410C4
:103C3000081AFCF7AFFD19F0EEFF0022104BFCF75D
:103C40003FFE88D20021CBF84010CBF84410002072
:103C5000CBF84800CBF84C004FF4B570C9F86400BD
:103C60004CE200008000002074000020000024408E
:103C700000C072C00080564000004EC000C07240BC
:103C8000008061400021CBF84010CBF8441040F296
:103C90006910C9F8640031E2C9F8645002262DE2C7
:103CA0000020CBF84000CBF84400FE49CBE91201DC
:103CB0000098FCF76FFD19F0AEFF0022FA4BFCF7FD
:103CC000FFFD0DD20021CBF84010CBF84410CBF80B
:103CD0004810CBF84C104FF4B670C9F864000DE2F0
:103CE000B8F1030F03D1F148007801288FD140F2D9
:103CF0006B10C9F8640001E238B92068CAF84C00BA
:103D00006068CAF8500089F80710E9480021CBE93B
:103D10001010D846C8F84810C8F84C102068DAF8D7
:103D20004C10081AFCF736FD19F075FF00223B46CF
:103D3000FCF7C6FD0CD36068DAF85010081AFCF7DF
:103D400029FD19F068FF00223B46FCF7B9FD87D238
:103D50000020C8F84000C8F844000021C8F8481006
:103D6000C8F84C1089F807504FF4B570C9F86400D2
:103D7000C4E1C9F864500126C0E10020CBF840003E
:103D8000CBF844000021CBF84810CBF84C10606809
:103D9000CAF844004FF4B770C9F86400AEE10021DE
:103DA000CBF84010CBF84410C248CBE91210009871
:103DB000FCF7F0FC19F02FFF0022BF4BFCF768FD69
:103DC0000DD20021CBF84010CBF84410CBF84810AE
:103DD000CBF84C104FF4B870C9F864008EE1B8F11C
:103DE000030F03D1B1480078012884D10021CBF81A
:103DF0004010CBF84410CBF84810CBF84C1040F2F0
:103E00006F10C9F8640079E138B92068CAF84C002D
:103E10006068CAF8500089F80710A5480021CBE96E
:103E20001010D846C8F84810C8F84C102068DAF8C6
:103E30004C10081AFCF7AEFC19F0EDFE00223B46D0
:103E4000FCF73EFD0CD36068DAF85010081AFCF756
:103E5000A1FC19F0E0FE00223B46FCF731FD87D2C1
:103E60000021C8F84010C8F84410C8F84810C8F835
:103E70004C1089F807504FF4B770C9F864003DE161
:103E80008E490020CBE910010021CBF84810CBF877
:103E90004C10B8F1030F13D1012B11D06068DAF880
:103EA0004410081AFCF776FC19F0B5FE0022844B8A
:103EB000FCF706FD03D240F27110C9F864001DE161
:103EC00040F27110C9F8640018E10021CBF84010ED
:103ED000CBF844107748CBE912100098FCF75AFC55
:103EE00019F099FE0022774BFCF7D2FC0DD200218D
:103EF000CBF84010CBF84410CBF84810CBF84C105E
:103F000040F27310C9F86400F8E0B8F1030F03D071
:103F10004FF4B970C9F86400F0E038B92068CAF805
:103F20004C006068CAF8500089F80710604800210A
:103F3000CBE91010CBF84810CBF84C102068DAF819
:103F40004C10081AFCF726FC19F065FE00223B46CF
:103F5000FCF7B6FC0CD36068DAF85010081AFCF7CE
:103F600019FC19F058FE00223B46FCF7A9FC0FD2C1
:103F70000020CBF84000CBF844000021CBF84810DB
:103F8000CBF84C1089F8075040F27110C9F8640062
:103F9000B4E04A480021CBE91010CBF84810CBF828
:103FA0004C10B8F1030F1CD1012B1AD06068DAF85D
:103FB0004410081AFCF7EEFB19F02DFE0022404BCE
:103FC000FCF77EFC0CD20021CBF84010CBF844105B
:103FD000CBF84810CBF84C1040F27510C9F86400CB
:103FE0008CE00020CBF84000CBF844004FF4BA70CE
:103FF000C9F8640082E0C9F8645003267EE000211D
:10400000CBF84010CBF844102A48CBE912100098A6
:10401000FCF7C0FB19F0FFFD00223B46FCF738FC23
:104020000DD20021CBF84010CBF84410CBF848104B
:10403000CBF84C104FF4B670C9F864005EE0B8F1EC
:10404000030F03D119480078012857D14FF4BB70F2
:10405000C9F8640052E038B92068CAF84C006068BA
:10406000CAF8500089F8071011480021CBE9101058
:104070000020CBF84800CBF84C002068DAF84C1050
:10408000081AFCF787FB19F0C6FD00223B46FCF737
:1040900017FC20D36068DAF85010081AFCF77AFB96
:1040A00012E0000000004EC000A065407400002037
:1040B00000C072C000004E4000405A4000C0724034
:1040C000008061400040574019F0A5FD00223B46AA
:1040D000FCF7F6FB12D20021CBF84010CBF84410CD
:1040E000CBF84810CBF84C1089F8075040F2751007
:1040F000C9F8640002E0C9F8645002263046BDE801
:10410000F88F00002DE9F84F04468B460020009000
:10411000A068642190FBF1F9FE4DFF4928462A6E04
:1041200040F2A62CC07909780127A2F2A6234FF00D
:10413000000805F1800A05F5807662457ED036DC00
:1041400040F29A2CA2F29A23624578D01FDC40F20A
:10415000952CA2F29523624572D00FDC40F2922397
:10416000A2F292219A426CD003DC1AB34A1C69D1A4
:104170008DE0012967D00229F9D1FEE0012B7DD025
:10418000022B7CD0032B7BD0042BF0D1DAE30C2B59
:1041900058D2DFE813F05700430582055700570057
:1041A000C60533068B03AF0300021A04D302142B97
:1041B000EED200E015E0DFE813F045001E034203F5
:1041C000260658018201C90132064B068006A9065F
:1041D000C506F906220727074C0781077B04D00490
:1041E000DA0548B9BBF1030F34D02068CAF84C0097
:1041F0006068CAF85000EF71C8490020C6E9100194
:10420000B064F0642068DAF84C10081AFCF7C2FABF
:1042100019F001FDC24E00223346FCF751FB0CD3CE
:104220006068DAF85010081AFCF7B4FA19F0F3FCD9
:1042300000223346FCF744FBAAD205E0A4E2FCE3EB
:10424000CFE067E025E26EE040F29120286685F835
:1042500007801EE22068CAF83C006068CAF8440083
:104260004846FCF797FA19F0D6FC0022AD4BFCF754
:1042700027FB06D240F2A320286605E0BDE0A8E3B4
:10428000EDE340F2A920286685F82C70E1E730B90B
:104290002068CAF84C006068CAF85000EF719F4966
:1042A0000020C6E910010021B164F1642068DAF849
:1042B0004C10081AFCF76EFA19F0ADFC9A4F002268
:1042C0003B46FCF7FDFA0CD36068DAF85010081A88
:1042D000FCF760FA19F09FFC00223B46FCF7F0FA6D
:1042E000B7D2002131647164B164F1644846FCF7CF
:1042F00051FA19F090FC00228A4BFCF7E1FA03D244
:1043000040F29220286602E040F2A920286685F853
:1043100007809EE7002131647164B164F16440F26A
:104320009320286695E70020306470647F48002160
:10433000C6E912104846FCF72DFA19F06CFC002271
:104340007B4BFCF7A5FA08D2002131647164B1649B
:10435000F16440F2952028667BE7BBF1030F03D19F
:104360006D480078012891D1002131647164B164F5
:10437000F1644FF4257028666BE730B92068CAF8FD
:104380004C006068CAF85000EF7164480021C6E92B
:104390001010B164F1642068DAF84C10081AFCF7C8
:1043A000F9F919F038FC5E4F00223B46FCF788FA19
:1043B0000CD36068DAF85010081AFCF7EBF919F022
:1043C0002AFC00223B46FCF77BFAA2D20021316492
:1043D0007164B164F16485F8078040F29320286627
:1043E00037E7CAF858806068CAF844002068CAF8FD
:1043F000400040F2962028662BE72068CAF83C006F
:10440000DAF85800401CCAF858004A490022C6E9A8
:104410001021B264F264012823DD2068DAF840102C
:10442000081AFCF7B7F919F0F6FB3F4E00223346A5
:10443000FCF72EFA15D26068DAF84410081AFCF777
:10444000A9F919F0E8FB00223346FCF721FA08D25B
:10445000CAF858806068CAF8440040F2AA2028666A
:10446000F7E640F2A3202866F3E600213164716488
:104470002E48C6E912104846FCF78CF919F0CBFB20
:104480000022284BFCF704FA08D200203064706444
:10449000B064F0644FF42B702866DAE6BBF1030FCA
:1044A00003D11D48007801289AD10021316471643C
:1044B0000020B064F06440F2AB202866C9E630B951
:1044C0002068CAF84C006068CAF85000EF711348C1
:1044D0000021C6E91010B164F1642068DAF84C10CC
:1044E000081AFCF757F919F096FB0D4F00223B46CE
:1044F000FCF7E6F90CD36068DAF85010081AFCF7FC
:1045000049F919F088FB00223B46FCF7D9F9A7D2FC
:10451000002011E0800000207400002000C072C064
:1045200000002440008056400000344000004EC08F
:1045300000C0624000C0724030647064B064F064D7
:1045400085F8078040F2AA20286682E6FE4800220D
:10455000C6E91020B264F264BBF1030F12D1012945
:1045600010D06068DAF84410081AFCF713F919F053
:1045700052FB0022F54BFCF7A3F98ED240F29F20AC
:10458000286666E60021316471644FF45E70A866A7
:10459000C5F860805DE6BBF1000F10D06068DAF806
:1045A0004410081AFCF7F6F819F035FB0022E84B26
:1045B000FCF786F907D240F2A120286649E640F2CE
:1045C0009720286645E6BBF1020F15D0BBF1010F1D
:1045D00012D0E048007801280ED06068DAF8441064
:1045E000401C88420FDA002131647164B164F164C7
:1045F00040F2A52028662CE66068CAF8440040F224
:10460000AA20286625E62068FCF7C4F819F003FB09
:104610000022D14BFCF754F903D24FF428702866DE
:1046200017E64846FCF7B6F88B46814619F0F3FAD0
:104630000022CA4BFCF72CF903D240F2A7202866CF
:1046400007E695F82C00E0B34846594619F0E3FA1E
:104650000022C34BFCF734F955D2C248C24BC349C0
:1046600002689A4205DC42688A4202DC82688A4219
:1046700010DDBF4A0023C6E91032BE4AC6E9123235
:104680008068884286DD002131647164BA48C6E9D9
:10469000121005E2006AB949B94A0144914208D2B0
:1046A00085F82D80B74A0021C6E910120022B264B5
:1046B000F264B54988420ADB85F82D800022B149B1
:1046C00000E020E0C6E91021B049C6E91221AB495B
:1046D000C94388428FDA95F82D000A280AD2401C77
:1046E00085F82D00A7480021C6E91010A848C6E9A2
:1046F0001210D5E1A7490020C6E91001A648002103
:10470000C6E91210CCE12068DAF83C10081AFCF770
:1047100041F819F080FA0022A04BFCF7D1F805D23D
:1047200085F82C7040F29A202866B9E1864900206D
:10473000C6E910010021B164F164B1E1BBF1030FDE
:1047400016D1012914D04846FCF724F819F063FA71
:104750000022934BFCF7B4F80ED20021316471644F
:104760000020B064F0646F724FF42870286697E1FF
:1047700040F2A620286693E10021316471647E49ED
:104780000020C6E912018BE130B92068CAF84C005C
:104790006068CAF85000EF7182480021C6E9101025
:1047A0000020B064F0642068DAF84C10081AFBF7B7
:1047B000F1FF19F030FADFF8D89100224B46FCF7F0
:1047C0007FF80CD36068DAF85010081AFBF7E2FFA4
:1047D00019F021FA00224B46FCF772F889D2002129
:1047E00031647164B164F1646F7240F2A52028668F
:1047F00085F8078054E1BBF1030F15D1012913D0CF
:104800004846FBF7C7FF19F006FA0022664BFCF793
:104810003FF80DD2002131647164B164F1646F72AC
:104820004FF4287028663BE14FF42A70286637E180
:104830000021316471645048C6E9121030E130B98A
:104840002068CAF84C006068CAF85000EF715548FB
:104850000021C6E910100020B064F0642068DAF886
:104860004C10081AFBF796FF19F0D5F9DFF82091E4
:1048700000224B46FCF724F80CD36068DAF850109D
:10488000081AFBF787FF19F0C6F900224B46FCF720
:1048900017F8AFD2002131647164B164F1646F72B2
:1048A00040F2A720286685F80780F9E0BBF1030FE6
:1048B00015D1012913D04846FBF76CFF19F0ABF96D
:1048C0000022394BFBF7E4FF0DD200213164716403
:1048D000B164F1646F724FF429702866F2E340F21C
:1048E000A2202866EEE30021316471642248C6E903
:1048F0001210E7E330B92068CAF84C006068CAF8C3
:104900005000EF7127480021C6E91010B164F1642E
:104910002068DAF84C10081AFBF73CFF19F07BF915
:10492000DFF86C9000224B46FBF7CAFF41D360686A
:10493000DAF85010081AFBF72DFF19F06CF9002275
:104940004B4633E0E8E0000000C072400080514078
:1049500000006440740000200088B340008056408E
:1049600000405A40DC0300200000FA4300004842A7
:104970000000494000804CC000004EC0FFFF37BD22
:10498000FF7FF301000069400080BB44000024C0A9
:10499000000024400000594000003440000047401F
:1049A00000E0654000C072C000001440FBF788FFC3
:1049B00094D2002131647164B164F1646F7240F289
:1049C000A120286685F807807CE34FF428702866CC
:1049D00078E330B92068CAF84C006068CAF8500023
:1049E000EF71FD480021C6E91010B164F164206840
:1049F000DAF84C10081AFBF7CDFE19F00CF9F74F56
:104A000000223B46FBF75CFF0CD36068DAF85010DD
:104A1000081AFBF7BFFE19F0FEF800223B46FBF731
:104A20004FFFD1D2002131647164B164F16485F823
:104A30000780CAF85C90484600E0C2E0FBF7AAFE97
:104A400019F0E9F80022E64BFBF73AFF03D24FF4E6
:104A50002670286636E340F29920286632E3BBF1DF
:104A6000030F15D1012913D04846FBF793FE19F027
:104A7000D2F80022DA4BFBF70BFF12D20020306491
:104A800070640021B164F16440F29620286619E355
:104A9000002131647164B164F16440F2B72028668A
:104AA00010E3002131647164CE48C6E9121009E3B5
:104AB00030B92068CAF84C006068CAF85000EF713D
:104AC000C5480021C6E91010B164F1642068DAF825
:104AD0004C10081AFBF75EFE19F09DF8BF4F00223C
:104AE0003B46FBF7EDFE0CD36068DAF85010081A6D
:104AF000FBF750FE19F08FF800223B46FBF7E0FE73
:104B0000A8D2002131647164B164F16485F8078032
:104B10004FF426702866D5E2BBF1030F12D10129AC
:104B200010D0DAF85C00A9EB0000FBF733FE19F0B7
:104B300072F80022AC4BFBF7C3FE07D240F296207E
:104B40002866BFE24FF42E702866BBE20021316474
:104B50007164A448C6E91210B4E230B92068CAF8FA
:104B60004C006068CAF85000EF719B480021C6E90C
:104B70001010B164F1642068DAF84C10081AFBF7E1
:104B800009FE19F048F8954F00223B46FBF798FEC6
:104B90000CD36068DAF85010081AFBF7FBFD19F027
:104BA0003AF800223B46FBF78BFEB4D20021316479
:104BB0007164B164F16485F8078040F29920286639
:104BC00080E24846FBF7E6FD8B46044619F023F8E1
:104BD000DFF80C8200224346FBF772FE02D3B9F1E4
:104BE000000F17DD002131647164B164F164B9F123
:104BF000000F09DD2046594619F00DF80022434602
:104C0000FBF75EFE00D2EF71CAF85C9040F29B2089
:104C1000286657E240F29620286653E2012816D013
:104C2000DAF85C00A9EB0000FBF7B4FD18F0F3FF25
:104C300000226E4BFBF744FE1ED2002131647164EA
:104C40000020B064F06440F2962028663AE24846BC
:104C5000FBF7A0FD18F0DFFF0022614BFBF718FE09
:104C60000AD285F80780002131647164B164F1646F
:104C700040F29620286625E2BBF1030F03D15C4881
:104C80000078012802D14FF4277028660020306494
:104C900070645849C6E9120114E230B92068CAF8B4
:104CA0004C006068CAF85000EF714B490020C6E91B
:104CB0001001B064F0642068DAF84C10081AFBF7B1
:104CC00069FD18F0A8FF454F00223B46FBF7F8FDB1
:104CD0000CD36068DAF85010081AFBF75BFD18F087
:104CE0009AFF00223B46FBF7EBFD92D20020306496
:104CF0007064B064F06485F80780CAF85C90484638
:104D0000FBF748FD18F087FF0022354BFBF7D8FD75
:104D100003D24FF426702866D4E140F29920286629
:104D2000D0E1BBF1030F16D1012914D04846FBF79F
:104D300031FD18F070FF00222F4BFBF7A9FD0FD2B9
:104D40000020306470640021B164F1646F724FF42C
:104D500029702866B6E140F2B92028666F72B1E189
:104D60000021316471641F48C6E91210AAE130B90C
:104D70002068CAF84C006068CAF85000EF71164805
:104D80000021C6E91010B164F1642068DAF84C1013
:104D9000081AFBF7FFFC18F03EFF104F00223B46BD
:104DA000FBF78EFD0CD36068DAF85010081AFBF799
:104DB000F1FC18F030FF00223B46FBF781FDABD23F
:104DC0000020306470640021B164F16440F29F20DF
:104DD000286685F8078075E100C072C00000244095
:104DE00000C0624000004EC000002E4000003E4067
:104DF0007400002000004E4000001440C5F86080A0
:104E0000012000905EE1002131647164B164F164BD
:104E10006068CAF8440040F2AD20286652E10022E2
:104E200032647264A948C6E91220B9F14B0F06DD5D
:104E30000021B164F16440F2AF20286642E1BBF189
:104E4000030F01D1012902D140F2AE20286639E1D9
:104E500030B92068CAF84C006068CAF85000EF7199
:104E60009B480021C6E91010B164F1642068DAF8AB
:104E70004C10081AFBF78EFC18F0CDFE954F00225F
:104E80003B46FBF71DFD0CD36068DAF85010081A9A
:104E9000FBF780FC18F0BFFE00223B46FBF710FD3D
:104EA0000AD20020306470640021B164F16485F896
:104EB000078040F2AD20286604E1BBF1030F08D063
:104EC000002131647164B164F1644FF42C70286680
:104ED000F8E06068DAF84410081AFBF75BFC18F099
:104EE0009AFE00227C4BFBF7EBFC08D200213164D8
:104EF0007164B164F1644FF42C702866E2E0774885
:104F00000021C6E91010B164F164DBE000223264D4
:104F100072646E48C6E91220B9F1550F06DD002112
:104F2000B164F16440F2B2202866CBE0BBF1030F1C
:104F300001D1012905D10021B164F16440F2B12011
:104F40002866BFE030B92068CAF84C006068CAF82B
:104F50005000EF715E480021C6E91010B164F164A1
:104F60002068DAF84C10081AFBF714FC18F053FE0E
:104F7000584F00223B46FBF7A3FC0CD36068DAF8DD
:104F80005010081AFBF706FC18F045FE00223B46BD
:104F9000FBF796FC09D2002131647164B164F164BD
:104FA00085F807804FF42C7028668BE04B48002270
:104FB000C6E91020B264F264BBF1030F18D10129D5
:104FC00016D06068DAF84410081AFBF7E3FB18F013
:104FD00022FE0022404BFBF773FC73D200203064AA
:104FE00070640021B164F1644FF42D70286669E0AB
:104FF00000213164716440F2B320286662E0C5F894
:105000006080022000905DE00021316471642F48CF
:10501000C6E912104846FBF7BDFB18F0FCFD002264
:105020002F4BFBF74DFC08D2002131647164B16451
:10503000F16440F2B620286644E0BBF1030F41D092
:10504000002131647164B164F16440F2B5202866D6
:1050500038E030B92068CAF84C006068CAF85000DF
:10506000EF711B480021C6E910100020B064F06405
:105070002068DAF84C10081AFBF78CFB18F0CBFD0F
:10508000144F00223B46FBF71BFC0CD36068DAF898
:105090005010081AFBF77EFB18F0BDFD00223B46BE
:1050A000FBF70EFC0ED2002131647164B164F1642F
:1050B00085F807804FF42D70286603E0C5F86080FE
:1050C000012000900098BDE8F88F000000004E40DD
:1050D00000C072C0000024400080614000C07240E7
:1050E00000E065402DE9F84F044689460020009015
:1050F000A068642190FBF1F7FE4DFF4928462A6E17
:10510000C0790978DFF8F4B34FF0010805F1800A9F
:1051100005F58076B2F5A17F78D02BDC40F2391C02
:10512000A2F23913624572D017DCB2F59A7F6FD0C4
:1051300008DC22B313F108026BD0012A6AD0022ADC
:1051400063D1C4E0A2F58072353A78D0012A77D0D5
:10515000022A76D0032AF3D16FE3092B55D2DFE878
:1051600013F0540051048804AC04F00417055B05E7
:105170008205CA02A2F24312122AEFD200E013E023
:10518000DFE812F0E1011303780549017301A8017A
:105190008505A905DD051A0636066A0693069A06F0
:1051A000C506F90684030B0450B9B9F1030F32D0D8
:1051B0002068CAF84C006068CAF8500085F807807B
:1051C000CF480021C6E91010B164F1642068DAF814
:1051D0004C10081AFBF7DEFA18F01DFD00225B46A2
:1051E000FBF76EFB0CD36068DAF85010081AFBF777
:1051F000D1FA18F010FD00225B46FBF761FBADD23F
:1052000040F2311028660020E8711FE299E273E352
:1052100086E01DE051E02068CAF83C006068CAF8EA
:1052200044003846FBF7B6FA18F0F5FC0022B54BFF
:10523000FBF72EFB06D240F24310286605E0A3E000
:10524000AFE0B6E240F24510286685F82C80DCE736
:1052500038B92068CAF84C006068CAF8500085F870
:105260000780A7480021C6E91010B164F1642068E6
:10527000DAF84C10081AFBF78DFA18F0CCFC002273
:10528000A14BFBF71DFBC0D2002131647164B164F6
:10529000F1643846FBF77EFA18F0BDFC0022994B0A
:1052A000FBF7F6FA03D24FF49970286602E040F259
:1052B000451028660020E871A7E700213164716479
:1052C0000020B064F06440F2331028669DE70021AE
:1052D000316471648D48C6E912103846FBF75AFAFA
:1052E00018F099FC00228A4BFBF7EAFA08D2002159
:1052F00031647164B164F16440F23510286684E76A
:10530000B9F1030F03D17C48007801289FD1002117
:1053100031647164B164F1644FF49A70286674E783
:1053200038B92068CAF84C006068CAF8500085F89F
:10533000078073480021C6E91010B164F164206849
:10534000DAF84C10081AFBF725FA18F064FC002272
:105350005B46FBF7B5FA0CD36068DAF85010081A10
:10536000FBF718FA18F057FC00225B46FBF7A8FA87
:10537000A2D2002131647164B164F1640020E8714B
:1053800040F23310286640E70020CAF858006068F1
:10539000CAF844002068CAF840004FF49B702866A1
:1053A00033E72068CAF83C00DAF85800401CCAF815
:1053B000580058490022C6E910210021B164F16467
:1053C000012824DD2068DAF84010081AFBF7E2F91A
:1053D00018F021FC4C4E00223346FBF759FA16D246
:1053E0006068DAF84410081AFBF7D4F918F013FCD7
:1053F00000223346FBF74CFA09D20020CAF85800C5
:105400006068CAF844004FF4A3702866FDE640F2D5
:1054100043102866F9E60021316471643B48C6E90F
:1054200012103846FBF7B6F918F0F5FB0022354BA1
:10543000FBF746FA08D2002131647164B164F1646B
:105440004FF4A4702866E0E6B9F1030F03D12A48AF
:105450000078012897D10021316471640020B06484
:10546000F06440F247102866CFE638B92068CAF8E1
:105470004C006068CAF8500085F807802049002079
:10548000C6E910010021B164F1642068DAF84C101B
:10549000081AFBF77FF918F0BEFB00225B46FBF70A
:1054A0000FFA0CD36068DAF85010081AFBF772F99B
:1054B00018F0B1FB00225B46FBF702FAA6D20021EE
:1054C00031647164B164F1640020E8714FF4A37039
:1054D00028669AE60F480022C6E910200020B06432
:1054E000F064B9F1030F25D1012923D06068DAF8FF
:1054F000441011E0800000207400002000002440CF
:1055000000C072C0008056400000344000004EC011
:1055100000003E4000C07240081AFBF73BF918F04B
:105520007AFB0022FE4BFBF7CBF98CD240F23F1006
:1055300028666AE600213164716440F23720A8656C
:105540000020286661E6B9F1000F10D06068DAF833
:105550004410081AFBF71EF918F05DFB0022F14B0E
:10556000FBF7AEF90AD240F2411028666EE0002047
:1055700085F82C0040F23710286667E0B9F1020F79
:1055800016D0B9F1010F13D0E748007801280FD0E9
:105590006068DAF84410401E884210DD0020306454
:1055A00070640021B164F1644FF4A27028664DE08C
:1055B0006068CAF844004FF4A370286646E020688B
:1055C000FBF7E8F818F027FB0022D84BFBF778F937
:1055D00003D24FF4A070286638E03846FBF7DAF8BB
:1055E0008946074618F017FB0022D14BFBF768F9F4
:1055F00003D24FF4A070286628E095F82C00E0B3A1
:105600003846494618F007FB0022CA4BFBF740F921
:1056100057D2C948C94BCA4902689A4205DC426858
:105620008A4202DC82688A4211DDC64A0023C6E94A
:105630001032C54B0022C6E912238068884295DDEE
:10564000002030647064C149C6E9120107E2006AB3
:10565000BF49C04A0144914207D2002185F82D106C
:10566000BD4AC6E91012B164F164BC4988420BDB43
:10567000002185F82D10B84A00E022E0C6E910129A
:10568000B7490022C6E91221B149C94388428EDADE
:1056900095F82D000A280BD2401C85F82D00AE4845
:1056A0000021C6E91010AF490020C6E91201D6E179
:1056B000A4480021C6E91010AB490020C6E9120138
:1056C000CDE12068DAF83C10081AFBF763F818F00F
:1056D000A2FA0022A54BFBF7F3F805D285F82C803F
:1056E0004FF49D702866BAE1A1480021C6E9101068
:1056F000B164F164B3E1B9F1030F16D1012914D0FB
:105700003846FBF747F818F086FA0022994BFBF76A
:10571000D7F80ED2002131647164B164F16485F868
:1057200009804FF4A270286699E14FF4A1702866B1
:1057300095E100213164716484490020C6E91201B9
:105740008DE138B92068CAF84C006068CAF850008A
:1057500085F8078088480021C6E91010B164F1641B
:105760002068DAF84C10081AFBF714F818F053FA0E
:1057700000225B46FBF7A4F80CD36068DAF85010FF
:10578000081AFBF707F818F046FA00225B46FBF709
:1057900097F88CD2002030647064B064F06440F2FA
:1057A000411028660020E871EBE34FF4A0702866F2
:1057B000E7E338B92068CAF84C006068CAF85000BE
:1057C00085F807806C490020C6E91001B064F064D8
:1057D0002068DAF84C10081AFAF7DCFF18F01BFA08
:1057E00000225B46FBF76CF80CD36068DAF85010C7
:1057F000081AFAF7CFFF18F00EFA00225B46FBF703
:105800005FF891D2002131647164B164F1640020C9
:10581000E8713846FAF7BEFF18F0FDF90022574B41
:10582000FBF736F803D24FF49C702866A9E3CAF858
:105830005C7040F239102866A3E3B9F1030F15D16B
:10584000012913D03846FAF7A5FF18F0E4F9002231
:105850004A4BFBF735F812D2002131647164002005
:10586000B064F0644FF49B7028668AE300213164D1
:105870007164B164F16440F25310286681E3002141
:10588000316471643148C6E912107AE338B920688E
:10589000CAF84C006068CAF8500085F8078036489E
:1058A0000021C6E910100020B064F0642068DAF826
:1058B0004C10081AFAF76EFF18F0ADF900225B469B
:1058C000FAF7FEFF0CD36068DAF85010081AFAF7FE
:1058D00061FF18F0A0F900225B46FAF7F1FFA5D2AC
:1058E0000020306470640021B164F1644FF49C7056
:1058F00028660020E87144E3B9F1030F42D1012981
:1059000040D0DAF85C00381AFAF744FF18F083F94F
:1059100000221A4BFAF7D4FF38D24FF49B702FE0D5
:1059200000805140000064407400002000C0B2407C
:105930000080564000C05240DC0300200000FA43C3
:10594000000048420000594000804CC000004EC09A
:10595000FFFF37BDFF7FF301000069400080BB44BB
:10596000000024C0000024400000344000004740F4
:1059700000C0724000E0654000C072C000002E40D0
:105980002866FEE24FF4AA702866FAE2002131642C
:105990007164F848C6E91210F3E238B92068CAF811
:1059A0004C006068CAF8500085F80780F248002172
:1059B000C6E910100020B064F0642068DAF84C10DA
:1059C000081AFAF7E7FE18F026F900225B46FAF704
:1059D00077FF0CD36068DAF85010081AFAF7DAFE8D
:1059E00018F019F900225B46FAF76AFFC9D20021C4
:1059F00031647164B164F16440F2391028660020AA
:105A0000E871BEE23846FAF7C5FE8946804618F0CE
:105A100002F9DA4C00222346FAF73AFF0AD20021B3
:105A200031647164B164F164CAF85C7040F23B1097
:105A30002866A6E24046494618F0EDF800222346C3
:105A4000FAF73EFF0CD2002F0ADA002131647164AC
:105A5000B164F164CAF85C7040F23D10286690E2CF
:105A6000002131647164B164F1644FF49B70286665
:105A700087E23846FAF78EFE18F0CDF80022BF4BC9
:105A8000FAF71EFF08D2002131647164B164F16439
:105A90004FF49B70286674E2B9F1030F03D1B84844
:105AA0000078012802D14FF49E70286600213164ED
:105AB0007164B448C6E9121063E238B92068CAF8C4
:105AC0004C006068CAF8500085F80780AA48002199
:105AD000C6E91010B164F1642068DAF84C10081AB5
