:020000040800F2
:10000000F8DB0020E9010008671F0008B5190008A7
:10001000651F0008610F0008313300080000000070
:100020000000000000000000000000004501000882
:10003000251700080000000089010008DD240008E1
:10004000030200080302000803020008030200087C
:10005000030200080302000803020008030200086C
:1000600003020008551700080302000803020008F5
:10007000030200080302000803020008030200084C
:10008000030200080302000803020008030200083C
:100090000302000803020008030200087D1700089D
:1000A000030200080302000803020008030200081C
:1000B00003020008352700080302000803020008B5
:1000C00003020008030200080302000803020008FC
:1000D0000302000803020008D92E0008E52E0008DC
:1000E00029170008030200080302000803020008A1
:1000F00003020008030200080302000803020008CC
:100100000302000803020008D127000803020008C8
:10011000C12E0008CD2E000869280008030200083F
:10012000030200080302000803020008030200089B
:10013000DFF80CD000F078FD00480047AD990008CA
:10014000F8DB0020204B19680868B0E8F00F80F356
:100150000988BFF36F8F4FF0000080F311884EF0D5
:100160000D0E70470000000006480068006880F32C
:10017000088862B661B6BFF34F8FBFF36F8F00DFA1
:1001800000BF00BF08ED00E0EFF30980BFF36F8F01
:100190000D4B1A6820E9F00F106008B54FF0100001
:1001A00080F311880AF0E0FD4FF0000080F3118821
:1001B000BDE8084019680868B0E8F00F80F30988C6
:1001C000BFF36F8F704700BFD4000020EFF31180A2
:1001D0004FF0100181F31188704780F31188704748
:1001E000EFF3058070470000064880470648004747
:1001F000FEE7FEE7FEE7FEE7FEE7FEE7FEE7FEE7D7
:10020000FEE7FEE701250008310100080649074A1C
:100210000868504343F239021044086040087047B0
:100220000149086070470000700100206D4EC64112
:1002300040EA01039B0703D009E008C9121F08C068
:10024000042AFAD203E011F8013B00F8013B521EE8
:10025000F9D27047D2B201E000F8012B491EFBD25F
:1002600070470022F6E710B513460A4604461946C1
:10027000FFF7F0FF204610BD30B5044600200346CE
:1002800000E05B1C934203D2E05CCD5C401BF8D0E5
:1002900030BDF0B480EA0102D40F4200B2EB410F4E
:1002A00002D20246084611464A0042D0C30DDDB2D2
:1002B000C1F3C752AD1A202D35DAC1F3160141F44E
:1002C000000204B15242C5F1200602FA06F12A41A9
:1002D0001044B3EBD05F23D0C4B1012DA0EBC350C9
:1002E00009DCF0BC4FF0004202EAC352DBB200F579
:1002F000000000F0A4BB400000F1807000EBC35090
:10030000A0F1807040EAD170490009E0490841EA53
:10031000C071A0EBC35000F50000400800EBC350D3
:10032000F0BC00F083BB6142012202EB4101001BE3
:10033000F6E7F0BC704781F00041AAE780F000408A
:10034000A7E780EA010210B502F00043400022D086
:100350004A001FD0010E01EB1261C0F35600C2F338
:10036000560240F4000042F40002A0FB0220000408
:100370007F39140400D0401C50EA124001D44000E0
:10038000491EC2B20C0604EBD010401C4008802A63
:1003900002D003E0002010BD20F00100002900DAA7
:1003A0000020184310BD30B480EA010202F000457D
:1003B00030F0004221F0004013D090B1C30DD40DB5
:1003C000C2F31601C0F31600E41A41F4000140F430
:1003D00000027D34914201D3641C00E04900002CEE
:1003E00002DA30BC002070474FF400000023914235
:1003F00001D3891A034340084FEA4101F7D151B1B3
:10040000914202D14FF0004105E002D24FF00101CC
:1004100001E06FF0010103EBC450284430BC00F050
:1004200005BB420005D0C0F3C7525242914201DCE5
:100430000020704700EBC15070472DE9FE4F804609
:1004400081EA0300C00F0C46009021F0004123F028
:100450000045B8EB0200A94105D24046214690462E
:100460001C460B46024623F00040104347D0270DA0
:10047000C7F30A00C3F30A510290401A01904028C2
:100480006BDAC3F3130040F4801B0098924620B14E
:100490000023D2EB030A63EB0B0B01985946C0F122
:1004A0004002504600F091FA06460D465046594625
:1004B000019A00F0A9FA10EB08006141002487EAD4
:1004C000115284EAE7731A4340D0009A62B3019A4A
:1004D000012A4FEA075215DC001B61EB02014FF0C5
:1004E000004202EA0752CDE90042001C41F58011AA
:1004F00032462B4600F0E0FA03B0BDE8F08F4046EC
:100500002146F9E7001B61EB0201001C41F5801355
:1005100000185B412018A2F5001747EB030140EAE1
:10052000D570B6196D4111E06D084FEA360645EAFF
:10053000C0754FEA0752001B61EB0201001C41F538
:10054000801149084FEA30000019514132462B46CC
:1005500003B0BDE8F04F00F0A0BA009801224000BF
:100560000023D0EB020263EBE073009821464FEAD0
:10057000E074B8EB000061EB0401E9E783F00043AD
:100580005BE781F0004158E72DE9FE4F81EA030463
:1005900004F0004421F0004100944FF0000B23F0E0
:1005A000004350EA01045ED052EA03045BD0C3F377
:1005B0000A54C1F30A552C44A4F2F3340194A0FB6D
:1005C0000254C1F3130141F48011C3F3130343F444
:1005D000801301FB024400FB034E840A970A44EA9D
:1005E000815447EA8357A4FB076802958D0A05FBEF
:1005F00007854FEA932C04FB0C542705029D4FEA14
:10060000065847EA1637B5EB08056EEB070C870E60
:10061000920E47EA811742EA8312A7FB0201B6EB6A
:100620000B0164EB00042B0D43EA0C335E1844EB22
:100630001C50DA465146E7FB0201C5F313044FEAAA
:100640000B3343EA14534FEA0432019C43EA060396
:10065000A4F10C040294009CCDE900B400F02CFA43
:1006600003B0BDE8F08F00200146F9E72DE9F04D19
:1006700081EA030404F0004B21F0004514464FF0DA
:10068000000A23F0004150EA050220D054EA01029A
:100690001DD0C5F30A570246C5F31303C1F3130077
:1006A000C1F30A5640F4801543F48013A7EB060803
:1006B000101BD64608F2FD3873EB050002D308F193
:1006C000010801E092185B41B8F1000F03DA002045
:1006D0000146BDE8F08D00204FF4801106468446A7
:1006E0000EE0171B73EB050705D3121B63EB050325
:1006F00006434CEA010C49084FEA300092185B416E
:1007000050EA0107EDD152EA030012D082EA040058
:1007100083EA0501084305D0101BAB4106D2012234
:10072000002306E000224FF0004302E06FF00102D8
:1007300053101AEB06004CEB085110EB0A0041EB8A
:100740000B01BDE8F04D00F0A8B970B521F00043F1
:1007500003430CD0C1F30A550024D5EB040564EB28
:100760000403D617AD1AB34102DB0020014670BD69
:10077000201841EB025170BDC10F80EAE0700844BF
:10078000CA079623002100F05AB996230022114689
:1007900000F055B90EB5C10F80EAE0700844CA07F1
:1007A000002140F233438DE80E000A460B4600F06C
:1007B00083F903B000BD0EB540F233410291002130
:1007C000CDE900110A460B4600F076F903B000BDF2
:1007D00000F0004220F00040C10DC0F3160040F4CC
:1007E00000007F2901DA00207047962903DCC1F15F
:1007F0009601C84001E096398840002AF4D0404272
:10080000704720F00040C10DC0F3160040F4000016
:100810007F2901DA00207047962903DCC1F1960197
:10082000C840704796398840704770B5C1F30A5286
:1008300001F000450024C1F3130140F2FF3341F4FD
:1008400080119A4201DA002070BD40F233439A428F
:10085000A2F2334203DC524200F0C6F800E09040BE
:100860002C43F1D0404270BD00F0004230F0004017
:100870000AD0C10D01F56071C0F3160042EA0151C2
:10088000C20840071143704700200146704700002E
:1008900030B5041E71F1000404DB4FF00044404207
:1008A00064EB0101141E73F1000405DB1C464FF0DC
:1008B0000043524263EB04038B4208BF824230BDC7
:1008C00030B5041E71F1000404DB4FF000444042D7
:1008D00064EB0101141E73F1000405DB1C464FF0AC
:1008E0000043524263EB0403994208BF904230BD7B
:1008F00001F0004330B421F0004150EA010206D07B
:100900000A0DA2F56072C1F31301002A02DC30BCAB
:1009100000207047440F44EAC104C100E01830BC15
:1009200000EBC25000F082B8002801DBC0F10040AB
:10093000002901DBC1F100418842704730B50B4608
:10094000014600202022012409E021FA02F59D42FF
:1009500005D303FA02F5491B04FA02F52844151ED3
:10096000A2F10102F1DC30BD2DE9F05F0546002067
:1009700092469B4688460646814640241BE0284610
:1009800041464746224600F02FF853465A46C01AC1
:10099000914110D311461846224600F016F82D1A40
:1009A00067EB01084F4622460120002100F00DF8B8
:1009B00017EB00094E41201EA4F10104DFDC48467C
:1009C00031462A464346BDE8F09F202A04DB203A00
:1009D00000FA02F1002070479140C2F1200320FA92
:1009E00003F3194390407047202A04DB203A21FA90
:1009F00002F00021704721FA02F3D040C2F1200238
:100A00009140084319467047202A06DBCB17203A4D
:100A100041FA02F043EAE07306E041FA02F3D04003
:100A2000C2F1200291400843194670470029A8BF2F
:100A30007047401C490008BF20F00100704710B407
:100A4000B0FA80FC00FA0CF050EA010404BF10BCBC
:100A5000704749B1CCF1200421FA04F411FA0CF1E9
:100A600018BF012121430843A3EB0C01CB1D4FEA22
:100A700000614FEA102042BF002010BC704700EB1D
:100A8000C35010440029A4BF10BC7047401C49004B
:100A900008BF20F0010010BC704710B5141E73F1A0
:100AA000000408DA401C41F1000192185B411A432E
:100AB00001D120F0010010BD2DE9F04D92469B467A
:100AC00011B1B1FA81F202E0B0FA80F22032904620
:100AD000FFF77BFF04460F4640EA0A0041EA0B019C
:100AE00053465A46084313D0114653EA010019D021
:100AF000C8F140025046FFF777FF05460E465046C4
:100B000059464246FFF761FF084305D0012004E043
:100B100020463946BDE8F08D0020054346EAE076E0
:100B20002C4337430A986305E40AA0EB080000222F
:100B3000FD0A44EA47540A3002D500200146E9E79D
:100B4000010510196941DDE9084500196941BDE851
:100B5000F04DA2E72DE9F04D00231A461B1A8A41F9
:100B600003DB00200146BDE8F08DC1F30A52C1F35A
:100B7000130141F480154FF0000BD10702D100188A
:100B80006D41521E0027044640F2FF11384601EB2A
:100B9000620A3E468046024600204FF48011FFF76D
:100BA00023FFC2197141BB1846EB0100B4EB030CE3
:100BB00075EB000C04D3E41A65EB000517460E46EE
:100BC000241908F101006D4180463428E3DDF9194C
:100BD00046EB0600091BA84103D24FF0FF32134633
:100BE00001E0002213461BEB070046EB0A51BDE86B
:100BF000F04DFFF752BFC1F30A52C1F3130140F2A7
:100C0000FF3341F480119A4202DA00200146704716
:100C100040F233439A42A2F2334202DC5242FFF7DF
:100C2000E3BEFFF7D2BE0000064C074D06E0E068C9
:100C300040F0010394E8070098471034AC42F6D323
:100C4000FFF77AFAE0B6000800B7000870B58C1814
:100C500010F8015B15F0070301D110F8013B2A11D0
:100C600006D110F8012B03E010F8016B01F8016BBD
:100C70005B1EF9D12B0705D40023521E0DD401F8B9
:100C8000013BFAE710F8013BCB1A921C03E013F882
:100C9000015B01F8015B521EF9D5A142D8D30020B7
:100CA00070BD002904D0816841F001018160704766
:100CB000816821F0010181607047000010B515497D
:100CC00088420AD144150121204601F0E1F920466D
:100CD000BDE81040002101F0DBB90F4988420AD17C
:100CE00004150121204601F0D3F92046BDE810404B
:100CF000002101F0CDB9094988420AD10121CC0374
:100D0000204601F0C5F92046BDE81040002101F061
:100D1000BFB910BD0024014000280140003C014043
:100D2000014600208968490700D501207047C06C42
:100D300080B270470246002012680A4200D00120AB
:100D40007047014600208968090700D501207047D7
:100D500010B542680E4B1A400C790B6842EA042227
:100D60001343436082680B4B1A40D1E9024323438B
:100D70004C7942EA440213438360C26A22F470024F
:100D8000097C491EC9B242EA0151C16210BD00008E
:100D9000FFFEF0FFFDF7F1FF70B5072609290AD91C
:100DA000C568A1F10A0404EB4404A640B543A3407E
:100DB0001D43C56007E0056901EB4104A640B5434A
:100DC000A3401D4305611F23072A09D2446B521E0D
:100DD00002EB820293409C4391400C43446370BDFC
:100DE0000D2A09D2046BD21F02EB820293409C436E
:100DF00091400C43046370BDC46A0D3A02EB820259
:100E000093409C4391400C43C46270BD816841F0A3
:100E1000080181607047002904D0816841F4A00175
:100E200081607047816821F4A0018160704781680A
:100E300041F004018160704710B501200AF048F8C4
:100E40000149C86010BD0000000000207FB50024EB
:100E50001348CDE9010401218D02009123462A4661
:100E6000039410A113480AF009F90D480221001D4E
:100E7000CDE90104009100232A4603940EA11248F3
:100E80000AF0FCF8064803210830CDE9010400917E
:100E900000232A4603940DA110480AF0EFF87FBD05
:100EA00000000020765461736B4465636973696F59
:100EB0006E0000004DAB0008765461736B436F6E9B
:100EC00074726F6C0000000039AB000876546173D7
:100ED0006B50657263657074696F6E0019AC0008C1
:100EE00000B593B014221D4906A8FFF7A1F91422FA
:100EF0001A49143101A8FFF79BF900F0C7FA00283E
:100F00002AD120210BA800F03FFD06A90BA800F074
:100F1000E5FB002820D1142106A8FFF7A2F9202123
:100F20000BA800F031FD06AA20210BA800F05CFA06
:100F3000002811D101AB01AA20210BA800F028FF45
:100F4000142201A906A8FFF797F9C0B2002803D11F
:100F500000F00EFB0028FFD113B000BDE4B3000881
:100F6000FEE700002DE9F04105462C220021414812
:100F700000F0A0FF404E3F4C21213078943C40F0DF
:100F800005002070204608F049FB7070002852D1FF
:100F9000A178C1F3810201F0030025B10223B3EB74
:100FA000911F47D106E063783B2B43D10B0641D418
:100FB0004B063FD5032A3DD0304B2E4D2F4E9B5C28
:100FC0006B702E4B383303EB82031B5CAB702B4BE7
:100FD000443303EB820350361B5C06EBC2022B70DA
:100FE00032F81000A880C80601D510332B700822F3
:100FF000611CA81D00F054FF1E49607A85F82B0083
:101000008A39072201F1980000F04AFF19490622A7
:10101000833901F1980000F043FF002220201826B8
:101020000121D307A0EB5203E35C06D0F02747EA87
:10103000131304E00420BDE8F08143F0F003AF187F
:10104000FB76A6EBD20302F00707E35C01FA07F791
:101050003B4201D0FF2700E0EF27AB18521C93F86A
:101060001BC0D2B207EA0C07DF76102AD9D30020C2
:10107000E1E7000040CB0020380100202CB400083C
:1010800070B516460C46054601F0D6F908210D4804
:1010900001F0F0F910210C4801F0ECF909480721A2
:1010A000083001F0E7F908481821183801F0E2F992
:1010B0002146284601F0DEF93046BDE8704001F0D7
:1010C00099B9000046CB00205C0100200EB5104904
:1010D00004236A46A1F1080000F0F4FE0C49042341
:1010E0000DF106020831684600F0ECFE08490423C1
:1010F000091D6A46A1F1080000F0E4FE68460223DB
:1011000001AA811C00F0DEFE01A800F0E9FE0EBD80
:10111000B4CA0020002809D0012809D0022809D02B
:10112000032809D0042809D0002070470020704708
:1011300003487047034870470348704703487047A7
:101140009C6D0020D47100200C760020347E00209D
:1011500038B526208DF8000001248DF801400025C7
:101160008DF802508DF80340684600F0FDFE272000
:101170008DF800008DF801408DF802508DF8034085
:10118000684600F0F1FE34208DF800008DF8014033
:101190008DF802508DF80340684600F0E5FE3520DA
:1011A0008DF800008DF801408DF802508DF8034055
:1011B000684600F0D9FE38BD2DE9F35F08244FF0F2
:1011C000000B69E0374F0198E04000F0010A97F802
:1011D000203097F8222097F8241097F8260009F07D
:1011E0002EFB80463B7EBA7E397FB87F09F012FB2A
:1011F00006463B7CBA7C397DB87D09F00BFB054681
:101200003B7ABA7A397BB87B09F019FB81463B7887
:10121000BA783979B87909F0FDFA41464B46CA43A4
:101220006FEA0008D2B208F0FF0802EA0809F743A3
:1012300007F0FF0CEF4307F0FF0E01EA030808EA8E
:101240000008DF430840FFB209EA0C09284031409A
:10125000394048EA000848EA010809EA030902EAB5
:101260000E021A4007EA050C48EA09080CEA060CC7
:1012700048EA020848EA0C08012121EA080090EA3D
:101280000A0004D0A14041EA0B0101F0FF0B0099D4
:1012900001B9504602F012F8641EE4B292D25846E8
:1012A000BDE8FC9FC8CB0020054A002903D0516847
:1012B000014351607047516881435160704700009D
:1012C000002004E038B50E4C0321207840F00700E0
:1012D0008DF80000FF208DF801008DF802006846AF
:1012E00008F09CF96070002808D10222A01C0DF1C2
:1012F000010100F0C5FD002800D0062038BD000027
:101300003801002070B50546124C13480E4621786E
:1013100001700321417000218170C670042108F022
:101320007DF96070002814D100F05AFE607000282A
:101330000FD100223146284600F010F860700028D6
:1013400007D12978A268687802EB01210844A060DF
:10135000002070BD38010020ACCA00202DE9F04704
:1013600080461F480D4691464178090706D51C4E18
:101370008078E9B21B4F361F88422CD00520BDE88B
:10138000F087802D01D9802400E02C46307840F091
:1013900003003870601C81B2124808F03FF9707089
:1013A000A0B9B9F1000F224604D04146781C01F0E3
:1013B00083F803E0791C404600F072FD2146404668
:1013C00000F040FDFFF77EFF707008B1C0B2D6E7B5
:1013D000281B85B2A044002DD3D10020CFE7000008
:1013E0003C010020ACCA00202DE9F041254C074605
:1013F0000D462078164640F0060123482A4600F89C
:10140000011B192100F8011B602100F8021B39465D
:1014100000F8015C00F044FD291D1B4808F0FEF8AF
:10142000607000282BD12946384600F00BFD00F0F3
:10143000D7FD6070002822D1FFF744FF60700028BC
:101440001DD1002220211048FFF788FF607000287E
:1014500015D10D490C22A1F10C0000F021FD0A4923
:1014600014220C31304600F01BFD0748A2680C38EE
:101470004178007802EB00200844A0600020BDE81D
:10148000F081000038010020ACCA00202DE9F041B5
:10149000354C8027FF264FF00008251F03212878B0
:1014A00040F0010020706670A6702F4808F0B6F872
:1014B00090B92878032140F00F00207084F8018053
:1014C00084F80280284808F0A9F828B96078FF2835
:1014D00002D1A078FF2804D07F1E17F0FF07DDD1CE
:1014E00010E07FB102272878032140F0010020702E
:1014F0006670A6701C4808F091F8687020B1C0B200
:10150000BDE8F0810120FBE77F1EFFB2EBD26078DF
:10151000A27800F0EF01114301D00320F0E710287A
:1015200004D100F05DFD68700028E9D10020FFF7CC
:1015300019FD68700028E3D108210C48FFF7E2FE8E
:1015400068700028DCD10948AA68A030417B007B84
:1015500002EB0020014405484278007801EB0020AE
:101560001044A8600020CBE73C010020A0CA002066
:1015700010B50E4C0E482178017001214170962162
:1015800081700021C170042108F048F860700028C3
:1015900009D100F025FD6070002804D1201D40789D
:1015A000800601D40B2010BD002010BD38010020A2
:1015B000ACCA00202DE9F05F0E46174699468046DA
:1015C000194600F0A5FC434820218246FFF79AFE09
:1015D000414C002860706BD13E4820212138FFF734
:1015E00091FE6070002863D13A482021213800F034
:1015F00041FF38481438834600F0FCFE4946404617
:1016000000F086FC334D0020213D29183B5C11F889
:10161000212F401C5A40C0B20A702028F5D3202147
:10162000504600F027FF1421584600F023FF207891
:101630006872B8F1000F04D00520A87206F00F0000
:1016400002E00420A8720020E872342028730146CA
:10165000584600F0F7FB1F483821183807F0DEFF26
:101660006070002824D100F0BBFC607000281FD1FE
:10167000FFF728FE607000281AD11748001D407837
:10168000000614D51348002214212138FFF766FE06
:10169000607000280CD10F48401E044600F0AAFEDE
:1016A0000C4814222146213800F0EAFB10B10D202D
:1016B000BDE8F09F4946404600F02AFC1421204630
:1016C00000F0D8FE0348213800F094FEFFF7FEFC3E
:1016D0000020EDE7CDCA00203801002030B50E4AC9
:1016E0000D46044685B0182302F11801A12000F030
:1016F000ABFA08226946284600F0DEFE6A46082159
:101700001046FFF7BDFC00216B4622460846FFF756
:1017100051FF05B030BD0000440100200048704773
:101720002FB400087047000010B54FF40044204665
:1017300000F038F8002809D0204600F02DF80448C1
:101740000168491C01604168491C416010BD0000EE
:101750000406002010B5082000F024F8002809D065
:10176000082000F019F804488168491C8160C168AC
:10177000491CC16010BD00000406002010B54FF4E4
:101780008074204600F00EF8012804D12046BDE800
:10179000104000F001B810BD01490860704700001A
:1017A0001404014001460020054A12680A40044B17
:1017B00014331B680B4202D0002A00D0012070476E
:1017C0000004014030B51B4A83790168002B2AD000
:1017D00013688B431360111D0B680468A3430B60EF
:1017E000017911440B68046823430B60114C0834E1
:1017F0002168036899432160231D19680568A9437E
:1018000019604179102905D011440A680068024323
:101810000A6030BD216802681143216019680068C0
:101820000143196030BD0079104402688A430260A8
:1018300030BD00000004014010B58A07120F0F23CD
:10184000934021F00304054921448C689C438C603B
:101850008B68904003438B6010BD00000000014086
:101860002DE9F0410022CC7804F00F03E40601D505
:101870008C7823430C784FF00F0714F0FF0F4FF0D4
:10188000010C1CD005680CFA02F40E882640A64212
:1018900011D1960007FA06F825EA080503FA06F8BA
:1018A00048EA0505CE78282E02D0482E02D002E064
:1018B000446100E00461521C082AE4D305600A88F0
:1018C000FF2A1ED94568002202F108060CFA06F428
:1018D0000E882640A64210D1960007FA06F825EA9F
:1018E000080503FA06F848EA0505CE78282E00D147
:1018F0004461CE78482E00D10461521C082AE3D3FB
:101900004560BDE8F0810000F0B5154C002801DA13
:10191000E36900E06368C0F30346420D120185B23B
:10192000C0F301579540032F07D0C2020CD5032204
:10193000B240934343F0706209E023F07062636841
:1019400023F07063636002E0AB4343F0706201B167
:101950002A43002801DAE261F0BD6260F0BD0000B8
:10196000000001400246002092680A4200D0012097
:1019700070474161704701617047002A01D00161E1
:10198000704741617047000070B505460E46084932
:101990000868421C0A60FEF743FC002404E0FEF7DE
:1019A00035FC2855641CA4B2B442F8D370BD0000C5
:1019B0004001002006A30020104C211F1A5C228049
:1019C0000A885206FCD5401CC0B22A28F6D3FEE78E
:1019D0000D0A456E74657220486172644661756CCB
:1019E000745F48616E646C65722C20537973746502
:1019F0006D2048616C742E0D0A0000000444004004
:101A00002DE9F04F85B00121052000F033FB0121C5
:101A1000480400F021FB0425ADF8105018278DF87C
:101A2000137003268DF812607F4C04A92046FFF73F
:101A300017FF0821ADF810108DF8135004A92046A7
:101A4000FFF70EFF04A92046FFF70AFF4FF4E13825
:101A5000CDF800800024ADF80440ADF80640ADF8A4
:101A60000840ADF80C404FF00C09ADF80A90DFF8D3
:101A7000BCA16946504601F08DFA012240F2255181
:101A8000504601F06CFA0121504601F035FA402130
:101A9000504601F02DFA0121082000F0EBFA102049
:101AA0008DF813008DF81260ADF8105004A960484D
:101AB000FFF7D6FE0121092000F0DCFA012188049D
:101AC00000F0CAFA4FF4806BADF810B08DF81370C7
:101AD0008DF8126004A95648FFF7C2FE4FF4006A61
:101AE000ADF810A08DF8135004A95148FFF7B8FEC7
:101AF00004A94F48FFF7B4FECDF80080ADF80440CC
:101B0000ADF80640ADF80840ADF80C40ADF80A90CD
:101B10006946484801F03EFA012240F22551454805
:101B200001F01DFA0121434801F0E6F94021414846
:101B300001F0DEF90121112000F09CFA0121C80416
:101B400000F08AFAADF810B08DF813708DF81260BD
:101B5000DFF8E4B004A95846FFF782FEADF810A004
:101B60008DF8135004A95846FFF77AFECDF800808F
:101B7000ADF80440ADF80640ADF80840ADF80C40B3
:101B8000ADF80A90DFF8B4A06946504601F002FAB9
:101B9000012240F22551504601F0E1F90121504661
:101BA00001F0AAF94021504601F0A2F901213120AB
:101BB00000F060FA0121080500F04EFAA802ADF825
:101BC00010008DF813708DF8126004A95846FFF7C5
:101BD00047FEADF810508DF8135004A91848FFF7D0
:101BE0003FFECDF80080ADF80440ADF80640ADF8FA
:101BF0000840ADF80C40ADF80A90124C69462046FA
:101C000001F0C8F9012240F22551204601F0A7F960
:101C10000121204601F070F94021204601F068F9C9
:101C200005B0BDE8F08F000000080140004400400E
:101C3000000C01400048004000100140004C0040F2
:101C400000140140005000402DE9F0411E461746A7
:101C50000C46054600F0F0FB0821204600F00AFC87
:101C6000202269210C4800F025F9324639460A48FD
:101C700000F016F90848212180F8205000F0FAFB06
:101C8000082104F1080000F0F5FB034800F0B2FB66
:101C9000BDE8F041FFF71ABAACCA00200648016857
:101CA000490507D40168C90504D50068000601D5B7
:101CB000012070470020704708180140064801685D
:101CC000490507D40168C90504D50068000601D498
:101CD000012070470020704708180140064801683D
:101CE000490507D50168C90504D40068000601D577
:101CF000012070470020704708180140064801681D
:101D0000490507D50168C90504D50068000601D456
:101D10000120704700207047081801400148006802
:101D200000207047081801400148006800207047F3
:101D30000818014003480068000601D401207047DC
:101D4000002070470818014003480068000601D4CD
:101D500001207047002070470818014003480068C0
:101D6000000601D401207047002070470818014088
:101D700006480168490507D40168C90504D400680C
:101D8000000601D501207047002070470818014067
:101D9000F0B51746294A1D460C46064685B018235D
:101DA00002F11801A220FFF74FFF102269463846C2
:101DB00000F082FB6A4610211046FFF761F900F03F
:101DC0003BFB1F490020087001211D4800F052FB19
:101DD0001B480721A23000F04DFB194808219A301A
:101DE00000F048FB1021684600F044FB202C0AD28A
:101DF000C4F12007BAB20021114800F05BF839465F
:101E00000F4800F037FB2146304600F033FB132229
:101E100000210B4800F04EF81321094800F02AFB7E
:101E200007480C210C3800F025FB1821034800F06E
:101E300021FB284600F0DEFA05B0F0BD4401002089
:101E4000ACCA002030B54FF6FF724AF201040CE034
:101E500010F8013B5A400023D5074FEA520200D048
:101E600062405B1CDBB2082BF6D3491E89B2EFD26D
:101E70000248110A0170427030BD00003A01002092
:101E800010B507E010F8013B11F8014BA34201D057
:101E9000012010BD521ED2B2F4D2002010BD0000AD
:101EA00004E000BF11F8013B00F8013B521E92B262
:101EB000F8D2704702E000BF00F8011B521E92B238
:101EC000FAD2704730B506E010F8014B11F8015B0B
:101ED0006C4002F8014B5B1EDBB2F5D230BD000056
:101EE00070B50A4C00220021C2F1050301EBC206C5
:101EF000C55CCD40491C05F00105C9B2A5550829AE
:101F0000F4D3521CD2B2062AEDD370BDC8CB002048
:101F100070B50D46044600F08FFA11490020087094
:101F200001210F4800F0A6FA0D480721A23000F069
:101F3000A1FA0B4808219A3000F09CFA0CB110214C
:101F400009E0082200210648FFF7B4FF08210448F1
:101F500000F090FA08212846BDE8704000F08ABAE7
:101F6000ACCA0020FEE7704770B50F23C278012687
:101F70000178002A1ED0144A126802F4E062C2F509
:101F8000E062120AC2F10404D3404578A540827889
:101F90001A402A43120101F1E02181F8002400785F
:101FA00000F01F018E404009800000F1E020C0F8E1
:101FB000006170BD01F01F0086404809800000F1FB
:101FC000E020C0F8806170BD0CED00E002490843DC
:101FD00002490860704700000000FA050CED00E0BF
:101FE0002DE9F041164D0027FF264FF47A782C1D7D
:101FF0002878032140F00100207011486670A67017
:10200000001D07F00BFB687010B1C0B2BDE8F08195
:102010006078C10601D5410703D0410707D50920E3
:10202000F4E77F1CBFB24745E2D30A20EEE7810701
:1020300001D50820EAE7C007E8D00720E6E700005E
:1020400038010020034A516821F4404101435160A6
:102050007047000000100240054A002903D0D169F2
:102060000143D1617047D1698143D161704700005C
:1020700000100240054A002903D091690143916193
:1020800070479169814391617047000000100240E0
:10209000054A002903D0D1680143D1607047D16857
:1020A0008143D160704700000010024010B5264AFD
:1020B000516801F00C01254B002927D0042927D0B5
:1020C000082927D00360516801F0F0010909204B6D
:1020D0005C5C0168E1404160546804F4E064240AF7
:1020E0001C5D21FA04F48460546804F46054E40A2A
:1020F0001B5DD940C160526802F44042920B144B00
:102100001B1F9A5CB1FBF2F1016110BD0360DAE7BD
:102110000360D8E7516801F47011536803F4803309
:10212000022404EB914133B153689B0307D5094B5B
:1021300059430160C7E7074B59430160C3E7034BAD
:1021400059430160BFE700000010024000127A000E
:102150009D00002000093D0070B5204C204D8023DB
:10216000217800266A18481CC0B23729137703D893
:1021700014E02918401C0E772070C0B24028F8D314
:1021800000F030F803E02918401C0E77207020780A
:102190003828F8D306E02918401C0E772070C0B20A
:1021A0003828F8D36869010E85F85410010C85F8B9
:1021B0005510010A85F8561085F85700A869010ED8
:1021C00085F85810010C85F85910010A85F85A1045
:1021D00085F85B00BDE8704000F004B86C01002099
:1021E0006CCB00202DE9F04F4F4C08CC94E8270031
:1021F000AB4600254C4F05F00F0907EB8904A246BA
:10220000267F94F81DC0360646EA0C4694F81EC098
:10221000E47F46EA0C26344304EBF3665E44142D57
:1022200009D200EA010C22EA00084CEA080C6644D4
:10223000DFF8F8C01EE0282D07D280EA010C8CEAF6
:10224000020C6644DFF8E8C014E03C2D0BD241EAF2
:10225000020C0CEA000C01EA02084CEA080C664485
:10226000DFF8D0C006E080EA010C8CEA020C66447C
:10227000DFF8C4C093460A464FEAB00166441846E8
:102280003346002609F1020E47E0EEB3012E47D097
:1022900009F10D07FFB2DFF890C03F070CEB97671D
:1022A000761C97F81CC097F81D804FEA0C6C4CEA1E
:1022B000084C97F81E80FF7F4CEA082C47EA0C0771
:1022C0007C40F6B2032EE0D34FEAF474270E8AF86E
:1022D0001C70270C8AF81D70270A6D1C8AF81E7066
:1022E000EDB28AF81F40502D84D30F4C25682B4443
:1022F0002360636818446060A0680844A060E068D8
:102300001044E060216900E007E001EB0B00206170
:102310000A4800210170BDE8F08F0EF0FF07BAE710
:1023200009F10807B6E700006CCB00209979825AC2
:10233000A1EBD96EDCBC1B8FD6C162CA6C01002038
:10234000AFF300800CB5002201920092274801688B
:1023500041F4803101604FF4A063016801F4003161
:1023600000910199491C0191009911B90199994273
:10237000F3D10168890302D50121009100E00092A8
:102380000099012930D11A490A6842F010020A6006
:102390000A6822F003020A600A6842F002020A6038
:1023A0004168416041684160416841F48061416039
:1023B000416821F47C114160416841F4E8114160B9
:1023C000016841F08071016001688901FCD54168B4
:1023D00021F003014160416841F002014160416820
:1023E000C1F381010229FAD10CBD000000100240A6
:1023F0000020024010B50446FFF7AEFE00210D4A52
:1024000008465318491CC9B218774029F9D390617E
:102410000021506121F0030001F003031058C3F1C3
:102420000303DB00D8406054491CC9B21429F1D31E
:1024300010BD00006CCB002009480021094A8161D1
:102440004161117008490160084941600649C9436A
:1024500081600649C943C1600549016170470000B8
:102460006CCB00206C0100200123456789ABCDEFC8
:10247000F0E1D2C32DE9F0410E4607460C4C0D4D5C
:1024800012E0287839782218401C1177C1B22970DF
:10249000A0690830A06102D16069401C60614029D8
:1024A00001D1FFF79FFE7F1C761EEAD2BDE8F081C6
:1024B0006CCB00206C01002070B516460C4605461A
:1024C00007E000BF15F8011B0120FEF775FE04F8B8
:1024D000010B761EB6B2F5D270BD000010B5FDF747
:1024E00075FE08F04BFE18B104494FF080500860AB
:1024F000BDE810400020FDF770BE000004ED00E0D4
:1025000010B50F48016841F00101016041680D4AB2
:102510001140416001680C4A11400160016821F4DA
:1025200080210160416821F4FE0141604FF41F01E8
:102530008160FFF705FF05494FF00060086010BD9E
:10254000001002400000FFF8FFFFF6FE08ED00E07B
:1025500070B5048C24F001040484058B048C25F0F0
:10256000F3054FF6FF7606EA031313432B43104A95
:1025700090420ED00F4A90420BD0B0F1804F08D05D
:102580000D4A904205D00D4A904202D00C4A90422A
:1025900005D124F002020A4342F0010104E024F0D4
:1025A0000A020A4342F001010383018470BD000066
:1025B000002C0140003401400004004000080040AD
:1025C000000C0040F0B5048C24F010040484068B49
:1025D000048C4FF6FF7505EA011726F4734605EAE9
:1025E0000333334305EA02221A43104B98420ED0BC
:1025F0000F4B98420BD0B0F1804F08D00D4B984252
:1026000005D00D4B984202D00C4B984205D124F0D6
:102610002001394341F0100104E024F0A0030B43F2
:1026200043F0100102830184F0BD0000002C014042
:10263000003401400004004000080040000C00404D
:10264000F0B5048C24F480740484858B048C4FF6DC
:10265000FF7707EA012625F0F30507EA0313134382
:102660002B43104A90420ED00F4A90420BD0B0F14B
:10267000804F08D00D4A904205D00D4A904202D0BA
:102680000C4A904205D124F40071314341F4807129
:1026900004E024F420620A4342F4807183830184BD
:1026A000F0BD0000002C0140003401400004004057
:1026B00000080040000C0040F0B5048C24F4805465
:1026C0000484868B048C4FF6FF7505EA013726F4E7
:1026D000734605EA0222324305EA03331343104AE4
:1026E00090420ED00F4A90420BD0B0F1804F08D0EC
:1026F0000D4A904205D00D4A904202D00C4A9042B9
:1027000005D124F40051394341F4805104E024F40C
:1027100002420A4342F4805183830184F0BD0000E9
:10272000002C01400034014000040040000800403B
:10273000000C004010B5254C0121204600F0E6F8C1
:1027400078B10121204600F0B9F8002004F04CFBDC
:10275000012004F049FB022004F046FB032004F0B2
:1027600043FB0221204600F0D1F830B1022120467F
:1027700000F0A4F8002004F08DFA0421204600F0B7
:10278000C5F830B10421204600F098F8012004F08B
:1027900081FA0821204600F0B9F830B1082120461E
:1027A00000F08CF8022004F075FA1021204600F0A9
:1027B000ADF8002808D01021204600F07FF8BDE8D1
:1027C0001040032004F066BA10BD00000004004071
:1027D00070B5234D0221284600F098F8214C50B1E5
:1027E0000221284600F06AF800220221284600F063
:1027F000DFF8206880470421284600F087F850B1B0
:102800000421284600F05AF800220421284600F04E
:10281000CFF8606880470821284600F077F850B16B
:102820000821284600F04AF800220821284600F036
:10283000BFF8A06880471021284600F067F80028FC
:102840000CD01021284600F039F80022102128462B
:1028500000F0AEF8E068BDE87040004770BD0000D1
:10286000000C00408800002010B50C4C01212046CF
:1028700000F04CF800280FD006F0F4FD05F0A4FDA0
:1028800005F086FA06480168491C01602046BDE84B
:102890001040012100F012B810BD000000100040EF
:1028A00018000020002904D0018841F08001018037
:1028B0007047018821F0800101807047C94301827F
:1028C0007047002904D0018841F001010180704760
:1028D000018821F0010101807047002905D030F8FE
:1028E000441F41F400410180704730F8441FC1F398
:1028F0000E0101807047808E7047008F7047808F77
:102900007047B0F840007047808C70470246002046
:10291000138A0B4092890A40002B02D0002A00D073
:102920000120704770B505460C461D48854209D008
:102930001C48854206D0B5F1804F03D01A48854225
:1029400000D01A4820886188A288238960B10428B1
:1029500013D008281AD02846FFF7AEFEE188284693
:10296000BDE8704000F071B92846FFF7F1FDE1883D
:102970002846BDE8704000F04CB92846FFF722FE1B
:10298000E1882846BDE8704000F04BB92846FFF7C3
:1029900057FEE1882846BDE8704000F04EB90000BF
:1029A000002C0140003401400004004000080040B9
:1029B000002A03D082890A438281704782898A4330
:1029C0008281704730B5028C22F001020284028CB1
:1029D0008388048B24F0700424F003050C882C43B6
:1029E00022F002020D8915434A882A43124DA8425B
:1029F0000BD0124DA84208D0114DA84205D0114D60
:102A0000A84202D0104DA8420FD122F008054A89F1
:102A10002A4322F004058A882A4323F4807323F48E
:102A200000738D891D43CB892B4383800483C98820
:102A30008186028430BD0000002C0140003401403A
:102A4000004001400044014000480140028B22F058
:102A500008020A430283704770B5028C22F010020C
:102A60000284028C8388048B24F4E04424F44076AE
:102A70000D884FF6FF7404EA0525354322F0200245
:102A80000E8904EA061616434A8804EA0212324303
:102A9000114EB04202D0114EB04217D122F0800246
:102AA0004E8904EA0616164326F040068A8804EA90
:102AB0000212324323F4806323F400638E8904EA14
:102AC00086061E43CB8904EA830333438380058350
:102AD000C9880187028470BD002C01400034014088
:102AE000028B22F400624FF6FF7303EA01211143C7
:102AF0000183704770B5028C22F480720284028CCC
:102B00008388848B24F0700424F003040D8825430B
:102B100022F400720E894FF6FF7404EA062616436B
:102B20004A8804EA02223243114EB04202D0114ECA
:102B3000B04217D122F400664A8904EA02223243E5
:102B400022F480668A8804EA0222324323F4805306
:102B500023F400538E8904EA06161E43CB8904EA47
:102B60000313334383808583C9888187028470BDC2
:102B7000002C014000340140828B22F008020A43FD
:102B80008283704770B5028C22F480520284058CD7
:102B90008288838B23F4E04323F440760C884FF63D
:102BA000FF7303EA0424344325F400550E8903EA35
:102BB00006362E434D8803EA05353543094EB042AB
:102BC00002D0094EB04205D122F480468A8903EA38
:102BD0008212324382808483C988A0F84010058421
:102BE00070BD0000002C014000340140828B22F4B3
:102BF00000624FF6FF7303EA01211143818370479E
:102C0000818670470187704781877047A0F8401020
:102C10007047028B22F00C020283028B0A4302836C
:102C20007047028B22F440620283028B4FF6FF73DF
:102C300003EA01210A4302837047828B22F00C02CF
:102C40008283828B0A4382837047828B22F44062A4
:102C50008283828B4FF6FF7303EA01210A4382834A
:102C60007047000030B502881B4C1C4DA0420DD0AF
:102C7000A8420BD0B0F1804F08D0194B984205D034
:102C8000184B984202D0184B984203D122F070039F
:102C90004A881A43154B984206D0154B984203D0E8
:102CA00022F44073CA881A4302808A8882850A887F
:102CB0000285A0420AD0A84208D00E4A904205D010
:102CC0000D4A904202D00D4A904201D1097A018604
:102CD0000121818230BD0000002C01400034014000
:102CE0000004004000080040000C004000100040BC
:102CF00000140040004001400044014000480140F1
:102D00000EB500220092022002900BE0019206E034
:102D100002990098084400900198401C0190019885
:102D20000228F5D30298411E0291EFD2029800903A
:102D30000EBD70B500F032F800F018F80024002540
:102D400000F01CF8FFF7DCFF6006040E00F02EF820
:102D500008B144F0010400F009F8FFF7D1FF6D1C41
:102D6000EDB2082DECD3204670BD000000224021BA
:102D70000148FEF702BE0000000C01400122402184
:102D80000148FEF7FABD0000000C0140002280213E
:102D90000148FEF7F2BD0000000C01400122802135
:102DA0000148FEF7EABD0000000C01408021014807
:102DB000FEF7D8BD000C014010B5FFF7EFFFFFF79D
:102DC0009FFFFFF7DBFFFFF79BFFFFF7EFFF60B110
:102DD000FFF7DCFFFFF794FFFFF7C8FFFFF790FF57
:102DE000FFF7E4FF18B1032010BD022010BD002042
:102DF00010BD10B5FFF7CAFFFFF782FFFFF7BEFF58
:102E0000FFF77EFFFFF7CAFFBDE81040FFF778BF6E
:102E100010B5FFF7BBFFFFF773FFFFF7AFFFFFF73B
:102E20006FFFFFF7A3FFFFF76BFFBDE81040FFF751
:102E3000B5BF70B50546FFF799FF0024280602D5F7
:102E4000FFF7ACFF01E0FFF7A1FF6806050EFFF7F3
:102E500057FFFFF793FFFFF753FFFFF787FFFFF7DA
:102E60004FFF641CE4B2082CE8D3FFF797FFFFF78D
:102E700047FFFFF783FFFFF743FFFFF797FF38B1E7
:102E8000FFF774FFFFF78AFFFFF73AFF012070BDDD
:102E9000FFF76CFFFFF782FFFFF732FF002070BDE6
:102EA00010B5FFF77BFFFFF72BFFFFF767FFFFF77B
:102EB00027FFFFF75BFFBDE81040FFF721BF0000D1
:102EC000014800F0F0B800000C760020014800F046
:102ED000EAB80000347E0020014800F0E4B80000A9
:102EE0009C6D0020014800F0DEB80000D471002085
:102EF0008A05C94301807047002904D0818941F4C3
:102F0000005181817047818921F40051818170478E
:102F10000246002012880A4200D00120704770B596
:102F2000002440F66A12C1F3421301F01F05012686
:102F300006FA05F2012B0CD0022B0DD0838A134028
:102F4000090A8E40008830400BB100B101242046B0
:102F500070BD83891340F3E7038A1340F0E710B58F
:102F600040F66A13C1F3421301F01F040121A1408E
:102F7000012B07D0022B07D014303AB102680A4364
:102F8000026010BD0C30F8E71030F6E702688A43A3
:102F9000026010BD30B585B004460D46208A4CF65F
:102FA000FF710840E98801432182A0894EF6F311A0
:102FB0000840A9882A8911436A8902431143A181E3
:102FC000A08A4FF6FF410840A9890143A1826846C3
:102FD000FFF76CF81D48844201D1039800E0029885
:102FE000A189090408D500EBC00101EB0010296894
:102FF0004900B0FBF1F007E000EBC00101EB00106D
:1030000029688900B0FBF1F06422B0FBF2F10901FC
:103010000B096FF018056B4300EB8300A3891D04B7
:103020004FF0320307D503EBC000B0FBF2F000F025
:103030000700084306E003EB0010B0FBF2F000F0DD
:103040000F000843208105B030BD0000003801406A
:103050008088C0F308007047C1F308018180704781
:10306000012282F31088428B002383F31088002A08
:1030700017D0038B8268D25C0A70012181F310881B
:10308000018B491C89B20183C289914201D300217D
:103090000183418B491E4183002080F31088012069
:1030A0007047002070472DE9F041044640F2255159
:1030B0002068FFF734FF0025B8B12068FFF7C8FF8C
:1030C000C0B2E28AA1688854E18A491C8AB2E282CD
:1030D000E1898A4200D3E582628B8A4202D2618B07
:1030E000491C6183616A01B1884740F227773946FC
:1030F0002068FFF714FF40F2266600B3A08A90B163
:10310000618A6068415C2068FFF7A6FF608A401C06
:1031100080B26082A189884200D36582A08A401E65
:10312000A082BDE8F081002239462068FFF717FF32
:1031300031462068BDE8F0410122FFF710BF31465B
:103140002068FFF7ECFE0028EBD0A08A88B1618AE6
:103150006068415C2068FFF77FFF608A401C80B296
:103160006082A189884200D36582A08A401EA08225
:10317000D7E7002231462068FFF7F1FE206A0028D9
:10318000CFD0BDE8F041004778B4002324E0858922
:10319000012484F31088848A0094002484F3108826
:1031A000BDF80040A542F3D9CC5C068A4568AC5511
:1031B000012484F31088048A641CA4B204828589E3
:1031C000AC4201D300240482848A641C84820024DB
:1031D00084F310885B1C9BB29342D8D3006878BC00
:1031E000012240F22771FFF7BABE000010B52D4949
:1031F0002B48086001F12800486000F58060886075
:103200004FF480628A811023CB810020088248829B
:10321000C882088348838882C8610862486201F5D1
:103220008761214C0C6001F128044C6010348C60E3
:103230008B81CA8108824882C88208834883888239
:10324000C8610862194B4B6201F58761184B0B602E
:1032500001F128034B6001F585638B608A81CA8187
:1032600008824882C882088348838882C8610862CD
:10327000486201F628010F4B0B6001F128034B60F7
:1032800001F585638B608A81CA8108824882C88281
:10329000088348838882C86108620748486210BD75
:1032A000004400409C6D002000480040BD490008DB
:1032B000004C0040005000406DA900081B4991F8E7
:1032C0002F204B79424091F82A00504091F8262057
:1032D000424091F82500504091F82320424091F857
:1032E0002100504091F820204240887F50400A7FC2
:1032F0004240C87D50408A7D4240087D50408A7CD3
:103300004240087B50400A7A4240887950400A790E
:1033100043405A402F200B1813F8013C0B54401E19
:1033200010F0FF00F7D10A7070470000C8CB0020F2
:10333000FEE700000FB4054B10B503A9044A02983C
:1033400000F014FC10BC5DF814FB00008F96000820
:1033500074010020490050EAC12018BF04204A0D22
:1033600018BF40F0010040F2FF72B2EB515F08BF9E
:1033700040F00200012808BF052070472DE9F74FF3
:10338000144694B00021C4E902111599079121F067
:103390000045C9498D4206DC1599C4E9000117B002
:1033A0000020BDE8F08FC549DFF814A3A9423CDD39
:1033B0000799C44E0029C44FC44A1599534619DDD4
:1033C000FDF7DCF8554506D0C14AC24BFDF7D6F8EB
:1033D000C4E900010AE04FF0D352BE4BFDF7CEF82E
:1033E00032463B46FDF7CAF8C4E9000117B0012098
:1033F000BDE8F08FFDF721F8554506D0B44AB54B2E
:10340000FDF71BF8C4E900010AE04FF0D352B14BBD
:10341000FDF713F832463B46FDF70FF8C4E900010B
:1034200017B04FF0FF30BDE8F08FAB49A9421599B6
:1034300078DB21F0004183468846A84AA84BFDF777
:10344000A3F80022A74BFCF7F8FFFDF7EEF909906F
:10345000FDF7A0F906460F469C4A5346FDF794F83F
:1034600043465A46FDF78DF880468A46984A994B5E
:1034700030463946FDF788F82A0D01250B92424661
:103480005346FDF77EF8032DC4E9000139D00B98AF
:10349000C1F30A51401A05EB45111139814230DA66
:1034A0009148C346784400EB0510CDF80CA00C9071
:1034B000D0E9002330463946FDF766F802460B4650
:1034C0000491069058460399FDF758F880468A46BD
:1034D00002460B4658460399FDF750F8049B069A9E
:1034E000FDF74CF883460C9803913946D0E9022346
:1034F0003046FDF749F85A46039BFDF73FF86D1C2F
:10350000BDE707980028A2BF099817B0BDE8F08F63
:10351000616881F000416160099817B04042BDE8E0
:10352000F08FFFE784461598C1F31301C0F30A50EA
:10353000A0F2F5304FEA601800F01F06C6F1200037
:10354000139000200690079041F4801E05206D46E0
:1035500076B1664A08EB00017A4452F8213002EB5A
:103560008101B3404A68139922FA01F1194305E039
:103570005F4908EB0002794451F82210A1FB0E27A5
:10358000A1FB0C131A449A4234BF0123002303EB1E
:10359000070A05EB8003D3E901B70F448F4234BF1C
:1035A0000121002193448B4411B1934502D903E0DA
:1035B000934501D2012100E00021C3E901B7514444
:1035C00045F82010011EA0F10100C1DC0298059F02
:1035D00000F10050800F12900298DDE90356800040
:1035E000FDF7D8F8834628460D91FDF7E4F86FF013
:1035F0001D02FDF7AAF8CDE90E013046FDF7DBF814
:103600006FF03D02FDF7A1F880468A463846FDF787
:10361000D2F86FF05D02FDF798F807464246534630
:103620001191FCF70AFFDDE90E23FCF706FF5A466D
:103630000D9BFCF702FF00250E465A4628460D9BBF
:10364000FCF79CFFDDE90E23FCF798FF424653464A
:10365000FCF794FF3A46119BFCF793FFDFF898A024
:10366000244A5346FCF790FF07468846234A244BDA
:1036700031462846FCF788FF3A464346FCF7DDFE14
:10368000074688464FF0A842534631462846FCF785
:103690007BFF3A464346FCF7D0FE159A12F0004FE6
:1036A00004D0129A81F0004152421292C4E9000102
:1036B000129817B0BDE8F08FFB21E93F7CD902409A
:1036C000FB21F93F7370032E8A19A33B000040547D
:1036D0003163621A61B4D03DFB21394183C8C96DA1
:1036E000305FE43F0000E03F48810000C4800000FC
:1036F000A6800000182D4454FB21F93D3326A61165
:10370000460B113C2DE9FF4D21F0004807460C46C1
:10371000B8F1795F08DAFDF788F8002801BF0020CA
:10372000324904B0BDE8F08D3A46234610461946AA
:10373000FCF72AFF054602462D480E460B46062199
:10374000784400F05DF82A463346FCF71DFFDDE9BA
:10375000022382468B4638462146FCF715FF044675
:103760000F4652465B4628463146FCF70DFF22467F
:103770003B46FCF703FF07468A464FF0FF322846D8
:103780003146FCF7E2FF1B4A90450ADA3A465346B7
:10379000FCF7F4FE04B00022BDE8F04D134BFCF73B
:1037A000F0BE154A4245A8BFA8F500154FF0000429
:1037B000B8BF124D22462B46FCF7E0FE064688466F
:1037C00022462B4600200949FCF7D8FE04460D4648
:1037D0003A46534630464146FCF7D0FE04B02246F6
:1037E0002B46BDE8F04DFCF7CCBE00000000F03FDA
:1037F000747E00003333D33F0000E93F0000D23F26
:103800002DE9F0414F1E00EBC7010446D1E900014C
:1038100015461E4637F006020DD02A463346FCF701
:10382000B3FE7F1E04EBC703D3E90023FCF705FEBC
:1038300037F00602F1D1022F25D0042F13D0062F26
:1038400018BFBDE8F0812A463346FCF79DFED4E957
:103850000A23FCF7F2FD2A463346FCF795FED4E92D
:103860000823FCF7EAFD2A463346FCF78DFED4E92F
:103870000623FCF7E2FD2A463346FCF785FED4E931
:103880000423FCF7DAFD2A463346FCF77DFED4E933
:103890000223FCF7D2FD2A463346FCF775FED4E935
:1038A0000023BDE8F041FCF7C8BD00002DE9FF4D45
:1038B000054621F0004084B00C46B0F1795F0BDA88
:1038C0002846FFF747FD042808BF00F07FF8284688
:1038D00008B02146BDE8F08D2A460B461046FCF79D
:1038E00053FE06460F462A462346FCF74DFE804609
:1038F00026488A4632463B4605217844FFF780FF3A
:1039000083461098029160B3214A224B40465146AB
:10391000FCF73AFECDE900015A4640465146029B6B
:10392000FCF732FE82468846DDE906014FF0FF32A1
:10393000FCF70BFF52464346FCF720FE32463B465F
:10394000FCF722FEDDE90623FCF718FEDDE9002383
:10395000FCF714FE08B02A462346BDE8F04DFCF7FC
:1039600010BE0B465A4630463946FCF70DFE084A53
:10397000084BFCF762FD42465346FCF705FE08B0D3
:103980002A462346BDE8F04DFCF757BDBA7D00003E
:10399000495555555555C5BF002213461046014996
:1039A000FCF764BE0000F03F0122FCF7CEBEFCF73E
:1039B00044BD0022134610461146FCF757BE40F2A4
:1039C000013200204FF0E041FCF7BFBE024A002068
:1039D0001107FCF7BABE000001FDFFFF02E008C8B6
:1039E000121F08C1002AFAD170477047002001E079
:1039F00001C1121F002AFBD1704700000149086075
:103A000070470000780100202DE9FF5FDDE902200A
:103A1000010DDDF838B0024318D044F61050A1F281
:103A2000FF3141430D140F98012820D0A5EB0B0066
:103A3000401C5FEA000A4FF00004474EDFF81C917B
:103A4000A046504616D5CAF1000728E00F98012479
:103A500043A2012808D0002100980F9BC0E9002153
:103A6000C0E90243BDE8FF9F6FEA0B01F4E7CBF129
:103A70000000DEE7074612E0F80707D0224633468B
:103A800040464946FCF780FD80468946224633463B
:103A900010461946FCF778FD04460E467F10002FAD
:103AA000EAD1DDE90201BAF1000F42464B4602DAE3
:103AB000FCF76AFD01E0FCF7D9FD04460E46002242
:103AC000284BFCF7FDFE03D84FF0FF30014607E01E
:103AD0000022254B20463146FCF7AFFCFDF78BF862
:103AE000102409E0002C0ADB0A220023FCF73CFF2B
:103AF000019B30321A55641E50EA0102F2D1641C57
:103B0000019AC4F1110314440F9A012A03D001222F
:103B100008430DD10AE0084304D000204FF0110BF8
:103B20000F9080E7A3EB0B056D1E0DE05B4504DDF8
:103B30004FF0000205F1010504E003DA4FF0000246
:103B4000A5F10105002AECD000980F99C0E90231D7
:103B5000C0E9004586E70000000024400000F03F77
:103B6000300000000000F0430000E03F2DE9FF4F6F
:103B700095B09B468946064600250FE2252877D159
:103B800000242746F84A0121059400E0044316F872
:103B9000013F203B01FA03F01042F7D130782A2888
:103BA00011D06FF02F033078A0F13002092A16D817
:103BB000059A44F0020402EB820203EB4202104435
:103BC000761C0590EFE759F8042B0592002A03DADA
:103BD000504244F40054059044F00204761C3078BE
:103BE0002E2816D116F8010F44F004042A280DD00F
:103BF0006FF02F023078A0F13003092B09D807EBC2
:103C0000870302EB4303C718761CF3E759F8047BDC
:103C1000761C30786C280FD006DC4C2817D068282A
:103C20000DD06A2814D104E0742810D07A280FD15E
:103C30000DE044F400140AE044F4801401E044F47C
:103C400040147278824202D104F58014761C761CEE
:103C5000307866280BD013DC582877D009DC002890
:103C600075D04528F6D04628F4D047281AD19DE1D2
:103C700018E0632835D0642879D0652812D195E101
:103C8000702873D008DC6728F1D069286FD06E28BF
:103C90000DD06F2806D1B5E073282CD0752875D0CB
:103CA000782874D05A46179990476D1C75E1C4F373
:103CB0000250022809D003280DD0D9F8001004289A
:103CC0000DD00D6009F1040967E1D9F80010EA1779
:103CD000C1E90052F6E7D9F800100D80F2E70D7047
:103CE000F0E719F8041B8DF8001000208DF8010092
:103CF000EA46012003E059F804AB4FF0FF306107BA
:103D00004FF0000102D40DE008F101018846B942EC
:103D10000FDA8045F8DB1AF808100029F4D108E022
:103D200008F1010188468142FADB1AF808100029DF
:103D3000F6D105985B46A0EB080721463846179A4E
:103D400000F094FA284400EB080507E04DE029E173
:103D50000DE01AF8010B5A4617999047B8F101087F
:103D6000F7D25B4621463846179A13E142E00A2211
:103D70000092C4F302524FF0000A022A08D059F808
:103D800004CB032A4FEAEC710AD00DE029E02AE0C7
:103D900009F1070121F00702F2E802C1914609E0AA
:103DA0000FFA8CFC4FEAEC71042A03D14FFA8CFC19
:103DB0004FEAEC71002907DA0A460021DCF1000C19
:103DC00061EB02012D2202E0220504D52B228DF8A1
:103DD0000420012203E0E20701D02022F7E7904609
:103DE00059E00A2102E010220DE010214FF0000AF4
:103DF00000910BE010224FF0000A44F00404082761
:103E0000009203E008224FF0000A0092C4F302522D
:103E1000022A05D059F804CB0021032A08D009E072
:103E200009F1070121F00702F2E802C1914605E01D
:103E30001FFA8CFC042A01D10CF0FF0C4FF0000893
:103E4000220728D5702806D0009B83F0100353EA80
:103E50000A0305D00EE040228DF80420012208E07C
:103E60005CEA010206D030228DF804208DF80500AE
:103E700002229046009B83F0080353EA0A030AD10A
:103E80005CEA010201D1620705D530228DF80420D9
:103E90004FF001087F1E582804D034A003900EA8CC
:103EA00002900DE036A0F9E753466046009AFCF711
:103EB0005BFD84460398825C0298401E029002706B
:103EC0005CEA0100F0D1029806A9081A00F1200A64
:103ED000600702D524F4803400E00127574502DD55
:103EE000A7EB0A0000E0002000EB0A010090059813
:103EF0004144401A0590E00306D45B462146179AD8
:103F0000059800F0B3F90544002706E001A85A46D9
:103F1000C05D179990476D1C7F1C4745F6DBE00399
:103F20000CD55B462146179A059800F09FF9054489
:103F300004E030205A46179990476D1C0099481E9E
:103F400000900029F5DC08E0029802995A460078B2
:103F5000491C0291179990476D1CBAF10001AAF112
:103F6000010AF1DC65E1000009280100303132333B
:103F700034353637383961626364656600000000A5
:103F8000303132333435363738394142434445468F
:103F90000000000000F058F90544761C3078002835
:103FA0007FF4ECAD19B02846BDE8F08F620700D46D
:103FB000062709F1070222F0070CFCE80223E1467C
:103FC00003F000485FEA080C02D00FF2702C0DE0FD
:103FD0005FEA045C02D50FF2682C07E05FEAC47C5C
:103FE00002D00FF2602C01E0AFF2700C4FF0FF38FE
:103FF00023F00043CDF850C065280CD006DC4528DE
:1040000009D046281DD047283DD13DE0662818D06C
:1040100067287ED138E00021112F01DB112000E05C
:10402000781CCDE9000106A90EA8FFF7EDFCDDE93B
:104030000F010E9A03910021009207F1010A0491E9
:104040004DE04FF000400097CDE9011006A90EA801
:10405000FFF7DAFCDDE90F0203920E9B11990022B3
:10406000DDF80CA00093049211B9791C00EB010A51
:10407000B7EB0A0004D4C0F1FF3007F1010A049045
:10408000AAEB0700019044E0012F00DA012700218C
:10409000112F01DD112000E03846CDE9000106A90D
:1040A0000EA8FFF7B1FCDDE90F010E9A0391002184
:1040B00004910092BA4621070CD40399514500DAC5
:1040C0008A46BAF1010F05DD009AAAF10101515C9F
:1040D000302908D0B84202DA10F1040F06DA0121C3
:1040E000CDE9011015E0AAF10101E9E7002805DC9E
:1040F000049901440491AAEB000102E0411C5145DE
:1041000000DD8A460499401A401C01904FF000409F
:104110000290200704D40198504501DBCDF80480BB
:1041200000208DF84F0002980DF14F07B0F1004FBD
:1041300025D02B200E9002984FF0020800280CDAB0
:10414000404202902D200E9007E00A210298FCF7D1
:10415000F5FB3031029007F8011DB8F10001A8F11C
:104160000108F2DC02980028EFD1791E0E98087041
:10417000307800F0200040F0450007F8020D12A84A
:10418000C01B00F107081498007800B1012000EB73
:104190000A01019801EBE07105984144401A401E64
:1041A0000590E00306D45B462146179A059800F077
:1041B0005DF805441498007818B15A46179990474D
:1041C0006D1CE00324D55B462146179A059800F044
:1041D0004DF805441CE00498002807DBDDE90301E5
:1041E000884203DD0098405C179901E01799302060
:1041F0005A469047049805F10105401C0490019827
:10420000401E019004D12E205A46179990476D1CEC
:10421000BAF10001AAF1010ADDDC05E017F8010B93
:104220005A46179990476D1CB8F10001A8F1010892
:10423000F4DC5B462146179A0598ABE62D0000009A
:104240002B000000200000002DE9F041044600256D
:104250001E461746880404D405E039462020B0479E
:104260006D1C641EF9D52846BDE8F0812DE9F041AA
:10427000044600251E469046C80301D5302700E0BD
:104280002027880404D505E041463846B0476D1C18
:10429000641EF9D52846BDE8F08100002DE9F84FED
:1042A00004460D4621F0004000917349814211DC23
:1042B0007249884201DC06D12CB120462946BDE86E
:1042C000F84FFFF771BB6E48002DCCBF6D496E49AA
:1042D000BDE8F88F6D49814211DD6D498142D8BF3B
:1042E0004FF0FF366DDD20462946FFF733F80428EE
:1042F00008BFFFF76BFB20462946BDE8F88F6549EC
:10430000654F25F00045814233DD6449814219DD66
:10431000002632464FF0804320462946FCF78DF8B0
:1043200080468A46012220462946FCF70EFA0022E2
:104330003B46FCF723F942465346FCF797F90446FF
:104340000D463EE001260022BA463B46204629465D
:10435000FCF773F880460F46002253462046294654
:10436000FCF70CF942463B46FCF780F904460D4643
:1043700027E04B4981421BDDDFF828A102260022FD
:10438000534620462946FCF7FFF800223B46FCF73F
:1043900054F880460F460022534620462946FCF733
:1043A000EDF842463B46FCF761F904460D4608E04D
:1043B000032622462B4600203B49FCF757F90446CA
:1043C0000D4622462B4610461946FCF7DDF88B4673
:1043D000824602460B46FCF7D7F8074602463348AA
:1043E00088460B4606217844FFF70AFA52465B4698
:1043F000FCF7CAF882462E488B463A4643460521CA
:104400007844FFF7FDF93A464346FCF7BDF802460B
:104410000B46002E504659460CDAFCF70EF82246A1
:104420002B46FCF7B1F801B022462B46BDE8F04F11
:10443000FCF7A7B8FCF701F822462B46FCF7A4F8D6
:104440001C4A7A4402EBC603D3E90023FCF796F832
:1044500022462B46FCF792F8174A7A4402EBC60331
:10446000D3E90023FCF78DF8009A002AB8BF81F049
:104470000041BDE8F88F0000000010440000F07F0C
:10448000182D4454FB21F93FFB21F9BF0000DC3F0C
:104490000000203E0000F33F0000F03F0000E63F38
:1044A000008003400000F83F0000F0BF9E71000054
:1044B0005C710000FA700000C27000002DE9F04D40
:1044C0009446CCF1000423F000464CEA0404524F19
:1044D00046EAD4749A46884621F00042BC4206D887
:1044E000454240EA050442EAD474BC4204D9BDE81E
:1044F000F04D6246FFF75BBAAAF14055A5F17F6522
:1045000055EA0C040BD0022404EAAA74434DDFF8E8
:1045100010E144EAD87452EA000B04D00CE0BDE884
:10452000F04DFFF7BBBE002C14BF012CBDE8F08D91
:10453000022C30D0032C32D056EA0C0B0AD0BE42EB
:1045400020D1BA4209D126F0804622F0804233467B
:10455000114617E000291ADB25E0DFF8C8B0FB445C
:10456000002C04BFDBE90001BDE8F08D012C02BF87
:10457000DBE9000181F00041BDE8F08D022C0AD09A
:10458000032C0CD0BA4212D1B8F1000F0BDA234839
:104590002549BDE8F08D28462449BDE8F08D284620
:1045A0007146BDE8F08D1D482149BDE8F08D921B94
:1045B00012153C2AC4BF19481D490EDCBAF1000F80
:1045C000BEBF12F13C0F0020014606DB6246FCF73D
:1045D0004DF821F00041FFF761FE002C08BFBDE857
:1045E000F08D012C04BF81F00041BDE8F08D114A2F
:1045F000114B022C07D0FBF7C1FF2A46BDE8F04D56
:104600000A4BFBF7BBBFFBF7B9FF2A46BDE8F04DED
:10461000064BFBF7B6BF00000000F07F182D445496
:10462000FB2109C086700000FB21F9BFFB21094076
:10463000FB21F93F075C143326A6A13C2DE9F0418C
:1046400006460D46174600241EE005F081F8B62008
:1046500005F054F805F0A2F858B9E8B205F04EF8A4
:1046600005F09CF828B9305D05F048F805F096F89B
:1046700020B105F081F80020BDE8F08105F07CF85C
:104680006D1CADB2641CA4B2BC42DED30120F3E7C2
:1046900030B587B001214FF48260FDF7EBFC4FF499
:1046A0000040FDF7CFFC1020ADF8040000248DF889
:1046B000074001A91648FDF7D3F8164D2846FCF728
:1046C000FDFA02948DF80C408DF80D404FF46021F6
:1046D0000491059401218DF8181002A92846FCF7D1
:1046E00037FB01212846FCF7DCFA2846FCF78EFB55
:1046F0002846FCF726FB0028FAD12846FCF797FB52
:104700002846FCF70DFB0028FAD107B030BD0000A9
:104710000010014000280140012200F007039A40E8
:104720000F4B07280DD818460129007806D0904372
:104730001870012202210A48FFF780BF02431A7055
:10474000F7E7012908D058789043587004480122AF
:104750000321401CFFF772BF587802435A70F5E7F7
:104760001C00002070B505462846FBF792FD124953
:10477000124C8D420DD2884201D2A0421BDDA042D4
:1047800019DD2146FBF7D7FD2146BDE87040FBF758
:10479000D2BD0B4A00F1FF4191420CD30949884236
:1047A00009D980F000402146FBF7C5FD2146BDE850
:1047B0007040FBF7C3BD70BD000080800000344333
:1047C0000000B442000034C32848417B027C41EA27
:1047D0000261C27B837B120442EA03221143C16659
:1047E000417C027D41EA0261C27C837C120442EA80
:1047F000032211430167417D027E41EA0261C27DCD
:10480000837D120442EA03221143416790F83A1073
:1048100090F83D2041EA026190F83C2090F83B304E
:10482000120442EA03221143816790F83E1090F887
:10483000412041EA026190F8402090F83F30120494
:1048400042EA03221143C16790F8421090F84520D4
:1048500041EA026190F8442090F84300120442EAD1
:104860000020014301488030016070477C01002036
:1048700010B50021294C207941280ED16079782883
:104880000BD1A079FF2808D1E079062805D1207A3C
:10489000812802D1607A472801D0002010BD607EB7
:1048A00028B9A07E8C2802D1E07E0C2801D00020FF
:1048B00010BD94F82800022807D194F829008C280C
:1048C00003D194F82A000C2801D0002010BD94F8E0
:1048D0003700012807D194F83800B02803D194F8A4
:1048E0003900102801D0002010BD94F852006D2826
:1048F00001D0002010BD62181079491CC9B24D29A1
:10490000F9D34D21201D00F00BF894F85110884286
:1049100001D0002010BD012010BD00007C0100204E
:1049200010B503460022002003E09C5C6040521C4E
:10493000D2B28A42F9D310BD70B50C4C2078002851
:104940000FD00025257060884F2804D0618808A00A
:10495000FEF7F0FC04E0FFF78BFF18B1FFF734FF20
:10496000658070BD07A0FEF7E5FCF9E77C0100203B
:10497000616E676C65206C656E206572723A2564A5
:104980000D0A0000616E676C652063686B206572BC
:10499000723A0D0A00000000052002F023B8000062
:1049A00010B5052002F01EF80349FBF7CAFCFBF71F
:1049B0000FFF00B210BD00000000C84270B50546F0
:1049C000084C0021217040F22F11074A032004F007
:1049D000F9FB6188602904D261884A1C6280081949
:1049E000057170BD7C0100201D4A000810B50A4CFD
:1049F00002212046FCF7BFFF0A2000F019FA02212D
:104A00002046FCF7B6FF0A2000F012FA2046BDE867
:104A100010400221FCF7AFBF00080140024901200D
:104A20000870FFF789BF00007C01002000210020F2
:104A3000084A13181B7B012B01D1491CC9B2401C29
:104A4000C0B21428F5D3022901D3012070470020F9
:104A5000704700006C07002030B5FF24FF230022C0
:104A600006E0855C2C44A4B223449BB2521CD2B213
:104A70008A42F6D3E0B200EB142003EB132140EAA4
:104A8000012080B230BD000070B5114C20780028A4
:104A90000ED06078A4F1080558B1012808D106F0BD
:104AA00067FB6168401AB0F57A7F01D30020A870D7
:104AB00070BD287840B104F08DFF06F059FB6060AE
:104AC0006078401C607070BDBDE8704004F0F2BBBF
:104AD0008000002010B5B62004F0F0FD18B104F0FD
:104AE0004BFE002010BD012010BD00002DE9F0415B
:104AF000002600242546002001F0A6FBFBF7B4FEAB
:104B000022462B46FBF799FC04460D46761CF6B26E
:104B1000322EF0D3264F00223B4620462946FBF793
:104B2000A5FDFBF7E5FE234E706000242546A04658
:104B3000012001F089FBFBF797FE22462B46FBF78D
:104B40007CFC04460D4608F1010808F0FF08B8F1A6
:104B5000320FEDD300223B4620462946FBF786FD67
:104B6000FBF7C6FE306100242546A046022001F076
:104B70006BFBFBF779FE22462B46FBF75EFC0446F7
:104B80000D4608F1010808F0FF08B8F1320FEDD327
:104B900000223B4620462946FBF768FDFBF7A8FEAE
:104BA000F06105483060F060B061BDE8F081000060
:104BB00000004940FC060020CDCCCC3F70B5044637
:104BC000204601F041FB094D04EB440405EB84024F
:104BD000014690605068FBF7AEFB55F82410FBF7D8
:104BE000A3FE01D8012070BD002070BDFC0600208E
:104BF00070B5194E20213046FCF7B4FE174DB415A0
:104C000030B121462846FCF7ADFE08B1022070BD48
:104C100020213046FCF7A6FE20B1FFF707FF08B1C0
:104C2000022070BD21462846FCF79CFE20B1FFF70C
:104C3000FDFE08B1022070BD20213046FCF792FE37
:104C400008B1002070BD21462846FCF78BFE08B154
:104C5000012070BD032070BD00080140001C014010
:104C60002DE9FC5F00200090002403200190684F94
:104C7000B7E0684DC4F308019DF800006854641C57
:104C8000A4B2012C1BD0022C1DD0032C1FD0042C4D
:104C900021D0052C28D038880830A04212D8A01F77
:104CA000C1B2E81CFFF7D8FE01462819C01E4278A1
:104CB000037842EA03228078552819D116E0AA2801
:104CC00000D000248DE0AA2800D0002489E0AA2882
:104CD00000D0002485E0B870252804D0352802D003
:104CE00045287ED000247CE038807AE0914201D0D3
:104CF000002476E0B878252872D1A879697940EA4D
:104D0000012006B2287AE97940EA012000B2FBF7D7
:104D100033FD4149FBF715FB4049FBF744FB404994
:104D2000FBF70FFBFBF7A0FD804604468B460D46C4
:104D30007000FBF72FFD3B4A3B4BFBF725FC8A46F7
:104D4000064622462B46FBF719FC4FF0FF394A4630
:104D5000FBF7FBFC354D00222B46FBF715FCFBF760
:104D600064FD04B242465B4630465146FBF765FBA4
:104D70004A46FBF7EAFC00222B46FBF705FCFBF753
:104D800054FD05B2FA2C00DDFA24FA2D00DDFA25D7
:104D90006FF0F900844200DA0446854200DA0546E5
:104DA00004FB05F000280DDA962C00DD9624962DE4
:104DB00000DD96256FF09500844200DA04468542B6
:104DC00000DA0546204603F05FF90146002004F0B2
:104DD000CFF8284603F058F90146012004F0C8F83E
:104DE00000246946019804F083FB00287FF441AF5A
:104DF000012404E09DF80010012004F096FB6946B0
:104E0000204604F075FB0028F4D1BDE8FC9F0000AB
:104E10003C000020B0030020C3F5484000003443AC
:104E2000D7A3703EFCA9F1D24D62503F00408F40A5
:104E30004FF47A71484300F001B8000030B5074ADA
:104E400054680021064B074D1B68B3FBF5F3434341
:104E500001E05068011B9942FBD330BD001000E017
:104E6000C000002040420F002DE9F047DFF8049415
:104E700099F80000002830D099F8010009F15C058C
:104E8000FD4C05F128064FF00A084FF07E57A5F1BA
:104E9000500A152821D2DFE800F00B228EAAFDFC73
:104EA000FBFAF9F8F7F6F5F4F3F2F1F0EFEEED00B6
:104EB00099F80800B0FBF8F108FB110004EB400082
:104EC00000214078FFF728FC06F052F9C9F80400E9
:104ED00099F80100401C89F80100BDE8F08706F050
:104EE00047F9D9F80410401A0328F6D399F80800B6
:104EF000B0FBF8F108FB1100002114F81000FFF7D7
:104F00000BFC7820FFF79AFF01F048F999F8081098
:104F1000B1FBF8F208FB12124AF83200B1FBF8F0CC
:104F200008FB1010012114F81000FFF7F5FB142006
:104F3000FFF784FF01F032F999F80810B1FBF8F29D
:104F400008FB12120AEBC2025060B1FBF8F008FB3A
:104F5000101004EB400001214078FFF7DDFB99F8C9
:104F60000800B0FBF8F108FB110399F8011049089B
:104F70000AEBC1025468BC4201DB002101E05AF88F
:104F8000311045F82310B0FBF8F108FB110351680C
:104F9000B94201DB012100E00021F154401C89F8F5
:104FA000080006F0E5F8C9F8040099F80100401C73
:104FB00089F8010091E706F0DBF8D9F8041088427F
:104FC0008BD099F80800B0FBF8F108FB110004EB56
:104FD000400000214078FFF79FFB06F0C9F8C9F8B0
:104FE000040099F80100401C89F8010075E706F0FB
:104FF000BFF8D9F80410401A0328DBD399F8080049
:10500000B0FBF8F108FB1100002114F81000FFF7C5
:1050100083FB7820FFF712FF01F0C0F899F8081021
:10502000B1FBF8F208FB12124AF83200B1FBF8F0BB
:1050300008FB1010012114F81000FFF76DFB14207D
:10504000FFF7FCFE01F0AAF899F80810B1FBF8F29E
:1050500008FB12120AEBC2025060B1FBF8F008FB29
:10506000101004EB400001214078FFF755FB99F840
:10507000080010E0FDE3FDE3EAE388E36BE3FEE212
:10508000E1E274E257E2EAE1CDE160E143E1D0E040
:10509000B3E046E029E0B0FBF8F108FB110399F812
:1050A000011049080AEBC1025468BC4201DB00212F
:1050B00001E05AF8311045F82310B0FBF8F108FB75
:1050C00011035168B94201DB012100E00021F154D4
:1050D000401C89F8080006F04BF8C9F8040099F85C
:1050E0000100401C89F80100F7E606F041F8D9F804
:1050F00004108842F8D099F80800B0FBF8F108FBDA
:10510000110004EB400000214078FFF705FB06F09A
:105110002FF8C9F8040099F80100401C89F8010033
:10512000DBE606F025F8D9F80410401A0328DBD393
:1051300099F80800B0FBF8F108FB1100002114F801
:105140001000FFF7E9FA7820FFF778FE01F026F863
:1051500099F80810B1FBF8F208FB12124AF8320075
:10516000B1FBF8F008FB1010012114F81000FFF754
:10517000D3FA1420FFF762FE01F010F899F8081036
:10518000B1FBF8F208FB12120AEBC2025060B1FB4D
:10519000F8F008FB101004EB400001214078FFF705
:1051A000BBFA99F80800B0FBF8F108FB110399F875
:1051B000011049080AEBC1025468BC4201DB00211E
:1051C00001E05AF8311045F82310B0FBF8F108FB64
:1051D00011035168B94201DB012100E00021F154C3
:1051E000401C89F8080005F0C3FFC9F8040099F8CD
:1051F0000100401C89F801006FE605F0B9FFD9F8FD
:10520000041088428CD099F80800B0FBF8F108FB34
:10521000110004EB400000214078FFF77DFA05F013
:10522000A7FFC9F8040099F80100401C89F80100A3
:1052300053E605F09DFFD9F80410401A0328DBD38C
:1052400099F80800B0FBF8F108FB1100002114F8F0
:105250001000FFF761FA7820FFF7F0FD00F09EFFE5
:1052600099F80810B1FBF8F208FB12124AF8320064
:1052700004E000000002002028000020B1FBF8F04C
:1052800008FB1010012114F81000FFF745FA142054
:10529000FFF7D4FD00F082FF99F80810B1FBF8F297
:1052A00008FB12120AEBC2025060B1FBF8F008FBD7
:1052B000101004EB400001214078FFF72DFA99F817
:1052C0000800B0FBF8F108FB110399F80110490838
:1052D0000AEBC1025468BC4201DB002101E05AF82C
:1052E000311045F82310B0FBF8F108FB11035168A9
:1052F000B94201DB012100E00021F154401C89F892
:10530000080005F035FFC9F8040099F80100401CB9
:1053100089F80100E1E505F02BFFD9F80410884277
:1053200086D099F80800B0FBF8F108FB110004EBF7
:10533000400000214078FFF7EFF905F019FFC9F8A8
:10534000040099F80100401C89F80100C5E505F04A
:105350000FFFD9F80410401A0328DBD399F808008E
:10536000B0FBF8F108FB1100002114F81000FFF762
:10537000D3F97820FFF762FD00F010FF99F80810CC
:10538000B1FBF8F208FB12124AF83200B1FBF8F058
:1053900008FB1010012114F81000FFF7BDF91420CC
:1053A000FFF74CFD00F0FAFE99F80810B1FBF8F297
:1053B00008FB12120AEBC2025060B1FBF8F008FBC6
:1053C000101004EB400001214078FFF7A5F999F88F
:1053D0000800B0FBF8F108FB110399F80110490827
:1053E0000AEBC1025468BC4201DB002101E05AF81B
:1053F000311045F82310B0FBF8F108FB1103516898
:10540000B94201DB012100E00021F154401C89F880
:10541000080005F0ADFEC9F8040099F80100401C31
:1054200089F8010059E505F0A3FED9F80410884277
:105430008CD099F80800B0FBF8F108FB110004EBE0
:10544000400000214078FFF767F905F091FEC9F8A8
:10545000040099F80100401C89F801003DE505F0C1
:1054600087FED9F80410401A0328DBD399F8080006
:10547000B0FBF8F108FB1100002114F81000FFF751
:105480004BF97820FFF7DAFC00F088FE99F8081055
:10549000B1FBF8F208FB12124AF83200B1FBF8F047
:1054A00008FB1010012114F81000FFF735F9142043
:1054B000FFF7C4FC00F072FE99F80810B1FBF8F297
:1054C00008FB12120AEBC2025060B1FBF8F008FBB5
:1054D000101004EB400001214078FFF71DF999F806
:1054E0000800B0FBF8F108FB110399F80110490816
:1054F0000AEBC1025468BC4201DB002101E05AF80A
:10550000311045F82310B0FBF8F108FB1103516886
:10551000B94201DB012100E00021F154401C89F86F
:10552000080005F025FEC9F8040099F80100401CA8
:1055300089F80100D1E405F01BFED9F80410884277
:105540008CD099F80800B0FBF8F108FB110004EBCF
:10555000400000214078FFF7DFF805F009FEC9F8A8
:10556000040099F80100401C89F80100B5E405F039
:10557000FFFDD9F80410401A0328DBD399F808007E
:10558000B0FBF8F108FB1100002114F81000FFF740
:10559000C3F87820FFF752FC00F000FE99F80810DD
:1055A000B1FBF8F208FB12124AF83200B1FBF8F036
:1055B00008FB1010012114F81000FFF7ADF81420BB
:1055C000FFF73CFC00F0EAFD99F80810B1FBF8F297
:1055D00008FB12120AEBC2025060B1FBF8F008FBA4
:1055E000101004EB400001214078FFF795F899F87E
:1055F0000800B0FBF8F108FB110399F80110490805
:105600000AEBC1025468BC4201DB002101E05AF8F8
:10561000311045F82310B0FBF8F108FB1103516875
:10562000B94201DB012100E00021F154401C89F85E
:10563000080005F09DFDC9F8040099F80100401C20
:1056400089F8010049E405F093FDD9F80410884277
:105650008CD099F80800B0FBF8F108FB110004EBBE
:10566000400000214078FFF757F805F081FDC9F8A8
:10567000040099F80100401C89F801002DE405F0B0
:1056800077FDD9F80410401A0328DBD399F80800F5
:10569000B0FBF8F108FB1100002114F81000FFF72F
:1056A0003BF87820FFF7CAFB00F078FD99F8081066
:1056B000B1FBF8F208FB12124AF83200B1FBF8F025
:1056C00008FB1010012114F81000FFF725F8142032
:1056D000FFF7B4FB00F062FD99F80810B1FBF8F297
:1056E00008FB12120AEBC2025060B1FBF8F008FB93
:1056F000101004EB400001214078FFF70DF899F8F5
:105700000800B0FBF8F108FB110399F801104908F3
:105710000AEBC1025468BC4201DB002101E05AF8E7
:10572000311045F82310B0FBF8F108FB1103516864
:10573000B94201DB012100E00021F154401C89F84D
:10574000080005F015FDC9F8040099F80100401C97
:1057500089F801002EE405F00BFDD9F80410884209
:10576000F8D099F80800B0FBF8F108FB110004EB41
:10577000400000214078FEF7CFFF05F0F9FCC9F8A2
:10578000040099F80100401C89F8010012E405F0BA
:10579000EFFCD9F80410401A0328DBD37820FFF778
:1057A0004DFB00F0FBFC99F80810B1FBF8F208FB88
:1057B00012124AF83200B1FBF8F008FB1010012178
:1057C00014F81000FEF7A8FF1420FFF737FB00F0D5
:1057D000E5FC99F80810B1FBF8F208FB12120AEB8D
:1057E000C2025060B1FBF8F008FB101004EB40005F
:1057F00001214078FEF790FF99F80800B0FBF8F11E
:1058000008FB110399F8011049080AEBC10254681A
:10581000BC4201DB002101E05AF8311045F82310A9
:10582000B0FBF8F108FB11035168B94201DB01211B
:1058300000E00021F154401C89F8080005F098FCB4
:10584000C9F8040099F80100401C89F801004BE4F4
:1058500005F08EFCD9F804108842F8D099F80800B9
:10586000B0FBF8F108FB110004EB40000021407888
:1058700001E06DE00BE0FEF74FFF05F079FCC9F8A1
:10588000040099F80100401C89F801002CE405F09F
:105890006FFCD9F80410401A0328D8D37820FFF7FA
:1058A000CDFA00F07BFC99F80810B1FBF8F208FB88
:1058B00012124AF83200B1FBF8F008FB1010012177
:1058C00014F81000FEF728FF1420FFF7B7FA00F0D5
:1058D00065FC99F80810B1FBF8F208FB12120AEB0C
:1058E000C2025060B1FBF8F008FB101004EB40005E
:1058F00001214078FEF710FF99F80800B0FBF8F19D
:1059000008FB110399F8011049080AEBC102546819
:10591000BC4201DB002101E05AF8311045F82310A8
:10592000B0FBF8F108FB11035168B94201DB01211A
:1059300000E00021F154401C89F8080005F018FC33
:10594000C9F8040099F80100401C89F8010053E4EB
:1059500005F00EFCD9F804108842F8D0002089F830
:10596000010089F8080047E470B50024164D55F889
:105970002400FAF779FF02460B46214613A0FDF7F3
:10598000D9FC641CE4B20A2CF1D302F00FFF02F040
:10599000D5FE00F09FF8A8B10FA111A0FDF7CAFC39
:1059A00002F050FF002002F01DFB01460FA0FDF7A2
:1059B000C1FC012002F016FBBDE8704001460EA0BC
:1059C000FDF7B8BC0FA1E8E75C0200205B25645D31
:1059D0003A252E3246200000C8A1B3F60000000090
:1059E000B3BEBAD0A3BA2573200000004C202564B2
:1059F000204D4D2F5320200052202564204D4D2F47
:105A0000530D0A00D7B0BBD80000000070B50546A2
:105A1000294800EB051420688047062205EB450362
:105A20000026A8B32179062901D2227170BD0C2964
:105A300002D2491C217170BDA07A05EB45056D1C91
:105A400020B90120A072E8B202F02EFF21890029BE
:105A5000F1D0E08888420BD2401C80B2E0802189DE
:105A60008842E8D1BDE87040DB1CD8B202F01CBF10
:105A7000E07A0028DFD0207B401CC0B22073E17A9E
:105A80008842D8D32673E8B2BDE8704002F00CBF5C
:105A90002079062801D922710BE010B1401E207137
:105AA00007E0A07A012804D1A6729B1CD8B202F0AC
:105AB000FBFEE680267370BD5C8600200448002152
:105AC0004170416041810172012101707047000005
:105AD0000002002010B54FF480410448FBF742FF5C
